{
  "_format": "hh-sol-artifact-1",
  "contractName": "ExtendedDNSResolver",
  "sourceName": "contracts/resolvers/profiles/ExtendedDNSResolver.sol",
  "abi": [
    {
      "inputs": [],
      "name": "InvalidAddressFormat",
      "type": "error"
    },
    {
      "inputs": [],
      "name": "NotImplemented",
      "type": "error"
    },
    {
      "inputs": [
        {
          "internalType": "bytes",
          "name": "",
          "type": "bytes"
        },
        {
          "internalType": "bytes",
          "name": "data",
          "type": "bytes"
        },
        {
          "internalType": "bytes",
          "name": "context",
          "type": "bytes"
        }
      ],
      "name": "resolve",
      "outputs": [
        {
          "internalType": "bytes",
          "name": "",
          "type": "bytes"
        }
      ],
      "stateMutability": "pure",
      "type": "function"
    },
    {
      "inputs": [
        {
          "internalType": "bytes4",
          "name": "interfaceId",
          "type": "bytes4"
        }
      ],
      "name": "supportsInterface",
      "outputs": [
        {
          "internalType": "bool",
          "name": "",
          "type": "bool"
        }
      ],
      "stateMutability": "view",
      "type": "function"
    }
  ],
  "bytecode": "0x608060405234801561001057600080fd5b50610b0f806100206000396000f3fe608060405234801561001057600080fd5b50600436106100365760003560e01c806301ffc9a71461003b5780638ef98a7e1461006b575b600080fd5b61005560048036038101906100509190610561565b61009b565b60405161006291906105a9565b60405180910390f35b61008560048036038101906100809190610629565b610105565b604051610092919061076d565b60405180910390f35b60007f8ef98a7e000000000000000000000000000000000000000000000000000000007bffffffffffffffffffffffffffffffffffffffffffffffffffffffff1916827bffffffffffffffffffffffffffffffffffffffffffffffffffffffff1916149050919050565b6060600085859061011691906107a7565b9050633b3b57de60e01b7bffffffffffffffffffffffffffffffffffffffffffffffffffffffff1916817bffffffffffffffffffffffffffffffffffffffffffffffffffffffff191614806101af575063f1cb7e0660e01b7bffffffffffffffffffffffffffffffffffffffffffffffffffffffff1916817bffffffffffffffffffffffffffffffffffffffffffffffffffffffff1916145b1561031b5763f1cb7e0660e01b7bffffffffffffffffffffffffffffffffffffffffffffffffffffffff1916817bffffffffffffffffffffffffffffffffffffffffffffffffffffffff1916036102565760008686600490809261021593929190610810565b81019061022291906108b7565b915050603c81146102545760405160200161023c9061092e565b6040516020818303038152906040529250505061034d565b505b6000806102b660028787905088888080601f016020809104026020016040519081016040528093929190818152602001838380828437600081840152601f19601f820116905080830192505050505050506103579092919063ffffffff16565b91509150806102f1576040517fc9e47ee500000000000000000000000000000000000000000000000000000000815260040160405180910390fd5b81604051602001610302919061098f565b604051602081830303815290604052935050505061034d565b6040517fd623472500000000000000000000000000000000000000000000000000000000815260040160405180910390fd5b9695505050505050565b6000806028848461036891906109d9565b101561037a5760008091509150610398565b6000806103888787876103a0565b915091508160001c819350935050505b935093915050565b600080600084846103b191906109d9565b9050604081141580156103c5575060288114155b806103dc575060016002826103da9190610a3c565b145b1561041c576040517f08c379a000000000000000000000000000000000000000000000000000000000815260040161041390610ab9565b60405180910390fd5b60019150855184111561042e57600080fd5b610490565b6000603a8210602f8311161561044e5760308203905061048b565b6047821060408311161561046a57600a6041830301905061048b565b6067821060608311161561048657600a6061830301905061048b565b60ff90505b919050565b60208601855b858110156104f4576104ad8183015160001a610433565b6104bf6001830184015160001a610433565b60ff811460ff831417156104d8576000955050506104f4565b808260041b17808860081b179750505050600281019050610496565b505050935093915050565b600080fd5b600080fd5b60007fffffffff0000000000000000000000000000000000000000000000000000000082169050919050565b61053e81610509565b811461054957600080fd5b50565b60008135905061055b81610535565b92915050565b600060208284031215610577576105766104ff565b5b60006105858482850161054c565b91505092915050565b60008115159050919050565b6105a38161058e565b82525050565b60006020820190506105be600083018461059a565b92915050565b600080fd5b600080fd5b600080fd5b60008083601f8401126105e9576105e86105c4565b5b8235905067ffffffffffffffff811115610606576106056105c9565b5b602083019150836001820283011115610622576106216105ce565b5b9250929050565b60008060008060008060608789031215610646576106456104ff565b5b600087013567ffffffffffffffff81111561066457610663610504565b5b61067089828a016105d3565b9650965050602087013567ffffffffffffffff81111561069357610692610504565b5b61069f89828a016105d3565b9450945050604087013567ffffffffffffffff8111156106c2576106c1610504565b5b6106ce89828a016105d3565b92509250509295509295509295565b600081519050919050565b600082825260208201905092915050565b60005b838110156107175780820151818401526020810190506106fc565b60008484015250505050565b6000601f19601f8301169050919050565b600061073f826106dd565b61074981856106e8565b93506107598185602086016106f9565b61076281610723565b840191505092915050565b600060208201905081810360008301526107878184610734565b905092915050565b600082905092915050565b600082821b905092915050565b60006107b3838361078f565b826107be8135610509565b925060048210156107fe576107f97fffffffff000000000000000000000000000000000000000000000000000000008360040360080261079a565b831692505b505092915050565b600080fd5b600080fd5b6000808585111561082457610823610806565b5b838611156108355761083461080b565b5b6001850283019150848603905094509492505050565b6000819050919050565b61085e8161084b565b811461086957600080fd5b50565b60008135905061087b81610855565b92915050565b6000819050919050565b61089481610881565b811461089f57600080fd5b50565b6000813590506108b18161088b565b92915050565b600080604083850312156108ce576108cd6104ff565b5b60006108dc8582860161086c565b92505060206108ed858286016108a2565b9150509250929050565b600082825260208201905092915050565b50565b60006109186000836108f7565b915061092382610908565b600082019050919050565b600060208201905081810360008301526109478161090b565b9050919050565b600073ffffffffffffffffffffffffffffffffffffffff82169050919050565b60006109798261094e565b9050919050565b6109898161096e565b82525050565b60006020820190506109a46000830184610980565b92915050565b7f4e487b7100000000000000000000000000000000000000000000000000000000600052601160045260246000fd5b60006109e482610881565b91506109ef83610881565b9250828203905081811115610a0757610a066109aa565b5b92915050565b7f4e487b7100000000000000000000000000000000000000000000000000000000600052601260045260246000fd5b6000610a4782610881565b9150610a5283610881565b925082610a6257610a61610a0d565b5b828206905092915050565b7f496e76616c696420737472696e67206c656e6774680000000000000000000000600082015250565b6000610aa36015836108f7565b9150610aae82610a6d565b602082019050919050565b60006020820190508181036000830152610ad281610a96565b905091905056fea2646970667358221220f05677fcb7ce08cdca9d5b9810434687a76f446c5f6bc624a9a70f31d6ce8d4264736f6c63430008140033",
  "linkReferences": {},
  "deployedLinkReferences": {}
}