{
  "_format": "hh-sol-artifact-1",
  "contractName": "FNSDeployer",
  "sourceName": "contracts/FNSDeployer.sol",
  "abi": [
    {
      "inputs": [],
      "stateMutability": "nonpayable",
      "type": "constructor"
    },
    {
      "inputs": [],
      "name": "ADDR_LABEL",
      "outputs": [
        {
          "internalType": "bytes32",
          "name": "",
          "type": "bytes32"
        }
      ],
      "stateMutability": "view",
      "type": "function"
    },
    {
      "inputs": [],
      "name": "RESOLVER_LABEL",
      "outputs": [
        {
          "internalType": "bytes32",
          "name": "",
          "type": "bytes32"
        }
      ],
      "stateMutability": "view",
      "type": "function"
    },
    {
      "inputs": [],
      "name": "REVERSE_REGISTRAR_LABEL",
      "outputs": [
        {
          "internalType": "bytes32",
          "name": "",
          "type": "bytes32"
        }
      ],
      "stateMutability": "view",
      "type": "function"
    },
    {
      "inputs": [],
      "name": "TLD_LABEL",
      "outputs": [
        {
          "internalType": "bytes32",
          "name": "",
          "type": "bytes32"
        }
      ],
      "stateMutability": "view",
      "type": "function"
    },
    {
      "inputs": [],
      "name": "baseRegistrarImplementation",
      "outputs": [
        {
          "internalType": "contract BaseRegistrarImplementation",
          "name": "",
          "type": "address"
        }
      ],
      "stateMutability": "view",
      "type": "function"
    },
    {
      "inputs": [],
      "name": "ensRegistry",
      "outputs": [
        {
          "internalType": "contract ENSRegistry",
          "name": "",
          "type": "address"
        }
      ],
      "stateMutability": "view",
      "type": "function"
    },
    {
      "inputs": [],
      "name": "ensRegistryWithFallback",
      "outputs": [
        {
          "internalType": "contract ENSRegistryWithFallback",
          "name": "",
          "type": "address"
        }
      ],
      "stateMutability": "view",
      "type": "function"
    },
    {
      "inputs": [],
      "name": "fifsRegistrar",
      "outputs": [
        {
          "internalType": "contract FIFSRegistrar",
          "name": "",
          "type": "address"
        }
      ],
      "stateMutability": "view",
      "type": "function"
    },
    {
      "inputs": [
        {
          "internalType": "bytes32",
          "name": "node",
          "type": "bytes32"
        },
        {
          "internalType": "bytes32",
          "name": "label",
          "type": "bytes32"
        }
      ],
      "name": "namehash",
      "outputs": [
        {
          "internalType": "bytes32",
          "name": "",
          "type": "bytes32"
        }
      ],
      "stateMutability": "pure",
      "type": "function"
    },
    {
      "inputs": [],
      "name": "publicResolver",
      "outputs": [
        {
          "internalType": "contract PublicResolver",
          "name": "",
          "type": "address"
        }
      ],
      "stateMutability": "view",
      "type": "function"
    },
    {
      "inputs": [],
      "name": "reverseRegistrar",
      "outputs": [
        {
          "internalType": "contract ReverseRegistrar",
          "name": "",
          "type": "address"
        }
      ],
      "stateMutability": "view",
      "type": "function"
    },
    {
      "inputs": [],
      "name": "stablePriceOracle",
      "outputs": [
        {
          "internalType": "contract StablePriceOracle",
          "name": "",
          "type": "address"
        }
      ],
      "stateMutability": "view",
      "type": "function"
    },
    {
      "inputs": [],
      "name": "zkfRegistrarController",
      "outputs": [
        {
          "internalType": "contract ZKFRegistrarController",
          "name": "",
          "type": "address"
        }
      ],
      "stateMutability": "view",
      "type": "function"
    }
  ],
  "bytecode": "0x608060405234801561001057600080fd5b5060405161001d906108d9565b604051809103906000f080158015610039573d6000803e3d6000fd5b50600080546001600160a01b0319166001600160a01b03929092169182179055604051610065906108e7565b6001600160a01b039091168152602001604051809103906000f080158015610091573d6000803e3d6000fd5b50600180546001600160a01b0319166001600160a01b039290921691821790556040516306ab592360e01b8152600060048201526000805160206200a6ae83398151915260248201523060448201526306ab5923906064016020604051808303816000875af1158015610108573d6000803e3d6000fd5b505050506040513d601f19601f8201168201806040525081019061012c9190610949565b506001546001600160a01b031661017a60006000805160206200a6ce833981519152604080516020808201949094528082019290925280518083038201815260609092019052805191012090565b604051610186906108f5565b6001600160a01b0390921682526020820152604001604051809103906000f0801580156101b7573d6000803e3d6000fd5b50600280546001600160a01b0319166001600160a01b039283169081179091556001546040516306ab592360e01b8152600060048201526000805160206200a6ce83398151915260248201526044810192909252909116906306ab5923906064016020604051808303816000875af1158015610237573d6000803e3d6000fd5b505050506040513d601f19601f8201168201806040525081019061025b9190610949565b506001546040516001600160a01b039091169061027790610903565b6001600160a01b039091168152602001604051809103906000f0801580156102a3573d6000803e3d6000fd5b50600380546001600160a01b0319166001600160a01b039283161790556001546040516306ab592360e01b8152600060048201527fdec08c9dbbdd0890e300eb5062089b2d4b1c40e3673bbccb5423f7b37dcf9a9c60248201523060448201529116906306ab5923906064016020604051808303816000875af115801561032e573d6000803e3d6000fd5b505050506040513d601f19601f820116820180604052508101906103529190610949565b506001546001600160a01b03166306ab59236103b660007fdec08c9dbbdd0890e300eb5062089b2d4b1c40e3673bbccb5423f7b37dcf9a9c604080516020808201949094528082019290925280518083038201815260609092019052805191012090565b60035460405160e084901b6001600160e01b031916815260048101929092527fe5e14487b78f85faa6e1808e89246cf57dd34831548ff2e6097380d98db2504a60248301526001600160a01b031660448201526064016020604051808303816000875af115801561042b573d6000803e3d6000fd5b505050506040513d601f19601f8201168201806040525081019061044f9190610949565b506001546001600160a01b031661049d60006000805160206200a6ce833981519152604080516020808201949094528082019290925280518083038201815260609092019052805191012090565b6040516104a990610911565b6001600160a01b0390921682526020820152604001604051809103906000f0801580156104da573d6000803e3d6000fd5b50600480546001600160a01b0319166001600160a01b0392831690811782556001546040516306ab592360e01b81526000938101939093526000805160206200a6ce83398151915260248401526044830191909152909116906306ab5923906064016020604051808303816000875af115801561055b573d6000803e3d6000fd5b505050506040513d601f19601f8201168201806040525081019061057f9190610949565b5060405161058c9061091f565b604051809103906000f0801580156105a8573d6000803e3d6000fd5b50600680546001600160a01b0319166001600160a01b03928316908117909155600454600354600154604051928516946005936201518093821692909116906105f09061092d565b6001600160a01b0396871681529486166020860152604085019390935260608401919091528316608083015290911660a082015260c001604051809103906000f080158015610643573d6000803e3d6000fd5b50600580546001600160a01b0319166001600160a01b039283169081179091556004805460405163a7fc7a0760e01b81529182019290925291169063a7fc7a0790602401600060405180830381600087803b1580156106a157600080fd5b505af11580156106b5573d6000803e3d6000fd5b505060035460055460405163e0dba60f60e01b81526001600160a01b039182166004820152600160248201529116925063e0dba60f9150604401600060405180830381600087803b15801561070957600080fd5b505af115801561071d573d6000803e3d6000fd5b50506001546005546003546040516001600160a01b03938416955091831693509091169061074a9061093b565b6001600160a01b03938416815291831660208301529091166040820152606001604051809103906000f080158015610786573d6000803e3d6000fd5b50600780546001600160a01b0319166001600160a01b0392909216918217905560408051600060208083018290526000805160206200a6ae83398151915283850152835180840385018152606084018086528151919092012062d5fa2b60e81b909152606483015260848201849052915163d5fa2b009260a48084019391929182900301818387803b15801561081b57600080fd5b505af115801561082f573d6000803e3d6000fd5b505060015460408051600060208083018290526000805160206200a6ae833981519152838501528351808403850181526060840180865281519190920120600754630c4b7b8560e11b90925260648401526001600160a01b0390811660848401529251929093169450631896f70a935060a480820193929182900301818387803b1580156108bc57600080fd5b505af11580156108d0573d6000803e3d6000fd5b50505050610962565b610a8b8062000c3783390190565b610d0180620016c283390190565b6102ed80620023c383390190565b610da880620026b083390190565b611e8d806200345883390190565b6107a780620052e583390190565b611cd98062005a8c83390190565b612f49806200776583390190565b60006020828403121561095b57600080fd5b5051919050565b6102c580620009726000396000f3fe608060405234801561001057600080fd5b50600436106100cf5760003560e01c80637d70c6591161008c5780639368678f116100665780639368678f146101f9578063d1131c7214610220578063f825612114610247578063fd3fa1811461025a57600080fd5b80637d70c659146101ac5780637d73b231146101d357806380869853146101e657600080fd5b8063072e86b1146100d45780630b2c27bc146101045780631d9273c7146101175780635ecb25021461015f5780637085527e1461018657806373ef999a14610199575b600080fd5b6004546100e7906001600160a01b031681565b6040516001600160a01b0390911681526020015b60405180910390f35b6005546100e7906001600160a01b031681565b61015161012536600461026d565b604080516020808201949094528082019290925280518083038201815260609092019052805191012090565b6040519081526020016100fb565b6101517f329539a1d23af1810c48a07fe7fc66a3b34fbc8b37e9b3cdb97bb88ceab7e4bf81565b6001546100e7906001600160a01b031681565b6006546100e7906001600160a01b031681565b6101517fdec08c9dbbdd0890e300eb5062089b2d4b1c40e3673bbccb5423f7b37dcf9a9c81565b6000546100e7906001600160a01b031681565b6003546100e7906001600160a01b031681565b6101517fe5e14487b78f85faa6e1808e89246cf57dd34831548ff2e6097380d98db2504a81565b6101517f99399a6fdf00305eb312ceca5cb6971d481638860700d269d8e5056c8ccf8af581565b6007546100e7906001600160a01b031681565b6002546100e7906001600160a01b031681565b6000806040838503121561028057600080fd5b5050803592602090910135915056fea26469706673582212208f7cb7680bd92779a2362a6956943dcc54e2043bce2c5d04e0ff28ae926542a564736f6c63430008140033608060405234801561001057600080fd5b5060008080526020527fad3228b676f7d3cd4284a5443f17f1962b36e491b30a40b2405849e597ba5fb580546001600160a01b03191633179055610a32806100596000396000f3fe608060405234801561001057600080fd5b50600436106100b45760003560e01c80635b0fc9c3116100715780635b0fc9c3146101ab5780635ef2c7f0146101be578063a22cb465146101d1578063cf408823146101e4578063e985e9c5146101f7578063f79fe5381461024357600080fd5b80630178b8bf146100b957806302571be31461010257806306ab59231461011557806314ab90381461013657806316a25cbd1461014b5780631896f70a14610198575b600080fd5b6100e56100c73660046107f9565b6000908152602081905260409020600101546001600160a01b031690565b6040516001600160a01b0390911681526020015b60405180910390f35b6100e56101103660046107f9565b61026e565b61012861012336600461082e565b61029c565b6040519081526020016100f9565b61014961014436600461087b565b610388565b005b61017f6101593660046107f9565b600090815260208190526040902060010154600160a01b900467ffffffffffffffff1690565b60405167ffffffffffffffff90911681526020016100f9565b6101496101a63660046108a7565b61046e565b6101496101b93660046108a7565b610546565b6101496101cc3660046108ca565b6105fb565b6101496101df366004610921565b61061d565b6101496101f236600461095d565b610689565b6102336102053660046109aa565b6001600160a01b03918216600090815260016020908152604080832093909416825291909152205460ff1690565b60405190151581526020016100f9565b6102336102513660046107f9565b6000908152602081905260409020546001600160a01b0316151590565b6000818152602081905260408120546001600160a01b03163081036102965750600092915050565b92915050565b60008381526020819052604081205484906001600160a01b0316338114806102e757506001600160a01b038116600090815260016020908152604080832033845290915290205460ff165b61030c5760405162461bcd60e51b8152600401610303906109d4565b60405180910390fd5b6040805160208082018990528183018890528251808303840181526060909201909252805191012061033e81866106a4565b6040516001600160a01b0386168152869088907fce0457fe73731f824cc272376169235128c118b49d344817417c6d108d155e829060200160405180910390a39695505050505050565b60008281526020819052604090205482906001600160a01b0316338114806103d357506001600160a01b038116600090815260016020908152604080832033845290915290205460ff165b6103ef5760405162461bcd60e51b8152600401610303906109d4565b60405167ffffffffffffffff8416815284907f1d4f9bbfc9cab89d66e1a1562f2233ccbf1308cb4f63de2ead5787adddb8fa689060200160405180910390a25050600091825260208290526040909120600101805467ffffffffffffffff909216600160a01b0267ffffffffffffffff60a01b19909216919091179055565b60008281526020819052604090205482906001600160a01b0316338114806104b957506001600160a01b038116600090815260016020908152604080832033845290915290205460ff165b6104d55760405162461bcd60e51b8152600401610303906109d4565b6040516001600160a01b038416815284907f335721b01866dc23fbee8b6b2c7b1e14d6f05c28cd35a2c934239f94095602a09060200160405180910390a2505060009182526020829052604090912060010180546001600160a01b0319166001600160a01b03909216919091179055565b60008281526020819052604090205482906001600160a01b03163381148061059157506001600160a01b038116600090815260016020908152604080832033845290915290205460ff165b6105ad5760405162461bcd60e51b8152600401610303906109d4565b6105b784846106a4565b6040516001600160a01b038416815284907fd4735d920b0f87494915f556dd9b54c8f309026070caea5c737245152564d2669060200160405180910390a250505050565b600061060886868661029c565b90506106158184846106d2565b505050505050565b3360008181526001602090815260408083206001600160a01b03871680855290835292819020805460ff191686151590811790915590519081529192917f17307eab39ab6107e8899845ad3d59bd9653f200f220920489ca2b5937696c31910160405180910390a35050565b6106938484610546565b61069e8483836106d2565b50505050565b60009182526020829052604090912080546001600160a01b0319166001600160a01b03909216919091179055565b6000838152602081905260409020600101546001600160a01b03838116911614610758576000838152602081815260409182902060010180546001600160a01b0319166001600160a01b038616908117909155915191825284917f335721b01866dc23fbee8b6b2c7b1e14d6f05c28cd35a2c934239f94095602a0910160405180910390a25b60008381526020819052604090206001015467ffffffffffffffff828116600160a01b90920416146107f45760008381526020818152604091829020600101805467ffffffffffffffff60a01b1916600160a01b67ffffffffffffffff861690810291909117909155915191825284917f1d4f9bbfc9cab89d66e1a1562f2233ccbf1308cb4f63de2ead5787adddb8fa68910160405180910390a25b505050565b60006020828403121561080b57600080fd5b5035919050565b80356001600160a01b038116811461082957600080fd5b919050565b60008060006060848603121561084357600080fd5b833592506020840135915061085a60408501610812565b90509250925092565b803567ffffffffffffffff8116811461082957600080fd5b6000806040838503121561088e57600080fd5b8235915061089e60208401610863565b90509250929050565b600080604083850312156108ba57600080fd5b8235915061089e60208401610812565b600080600080600060a086880312156108e257600080fd5b85359450602086013593506108f960408701610812565b925061090760608701610812565b915061091560808701610863565b90509295509295909350565b6000806040838503121561093457600080fd5b61093d83610812565b91506020830135801515811461095257600080fd5b809150509250929050565b6000806000806080858703121561097357600080fd5b8435935061098360208601610812565b925061099160408601610812565b915061099f60608601610863565b905092959194509250565b600080604083850312156109bd57600080fd5b6109c683610812565b915061089e60208401610812565b6020808252600e908201526d139bdd08185d5d1a1bdc9a5e995960921b60408201526060019056fea26469706673582212200f39409ec1c5148d78624ccdc59592fc45b6500d58190d78dedb3c5e51e1d36e64736f6c63430008140033608060405234801561001057600080fd5b50604051610d01380380610d0183398101604081905261002f91610089565b60008080526020527fad3228b676f7d3cd4284a5443f17f1962b36e491b30a40b2405849e597ba5fb58054336001600160a01b031991821617909155600280549091166001600160a01b03929092169190911790556100b9565b60006020828403121561009b57600080fd5b81516001600160a01b03811681146100b257600080fd5b9392505050565b610c39806100c86000396000f3fe608060405234801561001057600080fd5b50600436106100cf5760003560e01c80635b0fc9c31161008c578063b83f866311610066578063b83f8663146101c5578063cf408823146101d8578063e985e9c5146101eb578063f79fe5381461023757600080fd5b80635b0fc9c31461018c5780635ef2c7f01461019f578063a22cb465146101b257600080fd5b80630178b8bf146100d457806302571be31461010457806306ab59231461011757806314ab90381461013857806316a25cbd1461014d5780631896f70a14610179575b600080fd5b6100e76100e23660046109b2565b610262565b6040516001600160a01b0390911681526020015b60405180910390f35b6100e76101123660046109b2565b610312565b61012a6101253660046109e3565b610368565b6040519081526020016100fb565b61014b610146366004610a32565b610454565b005b61016061015b3660046109b2565b61053a565b60405167ffffffffffffffff90911681526020016100fb565b61014b610187366004610a62565b6105eb565b61014b61019a366004610a62565b6106c3565b61014b6101ad366004610a87565b610778565b61014b6101c0366004610ae6565b61079a565b6002546100e7906001600160a01b031681565b61014b6101e6366004610b19565b610806565b6102276101f9366004610b6c565b6001600160a01b03918216600090815260016020908152604080832093909416825291909152205460ff1690565b60405190151581526020016100fb565b6102276102453660046109b2565b6000908152602081905260409020546001600160a01b0316151590565b6000818152602081905260408120546001600160a01b03166102f257600254604051630178b8bf60e01b8152600481018490526001600160a01b0390911690630178b8bf906024015b602060405180830381865afa1580156102c8573d6000803e3d6000fd5b505050506040513d601f19601f820116820180604052508101906102ec9190610b9a565b92915050565b6000828152602081905260409020600101546001600160a01b03166102ec565b6000818152602081905260408120546001600160a01b031661035f576002546040516302571be360e01b8152600481018490526001600160a01b03909116906302571be3906024016102ab565b6102ec82610821565b60008381526020819052604081205484906001600160a01b0316338114806103b357506001600160a01b038116600090815260016020908152604080832033845290915290205460ff165b6103d85760405162461bcd60e51b81526004016103cf90610bbe565b60405180910390fd5b6040805160208082018990528183018890528251808303840181526060909201909252805191012061040a8186610849565b6040516001600160a01b0386168152869088907fce0457fe73731f824cc272376169235128c118b49d344817417c6d108d155e829060200160405180910390a39695505050505050565b60008281526020819052604090205482906001600160a01b03163381148061049f57506001600160a01b038116600090815260016020908152604080832033845290915290205460ff165b6104bb5760405162461bcd60e51b81526004016103cf90610bbe565b60405167ffffffffffffffff8416815284907f1d4f9bbfc9cab89d66e1a1562f2233ccbf1308cb4f63de2ead5787adddb8fa689060200160405180910390a25050600091825260208290526040909120600101805467ffffffffffffffff909216600160a01b0267ffffffffffffffff60a01b19909216919091179055565b6000818152602081905260408120546001600160a01b03166105c3576002546040516316a25cbd60e01b8152600481018490526001600160a01b03909116906316a25cbd90602401602060405180830381865afa15801561059f573d6000803e3d6000fd5b505050506040513d601f19601f820116820180604052508101906102ec9190610be6565b600082815260208190526040902060010154600160a01b900467ffffffffffffffff166102ec565b60008281526020819052604090205482906001600160a01b03163381148061063657506001600160a01b038116600090815260016020908152604080832033845290915290205460ff165b6106525760405162461bcd60e51b81526004016103cf90610bbe565b6040516001600160a01b038416815284907f335721b01866dc23fbee8b6b2c7b1e14d6f05c28cd35a2c934239f94095602a09060200160405180910390a2505060009182526020829052604090912060010180546001600160a01b0319166001600160a01b03909216919091179055565b60008281526020819052604090205482906001600160a01b03163381148061070e57506001600160a01b038116600090815260016020908152604080832033845290915290205460ff165b61072a5760405162461bcd60e51b81526004016103cf90610bbe565b6107348484610849565b6040516001600160a01b038416815284907fd4735d920b0f87494915f556dd9b54c8f309026070caea5c737245152564d2669060200160405180910390a250505050565b6000610785868686610368565b905061079281848461088c565b505050505050565b3360008181526001602090815260408083206001600160a01b03871680855290835292819020805460ff191686151590811790915590519081529192917f17307eab39ab6107e8899845ad3d59bd9653f200f220920489ca2b5937696c31910160405180910390a35050565b61081084846106c3565b61081b84838361088c565b50505050565b6000818152602081905260408120546001600160a01b03163081036102ec5750600092915050565b806001600160a01b03811661085b5750305b600083815260208190526040902080546001600160a01b0319166001600160a01b038316179055505050565b505050565b6000838152602081905260409020600101546001600160a01b03838116911614610912576000838152602081815260409182902060010180546001600160a01b0319166001600160a01b038616908117909155915191825284917f335721b01866dc23fbee8b6b2c7b1e14d6f05c28cd35a2c934239f94095602a0910160405180910390a25b60008381526020819052604090206001015467ffffffffffffffff828116600160a01b90920416146108875760008381526020818152604091829020600101805467ffffffffffffffff60a01b1916600160a01b67ffffffffffffffff861690810291909117909155915191825284917f1d4f9bbfc9cab89d66e1a1562f2233ccbf1308cb4f63de2ead5787adddb8fa68910160405180910390a2505050565b6000602082840312156109c457600080fd5b5035919050565b6001600160a01b03811681146109e057600080fd5b50565b6000806000606084860312156109f857600080fd5b83359250602084013591506040840135610a11816109cb565b809150509250925092565b67ffffffffffffffff811681146109e057600080fd5b60008060408385031215610a4557600080fd5b823591506020830135610a5781610a1c565b809150509250929050565b60008060408385031215610a7557600080fd5b823591506020830135610a57816109cb565b600080600080600060a08688031215610a9f57600080fd5b85359450602086013593506040860135610ab8816109cb565b92506060860135610ac8816109cb565b91506080860135610ad881610a1c565b809150509295509295909350565b60008060408385031215610af957600080fd5b8235610b04816109cb565b915060208301358015158114610a5757600080fd5b60008060008060808587031215610b2f57600080fd5b843593506020850135610b41816109cb565b92506040850135610b51816109cb565b91506060850135610b6181610a1c565b939692955090935050565b60008060408385031215610b7f57600080fd5b8235610b8a816109cb565b91506020830135610a57816109cb565b600060208284031215610bac57600080fd5b8151610bb7816109cb565b9392505050565b6020808252600e908201526d139bdd08185d5d1a1bdc9a5e995960921b604082015260600190565b600060208284031215610bf857600080fd5b8151610bb781610a1c56fea2646970667358221220bfcc17beea04d3c64a2285a8dd974020a5cfd2051328ca0fbe028b62a40b329f64736f6c63430008140033608060405234801561001057600080fd5b506040516102ed3803806102ed83398101604081905261002f91610058565b600080546001600160a01b0319166001600160a01b039390931692909217909155600155610092565b6000806040838503121561006b57600080fd5b82516001600160a01b038116811461008257600080fd5b6020939093015192949293505050565b61024c806100a16000396000f3fe608060405234801561001057600080fd5b506004361061002b5760003560e01c8063d22057a914610030575b600080fd5b61004361003e3660046101a9565b610045565b005b6000805460015460408051602080820193909352808201879052815180820383018152606082019283905280519301929092206302571be360e01b90915260648201528492916001600160a01b0316906302571be390608401602060405180830381865afa1580156100bb573d6000803e3d6000fd5b505050506040513d601f19601f820116820180604052508101906100df91906101d9565b90506001600160a01b03811615806100ff57506001600160a01b03811633145b61010857600080fd5b6000546001546040516306ab592360e01b81526004810191909152602481018690526001600160a01b038581166044830152909116906306ab5923906064016020604051808303816000875af1158015610166573d6000803e3d6000fd5b505050506040513d601f19601f8201168201806040525081019061018a91906101fd565b5050505050565b6001600160a01b03811681146101a657600080fd5b50565b600080604083850312156101bc57600080fd5b8235915060208301356101ce81610191565b809150509250929050565b6000602082840312156101eb57600080fd5b81516101f681610191565b9392505050565b60006020828403121561020f57600080fd5b505191905056fea26469706673582212204c5f7a6808ca224a586df90bdb283f4df5faa48ff4eb2c38c58c845b84b9bd5464736f6c6343000814003360a060405234801561001057600080fd5b50604051610da8380380610da883398101604081905261002f916101db565b338061005557604051631e4fbdf760e01b81526000600482015260240160405180910390fd5b61005e81610173565b506001600160a01b03811660808190526040516302571be360e01b81527f91d1777781884d03a6757a803996e38de2a42967fb37eeaca72729271025a9e26004820152600091906302571be390602401602060405180830381865afa1580156100cb573d6000803e3d6000fd5b505050506040513d601f19601f820116820180604052508101906100ef91906101db565b90506001600160a01b0381161561016c57604051630f41a04d60e11b81523360048201526001600160a01b03821690631e83409a906024016020604051808303816000875af1158015610146573d6000803e3d6000fd5b505050506040513d601f19601f8201168201806040525081019061016a91906101ff565b505b5050610218565b600080546001600160a01b038381166001600160a01b0319831681178455604051919092169283917f8be0079c531659141344cd1fd0a4f28419497f9722a3daafe3b4186f6b6457e09190a35050565b6001600160a01b03811681146101d857600080fd5b50565b6000602082840312156101ed57600080fd5b81516101f8816101c3565b9392505050565b60006020828403121561021157600080fd5b5051919050565b608051610b676102416000396000818161012d015281816102d701526104c60152610b676000f3fe608060405234801561001057600080fd5b50600436106100ea5760003560e01c80638da5cb5b1161008c578063c66485b211610066578063c66485b2146101e1578063da8c229e146101f4578063e0dba60f14610227578063f2fde38b1461023a57600080fd5b80638da5cb5b146101aa578063bffbe61c146101bb578063c47f0027146101ce57600080fd5b806365669631116100c85780636566963114610167578063715018a61461017a5780637a806d6b14610184578063828eab0e1461019757600080fd5b80630f5a5466146100ef5780631e83409a146101155780633f15457f14610128575b600080fd5b6101026100fd366004610899565b61024d565b6040519081526020015b60405180910390f35b6101026101233660046108cc565b610261565b61014f7f000000000000000000000000000000000000000000000000000000000000000081565b6040516001600160a01b03909116815260200161010c565b6101026101753660046108e7565b610283565b61018261052d565b005b6101026101923660046109cd565b610541565b60025461014f906001600160a01b031681565b6000546001600160a01b031661014f565b6101026101c93660046108cc565b6105bc565b6101026101dc366004610a3c565b610617565b6101826101ef3660046108cc565b610634565b6102176102023660046108cc565b60016020526000908152604090205460ff1681565b604051901515815260200161010c565b610182610235366004610a87565b6106f5565b6101826102483660046108cc565b61075c565b600061025a338484610283565b9392505050565b60025460009061027d90339084906001600160a01b0316610283565b92915050565b6000836001600160a01b0381163314806102ac57503360009081526001602052604090205460ff165b80610342575060405163e985e9c560e01b81526001600160a01b0382811660048301523360248301527f0000000000000000000000000000000000000000000000000000000000000000169063e985e9c590604401602060405180830381865afa15801561031e573d6000803e3d6000fd5b505050506040513d601f19601f820116820180604052508101906103429190610abe565b6103df5760405162461bcd60e51b815260206004820152605b60248201527f526576657273655265676973747261723a2043616c6c6572206973206e6f742060448201527f6120636f6e74726f6c6c6572206f7220617574686f726973656420627920616460648201527f6472657373206f7220746865206164647265737320697473656c660000000000608482015260a4015b60405180910390fd5b60006103ea8661079a565b604080517f91d1777781884d03a6757a803996e38de2a42967fb37eeaca72729271025a9e2602080830191909152818301849052825180830384018152606090920192839052815191012091925081906001600160a01b038916907f6ada868dd3058cf77a48a74489fd7963688e5464b2b0fa957ace976243270e9290600090a36040516305ef2c7f60e41b81527f91d1777781884d03a6757a803996e38de2a42967fb37eeaca72729271025a9e26004820152602481018390526001600160a01b0387811660448301528681166064830152600060848301527f00000000000000000000000000000000000000000000000000000000000000001690635ef2c7f09060a401600060405180830381600087803b15801561050a57600080fd5b505af115801561051e573d6000803e3d6000fd5b50929998505050505050505050565b610535610800565b61053f600061082d565b565b60008061054f868686610283565b604051637737221360e01b81529091506001600160a01b038516906377372213906105809084908790600401610adb565b600060405180830381600087803b15801561059a57600080fd5b505af11580156105ae573d6000803e3d6000fd5b509298975050505050505050565b60007f91d1777781884d03a6757a803996e38de2a42967fb37eeaca72729271025a9e26105e88361079a565b604080516020810193909352820152606001604051602081830303815290604052805190602001209050919050565b60025460009061027d90339081906001600160a01b031685610541565b61063c610800565b6001600160a01b0381166106ab5760405162461bcd60e51b815260206004820152603060248201527f526576657273655265676973747261723a205265736f6c76657220616464726560448201526f07373206d757374206e6f7420626520360841b60648201526084016103d6565b600280546001600160a01b0319166001600160a01b0383169081179091556040517feae17a84d9eb83d8c8eb317f9e7d64857bc363fa51674d996c023f4340c577cf90600090a250565b6106fd610800565b6001600160a01b038216600081815260016020908152604091829020805460ff191685151590811790915591519182527f4c97694570a07277810af7e5669ffd5f6a2d6b74b6e9a274b8b870fd5114cf87910160405180910390a25050565b610764610800565b6001600160a01b03811661078e57604051631e4fbdf760e01b8152600060048201526024016103d6565b6107978161082d565b50565b600060285b80156107f457600019016f181899199a1a9b1b9c1cb0b131b232b360811b600f84161a8153601090920491600019016f181899199a1a9b1b9c1cb0b131b232b360811b600f84161a815360108304925061079f565b50506028600020919050565b6000546001600160a01b0316331461053f5760405163118cdaa760e01b81523360048201526024016103d6565b600080546001600160a01b038381166001600160a01b0319831681178455604051919092169283917f8be0079c531659141344cd1fd0a4f28419497f9722a3daafe3b4186f6b6457e09190a35050565b80356001600160a01b038116811461089457600080fd5b919050565b600080604083850312156108ac57600080fd5b6108b58361087d565b91506108c36020840161087d565b90509250929050565b6000602082840312156108de57600080fd5b61025a8261087d565b6000806000606084860312156108fc57600080fd5b6109058461087d565b92506109136020850161087d565b91506109216040850161087d565b90509250925092565b634e487b7160e01b600052604160045260246000fd5b600082601f83011261095157600080fd5b813567ffffffffffffffff8082111561096c5761096c61092a565b604051601f8301601f19908116603f011681019082821181831017156109945761099461092a565b816040528381528660208588010111156109ad57600080fd5b836020870160208301376000602085830101528094505050505092915050565b600080600080608085870312156109e357600080fd5b6109ec8561087d565b93506109fa6020860161087d565b9250610a086040860161087d565b9150606085013567ffffffffffffffff811115610a2457600080fd5b610a3087828801610940565b91505092959194509250565b600060208284031215610a4e57600080fd5b813567ffffffffffffffff811115610a6557600080fd5b610a7184828501610940565b949350505050565b801515811461079757600080fd5b60008060408385031215610a9a57600080fd5b610aa38361087d565b91506020830135610ab381610a79565b809150509250929050565b600060208284031215610ad057600080fd5b815161025a81610a79565b82815260006020604081840152835180604085015260005b81811015610b0f57858101830151858201606001528201610af3565b506000606082860101526060601f19601f83011685010192505050939250505056fea26469706673582212209d5aecc350196e4f7de17cbbcce4d34f341f76fd52b7b28363d8ce7b15d7826264736f6c6343000814003360806040523480156200001157600080fd5b5060405162001e8d38038062001e8d833981016040819052620000349162000163565b336040518060400160405280601381526020017f5a4b46616972204e616d65205365727669636500000000000000000000000000815250604051806040016040528060058152602001645a4b464e5360d81b81525081600090816200009a919062000244565b506001620000a9828262000244565b5050506001600160a01b038116620000db57604051631e4fbdf760e01b81526000600482015260240160405180910390fd5b620000e68162000111565b50600880546001600160a01b0319166001600160a01b03939093169290921790915560095562000310565b600680546001600160a01b038381166001600160a01b0319831681179093556040519116919082907f8be0079c531659141344cd1fd0a4f28419497f9722a3daafe3b4186f6b6457e090600090a35050565b600080604083850312156200017757600080fd5b82516001600160a01b03811681146200018f57600080fd5b6020939093015192949293505050565b634e487b7160e01b600052604160045260246000fd5b600181811c90821680620001ca57607f821691505b602082108103620001eb57634e487b7160e01b600052602260045260246000fd5b50919050565b601f8211156200023f57600081815260208120601f850160051c810160208610156200021a5750805b601f850160051c820191505b818110156200023b5782815560010162000226565b5050505b505050565b81516001600160401b038111156200026057620002606200019f565b6200027881620002718454620001b5565b84620001f1565b602080601f831160018114620002b05760008415620002975750858301515b600019600386901b1c1916600185901b1785556200023b565b600085815260208120601f198616915b82811015620002e157888601518255948401946001909101908401620002c0565b5085821015620003005787850151600019600388901b60f8161c191681555b5050505050600190811b01905550565b611b6d80620003206000396000f3fe608060405234801561001057600080fd5b50600436106101e55760003560e01c806396e494e81161010f578063c87b56dd116100a2578063e985e9c511610071578063e985e9c514610411578063f2fde38b14610424578063f6a74ed714610437578063fca247ac1461044a57600080fd5b8063c87b56dd146103b2578063d6e4fa86146103c5578063da8c229e146103e5578063ddf7fcb01461040857600080fd5b8063a7fc7a07116100de578063a7fc7a071461036f578063b88d4fde14610382578063c1a287e214610395578063c475abff1461039f57600080fd5b806396e494e81461032e5780639abc832014610341578063a0bcfc7f14610349578063a22cb4651461035c57600080fd5b80633f15457f1161018757806370a082311161015657806370a08231146102fa578063715018a61461030d5780638da5cb5b1461031557806395d89b411461032657600080fd5b80633f15457f146102ae57806342842e0e146102c15780634e543b26146102d45780636352211e146102e757600080fd5b8063095ea7b3116101c3578063095ea7b3146102525780630e297b451461026757806323b872dd1461028857806328ed4f6c1461029b57600080fd5b806301ffc9a7146101ea57806306fdde0314610212578063081812fc14610227575b600080fd5b6101fd6101f83660046115d6565b61045d565b60405190151581526020015b60405180910390f35b61021a6104af565b6040516102099190611643565b61023a610235366004611656565b610541565b6040516001600160a01b039091168152602001610209565b61026561026036600461168b565b61056a565b005b61027a6102753660046116b5565b610579565b604051908152602001610209565b6102656102963660046116ea565b610590565b6102656102a9366004611716565b610620565b60085461023a906001600160a01b031681565b6102656102cf3660046116ea565b6106ba565b6102656102e2366004611742565b6106d5565b61023a6102f5366004611656565b61074a565b61027a610308366004611742565b61076d565b6102656107b5565b6006546001600160a01b031661023a565b61021a6107c9565b6101fd61033c366004611656565b6107d8565b61021a6107fe565b6102656103573660046117e9565b61088c565b61026561036a366004611832565b6108a0565b61026561037d366004611742565b6108ab565b61026561039036600461186e565b6108ff565b61027a6276a70081565b61027a6103ad3660046118ea565b610916565b61021a6103c0366004611656565b610aff565b61027a6103d3366004611656565b60009081526007602052604090205490565b6101fd6103f3366004611742565b600a6020526000908152604090205460ff1681565b61027a60095481565b6101fd61041f36600461190c565b610b67565b610265610432366004611742565b610b95565b610265610445366004611742565b610bd3565b61027a6104583660046116b5565b610c24565b60006001600160e01b031982166301ffc9a760e01b148061048e57506001600160e01b031982166380ac58cd60e01b145b806104a957506001600160e01b03198216630a3b53db60e21b145b92915050565b6060600080546104be90611936565b80601f01602080910402602001604051908101604052809291908181526020018280546104ea90611936565b80156105375780601f1061050c57610100808354040283529160200191610537565b820191906000526020600020905b81548152906001019060200180831161051a57829003601f168201915b5050505050905090565b600061054c82610c33565b506000828152600460205260409020546001600160a01b03166104a9565b610575828233610c6c565b5050565b60006105888484846000610c79565b949350505050565b6001600160a01b0382166105bf57604051633250574960e11b8152600060048201526024015b60405180910390fd5b60006105cc838333610e3e565b9050836001600160a01b0316816001600160a01b03161461061a576040516364283d7b60e01b81526001600160a01b03808616600483015260248201849052821660448201526064016105b6565b50505050565b61062a3383610f37565b61063357600080fd5b6008546009546040516306ab592360e01b81526004810191909152602481018490526001600160a01b038381166044830152909116906306ab5923906064016020604051808303816000875af1158015610691573d6000803e3d6000fd5b505050506040513d601f19601f820116820180604052508101906106b59190611970565b505050565b6106b5838383604051806020016040528060008152506108ff565b6106dd610f8e565b600854600954604051630c4b7b8560e11b815260048101919091526001600160a01b03838116602483015290911690631896f70a90604401600060405180830381600087803b15801561072f57600080fd5b505af1158015610743573d6000803e3d6000fd5b5050505050565b600081815260076020526040812054421061076457600080fd5b6104a982610fbb565b60006001600160a01b038216610799576040516322718ad960e21b8152600060048201526024016105b6565b506001600160a01b031660009081526003602052604090205490565b6107bd610f8e565b6107c76000610fc6565b565b6060600180546104be90611936565b60008181526007602052604081205442906107f7906276a70090611989565b1092915050565b600b805461080b90611936565b80601f016020809104026020016040519081016040528092919081815260200182805461083790611936565b80156108845780601f1061085957610100808354040283529160200191610884565b820191906000526020600020905b81548152906001019060200180831161086757829003601f168201915b505050505081565b610894610f8e565b600b61057582826119f8565b610575338383611018565b6108b3610f8e565b6001600160a01b0381166000818152600a6020526040808220805460ff19166001179055517f0a8bb31534c0ed46f380cb867bd5c803a189ced9a764e30b3a4991a9901d74749190a250565b61090a848484610590565b61061a848484846110b7565b336000908152600a602052604081205460ff1661096e5760405162461bcd60e51b81526020600482015260166024820152752cb7ba9030b932903737ba1031b7b73a3937b63632b960511b60448201526064016105b6565b600083815260076020526040902054429061098d906276a70090611989565b10156109ee5760405162461bcd60e51b815260206004820152602a60248201527f4e616d65206d7573742062652072656769737465726564206f7220696e2067726044820152691858d9481c195c9a5bd960b21b60648201526084016105b6565b6109fb6276a70083611989565b6000848152600760205260409020546276a70090610a1a908590611989565b610a249190611989565b11610a7d5760405162461bcd60e51b815260206004820152602360248201527f4e616d65206475726174696f6e206d75737420626520696e207468652066757460448201526275726560e81b60648201526084016105b6565b60008381526007602052604081208054849290610a9b908490611989565b90915550506000838152600760205260409081902054905184917f9b87a00e30f1ac65d898f070f8a3488fe60517182d0a2098e1b4b93a54aa9bd691610ae391815260200190565b60405180910390a2505060009081526007602052604090205490565b6060610b0a82610c33565b506000610b156111d9565b90506000815111610b355760405180602001604052806000815250610b60565b80610b3f846111e8565b604051602001610b50929190611ab8565b6040516020818303038152906040525b9392505050565b6001600160a01b03918216600090815260056020908152604080832093909416825291909152205460ff1690565b610b9d610f8e565b6001600160a01b038116610bc757604051631e4fbdf760e01b8152600060048201526024016105b6565b610bd081610fc6565b50565b610bdb610f8e565b6001600160a01b0381166000818152600a6020526040808220805460ff19169055517f33d83959be2573f5453b12eb9d43b3499bc57d96bd2f067ba44803c859e811139190a250565b60006105888484846001610c79565b6000818152600260205260408120546001600160a01b0316806104a957604051637e27328960e01b8152600481018490526024016105b6565b6106b5838383600161127b565b336000908152600a602052604081205460ff16610cd15760405162461bcd60e51b81526020600482015260166024820152752cb7ba9030b932903737ba1031b7b73a3937b63632b960511b60448201526064016105b6565b610cda856107d8565b610ce357600080fd5b610cf06276a70042611989565b6276a700610cfe8542611989565b610d089190611989565b11610d1257600080fd5b610d1c8342611989565b6000868152600760209081526040808320939093556002905220546001600160a01b03168015610d4f57610d4f86611381565b610d5985876113bc565b8215610de3576008546009546040516306ab592360e01b81526004810191909152602481018890526001600160a01b038781166044830152909116906306ab5923906064016020604051808303816000875af1158015610dbd573d6000803e3d6000fd5b505050506040513d601f19601f82011682018060405250810190610de19190611970565b505b6001600160a01b038516867fb3d987963d01b2f68493b4bdb130988f157ea43070d4ad840fee0466ed9370d9610e198742611989565b60405190815260200160405180910390a3610e348442611989565b9695505050505050565b6000828152600260205260408120546001600160a01b0390811690831615610e6b57610e6b818486611421565b6001600160a01b03811615610ea957610e8860008560008061127b565b6001600160a01b038116600090815260036020526040902080546000190190555b6001600160a01b03851615610ed8576001600160a01b0385166000908152600360205260409020805460010190555b60008481526002602052604080822080546001600160a01b0319166001600160a01b0389811691821790925591518793918516917fddf252ad1be2c89b69c2b068fc378daa952ba7f163c4a11628f55a4df523b3ef91a4949350505050565b600080610f438361074a565b9050806001600160a01b0316846001600160a01b03161480610f7e5750836001600160a01b0316610f7384610541565b6001600160a01b0316145b8061058857506105888185610b67565b6006546001600160a01b031633146107c75760405163118cdaa760e01b81523360048201526024016105b6565b60006104a982610c33565b600680546001600160a01b038381166001600160a01b0319831681179093556040519116919082907f8be0079c531659141344cd1fd0a4f28419497f9722a3daafe3b4186f6b6457e090600090a35050565b6001600160a01b03821661104a57604051630b61174360e31b81526001600160a01b03831660048201526024016105b6565b6001600160a01b03838116600081815260056020908152604080832094871680845294825291829020805460ff191686151590811790915591519182527f17307eab39ab6107e8899845ad3d59bd9653f200f220920489ca2b5937696c31910160405180910390a3505050565b6001600160a01b0383163b1561061a57604051630a85bd0160e11b81526001600160a01b0384169063150b7a02906110f9903390889087908790600401611ae7565b6020604051808303816000875af1925050508015611134575060408051601f3d908101601f1916820190925261113191810190611b1a565b60015b61119d573d808015611162576040519150601f19603f3d011682016040523d82523d6000602084013e611167565b606091505b50805160000361119557604051633250574960e11b81526001600160a01b03851660048201526024016105b6565b805181602001fd5b6001600160e01b03198116630a85bd0160e11b1461074357604051633250574960e11b81526001600160a01b03851660048201526024016105b6565b6060600b80546104be90611936565b606060006111f583611485565b600101905060008167ffffffffffffffff8111156112155761121561175d565b6040519080825280601f01601f19166020018201604052801561123f576020820181803683370190505b5090508181016020015b600019016f181899199a1a9b1b9c1cb0b131b232b360811b600a86061a8153600a850494508461124957509392505050565b808061128f57506001600160a01b03821615155b1561135157600061129f84610c33565b90506001600160a01b038316158015906112cb5750826001600160a01b0316816001600160a01b031614155b80156112de57506112dc8184610b67565b155b156113075760405163a9fbf51f60e01b81526001600160a01b03841660048201526024016105b6565b811561134f5783856001600160a01b0316826001600160a01b03167f8c5be1e5ebec7d5bd14f71427d1e84f3dd0314c0f7b2291e5b200ac8c7c3b92560405160405180910390a45b505b5050600090815260046020526040902080546001600160a01b0319166001600160a01b0392909216919091179055565b60006113906000836000610e3e565b90506001600160a01b03811661057557604051637e27328960e01b8152600481018390526024016105b6565b6001600160a01b0382166113e657604051633250574960e11b8152600060048201526024016105b6565b60006113f483836000610e3e565b90506001600160a01b038116156106b5576040516339e3563760e11b8152600060048201526024016105b6565b61142c83838361155d565b6106b5576001600160a01b03831661145a57604051637e27328960e01b8152600481018290526024016105b6565b60405163177e802f60e01b81526001600160a01b0383166004820152602481018290526044016105b6565b60008072184f03e93ff9f4daa797ed6e38ed64bf6a1f0160401b83106114c45772184f03e93ff9f4daa797ed6e38ed64bf6a1f0160401b830492506040015b6d04ee2d6d415b85acef810000000083106114f0576d04ee2d6d415b85acef8100000000830492506020015b662386f26fc10000831061150e57662386f26fc10000830492506010015b6305f5e1008310611526576305f5e100830492506008015b612710831061153a57612710830492506004015b6064831061154c576064830492506002015b600a83106104a95760010192915050565b60006001600160a01b038316158015906105885750826001600160a01b0316846001600160a01b0316148061159757506115978484610b67565b806105885750506000908152600460205260409020546001600160a01b03908116911614919050565b6001600160e01b031981168114610bd057600080fd5b6000602082840312156115e857600080fd5b8135610b60816115c0565b60005b8381101561160e5781810151838201526020016115f6565b50506000910152565b6000815180845261162f8160208601602086016115f3565b601f01601f19169290920160200192915050565b602081526000610b606020830184611617565b60006020828403121561166857600080fd5b5035919050565b80356001600160a01b038116811461168657600080fd5b919050565b6000806040838503121561169e57600080fd5b6116a78361166f565b946020939093013593505050565b6000806000606084860312156116ca57600080fd5b833592506116da6020850161166f565b9150604084013590509250925092565b6000806000606084860312156116ff57600080fd5b6117088461166f565b92506116da6020850161166f565b6000806040838503121561172957600080fd5b823591506117396020840161166f565b90509250929050565b60006020828403121561175457600080fd5b610b608261166f565b634e487b7160e01b600052604160045260246000fd5b600067ffffffffffffffff8084111561178e5761178e61175d565b604051601f8501601f19908116603f011681019082821181831017156117b6576117b661175d565b816040528093508581528686860111156117cf57600080fd5b858560208301376000602087830101525050509392505050565b6000602082840312156117fb57600080fd5b813567ffffffffffffffff81111561181257600080fd5b8201601f8101841361182357600080fd5b61058884823560208401611773565b6000806040838503121561184557600080fd5b61184e8361166f565b91506020830135801515811461186357600080fd5b809150509250929050565b6000806000806080858703121561188457600080fd5b61188d8561166f565b935061189b6020860161166f565b925060408501359150606085013567ffffffffffffffff8111156118be57600080fd5b8501601f810187136118cf57600080fd5b6118de87823560208401611773565b91505092959194509250565b600080604083850312156118fd57600080fd5b50508035926020909101359150565b6000806040838503121561191f57600080fd5b6119288361166f565b91506117396020840161166f565b600181811c9082168061194a57607f821691505b60208210810361196a57634e487b7160e01b600052602260045260246000fd5b50919050565b60006020828403121561198257600080fd5b5051919050565b808201808211156104a957634e487b7160e01b600052601160045260246000fd5b601f8211156106b557600081815260208120601f850160051c810160208610156119d15750805b601f850160051c820191505b818110156119f0578281556001016119dd565b505050505050565b815167ffffffffffffffff811115611a1257611a1261175d565b611a2681611a208454611936565b846119aa565b602080601f831160018114611a5b5760008415611a435750858301515b600019600386901b1c1916600185901b1785556119f0565b600085815260208120601f198616915b82811015611a8a57888601518255948401946001909101908401611a6b565b5085821015611aa85787850151600019600388901b60f8161c191681555b5050505050600190811b01905550565b60008351611aca8184602088016115f3565b835190830190611ade8183602088016115f3565b01949350505050565b6001600160a01b0385811682528416602082015260408101839052608060608201819052600090610e3490830184611617565b600060208284031215611b2c57600080fd5b8151610b60816115c056fea26469706673582212204cd068934d8dd3eb1b0e559ca667c3afc64b61dd3f0abef3320eee036cac2abc64736f6c63430008140033608060405234801561001057600080fd5b50338061003757604051631e4fbdf760e01b81526000600482015260240160405180910390fd5b61004081610046565b50610096565b600080546001600160a01b038381166001600160a01b0319831681178455604051919092169283917f8be0079c531659141344cd1fd0a4f28419497f9722a3daafe3b4186f6b6457e09190a35050565b610702806100a56000396000f3fe608060405234801561001057600080fd5b506004361061009e5760003560e01c80638da5cb5b116100665780638da5cb5b14610113578063a200e1531461012e578063cd5d2c7414610137578063d820ed4214610140578063f2fde38b1461014957600080fd5b806319b989a0146100a35780632c0fd74c146100d657806359b6b86c146100ed578063715018a6146100f657806379cf92d314610100575b600080fd5b6100b66100b13660046104db565b61015c565b604080518251815260209283015192810192909252015b60405180910390f35b6100df60015481565b6040519081526020016100cd565b6100df60055481565b6100fe610254565b005b6100fe61010e366004610569565b610268565b6000546040516001600160a01b0390911681526020016100cd565b6100df60035481565b6100df60025481565b6100df60045481565b6100fe610157366004610627565b610318565b604080518082019091526000808252602082015260006101b185858080601f01602080910402602001604051908101604052809392919081815260200183838082843760009201919091525061035b92505050565b90506000600582106101d257836005546101cb919061066d565b9050610225565b816004036101e857836004546101cb919061066d565b816003036101fe57836003546101cb919061066d565b8160020361021457836002546101cb919061066d565b83600154610222919061066d565b90505b6040518060400160405280826305f5e100610240919061066d565b815260006020909101529695505050505050565b61025c61045e565b610266600061048b565b565b61027061045e565b806000815181106102835761028361068a565b6020026020010151600181905550806001815181106102a4576102a461068a565b6020026020010151600281905550806002815181106102c5576102c561068a565b6020026020010151600381905550806003815181106102e6576102e661068a565b6020026020010151600481905550806004815181106103075761030761068a565b602002602001015160058190555050565b61032061045e565b6001600160a01b03811661034f57604051631e4fbdf760e01b8152600060048201526024015b60405180910390fd5b6103588161048b565b50565b8051600090819081905b808210156104555760008583815181106103815761038161068a565b01602001516001600160f81b0319169050600160ff1b8110156103b0576103a96001846106a0565b9250610442565b600760fd1b6001600160f81b0319821610156103d1576103a96002846106a0565b600f60fc1b6001600160f81b0319821610156103f2576103a96003846106a0565b601f60fb1b6001600160f81b031982161015610413576103a96004846106a0565b603f60fa1b6001600160f81b031982161015610434576103a96005846106a0565b61043f6006846106a0565b92505b508261044d816106b3565b935050610365565b50909392505050565b6000546001600160a01b031633146102665760405163118cdaa760e01b8152336004820152602401610346565b600080546001600160a01b038381166001600160a01b0319831681178455604051919092169283917f8be0079c531659141344cd1fd0a4f28419497f9722a3daafe3b4186f6b6457e09190a35050565b6000806000604084860312156104f057600080fd5b833567ffffffffffffffff8082111561050857600080fd5b818601915086601f83011261051c57600080fd5b81358181111561052b57600080fd5b87602082850101111561053d57600080fd5b6020928301989097509590910135949350505050565b634e487b7160e01b600052604160045260246000fd5b6000602080838503121561057c57600080fd5b823567ffffffffffffffff8082111561059457600080fd5b818501915085601f8301126105a857600080fd5b8135818111156105ba576105ba610553565b8060051b604051601f19603f830116810181811085821117156105df576105df610553565b6040529182528482019250838101850191888311156105fd57600080fd5b938501935b8285101561061b57843584529385019392850192610602565b98975050505050505050565b60006020828403121561063957600080fd5b81356001600160a01b038116811461065057600080fd5b9392505050565b634e487b7160e01b600052601160045260246000fd5b808202811582820484141761068457610684610657565b92915050565b634e487b7160e01b600052603260045260246000fd5b8082018082111561068457610684610657565b6000600182016106c5576106c5610657565b506001019056fea264697066735822122060cf7ee8358627263c330fbefd5046001250df4d0d0b06a35b8f66f1d3d343ed64736f6c6343000814003360c06040523480156200001157600080fd5b5060405162001cd938038062001cd9833981016040819052620000349162000254565b803380806200005d57604051631e4fbdf760e01b81526000600482015260240160405180910390fd5b6200006881620001eb565b506040516302571be360e01b81527f91d1777781884d03a6757a803996e38de2a42967fb37eeaca72729271025a9e260048201526000906001600160a01b038416906302571be390602401602060405180830381865afa158015620000d1573d6000803e3d6000fd5b505050506040513d601f19601f82011682018060405250810190620000f79190620002d1565b604051630f41a04d60e11b81526001600160a01b03848116600483015291925090821690631e83409a906024016020604051808303816000875af115801562000144573d6000803e3d6000fd5b505050506040513d601f19601f820116820180604052508101906200016a9190620002f8565b505050508383116200018f576040516307cb550760e31b815260040160405180910390fd5b42831115620001b157604051630b4319e560e21b815260040160405180910390fd5b506001600160a01b03948516608052600180546001600160a01b031916948616949094179093556002919091556003551660a05262000312565b600080546001600160a01b038381166001600160a01b0319831681178455604051919092169283917f8be0079c531659141344cd1fd0a4f28419497f9722a3daafe3b4186f6b6457e09190a35050565b6001600160a01b03811681146200025157600080fd5b50565b60008060008060008060c087890312156200026e57600080fd5b86516200027b816200023b565b60208801519096506200028e816200023b565b8095505060408701519350606087015192506080870151620002b0816200023b565b60a0880151909250620002c3816200023b565b809150509295509295509295565b600060208284031215620002e457600080fd5b8151620002f1816200023b565b9392505050565b6000602082840312156200030b57600080fd5b5051919050565b60805160a05161198c6200034d6000396000818161024e0152610e510152600081816105a901528181610a6d0152610ba1015261198c6000f3fe6080604052600436106101355760003560e01c80638a95b09f116100ab578063acf1a8411161006f578063acf1a8411461037b578063aeb8ce9b1461038e578063ce1e09c0146103ae578063d3419bf3146103c4578063f14fcbc8146103e4578063f2fde38b1461040457600080fd5b80638a95b09f146102f05780638d839ffe146103075780638da5cb5b1461031d5780639791c0971461033b57806398709bbb1461035b57600080fd5b8063530e784f116100fd578063530e784f146101e75780635d3590d514610207578063715018a614610227578063808698531461023c578063839df9451461028857806383e7f6ff146102b557600080fd5b806301ffc9a71461013a57806320ca6cbe1461016f578063237592e8146101915780633ccfd60b146101a45780633d4aa89e146101b9575b600080fd5b34801561014657600080fd5b5061015a610155366004611083565b610424565b60405190151581526020015b60405180910390f35b34801561017b57600080fd5b5061018f61018a3660046110ad565b600255565b005b61018f61019f366004611177565b61045b565b3480156101b057600080fd5b5061018f61076d565b3480156101c557600080fd5b506101d96101d43660046112fb565b6107b2565b604051908152602001610166565b3480156101f357600080fd5b5061018f6102023660046113b5565b61086b565b34801561021357600080fd5b5061018f6102223660046113d2565b610895565b34801561023357600080fd5b5061018f610916565b34801561024857600080fd5b506102707f000000000000000000000000000000000000000000000000000000000000000081565b6040516001600160a01b039091168152602001610166565b34801561029457600080fd5b506101d96102a33660046110ad565b60046020526000908152604090205481565b3480156102c157600080fd5b506102d56102d0366004611413565b61092a565b60408051825181526020928301519281019290925201610166565b3480156102fc57600080fd5b506101d96224ea0081565b34801561031357600080fd5b506101d960025481565b34801561032957600080fd5b506000546001600160a01b0316610270565b34801561034757600080fd5b5061015a610356366004611458565b6109b4565b34801561036757600080fd5b5061018f6103763660046110ad565b600355565b61018f610389366004611495565b6109c9565b34801561039a57600080fd5b5061015a6103a9366004611458565b610b71565b3480156103ba57600080fd5b506101d960035481565b3480156103d057600080fd5b50600154610270906001600160a01b031681565b3480156103f057600080fd5b5061018f6103ff3660046110ad565b610c14565b34801561041057600080fd5b5061018f61041f3660046113b5565b610c6a565b60006001600160e01b031982166301ffc9a760e01b148061045557506001600160e01b031982166338acdd5360e21b145b92915050565b600061049e8a8a8080601f0160208091040260200160405190810160405280939291908181526020018383808284376000920191909152508b925061092a915050565b602081015181519192506104b1916114f7565b3410156104d15760405163044044a560e21b815260040160405180910390fd5b6105678a8a8080601f016020809104026020016040519081016040528093929190818152602001838380828437600081840152601f19601f82011690508083019250505050505050886105628d8d8080601f0160208091040260200160405190810160405280939291908181526020018383808284376000920191909152508f92508e91508d90508c8c8c8c6107b2565b610ca5565b60008a8a60405161057992919061150a565b604051908190038120633f2891eb60e21b825260048201819052336024830152604482018a9052915081906000907f00000000000000000000000000000000000000000000000000000000000000006001600160a01b03169063fca247ac906064016020604051808303816000875af11580156105fa573d6000803e3d6000fd5b505050506040513d601f19601f8201168201806040525081019061061e919061151a565b9050851561064957610649888e8e60405161063a92919061150a565b60405180910390208989610d85565b8415610692576106928d8d8080601f0160208091040260200160405190810160405280939291908181526020018383808284376000920191909152508c9250339150610e4f9050565b8a6001600160a01b03168d8d6040516106ac92919061150a565b60405180910390207f69e37f151eb98a09618ddaa80c8cfaf1ce5996867c489f45b555b412271ebf278f8f88600001518960200151876040516106f395949392919061155c565b60405180910390a36020840151845161070c91906114f7565b34111561075e576020840151845133916108fc9161072a91906114f7565b610734903461158d565b6040518115909202916000818181858888f1935050505015801561075c573d6000803e3d6000fd5b505b50505050505050505050505050565b610775610f03565b600080546040516001600160a01b03909116914780156108fc02929091818181858888f193505050501580156107af573d6000803e3d6000fd5b50565b875160208901206000906001600160a01b0386161580156107d557506001831515145b156107f357604051632036c8bb60e11b815260040160405180910390fd5b831580159061080957506001600160a01b038616155b15610827576040516334fd817160e21b815260040160405180910390fd5b808989898989898960405160200161084698979695949392919061162f565b6040516020818303038152906040528051906020012091505098975050505050505050565b610873610f03565b600180546001600160a01b0319166001600160a01b0392909216919091179055565b61089d610f03565b60405163a9059cbb60e01b81526001600160a01b0383811660048301526024820183905284169063a9059cbb906044016020604051808303816000875af11580156108ec573d6000803e3d6000fd5b505050506040513d601f19601f820116820180604052508101906109109190611687565b50505050565b61091e610f03565b6109286000610f30565b565b60408051808201825260008082526020820152600154915162cdcc4d60e51b815290916001600160a01b0316906319b989a09061096d90869086906004016116f4565b6040805180830381865afa158015610989573d6000803e3d6000fd5b505050506040513d601f19601f820116820180604052508101906109ad9190611716565b9392505050565b600060026109c183610f80565b101592915050565b600083836040516109db92919061150a565b604080519182900382206020601f870181900481028401810190925285835292508291600091610a289190889088908190840183828082843760009201919091525088925061092a915050565b8051909150341015610a4d5760405163044044a560e21b815260040160405180910390fd5b60405163c475abff60e01b815260048101839052602481018590526000907f00000000000000000000000000000000000000000000000000000000000000006001600160a01b03169063c475abff906044016020604051808303816000875af1158015610abe573d6000803e3d6000fd5b505050506040513d601f19601f82011682018060405250810190610ae2919061151a565b8251909150341115610b2a57815133906108fc90610b00903461158d565b6040518115909202916000818181858888f19350505050158015610b28573d6000803e3d6000fd5b505b837f3da24c024582931cfaf8267d8ed24d13a82a8068d5bd337d30ec45cea4e506ae88883485604051610b609493929190611765565b60405180910390a250505050505050565b80516020820120600090610b84836109b4565b80156109ad57506040516312dc929d60e31b8152600481018290527f00000000000000000000000000000000000000000000000000000000000000006001600160a01b0316906396e494e890602401602060405180830381865afa158015610bf0573d6000803e3d6000fd5b505050506040513d601f19601f820116820180604052508101906109ad9190611687565b6003546000828152600460205260409020544291610c31916114f7565b10610c5757604051630a059d7160e01b8152600481018290526024015b60405180910390fd5b6000908152600460205260409020429055565b610c72610f03565b6001600160a01b038116610c9c57604051631e4fbdf760e01b815260006004820152602401610c4e565b6107af81610f30565b6002546000828152600460205260409020544291610cc2916114f7565b1115610ce457604051635320bcf960e01b815260048101829052602401610c4e565b6003546000828152600460205260409020544291610d01916114f7565b11610d225760405163cb7690d760e01b815260048101829052602401610c4e565b610d2b83610b71565b610d4a57826040516308eee0fd60e31b8152600401610c4e919061178c565b6000818152600460205260408120556224ea00821015610d8057604051639a71997b60e01b815260048101839052602401610c4e565b505050565b604080517ffb5f84575b89b73c6f6a4b64bfa657505766152eaf7a7bdcc4ffe2c678d728256020808301919091528183018690528251808303840181526060830193849052805191012063e32954eb60e01b90925285906001600160a01b0382169063e32954eb90610dff9085908890889060640161179f565b6000604051808303816000875af1158015610e1e573d6000803e3d6000fd5b505050506040513d6000823e601f3d908101601f19168201604052610e4691908101906117c2565b50505050505050565b7f00000000000000000000000000000000000000000000000000000000000000006001600160a01b0316637a806d6b33838587604051602001610e9291906118c1565b6040516020818303038152906040526040518563ffffffff1660e01b8152600401610ec094939291906118e9565b6020604051808303816000875af1158015610edf573d6000803e3d6000fd5b505050506040513d601f19601f82011682018060405250810190610910919061151a565b6000546001600160a01b031633146109285760405163118cdaa760e01b8152336004820152602401610c4e565b600080546001600160a01b038381166001600160a01b0319831681178455604051919092169283917f8be0079c531659141344cd1fd0a4f28419497f9722a3daafe3b4186f6b6457e09190a35050565b8051600090819081905b8082101561107a576000858381518110610fa657610fa6611927565b01602001516001600160f81b0319169050600160ff1b811015610fd557610fce6001846114f7565b9250611067565b600760fd1b6001600160f81b031982161015610ff657610fce6002846114f7565b600f60fc1b6001600160f81b03198216101561101757610fce6003846114f7565b601f60fb1b6001600160f81b03198216101561103857610fce6004846114f7565b603f60fa1b6001600160f81b03198216101561105957610fce6005846114f7565b6110646006846114f7565b92505b50826110728161193d565b935050610f8a565b50909392505050565b60006020828403121561109557600080fd5b81356001600160e01b0319811681146109ad57600080fd5b6000602082840312156110bf57600080fd5b5035919050565b60008083601f8401126110d857600080fd5b50813567ffffffffffffffff8111156110f057600080fd5b60208301915083602082850101111561110857600080fd5b9250929050565b6001600160a01b03811681146107af57600080fd5b60008083601f84011261113657600080fd5b50813567ffffffffffffffff81111561114e57600080fd5b6020830191508360208260051b850101111561110857600080fd5b80151581146107af57600080fd5b600080600080600080600080600060e08a8c03121561119557600080fd5b893567ffffffffffffffff808211156111ad57600080fd5b6111b98d838e016110c6565b909b50995060208c013591506111ce8261110f565b90975060408b0135965060608b0135955060808b0135906111ee8261110f565b90945060a08b0135908082111561120457600080fd5b506112118c828d01611124565b90945092505060c08a013561122581611169565b809150509295985092959850929598565b634e487b7160e01b600052604160045260246000fd5b604051601f8201601f1916810167ffffffffffffffff8111828210171561127557611275611236565b604052919050565b600067ffffffffffffffff82111561129757611297611236565b50601f01601f191660200190565b600082601f8301126112b657600080fd5b81356112c96112c48261127d565b61124c565b8181528460208386010111156112de57600080fd5b816020850160208301376000918101602001919091529392505050565b60008060008060008060008060e0898b03121561131757600080fd5b883567ffffffffffffffff8082111561132f57600080fd5b61133b8c838d016112a5565b995060208b0135915061134d8261110f565b90975060408a0135965060608a0135955060808a01359061136d8261110f565b90945060a08a0135908082111561138357600080fd5b506113908b828c01611124565b90945092505060c08901356113a481611169565b809150509295985092959890939650565b6000602082840312156113c757600080fd5b81356109ad8161110f565b6000806000606084860312156113e757600080fd5b83356113f28161110f565b925060208401356114028161110f565b929592945050506040919091013590565b6000806040838503121561142657600080fd5b823567ffffffffffffffff81111561143d57600080fd5b611449858286016112a5565b95602094909401359450505050565b60006020828403121561146a57600080fd5b813567ffffffffffffffff81111561148157600080fd5b61148d848285016112a5565b949350505050565b6000806000604084860312156114aa57600080fd5b833567ffffffffffffffff8111156114c157600080fd5b6114cd868287016110c6565b909790965060209590950135949350505050565b634e487b7160e01b600052601160045260246000fd5b80820180821115610455576104556114e1565b8183823760009101908152919050565b60006020828403121561152c57600080fd5b5051919050565b81835281816020850137506000828201602090810191909152601f909101601f19169091010190565b608081526000611570608083018789611533565b602083019590955250604081019290925260609091015292915050565b81810381811115610455576104556114e1565b818352600060208085019450848460051b86018460005b878110156116225783830389528135601e198836030181126115d857600080fd5b8701858101903567ffffffffffffffff8111156115f457600080fd5b80360382131561160357600080fd5b61160e858284611533565b9a87019a94505050908401906001016115b7565b5090979650505050505050565b8881526001600160a01b03888116602083015260408201889052606082018790528516608082015260e060a0820181905260009061167090830185876115a0565b905082151560c08301529998505050505050505050565b60006020828403121561169957600080fd5b81516109ad81611169565b60005b838110156116bf5781810151838201526020016116a7565b50506000910152565b600081518084526116e08160208601602086016116a4565b601f01601f19169290920160200192915050565b60408152600061170760408301856116c8565b90508260208301529392505050565b60006040828403121561172857600080fd5b6040516040810181811067ffffffffffffffff8211171561174b5761174b611236565b604052825181526020928301519281019290925250919050565b606081526000611779606083018688611533565b6020830194909452506040015292915050565b6020815260006109ad60208301846116c8565b8381526040602082015260006117b96040830184866115a0565b95945050505050565b600060208083850312156117d557600080fd5b825167ffffffffffffffff808211156117ed57600080fd5b818501915085601f83011261180157600080fd5b81518181111561181357611813611236565b8060051b61182285820161124c565b918252838101850191858101908984111561183c57600080fd5b86860192505b838310156118b45782518581111561185a5760008081fd5b8601603f81018b1361186c5760008081fd5b87810151604061187e6112c48361127d565b8281528d828486010111156118935760008081fd5b6118a2838c83018487016116a4565b85525050509186019190860190611842565b9998505050505050505050565b600082516118d38184602087016116a4565b63173d35b360e11b920191825250600401919050565b6001600160a01b03858116825284811660208301528316604082015260806060820181905260009061191d908301846116c8565b9695505050505050565b634e487b7160e01b600052603260045260246000fd5b60006001820161194f5761194f6114e1565b506001019056fea2646970667358221220d8ca4973b867fe64b5d547d1225619d836fb4b1e81e41aad39ef33d55685857664736f6c6343000814003360e06040523480156200001157600080fd5b5060405162002f4938038062002f4983398101604081905262000034916200006b565b6001600160a01b0392831660805290821660a0521660c052620000bf565b6001600160a01b03811681146200006857600080fd5b50565b6000806000606084860312156200008157600080fd5b83516200008e8162000052565b6020850151909350620000a18162000052565b6040850151909250620000b48162000052565b809150509250925092565b60805160a05160c051612e5a620000ef60003960006117f5015260006117c30152600061183d0152612e5a6000f3fe608060405234801561001057600080fd5b50600436106101da5760003560e01c80638b95dd7111610104578063c8690233116100a2578063e32954eb11610071578063e32954eb14610500578063e59d895d14610513578063e985e9c514610526578063f1cb7e061461056257600080fd5b8063c869023314610441578063ce3decdc14610499578063d5fa2b00146104ac578063d700ff33146104bf57600080fd5b8063a8fa5682116100de578063a8fa5682146103b7578063a9784b3e146103ca578063ac9650d81461040e578063bc1c58d11461042e57600080fd5b80638b95dd711461037e578063a22cb46514610391578063a4b91a01146103a457600080fd5b80633603d7581161017c5780635c98042b1161014b5780635c98042b14610332578063623195b014610345578063691f343114610358578063773722131461036b57600080fd5b80633603d758146102a15780633b3b57de146102b45780634cbf6ba4146102c757806359d1d43c1461031257600080fd5b8063124a319c116101b8578063124a319c1461022f5780632203ab561461025a57806329cd62ea1461027b578063304e6ade1461028e57600080fd5b806301ffc9a7146101df5780630af179d71461020757806310f13a8c1461021c575b600080fd5b6101f26101ed36600461231a565b610575565b60405190151581526020015b60405180910390f35b61021a610215366004612376565b610586565b005b61021a61022a3660046123c1565b6107ab565b61024261023d36600461243a565b61088a565b6040516001600160a01b0390911681526020016101fe565b61026d610268366004612466565b610adb565b6040516101fe9291906124d8565b61021a6102893660046124f1565b610c11565b61021a61029c366004612376565b610cbe565b61021a6102af36600461251d565b610d4c565b6102426102c236600461251d565b610e00565b6101f26102d5366004612466565b600082815260208181526040808320546001600160401b031683526006825280832094835293815283822092825291909152205461ffff16151590565b610325610320366004612376565b610e32565b6040516101fe9190612536565b61032561034036600461251d565b610f11565b61021a610353366004612549565b610fcf565b61032561036636600461251d565b61107e565b61021a610379366004612376565b6110b7565b61021a61038c3660046125b1565b611145565b61021a61039f366004612699565b611237565b61021a6103b23660046126c5565b61130d565b6103256103c5366004612703565b6113da565b6101f26103d8366004612743565b6001600160a01b039283166000908152600c60209081526040808320948352938152838220929094168152925290205460ff1690565b61042161041c3660046127be565b611427565b6040516101fe91906127ff565b61032561043c36600461251d565b611435565b61048461044f36600461251d565b600081815260208181526040808320546001600160401b03168352600982528083209383529290522080546001909101549091565b604080519283526020830191909152016101fe565b61021a6104a7366004612376565b61146e565b61021a6104ba366004612861565b6115c2565b6104e86104cd36600461251d565b6000602081905290815260409020546001600160401b031681565b6040516001600160401b0390911681526020016101fe565b61042161050e366004612891565b6115fc565b61021a6105213660046128cf565b611611565b6101f2610534366004612904565b6001600160a01b039182166000908152600b6020908152604080832093909416825291909152205460ff1690565b610325610570366004612466565b6116ca565b600061058082611791565b92915050565b82610590816117b6565b6105b55760405162461bcd60e51b81526004016105ac90612932565b60405180910390fd5b600084815260208181526040808320548151601f87018490048402810184019092528582528392606092839285926001600160401b0390911691839161061a9183918d908d908190840183828082843760009201919091525092939250506119269050565b90505b80515160208201511015610744578661ffff16600003610682578060400151965061064781611987565b94508460405160200161065a9190612977565b60405160208183030381529060405280519060200120925061067b816119a8565b9350610736565b600061068d82611987565b9050816040015161ffff168861ffff161415806106b157506106af86826119c4565b155b156107345761070d8c878a8e8e8080601f016020809104026020016040519081016040528093929190818152602001838380828437600092019190915250505060208801518d91506107049082906129a9565b8b51158a6119e2565b816040015197508160200151965080955085805190602001209350610731826119a8565b94505b505b61073f81611c49565b61061d565b5083511561079f5761079f8a85888c8c8080601f0160208091040260200160405190810160405280939291908181526020018383808284376000920191909152508c925061079691508290508f6129a9565b895115886119e2565b50505050505050505050565b846107b5816117b6565b6107d15760405162461bcd60e51b81526004016105ac90612932565b600086815260208181526040808320546001600160401b03168352600a82528083208984529091529081902090518491849161081090899089906129bc565b9081526020016040518091039020918261082b929190612a54565b50848460405161083c9291906129bc565b6040518091039020867f448bc014f1536726cf8d54ff3d6481ed3cbc683c2591ca204274009afa09b1a18787878760405161087a9493929190612b3c565b60405180910390a3505050505050565b600082815260208181526040808320546001600160401b031683526007825280832085845282528083206001600160e01b0319851684529091528120546001600160a01b031680156108dd579050610580565b60006108e885610e00565b90506001600160a01b03811661090357600092505050610580565b6040516301ffc9a760e01b602482015260009081906001600160a01b0384169060440160408051601f198184030181529181526020820180516001600160e01b03166301ffc9a760e01b1790525161095b9190612977565b600060405180830381855afa9150503d8060008114610996576040519150601f19603f3d011682016040523d82523d6000602084013e61099b565b606091505b50915091508115806109ae575060208151105b806109d8575080601f815181106109c7576109c7612b6e565b01602001516001600160f81b031916155b156109ea576000945050505050610580565b6040516001600160e01b0319871660248201526001600160a01b0384169060440160408051601f198184030181529181526020820180516001600160e01b03166301ffc9a760e01b17905251610a409190612977565b600060405180830381855afa9150503d8060008114610a7b576040519150601f19603f3d011682016040523d82523d6000602084013e610a80565b606091505b509092509050811580610a94575060208151105b80610abe575080601f81518110610aad57610aad612b6e565b01602001516001600160f81b031916155b15610ad0576000945050505050610580565b509095945050505050565b600082815260208181526040808320546001600160401b03168352600180835281842086855290925282206060915b848111610bf15780851615801590610b3a575060008181526020839052604081208054610b36906129cc565b9050115b15610be95780826000838152602001908152602001600020808054610b5e906129cc565b80601f0160208091040260200160405190810160405280929190818152602001828054610b8a906129cc565b8015610bd75780601f10610bac57610100808354040283529160200191610bd7565b820191906000526020600020905b815481529060010190602001808311610bba57829003601f168201915b50505050509050935093505050610c0a565b60011b610b0a565b5060006040518060200160405280600081525092509250505b9250929050565b82610c1b816117b6565b610c375760405162461bcd60e51b81526004016105ac90612932565b60408051808201825284815260208082018581526000888152808352848120546001600160401b031681526009835284812089825283528490209251835551600190920191909155815185815290810184905285917f1d6f5e03d3f63eb58751986629a5439baee5079ff04f345becb66e23eb154e4691015b60405180910390a250505050565b82610cc8816117b6565b610ce45760405162461bcd60e51b81526004016105ac90612932565b600084815260208181526040808320546001600160401b03168352600382528083208784529091529020610d19838583612a54565b50837fe379c1624ed7e714cc0937528a32359d69d5281337765313dba4e081b72d75788484604051610cb0929190612b84565b80610d56816117b6565b610d725760405162461bcd60e51b81526004016105ac90612932565b600082815260208190526040812080546001600160401b031691610d9583612b98565b82546101009290920a6001600160401b03818102199093169183160217909155600084815260208181526040918290205491519190921681528492507fc6621ccb8f3f5a04bb6502154b2caf6adf5983fe76dfef1cfc9c42e3579db444910160405180910390a25050565b600080610e0e83603c6116ca565b90508051600003610e225750600092915050565b610e2b81611d31565b9392505050565b600083815260208181526040808320546001600160401b03168352600a825280832086845290915290819020905160609190610e7190859085906129bc565b90815260200160405180910390208054610e8a906129cc565b80601f0160208091040260200160405190810160405280929190818152602001828054610eb6906129cc565b8015610f035780601f10610ed857610100808354040283529160200191610f03565b820191906000526020600020905b815481529060010190602001808311610ee657829003601f168201915b505050505090509392505050565b600081815260208181526040808320546001600160401b03168352600482528083208484529091529020805460609190610f4a906129cc565b80601f0160208091040260200160405190810160405280929190818152602001828054610f76906129cc565b8015610fc35780601f10610f9857610100808354040283529160200191610fc3565b820191906000526020600020905b815481529060010190602001808311610fa657829003601f168201915b50505050509050919050565b83610fd9816117b6565b610ff55760405162461bcd60e51b81526004016105ac90612932565b836110016001826129a9565b161561100c57600080fd5b600085815260208181526040808320546001600160401b031683526001825280832088845282528083208784529091529020611049838583612a54565b50604051849086907faa121bbeef5f32f5961a2a28966e769023910fc9479059ee3495d4c1a696efe390600090a35050505050565b600081815260208181526040808320546001600160401b03168352600882528083208484529091529020805460609190610f4a906129cc565b826110c1816117b6565b6110dd5760405162461bcd60e51b81526004016105ac90612932565b600084815260208181526040808320546001600160401b03168352600882528083208784529091529020611112838583612a54565b50837fb7d29e911041e8d9b843369e890bcb72c9388692ba48b65ac54e7214c4c348f78484604051610cb0929190612b84565b8261114f816117b6565b61116b5760405162461bcd60e51b81526004016105ac90612932565b837f65412581168e88a1e60c6459d7f44ae83ad0832e670826c05a4e2476b57af752848460405161119d9291906124d8565b60405180910390a2603c83036111f457837f52d7d861f09ab3d26239d492e8968629f95e9e318cf0b73bfddc441522a15fd26111d884611d31565b6040516001600160a01b03909116815260200160405180910390a25b600084815260208181526040808320546001600160401b0316835260028252808320878452825280832086845290915290206112308382612bbe565b5050505050565b6001600160a01b03821633036112a15760405162461bcd60e51b815260206004820152602960248201527f455243313135353a2073657474696e6720617070726f76616c20737461747573604482015268103337b91039b2b63360b91b60648201526084016105ac565b336000818152600b602090815260408083206001600160a01b03871680855290835292819020805460ff191686151590811790915590519081529192917f17307eab39ab6107e8899845ad3d59bd9653f200f220920489ca2b5937696c31910160405180910390a35050565b6001600160a01b03821633036113655760405162461bcd60e51b815260206004820181905260248201527f53657474696e672064656c65676174652073746174757320666f722073656c6660448201526064016105ac565b336000818152600c6020908152604080832087845282528083206001600160a01b03871680855290835292819020805460ff191686151590811790915590519384529286917ff0ddb3b04746704017f9aa8bd728fcc2c1d11675041205350018915f5e4750a0910160405180910390a4505050565b600083815260208181526040808320546001600160401b03168352600582528083208684528252808320858452825280832061ffff851684529091529020805460609190610e8a906129cc565b6060610e2b60008484611d50565b600081815260208181526040808320546001600160401b03168352600382528083208484529091529020805460609190610f4a906129cc565b82611478816117b6565b6114945760405162461bcd60e51b81526004016105ac90612932565b600084815260208181526040808320546001600160401b031680845260048352818420888552909252822080549192916114cd906129cc565b80601f01602080910402602001604051908101604052809291908181526020018280546114f9906129cc565b80156115465780601f1061151b57610100808354040283529160200191611546565b820191906000526020600020905b81548152906001019060200180831161152957829003601f168201915b505050506001600160401b03841660009081526004602090815260408083208b8452909152902091925061157d9050858783612a54565b50857f8f15ed4b723ef428f250961da8315675b507046737e19319fc1a4d81bfe87f858287876040516115b293929190612c7d565b60405180910390a2505050505050565b816115cc816117b6565b6115e85760405162461bcd60e51b81526004016105ac90612932565b6115f783603c61038c85611f1f565b505050565b6060611609848484611d50565b949350505050565b8261161b816117b6565b6116375760405162461bcd60e51b81526004016105ac90612932565b600084815260208181526040808320546001600160401b031683526007825280832087845282528083206001600160e01b031987168085529083529281902080546001600160a01b0319166001600160a01b038716908117909155905190815286917f7c69f06bea0bdef565b709e93a147836b0063ba2dd89f02d0b7e8d931e6a6daa910160405180910390a350505050565b600082815260208181526040808320546001600160401b03168352600282528083208584528252808320848452909152902080546060919061170b906129cc565b80601f0160208091040260200160405190810160405280929190818152602001828054611737906129cc565b80156117845780601f1061175957610100808354040283529160200191611784565b820191906000526020600020905b81548152906001019060200180831161176757829003601f168201915b5050505050905092915050565b60006001600160e01b03198216631674750f60e21b1480610580575061058082611f4f565b6000336001600160a01b037f00000000000000000000000000000000000000000000000000000000000000001614806118175750336001600160a01b037f000000000000000000000000000000000000000000000000000000000000000016145b1561182457506001919050565b6040516302571be360e01b8152600481018390526000907f00000000000000000000000000000000000000000000000000000000000000006001600160a01b0316906302571be390602401602060405180830381865afa15801561188c573d6000803e3d6000fd5b505050506040513d601f19601f820116820180604052508101906118b09190612cad565b90506001600160a01b0381163314806118ec57506001600160a01b0381166000908152600b6020908152604080832033845290915290205460ff165b80610e2b57506001600160a01b0381166000908152600c60209081526040808320868452825280832033845290915290205460ff16610e2b565b6119746040518060e001604052806060815260200160008152602001600061ffff168152602001600061ffff168152602001600063ffffffff16815260200160008152602001600081525090565b82815260c0810182905261058081611c49565b602081015181516060916105809161199f9082611f74565b84519190611fce565b60a081015160c08201516060916105809161199f9082906129a9565b600081518351148015610e2b5750610e2b8360008460008751612044565b8651602088012060006119f6878787611fce565b90508315611b1d576001600160401b03831660009081526005602090815260408083208d84528252808320858452825280832061ffff8c16845290915290208054611a40906129cc565b159050611a9e576001600160401b03831660009081526006602090815260408083208d845282528083208584529091528120805461ffff1691611a8283612cca565b91906101000a81548161ffff021916908361ffff160217905550505b6001600160401b03831660009081526005602090815260408083208d84528252808320858452825280832061ffff8c1684529091528120611ade916122a7565b897f03528ed0c2a3ebc993b12ce3c16bb382f9c7d88ef7d8a1bf290eaf35955a12078a8a604051611b10929190612ce8565b60405180910390a261079f565b6001600160401b03831660009081526005602090815260408083208d84528252808320858452825280832061ffff8c16845290915290208054611b5f906129cc565b9050600003611bbf576001600160401b03831660009081526006602090815260408083208d845282528083208584529091528120805461ffff1691611ba383612d0e565b91906101000a81548161ffff021916908361ffff160217905550505b6001600160401b03831660009081526005602090815260408083208d84528252808320858452825280832061ffff8c1684529091529020611c008282612bbe565b50897f52a608b3303a48862d07a73d82fa221318c0027fbbcfb1b2329bface3f19ff2b8a8a84604051611c3593929190612d25565b60405180910390a250505050505050505050565b60c08101516020820181905281515111611c605750565b6000611c7482600001518360200151611f74565b8260200151611c839190612d54565b8251909150611c929082612067565b61ffff166040830152611ca6600282612d54565b8251909150611cb59082612067565b61ffff166060830152611cc9600282612d54565b8251909150611cd8908261208f565b63ffffffff166080830152611cee600482612d54565b8251909150600090611d009083612067565b61ffff169050611d11600283612d54565b60a084018190529150611d248183612d54565b60c0909301929092525050565b60008151601414611d4157600080fd5b5060200151600160601b900490565b6060816001600160401b03811115611d6a57611d6a61259b565b604051908082528060200260200182016040528015611d9d57816020015b6060815260200190600190039081611d885790505b50905060005b82811015611f17578415611e5f576000848483818110611dc557611dc5612b6e565b9050602002810190611dd79190612d67565b611de691602491600491612dad565b611def91612dd7565b9050858114611e5d5760405162461bcd60e51b815260206004820152603460248201527f6d756c746963616c6c3a20416c6c207265636f726473206d7573742068617665604482015273040c240dac2e8c6d0d2dcce40dcc2dacad0c2e6d60631b60648201526084016105ac565b505b60008030868685818110611e7557611e75612b6e565b9050602002810190611e879190612d67565b604051611e959291906129bc565b600060405180830381855af49150503d8060008114611ed0576040519150601f19603f3d011682016040523d82523d6000602084013e611ed5565b606091505b509150915081611ee457600080fd5b80848481518110611ef757611ef7612b6e565b602002602001018190525050508080611f0f90612df5565b915050611da3565b509392505050565b604080516014808252818301909252606091602082018180368337505050600160601b9290920260208301525090565b60006001600160e01b0319821663c869023360e01b14806105805750610580826120b9565b6000815b83518110611f8857611f88612e0e565b6000611f9485836120de565b60ff169050611fa4816001612d54565b611fae9083612d54565b915080600003611fbe5750611fc4565b50611f78565b61160983826129a9565b8251606090611fdd8385612d54565b1115611fe857600080fd5b6000826001600160401b038111156120025761200261259b565b6040519080825280601f01601f19166020018201604052801561202c576020820181803683370190505b50905060208082019086860101610ad0828287612102565b6000612051848484612158565b61205c878785612158565b149695505050505050565b8151600090612077836002612d54565b111561208257600080fd5b50016002015161ffff1690565b815160009061209f836004612d54565b11156120aa57600080fd5b50016004015163ffffffff1690565b60006001600160e01b0319821663691f343160e01b148061058057506105808261217c565b60008282815181106120f2576120f2612b6e565b016020015160f81c905092915050565b6020811061213a5781518352612119602084612d54565b9250612126602083612d54565b91506121336020826129a9565b9050612102565b905182516020929092036101000a6000190180199091169116179052565b82516000906121678385612d54565b111561217257600080fd5b5091016020012090565b60006001600160e01b031982166304928c6760e21b148061058057506105808260006001600160e01b0319821663547d2b4160e11b14806121cd57506001600160e01b03198216635c98042b60e01b145b8061058057506105808260006001600160e01b0319821663bc1c58d160e01b148061058057506105808260006001600160e01b03198216631d9dabef60e11b148061222857506001600160e01b031982166378e5bf0360e11b145b8061058057506105808260006001600160e01b03198216631101d5ab60e11b148061058057506105808260006001600160e01b0319821663d700ff3360e01b148061058057506105808260006001600160e01b03198216634fbf043360e01b148061058057506301ffc9a760e01b6001600160e01b0319831614610580565b5080546122b3906129cc565b6000825580601f106122c3575050565b601f0160209004906000526020600020908101906122e191906122e4565b50565b5b808211156122f957600081556001016122e5565b5090565b80356001600160e01b03198116811461231557600080fd5b919050565b60006020828403121561232c57600080fd5b610e2b826122fd565b60008083601f84011261234757600080fd5b5081356001600160401b0381111561235e57600080fd5b602083019150836020828501011115610c0a57600080fd5b60008060006040848603121561238b57600080fd5b8335925060208401356001600160401b038111156123a857600080fd5b6123b486828701612335565b9497909650939450505050565b6000806000806000606086880312156123d957600080fd5b8535945060208601356001600160401b03808211156123f757600080fd5b61240389838a01612335565b9096509450604088013591508082111561241c57600080fd5b5061242988828901612335565b969995985093965092949392505050565b6000806040838503121561244d57600080fd5b8235915061245d602084016122fd565b90509250929050565b6000806040838503121561247957600080fd5b50508035926020909101359150565b60005b838110156124a357818101518382015260200161248b565b50506000910152565b600081518084526124c4816020860160208601612488565b601f01601f19169290920160200192915050565b82815260406020820152600061160960408301846124ac565b60008060006060848603121561250657600080fd5b505081359360208301359350604090920135919050565b60006020828403121561252f57600080fd5b5035919050565b602081526000610e2b60208301846124ac565b6000806000806060858703121561255f57600080fd5b843593506020850135925060408501356001600160401b0381111561258357600080fd5b61258f87828801612335565b95989497509550505050565b634e487b7160e01b600052604160045260246000fd5b6000806000606084860312156125c657600080fd5b833592506020840135915060408401356001600160401b03808211156125eb57600080fd5b818601915086601f8301126125ff57600080fd5b8135818111156126115761261161259b565b604051601f8201601f19908116603f011681019083821181831017156126395761263961259b565b8160405282815289602084870101111561265257600080fd5b8260208601602083013760006020848301015280955050505050509250925092565b6001600160a01b03811681146122e157600080fd5b8035801515811461231557600080fd5b600080604083850312156126ac57600080fd5b82356126b781612674565b915061245d60208401612689565b6000806000606084860312156126da57600080fd5b8335925060208401356126ec81612674565b91506126fa60408501612689565b90509250925092565b60008060006060848603121561271857600080fd5b8335925060208401359150604084013561ffff8116811461273857600080fd5b809150509250925092565b60008060006060848603121561275857600080fd5b833561276381612674565b925060208401359150604084013561273881612674565b60008083601f84011261278c57600080fd5b5081356001600160401b038111156127a357600080fd5b6020830191508360208260051b8501011115610c0a57600080fd5b600080602083850312156127d157600080fd5b82356001600160401b038111156127e757600080fd5b6127f38582860161277a565b90969095509350505050565b6000602080830181845280855180835260408601915060408160051b870101925083870160005b8281101561285457603f198886030184526128428583516124ac565b94509285019290850190600101612826565b5092979650505050505050565b6000806040838503121561287457600080fd5b82359150602083013561288681612674565b809150509250929050565b6000806000604084860312156128a657600080fd5b8335925060208401356001600160401b038111156128c357600080fd5b6123b48682870161277a565b6000806000606084860312156128e457600080fd5b833592506128f4602085016122fd565b9150604084013561273881612674565b6000806040838503121561291757600080fd5b823561292281612674565b9150602083013561288681612674565b60208082526025908201527f4e6f7420617574686f72697a656420746f20616363657373205265736f6c7665604082015264724261736560d81b606082015260800190565b60008251612989818460208701612488565b9190910192915050565b634e487b7160e01b600052601160045260246000fd5b8181038181111561058057610580612993565b8183823760009101908152919050565b600181811c908216806129e057607f821691505b602082108103612a0057634e487b7160e01b600052602260045260246000fd5b50919050565b601f8211156115f757600081815260208120601f850160051c81016020861015612a2d5750805b601f850160051c820191505b81811015612a4c57828155600101612a39565b505050505050565b6001600160401b03831115612a6b57612a6b61259b565b612a7f83612a7983546129cc565b83612a06565b6000601f841160018114612ab35760008515612a9b5750838201355b600019600387901b1c1916600186901b178355611230565b600083815260209020601f19861690835b82811015612ae45786850135825560209485019460019092019101612ac4565b5086821015612b015760001960f88860031b161c19848701351681555b505060018560011b0183555050505050565b81835281816020850137506000828201602090810191909152601f909101601f19169091010190565b604081526000612b50604083018688612b13565b8281036020840152612b63818587612b13565b979650505050505050565b634e487b7160e01b600052603260045260246000fd5b602081526000611609602083018486612b13565b60006001600160401b03808316818103612bb457612bb4612993565b6001019392505050565b81516001600160401b03811115612bd757612bd761259b565b612beb81612be584546129cc565b84612a06565b602080601f831160018114612c205760008415612c085750858301515b600019600386901b1c1916600185901b178555612a4c565b600085815260208120601f198616915b82811015612c4f57888601518255948401946001909101908401612c30565b5085821015612c6d5787850151600019600388901b60f8161c191681555b5050505050600190811b01905550565b604081526000612c9060408301866124ac565b8281036020840152612ca3818587612b13565b9695505050505050565b600060208284031215612cbf57600080fd5b8151610e2b81612674565b600061ffff821680612cde57612cde612993565b6000190192915050565b604081526000612cfb60408301856124ac565b905061ffff831660208301529392505050565b600061ffff808316818103612bb457612bb4612993565b606081526000612d3860608301866124ac565b61ffff851660208401528281036040840152612ca381856124ac565b8082018082111561058057610580612993565b6000808335601e19843603018112612d7e57600080fd5b8301803591506001600160401b03821115612d9857600080fd5b602001915036819003821315610c0a57600080fd5b60008085851115612dbd57600080fd5b83861115612dca57600080fd5b5050820193919092039150565b8035602083101561058057600019602084900360031b1b1692915050565b600060018201612e0757612e07612993565b5060010190565b634e487b7160e01b600052600160045260246000fdfea26469706673582212201ded65e8ebf445ae91d74387c042dac734fff330eb116aa24535cca6abcb496964736f6c63430008140033329539a1d23af1810c48a07fe7fc66a3b34fbc8b37e9b3cdb97bb88ceab7e4bf99399a6fdf00305eb312ceca5cb6971d481638860700d269d8e5056c8ccf8af5",
  "linkReferences": {},
  "deployedLinkReferences": {}
}