{
  "_format": "hh-sol-artifact-1",
  "contractName": "ERC20Recoverable",
  "sourceName": "contracts/utils/ERC20Recoverable.sol",
  "abi": [
    {
      "inputs": [],
      "stateMutability": "nonpayable",
      "type": "constructor"
    },
    {
      "inputs": [
        {
          "internalType": "address",
          "name": "owner",
          "type": "address"
        }
      ],
      "name": "OwnableInvalidOwner",
      "type": "error"
    },
    {
      "inputs": [
        {
          "internalType": "address",
          "name": "account",
          "type": "address"
        }
      ],
      "name": "OwnableUnauthorizedAccount",
      "type": "error"
    },
    {
      "anonymous": false,
      "inputs": [
        {
          "indexed": true,
          "internalType": "address",
          "name": "previousOwner",
          "type": "address"
        },
        {
          "indexed": true,
          "internalType": "address",
          "name": "newOwner",
          "type": "address"
        }
      ],
      "name": "OwnershipTransferred",
      "type": "event"
    },
    {
      "inputs": [],
      "name": "owner",
      "outputs": [
        {
          "internalType": "address",
          "name": "",
          "type": "address"
        }
      ],
      "stateMutability": "view",
      "type": "function"
    },
    {
      "inputs": [
        {
          "internalType": "address",
          "name": "_token",
          "type": "address"
        },
        {
          "internalType": "address",
          "name": "_to",
          "type": "address"
        },
        {
          "internalType": "uint256",
          "name": "_amount",
          "type": "uint256"
        }
      ],
      "name": "recoverFunds",
      "outputs": [],
      "stateMutability": "nonpayable",
      "type": "function"
    },
    {
      "inputs": [],
      "name": "renounceOwnership",
      "outputs": [],
      "stateMutability": "nonpayable",
      "type": "function"
    },
    {
      "inputs": [
        {
          "internalType": "address",
          "name": "newOwner",
          "type": "address"
        }
      ],
      "name": "transferOwnership",
      "outputs": [],
      "stateMutability": "nonpayable",
      "type": "function"
    }
  ],
  "bytecode": "0x608060405234801561001057600080fd5b50338061003757604051631e4fbdf760e01b81526000600482015260240160405180910390fd5b61004081610046565b50610096565b600080546001600160a01b038381166001600160a01b0319831681178455604051919092169283917f8be0079c531659141344cd1fd0a4f28419497f9722a3daafe3b4186f6b6457e09190a35050565b6102c7806100a56000396000f3fe608060405234801561001057600080fd5b506004361061004c5760003560e01c80635d3590d514610051578063715018a6146100665780638da5cb5b1461006e578063f2fde38b1461008d575b600080fd5b61006461005f366004610211565b6100a0565b005b610064610121565b600054604080516001600160a01b039092168252519081900360200190f35b61006461009b36600461024d565b610135565b6100a8610178565b60405163a9059cbb60e01b81526001600160a01b0383811660048301526024820183905284169063a9059cbb906044016020604051808303816000875af11580156100f7573d6000803e3d6000fd5b505050506040513d601f19601f8201168201806040525081019061011b919061026f565b50505050565b610129610178565b61013360006101a5565b565b61013d610178565b6001600160a01b03811661016c57604051631e4fbdf760e01b8152600060048201526024015b60405180910390fd5b610175816101a5565b50565b6000546001600160a01b031633146101335760405163118cdaa760e01b8152336004820152602401610163565b600080546001600160a01b038381166001600160a01b0319831681178455604051919092169283917f8be0079c531659141344cd1fd0a4f28419497f9722a3daafe3b4186f6b6457e09190a35050565b80356001600160a01b038116811461020c57600080fd5b919050565b60008060006060848603121561022657600080fd5b61022f846101f5565b925061023d602085016101f5565b9150604084013590509250925092565b60006020828403121561025f57600080fd5b610268826101f5565b9392505050565b60006020828403121561028157600080fd5b8151801515811461026857600080fdfea26469706673582212202be6257871e40ff35549ad1317cf29c2ea3db5274f9e3f8701da05c1d0c5dad064736f6c63430008140033",
  "linkReferences": {},
  "deployedLinkReferences": {}
}