{
  "_format": "hh-sol-artifact-1",
  "contractName": "ERC20Recoverable",
  "sourceName": "contracts/utils/ERC20Recoverable.sol",
  "abi": [
    {
      "inputs": [],
      "stateMutability": "nonpayable",
      "type": "constructor"
    },
    {
      "inputs": [
        {
          "internalType": "address",
          "name": "owner",
          "type": "address"
        }
      ],
      "name": "OwnableInvalidOwner",
      "type": "error"
    },
    {
      "inputs": [
        {
          "internalType": "address",
          "name": "account",
          "type": "address"
        }
      ],
      "name": "OwnableUnauthorizedAccount",
      "type": "error"
    },
    {
      "anonymous": false,
      "inputs": [
        {
          "indexed": true,
          "internalType": "address",
          "name": "previousOwner",
          "type": "address"
        },
        {
          "indexed": true,
          "internalType": "address",
          "name": "newOwner",
          "type": "address"
        }
      ],
      "name": "OwnershipTransferred",
      "type": "event"
    },
    {
      "inputs": [],
      "name": "owner",
      "outputs": [
        {
          "internalType": "address",
          "name": "",
          "type": "address"
        }
      ],
      "stateMutability": "view",
      "type": "function"
    },
    {
      "inputs": [
        {
          "internalType": "address",
          "name": "_token",
          "type": "address"
        },
        {
          "internalType": "address",
          "name": "_to",
          "type": "address"
        },
        {
          "internalType": "uint256",
          "name": "_amount",
          "type": "uint256"
        }
      ],
      "name": "recoverFunds",
      "outputs": [],
      "stateMutability": "nonpayable",
      "type": "function"
    },
    {
      "inputs": [],
      "name": "renounceOwnership",
      "outputs": [],
      "stateMutability": "nonpayable",
      "type": "function"
    },
    {
      "inputs": [
        {
          "internalType": "address",
          "name": "newOwner",
          "type": "address"
        }
      ],
      "name": "transferOwnership",
      "outputs": [],
      "stateMutability": "nonpayable",
      "type": "function"
    }
  ],
  "bytecode": "0x608060405234801561001057600080fd5b5033600073ffffffffffffffffffffffffffffffffffffffff168173ffffffffffffffffffffffffffffffffffffffff16036100845760006040517f1e4fbdf700000000000000000000000000000000000000000000000000000000815260040161007b919061019e565b60405180910390fd5b6100938161009960201b60201c565b506101b9565b60008060009054906101000a900473ffffffffffffffffffffffffffffffffffffffff169050816000806101000a81548173ffffffffffffffffffffffffffffffffffffffff021916908373ffffffffffffffffffffffffffffffffffffffff1602179055508173ffffffffffffffffffffffffffffffffffffffff168173ffffffffffffffffffffffffffffffffffffffff167f8be0079c531659141344cd1fd0a4f28419497f9722a3daafe3b4186f6b6457e060405160405180910390a35050565b600073ffffffffffffffffffffffffffffffffffffffff82169050919050565b60006101888261015d565b9050919050565b6101988161017d565b82525050565b60006020820190506101b3600083018461018f565b92915050565b610569806101c86000396000f3fe608060405234801561001057600080fd5b506004361061004c5760003560e01c80635d3590d514610051578063715018a61461006d5780638da5cb5b14610077578063f2fde38b14610095575b600080fd5b61006b600480360381019061006691906103ec565b6100b1565b005b61007561013d565b005b61007f610151565b60405161008c919061044e565b60405180910390f35b6100af60048036038101906100aa9190610469565b61017a565b005b6100b9610200565b8273ffffffffffffffffffffffffffffffffffffffff1663a9059cbb83836040518363ffffffff1660e01b81526004016100f49291906104a5565b6020604051808303816000875af1158015610113573d6000803e3d6000fd5b505050506040513d601f19601f820116820180604052508101906101379190610506565b50505050565b610145610200565b61014f6000610287565b565b60008060009054906101000a900473ffffffffffffffffffffffffffffffffffffffff16905090565b610182610200565b600073ffffffffffffffffffffffffffffffffffffffff168173ffffffffffffffffffffffffffffffffffffffff16036101f45760006040517f1e4fbdf70000000000000000000000000000000000000000000000000000000081526004016101eb919061044e565b60405180910390fd5b6101fd81610287565b50565b61020861034b565b73ffffffffffffffffffffffffffffffffffffffff16610226610151565b73ffffffffffffffffffffffffffffffffffffffff16146102855761024961034b565b6040517f118cdaa700000000000000000000000000000000000000000000000000000000815260040161027c919061044e565b60405180910390fd5b565b60008060009054906101000a900473ffffffffffffffffffffffffffffffffffffffff169050816000806101000a81548173ffffffffffffffffffffffffffffffffffffffff021916908373ffffffffffffffffffffffffffffffffffffffff1602179055508173ffffffffffffffffffffffffffffffffffffffff168173ffffffffffffffffffffffffffffffffffffffff167f8be0079c531659141344cd1fd0a4f28419497f9722a3daafe3b4186f6b6457e060405160405180910390a35050565b600033905090565b600080fd5b600073ffffffffffffffffffffffffffffffffffffffff82169050919050565b600061038382610358565b9050919050565b61039381610378565b811461039e57600080fd5b50565b6000813590506103b08161038a565b92915050565b6000819050919050565b6103c9816103b6565b81146103d457600080fd5b50565b6000813590506103e6816103c0565b92915050565b60008060006060848603121561040557610404610353565b5b6000610413868287016103a1565b9350506020610424868287016103a1565b9250506040610435868287016103d7565b9150509250925092565b61044881610378565b82525050565b6000602082019050610463600083018461043f565b92915050565b60006020828403121561047f5761047e610353565b5b600061048d848285016103a1565b91505092915050565b61049f816103b6565b82525050565b60006040820190506104ba600083018561043f565b6104c76020830184610496565b9392505050565b60008115159050919050565b6104e3816104ce565b81146104ee57600080fd5b50565b600081519050610500816104da565b92915050565b60006020828403121561051c5761051b610353565b5b600061052a848285016104f1565b9150509291505056fea264697066735822122018064d6b74d98ae01d077a2aeb5918e4f8485929ee44ffa208baf11bb9d0656b64736f6c63430008140033",
  "linkReferences": {},
  "deployedLinkReferences": {}
}