{
  "_format": "hh-sol-artifact-1",
  "contractName": "ExtendedResolver",
  "sourceName": "contracts/resolvers/profiles/ExtendedResolver.sol",
  "abi": [
    {
      "inputs": [
        {
          "internalType": "bytes",
          "name": "",
          "type": "bytes"
        },
        {
          "internalType": "bytes",
          "name": "data",
          "type": "bytes"
        }
      ],
      "name": "resolve",
      "outputs": [
        {
          "internalType": "bytes",
          "name": "",
          "type": "bytes"
        }
      ],
      "stateMutability": "view",
      "type": "function"
    }
  ],
  "bytecode": "0x608060405234801561001057600080fd5b506103e9806100206000396000f3fe608060405234801561001057600080fd5b506004361061002b5760003560e01c80639061b92314610030575b600080fd5b61004a60048036038101906100459190610247565b610060565b604051610057919061033e565b60405180910390f35b60606000803073ffffffffffffffffffffffffffffffffffffffff168460405161008a919061039c565b600060405180830381855afa9150503d80600081146100c5576040519150601f19603f3d011682016040523d82523d6000602084013e6100ca565b606091505b509150915081156100df5780925050506100e7565b805160208201fd5b92915050565b6000604051905090565b600080fd5b600080fd5b600080fd5b600080fd5b6000601f19601f8301169050919050565b7f4e487b7100000000000000000000000000000000000000000000000000000000600052604160045260246000fd5b6101548261010b565b810181811067ffffffffffffffff821117156101735761017261011c565b5b80604052505050565b60006101866100ed565b9050610192828261014b565b919050565b600067ffffffffffffffff8211156101b2576101b161011c565b5b6101bb8261010b565b9050602081019050919050565b82818337600083830152505050565b60006101ea6101e584610197565b61017c565b90508281526020810184848401111561020657610205610106565b5b6102118482856101c8565b509392505050565b600082601f83011261022e5761022d610101565b5b813561023e8482602086016101d7565b91505092915050565b6000806040838503121561025e5761025d6100f7565b5b600083013567ffffffffffffffff81111561027c5761027b6100fc565b5b61028885828601610219565b925050602083013567ffffffffffffffff8111156102a9576102a86100fc565b5b6102b585828601610219565b9150509250929050565b600081519050919050565b600082825260208201905092915050565b60005b838110156102f95780820151818401526020810190506102de565b60008484015250505050565b6000610310826102bf565b61031a81856102ca565b935061032a8185602086016102db565b6103338161010b565b840191505092915050565b600060208201905081810360008301526103588184610305565b905092915050565b600081905092915050565b6000610376826102bf565b6103808185610360565b93506103908185602086016102db565b80840191505092915050565b60006103a8828461036b565b91508190509291505056fea2646970667358221220e656a535f7fd23bf808daa114789e110ba0b4ea6f97ffe81d1988943cabdc70664736f6c63430008140033",
  "linkReferences": {},
  "deployedLinkReferences": {}
}