{
  "_format": "hh-sol-artifact-1",
  "contractName": "ExtendedDNSResolver",
  "sourceName": "contracts/resolvers/profiles/ExtendedDNSResolver.sol",
  "abi": [
    {
      "inputs": [],
      "name": "InvalidAddressFormat",
      "type": "error"
    },
    {
      "inputs": [],
      "name": "NotImplemented",
      "type": "error"
    },
    {
      "inputs": [
        {
          "internalType": "bytes",
          "name": "",
          "type": "bytes"
        },
        {
          "internalType": "bytes",
          "name": "data",
          "type": "bytes"
        },
        {
          "internalType": "bytes",
          "name": "context",
          "type": "bytes"
        }
      ],
      "name": "resolve",
      "outputs": [
        {
          "internalType": "bytes",
          "name": "",
          "type": "bytes"
        }
      ],
      "stateMutability": "pure",
      "type": "function"
    },
    {
      "inputs": [
        {
          "internalType": "bytes4",
          "name": "interfaceId",
          "type": "bytes4"
        }
      ],
      "name": "supportsInterface",
      "outputs": [
        {
          "internalType": "bool",
          "name": "",
          "type": "bool"
        }
      ],
      "stateMutability": "view",
      "type": "function"
    }
  ],
  "bytecode": "0x608060405234801561001057600080fd5b506105f5806100206000396000f3fe608060405234801561001057600080fd5b50600436106100365760003560e01c806301ffc9a71461003b5780638ef98a7e14610074575b600080fd5b61005f610049366004610398565b6001600160e01b03191663477cc53f60e11b1490565b60405190151581526020015b60405180910390f35b610087610082366004610412565b610094565b60405161006b91906104ac565b606060006100a285876104fa565b90506001600160e01b03198116631d9dabef60e11b14806100d357506001600160e01b031981166378e5bf0360e11b145b156101e75763071a40fd60e11b6001600160e01b031982160161014c5760006100ff866004818a61052a565b81019061010c9190610554565b915050603c811461014a5760405160200161013290602080825260009082015260400190565b60405160208183030381529060405292505050610200565b505b60008061019860028787905088888080601f01602080910402602001604051908101604052809392919081815260200183838082843760009201919091525092949392505061020a9050565b91509150806101ba5760405163c9e47ee560e01b815260040160405180910390fd5b604080516001600160a01b0384166020820152016040516020818303038152906040529350505050610200565b60405163d623472560e01b815260040160405180910390fd5b9695505050505050565b60008060286102198585610576565b101561022a57506000905080610240565b600080610238878787610248565b909450925050505b935093915050565b600080806102568585610576565b90508060401415801561026a575080602814155b8061027f575061027b60028261059d565b6001145b156102c85760405162461bcd60e51b8152602060048201526015602482015274092dcecc2d8d2c840e6e8e4d2dcce40d8cadccee8d605b1b604482015260640160405180910390fd5b6001915085518411156102da57600080fd5b61032b565b6000603a8210602f831116156102f75750602f190190565b6047821060408311161561030d57506036190190565b6067821060608311161561032357506056190190565b5060ff919050565b60208601855b8581101561038d576103488183015160001a6102df565b61035a6001830184015160001a6102df565b60ff811460ff831417156103735760009550505061038d565b60049190911b1760089590951b9490941793600201610331565b505050935093915050565b6000602082840312156103aa57600080fd5b81356001600160e01b0319811681146103c257600080fd5b9392505050565b60008083601f8401126103db57600080fd5b50813567ffffffffffffffff8111156103f357600080fd5b60208301915083602082850101111561040b57600080fd5b9250929050565b6000806000806000806060878903121561042b57600080fd5b863567ffffffffffffffff8082111561044357600080fd5b61044f8a838b016103c9565b9098509650602089013591508082111561046857600080fd5b6104748a838b016103c9565b9096509450604089013591508082111561048d57600080fd5b5061049a89828a016103c9565b979a9699509497509295939492505050565b600060208083528351808285015260005b818110156104d9578581018301518582016040015282016104bd565b506000604082860101526040601f19601f8301168501019250505092915050565b6001600160e01b031981358181169160048510156105225780818660040360031b1b83161692505b505092915050565b6000808585111561053a57600080fd5b8386111561054757600080fd5b5050820193919092039150565b6000806040838503121561056757600080fd5b50508035926020909101359150565b8181038181111561059757634e487b7160e01b600052601160045260246000fd5b92915050565b6000826105ba57634e487b7160e01b600052601260045260246000fd5b50069056fea26469706673582212204194aca3a6ffe289f22c80272d7c3a9b91ed825668d040c38c9c10570d1afeea64736f6c63430008140033",
  "linkReferences": {},
  "deployedLinkReferences": {}
}