{
  "_format": "hh-sol-artifact-1",
  "contractName": "OwnedResolver",
  "sourceName": "contracts/resolvers/OwnedResolver.sol",
  "abi": [
    {
      "inputs": [],
      "stateMutability": "nonpayable",
      "type": "constructor"
    },
    {
      "inputs": [
        {
          "internalType": "address",
          "name": "owner",
          "type": "address"
        }
      ],
      "name": "OwnableInvalidOwner",
      "type": "error"
    },
    {
      "inputs": [
        {
          "internalType": "address",
          "name": "account",
          "type": "address"
        }
      ],
      "name": "OwnableUnauthorizedAccount",
      "type": "error"
    },
    {
      "anonymous": false,
      "inputs": [
        {
          "indexed": true,
          "internalType": "bytes32",
          "name": "node",
          "type": "bytes32"
        },
        {
          "indexed": true,
          "internalType": "uint256",
          "name": "contentType",
          "type": "uint256"
        }
      ],
      "name": "ABIChanged",
      "type": "event"
    },
    {
      "anonymous": false,
      "inputs": [
        {
          "indexed": true,
          "internalType": "bytes32",
          "name": "node",
          "type": "bytes32"
        },
        {
          "indexed": false,
          "internalType": "address",
          "name": "a",
          "type": "address"
        }
      ],
      "name": "AddrChanged",
      "type": "event"
    },
    {
      "anonymous": false,
      "inputs": [
        {
          "indexed": true,
          "internalType": "bytes32",
          "name": "node",
          "type": "bytes32"
        },
        {
          "indexed": false,
          "internalType": "uint256",
          "name": "coinType",
          "type": "uint256"
        },
        {
          "indexed": false,
          "internalType": "bytes",
          "name": "newAddress",
          "type": "bytes"
        }
      ],
      "name": "AddressChanged",
      "type": "event"
    },
    {
      "anonymous": false,
      "inputs": [
        {
          "indexed": true,
          "internalType": "bytes32",
          "name": "node",
          "type": "bytes32"
        },
        {
          "indexed": false,
          "internalType": "bytes",
          "name": "hash",
          "type": "bytes"
        }
      ],
      "name": "ContenthashChanged",
      "type": "event"
    },
    {
      "anonymous": false,
      "inputs": [
        {
          "indexed": true,
          "internalType": "bytes32",
          "name": "node",
          "type": "bytes32"
        },
        {
          "indexed": false,
          "internalType": "bytes",
          "name": "name",
          "type": "bytes"
        },
        {
          "indexed": false,
          "internalType": "uint16",
          "name": "resource",
          "type": "uint16"
        },
        {
          "indexed": false,
          "internalType": "bytes",
          "name": "record",
          "type": "bytes"
        }
      ],
      "name": "DNSRecordChanged",
      "type": "event"
    },
    {
      "anonymous": false,
      "inputs": [
        {
          "indexed": true,
          "internalType": "bytes32",
          "name": "node",
          "type": "bytes32"
        },
        {
          "indexed": false,
          "internalType": "bytes",
          "name": "name",
          "type": "bytes"
        },
        {
          "indexed": false,
          "internalType": "uint16",
          "name": "resource",
          "type": "uint16"
        }
      ],
      "name": "DNSRecordDeleted",
      "type": "event"
    },
    {
      "anonymous": false,
      "inputs": [
        {
          "indexed": true,
          "internalType": "bytes32",
          "name": "node",
          "type": "bytes32"
        },
        {
          "indexed": false,
          "internalType": "bytes",
          "name": "lastzonehash",
          "type": "bytes"
        },
        {
          "indexed": false,
          "internalType": "bytes",
          "name": "zonehash",
          "type": "bytes"
        }
      ],
      "name": "DNSZonehashChanged",
      "type": "event"
    },
    {
      "anonymous": false,
      "inputs": [
        {
          "indexed": true,
          "internalType": "bytes32",
          "name": "node",
          "type": "bytes32"
        },
        {
          "indexed": true,
          "internalType": "bytes4",
          "name": "interfaceID",
          "type": "bytes4"
        },
        {
          "indexed": false,
          "internalType": "address",
          "name": "implementer",
          "type": "address"
        }
      ],
      "name": "InterfaceChanged",
      "type": "event"
    },
    {
      "anonymous": false,
      "inputs": [
        {
          "indexed": true,
          "internalType": "bytes32",
          "name": "node",
          "type": "bytes32"
        },
        {
          "indexed": false,
          "internalType": "string",
          "name": "name",
          "type": "string"
        }
      ],
      "name": "NameChanged",
      "type": "event"
    },
    {
      "anonymous": false,
      "inputs": [
        {
          "indexed": true,
          "internalType": "address",
          "name": "previousOwner",
          "type": "address"
        },
        {
          "indexed": true,
          "internalType": "address",
          "name": "newOwner",
          "type": "address"
        }
      ],
      "name": "OwnershipTransferred",
      "type": "event"
    },
    {
      "anonymous": false,
      "inputs": [
        {
          "indexed": true,
          "internalType": "bytes32",
          "name": "node",
          "type": "bytes32"
        },
        {
          "indexed": false,
          "internalType": "bytes32",
          "name": "x",
          "type": "bytes32"
        },
        {
          "indexed": false,
          "internalType": "bytes32",
          "name": "y",
          "type": "bytes32"
        }
      ],
      "name": "PubkeyChanged",
      "type": "event"
    },
    {
      "anonymous": false,
      "inputs": [
        {
          "indexed": true,
          "internalType": "bytes32",
          "name": "node",
          "type": "bytes32"
        },
        {
          "indexed": true,
          "internalType": "string",
          "name": "indexedKey",
          "type": "string"
        },
        {
          "indexed": false,
          "internalType": "string",
          "name": "key",
          "type": "string"
        },
        {
          "indexed": false,
          "internalType": "string",
          "name": "value",
          "type": "string"
        }
      ],
      "name": "TextChanged",
      "type": "event"
    },
    {
      "anonymous": false,
      "inputs": [
        {
          "indexed": true,
          "internalType": "bytes32",
          "name": "node",
          "type": "bytes32"
        },
        {
          "indexed": false,
          "internalType": "uint64",
          "name": "newVersion",
          "type": "uint64"
        }
      ],
      "name": "VersionChanged",
      "type": "event"
    },
    {
      "inputs": [
        {
          "internalType": "bytes32",
          "name": "node",
          "type": "bytes32"
        },
        {
          "internalType": "uint256",
          "name": "contentTypes",
          "type": "uint256"
        }
      ],
      "name": "ABI",
      "outputs": [
        {
          "internalType": "uint256",
          "name": "",
          "type": "uint256"
        },
        {
          "internalType": "bytes",
          "name": "",
          "type": "bytes"
        }
      ],
      "stateMutability": "view",
      "type": "function"
    },
    {
      "inputs": [
        {
          "internalType": "bytes32",
          "name": "node",
          "type": "bytes32"
        }
      ],
      "name": "addr",
      "outputs": [
        {
          "internalType": "address payable",
          "name": "",
          "type": "address"
        }
      ],
      "stateMutability": "view",
      "type": "function"
    },
    {
      "inputs": [
        {
          "internalType": "bytes32",
          "name": "node",
          "type": "bytes32"
        },
        {
          "internalType": "uint256",
          "name": "coinType",
          "type": "uint256"
        }
      ],
      "name": "addr",
      "outputs": [
        {
          "internalType": "bytes",
          "name": "",
          "type": "bytes"
        }
      ],
      "stateMutability": "view",
      "type": "function"
    },
    {
      "inputs": [
        {
          "internalType": "bytes32",
          "name": "node",
          "type": "bytes32"
        }
      ],
      "name": "clearRecords",
      "outputs": [],
      "stateMutability": "nonpayable",
      "type": "function"
    },
    {
      "inputs": [
        {
          "internalType": "bytes32",
          "name": "node",
          "type": "bytes32"
        }
      ],
      "name": "contenthash",
      "outputs": [
        {
          "internalType": "bytes",
          "name": "",
          "type": "bytes"
        }
      ],
      "stateMutability": "view",
      "type": "function"
    },
    {
      "inputs": [
        {
          "internalType": "bytes32",
          "name": "node",
          "type": "bytes32"
        },
        {
          "internalType": "bytes32",
          "name": "name",
          "type": "bytes32"
        },
        {
          "internalType": "uint16",
          "name": "resource",
          "type": "uint16"
        }
      ],
      "name": "dnsRecord",
      "outputs": [
        {
          "internalType": "bytes",
          "name": "",
          "type": "bytes"
        }
      ],
      "stateMutability": "view",
      "type": "function"
    },
    {
      "inputs": [
        {
          "internalType": "bytes32",
          "name": "node",
          "type": "bytes32"
        },
        {
          "internalType": "bytes32",
          "name": "name",
          "type": "bytes32"
        }
      ],
      "name": "hasDNSRecords",
      "outputs": [
        {
          "internalType": "bool",
          "name": "",
          "type": "bool"
        }
      ],
      "stateMutability": "view",
      "type": "function"
    },
    {
      "inputs": [
        {
          "internalType": "bytes32",
          "name": "node",
          "type": "bytes32"
        },
        {
          "internalType": "bytes4",
          "name": "interfaceID",
          "type": "bytes4"
        }
      ],
      "name": "interfaceImplementer",
      "outputs": [
        {
          "internalType": "address",
          "name": "",
          "type": "address"
        }
      ],
      "stateMutability": "view",
      "type": "function"
    },
    {
      "inputs": [
        {
          "internalType": "bytes32",
          "name": "node",
          "type": "bytes32"
        }
      ],
      "name": "name",
      "outputs": [
        {
          "internalType": "string",
          "name": "",
          "type": "string"
        }
      ],
      "stateMutability": "view",
      "type": "function"
    },
    {
      "inputs": [],
      "name": "owner",
      "outputs": [
        {
          "internalType": "address",
          "name": "",
          "type": "address"
        }
      ],
      "stateMutability": "view",
      "type": "function"
    },
    {
      "inputs": [
        {
          "internalType": "bytes32",
          "name": "node",
          "type": "bytes32"
        }
      ],
      "name": "pubkey",
      "outputs": [
        {
          "internalType": "bytes32",
          "name": "x",
          "type": "bytes32"
        },
        {
          "internalType": "bytes32",
          "name": "y",
          "type": "bytes32"
        }
      ],
      "stateMutability": "view",
      "type": "function"
    },
    {
      "inputs": [
        {
          "internalType": "bytes32",
          "name": "",
          "type": "bytes32"
        }
      ],
      "name": "recordVersions",
      "outputs": [
        {
          "internalType": "uint64",
          "name": "",
          "type": "uint64"
        }
      ],
      "stateMutability": "view",
      "type": "function"
    },
    {
      "inputs": [],
      "name": "renounceOwnership",
      "outputs": [],
      "stateMutability": "nonpayable",
      "type": "function"
    },
    {
      "inputs": [
        {
          "internalType": "bytes",
          "name": "",
          "type": "bytes"
        },
        {
          "internalType": "bytes",
          "name": "data",
          "type": "bytes"
        }
      ],
      "name": "resolve",
      "outputs": [
        {
          "internalType": "bytes",
          "name": "",
          "type": "bytes"
        }
      ],
      "stateMutability": "view",
      "type": "function"
    },
    {
      "inputs": [
        {
          "internalType": "bytes32",
          "name": "node",
          "type": "bytes32"
        },
        {
          "internalType": "uint256",
          "name": "contentType",
          "type": "uint256"
        },
        {
          "internalType": "bytes",
          "name": "data",
          "type": "bytes"
        }
      ],
      "name": "setABI",
      "outputs": [],
      "stateMutability": "nonpayable",
      "type": "function"
    },
    {
      "inputs": [
        {
          "internalType": "bytes32",
          "name": "node",
          "type": "bytes32"
        },
        {
          "internalType": "uint256",
          "name": "coinType",
          "type": "uint256"
        },
        {
          "internalType": "bytes",
          "name": "a",
          "type": "bytes"
        }
      ],
      "name": "setAddr",
      "outputs": [],
      "stateMutability": "nonpayable",
      "type": "function"
    },
    {
      "inputs": [
        {
          "internalType": "bytes32",
          "name": "node",
          "type": "bytes32"
        },
        {
          "internalType": "address",
          "name": "a",
          "type": "address"
        }
      ],
      "name": "setAddr",
      "outputs": [],
      "stateMutability": "nonpayable",
      "type": "function"
    },
    {
      "inputs": [
        {
          "internalType": "bytes32",
          "name": "node",
          "type": "bytes32"
        },
        {
          "internalType": "bytes",
          "name": "hash",
          "type": "bytes"
        }
      ],
      "name": "setContenthash",
      "outputs": [],
      "stateMutability": "nonpayable",
      "type": "function"
    },
    {
      "inputs": [
        {
          "internalType": "bytes32",
          "name": "node",
          "type": "bytes32"
        },
        {
          "internalType": "bytes",
          "name": "data",
          "type": "bytes"
        }
      ],
      "name": "setDNSRecords",
      "outputs": [],
      "stateMutability": "nonpayable",
      "type": "function"
    },
    {
      "inputs": [
        {
          "internalType": "bytes32",
          "name": "node",
          "type": "bytes32"
        },
        {
          "internalType": "bytes4",
          "name": "interfaceID",
          "type": "bytes4"
        },
        {
          "internalType": "address",
          "name": "implementer",
          "type": "address"
        }
      ],
      "name": "setInterface",
      "outputs": [],
      "stateMutability": "nonpayable",
      "type": "function"
    },
    {
      "inputs": [
        {
          "internalType": "bytes32",
          "name": "node",
          "type": "bytes32"
        },
        {
          "internalType": "string",
          "name": "newName",
          "type": "string"
        }
      ],
      "name": "setName",
      "outputs": [],
      "stateMutability": "nonpayable",
      "type": "function"
    },
    {
      "inputs": [
        {
          "internalType": "bytes32",
          "name": "node",
          "type": "bytes32"
        },
        {
          "internalType": "bytes32",
          "name": "x",
          "type": "bytes32"
        },
        {
          "internalType": "bytes32",
          "name": "y",
          "type": "bytes32"
        }
      ],
      "name": "setPubkey",
      "outputs": [],
      "stateMutability": "nonpayable",
      "type": "function"
    },
    {
      "inputs": [
        {
          "internalType": "bytes32",
          "name": "node",
          "type": "bytes32"
        },
        {
          "internalType": "string",
          "name": "key",
          "type": "string"
        },
        {
          "internalType": "string",
          "name": "value",
          "type": "string"
        }
      ],
      "name": "setText",
      "outputs": [],
      "stateMutability": "nonpayable",
      "type": "function"
    },
    {
      "inputs": [
        {
          "internalType": "bytes32",
          "name": "node",
          "type": "bytes32"
        },
        {
          "internalType": "bytes",
          "name": "hash",
          "type": "bytes"
        }
      ],
      "name": "setZonehash",
      "outputs": [],
      "stateMutability": "nonpayable",
      "type": "function"
    },
    {
      "inputs": [
        {
          "internalType": "bytes4",
          "name": "interfaceID",
          "type": "bytes4"
        }
      ],
      "name": "supportsInterface",
      "outputs": [
        {
          "internalType": "bool",
          "name": "",
          "type": "bool"
        }
      ],
      "stateMutability": "view",
      "type": "function"
    },
    {
      "inputs": [
        {
          "internalType": "bytes32",
          "name": "node",
          "type": "bytes32"
        },
        {
          "internalType": "string",
          "name": "key",
          "type": "string"
        }
      ],
      "name": "text",
      "outputs": [
        {
          "internalType": "string",
          "name": "",
          "type": "string"
        }
      ],
      "stateMutability": "view",
      "type": "function"
    },
    {
      "inputs": [
        {
          "internalType": "address",
          "name": "newOwner",
          "type": "address"
        }
      ],
      "name": "transferOwnership",
      "outputs": [],
      "stateMutability": "nonpayable",
      "type": "function"
    },
    {
      "inputs": [
        {
          "internalType": "bytes32",
          "name": "node",
          "type": "bytes32"
        }
      ],
      "name": "zonehash",
      "outputs": [
        {
          "internalType": "bytes",
          "name": "",
          "type": "bytes"
        }
      ],
      "stateMutability": "view",
      "type": "function"
    }
  ],
  "bytecode": "0x60806040523480156200001157600080fd5b5033600073ffffffffffffffffffffffffffffffffffffffff168173ffffffffffffffffffffffffffffffffffffffff1603620000885760006040517f1e4fbdf70000000000000000000000000000000000000000000000000000000081526004016200007f9190620001a9565b60405180910390fd5b6200009981620000a060201b60201c565b50620001c6565b60008060009054906101000a900473ffffffffffffffffffffffffffffffffffffffff169050816000806101000a81548173ffffffffffffffffffffffffffffffffffffffff021916908373ffffffffffffffffffffffffffffffffffffffff1602179055508173ffffffffffffffffffffffffffffffffffffffff168173ffffffffffffffffffffffffffffffffffffffff167f8be0079c531659141344cd1fd0a4f28419497f9722a3daafe3b4186f6b6457e060405160405180910390a35050565b600073ffffffffffffffffffffffffffffffffffffffff82169050919050565b6000620001918262000164565b9050919050565b620001a38162000184565b82525050565b6000602082019050620001c0600083018462000198565b92915050565b6147f980620001d66000396000f3fe608060405234801561001057600080fd5b50600436106101c45760003560e01c8063715018a6116100f9578063c869023311610097578063d700ff3311610071578063d700ff331461054b578063e59d895d1461057b578063f1cb7e0614610597578063f2fde38b146105c7576101c4565b8063c8690233146104e2578063ce3decdc14610513578063d5fa2b001461052f576101c4565b80638da5cb5b116100d35780638da5cb5b146104345780639061b92314610452578063a8fa568214610482578063bc1c58d1146104b2576101c4565b8063715018a6146103f257806377372213146103fc5780638b95dd7114610418576101c4565b80633603d7581161016657806359d1d43c1161014057806359d1d43c146103465780635c98042b14610376578063623195b0146103a6578063691f3431146103c2576101c4565b80633603d758146102ca5780633b3b57de146102e65780634cbf6ba414610316576101c4565b8063124a319c116101a2578063124a319c146102315780632203ab561461026157806329cd62ea14610292578063304e6ade146102ae576101c4565b806301ffc9a7146101c95780630af179d7146101f957806310f13a8c14610215575b600080fd5b6101e360048036038101906101de9190613361565b6105e3565b6040516101f091906133a9565b60405180910390f35b610213600480360381019061020e919061345f565b6105f5565b005b61022f600480360381019061022a9190613515565b61088b565b005b61024b600480360381019061024691906135aa565b6109bf565b604051610258919061362b565b60405180910390f35b61027b6004803603810190610276919061367c565b610e1b565b60405161028992919061375b565b60405180910390f35b6102ac60048036038101906102a7919061378b565b610f9c565b005b6102c860048036038101906102c3919061345f565b6110b0565b005b6102e460048036038101906102df91906137de565b6111a8565b005b61030060048036038101906102fb91906137de565b6112b2565b60405161030d919061382c565b60405180910390f35b610330600480360381019061032b9190613847565b6112e7565b60405161033d91906133a9565b60405180910390f35b610360600480360381019061035b9190613887565b611377565b60405161036d919061393c565b60405180910390f35b610390600480360381019061038b91906137de565b611488565b60405161039d919061395e565b60405180910390f35b6103c060048036038101906103bb9190613980565b611579565b005b6103dc60048036038101906103d791906137de565b611692565b6040516103e9919061393c565b60405180910390f35b6103fa611783565b005b61041660048036038101906104119190613887565b611797565b005b610432600480360381019061042d9190613b24565b61188f565b005b61043c6119df565b604051610449919061362b565b60405180910390f35b61046c60048036038101906104679190613b93565b611a08565b604051610479919061395e565b60405180910390f35b61049c60048036038101906104979190613c45565b611a95565b6040516104a9919061395e565b60405180910390f35b6104cc60048036038101906104c791906137de565b611bb2565b6040516104d9919061395e565b60405180910390f35b6104fc60048036038101906104f791906137de565b611ca3565b60405161050a929190613ca7565b60405180910390f35b61052d6004803603810190610528919061345f565b611d54565b005b61054960048036038101906105449190613cfc565b611f1a565b005b610565600480360381019061056091906137de565b611f7c565b6040516105729190613d5f565b60405180910390f35b61059560048036038101906105909190613d7a565b611fa3565b005b6105b160048036038101906105ac919061367c565b612137565b6040516105be919061395e565b60405180910390f35b6105e160048036038101906105dc9190613dcd565b61223a565b005b60006105ee826122c0565b9050919050565b826105ff8161233a565b61063e576040517f08c379a000000000000000000000000000000000000000000000000000000000815260040161063590613e6c565b60405180910390fd5b600080606080600080600160008b815260200190815260200160002060009054906101000a900467ffffffffffffffff16905060006106cb60008b8b8080601f016020809104026020016040519081016040528093929190818152602001838380828437600081840152601f19601f8201169050808301925050505050505061237990919063ffffffff16565b90505b6106d7816123a3565b61080d5760008761ffff160361073257806040015196506106f7816123b9565b94508460405160200161070a9190613ec8565b60405160208183030381529060405280519060200120925061072b816123f0565b93506107ff565b600061073d826123b9565b9050816040015161ffff168861ffff1614158061076a5750610768818761242990919063ffffffff16565b155b156107fd576107d68c878a8e8e8080601f016020809104026020016040519081016040528093929190818152602001838380828437600081840152601f19601f820116905080830192505050505050508b8c88602001516107cb9190613f0e565b60008c51148a612450565b8160400151975081602001519650809550858051906020012093506107fa826123f0565b94505b505b610808816127d3565b6106ce565b5060008451111561087f5761087e8a85888c8c8080601f016020809104026020016040519081016040528093929190818152602001838380828437600081840152601f19601f82011690508083019250505050505050898a8f8f90506108739190613f0e565b60008a511488612450565b5b50505050505050505050565b846108958161233a565b6108d4576040517f08c379a00000000000000000000000000000000000000000000000000000000081526004016108cb90613e6c565b60405180910390fd5b8282600b6000600160008b815260200190815260200160002060009054906101000a900467ffffffffffffffff1667ffffffffffffffff1667ffffffffffffffff16815260200190815260200160002060008981526020019081526020016000208787604051610945929190613f72565b908152602001604051809103902091826109609291906141a2565b508484604051610971929190613f72565b6040518091039020867f448bc014f1536726cf8d54ff3d6481ed3cbc683c2591ca204274009afa09b1a1878787876040516109af949392919061429f565b60405180910390a3505050505050565b600080600860006001600087815260200190815260200160002060009054906101000a900467ffffffffffffffff1667ffffffffffffffff1667ffffffffffffffff16815260200190815260200160002060008581526020019081526020016000206000847bffffffffffffffffffffffffffffffffffffffffffffffffffffffff19167bffffffffffffffffffffffffffffffffffffffffffffffffffffffff1916815260200190815260200160002060009054906101000a900473ffffffffffffffffffffffffffffffffffffffff169050600073ffffffffffffffffffffffffffffffffffffffff168173ffffffffffffffffffffffffffffffffffffffff1614610ad05780915050610e15565b6000610adb856112b2565b9050600073ffffffffffffffffffffffffffffffffffffffff168173ffffffffffffffffffffffffffffffffffffffff1603610b1c57600092505050610e15565b6000808273ffffffffffffffffffffffffffffffffffffffff167f01ffc9a700000000000000000000000000000000000000000000000000000000604051602401610b6791906142e9565b6040516020818303038152906040527f01ffc9a7000000000000000000000000000000000000000000000000000000007bffffffffffffffffffffffffffffffffffffffffffffffffffffffff19166020820180517bffffffffffffffffffffffffffffffffffffffffffffffffffffffff8381831617835250505050604051610bf19190613ec8565b600060405180830381855afa9150503d8060008114610c2c576040519150601f19603f3d011682016040523d82523d6000602084013e610c31565b606091505b5091509150811580610c44575060208151105b80610c925750600060f81b81601f81518110610c6357610c62614304565b5b602001015160f81c60f81b7effffffffffffffffffffffffffffffffffffffffffffffffffffffffffffff1916145b15610ca4576000945050505050610e15565b8273ffffffffffffffffffffffffffffffffffffffff1686604051602401610ccc91906142e9565b6040516020818303038152906040527f01ffc9a7000000000000000000000000000000000000000000000000000000007bffffffffffffffffffffffffffffffffffffffffffffffffffffffff19166020820180517bffffffffffffffffffffffffffffffffffffffffffffffffffffffff8381831617835250505050604051610d569190613ec8565b600060405180830381855afa9150503d8060008114610d91576040519150601f19603f3d011682016040523d82523d6000602084013e610d96565b606091505b508092508193505050811580610dad575060208151105b80610dfb5750600060f81b81601f81518110610dcc57610dcb614304565b5b602001015160f81c60f81b7effffffffffffffffffffffffffffffffffffffffffffffffffffffffffffff1916145b15610e0d576000945050505050610e15565b829450505050505b92915050565b600060606000600260006001600088815260200190815260200160002060009054906101000a900467ffffffffffffffff1667ffffffffffffffff1667ffffffffffffffff168152602001908152602001600020600086815260200190815260200160002090506000600190505b848111610f7c57600085821614158015610ec1575060008260008381526020019081526020016000208054610ebd90613fc5565b9050115b15610f705780826000838152602001908152602001600020808054610ee590613fc5565b80601f0160208091040260200160405190810160405280929190818152602001828054610f1190613fc5565b8015610f5e5780601f10610f3357610100808354040283529160200191610f5e565b820191906000526020600020905b815481529060010190602001808311610f4157829003601f168201915b50505050509050935093505050610f95565b600181901b9050610e89565b5060006040518060200160405280600081525092509250505b9250929050565b82610fa68161233a565b610fe5576040517f08c379a0000000000000000000000000000000000000000000000000000000008152600401610fdc90613e6c565b60405180910390fd5b604051806040016040528084815260200183815250600a60006001600088815260200190815260200160002060009054906101000a900467ffffffffffffffff1667ffffffffffffffff1667ffffffffffffffff16815260200190815260200160002060008681526020019081526020016000206000820151816000015560208201518160010155905050837f1d6f5e03d3f63eb58751986629a5439baee5079ff04f345becb66e23eb154e4684846040516110a2929190613ca7565b60405180910390a250505050565b826110ba8161233a565b6110f9576040517f08c379a00000000000000000000000000000000000000000000000000000000081526004016110f090613e6c565b60405180910390fd5b8282600460006001600089815260200190815260200160002060009054906101000a900467ffffffffffffffff1667ffffffffffffffff1667ffffffffffffffff16815260200190815260200160002060008781526020019081526020016000209182611167929190614399565b50837fe379c1624ed7e714cc0937528a32359d69d5281337765313dba4e081b72d7578848460405161119a929190614496565b60405180910390a250505050565b806111b28161233a565b6111f1576040517f08c379a00000000000000000000000000000000000000000000000000000000081526004016111e890613e6c565b60405180910390fd5b60016000838152602001908152602001600020600081819054906101000a900467ffffffffffffffff1680929190611228906144ba565b91906101000a81548167ffffffffffffffff021916908367ffffffffffffffff16021790555050817fc6621ccb8f3f5a04bb6502154b2caf6adf5983fe76dfef1cfc9c42e3579db4446001600085815260200190815260200160002060009054906101000a900467ffffffffffffffff166040516112a69190613d5f565b60405180910390a25050565b6000806112c083603c612137565b905060008151036112d55760009150506112e2565b6112de81612919565b9150505b919050565b600080600760006001600087815260200190815260200160002060009054906101000a900467ffffffffffffffff1667ffffffffffffffff1667ffffffffffffffff1681526020019081526020016000206000858152602001908152602001600020600084815260200190815260200160002060009054906101000a900461ffff1661ffff161415905092915050565b6060600b60006001600087815260200190815260200160002060009054906101000a900467ffffffffffffffff1667ffffffffffffffff1667ffffffffffffffff168152602001908152602001600020600085815260200190815260200160002083836040516113e8929190613f72565b9081526020016040518091039020805461140190613fc5565b80601f016020809104026020016040519081016040528092919081815260200182805461142d90613fc5565b801561147a5780601f1061144f5761010080835404028352916020019161147a565b820191906000526020600020905b81548152906001019060200180831161145d57829003601f168201915b505050505090509392505050565b6060600560006001600085815260200190815260200160002060009054906101000a900467ffffffffffffffff1667ffffffffffffffff1667ffffffffffffffff168152602001908152602001600020600083815260200190815260200160002080546114f490613fc5565b80601f016020809104026020016040519081016040528092919081815260200182805461152090613fc5565b801561156d5780601f106115425761010080835404028352916020019161156d565b820191906000526020600020905b81548152906001019060200180831161155057829003601f168201915b50505050509050919050565b836115838161233a565b6115c2576040517f08c379a00000000000000000000000000000000000000000000000000000000081526004016115b990613e6c565b60405180910390fd5b6000846001866115d29190613f0e565b16146115dd57600080fd5b828260026000600160008a815260200190815260200160002060009054906101000a900467ffffffffffffffff1667ffffffffffffffff1667ffffffffffffffff16815260200190815260200160002060008881526020019081526020016000206000878152602001908152602001600020918261165c929190614399565b5083857faa121bbeef5f32f5961a2a28966e769023910fc9479059ee3495d4c1a696efe360405160405180910390a35050505050565b6060600960006001600085815260200190815260200160002060009054906101000a900467ffffffffffffffff1667ffffffffffffffff1667ffffffffffffffff168152602001908152602001600020600083815260200190815260200160002080546116fe90613fc5565b80601f016020809104026020016040519081016040528092919081815260200182805461172a90613fc5565b80156117775780601f1061174c57610100808354040283529160200191611777565b820191906000526020600020905b81548152906001019060200180831161175a57829003601f168201915b50505050509050919050565b61178b61293c565b61179560006129c3565b565b826117a18161233a565b6117e0576040517f08c379a00000000000000000000000000000000000000000000000000000000081526004016117d790613e6c565b60405180910390fd5b8282600960006001600089815260200190815260200160002060009054906101000a900467ffffffffffffffff1667ffffffffffffffff1667ffffffffffffffff1681526020019081526020016000206000878152602001908152602001600020918261184e9291906141a2565b50837fb7d29e911041e8d9b843369e890bcb72c9388692ba48b65ac54e7214c4c348f784846040516118819291906144ea565b60405180910390a250505050565b826118998161233a565b6118d8576040517f08c379a00000000000000000000000000000000000000000000000000000000081526004016118cf90613e6c565b60405180910390fd5b837f65412581168e88a1e60c6459d7f44ae83ad0832e670826c05a4e2476b57af752848460405161190a92919061375b565b60405180910390a2603c830361195b57837f52d7d861f09ab3d26239d492e8968629f95e9e318cf0b73bfddc441522a15fd261194584612919565b6040516119529190614563565b60405180910390a25b81600360006001600088815260200190815260200160002060009054906101000a900467ffffffffffffffff1667ffffffffffffffff1667ffffffffffffffff1681526020019081526020016000206000868152602001908152602001600020600085815260200190815260200160002090816119d8919061457e565b5050505050565b60008060009054906101000a900473ffffffffffffffffffffffffffffffffffffffff16905090565b60606000803073ffffffffffffffffffffffffffffffffffffffff1684604051611a329190613ec8565b600060405180830381855afa9150503d8060008114611a6d576040519150601f19603f3d011682016040523d82523d6000602084013e611a72565b606091505b50915091508115611a87578092505050611a8f565b805160208201fd5b92915050565b6060600660006001600087815260200190815260200160002060009054906101000a900467ffffffffffffffff1667ffffffffffffffff1667ffffffffffffffff1681526020019081526020016000206000858152602001908152602001600020600084815260200190815260200160002060008361ffff1661ffff1681526020019081526020016000208054611b2b90613fc5565b80601f0160208091040260200160405190810160405280929190818152602001828054611b5790613fc5565b8015611ba45780601f10611b7957610100808354040283529160200191611ba4565b820191906000526020600020905b815481529060010190602001808311611b8757829003601f168201915b505050505090509392505050565b6060600460006001600085815260200190815260200160002060009054906101000a900467ffffffffffffffff1667ffffffffffffffff1667ffffffffffffffff16815260200190815260200160002060008381526020019081526020016000208054611c1e90613fc5565b80601f0160208091040260200160405190810160405280929190818152602001828054611c4a90613fc5565b8015611c975780601f10611c6c57610100808354040283529160200191611c97565b820191906000526020600020905b815481529060010190602001808311611c7a57829003601f168201915b50505050509050919050565b60008060006001600085815260200190815260200160002060009054906101000a900467ffffffffffffffff169050600a60008267ffffffffffffffff1667ffffffffffffffff168152602001908152602001600020600085815260200190815260200160002060000154600a60008367ffffffffffffffff1667ffffffffffffffff1681526020019081526020016000206000868152602001908152602001600020600101549250925050915091565b82611d5e8161233a565b611d9d576040517f08c379a0000000000000000000000000000000000000000000000000000000008152600401611d9490613e6c565b60405180910390fd5b60006001600086815260200190815260200160002060009054906101000a900467ffffffffffffffff1690506000600560008367ffffffffffffffff1667ffffffffffffffff16815260200190815260200160002060008781526020019081526020016000208054611e0e90613fc5565b80601f0160208091040260200160405190810160405280929190818152602001828054611e3a90613fc5565b8015611e875780601f10611e5c57610100808354040283529160200191611e87565b820191906000526020600020905b815481529060010190602001808311611e6a57829003601f168201915b505050505090508484600560008567ffffffffffffffff1667ffffffffffffffff16815260200190815260200160002060008981526020019081526020016000209182611ed5929190614399565b50857f8f15ed4b723ef428f250961da8315675b507046737e19319fc1a4d81bfe87f85828787604051611f0a93929190614650565b60405180910390a2505050505050565b81611f248161233a565b611f63576040517f08c379a0000000000000000000000000000000000000000000000000000000008152600401611f5a90613e6c565b60405180910390fd5b611f7783603c611f7285612a87565b61188f565b505050565b60016020528060005260406000206000915054906101000a900467ffffffffffffffff1681565b82611fad8161233a565b611fec576040517f08c379a0000000000000000000000000000000000000000000000000000000008152600401611fe390613e6c565b60405180910390fd5b81600860006001600088815260200190815260200160002060009054906101000a900467ffffffffffffffff1667ffffffffffffffff1667ffffffffffffffff16815260200190815260200160002060008681526020019081526020016000206000857bffffffffffffffffffffffffffffffffffffffffffffffffffffffff19167bffffffffffffffffffffffffffffffffffffffffffffffffffffffff1916815260200190815260200160002060006101000a81548173ffffffffffffffffffffffffffffffffffffffff021916908373ffffffffffffffffffffffffffffffffffffffff160217905550827bffffffffffffffffffffffffffffffffffffffffffffffffffffffff1916847f7c69f06bea0bdef565b709e93a147836b0063ba2dd89f02d0b7e8d931e6a6daa84604051612129919061362b565b60405180910390a350505050565b6060600360006001600086815260200190815260200160002060009054906101000a900467ffffffffffffffff1667ffffffffffffffff1667ffffffffffffffff1681526020019081526020016000206000848152602001908152602001600020600083815260200190815260200160002080546121b490613fc5565b80601f01602080910402602001604051908101604052809291908181526020018280546121e090613fc5565b801561222d5780601f106122025761010080835404028352916020019161222d565b820191906000526020600020905b81548152906001019060200180831161221057829003601f168201915b5050505050905092915050565b61224261293c565b600073ffffffffffffffffffffffffffffffffffffffff168173ffffffffffffffffffffffffffffffffffffffff16036122b45760006040517f1e4fbdf70000000000000000000000000000000000000000000000000000000081526004016122ab919061362b565b60405180910390fd5b6122bd816129c3565b50565b60007f59d1d43c000000000000000000000000000000000000000000000000000000007bffffffffffffffffffffffffffffffffffffffffffffffffffffffff1916827bffffffffffffffffffffffffffffffffffffffffffffffffffffffff19161480612333575061233282612aeb565b5b9050919050565b60006123446119df565b73ffffffffffffffffffffffffffffffffffffffff163373ffffffffffffffffffffffffffffffffffffffff16149050919050565b61238161324d565b828160000181905250818160c001818152505061239d816127d3565b92915050565b6000816000015151826020015110159050919050565b60606123e982602001516123d584600001518560200151612b65565b8460000151612be19092919063ffffffff16565b9050919050565b60606124228260a001518360a001518460c0015161240e9190613f0e565b8460000151612be19092919063ffffffff16565b9050919050565b60008151835114801561244857506124478360008460008751612c76565b5b905092915050565b6000878051906020012090506000612473868689612be19092919063ffffffff16565b90508315612621576000600660008567ffffffffffffffff1667ffffffffffffffff16815260200190815260200160002060008c8152602001908152602001600020600084815260200190815260200160002060008a61ffff1661ffff16815260200190815260200160002080546124ea90613fc5565b90501461257457600760008467ffffffffffffffff1667ffffffffffffffff16815260200190815260200160002060008b81526020019081526020016000206000838152602001908152602001600020600081819054906101000a900461ffff168092919061255890614689565b91906101000a81548161ffff021916908361ffff160217905550505b600660008467ffffffffffffffff1667ffffffffffffffff16815260200190815260200160002060008b8152602001908152602001600020600083815260200190815260200160002060008961ffff1661ffff16815260200190815260200160002060006125e29190613298565b897f03528ed0c2a3ebc993b12ce3c16bb382f9c7d88ef7d8a1bf290eaf35955a12078a8a6040516126149291906146c1565b60405180910390a26127c7565b6000600660008567ffffffffffffffff1667ffffffffffffffff16815260200190815260200160002060008c8152602001908152602001600020600084815260200190815260200160002060008a61ffff1661ffff168152602001908152602001600020805461269090613fc5565b90500361271a57600760008467ffffffffffffffff1667ffffffffffffffff16815260200190815260200160002060008b81526020019081526020016000206000838152602001908152602001600020600081819054906101000a900461ffff16809291906126fe906146f1565b91906101000a81548161ffff021916908361ffff160217905550505b80600660008567ffffffffffffffff1667ffffffffffffffff16815260200190815260200160002060008c8152602001908152602001600020600084815260200190815260200160002060008a61ffff1661ffff1681526020019081526020016000209081612789919061457e565b50897f52a608b3303a48862d07a73d82fa221318c0027fbbcfb1b2329bface3f19ff2b8a8a846040516127be9392919061471b565b60405180910390a25b50505050505050505050565b8060c001518160200181815250508060000151518160200151101561291657600061280682600001518360200151612b65565b82602001516128159190614760565b905061282e818360000151612c9a90919063ffffffff16565b826040019061ffff16908161ffff168152505060028161284e9190614760565b9050612867818360000151612c9a90919063ffffffff16565b826060019061ffff16908161ffff16815250506002816128879190614760565b90506128a0818360000151612cc990919063ffffffff16565b826080019063ffffffff16908163ffffffff16815250506004816128c49190614760565b905060006128df828460000151612c9a90919063ffffffff16565b61ffff1690506002826128f29190614760565b9150818360a0018181525050808261290a9190614760565b8360c001818152505050505b50565b6000601482511461292957600080fd5b600c6101000a6020830151049050919050565b612944612cfa565b73ffffffffffffffffffffffffffffffffffffffff166129626119df565b73ffffffffffffffffffffffffffffffffffffffff16146129c157612985612cfa565b6040517f118cdaa70000000000000000000000000000000000000000000000000000000081526004016129b8919061362b565b60405180910390fd5b565b60008060009054906101000a900473ffffffffffffffffffffffffffffffffffffffff169050816000806101000a81548173ffffffffffffffffffffffffffffffffffffffff021916908373ffffffffffffffffffffffffffffffffffffffff1602179055508173ffffffffffffffffffffffffffffffffffffffff168173ffffffffffffffffffffffffffffffffffffffff167f8be0079c531659141344cd1fd0a4f28419497f9722a3daafe3b4186f6b6457e060405160405180910390a35050565b6060601467ffffffffffffffff811115612aa457612aa36139f9565b5b6040519080825280601f01601f191660200182016040528015612ad65781602001600182028036833780820191505090505b509050600c6101000a82026020820152919050565b60007fc8690233000000000000000000000000000000000000000000000000000000007bffffffffffffffffffffffffffffffffffffffffffffffffffffffff1916827bffffffffffffffffffffffffffffffffffffffffffffffffffffffff19161480612b5e5750612b5d82612d02565b5b9050919050565b6000808290505b600115612bcc5783518110612b8457612b83614794565b5b6000612b998286612d7c90919063ffffffff16565b60ff169050600181612bab9190614760565b82612bb69190614760565b915060008103612bc65750612bcc565b50612b6c565b8281612bd89190613f0e565b91505092915050565b606083518284612bf19190614760565b1115612bfc57600080fd5b60008267ffffffffffffffff811115612c1857612c176139f9565b5b6040519080825280601f01601f191660200182016040528015612c4a5781602001600182028036833780820191505090505b5090506000806020830191508560208801019050612c69828287612da7565b8293505050509392505050565b6000612c83848484612e0b565b612c8e878785612e0b565b14905095945050505050565b60008251600283612cab9190614760565b1115612cb657600080fd5b61ffff8260028501015116905092915050565b60008251600483612cda9190614760565b1115612ce557600080fd5b63ffffffff8260048501015116905092915050565b600033905090565b60007f691f3431000000000000000000000000000000000000000000000000000000007bffffffffffffffffffffffffffffffffffffffffffffffffffffffff1916827bffffffffffffffffffffffffffffffffffffffffffffffffffffffff19161480612d755750612d7482612e37565b5b9050919050565b6000828281518110612d9157612d90614304565b5b602001015160f81c60f81b60f81c905092915050565b5b60208110612de65781518352602083612dc19190614760565b9250602082612dd09190614760565b9150602081612ddf9190613f0e565b9050612da8565b60006001826020036101000a0390508019835116818551168181178652505050505050565b600083518284612e1b9190614760565b1115612e2657600080fd5b818360208601012090509392505050565b60007f124a319c000000000000000000000000000000000000000000000000000000007bffffffffffffffffffffffffffffffffffffffffffffffffffffffff1916827bffffffffffffffffffffffffffffffffffffffffffffffffffffffff19161480612eaa5750612ea982612eb1565b5b9050919050565b60007fa8fa5682000000000000000000000000000000000000000000000000000000007bffffffffffffffffffffffffffffffffffffffffffffffffffffffff1916827bffffffffffffffffffffffffffffffffffffffffffffffffffffffff19161480612f7c57507f5c98042b000000000000000000000000000000000000000000000000000000007bffffffffffffffffffffffffffffffffffffffffffffffffffffffff1916827bffffffffffffffffffffffffffffffffffffffffffffffffffffffff1916145b80612f8c5750612f8b82612f93565b5b9050919050565b60007fbc1c58d1000000000000000000000000000000000000000000000000000000007bffffffffffffffffffffffffffffffffffffffffffffffffffffffff1916827bffffffffffffffffffffffffffffffffffffffffffffffffffffffff1916148061300657506130058261300d565b5b9050919050565b60007f3b3b57de000000000000000000000000000000000000000000000000000000007bffffffffffffffffffffffffffffffffffffffffffffffffffffffff1916827bffffffffffffffffffffffffffffffffffffffffffffffffffffffff191614806130d857507ff1cb7e06000000000000000000000000000000000000000000000000000000007bffffffffffffffffffffffffffffffffffffffffffffffffffffffff1916827bffffffffffffffffffffffffffffffffffffffffffffffffffffffff1916145b806130e857506130e7826130ef565b5b9050919050565b60007f2203ab56000000000000000000000000000000000000000000000000000000007bffffffffffffffffffffffffffffffffffffffffffffffffffffffff1916827bffffffffffffffffffffffffffffffffffffffffffffffffffffffff19161480613162575061316182613169565b5b9050919050565b60007fd700ff33000000000000000000000000000000000000000000000000000000007bffffffffffffffffffffffffffffffffffffffffffffffffffffffff1916827bffffffffffffffffffffffffffffffffffffffffffffffffffffffff191614806131dc57506131db826131e3565b5b9050919050565b60007f01ffc9a7000000000000000000000000000000000000000000000000000000007bffffffffffffffffffffffffffffffffffffffffffffffffffffffff1916827bffffffffffffffffffffffffffffffffffffffffffffffffffffffff1916149050919050565b6040518060e001604052806060815260200160008152602001600061ffff168152602001600061ffff168152602001600063ffffffff16815260200160008152602001600081525090565b5080546132a490613fc5565b6000825580601f106132b657506132d5565b601f0160209004906000526020600020908101906132d491906132d8565b5b50565b5b808211156132f15760008160009055506001016132d9565b5090565b6000604051905090565b600080fd5b600080fd5b60007fffffffff0000000000000000000000000000000000000000000000000000000082169050919050565b61333e81613309565b811461334957600080fd5b50565b60008135905061335b81613335565b92915050565b600060208284031215613377576133766132ff565b5b60006133858482850161334c565b91505092915050565b60008115159050919050565b6133a38161338e565b82525050565b60006020820190506133be600083018461339a565b92915050565b6000819050919050565b6133d7816133c4565b81146133e257600080fd5b50565b6000813590506133f4816133ce565b92915050565b600080fd5b600080fd5b600080fd5b60008083601f84011261341f5761341e6133fa565b5b8235905067ffffffffffffffff81111561343c5761343b6133ff565b5b60208301915083600182028301111561345857613457613404565b5b9250929050565b600080600060408486031215613478576134776132ff565b5b6000613486868287016133e5565b935050602084013567ffffffffffffffff8111156134a7576134a6613304565b5b6134b386828701613409565b92509250509250925092565b60008083601f8401126134d5576134d46133fa565b5b8235905067ffffffffffffffff8111156134f2576134f16133ff565b5b60208301915083600182028301111561350e5761350d613404565b5b9250929050565b600080600080600060608688031215613531576135306132ff565b5b600061353f888289016133e5565b955050602086013567ffffffffffffffff8111156135605761355f613304565b5b61356c888289016134bf565b9450945050604086013567ffffffffffffffff81111561358f5761358e613304565b5b61359b888289016134bf565b92509250509295509295909350565b600080604083850312156135c1576135c06132ff565b5b60006135cf858286016133e5565b92505060206135e08582860161334c565b9150509250929050565b600073ffffffffffffffffffffffffffffffffffffffff82169050919050565b6000613615826135ea565b9050919050565b6136258161360a565b82525050565b6000602082019050613640600083018461361c565b92915050565b6000819050919050565b61365981613646565b811461366457600080fd5b50565b60008135905061367681613650565b92915050565b60008060408385031215613693576136926132ff565b5b60006136a1858286016133e5565b92505060206136b285828601613667565b9150509250929050565b6136c581613646565b82525050565b600081519050919050565b600082825260208201905092915050565b60005b838110156137055780820151818401526020810190506136ea565b60008484015250505050565b6000601f19601f8301169050919050565b600061372d826136cb565b61373781856136d6565b93506137478185602086016136e7565b61375081613711565b840191505092915050565b600060408201905061377060008301856136bc565b81810360208301526137828184613722565b90509392505050565b6000806000606084860312156137a4576137a36132ff565b5b60006137b2868287016133e5565b93505060206137c3868287016133e5565b92505060406137d4868287016133e5565b9150509250925092565b6000602082840312156137f4576137f36132ff565b5b6000613802848285016133e5565b91505092915050565b6000613816826135ea565b9050919050565b6138268161380b565b82525050565b6000602082019050613841600083018461381d565b92915050565b6000806040838503121561385e5761385d6132ff565b5b600061386c858286016133e5565b925050602061387d858286016133e5565b9150509250929050565b6000806000604084860312156138a05761389f6132ff565b5b60006138ae868287016133e5565b935050602084013567ffffffffffffffff8111156138cf576138ce613304565b5b6138db868287016134bf565b92509250509250925092565b600081519050919050565b600082825260208201905092915050565b600061390e826138e7565b61391881856138f2565b93506139288185602086016136e7565b61393181613711565b840191505092915050565b600060208201905081810360008301526139568184613903565b905092915050565b600060208201905081810360008301526139788184613722565b905092915050565b6000806000806060858703121561399a576139996132ff565b5b60006139a8878288016133e5565b94505060206139b987828801613667565b935050604085013567ffffffffffffffff8111156139da576139d9613304565b5b6139e687828801613409565b925092505092959194509250565b600080fd5b7f4e487b7100000000000000000000000000000000000000000000000000000000600052604160045260246000fd5b613a3182613711565b810181811067ffffffffffffffff82111715613a5057613a4f6139f9565b5b80604052505050565b6000613a636132f5565b9050613a6f8282613a28565b919050565b600067ffffffffffffffff821115613a8f57613a8e6139f9565b5b613a9882613711565b9050602081019050919050565b82818337600083830152505050565b6000613ac7613ac284613a74565b613a59565b905082815260208101848484011115613ae357613ae26139f4565b5b613aee848285613aa5565b509392505050565b600082601f830112613b0b57613b0a6133fa565b5b8135613b1b848260208601613ab4565b91505092915050565b600080600060608486031215613b3d57613b3c6132ff565b5b6000613b4b868287016133e5565b9350506020613b5c86828701613667565b925050604084013567ffffffffffffffff811115613b7d57613b7c613304565b5b613b8986828701613af6565b9150509250925092565b60008060408385031215613baa57613ba96132ff565b5b600083013567ffffffffffffffff811115613bc857613bc7613304565b5b613bd485828601613af6565b925050602083013567ffffffffffffffff811115613bf557613bf4613304565b5b613c0185828601613af6565b9150509250929050565b600061ffff82169050919050565b613c2281613c0b565b8114613c2d57600080fd5b50565b600081359050613c3f81613c19565b92915050565b600080600060608486031215613c5e57613c5d6132ff565b5b6000613c6c868287016133e5565b9350506020613c7d868287016133e5565b9250506040613c8e86828701613c30565b9150509250925092565b613ca1816133c4565b82525050565b6000604082019050613cbc6000830185613c98565b613cc96020830184613c98565b9392505050565b613cd98161360a565b8114613ce457600080fd5b50565b600081359050613cf681613cd0565b92915050565b60008060408385031215613d1357613d126132ff565b5b6000613d21858286016133e5565b9250506020613d3285828601613ce7565b9150509250929050565b600067ffffffffffffffff82169050919050565b613d5981613d3c565b82525050565b6000602082019050613d746000830184613d50565b92915050565b600080600060608486031215613d9357613d926132ff565b5b6000613da1868287016133e5565b9350506020613db28682870161334c565b9250506040613dc386828701613ce7565b9150509250925092565b600060208284031215613de357613de26132ff565b5b6000613df184828501613ce7565b91505092915050565b7f4e6f7420617574686f72697a656420746f20616363657373205265736f6c766560008201527f7242617365000000000000000000000000000000000000000000000000000000602082015250565b6000613e566025836138f2565b9150613e6182613dfa565b604082019050919050565b60006020820190508181036000830152613e8581613e49565b9050919050565b600081905092915050565b6000613ea2826136cb565b613eac8185613e8c565b9350613ebc8185602086016136e7565b80840191505092915050565b6000613ed48284613e97565b915081905092915050565b7f4e487b7100000000000000000000000000000000000000000000000000000000600052601160045260246000fd5b6000613f1982613646565b9150613f2483613646565b9250828203905081811115613f3c57613f3b613edf565b5b92915050565b600081905092915050565b6000613f598385613f42565b9350613f66838584613aa5565b82840190509392505050565b6000613f7f828486613f4d565b91508190509392505050565b600082905092915050565b7f4e487b7100000000000000000000000000000000000000000000000000000000600052602260045260246000fd5b60006002820490506001821680613fdd57607f821691505b602082108103613ff057613fef613f96565b5b50919050565b60008190508160005260206000209050919050565b60006020601f8301049050919050565b600082821b905092915050565b6000600883026140587fffffffffffffffffffffffffffffffffffffffffffffffffffffffffffffffff8261401b565b614062868361401b565b95508019841693508086168417925050509392505050565b6000819050919050565b600061409f61409a61409584613646565b61407a565b613646565b9050919050565b6000819050919050565b6140b983614084565b6140cd6140c5826140a6565b848454614028565b825550505050565b600090565b6140e26140d5565b6140ed8184846140b0565b505050565b5b81811015614111576141066000826140da565b6001810190506140f3565b5050565b601f8211156141565761412781613ff6565b6141308461400b565b8101602085101561413f578190505b61415361414b8561400b565b8301826140f2565b50505b505050565b600082821c905092915050565b60006141796000198460080261415b565b1980831691505092915050565b60006141928383614168565b9150826002028217905092915050565b6141ac8383613f8b565b67ffffffffffffffff8111156141c5576141c46139f9565b5b6141cf8254613fc5565b6141da828285614115565b6000601f83116001811461420957600084156141f7578287013590505b6142018582614186565b865550614269565b601f19841661421786613ff6565b60005b8281101561423f5784890135825560018201915060208501945060208101905061421a565b8683101561425c5784890135614258601f891682614168565b8355505b6001600288020188555050505b50505050505050565b600061427e83856138f2565b935061428b838584613aa5565b61429483613711565b840190509392505050565b600060408201905081810360008301526142ba818688614272565b905081810360208301526142cf818486614272565b905095945050505050565b6142e381613309565b82525050565b60006020820190506142fe60008301846142da565b92915050565b7f4e487b7100000000000000000000000000000000000000000000000000000000600052603260045260246000fd5b600082905092915050565b60008190508160005260206000209050919050565b601f821115614394576143658161433e565b61436e8461400b565b8101602085101561437d578190505b6143916143898561400b565b8301826140f2565b50505b505050565b6143a38383614333565b67ffffffffffffffff8111156143bc576143bb6139f9565b5b6143c68254613fc5565b6143d1828285614353565b6000601f83116001811461440057600084156143ee578287013590505b6143f88582614186565b865550614460565b601f19841661440e8661433e565b60005b8281101561443657848901358255600182019150602085019450602081019050614411565b86831015614453578489013561444f601f891682614168565b8355505b6001600288020188555050505b50505050505050565b600061447583856136d6565b9350614482838584613aa5565b61448b83613711565b840190509392505050565b600060208201905081810360008301526144b1818486614469565b90509392505050565b60006144c582613d3c565b915067ffffffffffffffff82036144df576144de613edf565b5b600182019050919050565b60006020820190508181036000830152614505818486614272565b90509392505050565b600061452961452461451f846135ea565b61407a565b6135ea565b9050919050565b600061453b8261450e565b9050919050565b600061454d82614530565b9050919050565b61455d81614542565b82525050565b60006020820190506145786000830184614554565b92915050565b614587826136cb565b67ffffffffffffffff8111156145a05761459f6139f9565b5b6145aa8254613fc5565b6145b5828285614353565b600060209050601f8311600181146145e857600084156145d6578287015190505b6145e08582614186565b865550614648565b601f1984166145f68661433e565b60005b8281101561461e578489015182556001820191506020850194506020810190506145f9565b8683101561463b5784890151614637601f891682614168565b8355505b6001600288020188555050505b505050505050565b6000604082019050818103600083015261466a8186613722565b9050818103602083015261467f818486614469565b9050949350505050565b600061469482613c0b565b9150600082036146a7576146a6613edf565b5b600182039050919050565b6146bb81613c0b565b82525050565b600060408201905081810360008301526146db8185613722565b90506146ea60208301846146b2565b9392505050565b60006146fc82613c0b565b915061ffff82036147105761470f613edf565b5b600182019050919050565b600060608201905081810360008301526147358186613722565b905061474460208301856146b2565b81810360408301526147568184613722565b9050949350505050565b600061476b82613646565b915061477683613646565b925082820190508082111561478e5761478d613edf565b5b92915050565b7f4e487b7100000000000000000000000000000000000000000000000000000000600052600160045260246000fdfea264697066735822122001c752c84bb4a79bc8937b897cbc4e4de079b50587ece1f550b549ad27e3807664736f6c63430008140033",
  "linkReferences": {},
  "deployedLinkReferences": {}
}