{
  "_format": "hh-sol-artifact-1",
  "contractName": "OwnedResolver",
  "sourceName": "contracts/resolvers/OwnedResolver.sol",
  "abi": [
    {
      "inputs": [],
      "stateMutability": "nonpayable",
      "type": "constructor"
    },
    {
      "inputs": [
        {
          "internalType": "address",
          "name": "owner",
          "type": "address"
        }
      ],
      "name": "OwnableInvalidOwner",
      "type": "error"
    },
    {
      "inputs": [
        {
          "internalType": "address",
          "name": "account",
          "type": "address"
        }
      ],
      "name": "OwnableUnauthorizedAccount",
      "type": "error"
    },
    {
      "anonymous": false,
      "inputs": [
        {
          "indexed": true,
          "internalType": "bytes32",
          "name": "node",
          "type": "bytes32"
        },
        {
          "indexed": true,
          "internalType": "uint256",
          "name": "contentType",
          "type": "uint256"
        }
      ],
      "name": "ABIChanged",
      "type": "event"
    },
    {
      "anonymous": false,
      "inputs": [
        {
          "indexed": true,
          "internalType": "bytes32",
          "name": "node",
          "type": "bytes32"
        },
        {
          "indexed": false,
          "internalType": "address",
          "name": "a",
          "type": "address"
        }
      ],
      "name": "AddrChanged",
      "type": "event"
    },
    {
      "anonymous": false,
      "inputs": [
        {
          "indexed": true,
          "internalType": "bytes32",
          "name": "node",
          "type": "bytes32"
        },
        {
          "indexed": false,
          "internalType": "uint256",
          "name": "coinType",
          "type": "uint256"
        },
        {
          "indexed": false,
          "internalType": "bytes",
          "name": "newAddress",
          "type": "bytes"
        }
      ],
      "name": "AddressChanged",
      "type": "event"
    },
    {
      "anonymous": false,
      "inputs": [
        {
          "indexed": true,
          "internalType": "bytes32",
          "name": "node",
          "type": "bytes32"
        },
        {
          "indexed": false,
          "internalType": "bytes",
          "name": "hash",
          "type": "bytes"
        }
      ],
      "name": "ContenthashChanged",
      "type": "event"
    },
    {
      "anonymous": false,
      "inputs": [
        {
          "indexed": true,
          "internalType": "bytes32",
          "name": "node",
          "type": "bytes32"
        },
        {
          "indexed": false,
          "internalType": "bytes",
          "name": "name",
          "type": "bytes"
        },
        {
          "indexed": false,
          "internalType": "uint16",
          "name": "resource",
          "type": "uint16"
        },
        {
          "indexed": false,
          "internalType": "bytes",
          "name": "record",
          "type": "bytes"
        }
      ],
      "name": "DNSRecordChanged",
      "type": "event"
    },
    {
      "anonymous": false,
      "inputs": [
        {
          "indexed": true,
          "internalType": "bytes32",
          "name": "node",
          "type": "bytes32"
        },
        {
          "indexed": false,
          "internalType": "bytes",
          "name": "name",
          "type": "bytes"
        },
        {
          "indexed": false,
          "internalType": "uint16",
          "name": "resource",
          "type": "uint16"
        }
      ],
      "name": "DNSRecordDeleted",
      "type": "event"
    },
    {
      "anonymous": false,
      "inputs": [
        {
          "indexed": true,
          "internalType": "bytes32",
          "name": "node",
          "type": "bytes32"
        },
        {
          "indexed": false,
          "internalType": "bytes",
          "name": "lastzonehash",
          "type": "bytes"
        },
        {
          "indexed": false,
          "internalType": "bytes",
          "name": "zonehash",
          "type": "bytes"
        }
      ],
      "name": "DNSZonehashChanged",
      "type": "event"
    },
    {
      "anonymous": false,
      "inputs": [
        {
          "indexed": true,
          "internalType": "bytes32",
          "name": "node",
          "type": "bytes32"
        },
        {
          "indexed": true,
          "internalType": "bytes4",
          "name": "interfaceID",
          "type": "bytes4"
        },
        {
          "indexed": false,
          "internalType": "address",
          "name": "implementer",
          "type": "address"
        }
      ],
      "name": "InterfaceChanged",
      "type": "event"
    },
    {
      "anonymous": false,
      "inputs": [
        {
          "indexed": true,
          "internalType": "bytes32",
          "name": "node",
          "type": "bytes32"
        },
        {
          "indexed": false,
          "internalType": "string",
          "name": "name",
          "type": "string"
        }
      ],
      "name": "NameChanged",
      "type": "event"
    },
    {
      "anonymous": false,
      "inputs": [
        {
          "indexed": true,
          "internalType": "address",
          "name": "previousOwner",
          "type": "address"
        },
        {
          "indexed": true,
          "internalType": "address",
          "name": "newOwner",
          "type": "address"
        }
      ],
      "name": "OwnershipTransferred",
      "type": "event"
    },
    {
      "anonymous": false,
      "inputs": [
        {
          "indexed": true,
          "internalType": "bytes32",
          "name": "node",
          "type": "bytes32"
        },
        {
          "indexed": false,
          "internalType": "bytes32",
          "name": "x",
          "type": "bytes32"
        },
        {
          "indexed": false,
          "internalType": "bytes32",
          "name": "y",
          "type": "bytes32"
        }
      ],
      "name": "PubkeyChanged",
      "type": "event"
    },
    {
      "anonymous": false,
      "inputs": [
        {
          "indexed": true,
          "internalType": "bytes32",
          "name": "node",
          "type": "bytes32"
        },
        {
          "indexed": true,
          "internalType": "string",
          "name": "indexedKey",
          "type": "string"
        },
        {
          "indexed": false,
          "internalType": "string",
          "name": "key",
          "type": "string"
        },
        {
          "indexed": false,
          "internalType": "string",
          "name": "value",
          "type": "string"
        }
      ],
      "name": "TextChanged",
      "type": "event"
    },
    {
      "anonymous": false,
      "inputs": [
        {
          "indexed": true,
          "internalType": "bytes32",
          "name": "node",
          "type": "bytes32"
        },
        {
          "indexed": false,
          "internalType": "uint64",
          "name": "newVersion",
          "type": "uint64"
        }
      ],
      "name": "VersionChanged",
      "type": "event"
    },
    {
      "inputs": [
        {
          "internalType": "bytes32",
          "name": "node",
          "type": "bytes32"
        },
        {
          "internalType": "uint256",
          "name": "contentTypes",
          "type": "uint256"
        }
      ],
      "name": "ABI",
      "outputs": [
        {
          "internalType": "uint256",
          "name": "",
          "type": "uint256"
        },
        {
          "internalType": "bytes",
          "name": "",
          "type": "bytes"
        }
      ],
      "stateMutability": "view",
      "type": "function"
    },
    {
      "inputs": [
        {
          "internalType": "bytes32",
          "name": "node",
          "type": "bytes32"
        }
      ],
      "name": "addr",
      "outputs": [
        {
          "internalType": "address payable",
          "name": "",
          "type": "address"
        }
      ],
      "stateMutability": "view",
      "type": "function"
    },
    {
      "inputs": [
        {
          "internalType": "bytes32",
          "name": "node",
          "type": "bytes32"
        },
        {
          "internalType": "uint256",
          "name": "coinType",
          "type": "uint256"
        }
      ],
      "name": "addr",
      "outputs": [
        {
          "internalType": "bytes",
          "name": "",
          "type": "bytes"
        }
      ],
      "stateMutability": "view",
      "type": "function"
    },
    {
      "inputs": [
        {
          "internalType": "bytes32",
          "name": "node",
          "type": "bytes32"
        }
      ],
      "name": "clearRecords",
      "outputs": [],
      "stateMutability": "nonpayable",
      "type": "function"
    },
    {
      "inputs": [
        {
          "internalType": "bytes32",
          "name": "node",
          "type": "bytes32"
        }
      ],
      "name": "contenthash",
      "outputs": [
        {
          "internalType": "bytes",
          "name": "",
          "type": "bytes"
        }
      ],
      "stateMutability": "view",
      "type": "function"
    },
    {
      "inputs": [
        {
          "internalType": "bytes32",
          "name": "node",
          "type": "bytes32"
        },
        {
          "internalType": "bytes32",
          "name": "name",
          "type": "bytes32"
        },
        {
          "internalType": "uint16",
          "name": "resource",
          "type": "uint16"
        }
      ],
      "name": "dnsRecord",
      "outputs": [
        {
          "internalType": "bytes",
          "name": "",
          "type": "bytes"
        }
      ],
      "stateMutability": "view",
      "type": "function"
    },
    {
      "inputs": [
        {
          "internalType": "bytes32",
          "name": "node",
          "type": "bytes32"
        },
        {
          "internalType": "bytes32",
          "name": "name",
          "type": "bytes32"
        }
      ],
      "name": "hasDNSRecords",
      "outputs": [
        {
          "internalType": "bool",
          "name": "",
          "type": "bool"
        }
      ],
      "stateMutability": "view",
      "type": "function"
    },
    {
      "inputs": [
        {
          "internalType": "bytes32",
          "name": "node",
          "type": "bytes32"
        },
        {
          "internalType": "bytes4",
          "name": "interfaceID",
          "type": "bytes4"
        }
      ],
      "name": "interfaceImplementer",
      "outputs": [
        {
          "internalType": "address",
          "name": "",
          "type": "address"
        }
      ],
      "stateMutability": "view",
      "type": "function"
    },
    {
      "inputs": [
        {
          "internalType": "bytes32",
          "name": "node",
          "type": "bytes32"
        }
      ],
      "name": "name",
      "outputs": [
        {
          "internalType": "string",
          "name": "",
          "type": "string"
        }
      ],
      "stateMutability": "view",
      "type": "function"
    },
    {
      "inputs": [],
      "name": "owner",
      "outputs": [
        {
          "internalType": "address",
          "name": "",
          "type": "address"
        }
      ],
      "stateMutability": "view",
      "type": "function"
    },
    {
      "inputs": [
        {
          "internalType": "bytes32",
          "name": "node",
          "type": "bytes32"
        }
      ],
      "name": "pubkey",
      "outputs": [
        {
          "internalType": "bytes32",
          "name": "x",
          "type": "bytes32"
        },
        {
          "internalType": "bytes32",
          "name": "y",
          "type": "bytes32"
        }
      ],
      "stateMutability": "view",
      "type": "function"
    },
    {
      "inputs": [
        {
          "internalType": "bytes32",
          "name": "",
          "type": "bytes32"
        }
      ],
      "name": "recordVersions",
      "outputs": [
        {
          "internalType": "uint64",
          "name": "",
          "type": "uint64"
        }
      ],
      "stateMutability": "view",
      "type": "function"
    },
    {
      "inputs": [],
      "name": "renounceOwnership",
      "outputs": [],
      "stateMutability": "nonpayable",
      "type": "function"
    },
    {
      "inputs": [
        {
          "internalType": "bytes",
          "name": "",
          "type": "bytes"
        },
        {
          "internalType": "bytes",
          "name": "data",
          "type": "bytes"
        }
      ],
      "name": "resolve",
      "outputs": [
        {
          "internalType": "bytes",
          "name": "",
          "type": "bytes"
        }
      ],
      "stateMutability": "view",
      "type": "function"
    },
    {
      "inputs": [
        {
          "internalType": "bytes32",
          "name": "node",
          "type": "bytes32"
        },
        {
          "internalType": "uint256",
          "name": "contentType",
          "type": "uint256"
        },
        {
          "internalType": "bytes",
          "name": "data",
          "type": "bytes"
        }
      ],
      "name": "setABI",
      "outputs": [],
      "stateMutability": "nonpayable",
      "type": "function"
    },
    {
      "inputs": [
        {
          "internalType": "bytes32",
          "name": "node",
          "type": "bytes32"
        },
        {
          "internalType": "uint256",
          "name": "coinType",
          "type": "uint256"
        },
        {
          "internalType": "bytes",
          "name": "a",
          "type": "bytes"
        }
      ],
      "name": "setAddr",
      "outputs": [],
      "stateMutability": "nonpayable",
      "type": "function"
    },
    {
      "inputs": [
        {
          "internalType": "bytes32",
          "name": "node",
          "type": "bytes32"
        },
        {
          "internalType": "address",
          "name": "a",
          "type": "address"
        }
      ],
      "name": "setAddr",
      "outputs": [],
      "stateMutability": "nonpayable",
      "type": "function"
    },
    {
      "inputs": [
        {
          "internalType": "bytes32",
          "name": "node",
          "type": "bytes32"
        },
        {
          "internalType": "bytes",
          "name": "hash",
          "type": "bytes"
        }
      ],
      "name": "setContenthash",
      "outputs": [],
      "stateMutability": "nonpayable",
      "type": "function"
    },
    {
      "inputs": [
        {
          "internalType": "bytes32",
          "name": "node",
          "type": "bytes32"
        },
        {
          "internalType": "bytes",
          "name": "data",
          "type": "bytes"
        }
      ],
      "name": "setDNSRecords",
      "outputs": [],
      "stateMutability": "nonpayable",
      "type": "function"
    },
    {
      "inputs": [
        {
          "internalType": "bytes32",
          "name": "node",
          "type": "bytes32"
        },
        {
          "internalType": "bytes4",
          "name": "interfaceID",
          "type": "bytes4"
        },
        {
          "internalType": "address",
          "name": "implementer",
          "type": "address"
        }
      ],
      "name": "setInterface",
      "outputs": [],
      "stateMutability": "nonpayable",
      "type": "function"
    },
    {
      "inputs": [
        {
          "internalType": "bytes32",
          "name": "node",
          "type": "bytes32"
        },
        {
          "internalType": "string",
          "name": "newName",
          "type": "string"
        }
      ],
      "name": "setName",
      "outputs": [],
      "stateMutability": "nonpayable",
      "type": "function"
    },
    {
      "inputs": [
        {
          "internalType": "bytes32",
          "name": "node",
          "type": "bytes32"
        },
        {
          "internalType": "bytes32",
          "name": "x",
          "type": "bytes32"
        },
        {
          "internalType": "bytes32",
          "name": "y",
          "type": "bytes32"
        }
      ],
      "name": "setPubkey",
      "outputs": [],
      "stateMutability": "nonpayable",
      "type": "function"
    },
    {
      "inputs": [
        {
          "internalType": "bytes32",
          "name": "node",
          "type": "bytes32"
        },
        {
          "internalType": "string",
          "name": "key",
          "type": "string"
        },
        {
          "internalType": "string",
          "name": "value",
          "type": "string"
        }
      ],
      "name": "setText",
      "outputs": [],
      "stateMutability": "nonpayable",
      "type": "function"
    },
    {
      "inputs": [
        {
          "internalType": "bytes32",
          "name": "node",
          "type": "bytes32"
        },
        {
          "internalType": "bytes",
          "name": "hash",
          "type": "bytes"
        }
      ],
      "name": "setZonehash",
      "outputs": [],
      "stateMutability": "nonpayable",
      "type": "function"
    },
    {
      "inputs": [
        {
          "internalType": "bytes4",
          "name": "interfaceID",
          "type": "bytes4"
        }
      ],
      "name": "supportsInterface",
      "outputs": [
        {
          "internalType": "bool",
          "name": "",
          "type": "bool"
        }
      ],
      "stateMutability": "view",
      "type": "function"
    },
    {
      "inputs": [
        {
          "internalType": "bytes32",
          "name": "node",
          "type": "bytes32"
        },
        {
          "internalType": "string",
          "name": "key",
          "type": "string"
        }
      ],
      "name": "text",
      "outputs": [
        {
          "internalType": "string",
          "name": "",
          "type": "string"
        }
      ],
      "stateMutability": "view",
      "type": "function"
    },
    {
      "inputs": [
        {
          "internalType": "address",
          "name": "newOwner",
          "type": "address"
        }
      ],
      "name": "transferOwnership",
      "outputs": [],
      "stateMutability": "nonpayable",
      "type": "function"
    },
    {
      "inputs": [
        {
          "internalType": "bytes32",
          "name": "node",
          "type": "bytes32"
        }
      ],
      "name": "zonehash",
      "outputs": [
        {
          "internalType": "bytes",
          "name": "",
          "type": "bytes"
        }
      ],
      "stateMutability": "view",
      "type": "function"
    }
  ],
  "bytecode": "0x608060405234801561001057600080fd5b50338061003757604051631e4fbdf760e01b81526000600482015260240160405180910390fd5b61004081610046565b50610096565b600080546001600160a01b038381166001600160a01b0319831681178455604051919092169283917f8be0079c531659141344cd1fd0a4f28419497f9722a3daafe3b4186f6b6457e09190a35050565b61280480620000a66000396000f3fe608060405234801561001057600080fd5b50600436106101c45760003560e01c8063715018a6116100f9578063c869023311610097578063d700ff3311610071578063d700ff331461044e578063e59d895d1461048f578063f1cb7e06146104a2578063f2fde38b146104b557600080fd5b8063c8690233146103cf578063ce3decdc14610428578063d5fa2b001461043b57600080fd5b80638da5cb5b116100d35780638da5cb5b146103855780639061b92314610396578063a8fa5682146103a9578063bc1c58d1146103bc57600080fd5b8063715018a614610357578063773722131461035f5780638b95dd711461037257600080fd5b80633603d7581161016657806359d1d43c1161014057806359d1d43c146102fe5780635c98042b1461031e578063623195b014610331578063691f34311461034457600080fd5b80633603d7581461028b5780633b3b57de1461029e5780634cbf6ba4146102b157600080fd5b8063124a319c116101a2578063124a319c146102195780632203ab561461024457806329cd62ea14610265578063304e6ade1461027857600080fd5b806301ffc9a7146101c95780630af179d7146101f157806310f13a8c14610206575b600080fd5b6101dc6101d7366004611efa565b6104c8565b60405190151581526020015b60405180910390f35b6102046101ff366004611f56565b6104d9565b005b610204610214366004611fa1565b610706565b61022c61022736600461201a565b6107ed565b6040516001600160a01b0390911681526020016101e8565b610257610252366004612046565b610a40565b6040516101e89291906120b8565b6102046102733660046120d1565b610b77565b610204610286366004611f56565b610c31565b6102046102993660046120fd565b610cc7565b61022c6102ac3660046120fd565b610d83565b6101dc6102bf366004612046565b6000828152600160209081526040808320546001600160401b031683526007825280832094835293815283822092825291909152205461ffff16151590565b61031161030c366004611f56565b610db5565b6040516101e89190612116565b61031161032c3660046120fd565b610e96565b61020461033f366004612129565b610f56565b6103116103523660046120fd565b61100d565b610204611048565b61020461036d366004611f56565b61105c565b61020461038036600461221d565b6110f2565b6000546001600160a01b031661022c565b6103116103a436600461226c565b6111ec565b6103116103b73660046122cf565b611265565b6103116103ca3660046120fd565b6112b4565b6104136103dd3660046120fd565b6000818152600160208181526040808420546001600160401b03168452600a825280842094845293905291902080549101549091565b604080519283526020830191909152016101e8565b610204610436366004611f56565b6112ef565b610204610449366004612326565b61144b565b61047761045c3660046120fd565b6001602052600090815260409020546001600160401b031681565b6040516001600160401b0390911681526020016101e8565b61020461049d366004612349565b61148b565b6103116104b0366004612046565b61154c565b6102046104c3366004612385565b611615565b60006104d382611653565b92915050565b60005483906001600160a01b0316331461050e5760405162461bcd60e51b8152600401610505906123a0565b60405180910390fd5b6000848152600160209081526040808320548151601f87018490048402810184019092528582528392606092839285926001600160401b039091169183916105759183918d908d908190840183828082843760009201919091525092939250506116789050565b90505b8051516020820151101561069f578661ffff166000036105dd57806040015196506105a2816116d9565b9450846040516020016105b591906123e5565b6040516020818303038152906040528051906020012092506105d6816116fa565b9350610691565b60006105e8826116d9565b9050816040015161ffff168861ffff1614158061060c575061060a8682611716565b155b1561068f576106688c878a8e8e8080601f016020809104026020016040519081016040528093929190818152602001838380828437600092019190915250505060208801518d915061065f908290612417565b8b51158a611734565b81604001519750816020015196508095508580519060200120935061068c826116fa565b94505b505b61069a8161199b565b610578565b508351156106fa576106fa8a85888c8c8080601f0160208091040260200160405190810160405280939291908181526020018383808284376000920191909152508c92506106f191508290508f612417565b89511588611734565b50505050505050505050565b60005485906001600160a01b031633146107325760405162461bcd60e51b8152600401610505906123a0565b6000868152600160209081526040808320546001600160401b03168352600b825280832089845290915290819020905184918491610773908990899061242a565b9081526020016040518091039020918261078e9291906124c2565b50848460405161079f92919061242a565b6040518091039020867f448bc014f1536726cf8d54ff3d6481ed3cbc683c2591ca204274009afa09b1a1878787876040516107dd94939291906125aa565b60405180910390a3505050505050565b6000828152600160209081526040808320546001600160401b031683526008825280832085845282528083206001600160e01b0319851684529091528120546001600160a01b031680156108425790506104d3565b600061084d85610d83565b90506001600160a01b038116610868576000925050506104d3565b6040516301ffc9a760e01b602482015260009081906001600160a01b0384169060440160408051601f198184030181529181526020820180516001600160e01b03166301ffc9a760e01b179052516108c091906123e5565b600060405180830381855afa9150503d80600081146108fb576040519150601f19603f3d011682016040523d82523d6000602084013e610900565b606091505b5091509150811580610913575060208151105b8061093d575080601f8151811061092c5761092c6125dc565b01602001516001600160f81b031916155b1561094f5760009450505050506104d3565b6040516001600160e01b0319871660248201526001600160a01b0384169060440160408051601f198184030181529181526020820180516001600160e01b03166301ffc9a760e01b179052516109a591906123e5565b600060405180830381855afa9150503d80600081146109e0576040519150601f19603f3d011682016040523d82523d6000602084013e6109e5565b606091505b5090925090508115806109f9575060208151105b80610a23575080601f81518110610a1257610a126125dc565b01602001516001600160f81b031916155b15610a355760009450505050506104d3565b509095945050505050565b6000828152600160208181526040808420546001600160401b031684526002825280842086855290915282206060915b848111610b575780851615801590610aa0575060008181526020839052604081208054610a9c9061243a565b9050115b15610b4f5780826000838152602001908152602001600020808054610ac49061243a565b80601f0160208091040260200160405190810160405280929190818152602001828054610af09061243a565b8015610b3d5780601f10610b1257610100808354040283529160200191610b3d565b820191906000526020600020905b815481529060010190602001808311610b2057829003601f168201915b50505050509050935093505050610b70565b60011b610a70565b5060006040518060200160405280600081525092509250505b9250929050565b60005483906001600160a01b03163314610ba35760405162461bcd60e51b8152600401610505906123a0565b604080518082018252848152602080820185815260008881526001808452858220546001600160401b03168252600a84528582208a835290935284902092518355519101555184907f1d6f5e03d3f63eb58751986629a5439baee5079ff04f345becb66e23eb154e4690610c239086908690918252602082015260400190565b60405180910390a250505050565b60005483906001600160a01b03163314610c5d5760405162461bcd60e51b8152600401610505906123a0565b6000848152600160209081526040808320546001600160401b03168352600482528083208784529091529020610c948385836124c2565b50837fe379c1624ed7e714cc0937528a32359d69d5281337765313dba4e081b72d75788484604051610c239291906125f2565b60005481906001600160a01b03163314610cf35760405162461bcd60e51b8152600401610505906123a0565b600082815260016020526040812080546001600160401b031691610d1683612606565b82546101009290920a6001600160401b038181021990931691831602179091556000848152600160209081526040918290205491519190921681528492507fc6621ccb8f3f5a04bb6502154b2caf6adf5983fe76dfef1cfc9c42e3579db444910160405180910390a25050565b600080610d9183603c61154c565b90508051600003610da55750600092915050565b610dae81611a83565b9392505050565b6000838152600160209081526040808320546001600160401b03168352600b825280832086845290915290819020905160609190610df6908590859061242a565b90815260200160405180910390208054610e0f9061243a565b80601f0160208091040260200160405190810160405280929190818152602001828054610e3b9061243a565b8015610e885780601f10610e5d57610100808354040283529160200191610e88565b820191906000526020600020905b815481529060010190602001808311610e6b57829003601f168201915b505050505090509392505050565b6000818152600160209081526040808320546001600160401b03168352600582528083208484529091529020805460609190610ed19061243a565b80601f0160208091040260200160405190810160405280929190818152602001828054610efd9061243a565b8015610f4a5780601f10610f1f57610100808354040283529160200191610f4a565b820191906000526020600020905b815481529060010190602001808311610f2d57829003601f168201915b50505050509050919050565b60005484906001600160a01b03163314610f825760405162461bcd60e51b8152600401610505906123a0565b83610f8e600182612417565b1615610f9957600080fd5b6000858152600160209081526040808320546001600160401b031683526002825280832088845282528083208784529091529020610fd88385836124c2565b50604051849086907faa121bbeef5f32f5961a2a28966e769023910fc9479059ee3495d4c1a696efe390600090a35050505050565b6000818152600160209081526040808320546001600160401b03168352600982528083208484529091529020805460609190610ed19061243a565b611050611aa2565b61105a6000611acf565b565b60005483906001600160a01b031633146110885760405162461bcd60e51b8152600401610505906123a0565b6000848152600160209081526040808320546001600160401b031683526009825280832087845290915290206110bf8385836124c2565b50837fb7d29e911041e8d9b843369e890bcb72c9388692ba48b65ac54e7214c4c348f78484604051610c239291906125f2565b60005483906001600160a01b0316331461111e5760405162461bcd60e51b8152600401610505906123a0565b837f65412581168e88a1e60c6459d7f44ae83ad0832e670826c05a4e2476b57af75284846040516111509291906120b8565b60405180910390a2603c83036111a757837f52d7d861f09ab3d26239d492e8968629f95e9e318cf0b73bfddc441522a15fd261118b84611a83565b6040516001600160a01b03909116815260200160405180910390a25b6000848152600160209081526040808320546001600160401b0316835260038252808320878452825280832086845290915290206111e5838261262c565b5050505050565b6060600080306001600160a01b03168460405161120991906123e5565b600060405180830381855afa9150503d8060008114611244576040519150601f19603f3d011682016040523d82523d6000602084013e611249565b606091505b5091509150811561125d5791506104d39050565b805160208201fd5b6000838152600160209081526040808320546001600160401b03168352600682528083208684528252808320858452825280832061ffff851684529091529020805460609190610e0f9061243a565b6000818152600160209081526040808320546001600160401b03168352600482528083208484529091529020805460609190610ed19061243a565b60005483906001600160a01b0316331461131b5760405162461bcd60e51b8152600401610505906123a0565b6000848152600160209081526040808320546001600160401b031680845260058352818420888552909252822080549192916113569061243a565b80601f01602080910402602001604051908101604052809291908181526020018280546113829061243a565b80156113cf5780601f106113a4576101008083540402835291602001916113cf565b820191906000526020600020905b8154815290600101906020018083116113b257829003601f168201915b505050506001600160401b03841660009081526005602090815260408083208b8452909152902091925061140690508587836124c2565b50857f8f15ed4b723ef428f250961da8315675b507046737e19319fc1a4d81bfe87f8582878760405161143b939291906126eb565b60405180910390a2505050505050565b60005482906001600160a01b031633146114775760405162461bcd60e51b8152600401610505906123a0565b61148683603c61038085611b1f565b505050565b60005483906001600160a01b031633146114b75760405162461bcd60e51b8152600401610505906123a0565b6000848152600160209081526040808320546001600160401b031683526008825280832087845282528083206001600160e01b031987168085529083529281902080546001600160a01b0319166001600160a01b038716908117909155905190815286917f7c69f06bea0bdef565b709e93a147836b0063ba2dd89f02d0b7e8d931e6a6daa910160405180910390a350505050565b6000828152600160209081526040808320546001600160401b03168352600382528083208584528252808320848452909152902080546060919061158f9061243a565b80601f01602080910402602001604051908101604052809291908181526020018280546115bb9061243a565b80156116085780601f106115dd57610100808354040283529160200191611608565b820191906000526020600020905b8154815290600101906020018083116115eb57829003601f168201915b5050505050905092915050565b61161d611aa2565b6001600160a01b03811661164757604051631e4fbdf760e01b815260006004820152602401610505565b61165081611acf565b50565b60006001600160e01b03198216631674750f60e21b14806104d357506104d382611b4f565b6116c66040518060e001604052806060815260200160008152602001600061ffff168152602001600061ffff168152602001600063ffffffff16815260200160008152602001600081525090565b82815260c081018290526104d38161199b565b602081015181516060916104d3916116f19082611b74565b84519190611bd6565b60a081015160c08201516060916104d3916116f1908290612417565b600081518351148015610dae5750610dae8360008460008751611c4c565b865160208801206000611748878787611bd6565b9050831561186f576001600160401b03831660009081526006602090815260408083208d84528252808320858452825280832061ffff8c168452909152902080546117929061243a565b1590506117f0576001600160401b03831660009081526007602090815260408083208d845282528083208584529091528120805461ffff16916117d48361271b565b91906101000a81548161ffff021916908361ffff160217905550505b6001600160401b03831660009081526006602090815260408083208d84528252808320858452825280832061ffff8c168452909152812061183091611e8f565b897f03528ed0c2a3ebc993b12ce3c16bb382f9c7d88ef7d8a1bf290eaf35955a12078a8a604051611862929190612739565b60405180910390a26106fa565b6001600160401b03831660009081526006602090815260408083208d84528252808320858452825280832061ffff8c168452909152902080546118b19061243a565b9050600003611911576001600160401b03831660009081526007602090815260408083208d845282528083208584529091528120805461ffff16916118f58361275f565b91906101000a81548161ffff021916908361ffff160217905550505b6001600160401b03831660009081526006602090815260408083208d84528252808320858452825280832061ffff8c1684529091529020611952828261262c565b50897f52a608b3303a48862d07a73d82fa221318c0027fbbcfb1b2329bface3f19ff2b8a8a8460405161198793929190612776565b60405180910390a250505050505050505050565b60c081015160208201819052815151116119b25750565b60006119c682600001518360200151611b74565b82602001516119d591906127a5565b82519091506119e49082611c6f565b61ffff1660408301526119f86002826127a5565b8251909150611a079082611c6f565b61ffff166060830152611a1b6002826127a5565b8251909150611a2a9082611c97565b63ffffffff166080830152611a406004826127a5565b8251909150600090611a529083611c6f565b61ffff169050611a636002836127a5565b60a084018190529150611a7681836127a5565b60c0909301929092525050565b60008151601414611a9357600080fd5b5060200151600160601b900490565b6000546001600160a01b0316331461105a5760405163118cdaa760e01b8152336004820152602401610505565b600080546001600160a01b038381166001600160a01b0319831681178455604051919092169283917f8be0079c531659141344cd1fd0a4f28419497f9722a3daafe3b4186f6b6457e09190a35050565b604080516014808252818301909252606091602082018180368337505050600160601b9290920260208301525090565b60006001600160e01b0319821663c869023360e01b14806104d357506104d382611cc1565b6000815b83518110611b8857611b886127b8565b6000611b948583611ce6565b60ff169050611ba48160016127a5565b611bae90836127a5565b915080600003611bbe5750611bc4565b50611b78565b611bce8382612417565b949350505050565b8251606090611be583856127a5565b1115611bf057600080fd5b6000826001600160401b03811115611c0a57611c0a61217b565b6040519080825280601f01601f191660200182016040528015611c34576020820181803683370190505b50905060208082019086860101610a35828287611d0a565b6000611c59848484611d60565b611c64878785611d60565b149695505050505050565b8151600090611c7f8360026127a5565b1115611c8a57600080fd5b50016002015161ffff1690565b8151600090611ca78360046127a5565b1115611cb257600080fd5b50016004015163ffffffff1690565b60006001600160e01b0319821663691f343160e01b14806104d357506104d382611d84565b6000828281518110611cfa57611cfa6125dc565b016020015160f81c905092915050565b60208110611d425781518352611d216020846127a5565b9250611d2e6020836127a5565b9150611d3b602082612417565b9050611d0a565b905182516020929092036101000a6000190180199091169116179052565b8251600090611d6f83856127a5565b1115611d7a57600080fd5b5091016020012090565b60006001600160e01b031982166304928c6760e21b14806104d357506104d38260006001600160e01b0319821663547d2b4160e11b1480611dd557506001600160e01b03198216635c98042b60e01b145b806104d357506104d38260006001600160e01b0319821663bc1c58d160e01b14806104d357506104d38260006001600160e01b03198216631d9dabef60e11b1480611e3057506001600160e01b031982166378e5bf0360e11b145b806104d357506104d38260006001600160e01b03198216631101d5ab60e11b14806104d357506104d38260006001600160e01b0319821663d700ff3360e01b14806104d357506301ffc9a760e01b6001600160e01b03198316146104d3565b508054611e9b9061243a565b6000825580601f10611eab575050565b601f01602090049060005260206000209081019061165091905b80821115611ed95760008155600101611ec5565b5090565b80356001600160e01b031981168114611ef557600080fd5b919050565b600060208284031215611f0c57600080fd5b610dae82611edd565b60008083601f840112611f2757600080fd5b5081356001600160401b03811115611f3e57600080fd5b602083019150836020828501011115610b7057600080fd5b600080600060408486031215611f6b57600080fd5b8335925060208401356001600160401b03811115611f8857600080fd5b611f9486828701611f15565b9497909650939450505050565b600080600080600060608688031215611fb957600080fd5b8535945060208601356001600160401b0380821115611fd757600080fd5b611fe389838a01611f15565b90965094506040880135915080821115611ffc57600080fd5b5061200988828901611f15565b969995985093965092949392505050565b6000806040838503121561202d57600080fd5b8235915061203d60208401611edd565b90509250929050565b6000806040838503121561205957600080fd5b50508035926020909101359150565b60005b8381101561208357818101518382015260200161206b565b50506000910152565b600081518084526120a4816020860160208601612068565b601f01601f19169290920160200192915050565b828152604060208201526000611bce604083018461208c565b6000806000606084860312156120e657600080fd5b505081359360208301359350604090920135919050565b60006020828403121561210f57600080fd5b5035919050565b602081526000610dae602083018461208c565b6000806000806060858703121561213f57600080fd5b843593506020850135925060408501356001600160401b0381111561216357600080fd5b61216f87828801611f15565b95989497509550505050565b634e487b7160e01b600052604160045260246000fd5b600082601f8301126121a257600080fd5b81356001600160401b03808211156121bc576121bc61217b565b604051601f8301601f19908116603f011681019082821181831017156121e4576121e461217b565b816040528381528660208588010111156121fd57600080fd5b836020870160208301376000602085830101528094505050505092915050565b60008060006060848603121561223257600080fd5b833592506020840135915060408401356001600160401b0381111561225657600080fd5b61226286828701612191565b9150509250925092565b6000806040838503121561227f57600080fd5b82356001600160401b038082111561229657600080fd5b6122a286838701612191565b935060208501359150808211156122b857600080fd5b506122c585828601612191565b9150509250929050565b6000806000606084860312156122e457600080fd5b8335925060208401359150604084013561ffff8116811461230457600080fd5b809150509250925092565b80356001600160a01b0381168114611ef557600080fd5b6000806040838503121561233957600080fd5b8235915061203d6020840161230f565b60008060006060848603121561235e57600080fd5b8335925061236e60208501611edd565b915061237c6040850161230f565b90509250925092565b60006020828403121561239757600080fd5b610dae8261230f565b60208082526025908201527f4e6f7420617574686f72697a656420746f20616363657373205265736f6c7665604082015264724261736560d81b606082015260800190565b600082516123f7818460208701612068565b9190910192915050565b634e487b7160e01b600052601160045260246000fd5b818103818111156104d3576104d3612401565b8183823760009101908152919050565b600181811c9082168061244e57607f821691505b60208210810361246e57634e487b7160e01b600052602260045260246000fd5b50919050565b601f82111561148657600081815260208120601f850160051c8101602086101561249b5750805b601f850160051c820191505b818110156124ba578281556001016124a7565b505050505050565b6001600160401b038311156124d9576124d961217b565b6124ed836124e7835461243a565b83612474565b6000601f84116001811461252157600085156125095750838201355b600019600387901b1c1916600186901b1783556111e5565b600083815260209020601f19861690835b828110156125525786850135825560209485019460019092019101612532565b508682101561256f5760001960f88860031b161c19848701351681555b505060018560011b0183555050505050565b81835281816020850137506000828201602090810191909152601f909101601f19169091010190565b6040815260006125be604083018688612581565b82810360208401526125d1818587612581565b979650505050505050565b634e487b7160e01b600052603260045260246000fd5b602081526000611bce602083018486612581565b60006001600160401b0380831681810361262257612622612401565b6001019392505050565b81516001600160401b038111156126455761264561217b565b61265981612653845461243a565b84612474565b602080601f83116001811461268e57600084156126765750858301515b600019600386901b1c1916600185901b1785556124ba565b600085815260208120601f198616915b828110156126bd5788860151825594840194600190910190840161269e565b50858210156126db5787850151600019600388901b60f8161c191681555b5050505050600190811b01905550565b6040815260006126fe604083018661208c565b8281036020840152612711818587612581565b9695505050505050565b600061ffff82168061272f5761272f612401565b6000190192915050565b60408152600061274c604083018561208c565b905061ffff831660208301529392505050565b600061ffff80831681810361262257612622612401565b606081526000612789606083018661208c565b61ffff851660208401528281036040840152612711818561208c565b808201808211156104d3576104d3612401565b634e487b7160e01b600052600160045260246000fdfea26469706673582212206dbd9e86eca45fe0cccdd25cc4a6c5739be88cb7ce2570e75e2402b87f0026dd64736f6c63430008140033",
  "linkReferences": {},
  "deployedLinkReferences": {}
}