{
  "_format": "hh-sol-artifact-1",
  "contractName": "PublicResolver",
  "sourceName": "contracts/resolvers/PublicResolver.sol",
  "abi": [
    {
      "inputs": [
        {
          "internalType": "contract ENS",
          "name": "_ens",
          "type": "address"
        },
        {
          "internalType": "address",
          "name": "_trustedETHController",
          "type": "address"
        },
        {
          "internalType": "address",
          "name": "_trustedReverseRegistrar",
          "type": "address"
        }
      ],
      "stateMutability": "nonpayable",
      "type": "constructor"
    },
    {
      "anonymous": false,
      "inputs": [
        {
          "indexed": true,
          "internalType": "bytes32",
          "name": "node",
          "type": "bytes32"
        },
        {
          "indexed": true,
          "internalType": "uint256",
          "name": "contentType",
          "type": "uint256"
        }
      ],
      "name": "ABIChanged",
      "type": "event"
    },
    {
      "anonymous": false,
      "inputs": [
        {
          "indexed": true,
          "internalType": "bytes32",
          "name": "node",
          "type": "bytes32"
        },
        {
          "indexed": false,
          "internalType": "address",
          "name": "a",
          "type": "address"
        }
      ],
      "name": "AddrChanged",
      "type": "event"
    },
    {
      "anonymous": false,
      "inputs": [
        {
          "indexed": true,
          "internalType": "bytes32",
          "name": "node",
          "type": "bytes32"
        },
        {
          "indexed": false,
          "internalType": "uint256",
          "name": "coinType",
          "type": "uint256"
        },
        {
          "indexed": false,
          "internalType": "bytes",
          "name": "newAddress",
          "type": "bytes"
        }
      ],
      "name": "AddressChanged",
      "type": "event"
    },
    {
      "anonymous": false,
      "inputs": [
        {
          "indexed": true,
          "internalType": "address",
          "name": "owner",
          "type": "address"
        },
        {
          "indexed": true,
          "internalType": "address",
          "name": "operator",
          "type": "address"
        },
        {
          "indexed": false,
          "internalType": "bool",
          "name": "approved",
          "type": "bool"
        }
      ],
      "name": "ApprovalForAll",
      "type": "event"
    },
    {
      "anonymous": false,
      "inputs": [
        {
          "indexed": false,
          "internalType": "address",
          "name": "owner",
          "type": "address"
        },
        {
          "indexed": true,
          "internalType": "bytes32",
          "name": "node",
          "type": "bytes32"
        },
        {
          "indexed": true,
          "internalType": "address",
          "name": "delegate",
          "type": "address"
        },
        {
          "indexed": true,
          "internalType": "bool",
          "name": "approved",
          "type": "bool"
        }
      ],
      "name": "Approved",
      "type": "event"
    },
    {
      "anonymous": false,
      "inputs": [
        {
          "indexed": true,
          "internalType": "bytes32",
          "name": "node",
          "type": "bytes32"
        },
        {
          "indexed": false,
          "internalType": "bytes",
          "name": "hash",
          "type": "bytes"
        }
      ],
      "name": "ContenthashChanged",
      "type": "event"
    },
    {
      "anonymous": false,
      "inputs": [
        {
          "indexed": true,
          "internalType": "bytes32",
          "name": "node",
          "type": "bytes32"
        },
        {
          "indexed": false,
          "internalType": "bytes",
          "name": "name",
          "type": "bytes"
        },
        {
          "indexed": false,
          "internalType": "uint16",
          "name": "resource",
          "type": "uint16"
        },
        {
          "indexed": false,
          "internalType": "bytes",
          "name": "record",
          "type": "bytes"
        }
      ],
      "name": "DNSRecordChanged",
      "type": "event"
    },
    {
      "anonymous": false,
      "inputs": [
        {
          "indexed": true,
          "internalType": "bytes32",
          "name": "node",
          "type": "bytes32"
        },
        {
          "indexed": false,
          "internalType": "bytes",
          "name": "name",
          "type": "bytes"
        },
        {
          "indexed": false,
          "internalType": "uint16",
          "name": "resource",
          "type": "uint16"
        }
      ],
      "name": "DNSRecordDeleted",
      "type": "event"
    },
    {
      "anonymous": false,
      "inputs": [
        {
          "indexed": true,
          "internalType": "bytes32",
          "name": "node",
          "type": "bytes32"
        },
        {
          "indexed": false,
          "internalType": "bytes",
          "name": "lastzonehash",
          "type": "bytes"
        },
        {
          "indexed": false,
          "internalType": "bytes",
          "name": "zonehash",
          "type": "bytes"
        }
      ],
      "name": "DNSZonehashChanged",
      "type": "event"
    },
    {
      "anonymous": false,
      "inputs": [
        {
          "indexed": true,
          "internalType": "bytes32",
          "name": "node",
          "type": "bytes32"
        },
        {
          "indexed": true,
          "internalType": "bytes4",
          "name": "interfaceID",
          "type": "bytes4"
        },
        {
          "indexed": false,
          "internalType": "address",
          "name": "implementer",
          "type": "address"
        }
      ],
      "name": "InterfaceChanged",
      "type": "event"
    },
    {
      "anonymous": false,
      "inputs": [
        {
          "indexed": true,
          "internalType": "bytes32",
          "name": "node",
          "type": "bytes32"
        },
        {
          "indexed": false,
          "internalType": "string",
          "name": "name",
          "type": "string"
        }
      ],
      "name": "NameChanged",
      "type": "event"
    },
    {
      "anonymous": false,
      "inputs": [
        {
          "indexed": true,
          "internalType": "bytes32",
          "name": "node",
          "type": "bytes32"
        },
        {
          "indexed": false,
          "internalType": "bytes32",
          "name": "x",
          "type": "bytes32"
        },
        {
          "indexed": false,
          "internalType": "bytes32",
          "name": "y",
          "type": "bytes32"
        }
      ],
      "name": "PubkeyChanged",
      "type": "event"
    },
    {
      "anonymous": false,
      "inputs": [
        {
          "indexed": true,
          "internalType": "bytes32",
          "name": "node",
          "type": "bytes32"
        },
        {
          "indexed": true,
          "internalType": "string",
          "name": "indexedKey",
          "type": "string"
        },
        {
          "indexed": false,
          "internalType": "string",
          "name": "key",
          "type": "string"
        },
        {
          "indexed": false,
          "internalType": "string",
          "name": "value",
          "type": "string"
        }
      ],
      "name": "TextChanged",
      "type": "event"
    },
    {
      "anonymous": false,
      "inputs": [
        {
          "indexed": true,
          "internalType": "bytes32",
          "name": "node",
          "type": "bytes32"
        },
        {
          "indexed": false,
          "internalType": "uint64",
          "name": "newVersion",
          "type": "uint64"
        }
      ],
      "name": "VersionChanged",
      "type": "event"
    },
    {
      "inputs": [
        {
          "internalType": "bytes32",
          "name": "node",
          "type": "bytes32"
        },
        {
          "internalType": "uint256",
          "name": "contentTypes",
          "type": "uint256"
        }
      ],
      "name": "ABI",
      "outputs": [
        {
          "internalType": "uint256",
          "name": "",
          "type": "uint256"
        },
        {
          "internalType": "bytes",
          "name": "",
          "type": "bytes"
        }
      ],
      "stateMutability": "view",
      "type": "function"
    },
    {
      "inputs": [
        {
          "internalType": "bytes32",
          "name": "node",
          "type": "bytes32"
        }
      ],
      "name": "addr",
      "outputs": [
        {
          "internalType": "address payable",
          "name": "",
          "type": "address"
        }
      ],
      "stateMutability": "view",
      "type": "function"
    },
    {
      "inputs": [
        {
          "internalType": "bytes32",
          "name": "node",
          "type": "bytes32"
        },
        {
          "internalType": "uint256",
          "name": "coinType",
          "type": "uint256"
        }
      ],
      "name": "addr",
      "outputs": [
        {
          "internalType": "bytes",
          "name": "",
          "type": "bytes"
        }
      ],
      "stateMutability": "view",
      "type": "function"
    },
    {
      "inputs": [
        {
          "internalType": "bytes32",
          "name": "node",
          "type": "bytes32"
        },
        {
          "internalType": "address",
          "name": "delegate",
          "type": "address"
        },
        {
          "internalType": "bool",
          "name": "approved",
          "type": "bool"
        }
      ],
      "name": "approve",
      "outputs": [],
      "stateMutability": "nonpayable",
      "type": "function"
    },
    {
      "inputs": [
        {
          "internalType": "bytes32",
          "name": "node",
          "type": "bytes32"
        }
      ],
      "name": "clearRecords",
      "outputs": [],
      "stateMutability": "nonpayable",
      "type": "function"
    },
    {
      "inputs": [
        {
          "internalType": "bytes32",
          "name": "node",
          "type": "bytes32"
        }
      ],
      "name": "contenthash",
      "outputs": [
        {
          "internalType": "bytes",
          "name": "",
          "type": "bytes"
        }
      ],
      "stateMutability": "view",
      "type": "function"
    },
    {
      "inputs": [
        {
          "internalType": "bytes32",
          "name": "node",
          "type": "bytes32"
        },
        {
          "internalType": "bytes32",
          "name": "name",
          "type": "bytes32"
        },
        {
          "internalType": "uint16",
          "name": "resource",
          "type": "uint16"
        }
      ],
      "name": "dnsRecord",
      "outputs": [
        {
          "internalType": "bytes",
          "name": "",
          "type": "bytes"
        }
      ],
      "stateMutability": "view",
      "type": "function"
    },
    {
      "inputs": [
        {
          "internalType": "bytes32",
          "name": "node",
          "type": "bytes32"
        },
        {
          "internalType": "bytes32",
          "name": "name",
          "type": "bytes32"
        }
      ],
      "name": "hasDNSRecords",
      "outputs": [
        {
          "internalType": "bool",
          "name": "",
          "type": "bool"
        }
      ],
      "stateMutability": "view",
      "type": "function"
    },
    {
      "inputs": [
        {
          "internalType": "bytes32",
          "name": "node",
          "type": "bytes32"
        },
        {
          "internalType": "bytes4",
          "name": "interfaceID",
          "type": "bytes4"
        }
      ],
      "name": "interfaceImplementer",
      "outputs": [
        {
          "internalType": "address",
          "name": "",
          "type": "address"
        }
      ],
      "stateMutability": "view",
      "type": "function"
    },
    {
      "inputs": [
        {
          "internalType": "address",
          "name": "owner",
          "type": "address"
        },
        {
          "internalType": "bytes32",
          "name": "node",
          "type": "bytes32"
        },
        {
          "internalType": "address",
          "name": "delegate",
          "type": "address"
        }
      ],
      "name": "isApprovedFor",
      "outputs": [
        {
          "internalType": "bool",
          "name": "",
          "type": "bool"
        }
      ],
      "stateMutability": "view",
      "type": "function"
    },
    {
      "inputs": [
        {
          "internalType": "address",
          "name": "account",
          "type": "address"
        },
        {
          "internalType": "address",
          "name": "operator",
          "type": "address"
        }
      ],
      "name": "isApprovedForAll",
      "outputs": [
        {
          "internalType": "bool",
          "name": "",
          "type": "bool"
        }
      ],
      "stateMutability": "view",
      "type": "function"
    },
    {
      "inputs": [
        {
          "internalType": "bytes[]",
          "name": "data",
          "type": "bytes[]"
        }
      ],
      "name": "multicall",
      "outputs": [
        {
          "internalType": "bytes[]",
          "name": "results",
          "type": "bytes[]"
        }
      ],
      "stateMutability": "nonpayable",
      "type": "function"
    },
    {
      "inputs": [
        {
          "internalType": "bytes32",
          "name": "nodehash",
          "type": "bytes32"
        },
        {
          "internalType": "bytes[]",
          "name": "data",
          "type": "bytes[]"
        }
      ],
      "name": "multicallWithNodeCheck",
      "outputs": [
        {
          "internalType": "bytes[]",
          "name": "results",
          "type": "bytes[]"
        }
      ],
      "stateMutability": "nonpayable",
      "type": "function"
    },
    {
      "inputs": [
        {
          "internalType": "bytes32",
          "name": "node",
          "type": "bytes32"
        }
      ],
      "name": "name",
      "outputs": [
        {
          "internalType": "string",
          "name": "",
          "type": "string"
        }
      ],
      "stateMutability": "view",
      "type": "function"
    },
    {
      "inputs": [
        {
          "internalType": "bytes32",
          "name": "node",
          "type": "bytes32"
        }
      ],
      "name": "pubkey",
      "outputs": [
        {
          "internalType": "bytes32",
          "name": "x",
          "type": "bytes32"
        },
        {
          "internalType": "bytes32",
          "name": "y",
          "type": "bytes32"
        }
      ],
      "stateMutability": "view",
      "type": "function"
    },
    {
      "inputs": [
        {
          "internalType": "bytes32",
          "name": "",
          "type": "bytes32"
        }
      ],
      "name": "recordVersions",
      "outputs": [
        {
          "internalType": "uint64",
          "name": "",
          "type": "uint64"
        }
      ],
      "stateMutability": "view",
      "type": "function"
    },
    {
      "inputs": [
        {
          "internalType": "bytes32",
          "name": "node",
          "type": "bytes32"
        },
        {
          "internalType": "uint256",
          "name": "contentType",
          "type": "uint256"
        },
        {
          "internalType": "bytes",
          "name": "data",
          "type": "bytes"
        }
      ],
      "name": "setABI",
      "outputs": [],
      "stateMutability": "nonpayable",
      "type": "function"
    },
    {
      "inputs": [
        {
          "internalType": "bytes32",
          "name": "node",
          "type": "bytes32"
        },
        {
          "internalType": "uint256",
          "name": "coinType",
          "type": "uint256"
        },
        {
          "internalType": "bytes",
          "name": "a",
          "type": "bytes"
        }
      ],
      "name": "setAddr",
      "outputs": [],
      "stateMutability": "nonpayable",
      "type": "function"
    },
    {
      "inputs": [
        {
          "internalType": "bytes32",
          "name": "node",
          "type": "bytes32"
        },
        {
          "internalType": "address",
          "name": "a",
          "type": "address"
        }
      ],
      "name": "setAddr",
      "outputs": [],
      "stateMutability": "nonpayable",
      "type": "function"
    },
    {
      "inputs": [
        {
          "internalType": "address",
          "name": "operator",
          "type": "address"
        },
        {
          "internalType": "bool",
          "name": "approved",
          "type": "bool"
        }
      ],
      "name": "setApprovalForAll",
      "outputs": [],
      "stateMutability": "nonpayable",
      "type": "function"
    },
    {
      "inputs": [
        {
          "internalType": "bytes32",
          "name": "node",
          "type": "bytes32"
        },
        {
          "internalType": "bytes",
          "name": "hash",
          "type": "bytes"
        }
      ],
      "name": "setContenthash",
      "outputs": [],
      "stateMutability": "nonpayable",
      "type": "function"
    },
    {
      "inputs": [
        {
          "internalType": "bytes32",
          "name": "node",
          "type": "bytes32"
        },
        {
          "internalType": "bytes",
          "name": "data",
          "type": "bytes"
        }
      ],
      "name": "setDNSRecords",
      "outputs": [],
      "stateMutability": "nonpayable",
      "type": "function"
    },
    {
      "inputs": [
        {
          "internalType": "bytes32",
          "name": "node",
          "type": "bytes32"
        },
        {
          "internalType": "bytes4",
          "name": "interfaceID",
          "type": "bytes4"
        },
        {
          "internalType": "address",
          "name": "implementer",
          "type": "address"
        }
      ],
      "name": "setInterface",
      "outputs": [],
      "stateMutability": "nonpayable",
      "type": "function"
    },
    {
      "inputs": [
        {
          "internalType": "bytes32",
          "name": "node",
          "type": "bytes32"
        },
        {
          "internalType": "string",
          "name": "newName",
          "type": "string"
        }
      ],
      "name": "setName",
      "outputs": [],
      "stateMutability": "nonpayable",
      "type": "function"
    },
    {
      "inputs": [
        {
          "internalType": "bytes32",
          "name": "node",
          "type": "bytes32"
        },
        {
          "internalType": "bytes32",
          "name": "x",
          "type": "bytes32"
        },
        {
          "internalType": "bytes32",
          "name": "y",
          "type": "bytes32"
        }
      ],
      "name": "setPubkey",
      "outputs": [],
      "stateMutability": "nonpayable",
      "type": "function"
    },
    {
      "inputs": [
        {
          "internalType": "bytes32",
          "name": "node",
          "type": "bytes32"
        },
        {
          "internalType": "string",
          "name": "key",
          "type": "string"
        },
        {
          "internalType": "string",
          "name": "value",
          "type": "string"
        }
      ],
      "name": "setText",
      "outputs": [],
      "stateMutability": "nonpayable",
      "type": "function"
    },
    {
      "inputs": [
        {
          "internalType": "bytes32",
          "name": "node",
          "type": "bytes32"
        },
        {
          "internalType": "bytes",
          "name": "hash",
          "type": "bytes"
        }
      ],
      "name": "setZonehash",
      "outputs": [],
      "stateMutability": "nonpayable",
      "type": "function"
    },
    {
      "inputs": [
        {
          "internalType": "bytes4",
          "name": "interfaceID",
          "type": "bytes4"
        }
      ],
      "name": "supportsInterface",
      "outputs": [
        {
          "internalType": "bool",
          "name": "",
          "type": "bool"
        }
      ],
      "stateMutability": "view",
      "type": "function"
    },
    {
      "inputs": [
        {
          "internalType": "bytes32",
          "name": "node",
          "type": "bytes32"
        },
        {
          "internalType": "string",
          "name": "key",
          "type": "string"
        }
      ],
      "name": "text",
      "outputs": [
        {
          "internalType": "string",
          "name": "",
          "type": "string"
        }
      ],
      "stateMutability": "view",
      "type": "function"
    },
    {
      "inputs": [
        {
          "internalType": "bytes32",
          "name": "node",
          "type": "bytes32"
        }
      ],
      "name": "zonehash",
      "outputs": [
        {
          "internalType": "bytes",
          "name": "",
          "type": "bytes"
        }
      ],
      "stateMutability": "view",
      "type": "function"
    }
  ],
  "bytecode": "0x60e06040523480156200001157600080fd5b506040516200564e3803806200564e83398181016040528101906200003791906200018b565b8273ffffffffffffffffffffffffffffffffffffffff1660808173ffffffffffffffffffffffffffffffffffffffff16815250508173ffffffffffffffffffffffffffffffffffffffff1660a08173ffffffffffffffffffffffffffffffffffffffff16815250508073ffffffffffffffffffffffffffffffffffffffff1660c08173ffffffffffffffffffffffffffffffffffffffff1681525050505050620001e7565b600080fd5b600073ffffffffffffffffffffffffffffffffffffffff82169050919050565b60006200010e82620000e1565b9050919050565b6000620001228262000101565b9050919050565b620001348162000115565b81146200014057600080fd5b50565b600081519050620001548162000129565b92915050565b620001658162000101565b81146200017157600080fd5b50565b60008151905062000185816200015a565b92915050565b600080600060608486031215620001a757620001a6620000dc565b5b6000620001b78682870162000143565b9350506020620001ca8682870162000174565b9250506040620001dd8682870162000174565b9150509250925092565b60805160a05160c051615437620002176000396000612705015260006126b00152600061276501526154376000f3fe608060405234801561001057600080fd5b50600436106101da5760003560e01c80638b95dd7111610104578063c8690233116100a2578063e32954eb11610071578063e32954eb146105d1578063e59d895d14610601578063e985e9c51461061d578063f1cb7e061461064d576101da565b8063c869023314610538578063ce3decdc14610569578063d5fa2b0014610585578063d700ff33146105a1576101da565b8063a8fa5682116100de578063a8fa568214610478578063a9784b3e146104a8578063ac9650d8146104d8578063bc1c58d114610508576101da565b80638b95dd7114610424578063a22cb46514610440578063a4b91a011461045c576101da565b80633603d7581161017c5780635c98042b1161014b5780635c98042b1461038c578063623195b0146103bc578063691f3431146103d85780637737221314610408576101da565b80633603d758146102e05780633b3b57de146102fc5780634cbf6ba41461032c57806359d1d43c1461035c576101da565b8063124a319c116101b8578063124a319c146102475780632203ab561461027757806329cd62ea146102a8578063304e6ade146102c4576101da565b806301ffc9a7146101df5780630af179d71461020f57806310f13a8c1461022b575b600080fd5b6101f960048036038101906101f49190613938565b61067d565b6040516102069190613980565b60405180910390f35b61022960048036038101906102249190613a36565b61068f565b005b61024560048036038101906102409190613aec565b610924565b005b610261600480360381019061025c9190613b81565b610a57565b60405161026e9190613c02565b60405180910390f35b610291600480360381019061028c9190613c53565b610eb2565b60405161029f929190613d32565b60405180910390f35b6102c260048036038101906102bd9190613d62565b611032565b005b6102de60048036038101906102d99190613a36565b611145565b005b6102fa60048036038101906102f59190613db5565b61123c565b005b61031660048036038101906103119190613db5565b611344565b6040516103239190613e03565b60405180910390f35b61034660048036038101906103419190613e1e565b611379565b6040516103539190613980565b60405180910390f35b61037660048036038101906103719190613e5e565b611408565b6040516103839190613f13565b60405180910390f35b6103a660048036038101906103a19190613db5565b611518565b6040516103b39190613f35565b60405180910390f35b6103d660048036038101906103d19190613f57565b611608565b005b6103f260048036038101906103ed9190613db5565b611720565b6040516103ff9190613f13565b60405180910390f35b610422600480360381019061041d9190613e5e565b611810565b005b61043e600480360381019061043991906140fb565b611907565b005b61045a600480360381019061045591906141c2565b611a56565b005b61047660048036038101906104719190614202565b611bc1565b005b610492600480360381019061048d919061428f565b611d2b565b60405161049f9190613f35565b60405180910390f35b6104c260048036038101906104bd91906142e2565b611e47565b6040516104cf9190613980565b60405180910390f35b6104f260048036038101906104ed919061438b565b611eed565b6040516104ff91906144e4565b60405180910390f35b610522600480360381019061051d9190613db5565b611f05565b60405161052f9190613f35565b60405180910390f35b610552600480360381019061054d9190613db5565b611ff5565b604051610560929190614515565b60405180910390f35b610583600480360381019061057e9190613a36565b6120a5565b005b61059f600480360381019061059a919061453e565b61226a565b005b6105bb60048036038101906105b69190613db5565b6122cc565b6040516105c891906145a1565b60405180910390f35b6105eb60048036038101906105e691906145bc565b6122f3565b6040516105f891906144e4565b60405180910390f35b61061b6004803603810190610616919061461c565b612309565b005b6106376004803603810190610632919061466f565b61249c565b6040516106449190613980565b60405180910390f35b61066760048036038101906106629190613c53565b612530565b6040516106749190613f35565b60405180910390f35b600061068882612632565b9050919050565b82610699816126ac565b6106d8576040517f08c379a00000000000000000000000000000000000000000000000000000000081526004016106cf90614721565b60405180910390fd5b6000806060806000806000808b815260200190815260200160002060009054906101000a900467ffffffffffffffff169050600061076460008b8b8080601f016020809104026020016040519081016040528093929190818152602001838380828437600081840152601f19601f8201169050808301925050505050505061285a90919063ffffffff16565b90505b61077081612884565b6108a65760008761ffff16036107cb57806040015196506107908161289a565b9450846040516020016107a3919061477d565b6040516020818303038152906040528051906020012092506107c4816128d1565b9350610898565b60006107d68261289a565b9050816040015161ffff168861ffff161415806108035750610801818761290a90919063ffffffff16565b155b156108965761086f8c878a8e8e8080601f016020809104026020016040519081016040528093929190818152602001838380828437600081840152601f19601f820116905080830192505050505050508b8c886020015161086491906147c3565b60008c51148a612931565b816040015197508160200151965080955085805190602001209350610893826128d1565b94505b505b6108a181612cb4565b610767565b50600084511115610918576109178a85888c8c8080601f016020809104026020016040519081016040528093929190818152602001838380828437600081840152601f19601f82011690508083019250505050505050898a8f8f905061090c91906147c3565b60008a511488612931565b5b50505050505050505050565b8461092e816126ac565b61096d576040517f08c379a000000000000000000000000000000000000000000000000000000000815260040161096490614721565b60405180910390fd5b8282600a60008060008b815260200190815260200160002060009054906101000a900467ffffffffffffffff1667ffffffffffffffff1667ffffffffffffffff168152602001908152602001600020600089815260200190815260200160002087876040516109dd929190614827565b908152602001604051809103902091826109f8929190614a57565b508484604051610a09929190614827565b6040518091039020867f448bc014f1536726cf8d54ff3d6481ed3cbc683c2591ca204274009afa09b1a187878787604051610a479493929190614b54565b60405180910390a3505050505050565b6000806007600080600087815260200190815260200160002060009054906101000a900467ffffffffffffffff1667ffffffffffffffff1667ffffffffffffffff16815260200190815260200160002060008581526020019081526020016000206000847bffffffffffffffffffffffffffffffffffffffffffffffffffffffff19167bffffffffffffffffffffffffffffffffffffffffffffffffffffffff1916815260200190815260200160002060009054906101000a900473ffffffffffffffffffffffffffffffffffffffff169050600073ffffffffffffffffffffffffffffffffffffffff168173ffffffffffffffffffffffffffffffffffffffff1614610b675780915050610eac565b6000610b7285611344565b9050600073ffffffffffffffffffffffffffffffffffffffff168173ffffffffffffffffffffffffffffffffffffffff1603610bb357600092505050610eac565b6000808273ffffffffffffffffffffffffffffffffffffffff167f01ffc9a700000000000000000000000000000000000000000000000000000000604051602401610bfe9190614b9e565b6040516020818303038152906040527f01ffc9a7000000000000000000000000000000000000000000000000000000007bffffffffffffffffffffffffffffffffffffffffffffffffffffffff19166020820180517bffffffffffffffffffffffffffffffffffffffffffffffffffffffff8381831617835250505050604051610c88919061477d565b600060405180830381855afa9150503d8060008114610cc3576040519150601f19603f3d011682016040523d82523d6000602084013e610cc8565b606091505b5091509150811580610cdb575060208151105b80610d295750600060f81b81601f81518110610cfa57610cf9614bb9565b5b602001015160f81c60f81b7effffffffffffffffffffffffffffffffffffffffffffffffffffffffffffff1916145b15610d3b576000945050505050610eac565b8273ffffffffffffffffffffffffffffffffffffffff1686604051602401610d639190614b9e565b6040516020818303038152906040527f01ffc9a7000000000000000000000000000000000000000000000000000000007bffffffffffffffffffffffffffffffffffffffffffffffffffffffff19166020820180517bffffffffffffffffffffffffffffffffffffffffffffffffffffffff8381831617835250505050604051610ded919061477d565b600060405180830381855afa9150503d8060008114610e28576040519150601f19603f3d011682016040523d82523d6000602084013e610e2d565b606091505b508092508193505050811580610e44575060208151105b80610e925750600060f81b81601f81518110610e6357610e62614bb9565b5b602001015160f81c60f81b7effffffffffffffffffffffffffffffffffffffffffffffffffffffffffffff1916145b15610ea4576000945050505050610eac565b829450505050505b92915050565b6000606060006001600080600088815260200190815260200160002060009054906101000a900467ffffffffffffffff1667ffffffffffffffff1667ffffffffffffffff168152602001908152602001600020600086815260200190815260200160002090506000600190505b84811161101257600085821614158015610f57575060008260008381526020019081526020016000208054610f539061487a565b9050115b156110065780826000838152602001908152602001600020808054610f7b9061487a565b80601f0160208091040260200160405190810160405280929190818152602001828054610fa79061487a565b8015610ff45780601f10610fc957610100808354040283529160200191610ff4565b820191906000526020600020905b815481529060010190602001808311610fd757829003601f168201915b5050505050905093509350505061102b565b600181901b9050610f1f565b5060006040518060200160405280600081525092509250505b9250929050565b8261103c816126ac565b61107b576040517f08c379a000000000000000000000000000000000000000000000000000000000815260040161107290614721565b60405180910390fd5b6040518060400160405280848152602001838152506009600080600088815260200190815260200160002060009054906101000a900467ffffffffffffffff1667ffffffffffffffff1667ffffffffffffffff16815260200190815260200160002060008681526020019081526020016000206000820151816000015560208201518160010155905050837f1d6f5e03d3f63eb58751986629a5439baee5079ff04f345becb66e23eb154e468484604051611137929190614515565b60405180910390a250505050565b8261114f816126ac565b61118e576040517f08c379a000000000000000000000000000000000000000000000000000000000815260040161118590614721565b60405180910390fd5b82826003600080600089815260200190815260200160002060009054906101000a900467ffffffffffffffff1667ffffffffffffffff1667ffffffffffffffff168152602001908152602001600020600087815260200190815260200160002091826111fb929190614c4e565b50837fe379c1624ed7e714cc0937528a32359d69d5281337765313dba4e081b72d7578848460405161122e929190614d4b565b60405180910390a250505050565b80611246816126ac565b611285576040517f08c379a000000000000000000000000000000000000000000000000000000000815260040161127c90614721565b60405180910390fd5b600080838152602001908152602001600020600081819054906101000a900467ffffffffffffffff16809291906112bb90614d6f565b91906101000a81548167ffffffffffffffff021916908367ffffffffffffffff16021790555050817fc6621ccb8f3f5a04bb6502154b2caf6adf5983fe76dfef1cfc9c42e3579db44460008085815260200190815260200160002060009054906101000a900467ffffffffffffffff1660405161133891906145a1565b60405180910390a25050565b60008061135283603c612530565b90506000815103611367576000915050611374565b61137081612dfa565b9150505b919050565b6000806006600080600087815260200190815260200160002060009054906101000a900467ffffffffffffffff1667ffffffffffffffff1667ffffffffffffffff1681526020019081526020016000206000858152602001908152602001600020600084815260200190815260200160002060009054906101000a900461ffff1661ffff161415905092915050565b6060600a600080600087815260200190815260200160002060009054906101000a900467ffffffffffffffff1667ffffffffffffffff1667ffffffffffffffff16815260200190815260200160002060008581526020019081526020016000208383604051611478929190614827565b908152602001604051809103902080546114919061487a565b80601f01602080910402602001604051908101604052809291908181526020018280546114bd9061487a565b801561150a5780601f106114df5761010080835404028352916020019161150a565b820191906000526020600020905b8154815290600101906020018083116114ed57829003601f168201915b505050505090509392505050565b60606004600080600085815260200190815260200160002060009054906101000a900467ffffffffffffffff1667ffffffffffffffff1667ffffffffffffffff168152602001908152602001600020600083815260200190815260200160002080546115839061487a565b80601f01602080910402602001604051908101604052809291908181526020018280546115af9061487a565b80156115fc5780601f106115d1576101008083540402835291602001916115fc565b820191906000526020600020905b8154815290600101906020018083116115df57829003601f168201915b50505050509050919050565b83611612816126ac565b611651576040517f08c379a000000000000000000000000000000000000000000000000000000000815260040161164890614721565b60405180910390fd5b60008460018661166191906147c3565b161461166c57600080fd5b8282600160008060008a815260200190815260200160002060009054906101000a900467ffffffffffffffff1667ffffffffffffffff1667ffffffffffffffff1681526020019081526020016000206000888152602001908152602001600020600087815260200190815260200160002091826116ea929190614c4e565b5083857faa121bbeef5f32f5961a2a28966e769023910fc9479059ee3495d4c1a696efe360405160405180910390a35050505050565b60606008600080600085815260200190815260200160002060009054906101000a900467ffffffffffffffff1667ffffffffffffffff1667ffffffffffffffff1681526020019081526020016000206000838152602001908152602001600020805461178b9061487a565b80601f01602080910402602001604051908101604052809291908181526020018280546117b79061487a565b80156118045780601f106117d957610100808354040283529160200191611804565b820191906000526020600020905b8154815290600101906020018083116117e757829003601f168201915b50505050509050919050565b8261181a816126ac565b611859576040517f08c379a000000000000000000000000000000000000000000000000000000000815260040161185090614721565b60405180910390fd5b82826008600080600089815260200190815260200160002060009054906101000a900467ffffffffffffffff1667ffffffffffffffff1667ffffffffffffffff168152602001908152602001600020600087815260200190815260200160002091826118c6929190614a57565b50837fb7d29e911041e8d9b843369e890bcb72c9388692ba48b65ac54e7214c4c348f784846040516118f9929190614d9f565b60405180910390a250505050565b82611911816126ac565b611950576040517f08c379a000000000000000000000000000000000000000000000000000000000815260040161194790614721565b60405180910390fd5b837f65412581168e88a1e60c6459d7f44ae83ad0832e670826c05a4e2476b57af7528484604051611982929190613d32565b60405180910390a2603c83036119d357837f52d7d861f09ab3d26239d492e8968629f95e9e318cf0b73bfddc441522a15fd26119bd84612dfa565b6040516119ca9190614e18565b60405180910390a25b816002600080600088815260200190815260200160002060009054906101000a900467ffffffffffffffff1667ffffffffffffffff1667ffffffffffffffff168152602001908152602001600020600086815260200190815260200160002060008581526020019081526020016000209081611a4f9190614e33565b5050505050565b8173ffffffffffffffffffffffffffffffffffffffff163373ffffffffffffffffffffffffffffffffffffffff1603611ac4576040517f08c379a0000000000000000000000000000000000000000000000000000000008152600401611abb90614f77565b60405180910390fd5b80600b60003373ffffffffffffffffffffffffffffffffffffffff1673ffffffffffffffffffffffffffffffffffffffff16815260200190815260200160002060008473ffffffffffffffffffffffffffffffffffffffff1673ffffffffffffffffffffffffffffffffffffffff16815260200190815260200160002060006101000a81548160ff0219169083151502179055508173ffffffffffffffffffffffffffffffffffffffff163373ffffffffffffffffffffffffffffffffffffffff167f17307eab39ab6107e8899845ad3d59bd9653f200f220920489ca2b5937696c3183604051611bb59190613980565b60405180910390a35050565b8173ffffffffffffffffffffffffffffffffffffffff163373ffffffffffffffffffffffffffffffffffffffff1603611c2f576040517f08c379a0000000000000000000000000000000000000000000000000000000008152600401611c2690614fe3565b60405180910390fd5b80600c60003373ffffffffffffffffffffffffffffffffffffffff1673ffffffffffffffffffffffffffffffffffffffff168152602001908152602001600020600085815260200190815260200160002060008473ffffffffffffffffffffffffffffffffffffffff1673ffffffffffffffffffffffffffffffffffffffff16815260200190815260200160002060006101000a81548160ff0219169083151502179055508015158273ffffffffffffffffffffffffffffffffffffffff16847ff0ddb3b04746704017f9aa8bd728fcc2c1d11675041205350018915f5e4750a033604051611d1e9190613c02565b60405180910390a4505050565b60606005600080600087815260200190815260200160002060009054906101000a900467ffffffffffffffff1667ffffffffffffffff1667ffffffffffffffff1681526020019081526020016000206000858152602001908152602001600020600084815260200190815260200160002060008361ffff1661ffff1681526020019081526020016000208054611dc09061487a565b80601f0160208091040260200160405190810160405280929190818152602001828054611dec9061487a565b8015611e395780601f10611e0e57610100808354040283529160200191611e39565b820191906000526020600020905b815481529060010190602001808311611e1c57829003601f168201915b505050505090509392505050565b6000600c60008573ffffffffffffffffffffffffffffffffffffffff1673ffffffffffffffffffffffffffffffffffffffff168152602001908152602001600020600084815260200190815260200160002060008373ffffffffffffffffffffffffffffffffffffffff1673ffffffffffffffffffffffffffffffffffffffff16815260200190815260200160002060009054906101000a900460ff1690509392505050565b6060611efd6000801b8484612e1d565b905092915050565b60606003600080600085815260200190815260200160002060009054906101000a900467ffffffffffffffff1667ffffffffffffffff1667ffffffffffffffff16815260200190815260200160002060008381526020019081526020016000208054611f709061487a565b80601f0160208091040260200160405190810160405280929190818152602001828054611f9c9061487a565b8015611fe95780601f10611fbe57610100808354040283529160200191611fe9565b820191906000526020600020905b815481529060010190602001808311611fcc57829003601f168201915b50505050509050919050565b600080600080600085815260200190815260200160002060009054906101000a900467ffffffffffffffff169050600960008267ffffffffffffffff1667ffffffffffffffff168152602001908152602001600020600085815260200190815260200160002060000154600960008367ffffffffffffffff1667ffffffffffffffff1681526020019081526020016000206000868152602001908152602001600020600101549250925050915091565b826120af816126ac565b6120ee576040517f08c379a00000000000000000000000000000000000000000000000000000000081526004016120e590614721565b60405180910390fd5b600080600086815260200190815260200160002060009054906101000a900467ffffffffffffffff1690506000600460008367ffffffffffffffff1667ffffffffffffffff1681526020019081526020016000206000878152602001908152602001600020805461215e9061487a565b80601f016020809104026020016040519081016040528092919081815260200182805461218a9061487a565b80156121d75780601f106121ac576101008083540402835291602001916121d7565b820191906000526020600020905b8154815290600101906020018083116121ba57829003601f168201915b505050505090508484600460008567ffffffffffffffff1667ffffffffffffffff16815260200190815260200160002060008981526020019081526020016000209182612225929190614c4e565b50857f8f15ed4b723ef428f250961da8315675b507046737e19319fc1a4d81bfe87f8582878760405161225a93929190615003565b60405180910390a2505050505050565b81612274816126ac565b6122b3576040517f08c379a00000000000000000000000000000000000000000000000000000000081526004016122aa90614721565b60405180910390fd5b6122c783603c6122c285612fec565b611907565b505050565b60006020528060005260406000206000915054906101000a900467ffffffffffffffff1681565b6060612300848484612e1d565b90509392505050565b82612313816126ac565b612352576040517f08c379a000000000000000000000000000000000000000000000000000000000815260040161234990614721565b60405180910390fd5b816007600080600088815260200190815260200160002060009054906101000a900467ffffffffffffffff1667ffffffffffffffff1667ffffffffffffffff16815260200190815260200160002060008681526020019081526020016000206000857bffffffffffffffffffffffffffffffffffffffffffffffffffffffff19167bffffffffffffffffffffffffffffffffffffffffffffffffffffffff1916815260200190815260200160002060006101000a81548173ffffffffffffffffffffffffffffffffffffffff021916908373ffffffffffffffffffffffffffffffffffffffff160217905550827bffffffffffffffffffffffffffffffffffffffffffffffffffffffff1916847f7c69f06bea0bdef565b709e93a147836b0063ba2dd89f02d0b7e8d931e6a6daa8460405161248e9190613c02565b60405180910390a350505050565b6000600b60008473ffffffffffffffffffffffffffffffffffffffff1673ffffffffffffffffffffffffffffffffffffffff16815260200190815260200160002060008373ffffffffffffffffffffffffffffffffffffffff1673ffffffffffffffffffffffffffffffffffffffff16815260200190815260200160002060009054906101000a900460ff16905092915050565b60606002600080600086815260200190815260200160002060009054906101000a900467ffffffffffffffff1667ffffffffffffffff1667ffffffffffffffff1681526020019081526020016000206000848152602001908152602001600020600083815260200190815260200160002080546125ac9061487a565b80601f01602080910402602001604051908101604052809291908181526020018280546125d89061487a565b80156126255780601f106125fa57610100808354040283529160200191612625565b820191906000526020600020905b81548152906001019060200180831161260857829003601f168201915b5050505050905092915050565b60007f59d1d43c000000000000000000000000000000000000000000000000000000007bffffffffffffffffffffffffffffffffffffffffffffffffffffffff1916827bffffffffffffffffffffffffffffffffffffffffffffffffffffffff191614806126a557506126a482613050565b5b9050919050565b60007f000000000000000000000000000000000000000000000000000000000000000073ffffffffffffffffffffffffffffffffffffffff163373ffffffffffffffffffffffffffffffffffffffff16148061275357507f000000000000000000000000000000000000000000000000000000000000000073ffffffffffffffffffffffffffffffffffffffff163373ffffffffffffffffffffffffffffffffffffffff16145b156127615760019050612855565b60007f000000000000000000000000000000000000000000000000000000000000000073ffffffffffffffffffffffffffffffffffffffff166302571be3846040518263ffffffff1660e01b81526004016127bc919061503c565b602060405180830381865afa1580156127d9573d6000803e3d6000fd5b505050506040513d601f19601f820116820180604052508101906127fd919061506c565b90503373ffffffffffffffffffffffffffffffffffffffff168173ffffffffffffffffffffffffffffffffffffffff16148061283f575061283e813361249c565b5b806128515750612850818433611e47565b5b9150505b919050565b612862613824565b828160000181905250818160c001818152505061287e81612cb4565b92915050565b6000816000015151826020015110159050919050565b60606128ca82602001516128b6846000015185602001516130ca565b84600001516131469092919063ffffffff16565b9050919050565b60606129038260a001518360a001518460c001516128ef91906147c3565b84600001516131469092919063ffffffff16565b9050919050565b600081518351148015612929575061292883600084600087516131db565b5b905092915050565b60008780519060200120905060006129548686896131469092919063ffffffff16565b90508315612b02576000600560008567ffffffffffffffff1667ffffffffffffffff16815260200190815260200160002060008c8152602001908152602001600020600084815260200190815260200160002060008a61ffff1661ffff16815260200190815260200160002080546129cb9061487a565b905014612a5557600660008467ffffffffffffffff1667ffffffffffffffff16815260200190815260200160002060008b81526020019081526020016000206000838152602001908152602001600020600081819054906101000a900461ffff1680929190612a3990615099565b91906101000a81548161ffff021916908361ffff160217905550505b600560008467ffffffffffffffff1667ffffffffffffffff16815260200190815260200160002060008b8152602001908152602001600020600083815260200190815260200160002060008961ffff1661ffff1681526020019081526020016000206000612ac3919061386f565b897f03528ed0c2a3ebc993b12ce3c16bb382f9c7d88ef7d8a1bf290eaf35955a12078a8a604051612af59291906150d1565b60405180910390a2612ca8565b6000600560008567ffffffffffffffff1667ffffffffffffffff16815260200190815260200160002060008c8152602001908152602001600020600084815260200190815260200160002060008a61ffff1661ffff1681526020019081526020016000208054612b719061487a565b905003612bfb57600660008467ffffffffffffffff1667ffffffffffffffff16815260200190815260200160002060008b81526020019081526020016000206000838152602001908152602001600020600081819054906101000a900461ffff1680929190612bdf90615101565b91906101000a81548161ffff021916908361ffff160217905550505b80600560008567ffffffffffffffff1667ffffffffffffffff16815260200190815260200160002060008c8152602001908152602001600020600084815260200190815260200160002060008a61ffff1661ffff1681526020019081526020016000209081612c6a9190614e33565b50897f52a608b3303a48862d07a73d82fa221318c0027fbbcfb1b2329bface3f19ff2b8a8a84604051612c9f9392919061512b565b60405180910390a25b50505050505050505050565b8060c0015181602001818152505080600001515181602001511015612df7576000612ce7826000015183602001516130ca565b8260200151612cf69190615170565b9050612d0f8183600001516131ff90919063ffffffff16565b826040019061ffff16908161ffff1681525050600281612d2f9190615170565b9050612d488183600001516131ff90919063ffffffff16565b826060019061ffff16908161ffff1681525050600281612d689190615170565b9050612d8181836000015161322e90919063ffffffff16565b826080019063ffffffff16908163ffffffff1681525050600481612da59190615170565b90506000612dc08284600001516131ff90919063ffffffff16565b61ffff169050600282612dd39190615170565b9150818360a00181815250508082612deb9190615170565b8360c001818152505050505b50565b60006014825114612e0a57600080fd5b600c6101000a6020830151049050919050565b60608282905067ffffffffffffffff811115612e3c57612e3b613fd0565b5b604051908082528060200260200182016040528015612e6f57816020015b6060815260200190600190039081612e5a5790505b50905060005b83839050811015612fe4576000801b8514612f14576000848483818110612e9f57612e9e614bb9565b5b9050602002810190612eb191906151b3565b600490602492612ec393929190615220565b90612ece919061525b565b9050858114612f12576040517f08c379a0000000000000000000000000000000000000000000000000000000008152600401612f099061532c565b60405180910390fd5b505b6000803073ffffffffffffffffffffffffffffffffffffffff16868685818110612f4157612f40614bb9565b5b9050602002810190612f5391906151b3565b604051612f61929190615371565b600060405180830381855af49150503d8060008114612f9c576040519150601f19603f3d011682016040523d82523d6000602084013e612fa1565b606091505b509150915081612fb057600080fd5b80848481518110612fc457612fc3614bb9565b5b602002602001018190525050508080612fdc9061538a565b915050612e75565b509392505050565b6060601467ffffffffffffffff81111561300957613008613fd0565b5b6040519080825280601f01601f19166020018201604052801561303b5781602001600182028036833780820191505090505b509050600c6101000a82026020820152919050565b60007fc8690233000000000000000000000000000000000000000000000000000000007bffffffffffffffffffffffffffffffffffffffffffffffffffffffff1916827bffffffffffffffffffffffffffffffffffffffffffffffffffffffff191614806130c357506130c28261325f565b5b9050919050565b6000808290505b60011561313157835181106130e9576130e86153d2565b5b60006130fe82866132d990919063ffffffff16565b60ff1690506001816131109190615170565b8261311b9190615170565b91506000810361312b5750613131565b506130d1565b828161313d91906147c3565b91505092915050565b6060835182846131569190615170565b111561316157600080fd5b60008267ffffffffffffffff81111561317d5761317c613fd0565b5b6040519080825280601f01601f1916602001820160405280156131af5781602001600182028036833780820191505090505b50905060008060208301915085602088010190506131ce828287613304565b8293505050509392505050565b60006131e8848484613368565b6131f3878785613368565b14905095945050505050565b600082516002836132109190615170565b111561321b57600080fd5b61ffff8260028501015116905092915050565b6000825160048361323f9190615170565b111561324a57600080fd5b63ffffffff8260048501015116905092915050565b60007f691f3431000000000000000000000000000000000000000000000000000000007bffffffffffffffffffffffffffffffffffffffffffffffffffffffff1916827bffffffffffffffffffffffffffffffffffffffffffffffffffffffff191614806132d257506132d182613394565b5b9050919050565b60008282815181106132ee576132ed614bb9565b5b602001015160f81c60f81b60f81c905092915050565b5b60208110613343578151835260208361331e9190615170565b925060208261332d9190615170565b915060208161333c91906147c3565b9050613305565b60006001826020036101000a0390508019835116818551168181178652505050505050565b6000835182846133789190615170565b111561338357600080fd5b818360208601012090509392505050565b60007f124a319c000000000000000000000000000000000000000000000000000000007bffffffffffffffffffffffffffffffffffffffffffffffffffffffff1916827bffffffffffffffffffffffffffffffffffffffffffffffffffffffff1916148061340757506134068261340e565b5b9050919050565b60007fa8fa5682000000000000000000000000000000000000000000000000000000007bffffffffffffffffffffffffffffffffffffffffffffffffffffffff1916827bffffffffffffffffffffffffffffffffffffffffffffffffffffffff191614806134d957507f5c98042b000000000000000000000000000000000000000000000000000000007bffffffffffffffffffffffffffffffffffffffffffffffffffffffff1916827bffffffffffffffffffffffffffffffffffffffffffffffffffffffff1916145b806134e957506134e8826134f0565b5b9050919050565b60007fbc1c58d1000000000000000000000000000000000000000000000000000000007bffffffffffffffffffffffffffffffffffffffffffffffffffffffff1916827bffffffffffffffffffffffffffffffffffffffffffffffffffffffff1916148061356357506135628261356a565b5b9050919050565b60007f3b3b57de000000000000000000000000000000000000000000000000000000007bffffffffffffffffffffffffffffffffffffffffffffffffffffffff1916827bffffffffffffffffffffffffffffffffffffffffffffffffffffffff1916148061363557507ff1cb7e06000000000000000000000000000000000000000000000000000000007bffffffffffffffffffffffffffffffffffffffffffffffffffffffff1916827bffffffffffffffffffffffffffffffffffffffffffffffffffffffff1916145b8061364557506136448261364c565b5b9050919050565b60007f2203ab56000000000000000000000000000000000000000000000000000000007bffffffffffffffffffffffffffffffffffffffffffffffffffffffff1916827bffffffffffffffffffffffffffffffffffffffffffffffffffffffff191614806136bf57506136be826136c6565b5b9050919050565b60007fd700ff33000000000000000000000000000000000000000000000000000000007bffffffffffffffffffffffffffffffffffffffffffffffffffffffff1916827bffffffffffffffffffffffffffffffffffffffffffffffffffffffff19161480613739575061373882613740565b5b9050919050565b60007f4fbf0433000000000000000000000000000000000000000000000000000000007bffffffffffffffffffffffffffffffffffffffffffffffffffffffff1916827bffffffffffffffffffffffffffffffffffffffffffffffffffffffff191614806137b357506137b2826137ba565b5b9050919050565b60007f01ffc9a7000000000000000000000000000000000000000000000000000000007bffffffffffffffffffffffffffffffffffffffffffffffffffffffff1916827bffffffffffffffffffffffffffffffffffffffffffffffffffffffff1916149050919050565b6040518060e001604052806060815260200160008152602001600061ffff168152602001600061ffff168152602001600063ffffffff16815260200160008152602001600081525090565b50805461387b9061487a565b6000825580601f1061388d57506138ac565b601f0160209004906000526020600020908101906138ab91906138af565b5b50565b5b808211156138c85760008160009055506001016138b0565b5090565b6000604051905090565b600080fd5b600080fd5b60007fffffffff0000000000000000000000000000000000000000000000000000000082169050919050565b613915816138e0565b811461392057600080fd5b50565b6000813590506139328161390c565b92915050565b60006020828403121561394e5761394d6138d6565b5b600061395c84828501613923565b91505092915050565b60008115159050919050565b61397a81613965565b82525050565b60006020820190506139956000830184613971565b92915050565b6000819050919050565b6139ae8161399b565b81146139b957600080fd5b50565b6000813590506139cb816139a5565b92915050565b600080fd5b600080fd5b600080fd5b60008083601f8401126139f6576139f56139d1565b5b8235905067ffffffffffffffff811115613a1357613a126139d6565b5b602083019150836001820283011115613a2f57613a2e6139db565b5b9250929050565b600080600060408486031215613a4f57613a4e6138d6565b5b6000613a5d868287016139bc565b935050602084013567ffffffffffffffff811115613a7e57613a7d6138db565b5b613a8a868287016139e0565b92509250509250925092565b60008083601f840112613aac57613aab6139d1565b5b8235905067ffffffffffffffff811115613ac957613ac86139d6565b5b602083019150836001820283011115613ae557613ae46139db565b5b9250929050565b600080600080600060608688031215613b0857613b076138d6565b5b6000613b16888289016139bc565b955050602086013567ffffffffffffffff811115613b3757613b366138db565b5b613b4388828901613a96565b9450945050604086013567ffffffffffffffff811115613b6657613b656138db565b5b613b7288828901613a96565b92509250509295509295909350565b60008060408385031215613b9857613b976138d6565b5b6000613ba6858286016139bc565b9250506020613bb785828601613923565b9150509250929050565b600073ffffffffffffffffffffffffffffffffffffffff82169050919050565b6000613bec82613bc1565b9050919050565b613bfc81613be1565b82525050565b6000602082019050613c176000830184613bf3565b92915050565b6000819050919050565b613c3081613c1d565b8114613c3b57600080fd5b50565b600081359050613c4d81613c27565b92915050565b60008060408385031215613c6a57613c696138d6565b5b6000613c78858286016139bc565b9250506020613c8985828601613c3e565b9150509250929050565b613c9c81613c1d565b82525050565b600081519050919050565b600082825260208201905092915050565b60005b83811015613cdc578082015181840152602081019050613cc1565b60008484015250505050565b6000601f19601f8301169050919050565b6000613d0482613ca2565b613d0e8185613cad565b9350613d1e818560208601613cbe565b613d2781613ce8565b840191505092915050565b6000604082019050613d476000830185613c93565b8181036020830152613d598184613cf9565b90509392505050565b600080600060608486031215613d7b57613d7a6138d6565b5b6000613d89868287016139bc565b9350506020613d9a868287016139bc565b9250506040613dab868287016139bc565b9150509250925092565b600060208284031215613dcb57613dca6138d6565b5b6000613dd9848285016139bc565b91505092915050565b6000613ded82613bc1565b9050919050565b613dfd81613de2565b82525050565b6000602082019050613e186000830184613df4565b92915050565b60008060408385031215613e3557613e346138d6565b5b6000613e43858286016139bc565b9250506020613e54858286016139bc565b9150509250929050565b600080600060408486031215613e7757613e766138d6565b5b6000613e85868287016139bc565b935050602084013567ffffffffffffffff811115613ea657613ea56138db565b5b613eb286828701613a96565b92509250509250925092565b600081519050919050565b600082825260208201905092915050565b6000613ee582613ebe565b613eef8185613ec9565b9350613eff818560208601613cbe565b613f0881613ce8565b840191505092915050565b60006020820190508181036000830152613f2d8184613eda565b905092915050565b60006020820190508181036000830152613f4f8184613cf9565b905092915050565b60008060008060608587031215613f7157613f706138d6565b5b6000613f7f878288016139bc565b9450506020613f9087828801613c3e565b935050604085013567ffffffffffffffff811115613fb157613fb06138db565b5b613fbd878288016139e0565b925092505092959194509250565b600080fd5b7f4e487b7100000000000000000000000000000000000000000000000000000000600052604160045260246000fd5b61400882613ce8565b810181811067ffffffffffffffff8211171561402757614026613fd0565b5b80604052505050565b600061403a6138cc565b90506140468282613fff565b919050565b600067ffffffffffffffff82111561406657614065613fd0565b5b61406f82613ce8565b9050602081019050919050565b82818337600083830152505050565b600061409e6140998461404b565b614030565b9050828152602081018484840111156140ba576140b9613fcb565b5b6140c584828561407c565b509392505050565b600082601f8301126140e2576140e16139d1565b5b81356140f284826020860161408b565b91505092915050565b600080600060608486031215614114576141136138d6565b5b6000614122868287016139bc565b935050602061413386828701613c3e565b925050604084013567ffffffffffffffff811115614154576141536138db565b5b614160868287016140cd565b9150509250925092565b61417381613be1565b811461417e57600080fd5b50565b6000813590506141908161416a565b92915050565b61419f81613965565b81146141aa57600080fd5b50565b6000813590506141bc81614196565b92915050565b600080604083850312156141d9576141d86138d6565b5b60006141e785828601614181565b92505060206141f8858286016141ad565b9150509250929050565b60008060006060848603121561421b5761421a6138d6565b5b6000614229868287016139bc565b935050602061423a86828701614181565b925050604061424b868287016141ad565b9150509250925092565b600061ffff82169050919050565b61426c81614255565b811461427757600080fd5b50565b60008135905061428981614263565b92915050565b6000806000606084860312156142a8576142a76138d6565b5b60006142b6868287016139bc565b93505060206142c7868287016139bc565b92505060406142d88682870161427a565b9150509250925092565b6000806000606084860312156142fb576142fa6138d6565b5b600061430986828701614181565b935050602061431a868287016139bc565b925050604061432b86828701614181565b9150509250925092565b60008083601f84011261434b5761434a6139d1565b5b8235905067ffffffffffffffff811115614368576143676139d6565b5b602083019150836020820283011115614384576143836139db565b5b9250929050565b600080602083850312156143a2576143a16138d6565b5b600083013567ffffffffffffffff8111156143c0576143bf6138db565b5b6143cc85828601614335565b92509250509250929050565b600081519050919050565b600082825260208201905092915050565b6000819050602082019050919050565b600082825260208201905092915050565b600061442082613ca2565b61442a8185614404565b935061443a818560208601613cbe565b61444381613ce8565b840191505092915050565b600061445a8383614415565b905092915050565b6000602082019050919050565b600061447a826143d8565b61448481856143e3565b935083602082028501614496856143f4565b8060005b858110156144d257848403895281516144b3858261444e565b94506144be83614462565b925060208a0199505060018101905061449a565b50829750879550505050505092915050565b600060208201905081810360008301526144fe818461446f565b905092915050565b61450f8161399b565b82525050565b600060408201905061452a6000830185614506565b6145376020830184614506565b9392505050565b60008060408385031215614555576145546138d6565b5b6000614563858286016139bc565b925050602061457485828601614181565b9150509250929050565b600067ffffffffffffffff82169050919050565b61459b8161457e565b82525050565b60006020820190506145b66000830184614592565b92915050565b6000806000604084860312156145d5576145d46138d6565b5b60006145e3868287016139bc565b935050602084013567ffffffffffffffff811115614604576146036138db565b5b61461086828701614335565b92509250509250925092565b600080600060608486031215614635576146346138d6565b5b6000614643868287016139bc565b935050602061465486828701613923565b925050604061466586828701614181565b9150509250925092565b60008060408385031215614686576146856138d6565b5b600061469485828601614181565b92505060206146a585828601614181565b9150509250929050565b7f4e6f7420617574686f72697a656420746f20616363657373205265736f6c766560008201527f7242617365000000000000000000000000000000000000000000000000000000602082015250565b600061470b602583613ec9565b9150614716826146af565b604082019050919050565b6000602082019050818103600083015261473a816146fe565b9050919050565b600081905092915050565b600061475782613ca2565b6147618185614741565b9350614771818560208601613cbe565b80840191505092915050565b6000614789828461474c565b915081905092915050565b7f4e487b7100000000000000000000000000000000000000000000000000000000600052601160045260246000fd5b60006147ce82613c1d565b91506147d983613c1d565b92508282039050818111156147f1576147f0614794565b5b92915050565b600081905092915050565b600061480e83856147f7565b935061481b83858461407c565b82840190509392505050565b6000614834828486614802565b91508190509392505050565b600082905092915050565b7f4e487b7100000000000000000000000000000000000000000000000000000000600052602260045260246000fd5b6000600282049050600182168061489257607f821691505b6020821081036148a5576148a461484b565b5b50919050565b60008190508160005260206000209050919050565b60006020601f8301049050919050565b600082821b905092915050565b60006008830261490d7fffffffffffffffffffffffffffffffffffffffffffffffffffffffffffffffff826148d0565b61491786836148d0565b95508019841693508086168417925050509392505050565b6000819050919050565b600061495461494f61494a84613c1d565b61492f565b613c1d565b9050919050565b6000819050919050565b61496e83614939565b61498261497a8261495b565b8484546148dd565b825550505050565b600090565b61499761498a565b6149a2818484614965565b505050565b5b818110156149c6576149bb60008261498f565b6001810190506149a8565b5050565b601f821115614a0b576149dc816148ab565b6149e5846148c0565b810160208510156149f4578190505b614a08614a00856148c0565b8301826149a7565b50505b505050565b600082821c905092915050565b6000614a2e60001984600802614a10565b1980831691505092915050565b6000614a478383614a1d565b9150826002028217905092915050565b614a618383614840565b67ffffffffffffffff811115614a7a57614a79613fd0565b5b614a84825461487a565b614a8f8282856149ca565b6000601f831160018114614abe5760008415614aac578287013590505b614ab68582614a3b565b865550614b1e565b601f198416614acc866148ab565b60005b82811015614af457848901358255600182019150602085019450602081019050614acf565b86831015614b115784890135614b0d601f891682614a1d565b8355505b6001600288020188555050505b50505050505050565b6000614b338385613ec9565b9350614b4083858461407c565b614b4983613ce8565b840190509392505050565b60006040820190508181036000830152614b6f818688614b27565b90508181036020830152614b84818486614b27565b905095945050505050565b614b98816138e0565b82525050565b6000602082019050614bb36000830184614b8f565b92915050565b7f4e487b7100000000000000000000000000000000000000000000000000000000600052603260045260246000fd5b600082905092915050565b60008190508160005260206000209050919050565b601f821115614c4957614c1a81614bf3565b614c23846148c0565b81016020851015614c32578190505b614c46614c3e856148c0565b8301826149a7565b50505b505050565b614c588383614be8565b67ffffffffffffffff811115614c7157614c70613fd0565b5b614c7b825461487a565b614c86828285614c08565b6000601f831160018114614cb55760008415614ca3578287013590505b614cad8582614a3b565b865550614d15565b601f198416614cc386614bf3565b60005b82811015614ceb57848901358255600182019150602085019450602081019050614cc6565b86831015614d085784890135614d04601f891682614a1d565b8355505b6001600288020188555050505b50505050505050565b6000614d2a8385613cad565b9350614d3783858461407c565b614d4083613ce8565b840190509392505050565b60006020820190508181036000830152614d66818486614d1e565b90509392505050565b6000614d7a8261457e565b915067ffffffffffffffff8203614d9457614d93614794565b5b600182019050919050565b60006020820190508181036000830152614dba818486614b27565b90509392505050565b6000614dde614dd9614dd484613bc1565b61492f565b613bc1565b9050919050565b6000614df082614dc3565b9050919050565b6000614e0282614de5565b9050919050565b614e1281614df7565b82525050565b6000602082019050614e2d6000830184614e09565b92915050565b614e3c82613ca2565b67ffffffffffffffff811115614e5557614e54613fd0565b5b614e5f825461487a565b614e6a828285614c08565b600060209050601f831160018114614e9d5760008415614e8b578287015190505b614e958582614a3b565b865550614efd565b601f198416614eab86614bf3565b60005b82811015614ed357848901518255600182019150602085019450602081019050614eae565b86831015614ef05784890151614eec601f891682614a1d565b8355505b6001600288020188555050505b505050505050565b7f455243313135353a2073657474696e6720617070726f76616c2073746174757360008201527f20666f722073656c660000000000000000000000000000000000000000000000602082015250565b6000614f61602983613ec9565b9150614f6c82614f05565b604082019050919050565b60006020820190508181036000830152614f9081614f54565b9050919050565b7f53657474696e672064656c65676174652073746174757320666f722073656c66600082015250565b6000614fcd602083613ec9565b9150614fd882614f97565b602082019050919050565b60006020820190508181036000830152614ffc81614fc0565b9050919050565b6000604082019050818103600083015261501d8186613cf9565b90508181036020830152615032818486614d1e565b9050949350505050565b60006020820190506150516000830184614506565b92915050565b6000815190506150668161416a565b92915050565b600060208284031215615082576150816138d6565b5b600061509084828501615057565b91505092915050565b60006150a482614255565b9150600082036150b7576150b6614794565b5b600182039050919050565b6150cb81614255565b82525050565b600060408201905081810360008301526150eb8185613cf9565b90506150fa60208301846150c2565b9392505050565b600061510c82614255565b915061ffff82036151205761511f614794565b5b600182019050919050565b600060608201905081810360008301526151458186613cf9565b905061515460208301856150c2565b81810360408301526151668184613cf9565b9050949350505050565b600061517b82613c1d565b915061518683613c1d565b925082820190508082111561519e5761519d614794565b5b92915050565b600080fd5b600080fd5b600080fd5b600080833560016020038436030381126151d0576151cf6151a4565b5b80840192508235915067ffffffffffffffff8211156151f2576151f16151a9565b5b60208301925060018202360383131561520e5761520d6151ae565b5b509250929050565b600080fd5b600080fd5b6000808585111561523457615233615216565b5b838611156152455761524461521b565b5b6001850283019150848603905094509492505050565b60006152678383614be8565b82615272813561399b565b925060208210156152b2576152ad7fffffffffffffffffffffffffffffffffffffffffffffffffffffffffffffffff836020036008026148d0565b831692505b505092915050565b7f6d756c746963616c6c3a20416c6c207265636f726473206d757374206861766560008201527f2061206d61746368696e67206e616d6568617368000000000000000000000000602082015250565b6000615316603483613ec9565b9150615321826152ba565b604082019050919050565b6000602082019050818103600083015261534581615309565b9050919050565b60006153588385614741565b935061536583858461407c565b82840190509392505050565b600061537e82848661534c565b91508190509392505050565b600061539582613c1d565b91507fffffffffffffffffffffffffffffffffffffffffffffffffffffffffffffffff82036153c7576153c6614794565b5b600182019050919050565b7f4e487b7100000000000000000000000000000000000000000000000000000000600052600160045260246000fdfea2646970667358221220391ecf83643f953a554ee101f32fb9f7847d2df91d4cb3faa923740e110081a164736f6c63430008140033",
  "linkReferences": {},
  "deployedLinkReferences": {}
}