{
  "_format": "hh-sol-artifact-1",
  "contractName": "TestRegistrar",
  "sourceName": "contracts/registry/TestRegister.sol",
  "abi": [
    {
      "inputs": [
        {
          "internalType": "contract ENS",
          "name": "ensAddr",
          "type": "address"
        },
        {
          "internalType": "bytes32",
          "name": "node",
          "type": "bytes32"
        }
      ],
      "stateMutability": "nonpayable",
      "type": "constructor"
    },
    {
      "inputs": [],
      "name": "ens",
      "outputs": [
        {
          "internalType": "contract ENS",
          "name": "",
          "type": "address"
        }
      ],
      "stateMutability": "view",
      "type": "function"
    },
    {
      "inputs": [
        {
          "internalType": "bytes32",
          "name": "",
          "type": "bytes32"
        }
      ],
      "name": "expiryTimes",
      "outputs": [
        {
          "internalType": "uint256",
          "name": "",
          "type": "uint256"
        }
      ],
      "stateMutability": "view",
      "type": "function"
    },
    {
      "inputs": [
        {
          "internalType": "bytes32",
          "name": "label",
          "type": "bytes32"
        },
        {
          "internalType": "address",
          "name": "owner",
          "type": "address"
        }
      ],
      "name": "register",
      "outputs": [],
      "stateMutability": "nonpayable",
      "type": "function"
    },
    {
      "inputs": [],
      "name": "rootNode",
      "outputs": [
        {
          "internalType": "bytes32",
          "name": "",
          "type": "bytes32"
        }
      ],
      "stateMutability": "view",
      "type": "function"
    }
  ],
  "bytecode": "0x608060405234801561001057600080fd5b506040516106803803806106808339818101604052810190610032919061012b565b816000806101000a81548173ffffffffffffffffffffffffffffffffffffffff021916908373ffffffffffffffffffffffffffffffffffffffff16021790555080600181905550505061016b565b600080fd5b600073ffffffffffffffffffffffffffffffffffffffff82169050919050565b60006100b082610085565b9050919050565b60006100c2826100a5565b9050919050565b6100d2816100b7565b81146100dd57600080fd5b50565b6000815190506100ef816100c9565b92915050565b6000819050919050565b610108816100f5565b811461011357600080fd5b50565b600081519050610125816100ff565b92915050565b6000806040838503121561014257610141610080565b5b6000610150858286016100e0565b925050602061016185828601610116565b9150509250929050565b6105068061017a6000396000f3fe608060405234801561001057600080fd5b506004361061004c5760003560e01c80633f15457f14610051578063af9f26e41461006f578063d22057a91461009f578063faff50a8146100bb575b600080fd5b6100596100d9565b6040516100669190610286565b60405180910390f35b610089600480360381019061008491906102dc565b6100fd565b6040516100969190610322565b60405180910390f35b6100b960048036038101906100b4919061037b565b610115565b005b6100c3610201565b6040516100d091906103ca565b60405180910390f35b60008054906101000a900473ffffffffffffffffffffffffffffffffffffffff1681565b60026020528060005260406000206000915090505481565b4260026000848152602001908152602001600020541061013457600080fd5b6224ea00426101439190610414565b600260008481526020019081526020016000208190555060008054906101000a900473ffffffffffffffffffffffffffffffffffffffff1673ffffffffffffffffffffffffffffffffffffffff166306ab592360015484846040518463ffffffff1660e01b81526004016101b993929190610457565b6020604051808303816000875af11580156101d8573d6000803e3d6000fd5b505050506040513d601f19601f820116820180604052508101906101fc91906104a3565b505050565b60015481565b600073ffffffffffffffffffffffffffffffffffffffff82169050919050565b6000819050919050565b600061024c61024761024284610207565b610227565b610207565b9050919050565b600061025e82610231565b9050919050565b600061027082610253565b9050919050565b61028081610265565b82525050565b600060208201905061029b6000830184610277565b92915050565b600080fd5b6000819050919050565b6102b9816102a6565b81146102c457600080fd5b50565b6000813590506102d6816102b0565b92915050565b6000602082840312156102f2576102f16102a1565b5b6000610300848285016102c7565b91505092915050565b6000819050919050565b61031c81610309565b82525050565b60006020820190506103376000830184610313565b92915050565b600061034882610207565b9050919050565b6103588161033d565b811461036357600080fd5b50565b6000813590506103758161034f565b92915050565b60008060408385031215610392576103916102a1565b5b60006103a0858286016102c7565b92505060206103b185828601610366565b9150509250929050565b6103c4816102a6565b82525050565b60006020820190506103df60008301846103bb565b92915050565b7f4e487b7100000000000000000000000000000000000000000000000000000000600052601160045260246000fd5b600061041f82610309565b915061042a83610309565b9250828201905080821115610442576104416103e5565b5b92915050565b6104518161033d565b82525050565b600060608201905061046c60008301866103bb565b61047960208301856103bb565b6104866040830184610448565b949350505050565b60008151905061049d816102b0565b92915050565b6000602082840312156104b9576104b86102a1565b5b60006104c78482850161048e565b9150509291505056fea2646970667358221220561471a80f4fbecc1ec1513bf377d7b031b61187a7e019c6da6bffa9c7ed931a64736f6c63430008140033",
  "linkReferences": {},
  "deployedLinkReferences": {}
}