{
  "_format": "hh-sol-artifact-1",
  "contractName": "FNSDeployer",
  "sourceName": "contracts/FNSDeployer.sol",
  "abi": [
    {
      "inputs": [],
      "stateMutability": "nonpayable",
      "type": "constructor"
    },
    {
      "inputs": [],
      "name": "ADDR_LABEL",
      "outputs": [
        {
          "internalType": "bytes32",
          "name": "",
          "type": "bytes32"
        }
      ],
      "stateMutability": "view",
      "type": "function"
    },
    {
      "inputs": [],
      "name": "RESOLVER_LABEL",
      "outputs": [
        {
          "internalType": "bytes32",
          "name": "",
          "type": "bytes32"
        }
      ],
      "stateMutability": "view",
      "type": "function"
    },
    {
      "inputs": [],
      "name": "REVERSE_REGISTRAR_LABEL",
      "outputs": [
        {
          "internalType": "bytes32",
          "name": "",
          "type": "bytes32"
        }
      ],
      "stateMutability": "view",
      "type": "function"
    },
    {
      "inputs": [],
      "name": "TLD_LABEL",
      "outputs": [
        {
          "internalType": "bytes32",
          "name": "",
          "type": "bytes32"
        }
      ],
      "stateMutability": "view",
      "type": "function"
    },
    {
      "inputs": [],
      "name": "baseRegistrarImplementation",
      "outputs": [
        {
          "internalType": "contract BaseRegistrarImplementation",
          "name": "",
          "type": "address"
        }
      ],
      "stateMutability": "view",
      "type": "function"
    },
    {
      "inputs": [],
      "name": "ensRegistry",
      "outputs": [
        {
          "internalType": "contract ENSRegistry",
          "name": "",
          "type": "address"
        }
      ],
      "stateMutability": "view",
      "type": "function"
    },
    {
      "inputs": [],
      "name": "ensRegistryWithFallback",
      "outputs": [
        {
          "internalType": "contract ENSRegistryWithFallback",
          "name": "",
          "type": "address"
        }
      ],
      "stateMutability": "view",
      "type": "function"
    },
    {
      "inputs": [],
      "name": "fifsRegistrar",
      "outputs": [
        {
          "internalType": "contract FIFSRegistrar",
          "name": "",
          "type": "address"
        }
      ],
      "stateMutability": "view",
      "type": "function"
    },
    {
      "inputs": [
        {
          "internalType": "bytes32",
          "name": "node",
          "type": "bytes32"
        },
        {
          "internalType": "bytes32",
          "name": "label",
          "type": "bytes32"
        }
      ],
      "name": "namehash",
      "outputs": [
        {
          "internalType": "bytes32",
          "name": "",
          "type": "bytes32"
        }
      ],
      "stateMutability": "pure",
      "type": "function"
    },
    {
      "inputs": [],
      "name": "publicResolver",
      "outputs": [
        {
          "internalType": "contract PublicResolver",
          "name": "",
          "type": "address"
        }
      ],
      "stateMutability": "view",
      "type": "function"
    },
    {
      "inputs": [],
      "name": "reverseRegistrar",
      "outputs": [
        {
          "internalType": "contract ReverseRegistrar",
          "name": "",
          "type": "address"
        }
      ],
      "stateMutability": "view",
      "type": "function"
    },
    {
      "inputs": [],
      "name": "stablePriceOracle",
      "outputs": [
        {
          "internalType": "contract StablePriceOracle",
          "name": "",
          "type": "address"
        }
      ],
      "stateMutability": "view",
      "type": "function"
    },
    {
      "inputs": [],
      "name": "zkfRegistrarController",
      "outputs": [
        {
          "internalType": "contract ZKFRegistrarController",
          "name": "",
          "type": "address"
        }
      ],
      "stateMutability": "view",
      "type": "function"
    }
  ],
  "bytecode": "0x60806040523480156200001157600080fd5b50604051620000209062000c85565b604051809103906000f0801580156200003d573d6000803e3d6000fd5b506000806101000a81548173ffffffffffffffffffffffffffffffffffffffff021916908373ffffffffffffffffffffffffffffffffffffffff16021790555060008054906101000a900473ffffffffffffffffffffffffffffffffffffffff16604051620000ac9062000c93565b620000b8919062000d80565b604051809103906000f080158015620000d5573d6000803e3d6000fd5b50600160006101000a81548173ffffffffffffffffffffffffffffffffffffffff021916908373ffffffffffffffffffffffffffffffffffffffff160217905550600160009054906101000a900473ffffffffffffffffffffffffffffffffffffffff1673ffffffffffffffffffffffffffffffffffffffff166306ab59236000801b7fdec08c9dbbdd0890e300eb5062089b2d4b1c40e3673bbccb5423f7b37dcf9a9c336040518463ffffffff1660e01b81526004016200019a9392919062000ddd565b6020604051808303816000875af1158015620001ba573d6000803e3d6000fd5b505050506040513d601f19601f82011682018060405250810190620001e0919062000e50565b50600160009054906101000a900473ffffffffffffffffffffffffffffffffffffffff1673ffffffffffffffffffffffffffffffffffffffff166306ab59236000801b7f329539a1d23af1810c48a07fe7fc66a3b34fbc8b37e9b3cdb97bb88ceab7e4bf336040518463ffffffff1660e01b8152600401620002659392919062000ddd565b6020604051808303816000875af115801562000285573d6000803e3d6000fd5b505050506040513d601f19601f82011682018060405250810190620002ab919062000e50565b50600160009054906101000a900473ffffffffffffffffffffffffffffffffffffffff16620003046000801b7f99399a6fdf00305eb312ceca5cb6971d481638860700d269d8e5056c8ccf8af562000c5060201b60201c565b604051620003129062000ca1565b6200031f92919062000ea7565b604051809103906000f0801580156200033c573d6000803e3d6000fd5b50600260006101000a81548173ffffffffffffffffffffffffffffffffffffffff021916908373ffffffffffffffffffffffffffffffffffffffff160217905550600160009054906101000a900473ffffffffffffffffffffffffffffffffffffffff1673ffffffffffffffffffffffffffffffffffffffff166306ab59236000801b7f99399a6fdf00305eb312ceca5cb6971d481638860700d269d8e5056c8ccf8af5600260009054906101000a900473ffffffffffffffffffffffffffffffffffffffff166040518463ffffffff1660e01b8152600401620004239392919062000ddd565b6020604051808303816000875af115801562000443573d6000803e3d6000fd5b505050506040513d601f19601f8201168201806040525081019062000469919062000e50565b50600160009054906101000a900473ffffffffffffffffffffffffffffffffffffffff166040516200049b9062000caf565b620004a7919062000ed4565b604051809103906000f080158015620004c4573d6000803e3d6000fd5b50600360006101000a81548173ffffffffffffffffffffffffffffffffffffffff021916908373ffffffffffffffffffffffffffffffffffffffff160217905550600160009054906101000a900473ffffffffffffffffffffffffffffffffffffffff1673ffffffffffffffffffffffffffffffffffffffff166306ab5923620005786000801b7fdec08c9dbbdd0890e300eb5062089b2d4b1c40e3673bbccb5423f7b37dcf9a9c62000c5060201b60201c565b7fe5e14487b78f85faa6e1808e89246cf57dd34831548ff2e6097380d98db2504a600360009054906101000a900473ffffffffffffffffffffffffffffffffffffffff166040518463ffffffff1660e01b8152600401620005dc9392919062000ddd565b6020604051808303816000875af1158015620005fc573d6000803e3d6000fd5b505050506040513d601f19601f8201168201806040525081019062000622919062000e50565b50600160009054906101000a900473ffffffffffffffffffffffffffffffffffffffff166200067b6000801b7f99399a6fdf00305eb312ceca5cb6971d481638860700d269d8e5056c8ccf8af562000c5060201b60201c565b604051620006899062000cbd565b6200069692919062000ea7565b604051809103906000f080158015620006b3573d6000803e3d6000fd5b50600460006101000a81548173ffffffffffffffffffffffffffffffffffffffff021916908373ffffffffffffffffffffffffffffffffffffffff160217905550604051620007029062000ccb565b604051809103906000f0801580156200071f573d6000803e3d6000fd5b50600660006101000a81548173ffffffffffffffffffffffffffffffffffffffff021916908373ffffffffffffffffffffffffffffffffffffffff160217905550600460009054906101000a900473ffffffffffffffffffffffffffffffffffffffff16600660009054906101000a900473ffffffffffffffffffffffffffffffffffffffff16600f62015180600360009054906101000a900473ffffffffffffffffffffffffffffffffffffffff16600160009054906101000a900473ffffffffffffffffffffffffffffffffffffffff16604051620008009062000cd9565b620008119695949392919062000ff0565b604051809103906000f0801580156200082e573d6000803e3d6000fd5b50600560006101000a81548173ffffffffffffffffffffffffffffffffffffffff021916908373ffffffffffffffffffffffffffffffffffffffff160217905550600460009054906101000a900473ffffffffffffffffffffffffffffffffffffffff1673ffffffffffffffffffffffffffffffffffffffff1663a7fc7a07600560009054906101000a900473ffffffffffffffffffffffffffffffffffffffff166040518263ffffffff1660e01b8152600401620008ee91906200105d565b600060405180830381600087803b1580156200090957600080fd5b505af11580156200091e573d6000803e3d6000fd5b50505050600360009054906101000a900473ffffffffffffffffffffffffffffffffffffffff1673ffffffffffffffffffffffffffffffffffffffff1663e0dba60f600560009054906101000a900473ffffffffffffffffffffffffffffffffffffffff1660016040518363ffffffff1660e01b8152600401620009a492919062001097565b600060405180830381600087803b158015620009bf57600080fd5b505af1158015620009d4573d6000803e3d6000fd5b50505050600160009054906101000a900473ffffffffffffffffffffffffffffffffffffffff1660008060405162000a0c9062000ce7565b62000a1a93929190620010c4565b604051809103906000f08015801562000a37573d6000803e3d6000fd5b50600760006101000a81548173ffffffffffffffffffffffffffffffffffffffff021916908373ffffffffffffffffffffffffffffffffffffffff160217905550600760009054906101000a900473ffffffffffffffffffffffffffffffffffffffff1673ffffffffffffffffffffffffffffffffffffffff1663d5fa2b0062000aeb6000801b7f329539a1d23af1810c48a07fe7fc66a3b34fbc8b37e9b3cdb97bb88ceab7e4bf62000c5060201b60201c565b600760009054906101000a900473ffffffffffffffffffffffffffffffffffffffff166040518363ffffffff1660e01b815260040162000b2d92919062001101565b600060405180830381600087803b15801562000b4857600080fd5b505af115801562000b5d573d6000803e3d6000fd5b50505050600160009054906101000a900473ffffffffffffffffffffffffffffffffffffffff1673ffffffffffffffffffffffffffffffffffffffff16631896f70a62000bd46000801b7f329539a1d23af1810c48a07fe7fc66a3b34fbc8b37e9b3cdb97bb88ceab7e4bf62000c5060201b60201c565b600760009054906101000a900473ffffffffffffffffffffffffffffffffffffffff166040518363ffffffff1660e01b815260040162000c1692919062001101565b600060405180830381600087803b15801562000c3157600080fd5b505af115801562000c46573d6000803e3d6000fd5b5050505062001183565b6000828260405160200162000c6792919062001153565b60405160208183030381529060405280519060200120905092915050565b611409806200195683390190565b61191a8062002d5f83390190565b6105f8806200467983390190565b6119898062004c7183390190565b613ce180620065fa83390190565b610e8d806200a2db83390190565b613237806200b16883390190565b61564e806200e39f83390190565b600073ffffffffffffffffffffffffffffffffffffffff82169050919050565b6000819050919050565b600062000d4062000d3a62000d348462000cf5565b62000d15565b62000cf5565b9050919050565b600062000d548262000d1f565b9050919050565b600062000d688262000d47565b9050919050565b62000d7a8162000d5b565b82525050565b600060208201905062000d97600083018462000d6f565b92915050565b6000819050919050565b62000db28162000d9d565b82525050565b600062000dc58262000cf5565b9050919050565b62000dd78162000db8565b82525050565b600060608201905062000df4600083018662000da7565b62000e03602083018562000da7565b62000e12604083018462000dcc565b949350505050565b600080fd5b62000e2a8162000d9d565b811462000e3657600080fd5b50565b60008151905062000e4a8162000e1f565b92915050565b60006020828403121562000e695762000e6862000e1a565b5b600062000e798482850162000e39565b91505092915050565b600062000e8f8262000d47565b9050919050565b62000ea18162000e82565b82525050565b600060408201905062000ebe600083018562000e96565b62000ecd602083018462000da7565b9392505050565b600060208201905062000eeb600083018462000e96565b92915050565b600062000efe8262000d47565b9050919050565b62000f108162000ef1565b82525050565b600062000f238262000d47565b9050919050565b62000f358162000f16565b82525050565b6000819050919050565b6000819050919050565b600062000f7062000f6a62000f648462000f3b565b62000d15565b62000f45565b9050919050565b62000f828162000f4f565b82525050565b6000819050919050565b600062000fb362000fad62000fa78462000f88565b62000d15565b62000f45565b9050919050565b62000fc58162000f92565b82525050565b600062000fd88262000d47565b9050919050565b62000fea8162000fcb565b82525050565b600060c08201905062001007600083018962000f05565b62001016602083018862000f2a565b62001025604083018762000f77565b62001034606083018662000fba565b62001043608083018562000fdf565b6200105260a083018462000e96565b979650505050505050565b600060208201905062001074600083018462000dcc565b92915050565b60008115159050919050565b62001091816200107a565b82525050565b6000604082019050620010ae600083018562000dcc565b620010bd602083018462001086565b9392505050565b6000606082019050620010db600083018662000e96565b620010ea602083018562000dcc565b620010f9604083018462000dcc565b949350505050565b600060408201905062001118600083018562000da7565b62001127602083018462000dcc565b9392505050565b6000819050919050565b6200114d620011478262000d9d565b6200112e565b82525050565b600062001161828562001138565b60208201915062001173828462001138565b6020820191508190509392505050565b6107c380620011936000396000f3fe608060405234801561001057600080fd5b50600436106100cf5760003560e01c80637d70c6591161008c5780639368678f116100665780639368678f146101f4578063d1131c7214610212578063f825612114610230578063fd3fa1811461024e576100cf565b80637d70c6591461019a5780637d73b231146101b857806380869853146101d6576100cf565b8063072e86b1146100d45780630b2c27bc146100f25780631d9273c7146101105780635ecb2502146101405780637085527e1461015e57806373ef999a1461017c575b600080fd5b6100dc61026c565b6040516100e991906104dc565b60405180910390f35b6100fa610292565b6040516101079190610518565b60405180910390f35b61012a6004803603810190610125919061056e565b6102b8565b60405161013791906105bd565b60405180910390f35b6101486102eb565b60405161015591906105bd565b60405180910390f35b61016661030f565b60405161017391906105f9565b60405180910390f35b610184610335565b6040516101919190610635565b60405180910390f35b6101a261035b565b6040516101af91906105bd565b60405180910390f35b6101c061037f565b6040516101cd9190610671565b60405180910390f35b6101de6103a3565b6040516101eb91906106ad565b60405180910390f35b6101fc6103c9565b60405161020991906105bd565b60405180910390f35b61021a6103ed565b60405161022791906105bd565b60405180910390f35b610238610411565b60405161024591906106e9565b60405180910390f35b610256610437565b6040516102639190610725565b60405180910390f35b600460009054906101000a900473ffffffffffffffffffffffffffffffffffffffff1681565b600560009054906101000a900473ffffffffffffffffffffffffffffffffffffffff1681565b600082826040516020016102cd929190610761565b60405160208183030381529060405280519060200120905092915050565b7f329539a1d23af1810c48a07fe7fc66a3b34fbc8b37e9b3cdb97bb88ceab7e4bf81565b600160009054906101000a900473ffffffffffffffffffffffffffffffffffffffff1681565b600660009054906101000a900473ffffffffffffffffffffffffffffffffffffffff1681565b7fdec08c9dbbdd0890e300eb5062089b2d4b1c40e3673bbccb5423f7b37dcf9a9c81565b60008054906101000a900473ffffffffffffffffffffffffffffffffffffffff1681565b600360009054906101000a900473ffffffffffffffffffffffffffffffffffffffff1681565b7fe5e14487b78f85faa6e1808e89246cf57dd34831548ff2e6097380d98db2504a81565b7f99399a6fdf00305eb312ceca5cb6971d481638860700d269d8e5056c8ccf8af581565b600760009054906101000a900473ffffffffffffffffffffffffffffffffffffffff1681565b600260009054906101000a900473ffffffffffffffffffffffffffffffffffffffff1681565b600073ffffffffffffffffffffffffffffffffffffffff82169050919050565b6000819050919050565b60006104a261049d6104988461045d565b61047d565b61045d565b9050919050565b60006104b482610487565b9050919050565b60006104c6826104a9565b9050919050565b6104d6816104bb565b82525050565b60006020820190506104f160008301846104cd565b92915050565b6000610502826104a9565b9050919050565b610512816104f7565b82525050565b600060208201905061052d6000830184610509565b92915050565b600080fd5b6000819050919050565b61054b81610538565b811461055657600080fd5b50565b60008135905061056881610542565b92915050565b6000806040838503121561058557610584610533565b5b600061059385828601610559565b92505060206105a485828601610559565b9150509250929050565b6105b781610538565b82525050565b60006020820190506105d260008301846105ae565b92915050565b60006105e3826104a9565b9050919050565b6105f3816105d8565b82525050565b600060208201905061060e60008301846105ea565b92915050565b600061061f826104a9565b9050919050565b61062f81610614565b82525050565b600060208201905061064a6000830184610626565b92915050565b600061065b826104a9565b9050919050565b61066b81610650565b82525050565b60006020820190506106866000830184610662565b92915050565b6000610697826104a9565b9050919050565b6106a78161068c565b82525050565b60006020820190506106c2600083018461069e565b92915050565b60006106d3826104a9565b9050919050565b6106e3816106c8565b82525050565b60006020820190506106fe60008301846106da565b92915050565b600061070f826104a9565b9050919050565b61071f81610704565b82525050565b600060208201905061073a6000830184610716565b92915050565b6000819050919050565b61075b61075682610538565b610740565b82525050565b600061076d828561074a565b60208201915061077d828461074a565b602082019150819050939250505056fea2646970667358221220f030aaf9cc6d6d9b301ed928de6931d79ec8f702fd38cd69c88499d8bf94e46464736f6c63430008140033608060405234801561001057600080fd5b50336000808060001b815260200190815260200160002060000160006101000a81548173ffffffffffffffffffffffffffffffffffffffff021916908373ffffffffffffffffffffffffffffffffffffffff160217905550611392806100776000396000f3fe608060405234801561001057600080fd5b50600436106100b45760003560e01c80635b0fc9c3116100715780635b0fc9c3146101b15780635ef2c7f0146101cd578063a22cb465146101e9578063cf40882314610205578063e985e9c514610221578063f79fe53814610251576100b4565b80630178b8bf146100b957806302571be3146100e957806306ab59231461011957806314ab90381461014957806316a25cbd146101655780631896f70a14610195575b600080fd5b6100d360048036038101906100ce9190610eb2565b610281565b6040516100e09190610f20565b60405180910390f35b61010360048036038101906100fe9190610eb2565b6102c0565b6040516101109190610f20565b60405180910390f35b610133600480360381019061012e9190610f67565b610342565b6040516101409190610fc9565b60405180910390f35b610163600480360381019061015e9190611024565b6104fb565b005b61017f600480360381019061017a9190610eb2565b6106af565b60405161018c9190611073565b60405180910390f35b6101af60048036038101906101aa919061108e565b6106e2565b005b6101cb60048036038101906101c6919061108e565b6108ae565b005b6101e760048036038101906101e291906110ce565b610a30565b005b61020360048036038101906101fe9190611181565b610a52565b005b61021f600480360381019061021a91906111c1565b610b4f565b005b61023b60048036038101906102369190611228565b610b6a565b6040516102489190611277565b60405180910390f35b61026b60048036038101906102669190610eb2565b610bfe565b6040516102789190611277565b60405180910390f35b600080600083815260200190815260200160002060010160009054906101000a900473ffffffffffffffffffffffffffffffffffffffff169050919050565b60008060008084815260200190815260200160002060000160009054906101000a900473ffffffffffffffffffffffffffffffffffffffff1690503073ffffffffffffffffffffffffffffffffffffffff168173ffffffffffffffffffffffffffffffffffffffff160361033857600091505061033d565b809150505b919050565b600083600080600083815260200190815260200160002060000160009054906101000a900473ffffffffffffffffffffffffffffffffffffffff1690503373ffffffffffffffffffffffffffffffffffffffff168173ffffffffffffffffffffffffffffffffffffffff16148061043f5750600160008273ffffffffffffffffffffffffffffffffffffffff1673ffffffffffffffffffffffffffffffffffffffff16815260200190815260200160002060003373ffffffffffffffffffffffffffffffffffffffff1673ffffffffffffffffffffffffffffffffffffffff16815260200190815260200160002060009054906101000a900460ff165b61047e576040517f08c379a0000000000000000000000000000000000000000000000000000000008152600401610475906112ef565b60405180910390fd5b60008686604051602001610493929190611330565b6040516020818303038152906040528051906020012090506104b58186610c6c565b85877fce0457fe73731f824cc272376169235128c118b49d344817417c6d108d155e82876040516104e69190610f20565b60405180910390a38093505050509392505050565b81600080600083815260200190815260200160002060000160009054906101000a900473ffffffffffffffffffffffffffffffffffffffff1690503373ffffffffffffffffffffffffffffffffffffffff168173ffffffffffffffffffffffffffffffffffffffff1614806105f65750600160008273ffffffffffffffffffffffffffffffffffffffff1673ffffffffffffffffffffffffffffffffffffffff16815260200190815260200160002060003373ffffffffffffffffffffffffffffffffffffffff1673ffffffffffffffffffffffffffffffffffffffff16815260200190815260200160002060009054906101000a900460ff165b610635576040517f08c379a000000000000000000000000000000000000000000000000000000000815260040161062c906112ef565b60405180910390fd5b837f1d4f9bbfc9cab89d66e1a1562f2233ccbf1308cb4f63de2ead5787adddb8fa68846040516106659190611073565b60405180910390a28260008086815260200190815260200160002060010160146101000a81548167ffffffffffffffff021916908367ffffffffffffffff16021790555050505050565b600080600083815260200190815260200160002060010160149054906101000a900467ffffffffffffffff169050919050565b81600080600083815260200190815260200160002060000160009054906101000a900473ffffffffffffffffffffffffffffffffffffffff1690503373ffffffffffffffffffffffffffffffffffffffff168173ffffffffffffffffffffffffffffffffffffffff1614806107dd5750600160008273ffffffffffffffffffffffffffffffffffffffff1673ffffffffffffffffffffffffffffffffffffffff16815260200190815260200160002060003373ffffffffffffffffffffffffffffffffffffffff1673ffffffffffffffffffffffffffffffffffffffff16815260200190815260200160002060009054906101000a900460ff165b61081c576040517f08c379a0000000000000000000000000000000000000000000000000000000008152600401610813906112ef565b60405180910390fd5b837f335721b01866dc23fbee8b6b2c7b1e14d6f05c28cd35a2c934239f94095602a08460405161084c9190610f20565b60405180910390a28260008086815260200190815260200160002060010160006101000a81548173ffffffffffffffffffffffffffffffffffffffff021916908373ffffffffffffffffffffffffffffffffffffffff16021790555050505050565b81600080600083815260200190815260200160002060000160009054906101000a900473ffffffffffffffffffffffffffffffffffffffff1690503373ffffffffffffffffffffffffffffffffffffffff168173ffffffffffffffffffffffffffffffffffffffff1614806109a95750600160008273ffffffffffffffffffffffffffffffffffffffff1673ffffffffffffffffffffffffffffffffffffffff16815260200190815260200160002060003373ffffffffffffffffffffffffffffffffffffffff1673ffffffffffffffffffffffffffffffffffffffff16815260200190815260200160002060009054906101000a900460ff165b6109e8576040517f08c379a00000000000000000000000000000000000000000000000000000000081526004016109df906112ef565b60405180910390fd5b6109f28484610c6c565b837fd4735d920b0f87494915f556dd9b54c8f309026070caea5c737245152564d26684604051610a229190610f20565b60405180910390a250505050565b6000610a3d868686610342565b9050610a4a818484610cc4565b505050505050565b80600160003373ffffffffffffffffffffffffffffffffffffffff1673ffffffffffffffffffffffffffffffffffffffff16815260200190815260200160002060008473ffffffffffffffffffffffffffffffffffffffff1673ffffffffffffffffffffffffffffffffffffffff16815260200190815260200160002060006101000a81548160ff0219169083151502179055508173ffffffffffffffffffffffffffffffffffffffff163373ffffffffffffffffffffffffffffffffffffffff167f17307eab39ab6107e8899845ad3d59bd9653f200f220920489ca2b5937696c3183604051610b439190611277565b60405180910390a35050565b610b5984846108ae565b610b64848383610cc4565b50505050565b6000600160008473ffffffffffffffffffffffffffffffffffffffff1673ffffffffffffffffffffffffffffffffffffffff16815260200190815260200160002060008373ffffffffffffffffffffffffffffffffffffffff1673ffffffffffffffffffffffffffffffffffffffff16815260200190815260200160002060009054906101000a900460ff16905092915050565b60008073ffffffffffffffffffffffffffffffffffffffff1660008084815260200190815260200160002060000160009054906101000a900473ffffffffffffffffffffffffffffffffffffffff1673ffffffffffffffffffffffffffffffffffffffff1614159050919050565b8060008084815260200190815260200160002060000160006101000a81548173ffffffffffffffffffffffffffffffffffffffff021916908373ffffffffffffffffffffffffffffffffffffffff1602179055505050565b60008084815260200190815260200160002060010160009054906101000a900473ffffffffffffffffffffffffffffffffffffffff1673ffffffffffffffffffffffffffffffffffffffff168273ffffffffffffffffffffffffffffffffffffffff1614610db9578160008085815260200190815260200160002060010160006101000a81548173ffffffffffffffffffffffffffffffffffffffff021916908373ffffffffffffffffffffffffffffffffffffffff160217905550827f335721b01866dc23fbee8b6b2c7b1e14d6f05c28cd35a2c934239f94095602a083604051610db09190610f20565b60405180910390a25b60008084815260200190815260200160002060010160149054906101000a900467ffffffffffffffff1667ffffffffffffffff168167ffffffffffffffff1614610e72578060008085815260200190815260200160002060010160146101000a81548167ffffffffffffffff021916908367ffffffffffffffff160217905550827f1d4f9bbfc9cab89d66e1a1562f2233ccbf1308cb4f63de2ead5787adddb8fa6882604051610e699190611073565b60405180910390a25b505050565b600080fd5b6000819050919050565b610e8f81610e7c565b8114610e9a57600080fd5b50565b600081359050610eac81610e86565b92915050565b600060208284031215610ec857610ec7610e77565b5b6000610ed684828501610e9d565b91505092915050565b600073ffffffffffffffffffffffffffffffffffffffff82169050919050565b6000610f0a82610edf565b9050919050565b610f1a81610eff565b82525050565b6000602082019050610f356000830184610f11565b92915050565b610f4481610eff565b8114610f4f57600080fd5b50565b600081359050610f6181610f3b565b92915050565b600080600060608486031215610f8057610f7f610e77565b5b6000610f8e86828701610e9d565b9350506020610f9f86828701610e9d565b9250506040610fb086828701610f52565b9150509250925092565b610fc381610e7c565b82525050565b6000602082019050610fde6000830184610fba565b92915050565b600067ffffffffffffffff82169050919050565b61100181610fe4565b811461100c57600080fd5b50565b60008135905061101e81610ff8565b92915050565b6000806040838503121561103b5761103a610e77565b5b600061104985828601610e9d565b925050602061105a8582860161100f565b9150509250929050565b61106d81610fe4565b82525050565b60006020820190506110886000830184611064565b92915050565b600080604083850312156110a5576110a4610e77565b5b60006110b385828601610e9d565b92505060206110c485828601610f52565b9150509250929050565b600080600080600060a086880312156110ea576110e9610e77565b5b60006110f888828901610e9d565b955050602061110988828901610e9d565b945050604061111a88828901610f52565b935050606061112b88828901610f52565b925050608061113c8882890161100f565b9150509295509295909350565b60008115159050919050565b61115e81611149565b811461116957600080fd5b50565b60008135905061117b81611155565b92915050565b6000806040838503121561119857611197610e77565b5b60006111a685828601610f52565b92505060206111b78582860161116c565b9150509250929050565b600080600080608085870312156111db576111da610e77565b5b60006111e987828801610e9d565b94505060206111fa87828801610f52565b935050604061120b87828801610f52565b925050606061121c8782880161100f565b91505092959194509250565b6000806040838503121561123f5761123e610e77565b5b600061124d85828601610f52565b925050602061125e85828601610f52565b9150509250929050565b61127181611149565b82525050565b600060208201905061128c6000830184611268565b92915050565b600082825260208201905092915050565b7f4e6f7420617574686f72697a6564000000000000000000000000000000000000600082015250565b60006112d9600e83611292565b91506112e4826112a3565b602082019050919050565b60006020820190508181036000830152611308816112cc565b9050919050565b6000819050919050565b61132a61132582610e7c565b61130f565b82525050565b600061133c8285611319565b60208201915061134c8284611319565b602082019150819050939250505056fea26469706673582212202763f57afa12026e76a554ea173a404c2beac37dea08dfc5c9e50560884c260364736f6c6343000814003360806040523480156200001157600080fd5b506040516200191a3803806200191a833981810160405281019062000037919062000154565b336000808060001b815260200190815260200160002060000160006101000a81548173ffffffffffffffffffffffffffffffffffffffff021916908373ffffffffffffffffffffffffffffffffffffffff16021790555080600260006101000a81548173ffffffffffffffffffffffffffffffffffffffff021916908373ffffffffffffffffffffffffffffffffffffffff1602179055505062000186565b600080fd5b600073ffffffffffffffffffffffffffffffffffffffff82169050919050565b60006200010882620000db565b9050919050565b60006200011c82620000fb565b9050919050565b6200012e816200010f565b81146200013a57600080fd5b50565b6000815190506200014e8162000123565b92915050565b6000602082840312156200016d576200016c620000d6565b5b60006200017d848285016200013d565b91505092915050565b61178480620001966000396000f3fe608060405234801561001057600080fd5b50600436106100cf5760003560e01c80635b0fc9c31161008c578063b83f866311610066578063b83f866314610220578063cf4088231461023e578063e985e9c51461025a578063f79fe5381461028a576100cf565b80635b0fc9c3146101cc5780635ef2c7f0146101e8578063a22cb46514610204576100cf565b80630178b8bf146100d457806302571be31461010457806306ab59231461013457806314ab90381461016457806316a25cbd146101805780631896f70a146101b0575b600080fd5b6100ee60048036038101906100e991906111a6565b6102ba565b6040516100fb9190611214565b60405180910390f35b61011e600480360381019061011991906111a6565b61037d565b60405161012b9190611214565b60405180910390f35b61014e6004803603810190610149919061125b565b610440565b60405161015b91906112bd565b60405180910390f35b61017e60048036038101906101799190611318565b6105f9565b005b61019a600480360381019061019591906111a6565b6107ad565b6040516101a79190611367565b60405180910390f35b6101ca60048036038101906101c59190611382565b610870565b005b6101e660048036038101906101e19190611382565b610a3c565b005b61020260048036038101906101fd91906113c2565b610bbe565b005b61021e60048036038101906102199190611475565b610be0565b005b610228610cdd565b6040516102359190611514565b60405180910390f35b6102586004803603810190610253919061152f565b610d03565b005b610274600480360381019061026f9190611596565b610d1e565b60405161028191906115e5565b60405180910390f35b6102a4600480360381019061029f91906111a6565b610db2565b6040516102b191906115e5565b60405180910390f35b60006102c582610db2565b61036c57600260009054906101000a900473ffffffffffffffffffffffffffffffffffffffff1673ffffffffffffffffffffffffffffffffffffffff16630178b8bf836040518263ffffffff1660e01b815260040161032491906112bd565b602060405180830381865afa158015610341573d6000803e3d6000fd5b505050506040513d601f19601f820116820180604052508101906103659190611615565b9050610378565b61037582610e20565b90505b919050565b600061038882610db2565b61042f57600260009054906101000a900473ffffffffffffffffffffffffffffffffffffffff1673ffffffffffffffffffffffffffffffffffffffff166302571be3836040518263ffffffff1660e01b81526004016103e791906112bd565b602060405180830381865afa158015610404573d6000803e3d6000fd5b505050506040513d601f19601f820116820180604052508101906104289190611615565b905061043b565b61043882610e5f565b90505b919050565b600083600080600083815260200190815260200160002060000160009054906101000a900473ffffffffffffffffffffffffffffffffffffffff1690503373ffffffffffffffffffffffffffffffffffffffff168173ffffffffffffffffffffffffffffffffffffffff16148061053d5750600160008273ffffffffffffffffffffffffffffffffffffffff1673ffffffffffffffffffffffffffffffffffffffff16815260200190815260200160002060003373ffffffffffffffffffffffffffffffffffffffff1673ffffffffffffffffffffffffffffffffffffffff16815260200190815260200160002060009054906101000a900460ff165b61057c576040517f08c379a00000000000000000000000000000000000000000000000000000000081526004016105739061169f565b60405180910390fd5b600086866040516020016105919291906116e0565b6040516020818303038152906040528051906020012090506105b38186610ee1565b85877fce0457fe73731f824cc272376169235128c118b49d344817417c6d108d155e82876040516105e49190611214565b60405180910390a38093505050509392505050565b81600080600083815260200190815260200160002060000160009054906101000a900473ffffffffffffffffffffffffffffffffffffffff1690503373ffffffffffffffffffffffffffffffffffffffff168173ffffffffffffffffffffffffffffffffffffffff1614806106f45750600160008273ffffffffffffffffffffffffffffffffffffffff1673ffffffffffffffffffffffffffffffffffffffff16815260200190815260200160002060003373ffffffffffffffffffffffffffffffffffffffff1673ffffffffffffffffffffffffffffffffffffffff16815260200190815260200160002060009054906101000a900460ff165b610733576040517f08c379a000000000000000000000000000000000000000000000000000000000815260040161072a9061169f565b60405180910390fd5b837f1d4f9bbfc9cab89d66e1a1562f2233ccbf1308cb4f63de2ead5787adddb8fa68846040516107639190611367565b60405180910390a28260008086815260200190815260200160002060010160146101000a81548167ffffffffffffffff021916908367ffffffffffffffff16021790555050505050565b60006107b882610db2565b61085f57600260009054906101000a900473ffffffffffffffffffffffffffffffffffffffff1673ffffffffffffffffffffffffffffffffffffffff166316a25cbd836040518263ffffffff1660e01b815260040161081791906112bd565b602060405180830381865afa158015610834573d6000803e3d6000fd5b505050506040513d601f19601f820116820180604052508101906108589190611721565b905061086b565b61086882610f2d565b90505b919050565b81600080600083815260200190815260200160002060000160009054906101000a900473ffffffffffffffffffffffffffffffffffffffff1690503373ffffffffffffffffffffffffffffffffffffffff168173ffffffffffffffffffffffffffffffffffffffff16148061096b5750600160008273ffffffffffffffffffffffffffffffffffffffff1673ffffffffffffffffffffffffffffffffffffffff16815260200190815260200160002060003373ffffffffffffffffffffffffffffffffffffffff1673ffffffffffffffffffffffffffffffffffffffff16815260200190815260200160002060009054906101000a900460ff165b6109aa576040517f08c379a00000000000000000000000000000000000000000000000000000000081526004016109a19061169f565b60405180910390fd5b837f335721b01866dc23fbee8b6b2c7b1e14d6f05c28cd35a2c934239f94095602a0846040516109da9190611214565b60405180910390a28260008086815260200190815260200160002060010160006101000a81548173ffffffffffffffffffffffffffffffffffffffff021916908373ffffffffffffffffffffffffffffffffffffffff16021790555050505050565b81600080600083815260200190815260200160002060000160009054906101000a900473ffffffffffffffffffffffffffffffffffffffff1690503373ffffffffffffffffffffffffffffffffffffffff168173ffffffffffffffffffffffffffffffffffffffff161480610b375750600160008273ffffffffffffffffffffffffffffffffffffffff1673ffffffffffffffffffffffffffffffffffffffff16815260200190815260200160002060003373ffffffffffffffffffffffffffffffffffffffff1673ffffffffffffffffffffffffffffffffffffffff16815260200190815260200160002060009054906101000a900460ff165b610b76576040517f08c379a0000000000000000000000000000000000000000000000000000000008152600401610b6d9061169f565b60405180910390fd5b610b808484610ee1565b837fd4735d920b0f87494915f556dd9b54c8f309026070caea5c737245152564d26684604051610bb09190611214565b60405180910390a250505050565b6000610bcb868686610440565b9050610bd8818484610f60565b505050505050565b80600160003373ffffffffffffffffffffffffffffffffffffffff1673ffffffffffffffffffffffffffffffffffffffff16815260200190815260200160002060008473ffffffffffffffffffffffffffffffffffffffff1673ffffffffffffffffffffffffffffffffffffffff16815260200190815260200160002060006101000a81548160ff0219169083151502179055508173ffffffffffffffffffffffffffffffffffffffff163373ffffffffffffffffffffffffffffffffffffffff167f17307eab39ab6107e8899845ad3d59bd9653f200f220920489ca2b5937696c3183604051610cd191906115e5565b60405180910390a35050565b600260009054906101000a900473ffffffffffffffffffffffffffffffffffffffff1681565b610d0d8484610a3c565b610d18848383610f60565b50505050565b6000600160008473ffffffffffffffffffffffffffffffffffffffff1673ffffffffffffffffffffffffffffffffffffffff16815260200190815260200160002060008373ffffffffffffffffffffffffffffffffffffffff1673ffffffffffffffffffffffffffffffffffffffff16815260200190815260200160002060009054906101000a900460ff16905092915050565b60008073ffffffffffffffffffffffffffffffffffffffff1660008084815260200190815260200160002060000160009054906101000a900473ffffffffffffffffffffffffffffffffffffffff1673ffffffffffffffffffffffffffffffffffffffff1614159050919050565b600080600083815260200190815260200160002060010160009054906101000a900473ffffffffffffffffffffffffffffffffffffffff169050919050565b60008060008084815260200190815260200160002060000160009054906101000a900473ffffffffffffffffffffffffffffffffffffffff1690503073ffffffffffffffffffffffffffffffffffffffff168173ffffffffffffffffffffffffffffffffffffffff1603610ed7576000915050610edc565b809150505b919050565b6000819050600073ffffffffffffffffffffffffffffffffffffffff168173ffffffffffffffffffffffffffffffffffffffff1603610f1e573090505b610f288382611113565b505050565b600080600083815260200190815260200160002060010160149054906101000a900467ffffffffffffffff169050919050565b60008084815260200190815260200160002060010160009054906101000a900473ffffffffffffffffffffffffffffffffffffffff1673ffffffffffffffffffffffffffffffffffffffff168273ffffffffffffffffffffffffffffffffffffffff1614611055578160008085815260200190815260200160002060010160006101000a81548173ffffffffffffffffffffffffffffffffffffffff021916908373ffffffffffffffffffffffffffffffffffffffff160217905550827f335721b01866dc23fbee8b6b2c7b1e14d6f05c28cd35a2c934239f94095602a08360405161104c9190611214565b60405180910390a25b60008084815260200190815260200160002060010160149054906101000a900467ffffffffffffffff1667ffffffffffffffff168167ffffffffffffffff161461110e578060008085815260200190815260200160002060010160146101000a81548167ffffffffffffffff021916908367ffffffffffffffff160217905550827f1d4f9bbfc9cab89d66e1a1562f2233ccbf1308cb4f63de2ead5787adddb8fa68826040516111059190611367565b60405180910390a25b505050565b8060008084815260200190815260200160002060000160006101000a81548173ffffffffffffffffffffffffffffffffffffffff021916908373ffffffffffffffffffffffffffffffffffffffff1602179055505050565b600080fd5b6000819050919050565b61118381611170565b811461118e57600080fd5b50565b6000813590506111a08161117a565b92915050565b6000602082840312156111bc576111bb61116b565b5b60006111ca84828501611191565b91505092915050565b600073ffffffffffffffffffffffffffffffffffffffff82169050919050565b60006111fe826111d3565b9050919050565b61120e816111f3565b82525050565b60006020820190506112296000830184611205565b92915050565b611238816111f3565b811461124357600080fd5b50565b6000813590506112558161122f565b92915050565b6000806000606084860312156112745761127361116b565b5b600061128286828701611191565b935050602061129386828701611191565b92505060406112a486828701611246565b9150509250925092565b6112b781611170565b82525050565b60006020820190506112d260008301846112ae565b92915050565b600067ffffffffffffffff82169050919050565b6112f5816112d8565b811461130057600080fd5b50565b600081359050611312816112ec565b92915050565b6000806040838503121561132f5761132e61116b565b5b600061133d85828601611191565b925050602061134e85828601611303565b9150509250929050565b611361816112d8565b82525050565b600060208201905061137c6000830184611358565b92915050565b600080604083850312156113995761139861116b565b5b60006113a785828601611191565b92505060206113b885828601611246565b9150509250929050565b600080600080600060a086880312156113de576113dd61116b565b5b60006113ec88828901611191565b95505060206113fd88828901611191565b945050604061140e88828901611246565b935050606061141f88828901611246565b925050608061143088828901611303565b9150509295509295909350565b60008115159050919050565b6114528161143d565b811461145d57600080fd5b50565b60008135905061146f81611449565b92915050565b6000806040838503121561148c5761148b61116b565b5b600061149a85828601611246565b92505060206114ab85828601611460565b9150509250929050565b6000819050919050565b60006114da6114d56114d0846111d3565b6114b5565b6111d3565b9050919050565b60006114ec826114bf565b9050919050565b60006114fe826114e1565b9050919050565b61150e816114f3565b82525050565b60006020820190506115296000830184611505565b92915050565b600080600080608085870312156115495761154861116b565b5b600061155787828801611191565b945050602061156887828801611246565b935050604061157987828801611246565b925050606061158a87828801611303565b91505092959194509250565b600080604083850312156115ad576115ac61116b565b5b60006115bb85828601611246565b92505060206115cc85828601611246565b9150509250929050565b6115df8161143d565b82525050565b60006020820190506115fa60008301846115d6565b92915050565b60008151905061160f8161122f565b92915050565b60006020828403121561162b5761162a61116b565b5b600061163984828501611600565b91505092915050565b600082825260208201905092915050565b7f4e6f7420617574686f72697a6564000000000000000000000000000000000000600082015250565b6000611689600e83611642565b915061169482611653565b602082019050919050565b600060208201905081810360008301526116b88161167c565b9050919050565b6000819050919050565b6116da6116d582611170565b6116bf565b82525050565b60006116ec82856116c9565b6020820191506116fc82846116c9565b6020820191508190509392505050565b60008151905061171b816112ec565b92915050565b6000602082840312156117375761173661116b565b5b60006117458482850161170c565b9150509291505056fea264697066735822122054c5dcc83b8da4b0200a92d84bb82ff0c3f6d7dbec772fde8fdd2c18037b257264736f6c63430008140033608060405234801561001057600080fd5b506040516105f83803806105f88339818101604052810190610032919061012b565b816000806101000a81548173ffffffffffffffffffffffffffffffffffffffff021916908373ffffffffffffffffffffffffffffffffffffffff16021790555080600181905550505061016b565b600080fd5b600073ffffffffffffffffffffffffffffffffffffffff82169050919050565b60006100b082610085565b9050919050565b60006100c2826100a5565b9050919050565b6100d2816100b7565b81146100dd57600080fd5b50565b6000815190506100ef816100c9565b92915050565b6000819050919050565b610108816100f5565b811461011357600080fd5b50565b600081519050610125816100ff565b92915050565b6000806040838503121561014257610141610080565b5b6000610150858286016100e0565b925050602061016185828601610116565b9150509250929050565b61047e8061017a6000396000f3fe608060405234801561001057600080fd5b506004361061002b5760003560e01c8063d22057a914610030575b600080fd5b61004a600480360381019061004591906102c7565b61004c565b005b8160008060009054906101000a900473ffffffffffffffffffffffffffffffffffffffff1673ffffffffffffffffffffffffffffffffffffffff166302571be3600154846040516020016100a1929190610328565b604051602081830303815290604052805190602001206040518263ffffffff1660e01b81526004016100d39190610363565b602060405180830381865afa1580156100f0573d6000803e3d6000fd5b505050506040513d601f19601f820116820180604052508101906101149190610393565b9050600073ffffffffffffffffffffffffffffffffffffffff168173ffffffffffffffffffffffffffffffffffffffff16148061017c57503373ffffffffffffffffffffffffffffffffffffffff168173ffffffffffffffffffffffffffffffffffffffff16145b61018557600080fd5b60008054906101000a900473ffffffffffffffffffffffffffffffffffffffff1673ffffffffffffffffffffffffffffffffffffffff166306ab592360015486866040518463ffffffff1660e01b81526004016101e4939291906103cf565b6020604051808303816000875af1158015610203573d6000803e3d6000fd5b505050506040513d601f19601f82011682018060405250810190610227919061041b565b5050505050565b600080fd5b6000819050919050565b61024681610233565b811461025157600080fd5b50565b6000813590506102638161023d565b92915050565b600073ffffffffffffffffffffffffffffffffffffffff82169050919050565b600061029482610269565b9050919050565b6102a481610289565b81146102af57600080fd5b50565b6000813590506102c18161029b565b92915050565b600080604083850312156102de576102dd61022e565b5b60006102ec85828601610254565b92505060206102fd858286016102b2565b9150509250929050565b6000819050919050565b61032261031d82610233565b610307565b82525050565b60006103348285610311565b6020820191506103448284610311565b6020820191508190509392505050565b61035d81610233565b82525050565b60006020820190506103786000830184610354565b92915050565b60008151905061038d8161029b565b92915050565b6000602082840312156103a9576103a861022e565b5b60006103b78482850161037e565b91505092915050565b6103c981610289565b82525050565b60006060820190506103e46000830186610354565b6103f16020830185610354565b6103fe60408301846103c0565b949350505050565b6000815190506104158161023d565b92915050565b6000602082840312156104315761043061022e565b5b600061043f84828501610406565b9150509291505056fea2646970667358221220c5d52a9ff2f820d924938964886a68f6522cd8e425b4c7b93551bb93091a1bd364736f6c6343000814003360a06040523480156200001157600080fd5b50604051620019893803806200198983398181016040528101906200003791906200039b565b33600073ffffffffffffffffffffffffffffffffffffffff168173ffffffffffffffffffffffffffffffffffffffff1603620000ad5760006040517f1e4fbdf7000000000000000000000000000000000000000000000000000000008152600401620000a49190620003de565b60405180910390fd5b620000be816200025960201b60201c565b508073ffffffffffffffffffffffffffffffffffffffff1660808173ffffffffffffffffffffffffffffffffffffffff168152505060008173ffffffffffffffffffffffffffffffffffffffff166302571be37f91d1777781884d03a6757a803996e38de2a42967fb37eeaca72729271025a9e260001b6040518263ffffffff1660e01b815260040162000153919062000416565b602060405180830381865afa15801562000171573d6000803e3d6000fd5b505050506040513d601f19601f8201168201806040525081019062000197919062000464565b9050600073ffffffffffffffffffffffffffffffffffffffff168173ffffffffffffffffffffffffffffffffffffffff161462000251578073ffffffffffffffffffffffffffffffffffffffff16631e83409a336040518263ffffffff1660e01b8152600401620002099190620003de565b6020604051808303816000875af115801562000229573d6000803e3d6000fd5b505050506040513d601f19601f820116820180604052508101906200024f9190620004c7565b505b5050620004f9565b60008060009054906101000a900473ffffffffffffffffffffffffffffffffffffffff169050816000806101000a81548173ffffffffffffffffffffffffffffffffffffffff021916908373ffffffffffffffffffffffffffffffffffffffff1602179055508173ffffffffffffffffffffffffffffffffffffffff168173ffffffffffffffffffffffffffffffffffffffff167f8be0079c531659141344cd1fd0a4f28419497f9722a3daafe3b4186f6b6457e060405160405180910390a35050565b600080fd5b600073ffffffffffffffffffffffffffffffffffffffff82169050919050565b60006200034f8262000322565b9050919050565b6000620003638262000342565b9050919050565b620003758162000356565b81146200038157600080fd5b50565b60008151905062000395816200036a565b92915050565b600060208284031215620003b457620003b36200031d565b5b6000620003c48482850162000384565b91505092915050565b620003d88162000342565b82525050565b6000602082019050620003f56000830184620003cd565b92915050565b6000819050919050565b6200041081620003fb565b82525050565b60006020820190506200042d600083018462000405565b92915050565b6200043e8162000342565b81146200044a57600080fd5b50565b6000815190506200045e8162000433565b92915050565b6000602082840312156200047d576200047c6200031d565b5b60006200048d848285016200044d565b91505092915050565b620004a181620003fb565b8114620004ad57600080fd5b50565b600081519050620004c18162000496565b92915050565b600060208284031215620004e057620004df6200031d565b5b6000620004f084828501620004b0565b91505092915050565b6080516114666200052360003960008181610344015281816103f4015261057101526114666000f3fe608060405234801561001057600080fd5b50600436106100ea5760003560e01c80638da5cb5b1161008c578063c66485b211610066578063c66485b214610273578063da8c229e1461028f578063e0dba60f146102bf578063f2fde38b146102db576100ea565b80638da5cb5b146101f5578063bffbe61c14610213578063c47f002714610243576100ea565b806365669631116100c8578063656696311461016d578063715018a61461019d5780637a806d6b146101a7578063828eab0e146101d7576100ea565b80630f5a5466146100ef5780631e83409a1461011f5780633f15457f1461014f575b600080fd5b61010960048036038101906101049190610c55565b6102f7565b6040516101169190610cae565b60405180910390f35b61013960048036038101906101349190610cc9565b61030c565b6040516101469190610cae565b60405180910390f35b610157610342565b6040516101649190610d55565b60405180910390f35b61018760048036038101906101829190610d70565b610366565b6040516101949190610cae565b60405180910390f35b6101a5610633565b005b6101c160048036038101906101bc9190610f09565b610647565b6040516101ce9190610cae565b60405180910390f35b6101df6106d0565b6040516101ec9190610fad565b60405180910390f35b6101fd6106f6565b60405161020a9190610fd7565b60405180910390f35b61022d60048036038101906102289190610cc9565b61071f565b60405161023a9190610cae565b60405180910390f35b61025d60048036038101906102589190610ff2565b61077c565b60405161026a9190610cae565b60405180910390f35b61028d60048036038101906102889190610cc9565b6107b3565b005b6102a960048036038101906102a49190610cc9565b6108b1565b6040516102b69190611056565b60405180910390f35b6102d960048036038101906102d4919061109d565b6108d1565b005b6102f560048036038101906102f09190610cc9565b610982565b005b6000610304338484610366565b905092915050565b600061033b3383600260009054906101000a900473ffffffffffffffffffffffffffffffffffffffff16610366565b9050919050565b7f000000000000000000000000000000000000000000000000000000000000000081565b6000833373ffffffffffffffffffffffffffffffffffffffff168173ffffffffffffffffffffffffffffffffffffffff1614806103ec5750600160003373ffffffffffffffffffffffffffffffffffffffff1673ffffffffffffffffffffffffffffffffffffffff16815260200190815260200160002060009054906101000a900460ff165b8061048f57507f000000000000000000000000000000000000000000000000000000000000000073ffffffffffffffffffffffffffffffffffffffff1663e985e9c582336040518363ffffffff1660e01b815260040161044d9291906110dd565b602060405180830381865afa15801561046a573d6000803e3d6000fd5b505050506040513d601f19601f8201168201806040525081019061048e919061111b565b5b6104ce576040517f08c379a00000000000000000000000000000000000000000000000000000000081526004016104c5906111f1565b60405180910390fd5b60006104d986610a08565b905060007f91d1777781884d03a6757a803996e38de2a42967fb37eeaca72729271025a9e260001b82604051602001610513929190611232565b604051602081830303815290604052805190602001209050808773ffffffffffffffffffffffffffffffffffffffff167f6ada868dd3058cf77a48a74489fd7963688e5464b2b0fa957ace976243270e9260405160405180910390a37f000000000000000000000000000000000000000000000000000000000000000073ffffffffffffffffffffffffffffffffffffffff16635ef2c7f07f91d1777781884d03a6757a803996e38de2a42967fb37eeaca72729271025a9e260001b84898960006040518663ffffffff1660e01b81526004016105f49594939291906112ad565b600060405180830381600087803b15801561060e57600080fd5b505af1158015610622573d6000803e3d6000fd5b505050508093505050509392505050565b61063b610a90565b6106456000610b17565b565b600080610655868686610366565b90508373ffffffffffffffffffffffffffffffffffffffff16637737221382856040518363ffffffff1660e01b815260040161069292919061136e565b600060405180830381600087803b1580156106ac57600080fd5b505af11580156106c0573d6000803e3d6000fd5b5050505080915050949350505050565b600260009054906101000a900473ffffffffffffffffffffffffffffffffffffffff1681565b60008060009054906101000a900473ffffffffffffffffffffffffffffffffffffffff16905090565b60007f91d1777781884d03a6757a803996e38de2a42967fb37eeaca72729271025a9e260001b61074e83610a08565b60405160200161075f929190611232565b604051602081830303815290604052805190602001209050919050565b60006107ac3333600260009054906101000a900473ffffffffffffffffffffffffffffffffffffffff1685610647565b9050919050565b6107bb610a90565b600073ffffffffffffffffffffffffffffffffffffffff168173ffffffffffffffffffffffffffffffffffffffff160361082a576040517f08c379a000000000000000000000000000000000000000000000000000000000815260040161082190611410565b60405180910390fd5b80600260006101000a81548173ffffffffffffffffffffffffffffffffffffffff021916908373ffffffffffffffffffffffffffffffffffffffff1602179055508073ffffffffffffffffffffffffffffffffffffffff167feae17a84d9eb83d8c8eb317f9e7d64857bc363fa51674d996c023f4340c577cf60405160405180910390a250565b60016020528060005260406000206000915054906101000a900460ff1681565b6108d9610a90565b80600160008473ffffffffffffffffffffffffffffffffffffffff1673ffffffffffffffffffffffffffffffffffffffff16815260200190815260200160002060006101000a81548160ff0219169083151502179055508173ffffffffffffffffffffffffffffffffffffffff167f4c97694570a07277810af7e5669ffd5f6a2d6b74b6e9a274b8b870fd5114cf87826040516109769190611056565b60405180910390a25050565b61098a610a90565b600073ffffffffffffffffffffffffffffffffffffffff168173ffffffffffffffffffffffffffffffffffffffff16036109fc5760006040517f1e4fbdf70000000000000000000000000000000000000000000000000000000081526004016109f39190610fd7565b60405180910390fd5b610a0581610b17565b50565b600060285b6000811115610a83576001810390507f3031323334353637383961626364656600000000000000000000000000000000600f84161a81536010830492506001810390507f3031323334353637383961626364656600000000000000000000000000000000600f84161a8153601083049250610a0d565b5060286000209050919050565b610a98610bdb565b73ffffffffffffffffffffffffffffffffffffffff16610ab66106f6565b73ffffffffffffffffffffffffffffffffffffffff1614610b1557610ad9610bdb565b6040517f118cdaa7000000000000000000000000000000000000000000000000000000008152600401610b0c9190610fd7565b60405180910390fd5b565b60008060009054906101000a900473ffffffffffffffffffffffffffffffffffffffff169050816000806101000a81548173ffffffffffffffffffffffffffffffffffffffff021916908373ffffffffffffffffffffffffffffffffffffffff1602179055508173ffffffffffffffffffffffffffffffffffffffff168173ffffffffffffffffffffffffffffffffffffffff167f8be0079c531659141344cd1fd0a4f28419497f9722a3daafe3b4186f6b6457e060405160405180910390a35050565b600033905090565b6000604051905090565b600080fd5b600080fd5b600073ffffffffffffffffffffffffffffffffffffffff82169050919050565b6000610c2282610bf7565b9050919050565b610c3281610c17565b8114610c3d57600080fd5b50565b600081359050610c4f81610c29565b92915050565b60008060408385031215610c6c57610c6b610bed565b5b6000610c7a85828601610c40565b9250506020610c8b85828601610c40565b9150509250929050565b6000819050919050565b610ca881610c95565b82525050565b6000602082019050610cc36000830184610c9f565b92915050565b600060208284031215610cdf57610cde610bed565b5b6000610ced84828501610c40565b91505092915050565b6000819050919050565b6000610d1b610d16610d1184610bf7565b610cf6565b610bf7565b9050919050565b6000610d2d82610d00565b9050919050565b6000610d3f82610d22565b9050919050565b610d4f81610d34565b82525050565b6000602082019050610d6a6000830184610d46565b92915050565b600080600060608486031215610d8957610d88610bed565b5b6000610d9786828701610c40565b9350506020610da886828701610c40565b9250506040610db986828701610c40565b9150509250925092565b600080fd5b600080fd5b6000601f19601f8301169050919050565b7f4e487b7100000000000000000000000000000000000000000000000000000000600052604160045260246000fd5b610e1682610dcd565b810181811067ffffffffffffffff82111715610e3557610e34610dde565b5b80604052505050565b6000610e48610be3565b9050610e548282610e0d565b919050565b600067ffffffffffffffff821115610e7457610e73610dde565b5b610e7d82610dcd565b9050602081019050919050565b82818337600083830152505050565b6000610eac610ea784610e59565b610e3e565b905082815260208101848484011115610ec857610ec7610dc8565b5b610ed3848285610e8a565b509392505050565b600082601f830112610ef057610eef610dc3565b5b8135610f00848260208601610e99565b91505092915050565b60008060008060808587031215610f2357610f22610bed565b5b6000610f3187828801610c40565b9450506020610f4287828801610c40565b9350506040610f5387828801610c40565b925050606085013567ffffffffffffffff811115610f7457610f73610bf2565b5b610f8087828801610edb565b91505092959194509250565b6000610f9782610d22565b9050919050565b610fa781610f8c565b82525050565b6000602082019050610fc26000830184610f9e565b92915050565b610fd181610c17565b82525050565b6000602082019050610fec6000830184610fc8565b92915050565b60006020828403121561100857611007610bed565b5b600082013567ffffffffffffffff81111561102657611025610bf2565b5b61103284828501610edb565b91505092915050565b60008115159050919050565b6110508161103b565b82525050565b600060208201905061106b6000830184611047565b92915050565b61107a8161103b565b811461108557600080fd5b50565b60008135905061109781611071565b92915050565b600080604083850312156110b4576110b3610bed565b5b60006110c285828601610c40565b92505060206110d385828601611088565b9150509250929050565b60006040820190506110f26000830185610fc8565b6110ff6020830184610fc8565b9392505050565b60008151905061111581611071565b92915050565b60006020828403121561113157611130610bed565b5b600061113f84828501611106565b91505092915050565b600082825260208201905092915050565b7f526576657273655265676973747261723a2043616c6c6572206973206e6f742060008201527f6120636f6e74726f6c6c6572206f7220617574686f726973656420627920616460208201527f6472657373206f7220746865206164647265737320697473656c660000000000604082015250565b60006111db605b83611148565b91506111e682611159565b606082019050919050565b6000602082019050818103600083015261120a816111ce565b9050919050565b6000819050919050565b61122c61122782610c95565b611211565b82525050565b600061123e828561121b565b60208201915061124e828461121b565b6020820191508190509392505050565b6000819050919050565b600067ffffffffffffffff82169050919050565b600061129761129261128d8461125e565b610cf6565b611268565b9050919050565b6112a78161127c565b82525050565b600060a0820190506112c26000830188610c9f565b6112cf6020830187610c9f565b6112dc6040830186610fc8565b6112e96060830185610fc8565b6112f6608083018461129e565b9695505050505050565b600081519050919050565b60005b8381101561132957808201518184015260208101905061130e565b60008484015250505050565b600061134082611300565b61134a8185611148565b935061135a81856020860161130b565b61136381610dcd565b840191505092915050565b60006040820190506113836000830185610c9f565b81810360208301526113958184611335565b90509392505050565b7f526576657273655265676973747261723a205265736f6c76657220616464726560008201527f7373206d757374206e6f74206265203000000000000000000000000000000000602082015250565b60006113fa603083611148565b91506114058261139e565b604082019050919050565b60006020820190508181036000830152611429816113ed565b905091905056fea2646970667358221220673077367c59578829a8b83c192f472a19b8fb7cbccf9ece78a0fe36188f845964736f6c6343000814003360806040523480156200001157600080fd5b5060405162003ce138038062003ce1833981810160405281019062000037919062000320565b336040518060400160405280601381526020017f5a4b46616972204e616d652053657276696365000000000000000000000000008152506040518060400160405280600581526020017f5a4b464e530000000000000000000000000000000000000000000000000000008152508160009081620000b59190620005e1565b508060019081620000c79190620005e1565b505050600073ffffffffffffffffffffffffffffffffffffffff168173ffffffffffffffffffffffffffffffffffffffff16036200013f5760006040517f1e4fbdf7000000000000000000000000000000000000000000000000000000008152600401620001369190620006d9565b60405180910390fd5b6200015081620001a160201b60201c565b5081600860006101000a81548173ffffffffffffffffffffffffffffffffffffffff021916908373ffffffffffffffffffffffffffffffffffffffff160217905550806009819055505050620006f6565b6000600660009054906101000a900473ffffffffffffffffffffffffffffffffffffffff16905081600660006101000a81548173ffffffffffffffffffffffffffffffffffffffff021916908373ffffffffffffffffffffffffffffffffffffffff1602179055508173ffffffffffffffffffffffffffffffffffffffff168173ffffffffffffffffffffffffffffffffffffffff167f8be0079c531659141344cd1fd0a4f28419497f9722a3daafe3b4186f6b6457e060405160405180910390a35050565b600080fd5b600073ffffffffffffffffffffffffffffffffffffffff82169050919050565b600062000299826200026c565b9050919050565b6000620002ad826200028c565b9050919050565b620002bf81620002a0565b8114620002cb57600080fd5b50565b600081519050620002df81620002b4565b92915050565b6000819050919050565b620002fa81620002e5565b81146200030657600080fd5b50565b6000815190506200031a81620002ef565b92915050565b600080604083850312156200033a576200033962000267565b5b60006200034a85828601620002ce565b92505060206200035d8582860162000309565b9150509250929050565b600081519050919050565b7f4e487b7100000000000000000000000000000000000000000000000000000000600052604160045260246000fd5b7f4e487b7100000000000000000000000000000000000000000000000000000000600052602260045260246000fd5b60006002820490506001821680620003e957607f821691505b602082108103620003ff57620003fe620003a1565b5b50919050565b60008190508160005260206000209050919050565b60006020601f8301049050919050565b600082821b905092915050565b600060088302620004697fffffffffffffffffffffffffffffffffffffffffffffffffffffffffffffffff826200042a565b6200047586836200042a565b95508019841693508086168417925050509392505050565b6000819050919050565b6000819050919050565b6000620004c2620004bc620004b6846200048d565b62000497565b6200048d565b9050919050565b6000819050919050565b620004de83620004a1565b620004f6620004ed82620004c9565b84845462000437565b825550505050565b600090565b6200050d620004fe565b6200051a818484620004d3565b505050565b5b8181101562000542576200053660008262000503565b60018101905062000520565b5050565b601f82111562000591576200055b8162000405565b62000566846200041a565b8101602085101562000576578190505b6200058e62000585856200041a565b8301826200051f565b50505b505050565b600082821c905092915050565b6000620005b66000198460080262000596565b1980831691505092915050565b6000620005d18383620005a3565b9150826002028217905092915050565b620005ec8262000367565b67ffffffffffffffff81111562000608576200060762000372565b5b620006148254620003d0565b6200062182828562000546565b600060209050601f83116001811462000659576000841562000644578287015190505b620006508582620005c3565b865550620006c0565b601f198416620006698662000405565b60005b8281101562000693578489015182556001820191506020850194506020810190506200066c565b86831015620006b35784890151620006af601f891682620005a3565b8355505b6001600288020188555050505b505050505050565b620006d3816200028c565b82525050565b6000602082019050620006f06000830184620006c8565b92915050565b6135db80620007066000396000f3fe608060405234801561001057600080fd5b50600436106101e55760003560e01c806396e494e81161010f578063c87b56dd116100a2578063e985e9c511610071578063e985e9c5146105a2578063f2fde38b146105d2578063f6a74ed7146105ee578063fca247ac1461060a576101e5565b8063c87b56dd146104f4578063d6e4fa8614610524578063da8c229e14610554578063ddf7fcb014610584576101e5565b8063a7fc7a07116100de578063a7fc7a071461046e578063b88d4fde1461048a578063c1a287e2146104a6578063c475abff146104c4576101e5565b806396e494e8146103e85780639abc832014610418578063a0bcfc7f14610436578063a22cb46514610452576101e5565b80633f15457f1161018757806370a082311161015657806370a0823114610372578063715018a6146103a25780638da5cb5b146103ac57806395d89b41146103ca576101e5565b80633f15457f146102ec57806342842e0e1461030a5780634e543b26146103265780636352211e14610342576101e5565b8063095ea7b3116101c3578063095ea7b3146102685780630e297b451461028457806323b872dd146102b457806328ed4f6c146102d0576101e5565b806301ffc9a7146101ea57806306fdde031461021a578063081812fc14610238575b600080fd5b61020460048036038101906101ff919061269a565b61063a565b60405161021191906126e2565b60405180910390f35b610222610884565b60405161022f919061278d565b60405180910390f35b610252600480360381019061024d91906127e5565b610916565b60405161025f9190612853565b60405180910390f35b610282600480360381019061027d919061289a565b610932565b005b61029e600480360381019061029991906128da565b610948565b6040516102ab919061293c565b60405180910390f35b6102ce60048036038101906102c99190612957565b610960565b005b6102ea60048036038101906102e591906129aa565b610a62565b005b6102f4610b21565b6040516103019190612a49565b60405180910390f35b610324600480360381019061031f9190612957565b610b47565b005b610340600480360381019061033b9190612a64565b610b67565b005b61035c600480360381019061035791906127e5565b610c03565b6040516103699190612853565b60405180910390f35b61038c60048036038101906103879190612a64565b610c34565b604051610399919061293c565b60405180910390f35b6103aa610cee565b005b6103b4610d02565b6040516103c19190612853565b60405180910390f35b6103d2610d2c565b6040516103df919061278d565b60405180910390f35b61040260048036038101906103fd91906127e5565b610dbe565b60405161040f91906126e2565b60405180910390f35b610420610deb565b60405161042d919061278d565b60405180910390f35b610450600480360381019061044b9190612bc6565b610e79565b005b61046c60048036038101906104679190612c3b565b610e94565b005b61048860048036038101906104839190612a64565b610eaa565b005b6104a4600480360381019061049f9190612d1c565b610f50565b005b6104ae610f6d565b6040516104bb919061293c565b60405180910390f35b6104de60048036038101906104d99190612d9f565b610f74565b6040516104eb919061293c565b60405180910390f35b61050e600480360381019061050991906127e5565b611173565b60405161051b919061278d565b60405180910390f35b61053e600480360381019061053991906127e5565b6111dc565b60405161054b919061293c565b60405180910390f35b61056e60048036038101906105699190612a64565b6111f9565b60405161057b91906126e2565b60405180910390f35b61058c611219565b6040516105999190612df8565b60405180910390f35b6105bc60048036038101906105b79190612e13565b61121f565b6040516105c991906126e2565b60405180910390f35b6105ec60048036038101906105e79190612a64565b6112b3565b005b61060860048036038101906106039190612a64565b611339565b005b610624600480360381019061061f91906128da565b6113df565b604051610631919061293c565b60405180910390f35b60007f01ffc9a7a5cef8baa21ed3c5c0d7e23accb804b619e9333b597f47a0d84076e27bffffffffffffffffffffffffffffffffffffffffffffffffffffffff1916827bffffffffffffffffffffffffffffffffffffffffffffffffffffffff1916148061081557507fb88d4fde60196325a28bb7f99a2582e0b46de55b18761e960c14ad7a320994657f42842e0eb38857a7775b4e7364b2775df7325074d088e7fb39590cd6281184ed7f23b872dd7302113369cda2901243429419bec145408fa8b352b3dd92b66c680b7fe985e9c5c6636c6879256001057b28ccac7718ef0ac56553ff9b926452cab8a37fa22cb4651ab9570f89bb516380c40ce76762284fb1f21337ceaf6adab99e7d4a7f081812fc55e34fdc7cf5d8b5cf4e3621fa6423fde952ec6ab24afdc0d85c0b2e7f095ea7b334ae44009aa867bfb386f5c3b4b443ac6f0ee573fa91c4608fbadfba7f6352211e6566aa027e75ac9dbf2423197fbd9b82b9d981a3ab367d355866aa1c7f70a08231b98ef4ca268c9cc3f6b4590e4bfec28280db06bb5d45e689f2a360be18181818181818187bffffffffffffffffffffffffffffffffffffffffffffffffffffffff1916827bffffffffffffffffffffffffffffffffffffffffffffffffffffffff1916145b8061087d57507f28ed4f6c74b219a5819055dfbcd2f1837c046c364cf01fabb6799e4f440d6f137bffffffffffffffffffffffffffffffffffffffffffffffffffffffff1916827bffffffffffffffffffffffffffffffffffffffffffffffffffffffff1916145b9050919050565b60606000805461089390612e82565b80601f01602080910402602001604051908101604052809291908181526020018280546108bf90612e82565b801561090c5780601f106108e15761010080835404028352916020019161090c565b820191906000526020600020905b8154815290600101906020018083116108ef57829003601f168201915b5050505050905090565b6000610921826113f7565b5061092b8261147f565b9050919050565b610944828261093f6114bc565b6114c4565b5050565b600061095784848460006114d6565b90509392505050565b600073ffffffffffffffffffffffffffffffffffffffff168273ffffffffffffffffffffffffffffffffffffffff16036109d25760006040517f64a0ae920000000000000000000000000000000000000000000000000000000081526004016109c99190612853565b60405180910390fd5b60006109e683836109e16114bc565b611741565b90508373ffffffffffffffffffffffffffffffffffffffff168173ffffffffffffffffffffffffffffffffffffffff1614610a5c578382826040517f64283d7b000000000000000000000000000000000000000000000000000000008152600401610a5393929190612eb3565b60405180910390fd5b50505050565b610a6c338361195b565b610a7557600080fd5b600860009054906101000a900473ffffffffffffffffffffffffffffffffffffffff1673ffffffffffffffffffffffffffffffffffffffff166306ab59236009548460001b846040518463ffffffff1660e01b8152600401610ad993929190612eea565b6020604051808303816000875af1158015610af8573d6000803e3d6000fd5b505050506040513d601f19601f82011682018060405250810190610b1c9190612f4d565b505050565b600860009054906101000a900473ffffffffffffffffffffffffffffffffffffffff1681565b610b6283838360405180602001604052806000815250610f50565b505050565b610b6f6119f0565b600860009054906101000a900473ffffffffffffffffffffffffffffffffffffffff1673ffffffffffffffffffffffffffffffffffffffff16631896f70a600954836040518363ffffffff1660e01b8152600401610bce929190612f7a565b600060405180830381600087803b158015610be857600080fd5b505af1158015610bfc573d6000803e3d6000fd5b5050505050565b600042600760008481526020019081526020016000205411610c2457600080fd5b610c2d82611a77565b9050919050565b60008073ffffffffffffffffffffffffffffffffffffffff168273ffffffffffffffffffffffffffffffffffffffff1603610ca75760006040517f89c62b64000000000000000000000000000000000000000000000000000000008152600401610c9e9190612853565b60405180910390fd5b600360008373ffffffffffffffffffffffffffffffffffffffff1673ffffffffffffffffffffffffffffffffffffffff168152602001908152602001600020549050919050565b610cf66119f0565b610d006000611a89565b565b6000600660009054906101000a900473ffffffffffffffffffffffffffffffffffffffff16905090565b606060018054610d3b90612e82565b80601f0160208091040260200160405190810160405280929190818152602001828054610d6790612e82565b8015610db45780601f10610d8957610100808354040283529160200191610db4565b820191906000526020600020905b815481529060010190602001808311610d9757829003601f168201915b5050505050905090565b6000426276a7006007600085815260200190815260200160002054610de39190612fd2565b109050919050565b600b8054610df890612e82565b80601f0160208091040260200160405190810160405280929190818152602001828054610e2490612e82565b8015610e715780601f10610e4657610100808354040283529160200191610e71565b820191906000526020600020905b815481529060010190602001808311610e5457829003601f168201915b505050505081565b610e816119f0565b80600b9081610e9091906131a8565b5050565b610ea6610e9f6114bc565b8383611b4f565b5050565b610eb26119f0565b6001600a60008373ffffffffffffffffffffffffffffffffffffffff1673ffffffffffffffffffffffffffffffffffffffff16815260200190815260200160002060006101000a81548160ff0219169083151502179055508073ffffffffffffffffffffffffffffffffffffffff167f0a8bb31534c0ed46f380cb867bd5c803a189ced9a764e30b3a4991a9901d747460405160405180910390a250565b610f5b848484610960565b610f6784848484611cbe565b50505050565b6276a70081565b6000600a60003373ffffffffffffffffffffffffffffffffffffffff1673ffffffffffffffffffffffffffffffffffffffff16815260200190815260200160002060009054906101000a900460ff16611002576040517f08c379a0000000000000000000000000000000000000000000000000000000008152600401610ff9906132c6565b60405180910390fd5b426276a70060076000868152602001908152602001600020546110259190612fd2565b1015611066576040517f08c379a000000000000000000000000000000000000000000000000000000000815260040161105d90613358565b60405180910390fd5b6276a700826110759190612fd2565b6276a7008360076000878152602001908152602001600020546110989190612fd2565b6110a29190612fd2565b116110e2576040517f08c379a00000000000000000000000000000000000000000000000000000000081526004016110d9906133ea565b60405180910390fd5b816007600085815260200190815260200160002060008282546111059190612fd2565b92505081905550827f9b87a00e30f1ac65d898f070f8a3488fe60517182d0a2098e1b4b93a54aa9bd6600760008681526020019081526020016000205460405161114f919061293c565b60405180910390a26007600084815260200190815260200160002054905092915050565b606061117e826113f7565b506000611189611e75565b905060008151116111a957604051806020016040528060008152506111d4565b806111b384611f07565b6040516020016111c4929190613446565b6040516020818303038152906040525b915050919050565b600060076000838152602001908152602001600020549050919050565b600a6020528060005260406000206000915054906101000a900460ff1681565b60095481565b6000600560008473ffffffffffffffffffffffffffffffffffffffff1673ffffffffffffffffffffffffffffffffffffffff16815260200190815260200160002060008373ffffffffffffffffffffffffffffffffffffffff1673ffffffffffffffffffffffffffffffffffffffff16815260200190815260200160002060009054906101000a900460ff16905092915050565b6112bb6119f0565b600073ffffffffffffffffffffffffffffffffffffffff168173ffffffffffffffffffffffffffffffffffffffff160361132d5760006040517f1e4fbdf70000000000000000000000000000000000000000000000000000000081526004016113249190612853565b60405180910390fd5b61133681611a89565b50565b6113416119f0565b6000600a60008373ffffffffffffffffffffffffffffffffffffffff1673ffffffffffffffffffffffffffffffffffffffff16815260200190815260200160002060006101000a81548160ff0219169083151502179055508073ffffffffffffffffffffffffffffffffffffffff167f33d83959be2573f5453b12eb9d43b3499bc57d96bd2f067ba44803c859e8111360405160405180910390a250565b60006113ee84848460016114d6565b90509392505050565b60008061140383611fd5565b9050600073ffffffffffffffffffffffffffffffffffffffff168173ffffffffffffffffffffffffffffffffffffffff160361147657826040517f7e27328900000000000000000000000000000000000000000000000000000000815260040161146d919061293c565b60405180910390fd5b80915050919050565b60006004600083815260200190815260200160002060009054906101000a900473ffffffffffffffffffffffffffffffffffffffff169050919050565b600033905090565b6114d18383836001612012565b505050565b6000600a60003373ffffffffffffffffffffffffffffffffffffffff1673ffffffffffffffffffffffffffffffffffffffff16815260200190815260200160002060009054906101000a900460ff16611564576040517f08c379a000000000000000000000000000000000000000000000000000000000815260040161155b906132c6565b60405180910390fd5b61156d85610dbe565b61157657600080fd5b6276a700426115859190612fd2565b6276a70084426115959190612fd2565b61159f9190612fd2565b116115a957600080fd5b82426115b59190612fd2565b600760008781526020019081526020016000208190555060006115d786611fd5565b9050600073ffffffffffffffffffffffffffffffffffffffff168173ffffffffffffffffffffffffffffffffffffffff161461161757611616866121d7565b5b611621858761225d565b82156116d057600860009054906101000a900473ffffffffffffffffffffffffffffffffffffffff1673ffffffffffffffffffffffffffffffffffffffff166306ab59236009548860001b886040518463ffffffff1660e01b815260040161168b93929190612eea565b6020604051808303816000875af11580156116aa573d6000803e3d6000fd5b505050506040513d601f19601f820116820180604052508101906116ce9190612f4d565b505b8473ffffffffffffffffffffffffffffffffffffffff16867fb3d987963d01b2f68493b4bdb130988f157ea43070d4ad840fee0466ed9370d986426117159190612fd2565b604051611722919061293c565b60405180910390a383426117369190612fd2565b915050949350505050565b60008061174d84611fd5565b9050600073ffffffffffffffffffffffffffffffffffffffff168373ffffffffffffffffffffffffffffffffffffffff161461178f5761178e818486612356565b5b600073ffffffffffffffffffffffffffffffffffffffff168173ffffffffffffffffffffffffffffffffffffffff1614611820576117d1600085600080612012565b6001600360008373ffffffffffffffffffffffffffffffffffffffff1673ffffffffffffffffffffffffffffffffffffffff168152602001908152602001600020600082825403925050819055505b600073ffffffffffffffffffffffffffffffffffffffff168573ffffffffffffffffffffffffffffffffffffffff16146118a3576001600360008773ffffffffffffffffffffffffffffffffffffffff1673ffffffffffffffffffffffffffffffffffffffff168152602001908152602001600020600082825401925050819055505b846002600086815260200190815260200160002060006101000a81548173ffffffffffffffffffffffffffffffffffffffff021916908373ffffffffffffffffffffffffffffffffffffffff160217905550838573ffffffffffffffffffffffffffffffffffffffff168273ffffffffffffffffffffffffffffffffffffffff167fddf252ad1be2c89b69c2b068fc378daa952ba7f163c4a11628f55a4df523b3ef60405160405180910390a4809150509392505050565b60008061196783610c03565b90508073ffffffffffffffffffffffffffffffffffffffff168473ffffffffffffffffffffffffffffffffffffffff1614806119d657508373ffffffffffffffffffffffffffffffffffffffff166119be84610916565b73ffffffffffffffffffffffffffffffffffffffff16145b806119e757506119e6818561121f565b5b91505092915050565b6119f86114bc565b73ffffffffffffffffffffffffffffffffffffffff16611a16610d02565b73ffffffffffffffffffffffffffffffffffffffff1614611a7557611a396114bc565b6040517f118cdaa7000000000000000000000000000000000000000000000000000000008152600401611a6c9190612853565b60405180910390fd5b565b6000611a82826113f7565b9050919050565b6000600660009054906101000a900473ffffffffffffffffffffffffffffffffffffffff16905081600660006101000a81548173ffffffffffffffffffffffffffffffffffffffff021916908373ffffffffffffffffffffffffffffffffffffffff1602179055508173ffffffffffffffffffffffffffffffffffffffff168173ffffffffffffffffffffffffffffffffffffffff167f8be0079c531659141344cd1fd0a4f28419497f9722a3daafe3b4186f6b6457e060405160405180910390a35050565b600073ffffffffffffffffffffffffffffffffffffffff168273ffffffffffffffffffffffffffffffffffffffff1603611bc057816040517f5b08ba18000000000000000000000000000000000000000000000000000000008152600401611bb79190612853565b60405180910390fd5b80600560008573ffffffffffffffffffffffffffffffffffffffff1673ffffffffffffffffffffffffffffffffffffffff16815260200190815260200160002060008473ffffffffffffffffffffffffffffffffffffffff1673ffffffffffffffffffffffffffffffffffffffff16815260200190815260200160002060006101000a81548160ff0219169083151502179055508173ffffffffffffffffffffffffffffffffffffffff168373ffffffffffffffffffffffffffffffffffffffff167f17307eab39ab6107e8899845ad3d59bd9653f200f220920489ca2b5937696c3183604051611cb191906126e2565b60405180910390a3505050565b60008373ffffffffffffffffffffffffffffffffffffffff163b1115611e6f578273ffffffffffffffffffffffffffffffffffffffff1663150b7a02611d026114bc565b8685856040518563ffffffff1660e01b8152600401611d2494939291906134bf565b6020604051808303816000875af1925050508015611d6057506040513d601f19601f82011682018060405250810190611d5d9190613520565b60015b611de4573d8060008114611d90576040519150601f19603f3d011682016040523d82523d6000602084013e611d95565b606091505b506000815103611ddc57836040517f64a0ae92000000000000000000000000000000000000000000000000000000008152600401611dd39190612853565b60405180910390fd5b805181602001fd5b63150b7a0260e01b7bffffffffffffffffffffffffffffffffffffffffffffffffffffffff1916817bffffffffffffffffffffffffffffffffffffffffffffffffffffffff191614611e6d57836040517f64a0ae92000000000000000000000000000000000000000000000000000000008152600401611e649190612853565b60405180910390fd5b505b50505050565b6060600b8054611e8490612e82565b80601f0160208091040260200160405190810160405280929190818152602001828054611eb090612e82565b8015611efd5780601f10611ed257610100808354040283529160200191611efd565b820191906000526020600020905b815481529060010190602001808311611ee057829003601f168201915b5050505050905090565b606060006001611f168461241a565b01905060008167ffffffffffffffff811115611f3557611f34612a9b565b5b6040519080825280601f01601f191660200182016040528015611f675781602001600182028036833780820191505090505b509050600082602001820190505b600115611fca578080600190039150507f3031323334353637383961626364656600000000000000000000000000000000600a86061a8153600a8581611fbe57611fbd61354d565b5b04945060008503611f75575b819350505050919050565b60006002600083815260200190815260200160002060009054906101000a900473ffffffffffffffffffffffffffffffffffffffff169050919050565b808061204b5750600073ffffffffffffffffffffffffffffffffffffffff168273ffffffffffffffffffffffffffffffffffffffff1614155b1561217f57600061205b846113f7565b9050600073ffffffffffffffffffffffffffffffffffffffff168373ffffffffffffffffffffffffffffffffffffffff16141580156120c657508273ffffffffffffffffffffffffffffffffffffffff168173ffffffffffffffffffffffffffffffffffffffff1614155b80156120d957506120d7818461121f565b155b1561211b57826040517fa9fbf51f0000000000000000000000000000000000000000000000000000000081526004016121129190612853565b60405180910390fd5b811561217d57838573ffffffffffffffffffffffffffffffffffffffff168273ffffffffffffffffffffffffffffffffffffffff167f8c5be1e5ebec7d5bd14f71427d1e84f3dd0314c0f7b2291e5b200ac8c7c3b92560405160405180910390a45b505b836004600085815260200190815260200160002060006101000a81548173ffffffffffffffffffffffffffffffffffffffff021916908373ffffffffffffffffffffffffffffffffffffffff16021790555050505050565b60006121e66000836000611741565b9050600073ffffffffffffffffffffffffffffffffffffffff168173ffffffffffffffffffffffffffffffffffffffff160361225957816040517f7e273289000000000000000000000000000000000000000000000000000000008152600401612250919061293c565b60405180910390fd5b5050565b600073ffffffffffffffffffffffffffffffffffffffff168273ffffffffffffffffffffffffffffffffffffffff16036122cf5760006040517f64a0ae920000000000000000000000000000000000000000000000000000000081526004016122c69190612853565b60405180910390fd5b60006122dd83836000611741565b9050600073ffffffffffffffffffffffffffffffffffffffff168173ffffffffffffffffffffffffffffffffffffffff16146123515760006040517f73c6ac6e0000000000000000000000000000000000000000000000000000000081526004016123489190612853565b60405180910390fd5b505050565b61236183838361256d565b61241557600073ffffffffffffffffffffffffffffffffffffffff168373ffffffffffffffffffffffffffffffffffffffff16036123d657806040517f7e2732890000000000000000000000000000000000000000000000000000000081526004016123cd919061293c565b60405180910390fd5b81816040517f177e802f00000000000000000000000000000000000000000000000000000000815260040161240c92919061357c565b60405180910390fd5b505050565b600080600090507a184f03e93ff9f4daa797ed6e38ed64bf6a1f0100000000000000008310612478577a184f03e93ff9f4daa797ed6e38ed64bf6a1f010000000000000000838161246e5761246d61354d565b5b0492506040810190505b6d04ee2d6d415b85acef810000000083106124b5576d04ee2d6d415b85acef810000000083816124ab576124aa61354d565b5b0492506020810190505b662386f26fc1000083106124e457662386f26fc1000083816124da576124d961354d565b5b0492506010810190505b6305f5e100831061250d576305f5e10083816125035761250261354d565b5b0492506008810190505b61271083106125325761271083816125285761252761354d565b5b0492506004810190505b60648310612555576064838161254b5761254a61354d565b5b0492506002810190505b600a8310612564576001810190505b80915050919050565b60008073ffffffffffffffffffffffffffffffffffffffff168373ffffffffffffffffffffffffffffffffffffffff161415801561262557508273ffffffffffffffffffffffffffffffffffffffff168473ffffffffffffffffffffffffffffffffffffffff1614806125e657506125e5848461121f565b5b8061262457508273ffffffffffffffffffffffffffffffffffffffff1661260c8361147f565b73ffffffffffffffffffffffffffffffffffffffff16145b5b90509392505050565b6000604051905090565b600080fd5b600080fd5b60007fffffffff0000000000000000000000000000000000000000000000000000000082169050919050565b61267781612642565b811461268257600080fd5b50565b6000813590506126948161266e565b92915050565b6000602082840312156126b0576126af612638565b5b60006126be84828501612685565b91505092915050565b60008115159050919050565b6126dc816126c7565b82525050565b60006020820190506126f760008301846126d3565b92915050565b600081519050919050565b600082825260208201905092915050565b60005b8381101561273757808201518184015260208101905061271c565b60008484015250505050565b6000601f19601f8301169050919050565b600061275f826126fd565b6127698185612708565b9350612779818560208601612719565b61278281612743565b840191505092915050565b600060208201905081810360008301526127a78184612754565b905092915050565b6000819050919050565b6127c2816127af565b81146127cd57600080fd5b50565b6000813590506127df816127b9565b92915050565b6000602082840312156127fb576127fa612638565b5b6000612809848285016127d0565b91505092915050565b600073ffffffffffffffffffffffffffffffffffffffff82169050919050565b600061283d82612812565b9050919050565b61284d81612832565b82525050565b60006020820190506128686000830184612844565b92915050565b61287781612832565b811461288257600080fd5b50565b6000813590506128948161286e565b92915050565b600080604083850312156128b1576128b0612638565b5b60006128bf85828601612885565b92505060206128d0858286016127d0565b9150509250929050565b6000806000606084860312156128f3576128f2612638565b5b6000612901868287016127d0565b935050602061291286828701612885565b9250506040612923868287016127d0565b9150509250925092565b612936816127af565b82525050565b6000602082019050612951600083018461292d565b92915050565b6000806000606084860312156129705761296f612638565b5b600061297e86828701612885565b935050602061298f86828701612885565b92505060406129a0868287016127d0565b9150509250925092565b600080604083850312156129c1576129c0612638565b5b60006129cf858286016127d0565b92505060206129e085828601612885565b9150509250929050565b6000819050919050565b6000612a0f612a0a612a0584612812565b6129ea565b612812565b9050919050565b6000612a21826129f4565b9050919050565b6000612a3382612a16565b9050919050565b612a4381612a28565b82525050565b6000602082019050612a5e6000830184612a3a565b92915050565b600060208284031215612a7a57612a79612638565b5b6000612a8884828501612885565b91505092915050565b600080fd5b600080fd5b7f4e487b7100000000000000000000000000000000000000000000000000000000600052604160045260246000fd5b612ad382612743565b810181811067ffffffffffffffff82111715612af257612af1612a9b565b5b80604052505050565b6000612b0561262e565b9050612b118282612aca565b919050565b600067ffffffffffffffff821115612b3157612b30612a9b565b5b612b3a82612743565b9050602081019050919050565b82818337600083830152505050565b6000612b69612b6484612b16565b612afb565b905082815260208101848484011115612b8557612b84612a96565b5b612b90848285612b47565b509392505050565b600082601f830112612bad57612bac612a91565b5b8135612bbd848260208601612b56565b91505092915050565b600060208284031215612bdc57612bdb612638565b5b600082013567ffffffffffffffff811115612bfa57612bf961263d565b5b612c0684828501612b98565b91505092915050565b612c18816126c7565b8114612c2357600080fd5b50565b600081359050612c3581612c0f565b92915050565b60008060408385031215612c5257612c51612638565b5b6000612c6085828601612885565b9250506020612c7185828601612c26565b9150509250929050565b600067ffffffffffffffff821115612c9657612c95612a9b565b5b612c9f82612743565b9050602081019050919050565b6000612cbf612cba84612c7b565b612afb565b905082815260208101848484011115612cdb57612cda612a96565b5b612ce6848285612b47565b509392505050565b600082601f830112612d0357612d02612a91565b5b8135612d13848260208601612cac565b91505092915050565b60008060008060808587031215612d3657612d35612638565b5b6000612d4487828801612885565b9450506020612d5587828801612885565b9350506040612d66878288016127d0565b925050606085013567ffffffffffffffff811115612d8757612d8661263d565b5b612d9387828801612cee565b91505092959194509250565b60008060408385031215612db657612db5612638565b5b6000612dc4858286016127d0565b9250506020612dd5858286016127d0565b9150509250929050565b6000819050919050565b612df281612ddf565b82525050565b6000602082019050612e0d6000830184612de9565b92915050565b60008060408385031215612e2a57612e29612638565b5b6000612e3885828601612885565b9250506020612e4985828601612885565b9150509250929050565b7f4e487b7100000000000000000000000000000000000000000000000000000000600052602260045260246000fd5b60006002820490506001821680612e9a57607f821691505b602082108103612ead57612eac612e53565b5b50919050565b6000606082019050612ec86000830186612844565b612ed5602083018561292d565b612ee26040830184612844565b949350505050565b6000606082019050612eff6000830186612de9565b612f0c6020830185612de9565b612f196040830184612844565b949350505050565b612f2a81612ddf565b8114612f3557600080fd5b50565b600081519050612f4781612f21565b92915050565b600060208284031215612f6357612f62612638565b5b6000612f7184828501612f38565b91505092915050565b6000604082019050612f8f6000830185612de9565b612f9c6020830184612844565b9392505050565b7f4e487b7100000000000000000000000000000000000000000000000000000000600052601160045260246000fd5b6000612fdd826127af565b9150612fe8836127af565b925082820190508082111561300057612fff612fa3565b5b92915050565b60008190508160005260206000209050919050565b60006020601f8301049050919050565b600082821b905092915050565b6000600883026130687fffffffffffffffffffffffffffffffffffffffffffffffffffffffffffffffff8261302b565b613072868361302b565b95508019841693508086168417925050509392505050565b60006130a56130a061309b846127af565b6129ea565b6127af565b9050919050565b6000819050919050565b6130bf8361308a565b6130d36130cb826130ac565b848454613038565b825550505050565b600090565b6130e86130db565b6130f38184846130b6565b505050565b5b818110156131175761310c6000826130e0565b6001810190506130f9565b5050565b601f82111561315c5761312d81613006565b6131368461301b565b81016020851015613145578190505b6131596131518561301b565b8301826130f8565b50505b505050565b600082821c905092915050565b600061317f60001984600802613161565b1980831691505092915050565b6000613198838361316e565b9150826002028217905092915050565b6131b1826126fd565b67ffffffffffffffff8111156131ca576131c9612a9b565b5b6131d48254612e82565b6131df82828561311b565b600060209050601f8311600181146132125760008415613200578287015190505b61320a858261318c565b865550613272565b601f19841661322086613006565b60005b8281101561324857848901518255600182019150602085019450602081019050613223565b868310156132655784890151613261601f89168261316e565b8355505b6001600288020188555050505b505050505050565b7f596f7520617265206e6f7420636f6e74726f6c6c657200000000000000000000600082015250565b60006132b0601683612708565b91506132bb8261327a565b602082019050919050565b600060208201905081810360008301526132df816132a3565b9050919050565b7f4e616d65206d7573742062652072656769737465726564206f7220696e20677260008201527f61636520706572696f6400000000000000000000000000000000000000000000602082015250565b6000613342602a83612708565b915061334d826132e6565b604082019050919050565b6000602082019050818103600083015261337181613335565b9050919050565b7f4e616d65206475726174696f6e206d75737420626520696e207468652066757460008201527f7572650000000000000000000000000000000000000000000000000000000000602082015250565b60006133d4602383612708565b91506133df82613378565b604082019050919050565b60006020820190508181036000830152613403816133c7565b9050919050565b600081905092915050565b6000613420826126fd565b61342a818561340a565b935061343a818560208601612719565b80840191505092915050565b60006134528285613415565b915061345e8284613415565b91508190509392505050565b600081519050919050565b600082825260208201905092915050565b60006134918261346a565b61349b8185613475565b93506134ab818560208601612719565b6134b481612743565b840191505092915050565b60006080820190506134d46000830187612844565b6134e16020830186612844565b6134ee604083018561292d565b81810360608301526135008184613486565b905095945050505050565b60008151905061351a8161266e565b92915050565b60006020828403121561353657613535612638565b5b60006135448482850161350b565b91505092915050565b7f4e487b7100000000000000000000000000000000000000000000000000000000600052601260045260246000fd5b60006040820190506135916000830185612844565b61359e602083018461292d565b939250505056fea26469706673582212208e39034d621d18eb740569640365f98c6cd5d707cc495065de3e4db9ecad28aa64736f6c63430008140033608060405234801561001057600080fd5b5033600073ffffffffffffffffffffffffffffffffffffffff168173ffffffffffffffffffffffffffffffffffffffff16036100845760006040517f1e4fbdf700000000000000000000000000000000000000000000000000000000815260040161007b919061019e565b60405180910390fd5b6100938161009960201b60201c565b506101b9565b60008060009054906101000a900473ffffffffffffffffffffffffffffffffffffffff169050816000806101000a81548173ffffffffffffffffffffffffffffffffffffffff021916908373ffffffffffffffffffffffffffffffffffffffff1602179055508173ffffffffffffffffffffffffffffffffffffffff168173ffffffffffffffffffffffffffffffffffffffff167f8be0079c531659141344cd1fd0a4f28419497f9722a3daafe3b4186f6b6457e060405160405180910390a35050565b600073ffffffffffffffffffffffffffffffffffffffff82169050919050565b60006101888261015d565b9050919050565b6101988161017d565b82525050565b60006020820190506101b3600083018461018f565b92915050565b610cc5806101c86000396000f3fe608060405234801561001057600080fd5b506004361061009e5760003560e01c80638da5cb5b116100665780638da5cb5b14610135578063a200e15314610153578063cd5d2c7414610171578063d820ed421461018f578063f2fde38b146101ad5761009e565b806319b989a0146100a35780632c0fd74c146100d357806359b6b86c146100f1578063715018a61461010f57806379cf92d314610119575b600080fd5b6100bd60048036038101906100b89190610843565b6101c9565b6040516100ca91906108e1565b60405180910390f35b6100db6102dc565b6040516100e8919061090b565b60405180910390f35b6100f96102e2565b604051610106919061090b565b60405180910390f35b6101176102e8565b005b610133600480360381019061012e9190610a75565b6102fc565b005b61013d6103b1565b60405161014a9190610aff565b60405180910390f35b61015b6103da565b604051610168919061090b565b60405180910390f35b6101796103e0565b604051610186919061090b565b60405180910390f35b6101976103e6565b6040516101a4919061090b565b60405180910390f35b6101c760048036038101906101c29190610b46565b6103ec565b005b6101d161077a565b600061022085858080601f016020809104026020016040519081016040528093929190818152602001838380828437600081840152601f19601f82011690508083019250505050505050610472565b9050600060058210610241578360055461023a9190610ba2565b90506102ac565b6004820361025e57836004546102579190610ba2565b90506102ab565b6003820361027b57836003546102749190610ba2565b90506102aa565b6002820361029857836002546102919190610ba2565b90506102a9565b836001546102a69190610ba2565b90505b5b5b5b60405180604001604052806305f5e100836102c79190610ba2565b81526020016000815250925050509392505050565b60015481565b60055481565b6102f0610627565b6102fa60006106ae565b565b610304610627565b8060008151811061031857610317610be4565b5b60200260200101516001819055508060018151811061033a57610339610be4565b5b60200260200101516002819055508060028151811061035c5761035b610be4565b5b60200260200101516003819055508060038151811061037e5761037d610be4565b5b6020026020010151600481905550806004815181106103a05761039f610be4565b5b602002602001015160058190555050565b60008060009054906101000a900473ffffffffffffffffffffffffffffffffffffffff16905090565b60035481565b60025481565b60045481565b6103f4610627565b600073ffffffffffffffffffffffffffffffffffffffff168173ffffffffffffffffffffffffffffffffffffffff16036104665760006040517f1e4fbdf700000000000000000000000000000000000000000000000000000000815260040161045d9190610aff565b60405180910390fd5b61046f816106ae565b50565b60008060008084519050600092505b8082101561061c57600085838151811061049e5761049d610be4565b5b602001015160f81c60f81b9050608060f81b817effffffffffffffffffffffffffffffffffffffffffffffffffffffffffffff191610156104ed576001836104e69190610c13565b9250610608565b60e060f81b817effffffffffffffffffffffffffffffffffffffffffffffffffffffffffffff1916101561052f576002836105289190610c13565b9250610607565b60f060f81b817effffffffffffffffffffffffffffffffffffffffffffffffffffffffffffff191610156105715760038361056a9190610c13565b9250610606565b60f8801b817effffffffffffffffffffffffffffffffffffffffffffffffffffffffffffff191610156105b2576004836105ab9190610c13565b9250610605565b60fc60f81b817effffffffffffffffffffffffffffffffffffffffffffffffffffffffffffff191610156105f4576005836105ed9190610c13565b9250610604565b6006836106019190610c13565b92505b5b5b5b5b50828061061490610c47565b935050610481565b829350505050919050565b61062f610772565b73ffffffffffffffffffffffffffffffffffffffff1661064d6103b1565b73ffffffffffffffffffffffffffffffffffffffff16146106ac57610670610772565b6040517f118cdaa70000000000000000000000000000000000000000000000000000000081526004016106a39190610aff565b60405180910390fd5b565b60008060009054906101000a900473ffffffffffffffffffffffffffffffffffffffff169050816000806101000a81548173ffffffffffffffffffffffffffffffffffffffff021916908373ffffffffffffffffffffffffffffffffffffffff1602179055508173ffffffffffffffffffffffffffffffffffffffff168173ffffffffffffffffffffffffffffffffffffffff167f8be0079c531659141344cd1fd0a4f28419497f9722a3daafe3b4186f6b6457e060405160405180910390a35050565b600033905090565b604051806040016040528060008152602001600081525090565b6000604051905090565b600080fd5b600080fd5b600080fd5b600080fd5b600080fd5b60008083601f8401126107cd576107cc6107a8565b5b8235905067ffffffffffffffff8111156107ea576107e96107ad565b5b602083019150836001820283011115610806576108056107b2565b5b9250929050565b6000819050919050565b6108208161080d565b811461082b57600080fd5b50565b60008135905061083d81610817565b92915050565b60008060006040848603121561085c5761085b61079e565b5b600084013567ffffffffffffffff81111561087a576108796107a3565b5b610886868287016107b7565b935093505060206108998682870161082e565b9150509250925092565b6108ac8161080d565b82525050565b6040820160008201516108c860008501826108a3565b5060208201516108db60208501826108a3565b50505050565b60006040820190506108f660008301846108b2565b92915050565b6109058161080d565b82525050565b600060208201905061092060008301846108fc565b92915050565b6000601f19601f8301169050919050565b7f4e487b7100000000000000000000000000000000000000000000000000000000600052604160045260246000fd5b61096f82610926565b810181811067ffffffffffffffff8211171561098e5761098d610937565b5b80604052505050565b60006109a1610794565b90506109ad8282610966565b919050565b600067ffffffffffffffff8211156109cd576109cc610937565b5b602082029050602081019050919050565b60006109f16109ec846109b2565b610997565b90508083825260208201905060208402830185811115610a1457610a136107b2565b5b835b81811015610a3d5780610a29888261082e565b845260208401935050602081019050610a16565b5050509392505050565b600082601f830112610a5c57610a5b6107a8565b5b8135610a6c8482602086016109de565b91505092915050565b600060208284031215610a8b57610a8a61079e565b5b600082013567ffffffffffffffff811115610aa957610aa86107a3565b5b610ab584828501610a47565b91505092915050565b600073ffffffffffffffffffffffffffffffffffffffff82169050919050565b6000610ae982610abe565b9050919050565b610af981610ade565b82525050565b6000602082019050610b146000830184610af0565b92915050565b610b2381610ade565b8114610b2e57600080fd5b50565b600081359050610b4081610b1a565b92915050565b600060208284031215610b5c57610b5b61079e565b5b6000610b6a84828501610b31565b91505092915050565b7f4e487b7100000000000000000000000000000000000000000000000000000000600052601160045260246000fd5b6000610bad8261080d565b9150610bb88361080d565b9250828202610bc68161080d565b91508282048414831517610bdd57610bdc610b73565b5b5092915050565b7f4e487b7100000000000000000000000000000000000000000000000000000000600052603260045260246000fd5b6000610c1e8261080d565b9150610c298361080d565b9250828201905080821115610c4157610c40610b73565b5b92915050565b6000610c528261080d565b91507fffffffffffffffffffffffffffffffffffffffffffffffffffffffffffffffff8203610c8457610c83610b73565b5b60018201905091905056fea2646970667358221220a5664d745bd37116d62c189d67cdf85fe86b5916ab5625a28fbfb8c5ea05ca3664736f6c634300081400336101006040523480156200001257600080fd5b506040516200323738038062003237833981810160405281019062000038919062000573565b803333600073ffffffffffffffffffffffffffffffffffffffff168173ffffffffffffffffffffffffffffffffffffffff1603620000b05760006040517f1e4fbdf7000000000000000000000000000000000000000000000000000000008152600401620000a7919062000620565b60405180910390fd5b620000c1816200032760201b60201c565b5060008273ffffffffffffffffffffffffffffffffffffffff166302571be37f91d1777781884d03a6757a803996e38de2a42967fb37eeaca72729271025a9e260001b6040518263ffffffff1660e01b815260040162000122919062000658565b602060405180830381865afa15801562000140573d6000803e3d6000fd5b505050506040513d601f19601f82011682018060405250810190620001669190620006a6565b90508073ffffffffffffffffffffffffffffffffffffffff16631e83409a836040518263ffffffff1660e01b8152600401620001a3919062000620565b6020604051808303816000875af1158015620001c3573d6000803e3d6000fd5b505050506040513d601f19601f82011682018060405250810190620001e9919062000709565b5050505083831162000227576040517f3e5aa83800000000000000000000000000000000000000000000000000000000815260040160405180910390fd5b4283111562000262576040517f2d0c679400000000000000000000000000000000000000000000000000000000815260040160405180910390fd5b8573ffffffffffffffffffffffffffffffffffffffff1660808173ffffffffffffffffffffffffffffffffffffffff168152505084600160006101000a81548173ffffffffffffffffffffffffffffffffffffffff021916908373ffffffffffffffffffffffffffffffffffffffff1602179055508360a081815250508260c081815250508173ffffffffffffffffffffffffffffffffffffffff1660e08173ffffffffffffffffffffffffffffffffffffffff16815250505050505050506200073b565b60008060009054906101000a900473ffffffffffffffffffffffffffffffffffffffff169050816000806101000a81548173ffffffffffffffffffffffffffffffffffffffff021916908373ffffffffffffffffffffffffffffffffffffffff1602179055508173ffffffffffffffffffffffffffffffffffffffff168173ffffffffffffffffffffffffffffffffffffffff167f8be0079c531659141344cd1fd0a4f28419497f9722a3daafe3b4186f6b6457e060405160405180910390a35050565b600080fd5b600073ffffffffffffffffffffffffffffffffffffffff82169050919050565b60006200041d82620003f0565b9050919050565b6000620004318262000410565b9050919050565b620004438162000424565b81146200044f57600080fd5b50565b600081519050620004638162000438565b92915050565b6000620004768262000410565b9050919050565b620004888162000469565b81146200049457600080fd5b50565b600081519050620004a8816200047d565b92915050565b6000819050919050565b620004c381620004ae565b8114620004cf57600080fd5b50565b600081519050620004e381620004b8565b92915050565b6000620004f68262000410565b9050919050565b6200050881620004e9565b81146200051457600080fd5b50565b6000815190506200052881620004fd565b92915050565b60006200053b8262000410565b9050919050565b6200054d816200052e565b81146200055957600080fd5b50565b6000815190506200056d8162000542565b92915050565b60008060008060008060c08789031215620005935762000592620003eb565b5b6000620005a389828a0162000452565b9650506020620005b689828a0162000497565b9550506040620005c989828a01620004d2565b9450506060620005dc89828a01620004d2565b9350506080620005ef89828a0162000517565b92505060a06200060289828a016200055c565b9150509295509295509295565b6200061a8162000410565b82525050565b60006020820190506200063760008301846200060f565b92915050565b6000819050919050565b62000652816200063d565b82525050565b60006020820190506200066f600083018462000647565b92915050565b620006808162000410565b81146200068c57600080fd5b50565b600081519050620006a08162000675565b92915050565b600060208284031215620006bf57620006be620003eb565b5b6000620006cf848285016200068f565b91505092915050565b620006e3816200063d565b8114620006ef57600080fd5b50565b6000815190506200070381620006d8565b92915050565b600060208284031215620007225762000721620003eb565b5b60006200073284828501620006f2565b91505092915050565b60805160a05160c05160e051612a986200079f60003960008181610b8901526113a2015260008181610f9f01528181610fea0152611190015260008181610c79015261110d0152600081816106d901528181610d920152610ef90152612a986000f3fe60806040526004361061011f5760003560e01c80638a95b09f116100a0578063aeb8ce9b11610064578063aeb8ce9b146103b9578063ce1e09c0146103f6578063d3419bf314610421578063f14fcbc81461044c578063f2fde38b146104755761011f565b80638a95b09f146102df5780638d839ffe1461030a5780638da5cb5b146103355780639791c09714610360578063acf1a8411461039d5761011f565b80635d3590d5116100e75780635d3590d5146101fa578063715018a614610223578063808698531461023a578063839df9451461026557806383e7f6ff146102a25761011f565b806301ffc9a714610124578063237592e8146101615780633ccfd60b1461017d5780633d4aa89e14610194578063530e784f146101d1575b600080fd5b34801561013057600080fd5b5061014b600480360381019061014691906117f5565b61049e565b604051610158919061183d565b60405180910390f35b61017b60048036038101906101769190611a09565b610570565b005b34801561018957600080fd5b50610192610905565b005b3480156101a057600080fd5b506101bb60048036038101906101b69190611c2c565b61095d565b6040516101c89190611d19565b60405180910390f35b3480156101dd57600080fd5b506101f860048036038101906101f39190611d72565b610a9b565b005b34801561020657600080fd5b50610221600480360381019061021c9190611d9f565b610ae7565b005b34801561022f57600080fd5b50610238610b73565b005b34801561024657600080fd5b5061024f610b87565b60405161025c9190611e51565b60405180910390f35b34801561027157600080fd5b5061028c60048036038101906102879190611e6c565b610bab565b6040516102999190611ea8565b60405180910390f35b3480156102ae57600080fd5b506102c960048036038101906102c49190611ec3565b610bc3565b6040516102d69190611f5d565b60405180910390f35b3480156102eb57600080fd5b506102f4610c70565b6040516103019190611ea8565b60405180910390f35b34801561031657600080fd5b5061031f610c77565b60405161032c9190611ea8565b60405180910390f35b34801561034157600080fd5b5061034a610c9b565b6040516103579190611f87565b60405180910390f35b34801561036c57600080fd5b5061038760048036038101906103829190611fa2565b610cc4565b604051610394919061183d565b60405180910390f35b6103b760048036038101906103b29190611feb565b610cda565b005b3480156103c557600080fd5b506103e060048036038101906103db9190611fa2565b610eda565b6040516103ed919061183d565b60405180910390f35b34801561040257600080fd5b5061040b610f9d565b6040516104189190611ea8565b60405180910390f35b34801561042d57600080fd5b50610436610fc1565b604051610443919061206c565b60405180910390f35b34801561045857600080fd5b50610473600480360381019061046e9190611e6c565b610fe7565b005b34801561048157600080fd5b5061049c60048036038101906104979190612087565b611084565b005b60007f01ffc9a7000000000000000000000000000000000000000000000000000000007bffffffffffffffffffffffffffffffffffffffffffffffffffffffff1916827bffffffffffffffffffffffffffffffffffffffffffffffffffffffff1916148061056957507fe2b3754c000000000000000000000000000000000000000000000000000000007bffffffffffffffffffffffffffffffffffffffffffffffffffffffff1916827bffffffffffffffffffffffffffffffffffffffffffffffffffffffff1916145b9050919050565b60006105c08a8a8080601f016020809104026020016040519081016040528093929190818152602001838380828437600081840152601f19601f8201169050808301925050505050505088610bc3565b9050806020015181600001516105d691906120e3565b34101561060f576040517f1101129400000000000000000000000000000000000000000000000000000000815260040160405180910390fd5b6106b18a8a8080601f016020809104026020016040519081016040528093929190818152602001838380828437600081840152601f19601f82011690508083019250505050505050886106ac8d8d8080601f016020809104026020016040519081016040528093929190818152602001838380828437600081840152601f19601f820116905080830192505050505050508c8c8c8c8c8c8c61095d565b61110a565b60008a8a6040516106c3929190612147565b6040518091039020905060008160001c905060007f000000000000000000000000000000000000000000000000000000000000000073ffffffffffffffffffffffffffffffffffffffff1663fca247ac83338d6040518463ffffffff1660e01b815260040161073493929190612160565b6020604051808303816000875af1158015610753573d6000803e3d6000fd5b505050506040513d601f19601f8201168201806040525081019061077791906121ac565b905060008787905011156107a9576107a8888e8e604051610799929190612147565b604051809103902089896112bd565b5b84156107ff576107fe8d8d8080601f016020809104026020016040519081016040528093929190818152602001838380828437600081840152601f19601f8201169050808301925050505050505089336113a0565b5b8a73ffffffffffffffffffffffffffffffffffffffff168d8d604051610826929190612147565b60405180910390207f69e37f151eb98a09618ddaa80c8cfaf1ce5996867c489f45b555b412271ebf278f8f886000015189602001518760405161086d959493929190612217565b60405180910390a38360200151846000015161088991906120e3565b3411156108f6573373ffffffffffffffffffffffffffffffffffffffff166108fc856020015186600001516108be91906120e3565b346108c99190612265565b9081150290604051600060405180830381858888f193505050501580156108f4573d6000803e3d6000fd5b505b50505050505050505050505050565b61090d611467565b610915610c9b565b73ffffffffffffffffffffffffffffffffffffffff166108fc479081150290604051600060405180830381858888f1935050505015801561095a573d6000803e3d6000fd5b50565b60008089805190602001209050600073ffffffffffffffffffffffffffffffffffffffff168673ffffffffffffffffffffffffffffffffffffffff161480156109aa575060011515831515145b156109e1576040517f406d917600000000000000000000000000000000000000000000000000000000815260040160405180910390fd5b600085859050118015610a205750600073ffffffffffffffffffffffffffffffffffffffff168673ffffffffffffffffffffffffffffffffffffffff16145b15610a57576040517fd3f605c400000000000000000000000000000000000000000000000000000000815260040160405180910390fd5b8089898989898989604051602001610a769897969594939291906123fd565b6040516020818303038152906040528051906020012091505098975050505050505050565b610aa3611467565b80600160006101000a81548173ffffffffffffffffffffffffffffffffffffffff021916908373ffffffffffffffffffffffffffffffffffffffff16021790555050565b610aef611467565b8273ffffffffffffffffffffffffffffffffffffffff1663a9059cbb83836040518363ffffffff1660e01b8152600401610b2a929190612475565b6020604051808303816000875af1158015610b49573d6000803e3d6000fd5b505050506040513d601f19601f82011682018060405250810190610b6d91906124b3565b50505050565b610b7b611467565b610b8560006114ee565b565b7f000000000000000000000000000000000000000000000000000000000000000081565b60026020528060005260406000206000915090505481565b610bcb61176f565b600160009054906101000a900473ffffffffffffffffffffffffffffffffffffffff1673ffffffffffffffffffffffffffffffffffffffff166319b989a084846040518363ffffffff1660e01b8152600401610c2892919061254e565b6040805180830381865afa158015610c44573d6000803e3d6000fd5b505050506040513d601f19601f82011682018060405250810190610c6891906125d3565b905092915050565b6224ea0081565b7f000000000000000000000000000000000000000000000000000000000000000081565b60008060009054906101000a900473ffffffffffffffffffffffffffffffffffffffff16905090565b60006002610cd1836115b2565b10159050919050565b60008383604051610cec929190612147565b6040518091039020905060008160001c90506000610d4e86868080601f016020809104026020016040519081016040528093929190818152602001838380828437600081840152601f19601f8201169050808301925050505050505085610bc3565b90508060000151341015610d8e576040517f1101129400000000000000000000000000000000000000000000000000000000815260040160405180910390fd5b60007f000000000000000000000000000000000000000000000000000000000000000073ffffffffffffffffffffffffffffffffffffffff1663c475abff84876040518363ffffffff1660e01b8152600401610deb929190612600565b6020604051808303816000875af1158015610e0a573d6000803e3d6000fd5b505050506040513d601f19601f82011682018060405250810190610e2e91906121ac565b90508160000151341115610e93573373ffffffffffffffffffffffffffffffffffffffff166108fc836000015134610e669190612265565b9081150290604051600060405180830381858888f19350505050158015610e91573d6000803e3d6000fd5b505b837f3da24c024582931cfaf8267d8ed24d13a82a8068d5bd337d30ec45cea4e506ae88883485604051610ec99493929190612629565b60405180910390a250505050505050565b60008082805190602001209050610ef083610cc4565b8015610f9557507f000000000000000000000000000000000000000000000000000000000000000073ffffffffffffffffffffffffffffffffffffffff166396e494e88260001c6040518263ffffffff1660e01b8152600401610f539190611ea8565b602060405180830381865afa158015610f70573d6000803e3d6000fd5b505050506040513d601f19601f82011682018060405250810190610f9491906124b3565b5b915050919050565b7f000000000000000000000000000000000000000000000000000000000000000081565b600160009054906101000a900473ffffffffffffffffffffffffffffffffffffffff1681565b427f0000000000000000000000000000000000000000000000000000000000000000600260008481526020019081526020016000205461102791906120e3565b1061106957806040517f0a059d710000000000000000000000000000000000000000000000000000000081526004016110609190611d19565b60405180910390fd5b42600260008381526020019081526020016000208190555050565b61108c611467565b600073ffffffffffffffffffffffffffffffffffffffff168173ffffffffffffffffffffffffffffffffffffffff16036110fe5760006040517f1e4fbdf70000000000000000000000000000000000000000000000000000000081526004016110f59190611f87565b60405180910390fd5b611107816114ee565b50565b427f0000000000000000000000000000000000000000000000000000000000000000600260008481526020019081526020016000205461114a91906120e3565b111561118d57806040517f5320bcf90000000000000000000000000000000000000000000000000000000081526004016111849190611d19565b60405180910390fd5b427f000000000000000000000000000000000000000000000000000000000000000060026000848152602001908152602001600020546111cd91906120e3565b1161120f57806040517fcb7690d70000000000000000000000000000000000000000000000000000000081526004016112069190611d19565b60405180910390fd5b61121883610eda565b61125957826040517f477707e80000000000000000000000000000000000000000000000000000000081526004016112509190612669565b60405180910390fd5b60026000828152602001908152602001600020600090556224ea008210156112b857816040517f9a71997b0000000000000000000000000000000000000000000000000000000081526004016112af9190611ea8565b60405180910390fd5b505050565b60007ffb5f84575b89b73c6f6a4b64bfa657505766152eaf7a7bdcc4ffe2c678d7282560001b846040516020016112f59291906126ac565b60405160208183030381529060405280519060200120905060008590508073ffffffffffffffffffffffffffffffffffffffff1663e32954eb8386866040518463ffffffff1660e01b815260040161134f939291906126d8565b6000604051808303816000875af115801561136e573d6000803e3d6000fd5b505050506040513d6000823e3d601f19601f82011682018060405250810190611397919061288c565b50505050505050565b7f000000000000000000000000000000000000000000000000000000000000000073ffffffffffffffffffffffffffffffffffffffff16637a806d6b338385876040516020016113f09190612937565b6040516020818303038152906040526040518563ffffffff1660e01b815260040161141e949392919061295d565b6020604051808303816000875af115801561143d573d6000803e3d6000fd5b505050506040513d601f19601f8201168201806040525081019061146191906129be565b50505050565b61146f611767565b73ffffffffffffffffffffffffffffffffffffffff1661148d610c9b565b73ffffffffffffffffffffffffffffffffffffffff16146114ec576114b0611767565b6040517f118cdaa70000000000000000000000000000000000000000000000000000000081526004016114e39190611f87565b60405180910390fd5b565b60008060009054906101000a900473ffffffffffffffffffffffffffffffffffffffff169050816000806101000a81548173ffffffffffffffffffffffffffffffffffffffff021916908373ffffffffffffffffffffffffffffffffffffffff1602179055508173ffffffffffffffffffffffffffffffffffffffff168173ffffffffffffffffffffffffffffffffffffffff167f8be0079c531659141344cd1fd0a4f28419497f9722a3daafe3b4186f6b6457e060405160405180910390a35050565b60008060008084519050600092505b8082101561175c5760008583815181106115de576115dd6129eb565b5b602001015160f81c60f81b9050608060f81b817effffffffffffffffffffffffffffffffffffffffffffffffffffffffffffff1916101561162d5760018361162691906120e3565b9250611748565b60e060f81b817effffffffffffffffffffffffffffffffffffffffffffffffffffffffffffff1916101561166f5760028361166891906120e3565b9250611747565b60f060f81b817effffffffffffffffffffffffffffffffffffffffffffffffffffffffffffff191610156116b1576003836116aa91906120e3565b9250611746565b60f8801b817effffffffffffffffffffffffffffffffffffffffffffffffffffffffffffff191610156116f2576004836116eb91906120e3565b9250611745565b60fc60f81b817effffffffffffffffffffffffffffffffffffffffffffffffffffffffffffff191610156117345760058361172d91906120e3565b9250611744565b60068361174191906120e3565b92505b5b5b5b5b50828061175490612a1a565b9350506115c1565b829350505050919050565b600033905090565b604051806040016040528060008152602001600081525090565b6000604051905090565b600080fd5b600080fd5b60007fffffffff0000000000000000000000000000000000000000000000000000000082169050919050565b6117d28161179d565b81146117dd57600080fd5b50565b6000813590506117ef816117c9565b92915050565b60006020828403121561180b5761180a611793565b5b6000611819848285016117e0565b91505092915050565b60008115159050919050565b61183781611822565b82525050565b6000602082019050611852600083018461182e565b92915050565b600080fd5b600080fd5b600080fd5b60008083601f84011261187d5761187c611858565b5b8235905067ffffffffffffffff81111561189a5761189961185d565b5b6020830191508360018202830111156118b6576118b5611862565b5b9250929050565b600073ffffffffffffffffffffffffffffffffffffffff82169050919050565b60006118e8826118bd565b9050919050565b6118f8816118dd565b811461190357600080fd5b50565b600081359050611915816118ef565b92915050565b6000819050919050565b61192e8161191b565b811461193957600080fd5b50565b60008135905061194b81611925565b92915050565b6000819050919050565b61196481611951565b811461196f57600080fd5b50565b6000813590506119818161195b565b92915050565b60008083601f84011261199d5761199c611858565b5b8235905067ffffffffffffffff8111156119ba576119b961185d565b5b6020830191508360208202830111156119d6576119d5611862565b5b9250929050565b6119e681611822565b81146119f157600080fd5b50565b600081359050611a03816119dd565b92915050565b600080600080600080600080600060e08a8c031215611a2b57611a2a611793565b5b60008a013567ffffffffffffffff811115611a4957611a48611798565b5b611a558c828d01611867565b99509950506020611a688c828d01611906565b9750506040611a798c828d0161193c565b9650506060611a8a8c828d01611972565b9550506080611a9b8c828d01611906565b94505060a08a013567ffffffffffffffff811115611abc57611abb611798565b5b611ac88c828d01611987565b935093505060c0611adb8c828d016119f4565b9150509295985092959850929598565b600080fd5b6000601f19601f8301169050919050565b7f4e487b7100000000000000000000000000000000000000000000000000000000600052604160045260246000fd5b611b3982611af0565b810181811067ffffffffffffffff82111715611b5857611b57611b01565b5b80604052505050565b6000611b6b611789565b9050611b778282611b30565b919050565b600067ffffffffffffffff821115611b9757611b96611b01565b5b611ba082611af0565b9050602081019050919050565b82818337600083830152505050565b6000611bcf611bca84611b7c565b611b61565b905082815260208101848484011115611beb57611bea611aeb565b5b611bf6848285611bad565b509392505050565b600082601f830112611c1357611c12611858565b5b8135611c23848260208601611bbc565b91505092915050565b60008060008060008060008060e0898b031215611c4c57611c4b611793565b5b600089013567ffffffffffffffff811115611c6a57611c69611798565b5b611c768b828c01611bfe565b9850506020611c878b828c01611906565b9750506040611c988b828c0161193c565b9650506060611ca98b828c01611972565b9550506080611cba8b828c01611906565b94505060a089013567ffffffffffffffff811115611cdb57611cda611798565b5b611ce78b828c01611987565b935093505060c0611cfa8b828c016119f4565b9150509295985092959890939650565b611d1381611951565b82525050565b6000602082019050611d2e6000830184611d0a565b92915050565b6000611d3f826118dd565b9050919050565b611d4f81611d34565b8114611d5a57600080fd5b50565b600081359050611d6c81611d46565b92915050565b600060208284031215611d8857611d87611793565b5b6000611d9684828501611d5d565b91505092915050565b600080600060608486031215611db857611db7611793565b5b6000611dc686828701611906565b9350506020611dd786828701611906565b9250506040611de88682870161193c565b9150509250925092565b6000819050919050565b6000611e17611e12611e0d846118bd565b611df2565b6118bd565b9050919050565b6000611e2982611dfc565b9050919050565b6000611e3b82611e1e565b9050919050565b611e4b81611e30565b82525050565b6000602082019050611e666000830184611e42565b92915050565b600060208284031215611e8257611e81611793565b5b6000611e9084828501611972565b91505092915050565b611ea28161191b565b82525050565b6000602082019050611ebd6000830184611e99565b92915050565b60008060408385031215611eda57611ed9611793565b5b600083013567ffffffffffffffff811115611ef857611ef7611798565b5b611f0485828601611bfe565b9250506020611f158582860161193c565b9150509250929050565b611f288161191b565b82525050565b604082016000820151611f446000850182611f1f565b506020820151611f576020850182611f1f565b50505050565b6000604082019050611f726000830184611f2e565b92915050565b611f81816118dd565b82525050565b6000602082019050611f9c6000830184611f78565b92915050565b600060208284031215611fb857611fb7611793565b5b600082013567ffffffffffffffff811115611fd657611fd5611798565b5b611fe284828501611bfe565b91505092915050565b60008060006040848603121561200457612003611793565b5b600084013567ffffffffffffffff81111561202257612021611798565b5b61202e86828701611867565b935093505060206120418682870161193c565b9150509250925092565b600061205682611e1e565b9050919050565b6120668161204b565b82525050565b6000602082019050612081600083018461205d565b92915050565b60006020828403121561209d5761209c611793565b5b60006120ab84828501611906565b91505092915050565b7f4e487b7100000000000000000000000000000000000000000000000000000000600052601160045260246000fd5b60006120ee8261191b565b91506120f98361191b565b9250828201905080821115612111576121106120b4565b5b92915050565b600081905092915050565b600061212e8385612117565b935061213b838584611bad565b82840190509392505050565b6000612154828486612122565b91508190509392505050565b60006060820190506121756000830186611e99565b6121826020830185611f78565b61218f6040830184611e99565b949350505050565b6000815190506121a681611925565b92915050565b6000602082840312156121c2576121c1611793565b5b60006121d084828501612197565b91505092915050565b600082825260208201905092915050565b60006121f683856121d9565b9350612203838584611bad565b61220c83611af0565b840190509392505050565b600060808201905081810360008301526122328187896121ea565b90506122416020830186611e99565b61224e6040830185611e99565b61225b6060830184611e99565b9695505050505050565b60006122708261191b565b915061227b8361191b565b9250828203905081811115612293576122926120b4565b5b92915050565b600082825260208201905092915050565b6000819050919050565b600082825260208201905092915050565b60006122d183856122b4565b93506122de838584611bad565b6122e783611af0565b840190509392505050565b60006122ff8484846122c5565b90509392505050565b600080fd5b600080fd5b600080fd5b6000808335600160200384360303811261233457612333612312565b5b83810192508235915060208301925067ffffffffffffffff82111561235c5761235b612308565b5b6001820236038313156123725761237161230d565b5b509250929050565b6000602082019050919050565b60006123938385612299565b9350836020840285016123a5846122aa565b8060005b878110156123eb5784840389526123c08284612317565b6123cb8682846122f2565b95506123d68461237a565b935060208b019a5050506001810190506123a9565b50829750879450505050509392505050565b600060e082019050612412600083018b611d0a565b61241f602083018a611f78565b61242c6040830189611e99565b6124396060830188611d0a565b6124466080830187611f78565b81810360a0830152612459818587612387565b905061246860c083018461182e565b9998505050505050505050565b600060408201905061248a6000830185611f78565b6124976020830184611e99565b9392505050565b6000815190506124ad816119dd565b92915050565b6000602082840312156124c9576124c8611793565b5b60006124d78482850161249e565b91505092915050565b600081519050919050565b60005b838110156125095780820151818401526020810190506124ee565b60008484015250505050565b6000612520826124e0565b61252a81856121d9565b935061253a8185602086016124eb565b61254381611af0565b840191505092915050565b600060408201905081810360008301526125688185612515565b90506125776020830184611e99565b9392505050565b600080fd5b6000604082840312156125995761259861257e565b5b6125a36040611b61565b905060006125b384828501612197565b60008301525060206125c784828501612197565b60208301525092915050565b6000604082840312156125e9576125e8611793565b5b60006125f784828501612583565b91505092915050565b60006040820190506126156000830185611e99565b6126226020830184611e99565b9392505050565b600060608201905081810360008301526126448186886121ea565b90506126536020830185611e99565b6126606040830184611e99565b95945050505050565b600060208201905081810360008301526126838184612515565b905092915050565b6000819050919050565b6126a66126a182611951565b61268b565b82525050565b60006126b88285612695565b6020820191506126c88284612695565b6020820191508190509392505050565b60006040820190506126ed6000830186611d0a565b8181036020830152612700818486612387565b9050949350505050565b600067ffffffffffffffff82111561272557612724611b01565b5b602082029050602081019050919050565b600067ffffffffffffffff82111561275157612750611b01565b5b61275a82611af0565b9050602081019050919050565b600061277a61277584612736565b611b61565b90508281526020810184848401111561279657612795611aeb565b5b6127a18482856124eb565b509392505050565b600082601f8301126127be576127bd611858565b5b81516127ce848260208601612767565b91505092915050565b60006127ea6127e58461270a565b611b61565b9050808382526020820190506020840283018581111561280d5761280c611862565b5b835b8181101561285457805167ffffffffffffffff81111561283257612831611858565b5b80860161283f89826127a9565b8552602085019450505060208101905061280f565b5050509392505050565b600082601f83011261287357612872611858565b5b81516128838482602086016127d7565b91505092915050565b6000602082840312156128a2576128a1611793565b5b600082015167ffffffffffffffff8111156128c0576128bf611798565b5b6128cc8482850161285e565b91505092915050565b600081905092915050565b60006128eb826124e0565b6128f581856128d5565b93506129058185602086016124eb565b80840191505092915050565b7f2e7a6b6600000000000000000000000000000000000000000000000000000000815250565b600061294382846128e0565b915061294e82612911565b60048201915081905092915050565b60006080820190506129726000830187611f78565b61297f6020830186611f78565b61298c6040830185611f78565b818103606083015261299e8184612515565b905095945050505050565b6000815190506129b88161195b565b92915050565b6000602082840312156129d4576129d3611793565b5b60006129e2848285016129a9565b91505092915050565b7f4e487b7100000000000000000000000000000000000000000000000000000000600052603260045260246000fd5b6000612a258261191b565b91507fffffffffffffffffffffffffffffffffffffffffffffffffffffffffffffffff8203612a5757612a566120b4565b5b60018201905091905056fea264697066735822122039d868c7e7c5ed49970f46867776b57dfd4659a36ab52420899b829128b01ffe64736f6c6343000814003360e06040523480156200001157600080fd5b506040516200564e3803806200564e83398181016040528101906200003791906200018b565b8273ffffffffffffffffffffffffffffffffffffffff1660808173ffffffffffffffffffffffffffffffffffffffff16815250508173ffffffffffffffffffffffffffffffffffffffff1660a08173ffffffffffffffffffffffffffffffffffffffff16815250508073ffffffffffffffffffffffffffffffffffffffff1660c08173ffffffffffffffffffffffffffffffffffffffff1681525050505050620001e7565b600080fd5b600073ffffffffffffffffffffffffffffffffffffffff82169050919050565b60006200010e82620000e1565b9050919050565b6000620001228262000101565b9050919050565b620001348162000115565b81146200014057600080fd5b50565b600081519050620001548162000129565b92915050565b620001658162000101565b81146200017157600080fd5b50565b60008151905062000185816200015a565b92915050565b600080600060608486031215620001a757620001a6620000dc565b5b6000620001b78682870162000143565b9350506020620001ca8682870162000174565b9250506040620001dd8682870162000174565b9150509250925092565b60805160a05160c051615437620002176000396000612705015260006126b00152600061276501526154376000f3fe608060405234801561001057600080fd5b50600436106101da5760003560e01c80638b95dd7111610104578063c8690233116100a2578063e32954eb11610071578063e32954eb146105d1578063e59d895d14610601578063e985e9c51461061d578063f1cb7e061461064d576101da565b8063c869023314610538578063ce3decdc14610569578063d5fa2b0014610585578063d700ff33146105a1576101da565b8063a8fa5682116100de578063a8fa568214610478578063a9784b3e146104a8578063ac9650d8146104d8578063bc1c58d114610508576101da565b80638b95dd7114610424578063a22cb46514610440578063a4b91a011461045c576101da565b80633603d7581161017c5780635c98042b1161014b5780635c98042b1461038c578063623195b0146103bc578063691f3431146103d85780637737221314610408576101da565b80633603d758146102e05780633b3b57de146102fc5780634cbf6ba41461032c57806359d1d43c1461035c576101da565b8063124a319c116101b8578063124a319c146102475780632203ab561461027757806329cd62ea146102a8578063304e6ade146102c4576101da565b806301ffc9a7146101df5780630af179d71461020f57806310f13a8c1461022b575b600080fd5b6101f960048036038101906101f49190613938565b61067d565b6040516102069190613980565b60405180910390f35b61022960048036038101906102249190613a36565b61068f565b005b61024560048036038101906102409190613aec565b610924565b005b610261600480360381019061025c9190613b81565b610a57565b60405161026e9190613c02565b60405180910390f35b610291600480360381019061028c9190613c53565b610eb2565b60405161029f929190613d32565b60405180910390f35b6102c260048036038101906102bd9190613d62565b611032565b005b6102de60048036038101906102d99190613a36565b611145565b005b6102fa60048036038101906102f59190613db5565b61123c565b005b61031660048036038101906103119190613db5565b611344565b6040516103239190613e03565b60405180910390f35b61034660048036038101906103419190613e1e565b611379565b6040516103539190613980565b60405180910390f35b61037660048036038101906103719190613e5e565b611408565b6040516103839190613f13565b60405180910390f35b6103a660048036038101906103a19190613db5565b611518565b6040516103b39190613f35565b60405180910390f35b6103d660048036038101906103d19190613f57565b611608565b005b6103f260048036038101906103ed9190613db5565b611720565b6040516103ff9190613f13565b60405180910390f35b610422600480360381019061041d9190613e5e565b611810565b005b61043e600480360381019061043991906140fb565b611907565b005b61045a600480360381019061045591906141c2565b611a56565b005b61047660048036038101906104719190614202565b611bc1565b005b610492600480360381019061048d919061428f565b611d2b565b60405161049f9190613f35565b60405180910390f35b6104c260048036038101906104bd91906142e2565b611e47565b6040516104cf9190613980565b60405180910390f35b6104f260048036038101906104ed919061438b565b611eed565b6040516104ff91906144e4565b60405180910390f35b610522600480360381019061051d9190613db5565b611f05565b60405161052f9190613f35565b60405180910390f35b610552600480360381019061054d9190613db5565b611ff5565b604051610560929190614515565b60405180910390f35b610583600480360381019061057e9190613a36565b6120a5565b005b61059f600480360381019061059a919061453e565b61226a565b005b6105bb60048036038101906105b69190613db5565b6122cc565b6040516105c891906145a1565b60405180910390f35b6105eb60048036038101906105e691906145bc565b6122f3565b6040516105f891906144e4565b60405180910390f35b61061b6004803603810190610616919061461c565b612309565b005b6106376004803603810190610632919061466f565b61249c565b6040516106449190613980565b60405180910390f35b61066760048036038101906106629190613c53565b612530565b6040516106749190613f35565b60405180910390f35b600061068882612632565b9050919050565b82610699816126ac565b6106d8576040517f08c379a00000000000000000000000000000000000000000000000000000000081526004016106cf90614721565b60405180910390fd5b6000806060806000806000808b815260200190815260200160002060009054906101000a900467ffffffffffffffff169050600061076460008b8b8080601f016020809104026020016040519081016040528093929190818152602001838380828437600081840152601f19601f8201169050808301925050505050505061285a90919063ffffffff16565b90505b61077081612884565b6108a65760008761ffff16036107cb57806040015196506107908161289a565b9450846040516020016107a3919061477d565b6040516020818303038152906040528051906020012092506107c4816128d1565b9350610898565b60006107d68261289a565b9050816040015161ffff168861ffff161415806108035750610801818761290a90919063ffffffff16565b155b156108965761086f8c878a8e8e8080601f016020809104026020016040519081016040528093929190818152602001838380828437600081840152601f19601f820116905080830192505050505050508b8c886020015161086491906147c3565b60008c51148a612931565b816040015197508160200151965080955085805190602001209350610893826128d1565b94505b505b6108a181612cb4565b610767565b50600084511115610918576109178a85888c8c8080601f016020809104026020016040519081016040528093929190818152602001838380828437600081840152601f19601f82011690508083019250505050505050898a8f8f905061090c91906147c3565b60008a511488612931565b5b50505050505050505050565b8461092e816126ac565b61096d576040517f08c379a000000000000000000000000000000000000000000000000000000000815260040161096490614721565b60405180910390fd5b8282600a60008060008b815260200190815260200160002060009054906101000a900467ffffffffffffffff1667ffffffffffffffff1667ffffffffffffffff168152602001908152602001600020600089815260200190815260200160002087876040516109dd929190614827565b908152602001604051809103902091826109f8929190614a57565b508484604051610a09929190614827565b6040518091039020867f448bc014f1536726cf8d54ff3d6481ed3cbc683c2591ca204274009afa09b1a187878787604051610a479493929190614b54565b60405180910390a3505050505050565b6000806007600080600087815260200190815260200160002060009054906101000a900467ffffffffffffffff1667ffffffffffffffff1667ffffffffffffffff16815260200190815260200160002060008581526020019081526020016000206000847bffffffffffffffffffffffffffffffffffffffffffffffffffffffff19167bffffffffffffffffffffffffffffffffffffffffffffffffffffffff1916815260200190815260200160002060009054906101000a900473ffffffffffffffffffffffffffffffffffffffff169050600073ffffffffffffffffffffffffffffffffffffffff168173ffffffffffffffffffffffffffffffffffffffff1614610b675780915050610eac565b6000610b7285611344565b9050600073ffffffffffffffffffffffffffffffffffffffff168173ffffffffffffffffffffffffffffffffffffffff1603610bb357600092505050610eac565b6000808273ffffffffffffffffffffffffffffffffffffffff167f01ffc9a700000000000000000000000000000000000000000000000000000000604051602401610bfe9190614b9e565b6040516020818303038152906040527f01ffc9a7000000000000000000000000000000000000000000000000000000007bffffffffffffffffffffffffffffffffffffffffffffffffffffffff19166020820180517bffffffffffffffffffffffffffffffffffffffffffffffffffffffff8381831617835250505050604051610c88919061477d565b600060405180830381855afa9150503d8060008114610cc3576040519150601f19603f3d011682016040523d82523d6000602084013e610cc8565b606091505b5091509150811580610cdb575060208151105b80610d295750600060f81b81601f81518110610cfa57610cf9614bb9565b5b602001015160f81c60f81b7effffffffffffffffffffffffffffffffffffffffffffffffffffffffffffff1916145b15610d3b576000945050505050610eac565b8273ffffffffffffffffffffffffffffffffffffffff1686604051602401610d639190614b9e565b6040516020818303038152906040527f01ffc9a7000000000000000000000000000000000000000000000000000000007bffffffffffffffffffffffffffffffffffffffffffffffffffffffff19166020820180517bffffffffffffffffffffffffffffffffffffffffffffffffffffffff8381831617835250505050604051610ded919061477d565b600060405180830381855afa9150503d8060008114610e28576040519150601f19603f3d011682016040523d82523d6000602084013e610e2d565b606091505b508092508193505050811580610e44575060208151105b80610e925750600060f81b81601f81518110610e6357610e62614bb9565b5b602001015160f81c60f81b7effffffffffffffffffffffffffffffffffffffffffffffffffffffffffffff1916145b15610ea4576000945050505050610eac565b829450505050505b92915050565b6000606060006001600080600088815260200190815260200160002060009054906101000a900467ffffffffffffffff1667ffffffffffffffff1667ffffffffffffffff168152602001908152602001600020600086815260200190815260200160002090506000600190505b84811161101257600085821614158015610f57575060008260008381526020019081526020016000208054610f539061487a565b9050115b156110065780826000838152602001908152602001600020808054610f7b9061487a565b80601f0160208091040260200160405190810160405280929190818152602001828054610fa79061487a565b8015610ff45780601f10610fc957610100808354040283529160200191610ff4565b820191906000526020600020905b815481529060010190602001808311610fd757829003601f168201915b5050505050905093509350505061102b565b600181901b9050610f1f565b5060006040518060200160405280600081525092509250505b9250929050565b8261103c816126ac565b61107b576040517f08c379a000000000000000000000000000000000000000000000000000000000815260040161107290614721565b60405180910390fd5b6040518060400160405280848152602001838152506009600080600088815260200190815260200160002060009054906101000a900467ffffffffffffffff1667ffffffffffffffff1667ffffffffffffffff16815260200190815260200160002060008681526020019081526020016000206000820151816000015560208201518160010155905050837f1d6f5e03d3f63eb58751986629a5439baee5079ff04f345becb66e23eb154e468484604051611137929190614515565b60405180910390a250505050565b8261114f816126ac565b61118e576040517f08c379a000000000000000000000000000000000000000000000000000000000815260040161118590614721565b60405180910390fd5b82826003600080600089815260200190815260200160002060009054906101000a900467ffffffffffffffff1667ffffffffffffffff1667ffffffffffffffff168152602001908152602001600020600087815260200190815260200160002091826111fb929190614c4e565b50837fe379c1624ed7e714cc0937528a32359d69d5281337765313dba4e081b72d7578848460405161122e929190614d4b565b60405180910390a250505050565b80611246816126ac565b611285576040517f08c379a000000000000000000000000000000000000000000000000000000000815260040161127c90614721565b60405180910390fd5b600080838152602001908152602001600020600081819054906101000a900467ffffffffffffffff16809291906112bb90614d6f565b91906101000a81548167ffffffffffffffff021916908367ffffffffffffffff16021790555050817fc6621ccb8f3f5a04bb6502154b2caf6adf5983fe76dfef1cfc9c42e3579db44460008085815260200190815260200160002060009054906101000a900467ffffffffffffffff1660405161133891906145a1565b60405180910390a25050565b60008061135283603c612530565b90506000815103611367576000915050611374565b61137081612dfa565b9150505b919050565b6000806006600080600087815260200190815260200160002060009054906101000a900467ffffffffffffffff1667ffffffffffffffff1667ffffffffffffffff1681526020019081526020016000206000858152602001908152602001600020600084815260200190815260200160002060009054906101000a900461ffff1661ffff161415905092915050565b6060600a600080600087815260200190815260200160002060009054906101000a900467ffffffffffffffff1667ffffffffffffffff1667ffffffffffffffff16815260200190815260200160002060008581526020019081526020016000208383604051611478929190614827565b908152602001604051809103902080546114919061487a565b80601f01602080910402602001604051908101604052809291908181526020018280546114bd9061487a565b801561150a5780601f106114df5761010080835404028352916020019161150a565b820191906000526020600020905b8154815290600101906020018083116114ed57829003601f168201915b505050505090509392505050565b60606004600080600085815260200190815260200160002060009054906101000a900467ffffffffffffffff1667ffffffffffffffff1667ffffffffffffffff168152602001908152602001600020600083815260200190815260200160002080546115839061487a565b80601f01602080910402602001604051908101604052809291908181526020018280546115af9061487a565b80156115fc5780601f106115d1576101008083540402835291602001916115fc565b820191906000526020600020905b8154815290600101906020018083116115df57829003601f168201915b50505050509050919050565b83611612816126ac565b611651576040517f08c379a000000000000000000000000000000000000000000000000000000000815260040161164890614721565b60405180910390fd5b60008460018661166191906147c3565b161461166c57600080fd5b8282600160008060008a815260200190815260200160002060009054906101000a900467ffffffffffffffff1667ffffffffffffffff1667ffffffffffffffff1681526020019081526020016000206000888152602001908152602001600020600087815260200190815260200160002091826116ea929190614c4e565b5083857faa121bbeef5f32f5961a2a28966e769023910fc9479059ee3495d4c1a696efe360405160405180910390a35050505050565b60606008600080600085815260200190815260200160002060009054906101000a900467ffffffffffffffff1667ffffffffffffffff1667ffffffffffffffff1681526020019081526020016000206000838152602001908152602001600020805461178b9061487a565b80601f01602080910402602001604051908101604052809291908181526020018280546117b79061487a565b80156118045780601f106117d957610100808354040283529160200191611804565b820191906000526020600020905b8154815290600101906020018083116117e757829003601f168201915b50505050509050919050565b8261181a816126ac565b611859576040517f08c379a000000000000000000000000000000000000000000000000000000000815260040161185090614721565b60405180910390fd5b82826008600080600089815260200190815260200160002060009054906101000a900467ffffffffffffffff1667ffffffffffffffff1667ffffffffffffffff168152602001908152602001600020600087815260200190815260200160002091826118c6929190614a57565b50837fb7d29e911041e8d9b843369e890bcb72c9388692ba48b65ac54e7214c4c348f784846040516118f9929190614d9f565b60405180910390a250505050565b82611911816126ac565b611950576040517f08c379a000000000000000000000000000000000000000000000000000000000815260040161194790614721565b60405180910390fd5b837f65412581168e88a1e60c6459d7f44ae83ad0832e670826c05a4e2476b57af7528484604051611982929190613d32565b60405180910390a2603c83036119d357837f52d7d861f09ab3d26239d492e8968629f95e9e318cf0b73bfddc441522a15fd26119bd84612dfa565b6040516119ca9190614e18565b60405180910390a25b816002600080600088815260200190815260200160002060009054906101000a900467ffffffffffffffff1667ffffffffffffffff1667ffffffffffffffff168152602001908152602001600020600086815260200190815260200160002060008581526020019081526020016000209081611a4f9190614e33565b5050505050565b8173ffffffffffffffffffffffffffffffffffffffff163373ffffffffffffffffffffffffffffffffffffffff1603611ac4576040517f08c379a0000000000000000000000000000000000000000000000000000000008152600401611abb90614f77565b60405180910390fd5b80600b60003373ffffffffffffffffffffffffffffffffffffffff1673ffffffffffffffffffffffffffffffffffffffff16815260200190815260200160002060008473ffffffffffffffffffffffffffffffffffffffff1673ffffffffffffffffffffffffffffffffffffffff16815260200190815260200160002060006101000a81548160ff0219169083151502179055508173ffffffffffffffffffffffffffffffffffffffff163373ffffffffffffffffffffffffffffffffffffffff167f17307eab39ab6107e8899845ad3d59bd9653f200f220920489ca2b5937696c3183604051611bb59190613980565b60405180910390a35050565b8173ffffffffffffffffffffffffffffffffffffffff163373ffffffffffffffffffffffffffffffffffffffff1603611c2f576040517f08c379a0000000000000000000000000000000000000000000000000000000008152600401611c2690614fe3565b60405180910390fd5b80600c60003373ffffffffffffffffffffffffffffffffffffffff1673ffffffffffffffffffffffffffffffffffffffff168152602001908152602001600020600085815260200190815260200160002060008473ffffffffffffffffffffffffffffffffffffffff1673ffffffffffffffffffffffffffffffffffffffff16815260200190815260200160002060006101000a81548160ff0219169083151502179055508015158273ffffffffffffffffffffffffffffffffffffffff16847ff0ddb3b04746704017f9aa8bd728fcc2c1d11675041205350018915f5e4750a033604051611d1e9190613c02565b60405180910390a4505050565b60606005600080600087815260200190815260200160002060009054906101000a900467ffffffffffffffff1667ffffffffffffffff1667ffffffffffffffff1681526020019081526020016000206000858152602001908152602001600020600084815260200190815260200160002060008361ffff1661ffff1681526020019081526020016000208054611dc09061487a565b80601f0160208091040260200160405190810160405280929190818152602001828054611dec9061487a565b8015611e395780601f10611e0e57610100808354040283529160200191611e39565b820191906000526020600020905b815481529060010190602001808311611e1c57829003601f168201915b505050505090509392505050565b6000600c60008573ffffffffffffffffffffffffffffffffffffffff1673ffffffffffffffffffffffffffffffffffffffff168152602001908152602001600020600084815260200190815260200160002060008373ffffffffffffffffffffffffffffffffffffffff1673ffffffffffffffffffffffffffffffffffffffff16815260200190815260200160002060009054906101000a900460ff1690509392505050565b6060611efd6000801b8484612e1d565b905092915050565b60606003600080600085815260200190815260200160002060009054906101000a900467ffffffffffffffff1667ffffffffffffffff1667ffffffffffffffff16815260200190815260200160002060008381526020019081526020016000208054611f709061487a565b80601f0160208091040260200160405190810160405280929190818152602001828054611f9c9061487a565b8015611fe95780601f10611fbe57610100808354040283529160200191611fe9565b820191906000526020600020905b815481529060010190602001808311611fcc57829003601f168201915b50505050509050919050565b600080600080600085815260200190815260200160002060009054906101000a900467ffffffffffffffff169050600960008267ffffffffffffffff1667ffffffffffffffff168152602001908152602001600020600085815260200190815260200160002060000154600960008367ffffffffffffffff1667ffffffffffffffff1681526020019081526020016000206000868152602001908152602001600020600101549250925050915091565b826120af816126ac565b6120ee576040517f08c379a00000000000000000000000000000000000000000000000000000000081526004016120e590614721565b60405180910390fd5b600080600086815260200190815260200160002060009054906101000a900467ffffffffffffffff1690506000600460008367ffffffffffffffff1667ffffffffffffffff1681526020019081526020016000206000878152602001908152602001600020805461215e9061487a565b80601f016020809104026020016040519081016040528092919081815260200182805461218a9061487a565b80156121d75780601f106121ac576101008083540402835291602001916121d7565b820191906000526020600020905b8154815290600101906020018083116121ba57829003601f168201915b505050505090508484600460008567ffffffffffffffff1667ffffffffffffffff16815260200190815260200160002060008981526020019081526020016000209182612225929190614c4e565b50857f8f15ed4b723ef428f250961da8315675b507046737e19319fc1a4d81bfe87f8582878760405161225a93929190615003565b60405180910390a2505050505050565b81612274816126ac565b6122b3576040517f08c379a00000000000000000000000000000000000000000000000000000000081526004016122aa90614721565b60405180910390fd5b6122c783603c6122c285612fec565b611907565b505050565b60006020528060005260406000206000915054906101000a900467ffffffffffffffff1681565b6060612300848484612e1d565b90509392505050565b82612313816126ac565b612352576040517f08c379a000000000000000000000000000000000000000000000000000000000815260040161234990614721565b60405180910390fd5b816007600080600088815260200190815260200160002060009054906101000a900467ffffffffffffffff1667ffffffffffffffff1667ffffffffffffffff16815260200190815260200160002060008681526020019081526020016000206000857bffffffffffffffffffffffffffffffffffffffffffffffffffffffff19167bffffffffffffffffffffffffffffffffffffffffffffffffffffffff1916815260200190815260200160002060006101000a81548173ffffffffffffffffffffffffffffffffffffffff021916908373ffffffffffffffffffffffffffffffffffffffff160217905550827bffffffffffffffffffffffffffffffffffffffffffffffffffffffff1916847f7c69f06bea0bdef565b709e93a147836b0063ba2dd89f02d0b7e8d931e6a6daa8460405161248e9190613c02565b60405180910390a350505050565b6000600b60008473ffffffffffffffffffffffffffffffffffffffff1673ffffffffffffffffffffffffffffffffffffffff16815260200190815260200160002060008373ffffffffffffffffffffffffffffffffffffffff1673ffffffffffffffffffffffffffffffffffffffff16815260200190815260200160002060009054906101000a900460ff16905092915050565b60606002600080600086815260200190815260200160002060009054906101000a900467ffffffffffffffff1667ffffffffffffffff1667ffffffffffffffff1681526020019081526020016000206000848152602001908152602001600020600083815260200190815260200160002080546125ac9061487a565b80601f01602080910402602001604051908101604052809291908181526020018280546125d89061487a565b80156126255780601f106125fa57610100808354040283529160200191612625565b820191906000526020600020905b81548152906001019060200180831161260857829003601f168201915b5050505050905092915050565b60007f59d1d43c000000000000000000000000000000000000000000000000000000007bffffffffffffffffffffffffffffffffffffffffffffffffffffffff1916827bffffffffffffffffffffffffffffffffffffffffffffffffffffffff191614806126a557506126a482613050565b5b9050919050565b60007f000000000000000000000000000000000000000000000000000000000000000073ffffffffffffffffffffffffffffffffffffffff163373ffffffffffffffffffffffffffffffffffffffff16148061275357507f000000000000000000000000000000000000000000000000000000000000000073ffffffffffffffffffffffffffffffffffffffff163373ffffffffffffffffffffffffffffffffffffffff16145b156127615760019050612855565b60007f000000000000000000000000000000000000000000000000000000000000000073ffffffffffffffffffffffffffffffffffffffff166302571be3846040518263ffffffff1660e01b81526004016127bc919061503c565b602060405180830381865afa1580156127d9573d6000803e3d6000fd5b505050506040513d601f19601f820116820180604052508101906127fd919061506c565b90503373ffffffffffffffffffffffffffffffffffffffff168173ffffffffffffffffffffffffffffffffffffffff16148061283f575061283e813361249c565b5b806128515750612850818433611e47565b5b9150505b919050565b612862613824565b828160000181905250818160c001818152505061287e81612cb4565b92915050565b6000816000015151826020015110159050919050565b60606128ca82602001516128b6846000015185602001516130ca565b84600001516131469092919063ffffffff16565b9050919050565b60606129038260a001518360a001518460c001516128ef91906147c3565b84600001516131469092919063ffffffff16565b9050919050565b600081518351148015612929575061292883600084600087516131db565b5b905092915050565b60008780519060200120905060006129548686896131469092919063ffffffff16565b90508315612b02576000600560008567ffffffffffffffff1667ffffffffffffffff16815260200190815260200160002060008c8152602001908152602001600020600084815260200190815260200160002060008a61ffff1661ffff16815260200190815260200160002080546129cb9061487a565b905014612a5557600660008467ffffffffffffffff1667ffffffffffffffff16815260200190815260200160002060008b81526020019081526020016000206000838152602001908152602001600020600081819054906101000a900461ffff1680929190612a3990615099565b91906101000a81548161ffff021916908361ffff160217905550505b600560008467ffffffffffffffff1667ffffffffffffffff16815260200190815260200160002060008b8152602001908152602001600020600083815260200190815260200160002060008961ffff1661ffff1681526020019081526020016000206000612ac3919061386f565b897f03528ed0c2a3ebc993b12ce3c16bb382f9c7d88ef7d8a1bf290eaf35955a12078a8a604051612af59291906150d1565b60405180910390a2612ca8565b6000600560008567ffffffffffffffff1667ffffffffffffffff16815260200190815260200160002060008c8152602001908152602001600020600084815260200190815260200160002060008a61ffff1661ffff1681526020019081526020016000208054612b719061487a565b905003612bfb57600660008467ffffffffffffffff1667ffffffffffffffff16815260200190815260200160002060008b81526020019081526020016000206000838152602001908152602001600020600081819054906101000a900461ffff1680929190612bdf90615101565b91906101000a81548161ffff021916908361ffff160217905550505b80600560008567ffffffffffffffff1667ffffffffffffffff16815260200190815260200160002060008c8152602001908152602001600020600084815260200190815260200160002060008a61ffff1661ffff1681526020019081526020016000209081612c6a9190614e33565b50897f52a608b3303a48862d07a73d82fa221318c0027fbbcfb1b2329bface3f19ff2b8a8a84604051612c9f9392919061512b565b60405180910390a25b50505050505050505050565b8060c0015181602001818152505080600001515181602001511015612df7576000612ce7826000015183602001516130ca565b8260200151612cf69190615170565b9050612d0f8183600001516131ff90919063ffffffff16565b826040019061ffff16908161ffff1681525050600281612d2f9190615170565b9050612d488183600001516131ff90919063ffffffff16565b826060019061ffff16908161ffff1681525050600281612d689190615170565b9050612d8181836000015161322e90919063ffffffff16565b826080019063ffffffff16908163ffffffff1681525050600481612da59190615170565b90506000612dc08284600001516131ff90919063ffffffff16565b61ffff169050600282612dd39190615170565b9150818360a00181815250508082612deb9190615170565b8360c001818152505050505b50565b60006014825114612e0a57600080fd5b600c6101000a6020830151049050919050565b60608282905067ffffffffffffffff811115612e3c57612e3b613fd0565b5b604051908082528060200260200182016040528015612e6f57816020015b6060815260200190600190039081612e5a5790505b50905060005b83839050811015612fe4576000801b8514612f14576000848483818110612e9f57612e9e614bb9565b5b9050602002810190612eb191906151b3565b600490602492612ec393929190615220565b90612ece919061525b565b9050858114612f12576040517f08c379a0000000000000000000000000000000000000000000000000000000008152600401612f099061532c565b60405180910390fd5b505b6000803073ffffffffffffffffffffffffffffffffffffffff16868685818110612f4157612f40614bb9565b5b9050602002810190612f5391906151b3565b604051612f61929190615371565b600060405180830381855af49150503d8060008114612f9c576040519150601f19603f3d011682016040523d82523d6000602084013e612fa1565b606091505b509150915081612fb057600080fd5b80848481518110612fc457612fc3614bb9565b5b602002602001018190525050508080612fdc9061538a565b915050612e75565b509392505050565b6060601467ffffffffffffffff81111561300957613008613fd0565b5b6040519080825280601f01601f19166020018201604052801561303b5781602001600182028036833780820191505090505b509050600c6101000a82026020820152919050565b60007fc8690233000000000000000000000000000000000000000000000000000000007bffffffffffffffffffffffffffffffffffffffffffffffffffffffff1916827bffffffffffffffffffffffffffffffffffffffffffffffffffffffff191614806130c357506130c28261325f565b5b9050919050565b6000808290505b60011561313157835181106130e9576130e86153d2565b5b60006130fe82866132d990919063ffffffff16565b60ff1690506001816131109190615170565b8261311b9190615170565b91506000810361312b5750613131565b506130d1565b828161313d91906147c3565b91505092915050565b6060835182846131569190615170565b111561316157600080fd5b60008267ffffffffffffffff81111561317d5761317c613fd0565b5b6040519080825280601f01601f1916602001820160405280156131af5781602001600182028036833780820191505090505b50905060008060208301915085602088010190506131ce828287613304565b8293505050509392505050565b60006131e8848484613368565b6131f3878785613368565b14905095945050505050565b600082516002836132109190615170565b111561321b57600080fd5b61ffff8260028501015116905092915050565b6000825160048361323f9190615170565b111561324a57600080fd5b63ffffffff8260048501015116905092915050565b60007f691f3431000000000000000000000000000000000000000000000000000000007bffffffffffffffffffffffffffffffffffffffffffffffffffffffff1916827bffffffffffffffffffffffffffffffffffffffffffffffffffffffff191614806132d257506132d182613394565b5b9050919050565b60008282815181106132ee576132ed614bb9565b5b602001015160f81c60f81b60f81c905092915050565b5b60208110613343578151835260208361331e9190615170565b925060208261332d9190615170565b915060208161333c91906147c3565b9050613305565b60006001826020036101000a0390508019835116818551168181178652505050505050565b6000835182846133789190615170565b111561338357600080fd5b818360208601012090509392505050565b60007f124a319c000000000000000000000000000000000000000000000000000000007bffffffffffffffffffffffffffffffffffffffffffffffffffffffff1916827bffffffffffffffffffffffffffffffffffffffffffffffffffffffff1916148061340757506134068261340e565b5b9050919050565b60007fa8fa5682000000000000000000000000000000000000000000000000000000007bffffffffffffffffffffffffffffffffffffffffffffffffffffffff1916827bffffffffffffffffffffffffffffffffffffffffffffffffffffffff191614806134d957507f5c98042b000000000000000000000000000000000000000000000000000000007bffffffffffffffffffffffffffffffffffffffffffffffffffffffff1916827bffffffffffffffffffffffffffffffffffffffffffffffffffffffff1916145b806134e957506134e8826134f0565b5b9050919050565b60007fbc1c58d1000000000000000000000000000000000000000000000000000000007bffffffffffffffffffffffffffffffffffffffffffffffffffffffff1916827bffffffffffffffffffffffffffffffffffffffffffffffffffffffff1916148061356357506135628261356a565b5b9050919050565b60007f3b3b57de000000000000000000000000000000000000000000000000000000007bffffffffffffffffffffffffffffffffffffffffffffffffffffffff1916827bffffffffffffffffffffffffffffffffffffffffffffffffffffffff1916148061363557507ff1cb7e06000000000000000000000000000000000000000000000000000000007bffffffffffffffffffffffffffffffffffffffffffffffffffffffff1916827bffffffffffffffffffffffffffffffffffffffffffffffffffffffff1916145b8061364557506136448261364c565b5b9050919050565b60007f2203ab56000000000000000000000000000000000000000000000000000000007bffffffffffffffffffffffffffffffffffffffffffffffffffffffff1916827bffffffffffffffffffffffffffffffffffffffffffffffffffffffff191614806136bf57506136be826136c6565b5b9050919050565b60007fd700ff33000000000000000000000000000000000000000000000000000000007bffffffffffffffffffffffffffffffffffffffffffffffffffffffff1916827bffffffffffffffffffffffffffffffffffffffffffffffffffffffff19161480613739575061373882613740565b5b9050919050565b60007f4fbf0433000000000000000000000000000000000000000000000000000000007bffffffffffffffffffffffffffffffffffffffffffffffffffffffff1916827bffffffffffffffffffffffffffffffffffffffffffffffffffffffff191614806137b357506137b2826137ba565b5b9050919050565b60007f01ffc9a7000000000000000000000000000000000000000000000000000000007bffffffffffffffffffffffffffffffffffffffffffffffffffffffff1916827bffffffffffffffffffffffffffffffffffffffffffffffffffffffff1916149050919050565b6040518060e001604052806060815260200160008152602001600061ffff168152602001600061ffff168152602001600063ffffffff16815260200160008152602001600081525090565b50805461387b9061487a565b6000825580601f1061388d57506138ac565b601f0160209004906000526020600020908101906138ab91906138af565b5b50565b5b808211156138c85760008160009055506001016138b0565b5090565b6000604051905090565b600080fd5b600080fd5b60007fffffffff0000000000000000000000000000000000000000000000000000000082169050919050565b613915816138e0565b811461392057600080fd5b50565b6000813590506139328161390c565b92915050565b60006020828403121561394e5761394d6138d6565b5b600061395c84828501613923565b91505092915050565b60008115159050919050565b61397a81613965565b82525050565b60006020820190506139956000830184613971565b92915050565b6000819050919050565b6139ae8161399b565b81146139b957600080fd5b50565b6000813590506139cb816139a5565b92915050565b600080fd5b600080fd5b600080fd5b60008083601f8401126139f6576139f56139d1565b5b8235905067ffffffffffffffff811115613a1357613a126139d6565b5b602083019150836001820283011115613a2f57613a2e6139db565b5b9250929050565b600080600060408486031215613a4f57613a4e6138d6565b5b6000613a5d868287016139bc565b935050602084013567ffffffffffffffff811115613a7e57613a7d6138db565b5b613a8a868287016139e0565b92509250509250925092565b60008083601f840112613aac57613aab6139d1565b5b8235905067ffffffffffffffff811115613ac957613ac86139d6565b5b602083019150836001820283011115613ae557613ae46139db565b5b9250929050565b600080600080600060608688031215613b0857613b076138d6565b5b6000613b16888289016139bc565b955050602086013567ffffffffffffffff811115613b3757613b366138db565b5b613b4388828901613a96565b9450945050604086013567ffffffffffffffff811115613b6657613b656138db565b5b613b7288828901613a96565b92509250509295509295909350565b60008060408385031215613b9857613b976138d6565b5b6000613ba6858286016139bc565b9250506020613bb785828601613923565b9150509250929050565b600073ffffffffffffffffffffffffffffffffffffffff82169050919050565b6000613bec82613bc1565b9050919050565b613bfc81613be1565b82525050565b6000602082019050613c176000830184613bf3565b92915050565b6000819050919050565b613c3081613c1d565b8114613c3b57600080fd5b50565b600081359050613c4d81613c27565b92915050565b60008060408385031215613c6a57613c696138d6565b5b6000613c78858286016139bc565b9250506020613c8985828601613c3e565b9150509250929050565b613c9c81613c1d565b82525050565b600081519050919050565b600082825260208201905092915050565b60005b83811015613cdc578082015181840152602081019050613cc1565b60008484015250505050565b6000601f19601f8301169050919050565b6000613d0482613ca2565b613d0e8185613cad565b9350613d1e818560208601613cbe565b613d2781613ce8565b840191505092915050565b6000604082019050613d476000830185613c93565b8181036020830152613d598184613cf9565b90509392505050565b600080600060608486031215613d7b57613d7a6138d6565b5b6000613d89868287016139bc565b9350506020613d9a868287016139bc565b9250506040613dab868287016139bc565b9150509250925092565b600060208284031215613dcb57613dca6138d6565b5b6000613dd9848285016139bc565b91505092915050565b6000613ded82613bc1565b9050919050565b613dfd81613de2565b82525050565b6000602082019050613e186000830184613df4565b92915050565b60008060408385031215613e3557613e346138d6565b5b6000613e43858286016139bc565b9250506020613e54858286016139bc565b9150509250929050565b600080600060408486031215613e7757613e766138d6565b5b6000613e85868287016139bc565b935050602084013567ffffffffffffffff811115613ea657613ea56138db565b5b613eb286828701613a96565b92509250509250925092565b600081519050919050565b600082825260208201905092915050565b6000613ee582613ebe565b613eef8185613ec9565b9350613eff818560208601613cbe565b613f0881613ce8565b840191505092915050565b60006020820190508181036000830152613f2d8184613eda565b905092915050565b60006020820190508181036000830152613f4f8184613cf9565b905092915050565b60008060008060608587031215613f7157613f706138d6565b5b6000613f7f878288016139bc565b9450506020613f9087828801613c3e565b935050604085013567ffffffffffffffff811115613fb157613fb06138db565b5b613fbd878288016139e0565b925092505092959194509250565b600080fd5b7f4e487b7100000000000000000000000000000000000000000000000000000000600052604160045260246000fd5b61400882613ce8565b810181811067ffffffffffffffff8211171561402757614026613fd0565b5b80604052505050565b600061403a6138cc565b90506140468282613fff565b919050565b600067ffffffffffffffff82111561406657614065613fd0565b5b61406f82613ce8565b9050602081019050919050565b82818337600083830152505050565b600061409e6140998461404b565b614030565b9050828152602081018484840111156140ba576140b9613fcb565b5b6140c584828561407c565b509392505050565b600082601f8301126140e2576140e16139d1565b5b81356140f284826020860161408b565b91505092915050565b600080600060608486031215614114576141136138d6565b5b6000614122868287016139bc565b935050602061413386828701613c3e565b925050604084013567ffffffffffffffff811115614154576141536138db565b5b614160868287016140cd565b9150509250925092565b61417381613be1565b811461417e57600080fd5b50565b6000813590506141908161416a565b92915050565b61419f81613965565b81146141aa57600080fd5b50565b6000813590506141bc81614196565b92915050565b600080604083850312156141d9576141d86138d6565b5b60006141e785828601614181565b92505060206141f8858286016141ad565b9150509250929050565b60008060006060848603121561421b5761421a6138d6565b5b6000614229868287016139bc565b935050602061423a86828701614181565b925050604061424b868287016141ad565b9150509250925092565b600061ffff82169050919050565b61426c81614255565b811461427757600080fd5b50565b60008135905061428981614263565b92915050565b6000806000606084860312156142a8576142a76138d6565b5b60006142b6868287016139bc565b93505060206142c7868287016139bc565b92505060406142d88682870161427a565b9150509250925092565b6000806000606084860312156142fb576142fa6138d6565b5b600061430986828701614181565b935050602061431a868287016139bc565b925050604061432b86828701614181565b9150509250925092565b60008083601f84011261434b5761434a6139d1565b5b8235905067ffffffffffffffff811115614368576143676139d6565b5b602083019150836020820283011115614384576143836139db565b5b9250929050565b600080602083850312156143a2576143a16138d6565b5b600083013567ffffffffffffffff8111156143c0576143bf6138db565b5b6143cc85828601614335565b92509250509250929050565b600081519050919050565b600082825260208201905092915050565b6000819050602082019050919050565b600082825260208201905092915050565b600061442082613ca2565b61442a8185614404565b935061443a818560208601613cbe565b61444381613ce8565b840191505092915050565b600061445a8383614415565b905092915050565b6000602082019050919050565b600061447a826143d8565b61448481856143e3565b935083602082028501614496856143f4565b8060005b858110156144d257848403895281516144b3858261444e565b94506144be83614462565b925060208a0199505060018101905061449a565b50829750879550505050505092915050565b600060208201905081810360008301526144fe818461446f565b905092915050565b61450f8161399b565b82525050565b600060408201905061452a6000830185614506565b6145376020830184614506565b9392505050565b60008060408385031215614555576145546138d6565b5b6000614563858286016139bc565b925050602061457485828601614181565b9150509250929050565b600067ffffffffffffffff82169050919050565b61459b8161457e565b82525050565b60006020820190506145b66000830184614592565b92915050565b6000806000604084860312156145d5576145d46138d6565b5b60006145e3868287016139bc565b935050602084013567ffffffffffffffff811115614604576146036138db565b5b61461086828701614335565b92509250509250925092565b600080600060608486031215614635576146346138d6565b5b6000614643868287016139bc565b935050602061465486828701613923565b925050604061466586828701614181565b9150509250925092565b60008060408385031215614686576146856138d6565b5b600061469485828601614181565b92505060206146a585828601614181565b9150509250929050565b7f4e6f7420617574686f72697a656420746f20616363657373205265736f6c766560008201527f7242617365000000000000000000000000000000000000000000000000000000602082015250565b600061470b602583613ec9565b9150614716826146af565b604082019050919050565b6000602082019050818103600083015261473a816146fe565b9050919050565b600081905092915050565b600061475782613ca2565b6147618185614741565b9350614771818560208601613cbe565b80840191505092915050565b6000614789828461474c565b915081905092915050565b7f4e487b7100000000000000000000000000000000000000000000000000000000600052601160045260246000fd5b60006147ce82613c1d565b91506147d983613c1d565b92508282039050818111156147f1576147f0614794565b5b92915050565b600081905092915050565b600061480e83856147f7565b935061481b83858461407c565b82840190509392505050565b6000614834828486614802565b91508190509392505050565b600082905092915050565b7f4e487b7100000000000000000000000000000000000000000000000000000000600052602260045260246000fd5b6000600282049050600182168061489257607f821691505b6020821081036148a5576148a461484b565b5b50919050565b60008190508160005260206000209050919050565b60006020601f8301049050919050565b600082821b905092915050565b60006008830261490d7fffffffffffffffffffffffffffffffffffffffffffffffffffffffffffffffff826148d0565b61491786836148d0565b95508019841693508086168417925050509392505050565b6000819050919050565b600061495461494f61494a84613c1d565b61492f565b613c1d565b9050919050565b6000819050919050565b61496e83614939565b61498261497a8261495b565b8484546148dd565b825550505050565b600090565b61499761498a565b6149a2818484614965565b505050565b5b818110156149c6576149bb60008261498f565b6001810190506149a8565b5050565b601f821115614a0b576149dc816148ab565b6149e5846148c0565b810160208510156149f4578190505b614a08614a00856148c0565b8301826149a7565b50505b505050565b600082821c905092915050565b6000614a2e60001984600802614a10565b1980831691505092915050565b6000614a478383614a1d565b9150826002028217905092915050565b614a618383614840565b67ffffffffffffffff811115614a7a57614a79613fd0565b5b614a84825461487a565b614a8f8282856149ca565b6000601f831160018114614abe5760008415614aac578287013590505b614ab68582614a3b565b865550614b1e565b601f198416614acc866148ab565b60005b82811015614af457848901358255600182019150602085019450602081019050614acf565b86831015614b115784890135614b0d601f891682614a1d565b8355505b6001600288020188555050505b50505050505050565b6000614b338385613ec9565b9350614b4083858461407c565b614b4983613ce8565b840190509392505050565b60006040820190508181036000830152614b6f818688614b27565b90508181036020830152614b84818486614b27565b905095945050505050565b614b98816138e0565b82525050565b6000602082019050614bb36000830184614b8f565b92915050565b7f4e487b7100000000000000000000000000000000000000000000000000000000600052603260045260246000fd5b600082905092915050565b60008190508160005260206000209050919050565b601f821115614c4957614c1a81614bf3565b614c23846148c0565b81016020851015614c32578190505b614c46614c3e856148c0565b8301826149a7565b50505b505050565b614c588383614be8565b67ffffffffffffffff811115614c7157614c70613fd0565b5b614c7b825461487a565b614c86828285614c08565b6000601f831160018114614cb55760008415614ca3578287013590505b614cad8582614a3b565b865550614d15565b601f198416614cc386614bf3565b60005b82811015614ceb57848901358255600182019150602085019450602081019050614cc6565b86831015614d085784890135614d04601f891682614a1d565b8355505b6001600288020188555050505b50505050505050565b6000614d2a8385613cad565b9350614d3783858461407c565b614d4083613ce8565b840190509392505050565b60006020820190508181036000830152614d66818486614d1e565b90509392505050565b6000614d7a8261457e565b915067ffffffffffffffff8203614d9457614d93614794565b5b600182019050919050565b60006020820190508181036000830152614dba818486614b27565b90509392505050565b6000614dde614dd9614dd484613bc1565b61492f565b613bc1565b9050919050565b6000614df082614dc3565b9050919050565b6000614e0282614de5565b9050919050565b614e1281614df7565b82525050565b6000602082019050614e2d6000830184614e09565b92915050565b614e3c82613ca2565b67ffffffffffffffff811115614e5557614e54613fd0565b5b614e5f825461487a565b614e6a828285614c08565b600060209050601f831160018114614e9d5760008415614e8b578287015190505b614e958582614a3b565b865550614efd565b601f198416614eab86614bf3565b60005b82811015614ed357848901518255600182019150602085019450602081019050614eae565b86831015614ef05784890151614eec601f891682614a1d565b8355505b6001600288020188555050505b505050505050565b7f455243313135353a2073657474696e6720617070726f76616c2073746174757360008201527f20666f722073656c660000000000000000000000000000000000000000000000602082015250565b6000614f61602983613ec9565b9150614f6c82614f05565b604082019050919050565b60006020820190508181036000830152614f9081614f54565b9050919050565b7f53657474696e672064656c65676174652073746174757320666f722073656c66600082015250565b6000614fcd602083613ec9565b9150614fd882614f97565b602082019050919050565b60006020820190508181036000830152614ffc81614fc0565b9050919050565b6000604082019050818103600083015261501d8186613cf9565b90508181036020830152615032818486614d1e565b9050949350505050565b60006020820190506150516000830184614506565b92915050565b6000815190506150668161416a565b92915050565b600060208284031215615082576150816138d6565b5b600061509084828501615057565b91505092915050565b60006150a482614255565b9150600082036150b7576150b6614794565b5b600182039050919050565b6150cb81614255565b82525050565b600060408201905081810360008301526150eb8185613cf9565b90506150fa60208301846150c2565b9392505050565b600061510c82614255565b915061ffff82036151205761511f614794565b5b600182019050919050565b600060608201905081810360008301526151458186613cf9565b905061515460208301856150c2565b81810360408301526151668184613cf9565b9050949350505050565b600061517b82613c1d565b915061518683613c1d565b925082820190508082111561519e5761519d614794565b5b92915050565b600080fd5b600080fd5b600080fd5b600080833560016020038436030381126151d0576151cf6151a4565b5b80840192508235915067ffffffffffffffff8211156151f2576151f16151a9565b5b60208301925060018202360383131561520e5761520d6151ae565b5b509250929050565b600080fd5b600080fd5b6000808585111561523457615233615216565b5b838611156152455761524461521b565b5b6001850283019150848603905094509492505050565b60006152678383614be8565b82615272813561399b565b925060208210156152b2576152ad7fffffffffffffffffffffffffffffffffffffffffffffffffffffffffffffffff836020036008026148d0565b831692505b505092915050565b7f6d756c746963616c6c3a20416c6c207265636f726473206d757374206861766560008201527f2061206d61746368696e67206e616d6568617368000000000000000000000000602082015250565b6000615316603483613ec9565b9150615321826152ba565b604082019050919050565b6000602082019050818103600083015261534581615309565b9050919050565b60006153588385614741565b935061536583858461407c565b82840190509392505050565b600061537e82848661534c565b91508190509392505050565b600061539582613c1d565b91507fffffffffffffffffffffffffffffffffffffffffffffffffffffffffffffffff82036153c7576153c6614794565b5b600182019050919050565b7f4e487b7100000000000000000000000000000000000000000000000000000000600052600160045260246000fdfea2646970667358221220391ecf83643f953a554ee101f32fb9f7847d2df91d4cb3faa923740e110081a164736f6c63430008140033",
  "linkReferences": {},
  "deployedLinkReferences": {}
}