{"contracts/zkfregistrar/ZKFRegistrarController.sol":{"ZKFRegistrarController":{"abi":[{"inputs":[{"internalType":"contract BaseRegistrarImplementation","name":"_base","type":"address"},{"internalType":"contract IPriceOracle","name":"_prices","type":"address"},{"internalType":"uint256","name":"_minCommitmentAge","type":"uint256"},{"internalType":"uint256","name":"_maxCommitmentAge","type":"uint256"},{"internalType":"contract ReverseRegistrar","name":"_reverseRegistrar","type":"address"},{"internalType":"contract ENS","name":"_ens","type":"address"}],"stateMutability":"nonpayable","type":"constructor"},{"inputs":[{"internalType":"bytes32","name":"commitment","type":"bytes32"}],"name":"CommitmentTooNew","type":"error"},{"inputs":[{"internalType":"bytes32","name":"commitment","type":"bytes32"}],"name":"CommitmentTooOld","type":"error"},{"inputs":[{"internalType":"uint256","name":"duration","type":"uint256"}],"name":"DurationTooShort","type":"error"},{"inputs":[],"name":"InsufficientValue","type":"error"},{"inputs":[],"name":"MaxCommitmentAgeTooHigh","type":"error"},{"inputs":[],"name":"MaxCommitmentAgeTooLow","type":"error"},{"inputs":[{"internalType":"string","name":"name","type":"string"}],"name":"NameNotAvailable","type":"error"},{"inputs":[{"internalType":"address","name":"owner","type":"address"}],"name":"OwnableInvalidOwner","type":"error"},{"inputs":[{"internalType":"address","name":"account","type":"address"}],"name":"OwnableUnauthorizedAccount","type":"error"},{"inputs":[],"name":"ResolverRequiredWhenDataSupplied","type":"error"},{"inputs":[],"name":"ResolverRequiredWhenReverseRecord","type":"error"},{"inputs":[{"internalType":"bytes32","name":"commitment","type":"bytes32"}],"name":"UnexpiredCommitmentExists","type":"error"},{"anonymous":false,"inputs":[{"indexed":false,"internalType":"string","name":"name","type":"string"},{"indexed":true,"internalType":"bytes32","name":"label","type":"bytes32"},{"indexed":true,"internalType":"address","name":"owner","type":"address"},{"indexed":false,"internalType":"uint256","name":"baseCost","type":"uint256"},{"indexed":false,"internalType":"uint256","name":"premium","type":"uint256"},{"indexed":false,"internalType":"uint256","name":"expires","type":"uint256"}],"name":"NameRegistered","type":"event"},{"anonymous":false,"inputs":[{"indexed":false,"internalType":"string","name":"name","type":"string"},{"indexed":true,"internalType":"bytes32","name":"label","type":"bytes32"},{"indexed":false,"internalType":"uint256","name":"cost","type":"uint256"},{"indexed":false,"internalType":"uint256","name":"expires","type":"uint256"}],"name":"NameRenewed","type":"event"},{"anonymous":false,"inputs":[{"indexed":true,"internalType":"address","name":"previousOwner","type":"address"},{"indexed":true,"internalType":"address","name":"newOwner","type":"address"}],"name":"OwnershipTransferred","type":"event"},{"inputs":[],"name":"MIN_REGISTRATION_DURATION","outputs":[{"internalType":"uint256","name":"","type":"uint256"}],"stateMutability":"view","type":"function"},{"inputs":[{"internalType":"string","name":"name","type":"string"}],"name":"available","outputs":[{"internalType":"bool","name":"","type":"bool"}],"stateMutability":"view","type":"function"},{"inputs":[{"internalType":"bytes32","name":"commitment","type":"bytes32"}],"name":"commit","outputs":[],"stateMutability":"nonpayable","type":"function"},{"inputs":[{"internalType":"bytes32","name":"","type":"bytes32"}],"name":"commitments","outputs":[{"internalType":"uint256","name":"","type":"uint256"}],"stateMutability":"view","type":"function"},{"inputs":[{"internalType":"string","name":"name","type":"string"},{"internalType":"address","name":"owner","type":"address"},{"internalType":"uint256","name":"duration","type":"uint256"},{"internalType":"bytes32","name":"secret","type":"bytes32"},{"internalType":"address","name":"resolver","type":"address"},{"internalType":"bytes[]","name":"data","type":"bytes[]"},{"internalType":"bool","name":"reverseRecord","type":"bool"}],"name":"makeCommitment","outputs":[{"internalType":"bytes32","name":"","type":"bytes32"}],"stateMutability":"pure","type":"function"},{"inputs":[],"name":"maxCommitmentAge","outputs":[{"internalType":"uint256","name":"","type":"uint256"}],"stateMutability":"view","type":"function"},{"inputs":[],"name":"minCommitmentAge","outputs":[{"internalType":"uint256","name":"","type":"uint256"}],"stateMutability":"view","type":"function"},{"inputs":[],"name":"owner","outputs":[{"internalType":"address","name":"","type":"address"}],"stateMutability":"view","type":"function"},{"inputs":[],"name":"prices","outputs":[{"internalType":"contract IPriceOracle","name":"","type":"address"}],"stateMutability":"view","type":"function"},{"inputs":[{"internalType":"address","name":"_token","type":"address"},{"internalType":"address","name":"_to","type":"address"},{"internalType":"uint256","name":"_amount","type":"uint256"}],"name":"recoverFunds","outputs":[],"stateMutability":"nonpayable","type":"function"},{"inputs":[{"internalType":"string","name":"name","type":"string"},{"internalType":"address","name":"owner","type":"address"},{"internalType":"uint256","name":"duration","type":"uint256"},{"internalType":"bytes32","name":"secret","type":"bytes32"},{"internalType":"address","name":"resolver","type":"address"},{"internalType":"bytes[]","name":"data","type":"bytes[]"},{"internalType":"bool","name":"reverseRecord","type":"bool"}],"name":"register","outputs":[],"stateMutability":"payable","type":"function"},{"inputs":[{"internalType":"string","name":"name","type":"string"},{"internalType":"uint256","name":"duration","type":"uint256"}],"name":"renew","outputs":[],"stateMutability":"payable","type":"function"},{"inputs":[],"name":"renounceOwnership","outputs":[],"stateMutability":"nonpayable","type":"function"},{"inputs":[{"internalType":"string","name":"name","type":"string"},{"internalType":"uint256","name":"duration","type":"uint256"}],"name":"rentPrice","outputs":[{"components":[{"internalType":"uint256","name":"base","type":"uint256"},{"internalType":"uint256","name":"premium","type":"uint256"}],"internalType":"struct IPriceOracle.Price","name":"price","type":"tuple"}],"stateMutability":"view","type":"function"},{"inputs":[],"name":"reverseRegistrar","outputs":[{"internalType":"contract ReverseRegistrar","name":"","type":"address"}],"stateMutability":"view","type":"function"},{"inputs":[{"internalType":"contract IPriceOracle","name":"_prices","type":"address"}],"name":"setPriceOracle","outputs":[],"stateMutability":"nonpayable","type":"function"},{"inputs":[{"internalType":"bytes4","name":"interfaceID","type":"bytes4"}],"name":"supportsInterface","outputs":[{"internalType":"bool","name":"","type":"bool"}],"stateMutability":"pure","type":"function"},{"inputs":[{"internalType":"address","name":"newOwner","type":"address"}],"name":"transferOwnership","outputs":[],"stateMutability":"nonpayable","type":"function"},{"inputs":[{"internalType":"string","name":"name","type":"string"}],"name":"valid","outputs":[{"internalType":"bool","name":"","type":"bool"}],"stateMutability":"pure","type":"function"},{"inputs":[],"name":"withdraw","outputs":[],"stateMutability":"nonpayable","type":"function"}],"evm":{"bytecode":{"linkReferences":{},"object":"6101006040523480156200001257600080fd5b506040516200323738038062003237833981810160405281019062000038919062000573565b803333600073ffffffffffffffffffffffffffffffffffffffff168173ffffffffffffffffffffffffffffffffffffffff1603620000b05760006040517f1e4fbdf7000000000000000000000000000000000000000000000000000000008152600401620000a7919062000620565b60405180910390fd5b620000c1816200032760201b60201c565b5060008273ffffffffffffffffffffffffffffffffffffffff166302571be37f91d1777781884d03a6757a803996e38de2a42967fb37eeaca72729271025a9e260001b6040518263ffffffff1660e01b815260040162000122919062000658565b602060405180830381865afa15801562000140573d6000803e3d6000fd5b505050506040513d601f19601f82011682018060405250810190620001669190620006a6565b90508073ffffffffffffffffffffffffffffffffffffffff16631e83409a836040518263ffffffff1660e01b8152600401620001a3919062000620565b6020604051808303816000875af1158015620001c3573d6000803e3d6000fd5b505050506040513d601f19601f82011682018060405250810190620001e9919062000709565b5050505083831162000227576040517f3e5aa83800000000000000000000000000000000000000000000000000000000815260040160405180910390fd5b4283111562000262576040517f2d0c679400000000000000000000000000000000000000000000000000000000815260040160405180910390fd5b8573ffffffffffffffffffffffffffffffffffffffff1660808173ffffffffffffffffffffffffffffffffffffffff168152505084600160006101000a81548173ffffffffffffffffffffffffffffffffffffffff021916908373ffffffffffffffffffffffffffffffffffffffff1602179055508360a081815250508260c081815250508173ffffffffffffffffffffffffffffffffffffffff1660e08173ffffffffffffffffffffffffffffffffffffffff16815250505050505050506200073b565b60008060009054906101000a900473ffffffffffffffffffffffffffffffffffffffff169050816000806101000a81548173ffffffffffffffffffffffffffffffffffffffff021916908373ffffffffffffffffffffffffffffffffffffffff1602179055508173ffffffffffffffffffffffffffffffffffffffff168173ffffffffffffffffffffffffffffffffffffffff167f8be0079c531659141344cd1fd0a4f28419497f9722a3daafe3b4186f6b6457e060405160405180910390a35050565b600080fd5b600073ffffffffffffffffffffffffffffffffffffffff82169050919050565b60006200041d82620003f0565b9050919050565b6000620004318262000410565b9050919050565b620004438162000424565b81146200044f57600080fd5b50565b600081519050620004638162000438565b92915050565b6000620004768262000410565b9050919050565b620004888162000469565b81146200049457600080fd5b50565b600081519050620004a8816200047d565b92915050565b6000819050919050565b620004c381620004ae565b8114620004cf57600080fd5b50565b600081519050620004e381620004b8565b92915050565b6000620004f68262000410565b9050919050565b6200050881620004e9565b81146200051457600080fd5b50565b6000815190506200052881620004fd565b92915050565b60006200053b8262000410565b9050919050565b6200054d816200052e565b81146200055957600080fd5b50565b6000815190506200056d8162000542565b92915050565b60008060008060008060c08789031215620005935762000592620003eb565b5b6000620005a389828a0162000452565b9650506020620005b689828a0162000497565b9550506040620005c989828a01620004d2565b9450506060620005dc89828a01620004d2565b9350506080620005ef89828a0162000517565b92505060a06200060289828a016200055c565b9150509295509295509295565b6200061a8162000410565b82525050565b60006020820190506200063760008301846200060f565b92915050565b6000819050919050565b62000652816200063d565b82525050565b60006020820190506200066f600083018462000647565b92915050565b620006808162000410565b81146200068c57600080fd5b50565b600081519050620006a08162000675565b92915050565b600060208284031215620006bf57620006be620003eb565b5b6000620006cf848285016200068f565b91505092915050565b620006e3816200063d565b8114620006ef57600080fd5b50565b6000815190506200070381620006d8565b92915050565b600060208284031215620007225762000721620003eb565b5b60006200073284828501620006f2565b91505092915050565b60805160a05160c05160e051612a986200079f60003960008181610b8901526113a2015260008181610f9f01528181610fea0152611190015260008181610c79015261110d0152600081816106d901528181610d920152610ef90152612a986000f3fe60806040526004361061011f5760003560e01c80638a95b09f116100a0578063aeb8ce9b11610064578063aeb8ce9b146103b9578063ce1e09c0146103f6578063d3419bf314610421578063f14fcbc81461044c578063f2fde38b146104755761011f565b80638a95b09f146102df5780638d839ffe1461030a5780638da5cb5b146103355780639791c09714610360578063acf1a8411461039d5761011f565b80635d3590d5116100e75780635d3590d5146101fa578063715018a614610223578063808698531461023a578063839df9451461026557806383e7f6ff146102a25761011f565b806301ffc9a714610124578063237592e8146101615780633ccfd60b1461017d5780633d4aa89e14610194578063530e784f146101d1575b600080fd5b34801561013057600080fd5b5061014b600480360381019061014691906117f5565b61049e565b604051610158919061183d565b60405180910390f35b61017b60048036038101906101769190611a09565b610570565b005b34801561018957600080fd5b50610192610905565b005b3480156101a057600080fd5b506101bb60048036038101906101b69190611c2c565b61095d565b6040516101c89190611d19565b60405180910390f35b3480156101dd57600080fd5b506101f860048036038101906101f39190611d72565b610a9b565b005b34801561020657600080fd5b50610221600480360381019061021c9190611d9f565b610ae7565b005b34801561022f57600080fd5b50610238610b73565b005b34801561024657600080fd5b5061024f610b87565b60405161025c9190611e51565b60405180910390f35b34801561027157600080fd5b5061028c60048036038101906102879190611e6c565b610bab565b6040516102999190611ea8565b60405180910390f35b3480156102ae57600080fd5b506102c960048036038101906102c49190611ec3565b610bc3565b6040516102d69190611f5d565b60405180910390f35b3480156102eb57600080fd5b506102f4610c70565b6040516103019190611ea8565b60405180910390f35b34801561031657600080fd5b5061031f610c77565b60405161032c9190611ea8565b60405180910390f35b34801561034157600080fd5b5061034a610c9b565b6040516103579190611f87565b60405180910390f35b34801561036c57600080fd5b5061038760048036038101906103829190611fa2565b610cc4565b604051610394919061183d565b60405180910390f35b6103b760048036038101906103b29190611feb565b610cda565b005b3480156103c557600080fd5b506103e060048036038101906103db9190611fa2565b610eda565b6040516103ed919061183d565b60405180910390f35b34801561040257600080fd5b5061040b610f9d565b6040516104189190611ea8565b60405180910390f35b34801561042d57600080fd5b50610436610fc1565b604051610443919061206c565b60405180910390f35b34801561045857600080fd5b50610473600480360381019061046e9190611e6c565b610fe7565b005b34801561048157600080fd5b5061049c60048036038101906104979190612087565b611084565b005b60007f01ffc9a7000000000000000000000000000000000000000000000000000000007bffffffffffffffffffffffffffffffffffffffffffffffffffffffff1916827bffffffffffffffffffffffffffffffffffffffffffffffffffffffff1916148061056957507fe2b3754c000000000000000000000000000000000000000000000000000000007bffffffffffffffffffffffffffffffffffffffffffffffffffffffff1916827bffffffffffffffffffffffffffffffffffffffffffffffffffffffff1916145b9050919050565b60006105c08a8a8080601f016020809104026020016040519081016040528093929190818152602001838380828437600081840152601f19601f8201169050808301925050505050505088610bc3565b9050806020015181600001516105d691906120e3565b34101561060f576040517f1101129400000000000000000000000000000000000000000000000000000000815260040160405180910390fd5b6106b18a8a8080601f016020809104026020016040519081016040528093929190818152602001838380828437600081840152601f19601f82011690508083019250505050505050886106ac8d8d8080601f016020809104026020016040519081016040528093929190818152602001838380828437600081840152601f19601f820116905080830192505050505050508c8c8c8c8c8c8c61095d565b61110a565b60008a8a6040516106c3929190612147565b6040518091039020905060008160001c905060007f000000000000000000000000000000000000000000000000000000000000000073ffffffffffffffffffffffffffffffffffffffff1663fca247ac83338d6040518463ffffffff1660e01b815260040161073493929190612160565b6020604051808303816000875af1158015610753573d6000803e3d6000fd5b505050506040513d601f19601f8201168201806040525081019061077791906121ac565b905060008787905011156107a9576107a8888e8e604051610799929190612147565b604051809103902089896112bd565b5b84156107ff576107fe8d8d8080601f016020809104026020016040519081016040528093929190818152602001838380828437600081840152601f19601f8201169050808301925050505050505089336113a0565b5b8a73ffffffffffffffffffffffffffffffffffffffff168d8d604051610826929190612147565b60405180910390207f69e37f151eb98a09618ddaa80c8cfaf1ce5996867c489f45b555b412271ebf278f8f886000015189602001518760405161086d959493929190612217565b60405180910390a38360200151846000015161088991906120e3565b3411156108f6573373ffffffffffffffffffffffffffffffffffffffff166108fc856020015186600001516108be91906120e3565b346108c99190612265565b9081150290604051600060405180830381858888f193505050501580156108f4573d6000803e3d6000fd5b505b50505050505050505050505050565b61090d611467565b610915610c9b565b73ffffffffffffffffffffffffffffffffffffffff166108fc479081150290604051600060405180830381858888f1935050505015801561095a573d6000803e3d6000fd5b50565b60008089805190602001209050600073ffffffffffffffffffffffffffffffffffffffff168673ffffffffffffffffffffffffffffffffffffffff161480156109aa575060011515831515145b156109e1576040517f406d917600000000000000000000000000000000000000000000000000000000815260040160405180910390fd5b600085859050118015610a205750600073ffffffffffffffffffffffffffffffffffffffff168673ffffffffffffffffffffffffffffffffffffffff16145b15610a57576040517fd3f605c400000000000000000000000000000000000000000000000000000000815260040160405180910390fd5b8089898989898989604051602001610a769897969594939291906123fd565b6040516020818303038152906040528051906020012091505098975050505050505050565b610aa3611467565b80600160006101000a81548173ffffffffffffffffffffffffffffffffffffffff021916908373ffffffffffffffffffffffffffffffffffffffff16021790555050565b610aef611467565b8273ffffffffffffffffffffffffffffffffffffffff1663a9059cbb83836040518363ffffffff1660e01b8152600401610b2a929190612475565b6020604051808303816000875af1158015610b49573d6000803e3d6000fd5b505050506040513d601f19601f82011682018060405250810190610b6d91906124b3565b50505050565b610b7b611467565b610b8560006114ee565b565b7f000000000000000000000000000000000000000000000000000000000000000081565b60026020528060005260406000206000915090505481565b610bcb61176f565b600160009054906101000a900473ffffffffffffffffffffffffffffffffffffffff1673ffffffffffffffffffffffffffffffffffffffff166319b989a084846040518363ffffffff1660e01b8152600401610c2892919061254e565b6040805180830381865afa158015610c44573d6000803e3d6000fd5b505050506040513d601f19601f82011682018060405250810190610c6891906125d3565b905092915050565b6224ea0081565b7f000000000000000000000000000000000000000000000000000000000000000081565b60008060009054906101000a900473ffffffffffffffffffffffffffffffffffffffff16905090565b60006002610cd1836115b2565b10159050919050565b60008383604051610cec929190612147565b6040518091039020905060008160001c90506000610d4e86868080601f016020809104026020016040519081016040528093929190818152602001838380828437600081840152601f19601f8201169050808301925050505050505085610bc3565b90508060000151341015610d8e576040517f1101129400000000000000000000000000000000000000000000000000000000815260040160405180910390fd5b60007f000000000000000000000000000000000000000000000000000000000000000073ffffffffffffffffffffffffffffffffffffffff1663c475abff84876040518363ffffffff1660e01b8152600401610deb929190612600565b6020604051808303816000875af1158015610e0a573d6000803e3d6000fd5b505050506040513d601f19601f82011682018060405250810190610e2e91906121ac565b90508160000151341115610e93573373ffffffffffffffffffffffffffffffffffffffff166108fc836000015134610e669190612265565b9081150290604051600060405180830381858888f19350505050158015610e91573d6000803e3d6000fd5b505b837f3da24c024582931cfaf8267d8ed24d13a82a8068d5bd337d30ec45cea4e506ae88883485604051610ec99493929190612629565b60405180910390a250505050505050565b60008082805190602001209050610ef083610cc4565b8015610f9557507f000000000000000000000000000000000000000000000000000000000000000073ffffffffffffffffffffffffffffffffffffffff166396e494e88260001c6040518263ffffffff1660e01b8152600401610f539190611ea8565b602060405180830381865afa158015610f70573d6000803e3d6000fd5b505050506040513d601f19601f82011682018060405250810190610f9491906124b3565b5b915050919050565b7f000000000000000000000000000000000000000000000000000000000000000081565b600160009054906101000a900473ffffffffffffffffffffffffffffffffffffffff1681565b427f0000000000000000000000000000000000000000000000000000000000000000600260008481526020019081526020016000205461102791906120e3565b1061106957806040517f0a059d710000000000000000000000000000000000000000000000000000000081526004016110609190611d19565b60405180910390fd5b42600260008381526020019081526020016000208190555050565b61108c611467565b600073ffffffffffffffffffffffffffffffffffffffff168173ffffffffffffffffffffffffffffffffffffffff16036110fe5760006040517f1e4fbdf70000000000000000000000000000000000000000000000000000000081526004016110f59190611f87565b60405180910390fd5b611107816114ee565b50565b427f0000000000000000000000000000000000000000000000000000000000000000600260008481526020019081526020016000205461114a91906120e3565b111561118d57806040517f5320bcf90000000000000000000000000000000000000000000000000000000081526004016111849190611d19565b60405180910390fd5b427f000000000000000000000000000000000000000000000000000000000000000060026000848152602001908152602001600020546111cd91906120e3565b1161120f57806040517fcb7690d70000000000000000000000000000000000000000000000000000000081526004016112069190611d19565b60405180910390fd5b61121883610eda565b61125957826040517f477707e80000000000000000000000000000000000000000000000000000000081526004016112509190612669565b60405180910390fd5b60026000828152602001908152602001600020600090556224ea008210156112b857816040517f9a71997b0000000000000000000000000000000000000000000000000000000081526004016112af9190611ea8565b60405180910390fd5b505050565b60007ffb5f84575b89b73c6f6a4b64bfa657505766152eaf7a7bdcc4ffe2c678d7282560001b846040516020016112f59291906126ac565b60405160208183030381529060405280519060200120905060008590508073ffffffffffffffffffffffffffffffffffffffff1663e32954eb8386866040518463ffffffff1660e01b815260040161134f939291906126d8565b6000604051808303816000875af115801561136e573d6000803e3d6000fd5b505050506040513d6000823e3d601f19601f82011682018060405250810190611397919061288c565b50505050505050565b7f000000000000000000000000000000000000000000000000000000000000000073ffffffffffffffffffffffffffffffffffffffff16637a806d6b338385876040516020016113f09190612937565b6040516020818303038152906040526040518563ffffffff1660e01b815260040161141e949392919061295d565b6020604051808303816000875af115801561143d573d6000803e3d6000fd5b505050506040513d601f19601f8201168201806040525081019061146191906129be565b50505050565b61146f611767565b73ffffffffffffffffffffffffffffffffffffffff1661148d610c9b565b73ffffffffffffffffffffffffffffffffffffffff16146114ec576114b0611767565b6040517f118cdaa70000000000000000000000000000000000000000000000000000000081526004016114e39190611f87565b60405180910390fd5b565b60008060009054906101000a900473ffffffffffffffffffffffffffffffffffffffff169050816000806101000a81548173ffffffffffffffffffffffffffffffffffffffff021916908373ffffffffffffffffffffffffffffffffffffffff1602179055508173ffffffffffffffffffffffffffffffffffffffff168173ffffffffffffffffffffffffffffffffffffffff167f8be0079c531659141344cd1fd0a4f28419497f9722a3daafe3b4186f6b6457e060405160405180910390a35050565b60008060008084519050600092505b8082101561175c5760008583815181106115de576115dd6129eb565b5b602001015160f81c60f81b9050608060f81b817effffffffffffffffffffffffffffffffffffffffffffffffffffffffffffff1916101561162d5760018361162691906120e3565b9250611748565b60e060f81b817effffffffffffffffffffffffffffffffffffffffffffffffffffffffffffff1916101561166f5760028361166891906120e3565b9250611747565b60f060f81b817effffffffffffffffffffffffffffffffffffffffffffffffffffffffffffff191610156116b1576003836116aa91906120e3565b9250611746565b60f8801b817effffffffffffffffffffffffffffffffffffffffffffffffffffffffffffff191610156116f2576004836116eb91906120e3565b9250611745565b60fc60f81b817effffffffffffffffffffffffffffffffffffffffffffffffffffffffffffff191610156117345760058361172d91906120e3565b9250611744565b60068361174191906120e3565b92505b5b5b5b5b50828061175490612a1a565b9350506115c1565b829350505050919050565b600033905090565b604051806040016040528060008152602001600081525090565b6000604051905090565b600080fd5b600080fd5b60007fffffffff0000000000000000000000000000000000000000000000000000000082169050919050565b6117d28161179d565b81146117dd57600080fd5b50565b6000813590506117ef816117c9565b92915050565b60006020828403121561180b5761180a611793565b5b6000611819848285016117e0565b91505092915050565b60008115159050919050565b61183781611822565b82525050565b6000602082019050611852600083018461182e565b92915050565b600080fd5b600080fd5b600080fd5b60008083601f84011261187d5761187c611858565b5b8235905067ffffffffffffffff81111561189a5761189961185d565b5b6020830191508360018202830111156118b6576118b5611862565b5b9250929050565b600073ffffffffffffffffffffffffffffffffffffffff82169050919050565b60006118e8826118bd565b9050919050565b6118f8816118dd565b811461190357600080fd5b50565b600081359050611915816118ef565b92915050565b6000819050919050565b61192e8161191b565b811461193957600080fd5b50565b60008135905061194b81611925565b92915050565b6000819050919050565b61196481611951565b811461196f57600080fd5b50565b6000813590506119818161195b565b92915050565b60008083601f84011261199d5761199c611858565b5b8235905067ffffffffffffffff8111156119ba576119b961185d565b5b6020830191508360208202830111156119d6576119d5611862565b5b9250929050565b6119e681611822565b81146119f157600080fd5b50565b600081359050611a03816119dd565b92915050565b600080600080600080600080600060e08a8c031215611a2b57611a2a611793565b5b60008a013567ffffffffffffffff811115611a4957611a48611798565b5b611a558c828d01611867565b99509950506020611a688c828d01611906565b9750506040611a798c828d0161193c565b9650506060611a8a8c828d01611972565b9550506080611a9b8c828d01611906565b94505060a08a013567ffffffffffffffff811115611abc57611abb611798565b5b611ac88c828d01611987565b935093505060c0611adb8c828d016119f4565b9150509295985092959850929598565b600080fd5b6000601f19601f8301169050919050565b7f4e487b7100000000000000000000000000000000000000000000000000000000600052604160045260246000fd5b611b3982611af0565b810181811067ffffffffffffffff82111715611b5857611b57611b01565b5b80604052505050565b6000611b6b611789565b9050611b778282611b30565b919050565b600067ffffffffffffffff821115611b9757611b96611b01565b5b611ba082611af0565b9050602081019050919050565b82818337600083830152505050565b6000611bcf611bca84611b7c565b611b61565b905082815260208101848484011115611beb57611bea611aeb565b5b611bf6848285611bad565b509392505050565b600082601f830112611c1357611c12611858565b5b8135611c23848260208601611bbc565b91505092915050565b60008060008060008060008060e0898b031215611c4c57611c4b611793565b5b600089013567ffffffffffffffff811115611c6a57611c69611798565b5b611c768b828c01611bfe565b9850506020611c878b828c01611906565b9750506040611c988b828c0161193c565b9650506060611ca98b828c01611972565b9550506080611cba8b828c01611906565b94505060a089013567ffffffffffffffff811115611cdb57611cda611798565b5b611ce78b828c01611987565b935093505060c0611cfa8b828c016119f4565b9150509295985092959890939650565b611d1381611951565b82525050565b6000602082019050611d2e6000830184611d0a565b92915050565b6000611d3f826118dd565b9050919050565b611d4f81611d34565b8114611d5a57600080fd5b50565b600081359050611d6c81611d46565b92915050565b600060208284031215611d8857611d87611793565b5b6000611d9684828501611d5d565b91505092915050565b600080600060608486031215611db857611db7611793565b5b6000611dc686828701611906565b9350506020611dd786828701611906565b9250506040611de88682870161193c565b9150509250925092565b6000819050919050565b6000611e17611e12611e0d846118bd565b611df2565b6118bd565b9050919050565b6000611e2982611dfc565b9050919050565b6000611e3b82611e1e565b9050919050565b611e4b81611e30565b82525050565b6000602082019050611e666000830184611e42565b92915050565b600060208284031215611e8257611e81611793565b5b6000611e9084828501611972565b91505092915050565b611ea28161191b565b82525050565b6000602082019050611ebd6000830184611e99565b92915050565b60008060408385031215611eda57611ed9611793565b5b600083013567ffffffffffffffff811115611ef857611ef7611798565b5b611f0485828601611bfe565b9250506020611f158582860161193c565b9150509250929050565b611f288161191b565b82525050565b604082016000820151611f446000850182611f1f565b506020820151611f576020850182611f1f565b50505050565b6000604082019050611f726000830184611f2e565b92915050565b611f81816118dd565b82525050565b6000602082019050611f9c6000830184611f78565b92915050565b600060208284031215611fb857611fb7611793565b5b600082013567ffffffffffffffff811115611fd657611fd5611798565b5b611fe284828501611bfe565b91505092915050565b60008060006040848603121561200457612003611793565b5b600084013567ffffffffffffffff81111561202257612021611798565b5b61202e86828701611867565b935093505060206120418682870161193c565b9150509250925092565b600061205682611e1e565b9050919050565b6120668161204b565b82525050565b6000602082019050612081600083018461205d565b92915050565b60006020828403121561209d5761209c611793565b5b60006120ab84828501611906565b91505092915050565b7f4e487b7100000000000000000000000000000000000000000000000000000000600052601160045260246000fd5b60006120ee8261191b565b91506120f98361191b565b9250828201905080821115612111576121106120b4565b5b92915050565b600081905092915050565b600061212e8385612117565b935061213b838584611bad565b82840190509392505050565b6000612154828486612122565b91508190509392505050565b60006060820190506121756000830186611e99565b6121826020830185611f78565b61218f6040830184611e99565b949350505050565b6000815190506121a681611925565b92915050565b6000602082840312156121c2576121c1611793565b5b60006121d084828501612197565b91505092915050565b600082825260208201905092915050565b60006121f683856121d9565b9350612203838584611bad565b61220c83611af0565b840190509392505050565b600060808201905081810360008301526122328187896121ea565b90506122416020830186611e99565b61224e6040830185611e99565b61225b6060830184611e99565b9695505050505050565b60006122708261191b565b915061227b8361191b565b9250828203905081811115612293576122926120b4565b5b92915050565b600082825260208201905092915050565b6000819050919050565b600082825260208201905092915050565b60006122d183856122b4565b93506122de838584611bad565b6122e783611af0565b840190509392505050565b60006122ff8484846122c5565b90509392505050565b600080fd5b600080fd5b600080fd5b6000808335600160200384360303811261233457612333612312565b5b83810192508235915060208301925067ffffffffffffffff82111561235c5761235b612308565b5b6001820236038313156123725761237161230d565b5b509250929050565b6000602082019050919050565b60006123938385612299565b9350836020840285016123a5846122aa565b8060005b878110156123eb5784840389526123c08284612317565b6123cb8682846122f2565b95506123d68461237a565b935060208b019a5050506001810190506123a9565b50829750879450505050509392505050565b600060e082019050612412600083018b611d0a565b61241f602083018a611f78565b61242c6040830189611e99565b6124396060830188611d0a565b6124466080830187611f78565b81810360a0830152612459818587612387565b905061246860c083018461182e565b9998505050505050505050565b600060408201905061248a6000830185611f78565b6124976020830184611e99565b9392505050565b6000815190506124ad816119dd565b92915050565b6000602082840312156124c9576124c8611793565b5b60006124d78482850161249e565b91505092915050565b600081519050919050565b60005b838110156125095780820151818401526020810190506124ee565b60008484015250505050565b6000612520826124e0565b61252a81856121d9565b935061253a8185602086016124eb565b61254381611af0565b840191505092915050565b600060408201905081810360008301526125688185612515565b90506125776020830184611e99565b9392505050565b600080fd5b6000604082840312156125995761259861257e565b5b6125a36040611b61565b905060006125b384828501612197565b60008301525060206125c784828501612197565b60208301525092915050565b6000604082840312156125e9576125e8611793565b5b60006125f784828501612583565b91505092915050565b60006040820190506126156000830185611e99565b6126226020830184611e99565b9392505050565b600060608201905081810360008301526126448186886121ea565b90506126536020830185611e99565b6126606040830184611e99565b95945050505050565b600060208201905081810360008301526126838184612515565b905092915050565b6000819050919050565b6126a66126a182611951565b61268b565b82525050565b60006126b88285612695565b6020820191506126c88284612695565b6020820191508190509392505050565b60006040820190506126ed6000830186611d0a565b8181036020830152612700818486612387565b9050949350505050565b600067ffffffffffffffff82111561272557612724611b01565b5b602082029050602081019050919050565b600067ffffffffffffffff82111561275157612750611b01565b5b61275a82611af0565b9050602081019050919050565b600061277a61277584612736565b611b61565b90508281526020810184848401111561279657612795611aeb565b5b6127a18482856124eb565b509392505050565b600082601f8301126127be576127bd611858565b5b81516127ce848260208601612767565b91505092915050565b60006127ea6127e58461270a565b611b61565b9050808382526020820190506020840283018581111561280d5761280c611862565b5b835b8181101561285457805167ffffffffffffffff81111561283257612831611858565b5b80860161283f89826127a9565b8552602085019450505060208101905061280f565b5050509392505050565b600082601f83011261287357612872611858565b5b81516128838482602086016127d7565b91505092915050565b6000602082840312156128a2576128a1611793565b5b600082015167ffffffffffffffff8111156128c0576128bf611798565b5b6128cc8482850161285e565b91505092915050565b600081905092915050565b60006128eb826124e0565b6128f581856128d5565b93506129058185602086016124eb565b80840191505092915050565b7f2e7a6b6600000000000000000000000000000000000000000000000000000000815250565b600061294382846128e0565b915061294e82612911565b60048201915081905092915050565b60006080820190506129726000830187611f78565b61297f6020830186611f78565b61298c6040830185611f78565b818103606083015261299e8184612515565b905095945050505050565b6000815190506129b88161195b565b92915050565b6000602082840312156129d4576129d3611793565b5b60006129e2848285016129a9565b91505092915050565b7f4e487b7100000000000000000000000000000000000000000000000000000000600052603260045260246000fd5b6000612a258261191b565b91507fffffffffffffffffffffffffffffffffffffffffffffffffffffffffffffffff8203612a5757612a566120b4565b5b60018201905091905056fea2646970667358221220c8fad5022b89811721b239dd37fdef4652ebffab638b1a0e91925ef5028c1e7e64736f6c63430008140033","opcodes":"PUSH2 0x100 PUSH1 0x40 MSTORE CALLVALUE DUP1 ISZERO PUSH3 0x12 JUMPI PUSH1 0x0 DUP1 REVERT JUMPDEST POP PUSH1 0x40 MLOAD PUSH3 0x3237 CODESIZE SUB DUP1 PUSH3 0x3237 DUP4 CODECOPY DUP2 DUP2 ADD PUSH1 0x40 MSTORE DUP2 ADD SWAP1 PUSH3 0x38 SWAP2 SWAP1 PUSH3 0x573 JUMP JUMPDEST DUP1 CALLER CALLER PUSH1 0x0 PUSH20 0xFFFFFFFFFFFFFFFFFFFFFFFFFFFFFFFFFFFFFFFF AND DUP2 PUSH20 0xFFFFFFFFFFFFFFFFFFFFFFFFFFFFFFFFFFFFFFFF AND SUB PUSH3 0xB0 JUMPI PUSH1 0x0 PUSH1 0x40 MLOAD PUSH32 0x1E4FBDF700000000000000000000000000000000000000000000000000000000 DUP2 MSTORE PUSH1 0x4 ADD PUSH3 0xA7 SWAP2 SWAP1 PUSH3 0x620 JUMP JUMPDEST PUSH1 0x40 MLOAD DUP1 SWAP2 SUB SWAP1 REVERT JUMPDEST PUSH3 0xC1 DUP2 PUSH3 0x327 PUSH1 0x20 SHL PUSH1 0x20 SHR JUMP JUMPDEST POP PUSH1 0x0 DUP3 PUSH20 0xFFFFFFFFFFFFFFFFFFFFFFFFFFFFFFFFFFFFFFFF AND PUSH4 0x2571BE3 PUSH32 0x91D1777781884D03A6757A803996E38DE2A42967FB37EEACA72729271025A9E2 PUSH1 0x0 SHL PUSH1 0x40 MLOAD DUP3 PUSH4 0xFFFFFFFF AND PUSH1 0xE0 SHL DUP2 MSTORE PUSH1 0x4 ADD PUSH3 0x122 SWAP2 SWAP1 PUSH3 0x658 JUMP JUMPDEST PUSH1 0x20 PUSH1 0x40 MLOAD DUP1 DUP4 SUB DUP2 DUP7 GAS STATICCALL ISZERO DUP1 ISZERO PUSH3 0x140 JUMPI RETURNDATASIZE PUSH1 0x0 DUP1 RETURNDATACOPY RETURNDATASIZE PUSH1 0x0 REVERT JUMPDEST POP POP POP POP PUSH1 0x40 MLOAD RETURNDATASIZE PUSH1 0x1F NOT PUSH1 0x1F DUP3 ADD AND DUP3 ADD DUP1 PUSH1 0x40 MSTORE POP DUP2 ADD SWAP1 PUSH3 0x166 SWAP2 SWAP1 PUSH3 0x6A6 JUMP JUMPDEST SWAP1 POP DUP1 PUSH20 0xFFFFFFFFFFFFFFFFFFFFFFFFFFFFFFFFFFFFFFFF AND PUSH4 0x1E83409A DUP4 PUSH1 0x40 MLOAD DUP3 PUSH4 0xFFFFFFFF AND PUSH1 0xE0 SHL DUP2 MSTORE PUSH1 0x4 ADD PUSH3 0x1A3 SWAP2 SWAP1 PUSH3 0x620 JUMP JUMPDEST PUSH1 0x20 PUSH1 0x40 MLOAD DUP1 DUP4 SUB DUP2 PUSH1 0x0 DUP8 GAS CALL ISZERO DUP1 ISZERO PUSH3 0x1C3 JUMPI RETURNDATASIZE PUSH1 0x0 DUP1 RETURNDATACOPY RETURNDATASIZE PUSH1 0x0 REVERT JUMPDEST POP POP POP POP PUSH1 0x40 MLOAD RETURNDATASIZE PUSH1 0x1F NOT PUSH1 0x1F DUP3 ADD AND DUP3 ADD DUP1 PUSH1 0x40 MSTORE POP DUP2 ADD SWAP1 PUSH3 0x1E9 SWAP2 SWAP1 PUSH3 0x709 JUMP JUMPDEST POP POP POP POP DUP4 DUP4 GT PUSH3 0x227 JUMPI PUSH1 0x40 MLOAD PUSH32 0x3E5AA83800000000000000000000000000000000000000000000000000000000 DUP2 MSTORE PUSH1 0x4 ADD PUSH1 0x40 MLOAD DUP1 SWAP2 SUB SWAP1 REVERT JUMPDEST TIMESTAMP DUP4 GT ISZERO PUSH3 0x262 JUMPI PUSH1 0x40 MLOAD PUSH32 0x2D0C679400000000000000000000000000000000000000000000000000000000 DUP2 MSTORE PUSH1 0x4 ADD PUSH1 0x40 MLOAD DUP1 SWAP2 SUB SWAP1 REVERT JUMPDEST DUP6 PUSH20 0xFFFFFFFFFFFFFFFFFFFFFFFFFFFFFFFFFFFFFFFF AND PUSH1 0x80 DUP2 PUSH20 0xFFFFFFFFFFFFFFFFFFFFFFFFFFFFFFFFFFFFFFFF AND DUP2 MSTORE POP POP DUP5 PUSH1 0x1 PUSH1 0x0 PUSH2 0x100 EXP DUP2 SLOAD DUP2 PUSH20 0xFFFFFFFFFFFFFFFFFFFFFFFFFFFFFFFFFFFFFFFF MUL NOT AND SWAP1 DUP4 PUSH20 0xFFFFFFFFFFFFFFFFFFFFFFFFFFFFFFFFFFFFFFFF AND MUL OR SWAP1 SSTORE POP DUP4 PUSH1 0xA0 DUP2 DUP2 MSTORE POP POP DUP3 PUSH1 0xC0 DUP2 DUP2 MSTORE POP POP DUP2 PUSH20 0xFFFFFFFFFFFFFFFFFFFFFFFFFFFFFFFFFFFFFFFF AND PUSH1 0xE0 DUP2 PUSH20 0xFFFFFFFFFFFFFFFFFFFFFFFFFFFFFFFFFFFFFFFF AND DUP2 MSTORE POP POP POP POP POP POP POP POP PUSH3 0x73B JUMP JUMPDEST PUSH1 0x0 DUP1 PUSH1 0x0 SWAP1 SLOAD SWAP1 PUSH2 0x100 EXP SWAP1 DIV PUSH20 0xFFFFFFFFFFFFFFFFFFFFFFFFFFFFFFFFFFFFFFFF AND SWAP1 POP DUP2 PUSH1 0x0 DUP1 PUSH2 0x100 EXP DUP2 SLOAD DUP2 PUSH20 0xFFFFFFFFFFFFFFFFFFFFFFFFFFFFFFFFFFFFFFFF MUL NOT AND SWAP1 DUP4 PUSH20 0xFFFFFFFFFFFFFFFFFFFFFFFFFFFFFFFFFFFFFFFF AND MUL OR SWAP1 SSTORE POP DUP2 PUSH20 0xFFFFFFFFFFFFFFFFFFFFFFFFFFFFFFFFFFFFFFFF AND DUP2 PUSH20 0xFFFFFFFFFFFFFFFFFFFFFFFFFFFFFFFFFFFFFFFF AND PUSH32 0x8BE0079C531659141344CD1FD0A4F28419497F9722A3DAAFE3B4186F6B6457E0 PUSH1 0x40 MLOAD PUSH1 0x40 MLOAD DUP1 SWAP2 SUB SWAP1 LOG3 POP POP JUMP JUMPDEST PUSH1 0x0 DUP1 REVERT JUMPDEST PUSH1 0x0 PUSH20 0xFFFFFFFFFFFFFFFFFFFFFFFFFFFFFFFFFFFFFFFF DUP3 AND SWAP1 POP SWAP2 SWAP1 POP JUMP JUMPDEST PUSH1 0x0 PUSH3 0x41D DUP3 PUSH3 0x3F0 JUMP JUMPDEST SWAP1 POP SWAP2 SWAP1 POP JUMP JUMPDEST PUSH1 0x0 PUSH3 0x431 DUP3 PUSH3 0x410 JUMP JUMPDEST SWAP1 POP SWAP2 SWAP1 POP JUMP JUMPDEST PUSH3 0x443 DUP2 PUSH3 0x424 JUMP JUMPDEST DUP2 EQ PUSH3 0x44F JUMPI PUSH1 0x0 DUP1 REVERT JUMPDEST POP JUMP JUMPDEST PUSH1 0x0 DUP2 MLOAD SWAP1 POP PUSH3 0x463 DUP2 PUSH3 0x438 JUMP JUMPDEST SWAP3 SWAP2 POP POP JUMP JUMPDEST PUSH1 0x0 PUSH3 0x476 DUP3 PUSH3 0x410 JUMP JUMPDEST SWAP1 POP SWAP2 SWAP1 POP JUMP JUMPDEST PUSH3 0x488 DUP2 PUSH3 0x469 JUMP JUMPDEST DUP2 EQ PUSH3 0x494 JUMPI PUSH1 0x0 DUP1 REVERT JUMPDEST POP JUMP JUMPDEST PUSH1 0x0 DUP2 MLOAD SWAP1 POP PUSH3 0x4A8 DUP2 PUSH3 0x47D JUMP JUMPDEST SWAP3 SWAP2 POP POP JUMP JUMPDEST PUSH1 0x0 DUP2 SWAP1 POP SWAP2 SWAP1 POP JUMP JUMPDEST PUSH3 0x4C3 DUP2 PUSH3 0x4AE JUMP JUMPDEST DUP2 EQ PUSH3 0x4CF JUMPI PUSH1 0x0 DUP1 REVERT JUMPDEST POP JUMP JUMPDEST PUSH1 0x0 DUP2 MLOAD SWAP1 POP PUSH3 0x4E3 DUP2 PUSH3 0x4B8 JUMP JUMPDEST SWAP3 SWAP2 POP POP JUMP JUMPDEST PUSH1 0x0 PUSH3 0x4F6 DUP3 PUSH3 0x410 JUMP JUMPDEST SWAP1 POP SWAP2 SWAP1 POP JUMP JUMPDEST PUSH3 0x508 DUP2 PUSH3 0x4E9 JUMP JUMPDEST DUP2 EQ PUSH3 0x514 JUMPI PUSH1 0x0 DUP1 REVERT JUMPDEST POP JUMP JUMPDEST PUSH1 0x0 DUP2 MLOAD SWAP1 POP PUSH3 0x528 DUP2 PUSH3 0x4FD JUMP JUMPDEST SWAP3 SWAP2 POP POP JUMP JUMPDEST PUSH1 0x0 PUSH3 0x53B DUP3 PUSH3 0x410 JUMP JUMPDEST SWAP1 POP SWAP2 SWAP1 POP JUMP JUMPDEST PUSH3 0x54D DUP2 PUSH3 0x52E JUMP JUMPDEST DUP2 EQ PUSH3 0x559 JUMPI PUSH1 0x0 DUP1 REVERT JUMPDEST POP JUMP JUMPDEST PUSH1 0x0 DUP2 MLOAD SWAP1 POP PUSH3 0x56D DUP2 PUSH3 0x542 JUMP JUMPDEST SWAP3 SWAP2 POP POP JUMP JUMPDEST PUSH1 0x0 DUP1 PUSH1 0x0 DUP1 PUSH1 0x0 DUP1 PUSH1 0xC0 DUP8 DUP10 SUB SLT ISZERO PUSH3 0x593 JUMPI PUSH3 0x592 PUSH3 0x3EB JUMP JUMPDEST JUMPDEST PUSH1 0x0 PUSH3 0x5A3 DUP10 DUP3 DUP11 ADD PUSH3 0x452 JUMP JUMPDEST SWAP7 POP POP PUSH1 0x20 PUSH3 0x5B6 DUP10 DUP3 DUP11 ADD PUSH3 0x497 JUMP JUMPDEST SWAP6 POP POP PUSH1 0x40 PUSH3 0x5C9 DUP10 DUP3 DUP11 ADD PUSH3 0x4D2 JUMP JUMPDEST SWAP5 POP POP PUSH1 0x60 PUSH3 0x5DC DUP10 DUP3 DUP11 ADD PUSH3 0x4D2 JUMP JUMPDEST SWAP4 POP POP PUSH1 0x80 PUSH3 0x5EF DUP10 DUP3 DUP11 ADD PUSH3 0x517 JUMP JUMPDEST SWAP3 POP POP PUSH1 0xA0 PUSH3 0x602 DUP10 DUP3 DUP11 ADD PUSH3 0x55C JUMP JUMPDEST SWAP2 POP POP SWAP3 SWAP6 POP SWAP3 SWAP6 POP SWAP3 SWAP6 JUMP JUMPDEST PUSH3 0x61A DUP2 PUSH3 0x410 JUMP JUMPDEST DUP3 MSTORE POP POP JUMP JUMPDEST PUSH1 0x0 PUSH1 0x20 DUP3 ADD SWAP1 POP PUSH3 0x637 PUSH1 0x0 DUP4 ADD DUP5 PUSH3 0x60F JUMP JUMPDEST SWAP3 SWAP2 POP POP JUMP JUMPDEST PUSH1 0x0 DUP2 SWAP1 POP SWAP2 SWAP1 POP JUMP JUMPDEST PUSH3 0x652 DUP2 PUSH3 0x63D JUMP JUMPDEST DUP3 MSTORE POP POP JUMP JUMPDEST PUSH1 0x0 PUSH1 0x20 DUP3 ADD SWAP1 POP PUSH3 0x66F PUSH1 0x0 DUP4 ADD DUP5 PUSH3 0x647 JUMP JUMPDEST SWAP3 SWAP2 POP POP JUMP JUMPDEST PUSH3 0x680 DUP2 PUSH3 0x410 JUMP JUMPDEST DUP2 EQ PUSH3 0x68C JUMPI PUSH1 0x0 DUP1 REVERT JUMPDEST POP JUMP JUMPDEST PUSH1 0x0 DUP2 MLOAD SWAP1 POP PUSH3 0x6A0 DUP2 PUSH3 0x675 JUMP JUMPDEST SWAP3 SWAP2 POP POP JUMP JUMPDEST PUSH1 0x0 PUSH1 0x20 DUP3 DUP5 SUB SLT ISZERO PUSH3 0x6BF JUMPI PUSH3 0x6BE PUSH3 0x3EB JUMP JUMPDEST JUMPDEST PUSH1 0x0 PUSH3 0x6CF DUP5 DUP3 DUP6 ADD PUSH3 0x68F JUMP JUMPDEST SWAP2 POP POP SWAP3 SWAP2 POP POP JUMP JUMPDEST PUSH3 0x6E3 DUP2 PUSH3 0x63D JUMP JUMPDEST DUP2 EQ PUSH3 0x6EF JUMPI PUSH1 0x0 DUP1 REVERT JUMPDEST POP JUMP JUMPDEST PUSH1 0x0 DUP2 MLOAD SWAP1 POP PUSH3 0x703 DUP2 PUSH3 0x6D8 JUMP JUMPDEST SWAP3 SWAP2 POP POP JUMP JUMPDEST PUSH1 0x0 PUSH1 0x20 DUP3 DUP5 SUB SLT ISZERO PUSH3 0x722 JUMPI PUSH3 0x721 PUSH3 0x3EB JUMP JUMPDEST JUMPDEST PUSH1 0x0 PUSH3 0x732 DUP5 DUP3 DUP6 ADD PUSH3 0x6F2 JUMP JUMPDEST SWAP2 POP POP SWAP3 SWAP2 POP POP JUMP JUMPDEST PUSH1 0x80 MLOAD PUSH1 0xA0 MLOAD PUSH1 0xC0 MLOAD PUSH1 0xE0 MLOAD PUSH2 0x2A98 PUSH3 0x79F PUSH1 0x0 CODECOPY PUSH1 0x0 DUP2 DUP2 PUSH2 0xB89 ADD MSTORE PUSH2 0x13A2 ADD MSTORE PUSH1 0x0 DUP2 DUP2 PUSH2 0xF9F ADD MSTORE DUP2 DUP2 PUSH2 0xFEA ADD MSTORE PUSH2 0x1190 ADD MSTORE PUSH1 0x0 DUP2 DUP2 PUSH2 0xC79 ADD MSTORE PUSH2 0x110D ADD MSTORE PUSH1 0x0 DUP2 DUP2 PUSH2 0x6D9 ADD MSTORE DUP2 DUP2 PUSH2 0xD92 ADD MSTORE PUSH2 0xEF9 ADD MSTORE PUSH2 0x2A98 PUSH1 0x0 RETURN INVALID PUSH1 0x80 PUSH1 0x40 MSTORE PUSH1 0x4 CALLDATASIZE LT PUSH2 0x11F JUMPI PUSH1 0x0 CALLDATALOAD PUSH1 0xE0 SHR DUP1 PUSH4 0x8A95B09F GT PUSH2 0xA0 JUMPI DUP1 PUSH4 0xAEB8CE9B GT PUSH2 0x64 JUMPI DUP1 PUSH4 0xAEB8CE9B EQ PUSH2 0x3B9 JUMPI DUP1 PUSH4 0xCE1E09C0 EQ PUSH2 0x3F6 JUMPI DUP1 PUSH4 0xD3419BF3 EQ PUSH2 0x421 JUMPI DUP1 PUSH4 0xF14FCBC8 EQ PUSH2 0x44C JUMPI DUP1 PUSH4 0xF2FDE38B EQ PUSH2 0x475 JUMPI PUSH2 0x11F JUMP JUMPDEST DUP1 PUSH4 0x8A95B09F EQ PUSH2 0x2DF JUMPI DUP1 PUSH4 0x8D839FFE EQ PUSH2 0x30A JUMPI DUP1 PUSH4 0x8DA5CB5B EQ PUSH2 0x335 JUMPI DUP1 PUSH4 0x9791C097 EQ PUSH2 0x360 JUMPI DUP1 PUSH4 0xACF1A841 EQ PUSH2 0x39D JUMPI PUSH2 0x11F JUMP JUMPDEST DUP1 PUSH4 0x5D3590D5 GT PUSH2 0xE7 JUMPI DUP1 PUSH4 0x5D3590D5 EQ PUSH2 0x1FA JUMPI DUP1 PUSH4 0x715018A6 EQ PUSH2 0x223 JUMPI DUP1 PUSH4 0x80869853 EQ PUSH2 0x23A JUMPI DUP1 PUSH4 0x839DF945 EQ PUSH2 0x265 JUMPI DUP1 PUSH4 0x83E7F6FF EQ PUSH2 0x2A2 JUMPI PUSH2 0x11F JUMP JUMPDEST DUP1 PUSH4 0x1FFC9A7 EQ PUSH2 0x124 JUMPI DUP1 PUSH4 0x237592E8 EQ PUSH2 0x161 JUMPI DUP1 PUSH4 0x3CCFD60B EQ PUSH2 0x17D JUMPI DUP1 PUSH4 0x3D4AA89E EQ PUSH2 0x194 JUMPI DUP1 PUSH4 0x530E784F EQ PUSH2 0x1D1 JUMPI JUMPDEST PUSH1 0x0 DUP1 REVERT JUMPDEST CALLVALUE DUP1 ISZERO PUSH2 0x130 JUMPI PUSH1 0x0 DUP1 REVERT JUMPDEST POP PUSH2 0x14B PUSH1 0x4 DUP1 CALLDATASIZE SUB DUP2 ADD SWAP1 PUSH2 0x146 SWAP2 SWAP1 PUSH2 0x17F5 JUMP JUMPDEST PUSH2 0x49E JUMP JUMPDEST PUSH1 0x40 MLOAD PUSH2 0x158 SWAP2 SWAP1 PUSH2 0x183D JUMP JUMPDEST PUSH1 0x40 MLOAD DUP1 SWAP2 SUB SWAP1 RETURN JUMPDEST PUSH2 0x17B PUSH1 0x4 DUP1 CALLDATASIZE SUB DUP2 ADD SWAP1 PUSH2 0x176 SWAP2 SWAP1 PUSH2 0x1A09 JUMP JUMPDEST PUSH2 0x570 JUMP JUMPDEST STOP JUMPDEST CALLVALUE DUP1 ISZERO PUSH2 0x189 JUMPI PUSH1 0x0 DUP1 REVERT JUMPDEST POP PUSH2 0x192 PUSH2 0x905 JUMP JUMPDEST STOP JUMPDEST CALLVALUE DUP1 ISZERO PUSH2 0x1A0 JUMPI PUSH1 0x0 DUP1 REVERT JUMPDEST POP PUSH2 0x1BB PUSH1 0x4 DUP1 CALLDATASIZE SUB DUP2 ADD SWAP1 PUSH2 0x1B6 SWAP2 SWAP1 PUSH2 0x1C2C JUMP JUMPDEST PUSH2 0x95D JUMP JUMPDEST PUSH1 0x40 MLOAD PUSH2 0x1C8 SWAP2 SWAP1 PUSH2 0x1D19 JUMP JUMPDEST PUSH1 0x40 MLOAD DUP1 SWAP2 SUB SWAP1 RETURN JUMPDEST CALLVALUE DUP1 ISZERO PUSH2 0x1DD JUMPI PUSH1 0x0 DUP1 REVERT JUMPDEST POP PUSH2 0x1F8 PUSH1 0x4 DUP1 CALLDATASIZE SUB DUP2 ADD SWAP1 PUSH2 0x1F3 SWAP2 SWAP1 PUSH2 0x1D72 JUMP JUMPDEST PUSH2 0xA9B JUMP JUMPDEST STOP JUMPDEST CALLVALUE DUP1 ISZERO PUSH2 0x206 JUMPI PUSH1 0x0 DUP1 REVERT JUMPDEST POP PUSH2 0x221 PUSH1 0x4 DUP1 CALLDATASIZE SUB DUP2 ADD SWAP1 PUSH2 0x21C SWAP2 SWAP1 PUSH2 0x1D9F JUMP JUMPDEST PUSH2 0xAE7 JUMP JUMPDEST STOP JUMPDEST CALLVALUE DUP1 ISZERO PUSH2 0x22F JUMPI PUSH1 0x0 DUP1 REVERT JUMPDEST POP PUSH2 0x238 PUSH2 0xB73 JUMP JUMPDEST STOP JUMPDEST CALLVALUE DUP1 ISZERO PUSH2 0x246 JUMPI PUSH1 0x0 DUP1 REVERT JUMPDEST POP PUSH2 0x24F PUSH2 0xB87 JUMP JUMPDEST PUSH1 0x40 MLOAD PUSH2 0x25C SWAP2 SWAP1 PUSH2 0x1E51 JUMP JUMPDEST PUSH1 0x40 MLOAD DUP1 SWAP2 SUB SWAP1 RETURN JUMPDEST CALLVALUE DUP1 ISZERO PUSH2 0x271 JUMPI PUSH1 0x0 DUP1 REVERT JUMPDEST POP PUSH2 0x28C PUSH1 0x4 DUP1 CALLDATASIZE SUB DUP2 ADD SWAP1 PUSH2 0x287 SWAP2 SWAP1 PUSH2 0x1E6C JUMP JUMPDEST PUSH2 0xBAB JUMP JUMPDEST PUSH1 0x40 MLOAD PUSH2 0x299 SWAP2 SWAP1 PUSH2 0x1EA8 JUMP JUMPDEST PUSH1 0x40 MLOAD DUP1 SWAP2 SUB SWAP1 RETURN JUMPDEST CALLVALUE DUP1 ISZERO PUSH2 0x2AE JUMPI PUSH1 0x0 DUP1 REVERT JUMPDEST POP PUSH2 0x2C9 PUSH1 0x4 DUP1 CALLDATASIZE SUB DUP2 ADD SWAP1 PUSH2 0x2C4 SWAP2 SWAP1 PUSH2 0x1EC3 JUMP JUMPDEST PUSH2 0xBC3 JUMP JUMPDEST PUSH1 0x40 MLOAD PUSH2 0x2D6 SWAP2 SWAP1 PUSH2 0x1F5D JUMP JUMPDEST PUSH1 0x40 MLOAD DUP1 SWAP2 SUB SWAP1 RETURN JUMPDEST CALLVALUE DUP1 ISZERO PUSH2 0x2EB JUMPI PUSH1 0x0 DUP1 REVERT JUMPDEST POP PUSH2 0x2F4 PUSH2 0xC70 JUMP JUMPDEST PUSH1 0x40 MLOAD PUSH2 0x301 SWAP2 SWAP1 PUSH2 0x1EA8 JUMP JUMPDEST PUSH1 0x40 MLOAD DUP1 SWAP2 SUB SWAP1 RETURN JUMPDEST CALLVALUE DUP1 ISZERO PUSH2 0x316 JUMPI PUSH1 0x0 DUP1 REVERT JUMPDEST POP PUSH2 0x31F PUSH2 0xC77 JUMP JUMPDEST PUSH1 0x40 MLOAD PUSH2 0x32C SWAP2 SWAP1 PUSH2 0x1EA8 JUMP JUMPDEST PUSH1 0x40 MLOAD DUP1 SWAP2 SUB SWAP1 RETURN JUMPDEST CALLVALUE DUP1 ISZERO PUSH2 0x341 JUMPI PUSH1 0x0 DUP1 REVERT JUMPDEST POP PUSH2 0x34A PUSH2 0xC9B JUMP JUMPDEST PUSH1 0x40 MLOAD PUSH2 0x357 SWAP2 SWAP1 PUSH2 0x1F87 JUMP JUMPDEST PUSH1 0x40 MLOAD DUP1 SWAP2 SUB SWAP1 RETURN JUMPDEST CALLVALUE DUP1 ISZERO PUSH2 0x36C JUMPI PUSH1 0x0 DUP1 REVERT JUMPDEST POP PUSH2 0x387 PUSH1 0x4 DUP1 CALLDATASIZE SUB DUP2 ADD SWAP1 PUSH2 0x382 SWAP2 SWAP1 PUSH2 0x1FA2 JUMP JUMPDEST PUSH2 0xCC4 JUMP JUMPDEST PUSH1 0x40 MLOAD PUSH2 0x394 SWAP2 SWAP1 PUSH2 0x183D JUMP JUMPDEST PUSH1 0x40 MLOAD DUP1 SWAP2 SUB SWAP1 RETURN JUMPDEST PUSH2 0x3B7 PUSH1 0x4 DUP1 CALLDATASIZE SUB DUP2 ADD SWAP1 PUSH2 0x3B2 SWAP2 SWAP1 PUSH2 0x1FEB JUMP JUMPDEST PUSH2 0xCDA JUMP JUMPDEST STOP JUMPDEST CALLVALUE DUP1 ISZERO PUSH2 0x3C5 JUMPI PUSH1 0x0 DUP1 REVERT JUMPDEST POP PUSH2 0x3E0 PUSH1 0x4 DUP1 CALLDATASIZE SUB DUP2 ADD SWAP1 PUSH2 0x3DB SWAP2 SWAP1 PUSH2 0x1FA2 JUMP JUMPDEST PUSH2 0xEDA JUMP JUMPDEST PUSH1 0x40 MLOAD PUSH2 0x3ED SWAP2 SWAP1 PUSH2 0x183D JUMP JUMPDEST PUSH1 0x40 MLOAD DUP1 SWAP2 SUB SWAP1 RETURN JUMPDEST CALLVALUE DUP1 ISZERO PUSH2 0x402 JUMPI PUSH1 0x0 DUP1 REVERT JUMPDEST POP PUSH2 0x40B PUSH2 0xF9D JUMP JUMPDEST PUSH1 0x40 MLOAD PUSH2 0x418 SWAP2 SWAP1 PUSH2 0x1EA8 JUMP JUMPDEST PUSH1 0x40 MLOAD DUP1 SWAP2 SUB SWAP1 RETURN JUMPDEST CALLVALUE DUP1 ISZERO PUSH2 0x42D JUMPI PUSH1 0x0 DUP1 REVERT JUMPDEST POP PUSH2 0x436 PUSH2 0xFC1 JUMP JUMPDEST PUSH1 0x40 MLOAD PUSH2 0x443 SWAP2 SWAP1 PUSH2 0x206C JUMP JUMPDEST PUSH1 0x40 MLOAD DUP1 SWAP2 SUB SWAP1 RETURN JUMPDEST CALLVALUE DUP1 ISZERO PUSH2 0x458 JUMPI PUSH1 0x0 DUP1 REVERT JUMPDEST POP PUSH2 0x473 PUSH1 0x4 DUP1 CALLDATASIZE SUB DUP2 ADD SWAP1 PUSH2 0x46E SWAP2 SWAP1 PUSH2 0x1E6C JUMP JUMPDEST PUSH2 0xFE7 JUMP JUMPDEST STOP JUMPDEST CALLVALUE DUP1 ISZERO PUSH2 0x481 JUMPI PUSH1 0x0 DUP1 REVERT JUMPDEST POP PUSH2 0x49C PUSH1 0x4 DUP1 CALLDATASIZE SUB DUP2 ADD SWAP1 PUSH2 0x497 SWAP2 SWAP1 PUSH2 0x2087 JUMP JUMPDEST PUSH2 0x1084 JUMP JUMPDEST STOP JUMPDEST PUSH1 0x0 PUSH32 0x1FFC9A700000000000000000000000000000000000000000000000000000000 PUSH28 0xFFFFFFFFFFFFFFFFFFFFFFFFFFFFFFFFFFFFFFFFFFFFFFFFFFFFFFFF NOT AND DUP3 PUSH28 0xFFFFFFFFFFFFFFFFFFFFFFFFFFFFFFFFFFFFFFFFFFFFFFFFFFFFFFFF NOT AND EQ DUP1 PUSH2 0x569 JUMPI POP PUSH32 0xE2B3754C00000000000000000000000000000000000000000000000000000000 PUSH28 0xFFFFFFFFFFFFFFFFFFFFFFFFFFFFFFFFFFFFFFFFFFFFFFFFFFFFFFFF NOT AND DUP3 PUSH28 0xFFFFFFFFFFFFFFFFFFFFFFFFFFFFFFFFFFFFFFFFFFFFFFFFFFFFFFFF NOT AND EQ JUMPDEST SWAP1 POP SWAP2 SWAP1 POP JUMP JUMPDEST PUSH1 0x0 PUSH2 0x5C0 DUP11 DUP11 DUP1 DUP1 PUSH1 0x1F ADD PUSH1 0x20 DUP1 SWAP2 DIV MUL PUSH1 0x20 ADD PUSH1 0x40 MLOAD SWAP1 DUP2 ADD PUSH1 0x40 MSTORE DUP1 SWAP4 SWAP3 SWAP2 SWAP1 DUP2 DUP2 MSTORE PUSH1 0x20 ADD DUP4 DUP4 DUP1 DUP3 DUP5 CALLDATACOPY PUSH1 0x0 DUP2 DUP5 ADD MSTORE PUSH1 0x1F NOT PUSH1 0x1F DUP3 ADD AND SWAP1 POP DUP1 DUP4 ADD SWAP3 POP POP POP POP POP POP POP DUP9 PUSH2 0xBC3 JUMP JUMPDEST SWAP1 POP DUP1 PUSH1 0x20 ADD MLOAD DUP2 PUSH1 0x0 ADD MLOAD PUSH2 0x5D6 SWAP2 SWAP1 PUSH2 0x20E3 JUMP JUMPDEST CALLVALUE LT ISZERO PUSH2 0x60F JUMPI PUSH1 0x40 MLOAD PUSH32 0x1101129400000000000000000000000000000000000000000000000000000000 DUP2 MSTORE PUSH1 0x4 ADD PUSH1 0x40 MLOAD DUP1 SWAP2 SUB SWAP1 REVERT JUMPDEST PUSH2 0x6B1 DUP11 DUP11 DUP1 DUP1 PUSH1 0x1F ADD PUSH1 0x20 DUP1 SWAP2 DIV MUL PUSH1 0x20 ADD PUSH1 0x40 MLOAD SWAP1 DUP2 ADD PUSH1 0x40 MSTORE DUP1 SWAP4 SWAP3 SWAP2 SWAP1 DUP2 DUP2 MSTORE PUSH1 0x20 ADD DUP4 DUP4 DUP1 DUP3 DUP5 CALLDATACOPY PUSH1 0x0 DUP2 DUP5 ADD MSTORE PUSH1 0x1F NOT PUSH1 0x1F DUP3 ADD AND SWAP1 POP DUP1 DUP4 ADD SWAP3 POP POP POP POP POP POP POP DUP9 PUSH2 0x6AC DUP14 DUP14 DUP1 DUP1 PUSH1 0x1F ADD PUSH1 0x20 DUP1 SWAP2 DIV MUL PUSH1 0x20 ADD PUSH1 0x40 MLOAD SWAP1 DUP2 ADD PUSH1 0x40 MSTORE DUP1 SWAP4 SWAP3 SWAP2 SWAP1 DUP2 DUP2 MSTORE PUSH1 0x20 ADD DUP4 DUP4 DUP1 DUP3 DUP5 CALLDATACOPY PUSH1 0x0 DUP2 DUP5 ADD MSTORE PUSH1 0x1F NOT PUSH1 0x1F DUP3 ADD AND SWAP1 POP DUP1 DUP4 ADD SWAP3 POP POP POP POP POP POP POP DUP13 DUP13 DUP13 DUP13 DUP13 DUP13 DUP13 PUSH2 0x95D JUMP JUMPDEST PUSH2 0x110A JUMP JUMPDEST PUSH1 0x0 DUP11 DUP11 PUSH1 0x40 MLOAD PUSH2 0x6C3 SWAP3 SWAP2 SWAP1 PUSH2 0x2147 JUMP JUMPDEST PUSH1 0x40 MLOAD DUP1 SWAP2 SUB SWAP1 KECCAK256 SWAP1 POP PUSH1 0x0 DUP2 PUSH1 0x0 SHR SWAP1 POP PUSH1 0x0 PUSH32 0x0 PUSH20 0xFFFFFFFFFFFFFFFFFFFFFFFFFFFFFFFFFFFFFFFF AND PUSH4 0xFCA247AC DUP4 CALLER DUP14 PUSH1 0x40 MLOAD DUP5 PUSH4 0xFFFFFFFF AND PUSH1 0xE0 SHL DUP2 MSTORE PUSH1 0x4 ADD PUSH2 0x734 SWAP4 SWAP3 SWAP2 SWAP1 PUSH2 0x2160 JUMP JUMPDEST PUSH1 0x20 PUSH1 0x40 MLOAD DUP1 DUP4 SUB DUP2 PUSH1 0x0 DUP8 GAS CALL ISZERO DUP1 ISZERO PUSH2 0x753 JUMPI RETURNDATASIZE PUSH1 0x0 DUP1 RETURNDATACOPY RETURNDATASIZE PUSH1 0x0 REVERT JUMPDEST POP POP POP POP PUSH1 0x40 MLOAD RETURNDATASIZE PUSH1 0x1F NOT PUSH1 0x1F DUP3 ADD AND DUP3 ADD DUP1 PUSH1 0x40 MSTORE POP DUP2 ADD SWAP1 PUSH2 0x777 SWAP2 SWAP1 PUSH2 0x21AC JUMP JUMPDEST SWAP1 POP PUSH1 0x0 DUP8 DUP8 SWAP1 POP GT ISZERO PUSH2 0x7A9 JUMPI PUSH2 0x7A8 DUP9 DUP15 DUP15 PUSH1 0x40 MLOAD PUSH2 0x799 SWAP3 SWAP2 SWAP1 PUSH2 0x2147 JUMP JUMPDEST PUSH1 0x40 MLOAD DUP1 SWAP2 SUB SWAP1 KECCAK256 DUP10 DUP10 PUSH2 0x12BD JUMP JUMPDEST JUMPDEST DUP5 ISZERO PUSH2 0x7FF JUMPI PUSH2 0x7FE DUP14 DUP14 DUP1 DUP1 PUSH1 0x1F ADD PUSH1 0x20 DUP1 SWAP2 DIV MUL PUSH1 0x20 ADD PUSH1 0x40 MLOAD SWAP1 DUP2 ADD PUSH1 0x40 MSTORE DUP1 SWAP4 SWAP3 SWAP2 SWAP1 DUP2 DUP2 MSTORE PUSH1 0x20 ADD DUP4 DUP4 DUP1 DUP3 DUP5 CALLDATACOPY PUSH1 0x0 DUP2 DUP5 ADD MSTORE PUSH1 0x1F NOT PUSH1 0x1F DUP3 ADD AND SWAP1 POP DUP1 DUP4 ADD SWAP3 POP POP POP POP POP POP POP DUP10 CALLER PUSH2 0x13A0 JUMP JUMPDEST JUMPDEST DUP11 PUSH20 0xFFFFFFFFFFFFFFFFFFFFFFFFFFFFFFFFFFFFFFFF AND DUP14 DUP14 PUSH1 0x40 MLOAD PUSH2 0x826 SWAP3 SWAP2 SWAP1 PUSH2 0x2147 JUMP JUMPDEST PUSH1 0x40 MLOAD DUP1 SWAP2 SUB SWAP1 KECCAK256 PUSH32 0x69E37F151EB98A09618DDAA80C8CFAF1CE5996867C489F45B555B412271EBF27 DUP16 DUP16 DUP9 PUSH1 0x0 ADD MLOAD DUP10 PUSH1 0x20 ADD MLOAD DUP8 PUSH1 0x40 MLOAD PUSH2 0x86D SWAP6 SWAP5 SWAP4 SWAP3 SWAP2 SWAP1 PUSH2 0x2217 JUMP JUMPDEST PUSH1 0x40 MLOAD DUP1 SWAP2 SUB SWAP1 LOG3 DUP4 PUSH1 0x20 ADD MLOAD DUP5 PUSH1 0x0 ADD MLOAD PUSH2 0x889 SWAP2 SWAP1 PUSH2 0x20E3 JUMP JUMPDEST CALLVALUE GT ISZERO PUSH2 0x8F6 JUMPI CALLER PUSH20 0xFFFFFFFFFFFFFFFFFFFFFFFFFFFFFFFFFFFFFFFF AND PUSH2 0x8FC DUP6 PUSH1 0x20 ADD MLOAD DUP7 PUSH1 0x0 ADD MLOAD PUSH2 0x8BE SWAP2 SWAP1 PUSH2 0x20E3 JUMP JUMPDEST CALLVALUE PUSH2 0x8C9 SWAP2 SWAP1 PUSH2 0x2265 JUMP JUMPDEST SWAP1 DUP2 ISZERO MUL SWAP1 PUSH1 0x40 MLOAD PUSH1 0x0 PUSH1 0x40 MLOAD DUP1 DUP4 SUB DUP2 DUP6 DUP9 DUP9 CALL SWAP4 POP POP POP POP ISZERO DUP1 ISZERO PUSH2 0x8F4 JUMPI RETURNDATASIZE PUSH1 0x0 DUP1 RETURNDATACOPY RETURNDATASIZE PUSH1 0x0 REVERT JUMPDEST POP JUMPDEST POP POP POP POP POP POP POP POP POP POP POP POP POP JUMP JUMPDEST PUSH2 0x90D PUSH2 0x1467 JUMP JUMPDEST PUSH2 0x915 PUSH2 0xC9B JUMP JUMPDEST PUSH20 0xFFFFFFFFFFFFFFFFFFFFFFFFFFFFFFFFFFFFFFFF AND PUSH2 0x8FC SELFBALANCE SWAP1 DUP2 ISZERO MUL SWAP1 PUSH1 0x40 MLOAD PUSH1 0x0 PUSH1 0x40 MLOAD DUP1 DUP4 SUB DUP2 DUP6 DUP9 DUP9 CALL SWAP4 POP POP POP POP ISZERO DUP1 ISZERO PUSH2 0x95A JUMPI RETURNDATASIZE PUSH1 0x0 DUP1 RETURNDATACOPY RETURNDATASIZE PUSH1 0x0 REVERT JUMPDEST POP JUMP JUMPDEST PUSH1 0x0 DUP1 DUP10 DUP1 MLOAD SWAP1 PUSH1 0x20 ADD KECCAK256 SWAP1 POP PUSH1 0x0 PUSH20 0xFFFFFFFFFFFFFFFFFFFFFFFFFFFFFFFFFFFFFFFF AND DUP7 PUSH20 0xFFFFFFFFFFFFFFFFFFFFFFFFFFFFFFFFFFFFFFFF AND EQ DUP1 ISZERO PUSH2 0x9AA JUMPI POP PUSH1 0x1 ISZERO ISZERO DUP4 ISZERO ISZERO EQ JUMPDEST ISZERO PUSH2 0x9E1 JUMPI PUSH1 0x40 MLOAD PUSH32 0x406D917600000000000000000000000000000000000000000000000000000000 DUP2 MSTORE PUSH1 0x4 ADD PUSH1 0x40 MLOAD DUP1 SWAP2 SUB SWAP1 REVERT JUMPDEST PUSH1 0x0 DUP6 DUP6 SWAP1 POP GT DUP1 ISZERO PUSH2 0xA20 JUMPI POP PUSH1 0x0 PUSH20 0xFFFFFFFFFFFFFFFFFFFFFFFFFFFFFFFFFFFFFFFF AND DUP7 PUSH20 0xFFFFFFFFFFFFFFFFFFFFFFFFFFFFFFFFFFFFFFFF AND EQ JUMPDEST ISZERO PUSH2 0xA57 JUMPI PUSH1 0x40 MLOAD PUSH32 0xD3F605C400000000000000000000000000000000000000000000000000000000 DUP2 MSTORE PUSH1 0x4 ADD PUSH1 0x40 MLOAD DUP1 SWAP2 SUB SWAP1 REVERT JUMPDEST DUP1 DUP10 DUP10 DUP10 DUP10 DUP10 DUP10 DUP10 PUSH1 0x40 MLOAD PUSH1 0x20 ADD PUSH2 0xA76 SWAP9 SWAP8 SWAP7 SWAP6 SWAP5 SWAP4 SWAP3 SWAP2 SWAP1 PUSH2 0x23FD JUMP JUMPDEST PUSH1 0x40 MLOAD PUSH1 0x20 DUP2 DUP4 SUB SUB DUP2 MSTORE SWAP1 PUSH1 0x40 MSTORE DUP1 MLOAD SWAP1 PUSH1 0x20 ADD KECCAK256 SWAP2 POP POP SWAP9 SWAP8 POP POP POP POP POP POP POP POP JUMP JUMPDEST PUSH2 0xAA3 PUSH2 0x1467 JUMP JUMPDEST DUP1 PUSH1 0x1 PUSH1 0x0 PUSH2 0x100 EXP DUP2 SLOAD DUP2 PUSH20 0xFFFFFFFFFFFFFFFFFFFFFFFFFFFFFFFFFFFFFFFF MUL NOT AND SWAP1 DUP4 PUSH20 0xFFFFFFFFFFFFFFFFFFFFFFFFFFFFFFFFFFFFFFFF AND MUL OR SWAP1 SSTORE POP POP JUMP JUMPDEST PUSH2 0xAEF PUSH2 0x1467 JUMP JUMPDEST DUP3 PUSH20 0xFFFFFFFFFFFFFFFFFFFFFFFFFFFFFFFFFFFFFFFF AND PUSH4 0xA9059CBB DUP4 DUP4 PUSH1 0x40 MLOAD DUP4 PUSH4 0xFFFFFFFF AND PUSH1 0xE0 SHL DUP2 MSTORE PUSH1 0x4 ADD PUSH2 0xB2A SWAP3 SWAP2 SWAP1 PUSH2 0x2475 JUMP JUMPDEST PUSH1 0x20 PUSH1 0x40 MLOAD DUP1 DUP4 SUB DUP2 PUSH1 0x0 DUP8 GAS CALL ISZERO DUP1 ISZERO PUSH2 0xB49 JUMPI RETURNDATASIZE PUSH1 0x0 DUP1 RETURNDATACOPY RETURNDATASIZE PUSH1 0x0 REVERT JUMPDEST POP POP POP POP PUSH1 0x40 MLOAD RETURNDATASIZE PUSH1 0x1F NOT PUSH1 0x1F DUP3 ADD AND DUP3 ADD DUP1 PUSH1 0x40 MSTORE POP DUP2 ADD SWAP1 PUSH2 0xB6D SWAP2 SWAP1 PUSH2 0x24B3 JUMP JUMPDEST POP POP POP POP JUMP JUMPDEST PUSH2 0xB7B PUSH2 0x1467 JUMP JUMPDEST PUSH2 0xB85 PUSH1 0x0 PUSH2 0x14EE JUMP JUMPDEST JUMP JUMPDEST PUSH32 0x0 DUP2 JUMP JUMPDEST PUSH1 0x2 PUSH1 0x20 MSTORE DUP1 PUSH1 0x0 MSTORE PUSH1 0x40 PUSH1 0x0 KECCAK256 PUSH1 0x0 SWAP2 POP SWAP1 POP SLOAD DUP2 JUMP JUMPDEST PUSH2 0xBCB PUSH2 0x176F JUMP JUMPDEST PUSH1 0x1 PUSH1 0x0 SWAP1 SLOAD SWAP1 PUSH2 0x100 EXP SWAP1 DIV PUSH20 0xFFFFFFFFFFFFFFFFFFFFFFFFFFFFFFFFFFFFFFFF AND PUSH20 0xFFFFFFFFFFFFFFFFFFFFFFFFFFFFFFFFFFFFFFFF AND PUSH4 0x19B989A0 DUP5 DUP5 PUSH1 0x40 MLOAD DUP4 PUSH4 0xFFFFFFFF AND PUSH1 0xE0 SHL DUP2 MSTORE PUSH1 0x4 ADD PUSH2 0xC28 SWAP3 SWAP2 SWAP1 PUSH2 0x254E JUMP JUMPDEST PUSH1 0x40 DUP1 MLOAD DUP1 DUP4 SUB DUP2 DUP7 GAS STATICCALL ISZERO DUP1 ISZERO PUSH2 0xC44 JUMPI RETURNDATASIZE PUSH1 0x0 DUP1 RETURNDATACOPY RETURNDATASIZE PUSH1 0x0 REVERT JUMPDEST POP POP POP POP PUSH1 0x40 MLOAD RETURNDATASIZE PUSH1 0x1F NOT PUSH1 0x1F DUP3 ADD AND DUP3 ADD DUP1 PUSH1 0x40 MSTORE POP DUP2 ADD SWAP1 PUSH2 0xC68 SWAP2 SWAP1 PUSH2 0x25D3 JUMP JUMPDEST SWAP1 POP SWAP3 SWAP2 POP POP JUMP JUMPDEST PUSH3 0x24EA00 DUP2 JUMP JUMPDEST PUSH32 0x0 DUP2 JUMP JUMPDEST PUSH1 0x0 DUP1 PUSH1 0x0 SWAP1 SLOAD SWAP1 PUSH2 0x100 EXP SWAP1 DIV PUSH20 0xFFFFFFFFFFFFFFFFFFFFFFFFFFFFFFFFFFFFFFFF AND SWAP1 POP SWAP1 JUMP JUMPDEST PUSH1 0x0 PUSH1 0x2 PUSH2 0xCD1 DUP4 PUSH2 0x15B2 JUMP JUMPDEST LT ISZERO SWAP1 POP SWAP2 SWAP1 POP JUMP JUMPDEST PUSH1 0x0 DUP4 DUP4 PUSH1 0x40 MLOAD PUSH2 0xCEC SWAP3 SWAP2 SWAP1 PUSH2 0x2147 JUMP JUMPDEST PUSH1 0x40 MLOAD DUP1 SWAP2 SUB SWAP1 KECCAK256 SWAP1 POP PUSH1 0x0 DUP2 PUSH1 0x0 SHR SWAP1 POP PUSH1 0x0 PUSH2 0xD4E DUP7 DUP7 DUP1 DUP1 PUSH1 0x1F ADD PUSH1 0x20 DUP1 SWAP2 DIV MUL PUSH1 0x20 ADD PUSH1 0x40 MLOAD SWAP1 DUP2 ADD PUSH1 0x40 MSTORE DUP1 SWAP4 SWAP3 SWAP2 SWAP1 DUP2 DUP2 MSTORE PUSH1 0x20 ADD DUP4 DUP4 DUP1 DUP3 DUP5 CALLDATACOPY PUSH1 0x0 DUP2 DUP5 ADD MSTORE PUSH1 0x1F NOT PUSH1 0x1F DUP3 ADD AND SWAP1 POP DUP1 DUP4 ADD SWAP3 POP POP POP POP POP POP POP DUP6 PUSH2 0xBC3 JUMP JUMPDEST SWAP1 POP DUP1 PUSH1 0x0 ADD MLOAD CALLVALUE LT ISZERO PUSH2 0xD8E JUMPI PUSH1 0x40 MLOAD PUSH32 0x1101129400000000000000000000000000000000000000000000000000000000 DUP2 MSTORE PUSH1 0x4 ADD PUSH1 0x40 MLOAD DUP1 SWAP2 SUB SWAP1 REVERT JUMPDEST PUSH1 0x0 PUSH32 0x0 PUSH20 0xFFFFFFFFFFFFFFFFFFFFFFFFFFFFFFFFFFFFFFFF AND PUSH4 0xC475ABFF DUP5 DUP8 PUSH1 0x40 MLOAD DUP4 PUSH4 0xFFFFFFFF AND PUSH1 0xE0 SHL DUP2 MSTORE PUSH1 0x4 ADD PUSH2 0xDEB SWAP3 SWAP2 SWAP1 PUSH2 0x2600 JUMP JUMPDEST PUSH1 0x20 PUSH1 0x40 MLOAD DUP1 DUP4 SUB DUP2 PUSH1 0x0 DUP8 GAS CALL ISZERO DUP1 ISZERO PUSH2 0xE0A JUMPI RETURNDATASIZE PUSH1 0x0 DUP1 RETURNDATACOPY RETURNDATASIZE PUSH1 0x0 REVERT JUMPDEST POP POP POP POP PUSH1 0x40 MLOAD RETURNDATASIZE PUSH1 0x1F NOT PUSH1 0x1F DUP3 ADD AND DUP3 ADD DUP1 PUSH1 0x40 MSTORE POP DUP2 ADD SWAP1 PUSH2 0xE2E SWAP2 SWAP1 PUSH2 0x21AC JUMP JUMPDEST SWAP1 POP DUP2 PUSH1 0x0 ADD MLOAD CALLVALUE GT ISZERO PUSH2 0xE93 JUMPI CALLER PUSH20 0xFFFFFFFFFFFFFFFFFFFFFFFFFFFFFFFFFFFFFFFF AND PUSH2 0x8FC DUP4 PUSH1 0x0 ADD MLOAD CALLVALUE PUSH2 0xE66 SWAP2 SWAP1 PUSH2 0x2265 JUMP JUMPDEST SWAP1 DUP2 ISZERO MUL SWAP1 PUSH1 0x40 MLOAD PUSH1 0x0 PUSH1 0x40 MLOAD DUP1 DUP4 SUB DUP2 DUP6 DUP9 DUP9 CALL SWAP4 POP POP POP POP ISZERO DUP1 ISZERO PUSH2 0xE91 JUMPI RETURNDATASIZE PUSH1 0x0 DUP1 RETURNDATACOPY RETURNDATASIZE PUSH1 0x0 REVERT JUMPDEST POP JUMPDEST DUP4 PUSH32 0x3DA24C024582931CFAF8267D8ED24D13A82A8068D5BD337D30EC45CEA4E506AE DUP9 DUP9 CALLVALUE DUP6 PUSH1 0x40 MLOAD PUSH2 0xEC9 SWAP5 SWAP4 SWAP3 SWAP2 SWAP1 PUSH2 0x2629 JUMP JUMPDEST PUSH1 0x40 MLOAD DUP1 SWAP2 SUB SWAP1 LOG2 POP POP POP POP POP POP POP JUMP JUMPDEST PUSH1 0x0 DUP1 DUP3 DUP1 MLOAD SWAP1 PUSH1 0x20 ADD KECCAK256 SWAP1 POP PUSH2 0xEF0 DUP4 PUSH2 0xCC4 JUMP JUMPDEST DUP1 ISZERO PUSH2 0xF95 JUMPI POP PUSH32 0x0 PUSH20 0xFFFFFFFFFFFFFFFFFFFFFFFFFFFFFFFFFFFFFFFF AND PUSH4 0x96E494E8 DUP3 PUSH1 0x0 SHR PUSH1 0x40 MLOAD DUP3 PUSH4 0xFFFFFFFF AND PUSH1 0xE0 SHL DUP2 MSTORE PUSH1 0x4 ADD PUSH2 0xF53 SWAP2 SWAP1 PUSH2 0x1EA8 JUMP JUMPDEST PUSH1 0x20 PUSH1 0x40 MLOAD DUP1 DUP4 SUB DUP2 DUP7 GAS STATICCALL ISZERO DUP1 ISZERO PUSH2 0xF70 JUMPI RETURNDATASIZE PUSH1 0x0 DUP1 RETURNDATACOPY RETURNDATASIZE PUSH1 0x0 REVERT JUMPDEST POP POP POP POP PUSH1 0x40 MLOAD RETURNDATASIZE PUSH1 0x1F NOT PUSH1 0x1F DUP3 ADD AND DUP3 ADD DUP1 PUSH1 0x40 MSTORE POP DUP2 ADD SWAP1 PUSH2 0xF94 SWAP2 SWAP1 PUSH2 0x24B3 JUMP JUMPDEST JUMPDEST SWAP2 POP POP SWAP2 SWAP1 POP JUMP JUMPDEST PUSH32 0x0 DUP2 JUMP JUMPDEST PUSH1 0x1 PUSH1 0x0 SWAP1 SLOAD SWAP1 PUSH2 0x100 EXP SWAP1 DIV PUSH20 0xFFFFFFFFFFFFFFFFFFFFFFFFFFFFFFFFFFFFFFFF AND DUP2 JUMP JUMPDEST TIMESTAMP PUSH32 0x0 PUSH1 0x2 PUSH1 0x0 DUP5 DUP2 MSTORE PUSH1 0x20 ADD SWAP1 DUP2 MSTORE PUSH1 0x20 ADD PUSH1 0x0 KECCAK256 SLOAD PUSH2 0x1027 SWAP2 SWAP1 PUSH2 0x20E3 JUMP JUMPDEST LT PUSH2 0x1069 JUMPI DUP1 PUSH1 0x40 MLOAD PUSH32 0xA059D7100000000000000000000000000000000000000000000000000000000 DUP2 MSTORE PUSH1 0x4 ADD PUSH2 0x1060 SWAP2 SWAP1 PUSH2 0x1D19 JUMP JUMPDEST PUSH1 0x40 MLOAD DUP1 SWAP2 SUB SWAP1 REVERT JUMPDEST TIMESTAMP PUSH1 0x2 PUSH1 0x0 DUP4 DUP2 MSTORE PUSH1 0x20 ADD SWAP1 DUP2 MSTORE PUSH1 0x20 ADD PUSH1 0x0 KECCAK256 DUP2 SWAP1 SSTORE POP POP JUMP JUMPDEST PUSH2 0x108C PUSH2 0x1467 JUMP JUMPDEST PUSH1 0x0 PUSH20 0xFFFFFFFFFFFFFFFFFFFFFFFFFFFFFFFFFFFFFFFF AND DUP2 PUSH20 0xFFFFFFFFFFFFFFFFFFFFFFFFFFFFFFFFFFFFFFFF AND SUB PUSH2 0x10FE JUMPI PUSH1 0x0 PUSH1 0x40 MLOAD PUSH32 0x1E4FBDF700000000000000000000000000000000000000000000000000000000 DUP2 MSTORE PUSH1 0x4 ADD PUSH2 0x10F5 SWAP2 SWAP1 PUSH2 0x1F87 JUMP JUMPDEST PUSH1 0x40 MLOAD DUP1 SWAP2 SUB SWAP1 REVERT JUMPDEST PUSH2 0x1107 DUP2 PUSH2 0x14EE JUMP JUMPDEST POP JUMP JUMPDEST TIMESTAMP PUSH32 0x0 PUSH1 0x2 PUSH1 0x0 DUP5 DUP2 MSTORE PUSH1 0x20 ADD SWAP1 DUP2 MSTORE PUSH1 0x20 ADD PUSH1 0x0 KECCAK256 SLOAD PUSH2 0x114A SWAP2 SWAP1 PUSH2 0x20E3 JUMP JUMPDEST GT ISZERO PUSH2 0x118D JUMPI DUP1 PUSH1 0x40 MLOAD PUSH32 0x5320BCF900000000000000000000000000000000000000000000000000000000 DUP2 MSTORE PUSH1 0x4 ADD PUSH2 0x1184 SWAP2 SWAP1 PUSH2 0x1D19 JUMP JUMPDEST PUSH1 0x40 MLOAD DUP1 SWAP2 SUB SWAP1 REVERT JUMPDEST TIMESTAMP PUSH32 0x0 PUSH1 0x2 PUSH1 0x0 DUP5 DUP2 MSTORE PUSH1 0x20 ADD SWAP1 DUP2 MSTORE PUSH1 0x20 ADD PUSH1 0x0 KECCAK256 SLOAD PUSH2 0x11CD SWAP2 SWAP1 PUSH2 0x20E3 JUMP JUMPDEST GT PUSH2 0x120F JUMPI DUP1 PUSH1 0x40 MLOAD PUSH32 0xCB7690D700000000000000000000000000000000000000000000000000000000 DUP2 MSTORE PUSH1 0x4 ADD PUSH2 0x1206 SWAP2 SWAP1 PUSH2 0x1D19 JUMP JUMPDEST PUSH1 0x40 MLOAD DUP1 SWAP2 SUB SWAP1 REVERT JUMPDEST PUSH2 0x1218 DUP4 PUSH2 0xEDA JUMP JUMPDEST PUSH2 0x1259 JUMPI DUP3 PUSH1 0x40 MLOAD PUSH32 0x477707E800000000000000000000000000000000000000000000000000000000 DUP2 MSTORE PUSH1 0x4 ADD PUSH2 0x1250 SWAP2 SWAP1 PUSH2 0x2669 JUMP JUMPDEST PUSH1 0x40 MLOAD DUP1 SWAP2 SUB SWAP1 REVERT JUMPDEST PUSH1 0x2 PUSH1 0x0 DUP3 DUP2 MSTORE PUSH1 0x20 ADD SWAP1 DUP2 MSTORE PUSH1 0x20 ADD PUSH1 0x0 KECCAK256 PUSH1 0x0 SWAP1 SSTORE PUSH3 0x24EA00 DUP3 LT ISZERO PUSH2 0x12B8 JUMPI DUP2 PUSH1 0x40 MLOAD PUSH32 0x9A71997B00000000000000000000000000000000000000000000000000000000 DUP2 MSTORE PUSH1 0x4 ADD PUSH2 0x12AF SWAP2 SWAP1 PUSH2 0x1EA8 JUMP JUMPDEST PUSH1 0x40 MLOAD DUP1 SWAP2 SUB SWAP1 REVERT JUMPDEST POP POP POP JUMP JUMPDEST PUSH1 0x0 PUSH32 0xFB5F84575B89B73C6F6A4B64BFA657505766152EAF7A7BDCC4FFE2C678D72825 PUSH1 0x0 SHL DUP5 PUSH1 0x40 MLOAD PUSH1 0x20 ADD PUSH2 0x12F5 SWAP3 SWAP2 SWAP1 PUSH2 0x26AC JUMP JUMPDEST PUSH1 0x40 MLOAD PUSH1 0x20 DUP2 DUP4 SUB SUB DUP2 MSTORE SWAP1 PUSH1 0x40 MSTORE DUP1 MLOAD SWAP1 PUSH1 0x20 ADD KECCAK256 SWAP1 POP PUSH1 0x0 DUP6 SWAP1 POP DUP1 PUSH20 0xFFFFFFFFFFFFFFFFFFFFFFFFFFFFFFFFFFFFFFFF AND PUSH4 0xE32954EB DUP4 DUP7 DUP7 PUSH1 0x40 MLOAD DUP5 PUSH4 0xFFFFFFFF AND PUSH1 0xE0 SHL DUP2 MSTORE PUSH1 0x4 ADD PUSH2 0x134F SWAP4 SWAP3 SWAP2 SWAP1 PUSH2 0x26D8 JUMP JUMPDEST PUSH1 0x0 PUSH1 0x40 MLOAD DUP1 DUP4 SUB DUP2 PUSH1 0x0 DUP8 GAS CALL ISZERO DUP1 ISZERO PUSH2 0x136E JUMPI RETURNDATASIZE PUSH1 0x0 DUP1 RETURNDATACOPY RETURNDATASIZE PUSH1 0x0 REVERT JUMPDEST POP POP POP POP PUSH1 0x40 MLOAD RETURNDATASIZE PUSH1 0x0 DUP3 RETURNDATACOPY RETURNDATASIZE PUSH1 0x1F NOT PUSH1 0x1F DUP3 ADD AND DUP3 ADD DUP1 PUSH1 0x40 MSTORE POP DUP2 ADD SWAP1 PUSH2 0x1397 SWAP2 SWAP1 PUSH2 0x288C JUMP JUMPDEST POP POP POP POP POP POP POP JUMP JUMPDEST PUSH32 0x0 PUSH20 0xFFFFFFFFFFFFFFFFFFFFFFFFFFFFFFFFFFFFFFFF AND PUSH4 0x7A806D6B CALLER DUP4 DUP6 DUP8 PUSH1 0x40 MLOAD PUSH1 0x20 ADD PUSH2 0x13F0 SWAP2 SWAP1 PUSH2 0x2937 JUMP JUMPDEST PUSH1 0x40 MLOAD PUSH1 0x20 DUP2 DUP4 SUB SUB DUP2 MSTORE SWAP1 PUSH1 0x40 MSTORE PUSH1 0x40 MLOAD DUP6 PUSH4 0xFFFFFFFF AND PUSH1 0xE0 SHL DUP2 MSTORE PUSH1 0x4 ADD PUSH2 0x141E SWAP5 SWAP4 SWAP3 SWAP2 SWAP1 PUSH2 0x295D JUMP JUMPDEST PUSH1 0x20 PUSH1 0x40 MLOAD DUP1 DUP4 SUB DUP2 PUSH1 0x0 DUP8 GAS CALL ISZERO DUP1 ISZERO PUSH2 0x143D JUMPI RETURNDATASIZE PUSH1 0x0 DUP1 RETURNDATACOPY RETURNDATASIZE PUSH1 0x0 REVERT JUMPDEST POP POP POP POP PUSH1 0x40 MLOAD RETURNDATASIZE PUSH1 0x1F NOT PUSH1 0x1F DUP3 ADD AND DUP3 ADD DUP1 PUSH1 0x40 MSTORE POP DUP2 ADD SWAP1 PUSH2 0x1461 SWAP2 SWAP1 PUSH2 0x29BE JUMP JUMPDEST POP POP POP POP JUMP JUMPDEST PUSH2 0x146F PUSH2 0x1767 JUMP JUMPDEST PUSH20 0xFFFFFFFFFFFFFFFFFFFFFFFFFFFFFFFFFFFFFFFF AND PUSH2 0x148D PUSH2 0xC9B JUMP JUMPDEST PUSH20 0xFFFFFFFFFFFFFFFFFFFFFFFFFFFFFFFFFFFFFFFF AND EQ PUSH2 0x14EC JUMPI PUSH2 0x14B0 PUSH2 0x1767 JUMP JUMPDEST PUSH1 0x40 MLOAD PUSH32 0x118CDAA700000000000000000000000000000000000000000000000000000000 DUP2 MSTORE PUSH1 0x4 ADD PUSH2 0x14E3 SWAP2 SWAP1 PUSH2 0x1F87 JUMP JUMPDEST PUSH1 0x40 MLOAD DUP1 SWAP2 SUB SWAP1 REVERT JUMPDEST JUMP JUMPDEST PUSH1 0x0 DUP1 PUSH1 0x0 SWAP1 SLOAD SWAP1 PUSH2 0x100 EXP SWAP1 DIV PUSH20 0xFFFFFFFFFFFFFFFFFFFFFFFFFFFFFFFFFFFFFFFF AND SWAP1 POP DUP2 PUSH1 0x0 DUP1 PUSH2 0x100 EXP DUP2 SLOAD DUP2 PUSH20 0xFFFFFFFFFFFFFFFFFFFFFFFFFFFFFFFFFFFFFFFF MUL NOT AND SWAP1 DUP4 PUSH20 0xFFFFFFFFFFFFFFFFFFFFFFFFFFFFFFFFFFFFFFFF AND MUL OR SWAP1 SSTORE POP DUP2 PUSH20 0xFFFFFFFFFFFFFFFFFFFFFFFFFFFFFFFFFFFFFFFF AND DUP2 PUSH20 0xFFFFFFFFFFFFFFFFFFFFFFFFFFFFFFFFFFFFFFFF AND PUSH32 0x8BE0079C531659141344CD1FD0A4F28419497F9722A3DAAFE3B4186F6B6457E0 PUSH1 0x40 MLOAD PUSH1 0x40 MLOAD DUP1 SWAP2 SUB SWAP1 LOG3 POP POP JUMP JUMPDEST PUSH1 0x0 DUP1 PUSH1 0x0 DUP1 DUP5 MLOAD SWAP1 POP PUSH1 0x0 SWAP3 POP JUMPDEST DUP1 DUP3 LT ISZERO PUSH2 0x175C JUMPI PUSH1 0x0 DUP6 DUP4 DUP2 MLOAD DUP2 LT PUSH2 0x15DE JUMPI PUSH2 0x15DD PUSH2 0x29EB JUMP JUMPDEST JUMPDEST PUSH1 0x20 ADD ADD MLOAD PUSH1 0xF8 SHR PUSH1 0xF8 SHL SWAP1 POP PUSH1 0x80 PUSH1 0xF8 SHL DUP2 PUSH31 0xFFFFFFFFFFFFFFFFFFFFFFFFFFFFFFFFFFFFFFFFFFFFFFFFFFFFFFFFFFFFFF NOT AND LT ISZERO PUSH2 0x162D JUMPI PUSH1 0x1 DUP4 PUSH2 0x1626 SWAP2 SWAP1 PUSH2 0x20E3 JUMP JUMPDEST SWAP3 POP PUSH2 0x1748 JUMP JUMPDEST PUSH1 0xE0 PUSH1 0xF8 SHL DUP2 PUSH31 0xFFFFFFFFFFFFFFFFFFFFFFFFFFFFFFFFFFFFFFFFFFFFFFFFFFFFFFFFFFFFFF NOT AND LT ISZERO PUSH2 0x166F JUMPI PUSH1 0x2 DUP4 PUSH2 0x1668 SWAP2 SWAP1 PUSH2 0x20E3 JUMP JUMPDEST SWAP3 POP PUSH2 0x1747 JUMP JUMPDEST PUSH1 0xF0 PUSH1 0xF8 SHL DUP2 PUSH31 0xFFFFFFFFFFFFFFFFFFFFFFFFFFFFFFFFFFFFFFFFFFFFFFFFFFFFFFFFFFFFFF NOT AND LT ISZERO PUSH2 0x16B1 JUMPI PUSH1 0x3 DUP4 PUSH2 0x16AA SWAP2 SWAP1 PUSH2 0x20E3 JUMP JUMPDEST SWAP3 POP PUSH2 0x1746 JUMP JUMPDEST PUSH1 0xF8 DUP1 SHL DUP2 PUSH31 0xFFFFFFFFFFFFFFFFFFFFFFFFFFFFFFFFFFFFFFFFFFFFFFFFFFFFFFFFFFFFFF NOT AND LT ISZERO PUSH2 0x16F2 JUMPI PUSH1 0x4 DUP4 PUSH2 0x16EB SWAP2 SWAP1 PUSH2 0x20E3 JUMP JUMPDEST SWAP3 POP PUSH2 0x1745 JUMP JUMPDEST PUSH1 0xFC PUSH1 0xF8 SHL DUP2 PUSH31 0xFFFFFFFFFFFFFFFFFFFFFFFFFFFFFFFFFFFFFFFFFFFFFFFFFFFFFFFFFFFFFF NOT AND LT ISZERO PUSH2 0x1734 JUMPI PUSH1 0x5 DUP4 PUSH2 0x172D SWAP2 SWAP1 PUSH2 0x20E3 JUMP JUMPDEST SWAP3 POP PUSH2 0x1744 JUMP JUMPDEST PUSH1 0x6 DUP4 PUSH2 0x1741 SWAP2 SWAP1 PUSH2 0x20E3 JUMP JUMPDEST SWAP3 POP JUMPDEST JUMPDEST JUMPDEST JUMPDEST JUMPDEST POP DUP3 DUP1 PUSH2 0x1754 SWAP1 PUSH2 0x2A1A JUMP JUMPDEST SWAP4 POP POP PUSH2 0x15C1 JUMP JUMPDEST DUP3 SWAP4 POP POP POP POP SWAP2 SWAP1 POP JUMP JUMPDEST PUSH1 0x0 CALLER SWAP1 POP SWAP1 JUMP JUMPDEST PUSH1 0x40 MLOAD DUP1 PUSH1 0x40 ADD PUSH1 0x40 MSTORE DUP1 PUSH1 0x0 DUP2 MSTORE PUSH1 0x20 ADD PUSH1 0x0 DUP2 MSTORE POP SWAP1 JUMP JUMPDEST PUSH1 0x0 PUSH1 0x40 MLOAD SWAP1 POP SWAP1 JUMP JUMPDEST PUSH1 0x0 DUP1 REVERT JUMPDEST PUSH1 0x0 DUP1 REVERT JUMPDEST PUSH1 0x0 PUSH32 0xFFFFFFFF00000000000000000000000000000000000000000000000000000000 DUP3 AND SWAP1 POP SWAP2 SWAP1 POP JUMP JUMPDEST PUSH2 0x17D2 DUP2 PUSH2 0x179D JUMP JUMPDEST DUP2 EQ PUSH2 0x17DD JUMPI PUSH1 0x0 DUP1 REVERT JUMPDEST POP JUMP JUMPDEST PUSH1 0x0 DUP2 CALLDATALOAD SWAP1 POP PUSH2 0x17EF DUP2 PUSH2 0x17C9 JUMP JUMPDEST SWAP3 SWAP2 POP POP JUMP JUMPDEST PUSH1 0x0 PUSH1 0x20 DUP3 DUP5 SUB SLT ISZERO PUSH2 0x180B JUMPI PUSH2 0x180A PUSH2 0x1793 JUMP JUMPDEST JUMPDEST PUSH1 0x0 PUSH2 0x1819 DUP5 DUP3 DUP6 ADD PUSH2 0x17E0 JUMP JUMPDEST SWAP2 POP POP SWAP3 SWAP2 POP POP JUMP JUMPDEST PUSH1 0x0 DUP2 ISZERO ISZERO SWAP1 POP SWAP2 SWAP1 POP JUMP JUMPDEST PUSH2 0x1837 DUP2 PUSH2 0x1822 JUMP JUMPDEST DUP3 MSTORE POP POP JUMP JUMPDEST PUSH1 0x0 PUSH1 0x20 DUP3 ADD SWAP1 POP PUSH2 0x1852 PUSH1 0x0 DUP4 ADD DUP5 PUSH2 0x182E JUMP JUMPDEST SWAP3 SWAP2 POP POP JUMP JUMPDEST PUSH1 0x0 DUP1 REVERT JUMPDEST PUSH1 0x0 DUP1 REVERT JUMPDEST PUSH1 0x0 DUP1 REVERT JUMPDEST PUSH1 0x0 DUP1 DUP4 PUSH1 0x1F DUP5 ADD SLT PUSH2 0x187D JUMPI PUSH2 0x187C PUSH2 0x1858 JUMP JUMPDEST JUMPDEST DUP3 CALLDATALOAD SWAP1 POP PUSH8 0xFFFFFFFFFFFFFFFF DUP2 GT ISZERO PUSH2 0x189A JUMPI PUSH2 0x1899 PUSH2 0x185D JUMP JUMPDEST JUMPDEST PUSH1 0x20 DUP4 ADD SWAP2 POP DUP4 PUSH1 0x1 DUP3 MUL DUP4 ADD GT ISZERO PUSH2 0x18B6 JUMPI PUSH2 0x18B5 PUSH2 0x1862 JUMP JUMPDEST JUMPDEST SWAP3 POP SWAP3 SWAP1 POP JUMP JUMPDEST PUSH1 0x0 PUSH20 0xFFFFFFFFFFFFFFFFFFFFFFFFFFFFFFFFFFFFFFFF DUP3 AND SWAP1 POP SWAP2 SWAP1 POP JUMP JUMPDEST PUSH1 0x0 PUSH2 0x18E8 DUP3 PUSH2 0x18BD JUMP JUMPDEST SWAP1 POP SWAP2 SWAP1 POP JUMP JUMPDEST PUSH2 0x18F8 DUP2 PUSH2 0x18DD JUMP JUMPDEST DUP2 EQ PUSH2 0x1903 JUMPI PUSH1 0x0 DUP1 REVERT JUMPDEST POP JUMP JUMPDEST PUSH1 0x0 DUP2 CALLDATALOAD SWAP1 POP PUSH2 0x1915 DUP2 PUSH2 0x18EF JUMP JUMPDEST SWAP3 SWAP2 POP POP JUMP JUMPDEST PUSH1 0x0 DUP2 SWAP1 POP SWAP2 SWAP1 POP JUMP JUMPDEST PUSH2 0x192E DUP2 PUSH2 0x191B JUMP JUMPDEST DUP2 EQ PUSH2 0x1939 JUMPI PUSH1 0x0 DUP1 REVERT JUMPDEST POP JUMP JUMPDEST PUSH1 0x0 DUP2 CALLDATALOAD SWAP1 POP PUSH2 0x194B DUP2 PUSH2 0x1925 JUMP JUMPDEST SWAP3 SWAP2 POP POP JUMP JUMPDEST PUSH1 0x0 DUP2 SWAP1 POP SWAP2 SWAP1 POP JUMP JUMPDEST PUSH2 0x1964 DUP2 PUSH2 0x1951 JUMP JUMPDEST DUP2 EQ PUSH2 0x196F JUMPI PUSH1 0x0 DUP1 REVERT JUMPDEST POP JUMP JUMPDEST PUSH1 0x0 DUP2 CALLDATALOAD SWAP1 POP PUSH2 0x1981 DUP2 PUSH2 0x195B JUMP JUMPDEST SWAP3 SWAP2 POP POP JUMP JUMPDEST PUSH1 0x0 DUP1 DUP4 PUSH1 0x1F DUP5 ADD SLT PUSH2 0x199D JUMPI PUSH2 0x199C PUSH2 0x1858 JUMP JUMPDEST JUMPDEST DUP3 CALLDATALOAD SWAP1 POP PUSH8 0xFFFFFFFFFFFFFFFF DUP2 GT ISZERO PUSH2 0x19BA JUMPI PUSH2 0x19B9 PUSH2 0x185D JUMP JUMPDEST JUMPDEST PUSH1 0x20 DUP4 ADD SWAP2 POP DUP4 PUSH1 0x20 DUP3 MUL DUP4 ADD GT ISZERO PUSH2 0x19D6 JUMPI PUSH2 0x19D5 PUSH2 0x1862 JUMP JUMPDEST JUMPDEST SWAP3 POP SWAP3 SWAP1 POP JUMP JUMPDEST PUSH2 0x19E6 DUP2 PUSH2 0x1822 JUMP JUMPDEST DUP2 EQ PUSH2 0x19F1 JUMPI PUSH1 0x0 DUP1 REVERT JUMPDEST POP JUMP JUMPDEST PUSH1 0x0 DUP2 CALLDATALOAD SWAP1 POP PUSH2 0x1A03 DUP2 PUSH2 0x19DD JUMP JUMPDEST SWAP3 SWAP2 POP POP JUMP JUMPDEST PUSH1 0x0 DUP1 PUSH1 0x0 DUP1 PUSH1 0x0 DUP1 PUSH1 0x0 DUP1 PUSH1 0x0 PUSH1 0xE0 DUP11 DUP13 SUB SLT ISZERO PUSH2 0x1A2B JUMPI PUSH2 0x1A2A PUSH2 0x1793 JUMP JUMPDEST JUMPDEST PUSH1 0x0 DUP11 ADD CALLDATALOAD PUSH8 0xFFFFFFFFFFFFFFFF DUP2 GT ISZERO PUSH2 0x1A49 JUMPI PUSH2 0x1A48 PUSH2 0x1798 JUMP JUMPDEST JUMPDEST PUSH2 0x1A55 DUP13 DUP3 DUP14 ADD PUSH2 0x1867 JUMP JUMPDEST SWAP10 POP SWAP10 POP POP PUSH1 0x20 PUSH2 0x1A68 DUP13 DUP3 DUP14 ADD PUSH2 0x1906 JUMP JUMPDEST SWAP8 POP POP PUSH1 0x40 PUSH2 0x1A79 DUP13 DUP3 DUP14 ADD PUSH2 0x193C JUMP JUMPDEST SWAP7 POP POP PUSH1 0x60 PUSH2 0x1A8A DUP13 DUP3 DUP14 ADD PUSH2 0x1972 JUMP JUMPDEST SWAP6 POP POP PUSH1 0x80 PUSH2 0x1A9B DUP13 DUP3 DUP14 ADD PUSH2 0x1906 JUMP JUMPDEST SWAP5 POP POP PUSH1 0xA0 DUP11 ADD CALLDATALOAD PUSH8 0xFFFFFFFFFFFFFFFF DUP2 GT ISZERO PUSH2 0x1ABC JUMPI PUSH2 0x1ABB PUSH2 0x1798 JUMP JUMPDEST JUMPDEST PUSH2 0x1AC8 DUP13 DUP3 DUP14 ADD PUSH2 0x1987 JUMP JUMPDEST SWAP4 POP SWAP4 POP POP PUSH1 0xC0 PUSH2 0x1ADB DUP13 DUP3 DUP14 ADD PUSH2 0x19F4 JUMP JUMPDEST SWAP2 POP POP SWAP3 SWAP6 SWAP9 POP SWAP3 SWAP6 SWAP9 POP SWAP3 SWAP6 SWAP9 JUMP JUMPDEST PUSH1 0x0 DUP1 REVERT JUMPDEST PUSH1 0x0 PUSH1 0x1F NOT PUSH1 0x1F DUP4 ADD AND SWAP1 POP SWAP2 SWAP1 POP JUMP JUMPDEST PUSH32 0x4E487B7100000000000000000000000000000000000000000000000000000000 PUSH1 0x0 MSTORE PUSH1 0x41 PUSH1 0x4 MSTORE PUSH1 0x24 PUSH1 0x0 REVERT JUMPDEST PUSH2 0x1B39 DUP3 PUSH2 0x1AF0 JUMP JUMPDEST DUP2 ADD DUP2 DUP2 LT PUSH8 0xFFFFFFFFFFFFFFFF DUP3 GT OR ISZERO PUSH2 0x1B58 JUMPI PUSH2 0x1B57 PUSH2 0x1B01 JUMP JUMPDEST JUMPDEST DUP1 PUSH1 0x40 MSTORE POP POP POP JUMP JUMPDEST PUSH1 0x0 PUSH2 0x1B6B PUSH2 0x1789 JUMP JUMPDEST SWAP1 POP PUSH2 0x1B77 DUP3 DUP3 PUSH2 0x1B30 JUMP JUMPDEST SWAP2 SWAP1 POP JUMP JUMPDEST PUSH1 0x0 PUSH8 0xFFFFFFFFFFFFFFFF DUP3 GT ISZERO PUSH2 0x1B97 JUMPI PUSH2 0x1B96 PUSH2 0x1B01 JUMP JUMPDEST JUMPDEST PUSH2 0x1BA0 DUP3 PUSH2 0x1AF0 JUMP JUMPDEST SWAP1 POP PUSH1 0x20 DUP2 ADD SWAP1 POP SWAP2 SWAP1 POP JUMP JUMPDEST DUP3 DUP2 DUP4 CALLDATACOPY PUSH1 0x0 DUP4 DUP4 ADD MSTORE POP POP POP JUMP JUMPDEST PUSH1 0x0 PUSH2 0x1BCF PUSH2 0x1BCA DUP5 PUSH2 0x1B7C JUMP JUMPDEST PUSH2 0x1B61 JUMP JUMPDEST SWAP1 POP DUP3 DUP2 MSTORE PUSH1 0x20 DUP2 ADD DUP5 DUP5 DUP5 ADD GT ISZERO PUSH2 0x1BEB JUMPI PUSH2 0x1BEA PUSH2 0x1AEB JUMP JUMPDEST JUMPDEST PUSH2 0x1BF6 DUP5 DUP3 DUP6 PUSH2 0x1BAD JUMP JUMPDEST POP SWAP4 SWAP3 POP POP POP JUMP JUMPDEST PUSH1 0x0 DUP3 PUSH1 0x1F DUP4 ADD SLT PUSH2 0x1C13 JUMPI PUSH2 0x1C12 PUSH2 0x1858 JUMP JUMPDEST JUMPDEST DUP2 CALLDATALOAD PUSH2 0x1C23 DUP5 DUP3 PUSH1 0x20 DUP7 ADD PUSH2 0x1BBC JUMP JUMPDEST SWAP2 POP POP SWAP3 SWAP2 POP POP JUMP JUMPDEST PUSH1 0x0 DUP1 PUSH1 0x0 DUP1 PUSH1 0x0 DUP1 PUSH1 0x0 DUP1 PUSH1 0xE0 DUP10 DUP12 SUB SLT ISZERO PUSH2 0x1C4C JUMPI PUSH2 0x1C4B PUSH2 0x1793 JUMP JUMPDEST JUMPDEST PUSH1 0x0 DUP10 ADD CALLDATALOAD PUSH8 0xFFFFFFFFFFFFFFFF DUP2 GT ISZERO PUSH2 0x1C6A JUMPI PUSH2 0x1C69 PUSH2 0x1798 JUMP JUMPDEST JUMPDEST PUSH2 0x1C76 DUP12 DUP3 DUP13 ADD PUSH2 0x1BFE JUMP JUMPDEST SWAP9 POP POP PUSH1 0x20 PUSH2 0x1C87 DUP12 DUP3 DUP13 ADD PUSH2 0x1906 JUMP JUMPDEST SWAP8 POP POP PUSH1 0x40 PUSH2 0x1C98 DUP12 DUP3 DUP13 ADD PUSH2 0x193C JUMP JUMPDEST SWAP7 POP POP PUSH1 0x60 PUSH2 0x1CA9 DUP12 DUP3 DUP13 ADD PUSH2 0x1972 JUMP JUMPDEST SWAP6 POP POP PUSH1 0x80 PUSH2 0x1CBA DUP12 DUP3 DUP13 ADD PUSH2 0x1906 JUMP JUMPDEST SWAP5 POP POP PUSH1 0xA0 DUP10 ADD CALLDATALOAD PUSH8 0xFFFFFFFFFFFFFFFF DUP2 GT ISZERO PUSH2 0x1CDB JUMPI PUSH2 0x1CDA PUSH2 0x1798 JUMP JUMPDEST JUMPDEST PUSH2 0x1CE7 DUP12 DUP3 DUP13 ADD PUSH2 0x1987 JUMP JUMPDEST SWAP4 POP SWAP4 POP POP PUSH1 0xC0 PUSH2 0x1CFA DUP12 DUP3 DUP13 ADD PUSH2 0x19F4 JUMP JUMPDEST SWAP2 POP POP SWAP3 SWAP6 SWAP9 POP SWAP3 SWAP6 SWAP9 SWAP1 SWAP4 SWAP7 POP JUMP JUMPDEST PUSH2 0x1D13 DUP2 PUSH2 0x1951 JUMP JUMPDEST DUP3 MSTORE POP POP JUMP JUMPDEST PUSH1 0x0 PUSH1 0x20 DUP3 ADD SWAP1 POP PUSH2 0x1D2E PUSH1 0x0 DUP4 ADD DUP5 PUSH2 0x1D0A JUMP JUMPDEST SWAP3 SWAP2 POP POP JUMP JUMPDEST PUSH1 0x0 PUSH2 0x1D3F DUP3 PUSH2 0x18DD JUMP JUMPDEST SWAP1 POP SWAP2 SWAP1 POP JUMP JUMPDEST PUSH2 0x1D4F DUP2 PUSH2 0x1D34 JUMP JUMPDEST DUP2 EQ PUSH2 0x1D5A JUMPI PUSH1 0x0 DUP1 REVERT JUMPDEST POP JUMP JUMPDEST PUSH1 0x0 DUP2 CALLDATALOAD SWAP1 POP PUSH2 0x1D6C DUP2 PUSH2 0x1D46 JUMP JUMPDEST SWAP3 SWAP2 POP POP JUMP JUMPDEST PUSH1 0x0 PUSH1 0x20 DUP3 DUP5 SUB SLT ISZERO PUSH2 0x1D88 JUMPI PUSH2 0x1D87 PUSH2 0x1793 JUMP JUMPDEST JUMPDEST PUSH1 0x0 PUSH2 0x1D96 DUP5 DUP3 DUP6 ADD PUSH2 0x1D5D JUMP JUMPDEST SWAP2 POP POP SWAP3 SWAP2 POP POP JUMP JUMPDEST PUSH1 0x0 DUP1 PUSH1 0x0 PUSH1 0x60 DUP5 DUP7 SUB SLT ISZERO PUSH2 0x1DB8 JUMPI PUSH2 0x1DB7 PUSH2 0x1793 JUMP JUMPDEST JUMPDEST PUSH1 0x0 PUSH2 0x1DC6 DUP7 DUP3 DUP8 ADD PUSH2 0x1906 JUMP JUMPDEST SWAP4 POP POP PUSH1 0x20 PUSH2 0x1DD7 DUP7 DUP3 DUP8 ADD PUSH2 0x1906 JUMP JUMPDEST SWAP3 POP POP PUSH1 0x40 PUSH2 0x1DE8 DUP7 DUP3 DUP8 ADD PUSH2 0x193C JUMP JUMPDEST SWAP2 POP POP SWAP3 POP SWAP3 POP SWAP3 JUMP JUMPDEST PUSH1 0x0 DUP2 SWAP1 POP SWAP2 SWAP1 POP JUMP JUMPDEST PUSH1 0x0 PUSH2 0x1E17 PUSH2 0x1E12 PUSH2 0x1E0D DUP5 PUSH2 0x18BD JUMP JUMPDEST PUSH2 0x1DF2 JUMP JUMPDEST PUSH2 0x18BD JUMP JUMPDEST SWAP1 POP SWAP2 SWAP1 POP JUMP JUMPDEST PUSH1 0x0 PUSH2 0x1E29 DUP3 PUSH2 0x1DFC JUMP JUMPDEST SWAP1 POP SWAP2 SWAP1 POP JUMP JUMPDEST PUSH1 0x0 PUSH2 0x1E3B DUP3 PUSH2 0x1E1E JUMP JUMPDEST SWAP1 POP SWAP2 SWAP1 POP JUMP JUMPDEST PUSH2 0x1E4B DUP2 PUSH2 0x1E30 JUMP JUMPDEST DUP3 MSTORE POP POP JUMP JUMPDEST PUSH1 0x0 PUSH1 0x20 DUP3 ADD SWAP1 POP PUSH2 0x1E66 PUSH1 0x0 DUP4 ADD DUP5 PUSH2 0x1E42 JUMP JUMPDEST SWAP3 SWAP2 POP POP JUMP JUMPDEST PUSH1 0x0 PUSH1 0x20 DUP3 DUP5 SUB SLT ISZERO PUSH2 0x1E82 JUMPI PUSH2 0x1E81 PUSH2 0x1793 JUMP JUMPDEST JUMPDEST PUSH1 0x0 PUSH2 0x1E90 DUP5 DUP3 DUP6 ADD PUSH2 0x1972 JUMP JUMPDEST SWAP2 POP POP SWAP3 SWAP2 POP POP JUMP JUMPDEST PUSH2 0x1EA2 DUP2 PUSH2 0x191B JUMP JUMPDEST DUP3 MSTORE POP POP JUMP JUMPDEST PUSH1 0x0 PUSH1 0x20 DUP3 ADD SWAP1 POP PUSH2 0x1EBD PUSH1 0x0 DUP4 ADD DUP5 PUSH2 0x1E99 JUMP JUMPDEST SWAP3 SWAP2 POP POP JUMP JUMPDEST PUSH1 0x0 DUP1 PUSH1 0x40 DUP4 DUP6 SUB SLT ISZERO PUSH2 0x1EDA JUMPI PUSH2 0x1ED9 PUSH2 0x1793 JUMP JUMPDEST JUMPDEST PUSH1 0x0 DUP4 ADD CALLDATALOAD PUSH8 0xFFFFFFFFFFFFFFFF DUP2 GT ISZERO PUSH2 0x1EF8 JUMPI PUSH2 0x1EF7 PUSH2 0x1798 JUMP JUMPDEST JUMPDEST PUSH2 0x1F04 DUP6 DUP3 DUP7 ADD PUSH2 0x1BFE JUMP JUMPDEST SWAP3 POP POP PUSH1 0x20 PUSH2 0x1F15 DUP6 DUP3 DUP7 ADD PUSH2 0x193C JUMP JUMPDEST SWAP2 POP POP SWAP3 POP SWAP3 SWAP1 POP JUMP JUMPDEST PUSH2 0x1F28 DUP2 PUSH2 0x191B JUMP JUMPDEST DUP3 MSTORE POP POP JUMP JUMPDEST PUSH1 0x40 DUP3 ADD PUSH1 0x0 DUP3 ADD MLOAD PUSH2 0x1F44 PUSH1 0x0 DUP6 ADD DUP3 PUSH2 0x1F1F JUMP JUMPDEST POP PUSH1 0x20 DUP3 ADD MLOAD PUSH2 0x1F57 PUSH1 0x20 DUP6 ADD DUP3 PUSH2 0x1F1F JUMP JUMPDEST POP POP POP POP JUMP JUMPDEST PUSH1 0x0 PUSH1 0x40 DUP3 ADD SWAP1 POP PUSH2 0x1F72 PUSH1 0x0 DUP4 ADD DUP5 PUSH2 0x1F2E JUMP JUMPDEST SWAP3 SWAP2 POP POP JUMP JUMPDEST PUSH2 0x1F81 DUP2 PUSH2 0x18DD JUMP JUMPDEST DUP3 MSTORE POP POP JUMP JUMPDEST PUSH1 0x0 PUSH1 0x20 DUP3 ADD SWAP1 POP PUSH2 0x1F9C PUSH1 0x0 DUP4 ADD DUP5 PUSH2 0x1F78 JUMP JUMPDEST SWAP3 SWAP2 POP POP JUMP JUMPDEST PUSH1 0x0 PUSH1 0x20 DUP3 DUP5 SUB SLT ISZERO PUSH2 0x1FB8 JUMPI PUSH2 0x1FB7 PUSH2 0x1793 JUMP JUMPDEST JUMPDEST PUSH1 0x0 DUP3 ADD CALLDATALOAD PUSH8 0xFFFFFFFFFFFFFFFF DUP2 GT ISZERO PUSH2 0x1FD6 JUMPI PUSH2 0x1FD5 PUSH2 0x1798 JUMP JUMPDEST JUMPDEST PUSH2 0x1FE2 DUP5 DUP3 DUP6 ADD PUSH2 0x1BFE JUMP JUMPDEST SWAP2 POP POP SWAP3 SWAP2 POP POP JUMP JUMPDEST PUSH1 0x0 DUP1 PUSH1 0x0 PUSH1 0x40 DUP5 DUP7 SUB SLT ISZERO PUSH2 0x2004 JUMPI PUSH2 0x2003 PUSH2 0x1793 JUMP JUMPDEST JUMPDEST PUSH1 0x0 DUP5 ADD CALLDATALOAD PUSH8 0xFFFFFFFFFFFFFFFF DUP2 GT ISZERO PUSH2 0x2022 JUMPI PUSH2 0x2021 PUSH2 0x1798 JUMP JUMPDEST JUMPDEST PUSH2 0x202E DUP7 DUP3 DUP8 ADD PUSH2 0x1867 JUMP JUMPDEST SWAP4 POP SWAP4 POP POP PUSH1 0x20 PUSH2 0x2041 DUP7 DUP3 DUP8 ADD PUSH2 0x193C JUMP JUMPDEST SWAP2 POP POP SWAP3 POP SWAP3 POP SWAP3 JUMP JUMPDEST PUSH1 0x0 PUSH2 0x2056 DUP3 PUSH2 0x1E1E JUMP JUMPDEST SWAP1 POP SWAP2 SWAP1 POP JUMP JUMPDEST PUSH2 0x2066 DUP2 PUSH2 0x204B JUMP JUMPDEST DUP3 MSTORE POP POP JUMP JUMPDEST PUSH1 0x0 PUSH1 0x20 DUP3 ADD SWAP1 POP PUSH2 0x2081 PUSH1 0x0 DUP4 ADD DUP5 PUSH2 0x205D JUMP JUMPDEST SWAP3 SWAP2 POP POP JUMP JUMPDEST PUSH1 0x0 PUSH1 0x20 DUP3 DUP5 SUB SLT ISZERO PUSH2 0x209D JUMPI PUSH2 0x209C PUSH2 0x1793 JUMP JUMPDEST JUMPDEST PUSH1 0x0 PUSH2 0x20AB DUP5 DUP3 DUP6 ADD PUSH2 0x1906 JUMP JUMPDEST SWAP2 POP POP SWAP3 SWAP2 POP POP JUMP JUMPDEST PUSH32 0x4E487B7100000000000000000000000000000000000000000000000000000000 PUSH1 0x0 MSTORE PUSH1 0x11 PUSH1 0x4 MSTORE PUSH1 0x24 PUSH1 0x0 REVERT JUMPDEST PUSH1 0x0 PUSH2 0x20EE DUP3 PUSH2 0x191B JUMP JUMPDEST SWAP2 POP PUSH2 0x20F9 DUP4 PUSH2 0x191B JUMP JUMPDEST SWAP3 POP DUP3 DUP3 ADD SWAP1 POP DUP1 DUP3 GT ISZERO PUSH2 0x2111 JUMPI PUSH2 0x2110 PUSH2 0x20B4 JUMP JUMPDEST JUMPDEST SWAP3 SWAP2 POP POP JUMP JUMPDEST PUSH1 0x0 DUP2 SWAP1 POP SWAP3 SWAP2 POP POP JUMP JUMPDEST PUSH1 0x0 PUSH2 0x212E DUP4 DUP6 PUSH2 0x2117 JUMP JUMPDEST SWAP4 POP PUSH2 0x213B DUP4 DUP6 DUP5 PUSH2 0x1BAD JUMP JUMPDEST DUP3 DUP5 ADD SWAP1 POP SWAP4 SWAP3 POP POP POP JUMP JUMPDEST PUSH1 0x0 PUSH2 0x2154 DUP3 DUP5 DUP7 PUSH2 0x2122 JUMP JUMPDEST SWAP2 POP DUP2 SWAP1 POP SWAP4 SWAP3 POP POP POP JUMP JUMPDEST PUSH1 0x0 PUSH1 0x60 DUP3 ADD SWAP1 POP PUSH2 0x2175 PUSH1 0x0 DUP4 ADD DUP7 PUSH2 0x1E99 JUMP JUMPDEST PUSH2 0x2182 PUSH1 0x20 DUP4 ADD DUP6 PUSH2 0x1F78 JUMP JUMPDEST PUSH2 0x218F PUSH1 0x40 DUP4 ADD DUP5 PUSH2 0x1E99 JUMP JUMPDEST SWAP5 SWAP4 POP POP POP POP JUMP JUMPDEST PUSH1 0x0 DUP2 MLOAD SWAP1 POP PUSH2 0x21A6 DUP2 PUSH2 0x1925 JUMP JUMPDEST SWAP3 SWAP2 POP POP JUMP JUMPDEST PUSH1 0x0 PUSH1 0x20 DUP3 DUP5 SUB SLT ISZERO PUSH2 0x21C2 JUMPI PUSH2 0x21C1 PUSH2 0x1793 JUMP JUMPDEST JUMPDEST PUSH1 0x0 PUSH2 0x21D0 DUP5 DUP3 DUP6 ADD PUSH2 0x2197 JUMP JUMPDEST SWAP2 POP POP SWAP3 SWAP2 POP POP JUMP JUMPDEST PUSH1 0x0 DUP3 DUP3 MSTORE PUSH1 0x20 DUP3 ADD SWAP1 POP SWAP3 SWAP2 POP POP JUMP JUMPDEST PUSH1 0x0 PUSH2 0x21F6 DUP4 DUP6 PUSH2 0x21D9 JUMP JUMPDEST SWAP4 POP PUSH2 0x2203 DUP4 DUP6 DUP5 PUSH2 0x1BAD JUMP JUMPDEST PUSH2 0x220C DUP4 PUSH2 0x1AF0 JUMP JUMPDEST DUP5 ADD SWAP1 POP SWAP4 SWAP3 POP POP POP JUMP JUMPDEST PUSH1 0x0 PUSH1 0x80 DUP3 ADD SWAP1 POP DUP2 DUP2 SUB PUSH1 0x0 DUP4 ADD MSTORE PUSH2 0x2232 DUP2 DUP8 DUP10 PUSH2 0x21EA JUMP JUMPDEST SWAP1 POP PUSH2 0x2241 PUSH1 0x20 DUP4 ADD DUP7 PUSH2 0x1E99 JUMP JUMPDEST PUSH2 0x224E PUSH1 0x40 DUP4 ADD DUP6 PUSH2 0x1E99 JUMP JUMPDEST PUSH2 0x225B PUSH1 0x60 DUP4 ADD DUP5 PUSH2 0x1E99 JUMP JUMPDEST SWAP7 SWAP6 POP POP POP POP POP POP JUMP JUMPDEST PUSH1 0x0 PUSH2 0x2270 DUP3 PUSH2 0x191B JUMP JUMPDEST SWAP2 POP PUSH2 0x227B DUP4 PUSH2 0x191B JUMP JUMPDEST SWAP3 POP DUP3 DUP3 SUB SWAP1 POP DUP2 DUP2 GT ISZERO PUSH2 0x2293 JUMPI PUSH2 0x2292 PUSH2 0x20B4 JUMP JUMPDEST JUMPDEST SWAP3 SWAP2 POP POP JUMP JUMPDEST PUSH1 0x0 DUP3 DUP3 MSTORE PUSH1 0x20 DUP3 ADD SWAP1 POP SWAP3 SWAP2 POP POP JUMP JUMPDEST PUSH1 0x0 DUP2 SWAP1 POP SWAP2 SWAP1 POP JUMP JUMPDEST PUSH1 0x0 DUP3 DUP3 MSTORE PUSH1 0x20 DUP3 ADD SWAP1 POP SWAP3 SWAP2 POP POP JUMP JUMPDEST PUSH1 0x0 PUSH2 0x22D1 DUP4 DUP6 PUSH2 0x22B4 JUMP JUMPDEST SWAP4 POP PUSH2 0x22DE DUP4 DUP6 DUP5 PUSH2 0x1BAD JUMP JUMPDEST PUSH2 0x22E7 DUP4 PUSH2 0x1AF0 JUMP JUMPDEST DUP5 ADD SWAP1 POP SWAP4 SWAP3 POP POP POP JUMP JUMPDEST PUSH1 0x0 PUSH2 0x22FF DUP5 DUP5 DUP5 PUSH2 0x22C5 JUMP JUMPDEST SWAP1 POP SWAP4 SWAP3 POP POP POP JUMP JUMPDEST PUSH1 0x0 DUP1 REVERT JUMPDEST PUSH1 0x0 DUP1 REVERT JUMPDEST PUSH1 0x0 DUP1 REVERT JUMPDEST PUSH1 0x0 DUP1 DUP4 CALLDATALOAD PUSH1 0x1 PUSH1 0x20 SUB DUP5 CALLDATASIZE SUB SUB DUP2 SLT PUSH2 0x2334 JUMPI PUSH2 0x2333 PUSH2 0x2312 JUMP JUMPDEST JUMPDEST DUP4 DUP2 ADD SWAP3 POP DUP3 CALLDATALOAD SWAP2 POP PUSH1 0x20 DUP4 ADD SWAP3 POP PUSH8 0xFFFFFFFFFFFFFFFF DUP3 GT ISZERO PUSH2 0x235C JUMPI PUSH2 0x235B PUSH2 0x2308 JUMP JUMPDEST JUMPDEST PUSH1 0x1 DUP3 MUL CALLDATASIZE SUB DUP4 SGT ISZERO PUSH2 0x2372 JUMPI PUSH2 0x2371 PUSH2 0x230D JUMP JUMPDEST JUMPDEST POP SWAP3 POP SWAP3 SWAP1 POP JUMP JUMPDEST PUSH1 0x0 PUSH1 0x20 DUP3 ADD SWAP1 POP SWAP2 SWAP1 POP JUMP JUMPDEST PUSH1 0x0 PUSH2 0x2393 DUP4 DUP6 PUSH2 0x2299 JUMP JUMPDEST SWAP4 POP DUP4 PUSH1 0x20 DUP5 MUL DUP6 ADD PUSH2 0x23A5 DUP5 PUSH2 0x22AA JUMP JUMPDEST DUP1 PUSH1 0x0 JUMPDEST DUP8 DUP2 LT ISZERO PUSH2 0x23EB JUMPI DUP5 DUP5 SUB DUP10 MSTORE PUSH2 0x23C0 DUP3 DUP5 PUSH2 0x2317 JUMP JUMPDEST PUSH2 0x23CB DUP7 DUP3 DUP5 PUSH2 0x22F2 JUMP JUMPDEST SWAP6 POP PUSH2 0x23D6 DUP5 PUSH2 0x237A JUMP JUMPDEST SWAP4 POP PUSH1 0x20 DUP12 ADD SWAP11 POP POP POP PUSH1 0x1 DUP2 ADD SWAP1 POP PUSH2 0x23A9 JUMP JUMPDEST POP DUP3 SWAP8 POP DUP8 SWAP5 POP POP POP POP POP SWAP4 SWAP3 POP POP POP JUMP JUMPDEST PUSH1 0x0 PUSH1 0xE0 DUP3 ADD SWAP1 POP PUSH2 0x2412 PUSH1 0x0 DUP4 ADD DUP12 PUSH2 0x1D0A JUMP JUMPDEST PUSH2 0x241F PUSH1 0x20 DUP4 ADD DUP11 PUSH2 0x1F78 JUMP JUMPDEST PUSH2 0x242C PUSH1 0x40 DUP4 ADD DUP10 PUSH2 0x1E99 JUMP JUMPDEST PUSH2 0x2439 PUSH1 0x60 DUP4 ADD DUP9 PUSH2 0x1D0A JUMP JUMPDEST PUSH2 0x2446 PUSH1 0x80 DUP4 ADD DUP8 PUSH2 0x1F78 JUMP JUMPDEST DUP2 DUP2 SUB PUSH1 0xA0 DUP4 ADD MSTORE PUSH2 0x2459 DUP2 DUP6 DUP8 PUSH2 0x2387 JUMP JUMPDEST SWAP1 POP PUSH2 0x2468 PUSH1 0xC0 DUP4 ADD DUP5 PUSH2 0x182E JUMP JUMPDEST SWAP10 SWAP9 POP POP POP POP POP POP POP POP POP JUMP JUMPDEST PUSH1 0x0 PUSH1 0x40 DUP3 ADD SWAP1 POP PUSH2 0x248A PUSH1 0x0 DUP4 ADD DUP6 PUSH2 0x1F78 JUMP JUMPDEST PUSH2 0x2497 PUSH1 0x20 DUP4 ADD DUP5 PUSH2 0x1E99 JUMP JUMPDEST SWAP4 SWAP3 POP POP POP JUMP JUMPDEST PUSH1 0x0 DUP2 MLOAD SWAP1 POP PUSH2 0x24AD DUP2 PUSH2 0x19DD JUMP JUMPDEST SWAP3 SWAP2 POP POP JUMP JUMPDEST PUSH1 0x0 PUSH1 0x20 DUP3 DUP5 SUB SLT ISZERO PUSH2 0x24C9 JUMPI PUSH2 0x24C8 PUSH2 0x1793 JUMP JUMPDEST JUMPDEST PUSH1 0x0 PUSH2 0x24D7 DUP5 DUP3 DUP6 ADD PUSH2 0x249E JUMP JUMPDEST SWAP2 POP POP SWAP3 SWAP2 POP POP JUMP JUMPDEST PUSH1 0x0 DUP2 MLOAD SWAP1 POP SWAP2 SWAP1 POP JUMP JUMPDEST PUSH1 0x0 JUMPDEST DUP4 DUP2 LT ISZERO PUSH2 0x2509 JUMPI DUP1 DUP3 ADD MLOAD DUP2 DUP5 ADD MSTORE PUSH1 0x20 DUP2 ADD SWAP1 POP PUSH2 0x24EE JUMP JUMPDEST PUSH1 0x0 DUP5 DUP5 ADD MSTORE POP POP POP POP JUMP JUMPDEST PUSH1 0x0 PUSH2 0x2520 DUP3 PUSH2 0x24E0 JUMP JUMPDEST PUSH2 0x252A DUP2 DUP6 PUSH2 0x21D9 JUMP JUMPDEST SWAP4 POP PUSH2 0x253A DUP2 DUP6 PUSH1 0x20 DUP7 ADD PUSH2 0x24EB JUMP JUMPDEST PUSH2 0x2543 DUP2 PUSH2 0x1AF0 JUMP JUMPDEST DUP5 ADD SWAP2 POP POP SWAP3 SWAP2 POP POP JUMP JUMPDEST PUSH1 0x0 PUSH1 0x40 DUP3 ADD SWAP1 POP DUP2 DUP2 SUB PUSH1 0x0 DUP4 ADD MSTORE PUSH2 0x2568 DUP2 DUP6 PUSH2 0x2515 JUMP JUMPDEST SWAP1 POP PUSH2 0x2577 PUSH1 0x20 DUP4 ADD DUP5 PUSH2 0x1E99 JUMP JUMPDEST SWAP4 SWAP3 POP POP POP JUMP JUMPDEST PUSH1 0x0 DUP1 REVERT JUMPDEST PUSH1 0x0 PUSH1 0x40 DUP3 DUP5 SUB SLT ISZERO PUSH2 0x2599 JUMPI PUSH2 0x2598 PUSH2 0x257E JUMP JUMPDEST JUMPDEST PUSH2 0x25A3 PUSH1 0x40 PUSH2 0x1B61 JUMP JUMPDEST SWAP1 POP PUSH1 0x0 PUSH2 0x25B3 DUP5 DUP3 DUP6 ADD PUSH2 0x2197 JUMP JUMPDEST PUSH1 0x0 DUP4 ADD MSTORE POP PUSH1 0x20 PUSH2 0x25C7 DUP5 DUP3 DUP6 ADD PUSH2 0x2197 JUMP JUMPDEST PUSH1 0x20 DUP4 ADD MSTORE POP SWAP3 SWAP2 POP POP JUMP JUMPDEST PUSH1 0x0 PUSH1 0x40 DUP3 DUP5 SUB SLT ISZERO PUSH2 0x25E9 JUMPI PUSH2 0x25E8 PUSH2 0x1793 JUMP JUMPDEST JUMPDEST PUSH1 0x0 PUSH2 0x25F7 DUP5 DUP3 DUP6 ADD PUSH2 0x2583 JUMP JUMPDEST SWAP2 POP POP SWAP3 SWAP2 POP POP JUMP JUMPDEST PUSH1 0x0 PUSH1 0x40 DUP3 ADD SWAP1 POP PUSH2 0x2615 PUSH1 0x0 DUP4 ADD DUP6 PUSH2 0x1E99 JUMP JUMPDEST PUSH2 0x2622 PUSH1 0x20 DUP4 ADD DUP5 PUSH2 0x1E99 JUMP JUMPDEST SWAP4 SWAP3 POP POP POP JUMP JUMPDEST PUSH1 0x0 PUSH1 0x60 DUP3 ADD SWAP1 POP DUP2 DUP2 SUB PUSH1 0x0 DUP4 ADD MSTORE PUSH2 0x2644 DUP2 DUP7 DUP9 PUSH2 0x21EA JUMP JUMPDEST SWAP1 POP PUSH2 0x2653 PUSH1 0x20 DUP4 ADD DUP6 PUSH2 0x1E99 JUMP JUMPDEST PUSH2 0x2660 PUSH1 0x40 DUP4 ADD DUP5 PUSH2 0x1E99 JUMP JUMPDEST SWAP6 SWAP5 POP POP POP POP POP JUMP JUMPDEST PUSH1 0x0 PUSH1 0x20 DUP3 ADD SWAP1 POP DUP2 DUP2 SUB PUSH1 0x0 DUP4 ADD MSTORE PUSH2 0x2683 DUP2 DUP5 PUSH2 0x2515 JUMP JUMPDEST SWAP1 POP SWAP3 SWAP2 POP POP JUMP JUMPDEST PUSH1 0x0 DUP2 SWAP1 POP SWAP2 SWAP1 POP JUMP JUMPDEST PUSH2 0x26A6 PUSH2 0x26A1 DUP3 PUSH2 0x1951 JUMP JUMPDEST PUSH2 0x268B JUMP JUMPDEST DUP3 MSTORE POP POP JUMP JUMPDEST PUSH1 0x0 PUSH2 0x26B8 DUP3 DUP6 PUSH2 0x2695 JUMP JUMPDEST PUSH1 0x20 DUP3 ADD SWAP2 POP PUSH2 0x26C8 DUP3 DUP5 PUSH2 0x2695 JUMP JUMPDEST PUSH1 0x20 DUP3 ADD SWAP2 POP DUP2 SWAP1 POP SWAP4 SWAP3 POP POP POP JUMP JUMPDEST PUSH1 0x0 PUSH1 0x40 DUP3 ADD SWAP1 POP PUSH2 0x26ED PUSH1 0x0 DUP4 ADD DUP7 PUSH2 0x1D0A JUMP JUMPDEST DUP2 DUP2 SUB PUSH1 0x20 DUP4 ADD MSTORE PUSH2 0x2700 DUP2 DUP5 DUP7 PUSH2 0x2387 JUMP JUMPDEST SWAP1 POP SWAP5 SWAP4 POP POP POP POP JUMP JUMPDEST PUSH1 0x0 PUSH8 0xFFFFFFFFFFFFFFFF DUP3 GT ISZERO PUSH2 0x2725 JUMPI PUSH2 0x2724 PUSH2 0x1B01 JUMP JUMPDEST JUMPDEST PUSH1 0x20 DUP3 MUL SWAP1 POP PUSH1 0x20 DUP2 ADD SWAP1 POP SWAP2 SWAP1 POP JUMP JUMPDEST PUSH1 0x0 PUSH8 0xFFFFFFFFFFFFFFFF DUP3 GT ISZERO PUSH2 0x2751 JUMPI PUSH2 0x2750 PUSH2 0x1B01 JUMP JUMPDEST JUMPDEST PUSH2 0x275A DUP3 PUSH2 0x1AF0 JUMP JUMPDEST SWAP1 POP PUSH1 0x20 DUP2 ADD SWAP1 POP SWAP2 SWAP1 POP JUMP JUMPDEST PUSH1 0x0 PUSH2 0x277A PUSH2 0x2775 DUP5 PUSH2 0x2736 JUMP JUMPDEST PUSH2 0x1B61 JUMP JUMPDEST SWAP1 POP DUP3 DUP2 MSTORE PUSH1 0x20 DUP2 ADD DUP5 DUP5 DUP5 ADD GT ISZERO PUSH2 0x2796 JUMPI PUSH2 0x2795 PUSH2 0x1AEB JUMP JUMPDEST JUMPDEST PUSH2 0x27A1 DUP5 DUP3 DUP6 PUSH2 0x24EB JUMP JUMPDEST POP SWAP4 SWAP3 POP POP POP JUMP JUMPDEST PUSH1 0x0 DUP3 PUSH1 0x1F DUP4 ADD SLT PUSH2 0x27BE JUMPI PUSH2 0x27BD PUSH2 0x1858 JUMP JUMPDEST JUMPDEST DUP2 MLOAD PUSH2 0x27CE DUP5 DUP3 PUSH1 0x20 DUP7 ADD PUSH2 0x2767 JUMP JUMPDEST SWAP2 POP POP SWAP3 SWAP2 POP POP JUMP JUMPDEST PUSH1 0x0 PUSH2 0x27EA PUSH2 0x27E5 DUP5 PUSH2 0x270A JUMP JUMPDEST PUSH2 0x1B61 JUMP JUMPDEST SWAP1 POP DUP1 DUP4 DUP3 MSTORE PUSH1 0x20 DUP3 ADD SWAP1 POP PUSH1 0x20 DUP5 MUL DUP4 ADD DUP6 DUP2 GT ISZERO PUSH2 0x280D JUMPI PUSH2 0x280C PUSH2 0x1862 JUMP JUMPDEST JUMPDEST DUP4 JUMPDEST DUP2 DUP2 LT ISZERO PUSH2 0x2854 JUMPI DUP1 MLOAD PUSH8 0xFFFFFFFFFFFFFFFF DUP2 GT ISZERO PUSH2 0x2832 JUMPI PUSH2 0x2831 PUSH2 0x1858 JUMP JUMPDEST JUMPDEST DUP1 DUP7 ADD PUSH2 0x283F DUP10 DUP3 PUSH2 0x27A9 JUMP JUMPDEST DUP6 MSTORE PUSH1 0x20 DUP6 ADD SWAP5 POP POP POP PUSH1 0x20 DUP2 ADD SWAP1 POP PUSH2 0x280F JUMP JUMPDEST POP POP POP SWAP4 SWAP3 POP POP POP JUMP JUMPDEST PUSH1 0x0 DUP3 PUSH1 0x1F DUP4 ADD SLT PUSH2 0x2873 JUMPI PUSH2 0x2872 PUSH2 0x1858 JUMP JUMPDEST JUMPDEST DUP2 MLOAD PUSH2 0x2883 DUP5 DUP3 PUSH1 0x20 DUP7 ADD PUSH2 0x27D7 JUMP JUMPDEST SWAP2 POP POP SWAP3 SWAP2 POP POP JUMP JUMPDEST PUSH1 0x0 PUSH1 0x20 DUP3 DUP5 SUB SLT ISZERO PUSH2 0x28A2 JUMPI PUSH2 0x28A1 PUSH2 0x1793 JUMP JUMPDEST JUMPDEST PUSH1 0x0 DUP3 ADD MLOAD PUSH8 0xFFFFFFFFFFFFFFFF DUP2 GT ISZERO PUSH2 0x28C0 JUMPI PUSH2 0x28BF PUSH2 0x1798 JUMP JUMPDEST JUMPDEST PUSH2 0x28CC DUP5 DUP3 DUP6 ADD PUSH2 0x285E JUMP JUMPDEST SWAP2 POP POP SWAP3 SWAP2 POP POP JUMP JUMPDEST PUSH1 0x0 DUP2 SWAP1 POP SWAP3 SWAP2 POP POP JUMP JUMPDEST PUSH1 0x0 PUSH2 0x28EB DUP3 PUSH2 0x24E0 JUMP JUMPDEST PUSH2 0x28F5 DUP2 DUP6 PUSH2 0x28D5 JUMP JUMPDEST SWAP4 POP PUSH2 0x2905 DUP2 DUP6 PUSH1 0x20 DUP7 ADD PUSH2 0x24EB JUMP JUMPDEST DUP1 DUP5 ADD SWAP2 POP POP SWAP3 SWAP2 POP POP JUMP JUMPDEST PUSH32 0x2E7A6B6600000000000000000000000000000000000000000000000000000000 DUP2 MSTORE POP JUMP JUMPDEST PUSH1 0x0 PUSH2 0x2943 DUP3 DUP5 PUSH2 0x28E0 JUMP JUMPDEST SWAP2 POP PUSH2 0x294E DUP3 PUSH2 0x2911 JUMP JUMPDEST PUSH1 0x4 DUP3 ADD SWAP2 POP DUP2 SWAP1 POP SWAP3 SWAP2 POP POP JUMP JUMPDEST PUSH1 0x0 PUSH1 0x80 DUP3 ADD SWAP1 POP PUSH2 0x2972 PUSH1 0x0 DUP4 ADD DUP8 PUSH2 0x1F78 JUMP JUMPDEST PUSH2 0x297F PUSH1 0x20 DUP4 ADD DUP7 PUSH2 0x1F78 JUMP JUMPDEST PUSH2 0x298C PUSH1 0x40 DUP4 ADD DUP6 PUSH2 0x1F78 JUMP JUMPDEST DUP2 DUP2 SUB PUSH1 0x60 DUP4 ADD MSTORE PUSH2 0x299E DUP2 DUP5 PUSH2 0x2515 JUMP JUMPDEST SWAP1 POP SWAP6 SWAP5 POP POP POP POP POP JUMP JUMPDEST PUSH1 0x0 DUP2 MLOAD SWAP1 POP PUSH2 0x29B8 DUP2 PUSH2 0x195B JUMP JUMPDEST SWAP3 SWAP2 POP POP JUMP JUMPDEST PUSH1 0x0 PUSH1 0x20 DUP3 DUP5 SUB SLT ISZERO PUSH2 0x29D4 JUMPI PUSH2 0x29D3 PUSH2 0x1793 JUMP JUMPDEST JUMPDEST PUSH1 0x0 PUSH2 0x29E2 DUP5 DUP3 DUP6 ADD PUSH2 0x29A9 JUMP JUMPDEST SWAP2 POP POP SWAP3 SWAP2 POP POP JUMP JUMPDEST PUSH32 0x4E487B7100000000000000000000000000000000000000000000000000000000 PUSH1 0x0 MSTORE PUSH1 0x32 PUSH1 0x4 MSTORE PUSH1 0x24 PUSH1 0x0 REVERT JUMPDEST PUSH1 0x0 PUSH2 0x2A25 DUP3 PUSH2 0x191B JUMP JUMPDEST SWAP2 POP PUSH32 0xFFFFFFFFFFFFFFFFFFFFFFFFFFFFFFFFFFFFFFFFFFFFFFFFFFFFFFFFFFFFFFFF DUP3 SUB PUSH2 0x2A57 JUMPI PUSH2 0x2A56 PUSH2 0x20B4 JUMP JUMPDEST JUMPDEST PUSH1 0x1 DUP3 ADD SWAP1 POP SWAP2 SWAP1 POP JUMP INVALID LOG2 PUSH5 0x6970667358 0x22 SLT KECCAK256 0xC8 STATICCALL 0xD5 MUL 0x2B DUP10 DUP2 OR 0x21 0xB2 CODECOPY 0xDD CALLDATACOPY REVERT 0xEF CHAINID MSTORE 0xEB SELFDESTRUCT 0xAB PUSH4 0x8B1A0E91 SWAP3 0x5E CREATE2 MUL DUP13 0x1E PUSH31 0x64736F6C634300081400330000000000000000000000000000000000000000 "},"methodIdentifiers":{"MIN_REGISTRATION_DURATION()":"8a95b09f","available(string)":"aeb8ce9b","commit(bytes32)":"f14fcbc8","commitments(bytes32)":"839df945","makeCommitment(string,address,uint256,bytes32,address,bytes[],bool)":"3d4aa89e","maxCommitmentAge()":"ce1e09c0","minCommitmentAge()":"8d839ffe","owner()":"8da5cb5b","prices()":"d3419bf3","recoverFunds(address,address,uint256)":"5d3590d5","register(string,address,uint256,bytes32,address,bytes[],bool)":"237592e8","renew(string,uint256)":"acf1a841","renounceOwnership()":"715018a6","rentPrice(string,uint256)":"83e7f6ff","reverseRegistrar()":"80869853","setPriceOracle(address)":"530e784f","supportsInterface(bytes4)":"01ffc9a7","transferOwnership(address)":"f2fde38b","valid(string)":"9791c097","withdraw()":"3ccfd60b"}}}}}