{"contracts/reverseRegistrar/ReverseRegistrar.sol":{"ReverseRegistrar":{"abi":[{"inputs":[{"internalType":"contract ENS","name":"ensAddr","type":"address"}],"stateMutability":"nonpayable","type":"constructor"},{"inputs":[{"internalType":"address","name":"owner","type":"address"}],"name":"OwnableInvalidOwner","type":"error"},{"inputs":[{"internalType":"address","name":"account","type":"address"}],"name":"OwnableUnauthorizedAccount","type":"error"},{"anonymous":false,"inputs":[{"indexed":true,"internalType":"address","name":"controller","type":"address"},{"indexed":false,"internalType":"bool","name":"enabled","type":"bool"}],"name":"ControllerChanged","type":"event"},{"anonymous":false,"inputs":[{"indexed":true,"internalType":"contract NameResolver","name":"resolver","type":"address"}],"name":"DefaultResolverChanged","type":"event"},{"anonymous":false,"inputs":[{"indexed":true,"internalType":"address","name":"previousOwner","type":"address"},{"indexed":true,"internalType":"address","name":"newOwner","type":"address"}],"name":"OwnershipTransferred","type":"event"},{"anonymous":false,"inputs":[{"indexed":true,"internalType":"address","name":"addr","type":"address"},{"indexed":true,"internalType":"bytes32","name":"node","type":"bytes32"}],"name":"ReverseClaimed","type":"event"},{"inputs":[{"internalType":"address","name":"owner","type":"address"}],"name":"claim","outputs":[{"internalType":"bytes32","name":"","type":"bytes32"}],"stateMutability":"nonpayable","type":"function"},{"inputs":[{"internalType":"address","name":"addr","type":"address"},{"internalType":"address","name":"owner","type":"address"},{"internalType":"address","name":"resolver","type":"address"}],"name":"claimForAddr","outputs":[{"internalType":"bytes32","name":"","type":"bytes32"}],"stateMutability":"nonpayable","type":"function"},{"inputs":[{"internalType":"address","name":"owner","type":"address"},{"internalType":"address","name":"resolver","type":"address"}],"name":"claimWithResolver","outputs":[{"internalType":"bytes32","name":"","type":"bytes32"}],"stateMutability":"nonpayable","type":"function"},{"inputs":[{"internalType":"address","name":"","type":"address"}],"name":"controllers","outputs":[{"internalType":"bool","name":"","type":"bool"}],"stateMutability":"view","type":"function"},{"inputs":[],"name":"defaultResolver","outputs":[{"internalType":"contract NameResolver","name":"","type":"address"}],"stateMutability":"view","type":"function"},{"inputs":[],"name":"ens","outputs":[{"internalType":"contract ENS","name":"","type":"address"}],"stateMutability":"view","type":"function"},{"inputs":[{"internalType":"address","name":"addr","type":"address"}],"name":"node","outputs":[{"internalType":"bytes32","name":"","type":"bytes32"}],"stateMutability":"pure","type":"function"},{"inputs":[],"name":"owner","outputs":[{"internalType":"address","name":"","type":"address"}],"stateMutability":"view","type":"function"},{"inputs":[],"name":"renounceOwnership","outputs":[],"stateMutability":"nonpayable","type":"function"},{"inputs":[{"internalType":"address","name":"controller","type":"address"},{"internalType":"bool","name":"enabled","type":"bool"}],"name":"setController","outputs":[],"stateMutability":"nonpayable","type":"function"},{"inputs":[{"internalType":"address","name":"resolver","type":"address"}],"name":"setDefaultResolver","outputs":[],"stateMutability":"nonpayable","type":"function"},{"inputs":[{"internalType":"string","name":"name","type":"string"}],"name":"setName","outputs":[{"internalType":"bytes32","name":"","type":"bytes32"}],"stateMutability":"nonpayable","type":"function"},{"inputs":[{"internalType":"address","name":"addr","type":"address"},{"internalType":"address","name":"owner","type":"address"},{"internalType":"address","name":"resolver","type":"address"},{"internalType":"string","name":"name","type":"string"}],"name":"setNameForAddr","outputs":[{"internalType":"bytes32","name":"","type":"bytes32"}],"stateMutability":"nonpayable","type":"function"},{"inputs":[{"internalType":"address","name":"newOwner","type":"address"}],"name":"transferOwnership","outputs":[],"stateMutability":"nonpayable","type":"function"}],"evm":{"bytecode":{"linkReferences":{},"object":"60a06040523480156200001157600080fd5b50604051620019893803806200198983398181016040528101906200003791906200039b565b33600073ffffffffffffffffffffffffffffffffffffffff168173ffffffffffffffffffffffffffffffffffffffff1603620000ad5760006040517f1e4fbdf7000000000000000000000000000000000000000000000000000000008152600401620000a49190620003de565b60405180910390fd5b620000be816200025960201b60201c565b508073ffffffffffffffffffffffffffffffffffffffff1660808173ffffffffffffffffffffffffffffffffffffffff168152505060008173ffffffffffffffffffffffffffffffffffffffff166302571be37f91d1777781884d03a6757a803996e38de2a42967fb37eeaca72729271025a9e260001b6040518263ffffffff1660e01b815260040162000153919062000416565b602060405180830381865afa15801562000171573d6000803e3d6000fd5b505050506040513d601f19601f8201168201806040525081019062000197919062000464565b9050600073ffffffffffffffffffffffffffffffffffffffff168173ffffffffffffffffffffffffffffffffffffffff161462000251578073ffffffffffffffffffffffffffffffffffffffff16631e83409a336040518263ffffffff1660e01b8152600401620002099190620003de565b6020604051808303816000875af115801562000229573d6000803e3d6000fd5b505050506040513d601f19601f820116820180604052508101906200024f9190620004c7565b505b5050620004f9565b60008060009054906101000a900473ffffffffffffffffffffffffffffffffffffffff169050816000806101000a81548173ffffffffffffffffffffffffffffffffffffffff021916908373ffffffffffffffffffffffffffffffffffffffff1602179055508173ffffffffffffffffffffffffffffffffffffffff168173ffffffffffffffffffffffffffffffffffffffff167f8be0079c531659141344cd1fd0a4f28419497f9722a3daafe3b4186f6b6457e060405160405180910390a35050565b600080fd5b600073ffffffffffffffffffffffffffffffffffffffff82169050919050565b60006200034f8262000322565b9050919050565b6000620003638262000342565b9050919050565b620003758162000356565b81146200038157600080fd5b50565b60008151905062000395816200036a565b92915050565b600060208284031215620003b457620003b36200031d565b5b6000620003c48482850162000384565b91505092915050565b620003d88162000342565b82525050565b6000602082019050620003f56000830184620003cd565b92915050565b6000819050919050565b6200041081620003fb565b82525050565b60006020820190506200042d600083018462000405565b92915050565b6200043e8162000342565b81146200044a57600080fd5b50565b6000815190506200045e8162000433565b92915050565b6000602082840312156200047d576200047c6200031d565b5b60006200048d848285016200044d565b91505092915050565b620004a181620003fb565b8114620004ad57600080fd5b50565b600081519050620004c18162000496565b92915050565b600060208284031215620004e057620004df6200031d565b5b6000620004f084828501620004b0565b91505092915050565b6080516114666200052360003960008181610344015281816103f4015261057101526114666000f3fe608060405234801561001057600080fd5b50600436106100ea5760003560e01c80638da5cb5b1161008c578063c66485b211610066578063c66485b214610273578063da8c229e1461028f578063e0dba60f146102bf578063f2fde38b146102db576100ea565b80638da5cb5b146101f5578063bffbe61c14610213578063c47f002714610243576100ea565b806365669631116100c8578063656696311461016d578063715018a61461019d5780637a806d6b146101a7578063828eab0e146101d7576100ea565b80630f5a5466146100ef5780631e83409a1461011f5780633f15457f1461014f575b600080fd5b61010960048036038101906101049190610c55565b6102f7565b6040516101169190610cae565b60405180910390f35b61013960048036038101906101349190610cc9565b61030c565b6040516101469190610cae565b60405180910390f35b610157610342565b6040516101649190610d55565b60405180910390f35b61018760048036038101906101829190610d70565b610366565b6040516101949190610cae565b60405180910390f35b6101a5610633565b005b6101c160048036038101906101bc9190610f09565b610647565b6040516101ce9190610cae565b60405180910390f35b6101df6106d0565b6040516101ec9190610fad565b60405180910390f35b6101fd6106f6565b60405161020a9190610fd7565b60405180910390f35b61022d60048036038101906102289190610cc9565b61071f565b60405161023a9190610cae565b60405180910390f35b61025d60048036038101906102589190610ff2565b61077c565b60405161026a9190610cae565b60405180910390f35b61028d60048036038101906102889190610cc9565b6107b3565b005b6102a960048036038101906102a49190610cc9565b6108b1565b6040516102b69190611056565b60405180910390f35b6102d960048036038101906102d4919061109d565b6108d1565b005b6102f560048036038101906102f09190610cc9565b610982565b005b6000610304338484610366565b905092915050565b600061033b3383600260009054906101000a900473ffffffffffffffffffffffffffffffffffffffff16610366565b9050919050565b7f000000000000000000000000000000000000000000000000000000000000000081565b6000833373ffffffffffffffffffffffffffffffffffffffff168173ffffffffffffffffffffffffffffffffffffffff1614806103ec5750600160003373ffffffffffffffffffffffffffffffffffffffff1673ffffffffffffffffffffffffffffffffffffffff16815260200190815260200160002060009054906101000a900460ff165b8061048f57507f000000000000000000000000000000000000000000000000000000000000000073ffffffffffffffffffffffffffffffffffffffff1663e985e9c582336040518363ffffffff1660e01b815260040161044d9291906110dd565b602060405180830381865afa15801561046a573d6000803e3d6000fd5b505050506040513d601f19601f8201168201806040525081019061048e919061111b565b5b6104ce576040517f08c379a00000000000000000000000000000000000000000000000000000000081526004016104c5906111f1565b60405180910390fd5b60006104d986610a08565b905060007f91d1777781884d03a6757a803996e38de2a42967fb37eeaca72729271025a9e260001b82604051602001610513929190611232565b604051602081830303815290604052805190602001209050808773ffffffffffffffffffffffffffffffffffffffff167f6ada868dd3058cf77a48a74489fd7963688e5464b2b0fa957ace976243270e9260405160405180910390a37f000000000000000000000000000000000000000000000000000000000000000073ffffffffffffffffffffffffffffffffffffffff16635ef2c7f07f91d1777781884d03a6757a803996e38de2a42967fb37eeaca72729271025a9e260001b84898960006040518663ffffffff1660e01b81526004016105f49594939291906112ad565b600060405180830381600087803b15801561060e57600080fd5b505af1158015610622573d6000803e3d6000fd5b505050508093505050509392505050565b61063b610a90565b6106456000610b17565b565b600080610655868686610366565b90508373ffffffffffffffffffffffffffffffffffffffff16637737221382856040518363ffffffff1660e01b815260040161069292919061136e565b600060405180830381600087803b1580156106ac57600080fd5b505af11580156106c0573d6000803e3d6000fd5b5050505080915050949350505050565b600260009054906101000a900473ffffffffffffffffffffffffffffffffffffffff1681565b60008060009054906101000a900473ffffffffffffffffffffffffffffffffffffffff16905090565b60007f91d1777781884d03a6757a803996e38de2a42967fb37eeaca72729271025a9e260001b61074e83610a08565b60405160200161075f929190611232565b604051602081830303815290604052805190602001209050919050565b60006107ac3333600260009054906101000a900473ffffffffffffffffffffffffffffffffffffffff1685610647565b9050919050565b6107bb610a90565b600073ffffffffffffffffffffffffffffffffffffffff168173ffffffffffffffffffffffffffffffffffffffff160361082a576040517f08c379a000000000000000000000000000000000000000000000000000000000815260040161082190611410565b60405180910390fd5b80600260006101000a81548173ffffffffffffffffffffffffffffffffffffffff021916908373ffffffffffffffffffffffffffffffffffffffff1602179055508073ffffffffffffffffffffffffffffffffffffffff167feae17a84d9eb83d8c8eb317f9e7d64857bc363fa51674d996c023f4340c577cf60405160405180910390a250565b60016020528060005260406000206000915054906101000a900460ff1681565b6108d9610a90565b80600160008473ffffffffffffffffffffffffffffffffffffffff1673ffffffffffffffffffffffffffffffffffffffff16815260200190815260200160002060006101000a81548160ff0219169083151502179055508173ffffffffffffffffffffffffffffffffffffffff167f4c97694570a07277810af7e5669ffd5f6a2d6b74b6e9a274b8b870fd5114cf87826040516109769190611056565b60405180910390a25050565b61098a610a90565b600073ffffffffffffffffffffffffffffffffffffffff168173ffffffffffffffffffffffffffffffffffffffff16036109fc5760006040517f1e4fbdf70000000000000000000000000000000000000000000000000000000081526004016109f39190610fd7565b60405180910390fd5b610a0581610b17565b50565b600060285b6000811115610a83576001810390507f3031323334353637383961626364656600000000000000000000000000000000600f84161a81536010830492506001810390507f3031323334353637383961626364656600000000000000000000000000000000600f84161a8153601083049250610a0d565b5060286000209050919050565b610a98610bdb565b73ffffffffffffffffffffffffffffffffffffffff16610ab66106f6565b73ffffffffffffffffffffffffffffffffffffffff1614610b1557610ad9610bdb565b6040517f118cdaa7000000000000000000000000000000000000000000000000000000008152600401610b0c9190610fd7565b60405180910390fd5b565b60008060009054906101000a900473ffffffffffffffffffffffffffffffffffffffff169050816000806101000a81548173ffffffffffffffffffffffffffffffffffffffff021916908373ffffffffffffffffffffffffffffffffffffffff1602179055508173ffffffffffffffffffffffffffffffffffffffff168173ffffffffffffffffffffffffffffffffffffffff167f8be0079c531659141344cd1fd0a4f28419497f9722a3daafe3b4186f6b6457e060405160405180910390a35050565b600033905090565b6000604051905090565b600080fd5b600080fd5b600073ffffffffffffffffffffffffffffffffffffffff82169050919050565b6000610c2282610bf7565b9050919050565b610c3281610c17565b8114610c3d57600080fd5b50565b600081359050610c4f81610c29565b92915050565b60008060408385031215610c6c57610c6b610bed565b5b6000610c7a85828601610c40565b9250506020610c8b85828601610c40565b9150509250929050565b6000819050919050565b610ca881610c95565b82525050565b6000602082019050610cc36000830184610c9f565b92915050565b600060208284031215610cdf57610cde610bed565b5b6000610ced84828501610c40565b91505092915050565b6000819050919050565b6000610d1b610d16610d1184610bf7565b610cf6565b610bf7565b9050919050565b6000610d2d82610d00565b9050919050565b6000610d3f82610d22565b9050919050565b610d4f81610d34565b82525050565b6000602082019050610d6a6000830184610d46565b92915050565b600080600060608486031215610d8957610d88610bed565b5b6000610d9786828701610c40565b9350506020610da886828701610c40565b9250506040610db986828701610c40565b9150509250925092565b600080fd5b600080fd5b6000601f19601f8301169050919050565b7f4e487b7100000000000000000000000000000000000000000000000000000000600052604160045260246000fd5b610e1682610dcd565b810181811067ffffffffffffffff82111715610e3557610e34610dde565b5b80604052505050565b6000610e48610be3565b9050610e548282610e0d565b919050565b600067ffffffffffffffff821115610e7457610e73610dde565b5b610e7d82610dcd565b9050602081019050919050565b82818337600083830152505050565b6000610eac610ea784610e59565b610e3e565b905082815260208101848484011115610ec857610ec7610dc8565b5b610ed3848285610e8a565b509392505050565b600082601f830112610ef057610eef610dc3565b5b8135610f00848260208601610e99565b91505092915050565b60008060008060808587031215610f2357610f22610bed565b5b6000610f3187828801610c40565b9450506020610f4287828801610c40565b9350506040610f5387828801610c40565b925050606085013567ffffffffffffffff811115610f7457610f73610bf2565b5b610f8087828801610edb565b91505092959194509250565b6000610f9782610d22565b9050919050565b610fa781610f8c565b82525050565b6000602082019050610fc26000830184610f9e565b92915050565b610fd181610c17565b82525050565b6000602082019050610fec6000830184610fc8565b92915050565b60006020828403121561100857611007610bed565b5b600082013567ffffffffffffffff81111561102657611025610bf2565b5b61103284828501610edb565b91505092915050565b60008115159050919050565b6110508161103b565b82525050565b600060208201905061106b6000830184611047565b92915050565b61107a8161103b565b811461108557600080fd5b50565b60008135905061109781611071565b92915050565b600080604083850312156110b4576110b3610bed565b5b60006110c285828601610c40565b92505060206110d385828601611088565b9150509250929050565b60006040820190506110f26000830185610fc8565b6110ff6020830184610fc8565b9392505050565b60008151905061111581611071565b92915050565b60006020828403121561113157611130610bed565b5b600061113f84828501611106565b91505092915050565b600082825260208201905092915050565b7f526576657273655265676973747261723a2043616c6c6572206973206e6f742060008201527f6120636f6e74726f6c6c6572206f7220617574686f726973656420627920616460208201527f6472657373206f7220746865206164647265737320697473656c660000000000604082015250565b60006111db605b83611148565b91506111e682611159565b606082019050919050565b6000602082019050818103600083015261120a816111ce565b9050919050565b6000819050919050565b61122c61122782610c95565b611211565b82525050565b600061123e828561121b565b60208201915061124e828461121b565b6020820191508190509392505050565b6000819050919050565b600067ffffffffffffffff82169050919050565b600061129761129261128d8461125e565b610cf6565b611268565b9050919050565b6112a78161127c565b82525050565b600060a0820190506112c26000830188610c9f565b6112cf6020830187610c9f565b6112dc6040830186610fc8565b6112e96060830185610fc8565b6112f6608083018461129e565b9695505050505050565b600081519050919050565b60005b8381101561132957808201518184015260208101905061130e565b60008484015250505050565b600061134082611300565b61134a8185611148565b935061135a81856020860161130b565b61136381610dcd565b840191505092915050565b60006040820190506113836000830185610c9f565b81810360208301526113958184611335565b90509392505050565b7f526576657273655265676973747261723a205265736f6c76657220616464726560008201527f7373206d757374206e6f74206265203000000000000000000000000000000000602082015250565b60006113fa603083611148565b91506114058261139e565b604082019050919050565b60006020820190508181036000830152611429816113ed565b905091905056fea2646970667358221220673077367c59578829a8b83c192f472a19b8fb7cbccf9ece78a0fe36188f845964736f6c63430008140033","opcodes":"PUSH1 0xA0 PUSH1 0x40 MSTORE CALLVALUE DUP1 ISZERO PUSH3 0x11 JUMPI PUSH1 0x0 DUP1 REVERT JUMPDEST POP PUSH1 0x40 MLOAD PUSH3 0x1989 CODESIZE SUB DUP1 PUSH3 0x1989 DUP4 CODECOPY DUP2 DUP2 ADD PUSH1 0x40 MSTORE DUP2 ADD SWAP1 PUSH3 0x37 SWAP2 SWAP1 PUSH3 0x39B JUMP JUMPDEST CALLER PUSH1 0x0 PUSH20 0xFFFFFFFFFFFFFFFFFFFFFFFFFFFFFFFFFFFFFFFF AND DUP2 PUSH20 0xFFFFFFFFFFFFFFFFFFFFFFFFFFFFFFFFFFFFFFFF AND SUB PUSH3 0xAD JUMPI PUSH1 0x0 PUSH1 0x40 MLOAD PUSH32 0x1E4FBDF700000000000000000000000000000000000000000000000000000000 DUP2 MSTORE PUSH1 0x4 ADD PUSH3 0xA4 SWAP2 SWAP1 PUSH3 0x3DE JUMP JUMPDEST PUSH1 0x40 MLOAD DUP1 SWAP2 SUB SWAP1 REVERT JUMPDEST PUSH3 0xBE DUP2 PUSH3 0x259 PUSH1 0x20 SHL PUSH1 0x20 SHR JUMP JUMPDEST POP DUP1 PUSH20 0xFFFFFFFFFFFFFFFFFFFFFFFFFFFFFFFFFFFFFFFF AND PUSH1 0x80 DUP2 PUSH20 0xFFFFFFFFFFFFFFFFFFFFFFFFFFFFFFFFFFFFFFFF AND DUP2 MSTORE POP POP PUSH1 0x0 DUP2 PUSH20 0xFFFFFFFFFFFFFFFFFFFFFFFFFFFFFFFFFFFFFFFF AND PUSH4 0x2571BE3 PUSH32 0x91D1777781884D03A6757A803996E38DE2A42967FB37EEACA72729271025A9E2 PUSH1 0x0 SHL PUSH1 0x40 MLOAD DUP3 PUSH4 0xFFFFFFFF AND PUSH1 0xE0 SHL DUP2 MSTORE PUSH1 0x4 ADD PUSH3 0x153 SWAP2 SWAP1 PUSH3 0x416 JUMP JUMPDEST PUSH1 0x20 PUSH1 0x40 MLOAD DUP1 DUP4 SUB DUP2 DUP7 GAS STATICCALL ISZERO DUP1 ISZERO PUSH3 0x171 JUMPI RETURNDATASIZE PUSH1 0x0 DUP1 RETURNDATACOPY RETURNDATASIZE PUSH1 0x0 REVERT JUMPDEST POP POP POP POP PUSH1 0x40 MLOAD RETURNDATASIZE PUSH1 0x1F NOT PUSH1 0x1F DUP3 ADD AND DUP3 ADD DUP1 PUSH1 0x40 MSTORE POP DUP2 ADD SWAP1 PUSH3 0x197 SWAP2 SWAP1 PUSH3 0x464 JUMP JUMPDEST SWAP1 POP PUSH1 0x0 PUSH20 0xFFFFFFFFFFFFFFFFFFFFFFFFFFFFFFFFFFFFFFFF AND DUP2 PUSH20 0xFFFFFFFFFFFFFFFFFFFFFFFFFFFFFFFFFFFFFFFF AND EQ PUSH3 0x251 JUMPI DUP1 PUSH20 0xFFFFFFFFFFFFFFFFFFFFFFFFFFFFFFFFFFFFFFFF AND PUSH4 0x1E83409A CALLER PUSH1 0x40 MLOAD DUP3 PUSH4 0xFFFFFFFF AND PUSH1 0xE0 SHL DUP2 MSTORE PUSH1 0x4 ADD PUSH3 0x209 SWAP2 SWAP1 PUSH3 0x3DE JUMP JUMPDEST PUSH1 0x20 PUSH1 0x40 MLOAD DUP1 DUP4 SUB DUP2 PUSH1 0x0 DUP8 GAS CALL ISZERO DUP1 ISZERO PUSH3 0x229 JUMPI RETURNDATASIZE PUSH1 0x0 DUP1 RETURNDATACOPY RETURNDATASIZE PUSH1 0x0 REVERT JUMPDEST POP POP POP POP PUSH1 0x40 MLOAD RETURNDATASIZE PUSH1 0x1F NOT PUSH1 0x1F DUP3 ADD AND DUP3 ADD DUP1 PUSH1 0x40 MSTORE POP DUP2 ADD SWAP1 PUSH3 0x24F SWAP2 SWAP1 PUSH3 0x4C7 JUMP JUMPDEST POP JUMPDEST POP POP PUSH3 0x4F9 JUMP JUMPDEST PUSH1 0x0 DUP1 PUSH1 0x0 SWAP1 SLOAD SWAP1 PUSH2 0x100 EXP SWAP1 DIV PUSH20 0xFFFFFFFFFFFFFFFFFFFFFFFFFFFFFFFFFFFFFFFF AND SWAP1 POP DUP2 PUSH1 0x0 DUP1 PUSH2 0x100 EXP DUP2 SLOAD DUP2 PUSH20 0xFFFFFFFFFFFFFFFFFFFFFFFFFFFFFFFFFFFFFFFF MUL NOT AND SWAP1 DUP4 PUSH20 0xFFFFFFFFFFFFFFFFFFFFFFFFFFFFFFFFFFFFFFFF AND MUL OR SWAP1 SSTORE POP DUP2 PUSH20 0xFFFFFFFFFFFFFFFFFFFFFFFFFFFFFFFFFFFFFFFF AND DUP2 PUSH20 0xFFFFFFFFFFFFFFFFFFFFFFFFFFFFFFFFFFFFFFFF AND PUSH32 0x8BE0079C531659141344CD1FD0A4F28419497F9722A3DAAFE3B4186F6B6457E0 PUSH1 0x40 MLOAD PUSH1 0x40 MLOAD DUP1 SWAP2 SUB SWAP1 LOG3 POP POP JUMP JUMPDEST PUSH1 0x0 DUP1 REVERT JUMPDEST PUSH1 0x0 PUSH20 0xFFFFFFFFFFFFFFFFFFFFFFFFFFFFFFFFFFFFFFFF DUP3 AND SWAP1 POP SWAP2 SWAP1 POP JUMP JUMPDEST PUSH1 0x0 PUSH3 0x34F DUP3 PUSH3 0x322 JUMP JUMPDEST SWAP1 POP SWAP2 SWAP1 POP JUMP JUMPDEST PUSH1 0x0 PUSH3 0x363 DUP3 PUSH3 0x342 JUMP JUMPDEST SWAP1 POP SWAP2 SWAP1 POP JUMP JUMPDEST PUSH3 0x375 DUP2 PUSH3 0x356 JUMP JUMPDEST DUP2 EQ PUSH3 0x381 JUMPI PUSH1 0x0 DUP1 REVERT JUMPDEST POP JUMP JUMPDEST PUSH1 0x0 DUP2 MLOAD SWAP1 POP PUSH3 0x395 DUP2 PUSH3 0x36A JUMP JUMPDEST SWAP3 SWAP2 POP POP JUMP JUMPDEST PUSH1 0x0 PUSH1 0x20 DUP3 DUP5 SUB SLT ISZERO PUSH3 0x3B4 JUMPI PUSH3 0x3B3 PUSH3 0x31D JUMP JUMPDEST JUMPDEST PUSH1 0x0 PUSH3 0x3C4 DUP5 DUP3 DUP6 ADD PUSH3 0x384 JUMP JUMPDEST SWAP2 POP POP SWAP3 SWAP2 POP POP JUMP JUMPDEST PUSH3 0x3D8 DUP2 PUSH3 0x342 JUMP JUMPDEST DUP3 MSTORE POP POP JUMP JUMPDEST PUSH1 0x0 PUSH1 0x20 DUP3 ADD SWAP1 POP PUSH3 0x3F5 PUSH1 0x0 DUP4 ADD DUP5 PUSH3 0x3CD JUMP JUMPDEST SWAP3 SWAP2 POP POP JUMP JUMPDEST PUSH1 0x0 DUP2 SWAP1 POP SWAP2 SWAP1 POP JUMP JUMPDEST PUSH3 0x410 DUP2 PUSH3 0x3FB JUMP JUMPDEST DUP3 MSTORE POP POP JUMP JUMPDEST PUSH1 0x0 PUSH1 0x20 DUP3 ADD SWAP1 POP PUSH3 0x42D PUSH1 0x0 DUP4 ADD DUP5 PUSH3 0x405 JUMP JUMPDEST SWAP3 SWAP2 POP POP JUMP JUMPDEST PUSH3 0x43E DUP2 PUSH3 0x342 JUMP JUMPDEST DUP2 EQ PUSH3 0x44A JUMPI PUSH1 0x0 DUP1 REVERT JUMPDEST POP JUMP JUMPDEST PUSH1 0x0 DUP2 MLOAD SWAP1 POP PUSH3 0x45E DUP2 PUSH3 0x433 JUMP JUMPDEST SWAP3 SWAP2 POP POP JUMP JUMPDEST PUSH1 0x0 PUSH1 0x20 DUP3 DUP5 SUB SLT ISZERO PUSH3 0x47D JUMPI PUSH3 0x47C PUSH3 0x31D JUMP JUMPDEST JUMPDEST PUSH1 0x0 PUSH3 0x48D DUP5 DUP3 DUP6 ADD PUSH3 0x44D JUMP JUMPDEST SWAP2 POP POP SWAP3 SWAP2 POP POP JUMP JUMPDEST PUSH3 0x4A1 DUP2 PUSH3 0x3FB JUMP JUMPDEST DUP2 EQ PUSH3 0x4AD JUMPI PUSH1 0x0 DUP1 REVERT JUMPDEST POP JUMP JUMPDEST PUSH1 0x0 DUP2 MLOAD SWAP1 POP PUSH3 0x4C1 DUP2 PUSH3 0x496 JUMP JUMPDEST SWAP3 SWAP2 POP POP JUMP JUMPDEST PUSH1 0x0 PUSH1 0x20 DUP3 DUP5 SUB SLT ISZERO PUSH3 0x4E0 JUMPI PUSH3 0x4DF PUSH3 0x31D JUMP JUMPDEST JUMPDEST PUSH1 0x0 PUSH3 0x4F0 DUP5 DUP3 DUP6 ADD PUSH3 0x4B0 JUMP JUMPDEST SWAP2 POP POP SWAP3 SWAP2 POP POP JUMP JUMPDEST PUSH1 0x80 MLOAD PUSH2 0x1466 PUSH3 0x523 PUSH1 0x0 CODECOPY PUSH1 0x0 DUP2 DUP2 PUSH2 0x344 ADD MSTORE DUP2 DUP2 PUSH2 0x3F4 ADD MSTORE PUSH2 0x571 ADD MSTORE PUSH2 0x1466 PUSH1 0x0 RETURN INVALID PUSH1 0x80 PUSH1 0x40 MSTORE CALLVALUE DUP1 ISZERO PUSH2 0x10 JUMPI PUSH1 0x0 DUP1 REVERT JUMPDEST POP PUSH1 0x4 CALLDATASIZE LT PUSH2 0xEA JUMPI PUSH1 0x0 CALLDATALOAD PUSH1 0xE0 SHR DUP1 PUSH4 0x8DA5CB5B GT PUSH2 0x8C JUMPI DUP1 PUSH4 0xC66485B2 GT PUSH2 0x66 JUMPI DUP1 PUSH4 0xC66485B2 EQ PUSH2 0x273 JUMPI DUP1 PUSH4 0xDA8C229E EQ PUSH2 0x28F JUMPI DUP1 PUSH4 0xE0DBA60F EQ PUSH2 0x2BF JUMPI DUP1 PUSH4 0xF2FDE38B EQ PUSH2 0x2DB JUMPI PUSH2 0xEA JUMP JUMPDEST DUP1 PUSH4 0x8DA5CB5B EQ PUSH2 0x1F5 JUMPI DUP1 PUSH4 0xBFFBE61C EQ PUSH2 0x213 JUMPI DUP1 PUSH4 0xC47F0027 EQ PUSH2 0x243 JUMPI PUSH2 0xEA JUMP JUMPDEST DUP1 PUSH4 0x65669631 GT PUSH2 0xC8 JUMPI DUP1 PUSH4 0x65669631 EQ PUSH2 0x16D JUMPI DUP1 PUSH4 0x715018A6 EQ PUSH2 0x19D JUMPI DUP1 PUSH4 0x7A806D6B EQ PUSH2 0x1A7 JUMPI DUP1 PUSH4 0x828EAB0E EQ PUSH2 0x1D7 JUMPI PUSH2 0xEA JUMP JUMPDEST DUP1 PUSH4 0xF5A5466 EQ PUSH2 0xEF JUMPI DUP1 PUSH4 0x1E83409A EQ PUSH2 0x11F JUMPI DUP1 PUSH4 0x3F15457F EQ PUSH2 0x14F JUMPI JUMPDEST PUSH1 0x0 DUP1 REVERT JUMPDEST PUSH2 0x109 PUSH1 0x4 DUP1 CALLDATASIZE SUB DUP2 ADD SWAP1 PUSH2 0x104 SWAP2 SWAP1 PUSH2 0xC55 JUMP JUMPDEST PUSH2 0x2F7 JUMP JUMPDEST PUSH1 0x40 MLOAD PUSH2 0x116 SWAP2 SWAP1 PUSH2 0xCAE JUMP JUMPDEST PUSH1 0x40 MLOAD DUP1 SWAP2 SUB SWAP1 RETURN JUMPDEST PUSH2 0x139 PUSH1 0x4 DUP1 CALLDATASIZE SUB DUP2 ADD SWAP1 PUSH2 0x134 SWAP2 SWAP1 PUSH2 0xCC9 JUMP JUMPDEST PUSH2 0x30C JUMP JUMPDEST PUSH1 0x40 MLOAD PUSH2 0x146 SWAP2 SWAP1 PUSH2 0xCAE JUMP JUMPDEST PUSH1 0x40 MLOAD DUP1 SWAP2 SUB SWAP1 RETURN JUMPDEST PUSH2 0x157 PUSH2 0x342 JUMP JUMPDEST PUSH1 0x40 MLOAD PUSH2 0x164 SWAP2 SWAP1 PUSH2 0xD55 JUMP JUMPDEST PUSH1 0x40 MLOAD DUP1 SWAP2 SUB SWAP1 RETURN JUMPDEST PUSH2 0x187 PUSH1 0x4 DUP1 CALLDATASIZE SUB DUP2 ADD SWAP1 PUSH2 0x182 SWAP2 SWAP1 PUSH2 0xD70 JUMP JUMPDEST PUSH2 0x366 JUMP JUMPDEST PUSH1 0x40 MLOAD PUSH2 0x194 SWAP2 SWAP1 PUSH2 0xCAE JUMP JUMPDEST PUSH1 0x40 MLOAD DUP1 SWAP2 SUB SWAP1 RETURN JUMPDEST PUSH2 0x1A5 PUSH2 0x633 JUMP JUMPDEST STOP JUMPDEST PUSH2 0x1C1 PUSH1 0x4 DUP1 CALLDATASIZE SUB DUP2 ADD SWAP1 PUSH2 0x1BC SWAP2 SWAP1 PUSH2 0xF09 JUMP JUMPDEST PUSH2 0x647 JUMP JUMPDEST PUSH1 0x40 MLOAD PUSH2 0x1CE SWAP2 SWAP1 PUSH2 0xCAE JUMP JUMPDEST PUSH1 0x40 MLOAD DUP1 SWAP2 SUB SWAP1 RETURN JUMPDEST PUSH2 0x1DF PUSH2 0x6D0 JUMP JUMPDEST PUSH1 0x40 MLOAD PUSH2 0x1EC SWAP2 SWAP1 PUSH2 0xFAD JUMP JUMPDEST PUSH1 0x40 MLOAD DUP1 SWAP2 SUB SWAP1 RETURN JUMPDEST PUSH2 0x1FD PUSH2 0x6F6 JUMP JUMPDEST PUSH1 0x40 MLOAD PUSH2 0x20A SWAP2 SWAP1 PUSH2 0xFD7 JUMP JUMPDEST PUSH1 0x40 MLOAD DUP1 SWAP2 SUB SWAP1 RETURN JUMPDEST PUSH2 0x22D PUSH1 0x4 DUP1 CALLDATASIZE SUB DUP2 ADD SWAP1 PUSH2 0x228 SWAP2 SWAP1 PUSH2 0xCC9 JUMP JUMPDEST PUSH2 0x71F JUMP JUMPDEST PUSH1 0x40 MLOAD PUSH2 0x23A SWAP2 SWAP1 PUSH2 0xCAE JUMP JUMPDEST PUSH1 0x40 MLOAD DUP1 SWAP2 SUB SWAP1 RETURN JUMPDEST PUSH2 0x25D PUSH1 0x4 DUP1 CALLDATASIZE SUB DUP2 ADD SWAP1 PUSH2 0x258 SWAP2 SWAP1 PUSH2 0xFF2 JUMP JUMPDEST PUSH2 0x77C JUMP JUMPDEST PUSH1 0x40 MLOAD PUSH2 0x26A SWAP2 SWAP1 PUSH2 0xCAE JUMP JUMPDEST PUSH1 0x40 MLOAD DUP1 SWAP2 SUB SWAP1 RETURN JUMPDEST PUSH2 0x28D PUSH1 0x4 DUP1 CALLDATASIZE SUB DUP2 ADD SWAP1 PUSH2 0x288 SWAP2 SWAP1 PUSH2 0xCC9 JUMP JUMPDEST PUSH2 0x7B3 JUMP JUMPDEST STOP JUMPDEST PUSH2 0x2A9 PUSH1 0x4 DUP1 CALLDATASIZE SUB DUP2 ADD SWAP1 PUSH2 0x2A4 SWAP2 SWAP1 PUSH2 0xCC9 JUMP JUMPDEST PUSH2 0x8B1 JUMP JUMPDEST PUSH1 0x40 MLOAD PUSH2 0x2B6 SWAP2 SWAP1 PUSH2 0x1056 JUMP JUMPDEST PUSH1 0x40 MLOAD DUP1 SWAP2 SUB SWAP1 RETURN JUMPDEST PUSH2 0x2D9 PUSH1 0x4 DUP1 CALLDATASIZE SUB DUP2 ADD SWAP1 PUSH2 0x2D4 SWAP2 SWAP1 PUSH2 0x109D JUMP JUMPDEST PUSH2 0x8D1 JUMP JUMPDEST STOP JUMPDEST PUSH2 0x2F5 PUSH1 0x4 DUP1 CALLDATASIZE SUB DUP2 ADD SWAP1 PUSH2 0x2F0 SWAP2 SWAP1 PUSH2 0xCC9 JUMP JUMPDEST PUSH2 0x982 JUMP JUMPDEST STOP JUMPDEST PUSH1 0x0 PUSH2 0x304 CALLER DUP5 DUP5 PUSH2 0x366 JUMP JUMPDEST SWAP1 POP SWAP3 SWAP2 POP POP JUMP JUMPDEST PUSH1 0x0 PUSH2 0x33B CALLER DUP4 PUSH1 0x2 PUSH1 0x0 SWAP1 SLOAD SWAP1 PUSH2 0x100 EXP SWAP1 DIV PUSH20 0xFFFFFFFFFFFFFFFFFFFFFFFFFFFFFFFFFFFFFFFF AND PUSH2 0x366 JUMP JUMPDEST SWAP1 POP SWAP2 SWAP1 POP JUMP JUMPDEST PUSH32 0x0 DUP2 JUMP JUMPDEST PUSH1 0x0 DUP4 CALLER PUSH20 0xFFFFFFFFFFFFFFFFFFFFFFFFFFFFFFFFFFFFFFFF AND DUP2 PUSH20 0xFFFFFFFFFFFFFFFFFFFFFFFFFFFFFFFFFFFFFFFF AND EQ DUP1 PUSH2 0x3EC JUMPI POP PUSH1 0x1 PUSH1 0x0 CALLER PUSH20 0xFFFFFFFFFFFFFFFFFFFFFFFFFFFFFFFFFFFFFFFF AND PUSH20 0xFFFFFFFFFFFFFFFFFFFFFFFFFFFFFFFFFFFFFFFF AND DUP2 MSTORE PUSH1 0x20 ADD SWAP1 DUP2 MSTORE PUSH1 0x20 ADD PUSH1 0x0 KECCAK256 PUSH1 0x0 SWAP1 SLOAD SWAP1 PUSH2 0x100 EXP SWAP1 DIV PUSH1 0xFF AND JUMPDEST DUP1 PUSH2 0x48F JUMPI POP PUSH32 0x0 PUSH20 0xFFFFFFFFFFFFFFFFFFFFFFFFFFFFFFFFFFFFFFFF AND PUSH4 0xE985E9C5 DUP3 CALLER PUSH1 0x40 MLOAD DUP4 PUSH4 0xFFFFFFFF AND PUSH1 0xE0 SHL DUP2 MSTORE PUSH1 0x4 ADD PUSH2 0x44D SWAP3 SWAP2 SWAP1 PUSH2 0x10DD JUMP JUMPDEST PUSH1 0x20 PUSH1 0x40 MLOAD DUP1 DUP4 SUB DUP2 DUP7 GAS STATICCALL ISZERO DUP1 ISZERO PUSH2 0x46A JUMPI RETURNDATASIZE PUSH1 0x0 DUP1 RETURNDATACOPY RETURNDATASIZE PUSH1 0x0 REVERT JUMPDEST POP POP POP POP PUSH1 0x40 MLOAD RETURNDATASIZE PUSH1 0x1F NOT PUSH1 0x1F DUP3 ADD AND DUP3 ADD DUP1 PUSH1 0x40 MSTORE POP DUP2 ADD SWAP1 PUSH2 0x48E SWAP2 SWAP1 PUSH2 0x111B JUMP JUMPDEST JUMPDEST PUSH2 0x4CE JUMPI PUSH1 0x40 MLOAD PUSH32 0x8C379A000000000000000000000000000000000000000000000000000000000 DUP2 MSTORE PUSH1 0x4 ADD PUSH2 0x4C5 SWAP1 PUSH2 0x11F1 JUMP JUMPDEST PUSH1 0x40 MLOAD DUP1 SWAP2 SUB SWAP1 REVERT JUMPDEST PUSH1 0x0 PUSH2 0x4D9 DUP7 PUSH2 0xA08 JUMP JUMPDEST SWAP1 POP PUSH1 0x0 PUSH32 0x91D1777781884D03A6757A803996E38DE2A42967FB37EEACA72729271025A9E2 PUSH1 0x0 SHL DUP3 PUSH1 0x40 MLOAD PUSH1 0x20 ADD PUSH2 0x513 SWAP3 SWAP2 SWAP1 PUSH2 0x1232 JUMP JUMPDEST PUSH1 0x40 MLOAD PUSH1 0x20 DUP2 DUP4 SUB SUB DUP2 MSTORE SWAP1 PUSH1 0x40 MSTORE DUP1 MLOAD SWAP1 PUSH1 0x20 ADD KECCAK256 SWAP1 POP DUP1 DUP8 PUSH20 0xFFFFFFFFFFFFFFFFFFFFFFFFFFFFFFFFFFFFFFFF AND PUSH32 0x6ADA868DD3058CF77A48A74489FD7963688E5464B2B0FA957ACE976243270E92 PUSH1 0x40 MLOAD PUSH1 0x40 MLOAD DUP1 SWAP2 SUB SWAP1 LOG3 PUSH32 0x0 PUSH20 0xFFFFFFFFFFFFFFFFFFFFFFFFFFFFFFFFFFFFFFFF AND PUSH4 0x5EF2C7F0 PUSH32 0x91D1777781884D03A6757A803996E38DE2A42967FB37EEACA72729271025A9E2 PUSH1 0x0 SHL DUP5 DUP10 DUP10 PUSH1 0x0 PUSH1 0x40 MLOAD DUP7 PUSH4 0xFFFFFFFF AND PUSH1 0xE0 SHL DUP2 MSTORE PUSH1 0x4 ADD PUSH2 0x5F4 SWAP6 SWAP5 SWAP4 SWAP3 SWAP2 SWAP1 PUSH2 0x12AD JUMP JUMPDEST PUSH1 0x0 PUSH1 0x40 MLOAD DUP1 DUP4 SUB DUP2 PUSH1 0x0 DUP8 DUP1 EXTCODESIZE ISZERO DUP1 ISZERO PUSH2 0x60E JUMPI PUSH1 0x0 DUP1 REVERT JUMPDEST POP GAS CALL ISZERO DUP1 ISZERO PUSH2 0x622 JUMPI RETURNDATASIZE PUSH1 0x0 DUP1 RETURNDATACOPY RETURNDATASIZE PUSH1 0x0 REVERT JUMPDEST POP POP POP POP DUP1 SWAP4 POP POP POP POP SWAP4 SWAP3 POP POP POP JUMP JUMPDEST PUSH2 0x63B PUSH2 0xA90 JUMP JUMPDEST PUSH2 0x645 PUSH1 0x0 PUSH2 0xB17 JUMP JUMPDEST JUMP JUMPDEST PUSH1 0x0 DUP1 PUSH2 0x655 DUP7 DUP7 DUP7 PUSH2 0x366 JUMP JUMPDEST SWAP1 POP DUP4 PUSH20 0xFFFFFFFFFFFFFFFFFFFFFFFFFFFFFFFFFFFFFFFF AND PUSH4 0x77372213 DUP3 DUP6 PUSH1 0x40 MLOAD DUP4 PUSH4 0xFFFFFFFF AND PUSH1 0xE0 SHL DUP2 MSTORE PUSH1 0x4 ADD PUSH2 0x692 SWAP3 SWAP2 SWAP1 PUSH2 0x136E JUMP JUMPDEST PUSH1 0x0 PUSH1 0x40 MLOAD DUP1 DUP4 SUB DUP2 PUSH1 0x0 DUP8 DUP1 EXTCODESIZE ISZERO DUP1 ISZERO PUSH2 0x6AC JUMPI PUSH1 0x0 DUP1 REVERT JUMPDEST POP GAS CALL ISZERO DUP1 ISZERO PUSH2 0x6C0 JUMPI RETURNDATASIZE PUSH1 0x0 DUP1 RETURNDATACOPY RETURNDATASIZE PUSH1 0x0 REVERT JUMPDEST POP POP POP POP DUP1 SWAP2 POP POP SWAP5 SWAP4 POP POP POP POP JUMP JUMPDEST PUSH1 0x2 PUSH1 0x0 SWAP1 SLOAD SWAP1 PUSH2 0x100 EXP SWAP1 DIV PUSH20 0xFFFFFFFFFFFFFFFFFFFFFFFFFFFFFFFFFFFFFFFF AND DUP2 JUMP JUMPDEST PUSH1 0x0 DUP1 PUSH1 0x0 SWAP1 SLOAD SWAP1 PUSH2 0x100 EXP SWAP1 DIV PUSH20 0xFFFFFFFFFFFFFFFFFFFFFFFFFFFFFFFFFFFFFFFF AND SWAP1 POP SWAP1 JUMP JUMPDEST PUSH1 0x0 PUSH32 0x91D1777781884D03A6757A803996E38DE2A42967FB37EEACA72729271025A9E2 PUSH1 0x0 SHL PUSH2 0x74E DUP4 PUSH2 0xA08 JUMP JUMPDEST PUSH1 0x40 MLOAD PUSH1 0x20 ADD PUSH2 0x75F SWAP3 SWAP2 SWAP1 PUSH2 0x1232 JUMP JUMPDEST PUSH1 0x40 MLOAD PUSH1 0x20 DUP2 DUP4 SUB SUB DUP2 MSTORE SWAP1 PUSH1 0x40 MSTORE DUP1 MLOAD SWAP1 PUSH1 0x20 ADD KECCAK256 SWAP1 POP SWAP2 SWAP1 POP JUMP JUMPDEST PUSH1 0x0 PUSH2 0x7AC CALLER CALLER PUSH1 0x2 PUSH1 0x0 SWAP1 SLOAD SWAP1 PUSH2 0x100 EXP SWAP1 DIV PUSH20 0xFFFFFFFFFFFFFFFFFFFFFFFFFFFFFFFFFFFFFFFF AND DUP6 PUSH2 0x647 JUMP JUMPDEST SWAP1 POP SWAP2 SWAP1 POP JUMP JUMPDEST PUSH2 0x7BB PUSH2 0xA90 JUMP JUMPDEST PUSH1 0x0 PUSH20 0xFFFFFFFFFFFFFFFFFFFFFFFFFFFFFFFFFFFFFFFF AND DUP2 PUSH20 0xFFFFFFFFFFFFFFFFFFFFFFFFFFFFFFFFFFFFFFFF AND SUB PUSH2 0x82A JUMPI PUSH1 0x40 MLOAD PUSH32 0x8C379A000000000000000000000000000000000000000000000000000000000 DUP2 MSTORE PUSH1 0x4 ADD PUSH2 0x821 SWAP1 PUSH2 0x1410 JUMP JUMPDEST PUSH1 0x40 MLOAD DUP1 SWAP2 SUB SWAP1 REVERT JUMPDEST DUP1 PUSH1 0x2 PUSH1 0x0 PUSH2 0x100 EXP DUP2 SLOAD DUP2 PUSH20 0xFFFFFFFFFFFFFFFFFFFFFFFFFFFFFFFFFFFFFFFF MUL NOT AND SWAP1 DUP4 PUSH20 0xFFFFFFFFFFFFFFFFFFFFFFFFFFFFFFFFFFFFFFFF AND MUL OR SWAP1 SSTORE POP DUP1 PUSH20 0xFFFFFFFFFFFFFFFFFFFFFFFFFFFFFFFFFFFFFFFF AND PUSH32 0xEAE17A84D9EB83D8C8EB317F9E7D64857BC363FA51674D996C023F4340C577CF PUSH1 0x40 MLOAD PUSH1 0x40 MLOAD DUP1 SWAP2 SUB SWAP1 LOG2 POP JUMP JUMPDEST PUSH1 0x1 PUSH1 0x20 MSTORE DUP1 PUSH1 0x0 MSTORE PUSH1 0x40 PUSH1 0x0 KECCAK256 PUSH1 0x0 SWAP2 POP SLOAD SWAP1 PUSH2 0x100 EXP SWAP1 DIV PUSH1 0xFF AND DUP2 JUMP JUMPDEST PUSH2 0x8D9 PUSH2 0xA90 JUMP JUMPDEST DUP1 PUSH1 0x1 PUSH1 0x0 DUP5 PUSH20 0xFFFFFFFFFFFFFFFFFFFFFFFFFFFFFFFFFFFFFFFF AND PUSH20 0xFFFFFFFFFFFFFFFFFFFFFFFFFFFFFFFFFFFFFFFF AND DUP2 MSTORE PUSH1 0x20 ADD SWAP1 DUP2 MSTORE PUSH1 0x20 ADD PUSH1 0x0 KECCAK256 PUSH1 0x0 PUSH2 0x100 EXP DUP2 SLOAD DUP2 PUSH1 0xFF MUL NOT AND SWAP1 DUP4 ISZERO ISZERO MUL OR SWAP1 SSTORE POP DUP2 PUSH20 0xFFFFFFFFFFFFFFFFFFFFFFFFFFFFFFFFFFFFFFFF AND PUSH32 0x4C97694570A07277810AF7E5669FFD5F6A2D6B74B6E9A274B8B870FD5114CF87 DUP3 PUSH1 0x40 MLOAD PUSH2 0x976 SWAP2 SWAP1 PUSH2 0x1056 JUMP JUMPDEST PUSH1 0x40 MLOAD DUP1 SWAP2 SUB SWAP1 LOG2 POP POP JUMP JUMPDEST PUSH2 0x98A PUSH2 0xA90 JUMP JUMPDEST PUSH1 0x0 PUSH20 0xFFFFFFFFFFFFFFFFFFFFFFFFFFFFFFFFFFFFFFFF AND DUP2 PUSH20 0xFFFFFFFFFFFFFFFFFFFFFFFFFFFFFFFFFFFFFFFF AND SUB PUSH2 0x9FC JUMPI PUSH1 0x0 PUSH1 0x40 MLOAD PUSH32 0x1E4FBDF700000000000000000000000000000000000000000000000000000000 DUP2 MSTORE PUSH1 0x4 ADD PUSH2 0x9F3 SWAP2 SWAP1 PUSH2 0xFD7 JUMP JUMPDEST PUSH1 0x40 MLOAD DUP1 SWAP2 SUB SWAP1 REVERT JUMPDEST PUSH2 0xA05 DUP2 PUSH2 0xB17 JUMP JUMPDEST POP JUMP JUMPDEST PUSH1 0x0 PUSH1 0x28 JUMPDEST PUSH1 0x0 DUP2 GT ISZERO PUSH2 0xA83 JUMPI PUSH1 0x1 DUP2 SUB SWAP1 POP PUSH32 0x3031323334353637383961626364656600000000000000000000000000000000 PUSH1 0xF DUP5 AND BYTE DUP2 MSTORE8 PUSH1 0x10 DUP4 DIV SWAP3 POP PUSH1 0x1 DUP2 SUB SWAP1 POP PUSH32 0x3031323334353637383961626364656600000000000000000000000000000000 PUSH1 0xF DUP5 AND BYTE DUP2 MSTORE8 PUSH1 0x10 DUP4 DIV SWAP3 POP PUSH2 0xA0D JUMP JUMPDEST POP PUSH1 0x28 PUSH1 0x0 KECCAK256 SWAP1 POP SWAP2 SWAP1 POP JUMP JUMPDEST PUSH2 0xA98 PUSH2 0xBDB JUMP JUMPDEST PUSH20 0xFFFFFFFFFFFFFFFFFFFFFFFFFFFFFFFFFFFFFFFF AND PUSH2 0xAB6 PUSH2 0x6F6 JUMP JUMPDEST PUSH20 0xFFFFFFFFFFFFFFFFFFFFFFFFFFFFFFFFFFFFFFFF AND EQ PUSH2 0xB15 JUMPI PUSH2 0xAD9 PUSH2 0xBDB JUMP JUMPDEST PUSH1 0x40 MLOAD PUSH32 0x118CDAA700000000000000000000000000000000000000000000000000000000 DUP2 MSTORE PUSH1 0x4 ADD PUSH2 0xB0C SWAP2 SWAP1 PUSH2 0xFD7 JUMP JUMPDEST PUSH1 0x40 MLOAD DUP1 SWAP2 SUB SWAP1 REVERT JUMPDEST JUMP JUMPDEST PUSH1 0x0 DUP1 PUSH1 0x0 SWAP1 SLOAD SWAP1 PUSH2 0x100 EXP SWAP1 DIV PUSH20 0xFFFFFFFFFFFFFFFFFFFFFFFFFFFFFFFFFFFFFFFF AND SWAP1 POP DUP2 PUSH1 0x0 DUP1 PUSH2 0x100 EXP DUP2 SLOAD DUP2 PUSH20 0xFFFFFFFFFFFFFFFFFFFFFFFFFFFFFFFFFFFFFFFF MUL NOT AND SWAP1 DUP4 PUSH20 0xFFFFFFFFFFFFFFFFFFFFFFFFFFFFFFFFFFFFFFFF AND MUL OR SWAP1 SSTORE POP DUP2 PUSH20 0xFFFFFFFFFFFFFFFFFFFFFFFFFFFFFFFFFFFFFFFF AND DUP2 PUSH20 0xFFFFFFFFFFFFFFFFFFFFFFFFFFFFFFFFFFFFFFFF AND PUSH32 0x8BE0079C531659141344CD1FD0A4F28419497F9722A3DAAFE3B4186F6B6457E0 PUSH1 0x40 MLOAD PUSH1 0x40 MLOAD DUP1 SWAP2 SUB SWAP1 LOG3 POP POP JUMP JUMPDEST PUSH1 0x0 CALLER SWAP1 POP SWAP1 JUMP JUMPDEST PUSH1 0x0 PUSH1 0x40 MLOAD SWAP1 POP SWAP1 JUMP JUMPDEST PUSH1 0x0 DUP1 REVERT JUMPDEST PUSH1 0x0 DUP1 REVERT JUMPDEST PUSH1 0x0 PUSH20 0xFFFFFFFFFFFFFFFFFFFFFFFFFFFFFFFFFFFFFFFF DUP3 AND SWAP1 POP SWAP2 SWAP1 POP JUMP JUMPDEST PUSH1 0x0 PUSH2 0xC22 DUP3 PUSH2 0xBF7 JUMP JUMPDEST SWAP1 POP SWAP2 SWAP1 POP JUMP JUMPDEST PUSH2 0xC32 DUP2 PUSH2 0xC17 JUMP JUMPDEST DUP2 EQ PUSH2 0xC3D JUMPI PUSH1 0x0 DUP1 REVERT JUMPDEST POP JUMP JUMPDEST PUSH1 0x0 DUP2 CALLDATALOAD SWAP1 POP PUSH2 0xC4F DUP2 PUSH2 0xC29 JUMP JUMPDEST SWAP3 SWAP2 POP POP JUMP JUMPDEST PUSH1 0x0 DUP1 PUSH1 0x40 DUP4 DUP6 SUB SLT ISZERO PUSH2 0xC6C JUMPI PUSH2 0xC6B PUSH2 0xBED JUMP JUMPDEST JUMPDEST PUSH1 0x0 PUSH2 0xC7A DUP6 DUP3 DUP7 ADD PUSH2 0xC40 JUMP JUMPDEST SWAP3 POP POP PUSH1 0x20 PUSH2 0xC8B DUP6 DUP3 DUP7 ADD PUSH2 0xC40 JUMP JUMPDEST SWAP2 POP POP SWAP3 POP SWAP3 SWAP1 POP JUMP JUMPDEST PUSH1 0x0 DUP2 SWAP1 POP SWAP2 SWAP1 POP JUMP JUMPDEST PUSH2 0xCA8 DUP2 PUSH2 0xC95 JUMP JUMPDEST DUP3 MSTORE POP POP JUMP JUMPDEST PUSH1 0x0 PUSH1 0x20 DUP3 ADD SWAP1 POP PUSH2 0xCC3 PUSH1 0x0 DUP4 ADD DUP5 PUSH2 0xC9F JUMP JUMPDEST SWAP3 SWAP2 POP POP JUMP JUMPDEST PUSH1 0x0 PUSH1 0x20 DUP3 DUP5 SUB SLT ISZERO PUSH2 0xCDF JUMPI PUSH2 0xCDE PUSH2 0xBED JUMP JUMPDEST JUMPDEST PUSH1 0x0 PUSH2 0xCED DUP5 DUP3 DUP6 ADD PUSH2 0xC40 JUMP JUMPDEST SWAP2 POP POP SWAP3 SWAP2 POP POP JUMP JUMPDEST PUSH1 0x0 DUP2 SWAP1 POP SWAP2 SWAP1 POP JUMP JUMPDEST PUSH1 0x0 PUSH2 0xD1B PUSH2 0xD16 PUSH2 0xD11 DUP5 PUSH2 0xBF7 JUMP JUMPDEST PUSH2 0xCF6 JUMP JUMPDEST PUSH2 0xBF7 JUMP JUMPDEST SWAP1 POP SWAP2 SWAP1 POP JUMP JUMPDEST PUSH1 0x0 PUSH2 0xD2D DUP3 PUSH2 0xD00 JUMP JUMPDEST SWAP1 POP SWAP2 SWAP1 POP JUMP JUMPDEST PUSH1 0x0 PUSH2 0xD3F DUP3 PUSH2 0xD22 JUMP JUMPDEST SWAP1 POP SWAP2 SWAP1 POP JUMP JUMPDEST PUSH2 0xD4F DUP2 PUSH2 0xD34 JUMP JUMPDEST DUP3 MSTORE POP POP JUMP JUMPDEST PUSH1 0x0 PUSH1 0x20 DUP3 ADD SWAP1 POP PUSH2 0xD6A PUSH1 0x0 DUP4 ADD DUP5 PUSH2 0xD46 JUMP JUMPDEST SWAP3 SWAP2 POP POP JUMP JUMPDEST PUSH1 0x0 DUP1 PUSH1 0x0 PUSH1 0x60 DUP5 DUP7 SUB SLT ISZERO PUSH2 0xD89 JUMPI PUSH2 0xD88 PUSH2 0xBED JUMP JUMPDEST JUMPDEST PUSH1 0x0 PUSH2 0xD97 DUP7 DUP3 DUP8 ADD PUSH2 0xC40 JUMP JUMPDEST SWAP4 POP POP PUSH1 0x20 PUSH2 0xDA8 DUP7 DUP3 DUP8 ADD PUSH2 0xC40 JUMP JUMPDEST SWAP3 POP POP PUSH1 0x40 PUSH2 0xDB9 DUP7 DUP3 DUP8 ADD PUSH2 0xC40 JUMP JUMPDEST SWAP2 POP POP SWAP3 POP SWAP3 POP SWAP3 JUMP JUMPDEST PUSH1 0x0 DUP1 REVERT JUMPDEST PUSH1 0x0 DUP1 REVERT JUMPDEST PUSH1 0x0 PUSH1 0x1F NOT PUSH1 0x1F DUP4 ADD AND SWAP1 POP SWAP2 SWAP1 POP JUMP JUMPDEST PUSH32 0x4E487B7100000000000000000000000000000000000000000000000000000000 PUSH1 0x0 MSTORE PUSH1 0x41 PUSH1 0x4 MSTORE PUSH1 0x24 PUSH1 0x0 REVERT JUMPDEST PUSH2 0xE16 DUP3 PUSH2 0xDCD JUMP JUMPDEST DUP2 ADD DUP2 DUP2 LT PUSH8 0xFFFFFFFFFFFFFFFF DUP3 GT OR ISZERO PUSH2 0xE35 JUMPI PUSH2 0xE34 PUSH2 0xDDE JUMP JUMPDEST JUMPDEST DUP1 PUSH1 0x40 MSTORE POP POP POP JUMP JUMPDEST PUSH1 0x0 PUSH2 0xE48 PUSH2 0xBE3 JUMP JUMPDEST SWAP1 POP PUSH2 0xE54 DUP3 DUP3 PUSH2 0xE0D JUMP JUMPDEST SWAP2 SWAP1 POP JUMP JUMPDEST PUSH1 0x0 PUSH8 0xFFFFFFFFFFFFFFFF DUP3 GT ISZERO PUSH2 0xE74 JUMPI PUSH2 0xE73 PUSH2 0xDDE JUMP JUMPDEST JUMPDEST PUSH2 0xE7D DUP3 PUSH2 0xDCD JUMP JUMPDEST SWAP1 POP PUSH1 0x20 DUP2 ADD SWAP1 POP SWAP2 SWAP1 POP JUMP JUMPDEST DUP3 DUP2 DUP4 CALLDATACOPY PUSH1 0x0 DUP4 DUP4 ADD MSTORE POP POP POP JUMP JUMPDEST PUSH1 0x0 PUSH2 0xEAC PUSH2 0xEA7 DUP5 PUSH2 0xE59 JUMP JUMPDEST PUSH2 0xE3E JUMP JUMPDEST SWAP1 POP DUP3 DUP2 MSTORE PUSH1 0x20 DUP2 ADD DUP5 DUP5 DUP5 ADD GT ISZERO PUSH2 0xEC8 JUMPI PUSH2 0xEC7 PUSH2 0xDC8 JUMP JUMPDEST JUMPDEST PUSH2 0xED3 DUP5 DUP3 DUP6 PUSH2 0xE8A JUMP JUMPDEST POP SWAP4 SWAP3 POP POP POP JUMP JUMPDEST PUSH1 0x0 DUP3 PUSH1 0x1F DUP4 ADD SLT PUSH2 0xEF0 JUMPI PUSH2 0xEEF PUSH2 0xDC3 JUMP JUMPDEST JUMPDEST DUP2 CALLDATALOAD PUSH2 0xF00 DUP5 DUP3 PUSH1 0x20 DUP7 ADD PUSH2 0xE99 JUMP JUMPDEST SWAP2 POP POP SWAP3 SWAP2 POP POP JUMP JUMPDEST PUSH1 0x0 DUP1 PUSH1 0x0 DUP1 PUSH1 0x80 DUP6 DUP8 SUB SLT ISZERO PUSH2 0xF23 JUMPI PUSH2 0xF22 PUSH2 0xBED JUMP JUMPDEST JUMPDEST PUSH1 0x0 PUSH2 0xF31 DUP8 DUP3 DUP9 ADD PUSH2 0xC40 JUMP JUMPDEST SWAP5 POP POP PUSH1 0x20 PUSH2 0xF42 DUP8 DUP3 DUP9 ADD PUSH2 0xC40 JUMP JUMPDEST SWAP4 POP POP PUSH1 0x40 PUSH2 0xF53 DUP8 DUP3 DUP9 ADD PUSH2 0xC40 JUMP JUMPDEST SWAP3 POP POP PUSH1 0x60 DUP6 ADD CALLDATALOAD PUSH8 0xFFFFFFFFFFFFFFFF DUP2 GT ISZERO PUSH2 0xF74 JUMPI PUSH2 0xF73 PUSH2 0xBF2 JUMP JUMPDEST JUMPDEST PUSH2 0xF80 DUP8 DUP3 DUP9 ADD PUSH2 0xEDB JUMP JUMPDEST SWAP2 POP POP SWAP3 SWAP6 SWAP2 SWAP5 POP SWAP3 POP JUMP JUMPDEST PUSH1 0x0 PUSH2 0xF97 DUP3 PUSH2 0xD22 JUMP JUMPDEST SWAP1 POP SWAP2 SWAP1 POP JUMP JUMPDEST PUSH2 0xFA7 DUP2 PUSH2 0xF8C JUMP JUMPDEST DUP3 MSTORE POP POP JUMP JUMPDEST PUSH1 0x0 PUSH1 0x20 DUP3 ADD SWAP1 POP PUSH2 0xFC2 PUSH1 0x0 DUP4 ADD DUP5 PUSH2 0xF9E JUMP JUMPDEST SWAP3 SWAP2 POP POP JUMP JUMPDEST PUSH2 0xFD1 DUP2 PUSH2 0xC17 JUMP JUMPDEST DUP3 MSTORE POP POP JUMP JUMPDEST PUSH1 0x0 PUSH1 0x20 DUP3 ADD SWAP1 POP PUSH2 0xFEC PUSH1 0x0 DUP4 ADD DUP5 PUSH2 0xFC8 JUMP JUMPDEST SWAP3 SWAP2 POP POP JUMP JUMPDEST PUSH1 0x0 PUSH1 0x20 DUP3 DUP5 SUB SLT ISZERO PUSH2 0x1008 JUMPI PUSH2 0x1007 PUSH2 0xBED JUMP JUMPDEST JUMPDEST PUSH1 0x0 DUP3 ADD CALLDATALOAD PUSH8 0xFFFFFFFFFFFFFFFF DUP2 GT ISZERO PUSH2 0x1026 JUMPI PUSH2 0x1025 PUSH2 0xBF2 JUMP JUMPDEST JUMPDEST PUSH2 0x1032 DUP5 DUP3 DUP6 ADD PUSH2 0xEDB JUMP JUMPDEST SWAP2 POP POP SWAP3 SWAP2 POP POP JUMP JUMPDEST PUSH1 0x0 DUP2 ISZERO ISZERO SWAP1 POP SWAP2 SWAP1 POP JUMP JUMPDEST PUSH2 0x1050 DUP2 PUSH2 0x103B JUMP JUMPDEST DUP3 MSTORE POP POP JUMP JUMPDEST PUSH1 0x0 PUSH1 0x20 DUP3 ADD SWAP1 POP PUSH2 0x106B PUSH1 0x0 DUP4 ADD DUP5 PUSH2 0x1047 JUMP JUMPDEST SWAP3 SWAP2 POP POP JUMP JUMPDEST PUSH2 0x107A DUP2 PUSH2 0x103B JUMP JUMPDEST DUP2 EQ PUSH2 0x1085 JUMPI PUSH1 0x0 DUP1 REVERT JUMPDEST POP JUMP JUMPDEST PUSH1 0x0 DUP2 CALLDATALOAD SWAP1 POP PUSH2 0x1097 DUP2 PUSH2 0x1071 JUMP JUMPDEST SWAP3 SWAP2 POP POP JUMP JUMPDEST PUSH1 0x0 DUP1 PUSH1 0x40 DUP4 DUP6 SUB SLT ISZERO PUSH2 0x10B4 JUMPI PUSH2 0x10B3 PUSH2 0xBED JUMP JUMPDEST JUMPDEST PUSH1 0x0 PUSH2 0x10C2 DUP6 DUP3 DUP7 ADD PUSH2 0xC40 JUMP JUMPDEST SWAP3 POP POP PUSH1 0x20 PUSH2 0x10D3 DUP6 DUP3 DUP7 ADD PUSH2 0x1088 JUMP JUMPDEST SWAP2 POP POP SWAP3 POP SWAP3 SWAP1 POP JUMP JUMPDEST PUSH1 0x0 PUSH1 0x40 DUP3 ADD SWAP1 POP PUSH2 0x10F2 PUSH1 0x0 DUP4 ADD DUP6 PUSH2 0xFC8 JUMP JUMPDEST PUSH2 0x10FF PUSH1 0x20 DUP4 ADD DUP5 PUSH2 0xFC8 JUMP JUMPDEST SWAP4 SWAP3 POP POP POP JUMP JUMPDEST PUSH1 0x0 DUP2 MLOAD SWAP1 POP PUSH2 0x1115 DUP2 PUSH2 0x1071 JUMP JUMPDEST SWAP3 SWAP2 POP POP JUMP JUMPDEST PUSH1 0x0 PUSH1 0x20 DUP3 DUP5 SUB SLT ISZERO PUSH2 0x1131 JUMPI PUSH2 0x1130 PUSH2 0xBED JUMP JUMPDEST JUMPDEST PUSH1 0x0 PUSH2 0x113F DUP5 DUP3 DUP6 ADD PUSH2 0x1106 JUMP JUMPDEST SWAP2 POP POP SWAP3 SWAP2 POP POP JUMP JUMPDEST PUSH1 0x0 DUP3 DUP3 MSTORE PUSH1 0x20 DUP3 ADD SWAP1 POP SWAP3 SWAP2 POP POP JUMP JUMPDEST PUSH32 0x526576657273655265676973747261723A2043616C6C6572206973206E6F7420 PUSH1 0x0 DUP3 ADD MSTORE PUSH32 0x6120636F6E74726F6C6C6572206F7220617574686F7269736564206279206164 PUSH1 0x20 DUP3 ADD MSTORE PUSH32 0x6472657373206F7220746865206164647265737320697473656C660000000000 PUSH1 0x40 DUP3 ADD MSTORE POP JUMP JUMPDEST PUSH1 0x0 PUSH2 0x11DB PUSH1 0x5B DUP4 PUSH2 0x1148 JUMP JUMPDEST SWAP2 POP PUSH2 0x11E6 DUP3 PUSH2 0x1159 JUMP JUMPDEST PUSH1 0x60 DUP3 ADD SWAP1 POP SWAP2 SWAP1 POP JUMP JUMPDEST PUSH1 0x0 PUSH1 0x20 DUP3 ADD SWAP1 POP DUP2 DUP2 SUB PUSH1 0x0 DUP4 ADD MSTORE PUSH2 0x120A DUP2 PUSH2 0x11CE JUMP JUMPDEST SWAP1 POP SWAP2 SWAP1 POP JUMP JUMPDEST PUSH1 0x0 DUP2 SWAP1 POP SWAP2 SWAP1 POP JUMP JUMPDEST PUSH2 0x122C PUSH2 0x1227 DUP3 PUSH2 0xC95 JUMP JUMPDEST PUSH2 0x1211 JUMP JUMPDEST DUP3 MSTORE POP POP JUMP JUMPDEST PUSH1 0x0 PUSH2 0x123E DUP3 DUP6 PUSH2 0x121B JUMP JUMPDEST PUSH1 0x20 DUP3 ADD SWAP2 POP PUSH2 0x124E DUP3 DUP5 PUSH2 0x121B JUMP JUMPDEST PUSH1 0x20 DUP3 ADD SWAP2 POP DUP2 SWAP1 POP SWAP4 SWAP3 POP POP POP JUMP JUMPDEST PUSH1 0x0 DUP2 SWAP1 POP SWAP2 SWAP1 POP JUMP JUMPDEST PUSH1 0x0 PUSH8 0xFFFFFFFFFFFFFFFF DUP3 AND SWAP1 POP SWAP2 SWAP1 POP JUMP JUMPDEST PUSH1 0x0 PUSH2 0x1297 PUSH2 0x1292 PUSH2 0x128D DUP5 PUSH2 0x125E JUMP JUMPDEST PUSH2 0xCF6 JUMP JUMPDEST PUSH2 0x1268 JUMP JUMPDEST SWAP1 POP SWAP2 SWAP1 POP JUMP JUMPDEST PUSH2 0x12A7 DUP2 PUSH2 0x127C JUMP JUMPDEST DUP3 MSTORE POP POP JUMP JUMPDEST PUSH1 0x0 PUSH1 0xA0 DUP3 ADD SWAP1 POP PUSH2 0x12C2 PUSH1 0x0 DUP4 ADD DUP9 PUSH2 0xC9F JUMP JUMPDEST PUSH2 0x12CF PUSH1 0x20 DUP4 ADD DUP8 PUSH2 0xC9F JUMP JUMPDEST PUSH2 0x12DC PUSH1 0x40 DUP4 ADD DUP7 PUSH2 0xFC8 JUMP JUMPDEST PUSH2 0x12E9 PUSH1 0x60 DUP4 ADD DUP6 PUSH2 0xFC8 JUMP JUMPDEST PUSH2 0x12F6 PUSH1 0x80 DUP4 ADD DUP5 PUSH2 0x129E JUMP JUMPDEST SWAP7 SWAP6 POP POP POP POP POP POP JUMP JUMPDEST PUSH1 0x0 DUP2 MLOAD SWAP1 POP SWAP2 SWAP1 POP JUMP JUMPDEST PUSH1 0x0 JUMPDEST DUP4 DUP2 LT ISZERO PUSH2 0x1329 JUMPI DUP1 DUP3 ADD MLOAD DUP2 DUP5 ADD MSTORE PUSH1 0x20 DUP2 ADD SWAP1 POP PUSH2 0x130E JUMP JUMPDEST PUSH1 0x0 DUP5 DUP5 ADD MSTORE POP POP POP POP JUMP JUMPDEST PUSH1 0x0 PUSH2 0x1340 DUP3 PUSH2 0x1300 JUMP JUMPDEST PUSH2 0x134A DUP2 DUP6 PUSH2 0x1148 JUMP JUMPDEST SWAP4 POP PUSH2 0x135A DUP2 DUP6 PUSH1 0x20 DUP7 ADD PUSH2 0x130B JUMP JUMPDEST PUSH2 0x1363 DUP2 PUSH2 0xDCD JUMP JUMPDEST DUP5 ADD SWAP2 POP POP SWAP3 SWAP2 POP POP JUMP JUMPDEST PUSH1 0x0 PUSH1 0x40 DUP3 ADD SWAP1 POP PUSH2 0x1383 PUSH1 0x0 DUP4 ADD DUP6 PUSH2 0xC9F JUMP JUMPDEST DUP2 DUP2 SUB PUSH1 0x20 DUP4 ADD MSTORE PUSH2 0x1395 DUP2 DUP5 PUSH2 0x1335 JUMP JUMPDEST SWAP1 POP SWAP4 SWAP3 POP POP POP JUMP JUMPDEST PUSH32 0x526576657273655265676973747261723A205265736F6C766572206164647265 PUSH1 0x0 DUP3 ADD MSTORE PUSH32 0x7373206D757374206E6F74206265203000000000000000000000000000000000 PUSH1 0x20 DUP3 ADD MSTORE POP JUMP JUMPDEST PUSH1 0x0 PUSH2 0x13FA PUSH1 0x30 DUP4 PUSH2 0x1148 JUMP JUMPDEST SWAP2 POP PUSH2 0x1405 DUP3 PUSH2 0x139E JUMP JUMPDEST PUSH1 0x40 DUP3 ADD SWAP1 POP SWAP2 SWAP1 POP JUMP JUMPDEST PUSH1 0x0 PUSH1 0x20 DUP3 ADD SWAP1 POP DUP2 DUP2 SUB PUSH1 0x0 DUP4 ADD MSTORE PUSH2 0x1429 DUP2 PUSH2 0x13ED JUMP JUMPDEST SWAP1 POP SWAP2 SWAP1 POP JUMP INVALID LOG2 PUSH5 0x6970667358 0x22 SLT KECCAK256 PUSH8 0x3077367C59578829 0xA8 0xB8 EXTCODECOPY NOT 0x2F SELFBALANCE 0x2A NOT 0xB8 0xFB PUSH29 0xBCCF9ECE78A0FE36188F845964736F6C63430008140033000000000000 "},"methodIdentifiers":{"claim(address)":"1e83409a","claimForAddr(address,address,address)":"65669631","claimWithResolver(address,address)":"0f5a5466","controllers(address)":"da8c229e","defaultResolver()":"828eab0e","ens()":"3f15457f","node(address)":"bffbe61c","owner()":"8da5cb5b","renounceOwnership()":"715018a6","setController(address,bool)":"e0dba60f","setDefaultResolver(address)":"c66485b2","setName(string)":"c47f0027","setNameForAddr(address,address,address,string)":"7a806d6b","transferOwnership(address)":"f2fde38b"}}}}}