{
  "_format": "hh-sol-artifact-1",
  "contractName": "StablePriceOracle",
  "sourceName": "contracts/zkfregistrar/StablePriceOracle.sol",
  "abi": [
    {
      "inputs": [],
      "stateMutability": "nonpayable",
      "type": "constructor"
    },
    {
      "inputs": [
        {
          "internalType": "address",
          "name": "owner",
          "type": "address"
        }
      ],
      "name": "OwnableInvalidOwner",
      "type": "error"
    },
    {
      "inputs": [
        {
          "internalType": "address",
          "name": "account",
          "type": "address"
        }
      ],
      "name": "OwnableUnauthorizedAccount",
      "type": "error"
    },
    {
      "anonymous": false,
      "inputs": [
        {
          "indexed": true,
          "internalType": "address",
          "name": "previousOwner",
          "type": "address"
        },
        {
          "indexed": true,
          "internalType": "address",
          "name": "newOwner",
          "type": "address"
        }
      ],
      "name": "OwnershipTransferred",
      "type": "event"
    },
    {
      "inputs": [],
      "name": "owner",
      "outputs": [
        {
          "internalType": "address",
          "name": "",
          "type": "address"
        }
      ],
      "stateMutability": "view",
      "type": "function"
    },
    {
      "inputs": [
        {
          "internalType": "string",
          "name": "name",
          "type": "string"
        },
        {
          "internalType": "uint256",
          "name": "duration",
          "type": "uint256"
        }
      ],
      "name": "price",
      "outputs": [
        {
          "components": [
            {
              "internalType": "uint256",
              "name": "base",
              "type": "uint256"
            },
            {
              "internalType": "uint256",
              "name": "premium",
              "type": "uint256"
            }
          ],
          "internalType": "struct IPriceOracle.Price",
          "name": "",
          "type": "tuple"
        }
      ],
      "stateMutability": "view",
      "type": "function"
    },
    {
      "inputs": [],
      "name": "price1Letter",
      "outputs": [
        {
          "internalType": "uint256",
          "name": "",
          "type": "uint256"
        }
      ],
      "stateMutability": "view",
      "type": "function"
    },
    {
      "inputs": [],
      "name": "price2Letter",
      "outputs": [
        {
          "internalType": "uint256",
          "name": "",
          "type": "uint256"
        }
      ],
      "stateMutability": "view",
      "type": "function"
    },
    {
      "inputs": [],
      "name": "price3Letter",
      "outputs": [
        {
          "internalType": "uint256",
          "name": "",
          "type": "uint256"
        }
      ],
      "stateMutability": "view",
      "type": "function"
    },
    {
      "inputs": [],
      "name": "price4Letter",
      "outputs": [
        {
          "internalType": "uint256",
          "name": "",
          "type": "uint256"
        }
      ],
      "stateMutability": "view",
      "type": "function"
    },
    {
      "inputs": [],
      "name": "price5Letter",
      "outputs": [
        {
          "internalType": "uint256",
          "name": "",
          "type": "uint256"
        }
      ],
      "stateMutability": "view",
      "type": "function"
    },
    {
      "inputs": [],
      "name": "renounceOwnership",
      "outputs": [],
      "stateMutability": "nonpayable",
      "type": "function"
    },
    {
      "inputs": [
        {
          "internalType": "uint256[]",
          "name": "prices",
          "type": "uint256[]"
        }
      ],
      "name": "setPrices",
      "outputs": [],
      "stateMutability": "nonpayable",
      "type": "function"
    },
    {
      "inputs": [
        {
          "internalType": "address",
          "name": "newOwner",
          "type": "address"
        }
      ],
      "name": "transferOwnership",
      "outputs": [],
      "stateMutability": "nonpayable",
      "type": "function"
    }
  ],
  "bytecode": "0x608060405234801561001057600080fd5b50338061003757604051631e4fbdf760e01b81526000600482015260240160405180910390fd5b61004081610046565b50610096565b600080546001600160a01b038381166001600160a01b0319831681178455604051919092169283917f8be0079c531659141344cd1fd0a4f28419497f9722a3daafe3b4186f6b6457e09190a35050565b610702806100a56000396000f3fe608060405234801561001057600080fd5b506004361061009e5760003560e01c80638da5cb5b116100665780638da5cb5b14610113578063a200e1531461012e578063cd5d2c7414610137578063d820ed4214610140578063f2fde38b1461014957600080fd5b806319b989a0146100a35780632c0fd74c146100d657806359b6b86c146100ed578063715018a6146100f657806379cf92d314610100575b600080fd5b6100b66100b13660046104db565b61015c565b604080518251815260209283015192810192909252015b60405180910390f35b6100df60015481565b6040519081526020016100cd565b6100df60055481565b6100fe610254565b005b6100fe61010e366004610569565b610268565b6000546040516001600160a01b0390911681526020016100cd565b6100df60035481565b6100df60025481565b6100df60045481565b6100fe610157366004610627565b610318565b604080518082019091526000808252602082015260006101b185858080601f01602080910402602001604051908101604052809392919081815260200183838082843760009201919091525061035b92505050565b90506000600582106101d257836005546101cb919061066d565b9050610225565b816004036101e857836004546101cb919061066d565b816003036101fe57836003546101cb919061066d565b8160020361021457836002546101cb919061066d565b83600154610222919061066d565b90505b6040518060400160405280826305f5e100610240919061066d565b815260006020909101529695505050505050565b61025c61045e565b610266600061048b565b565b61027061045e565b806000815181106102835761028361068a565b6020026020010151600181905550806001815181106102a4576102a461068a565b6020026020010151600281905550806002815181106102c5576102c561068a565b6020026020010151600381905550806003815181106102e6576102e661068a565b6020026020010151600481905550806004815181106103075761030761068a565b602002602001015160058190555050565b61032061045e565b6001600160a01b03811661034f57604051631e4fbdf760e01b8152600060048201526024015b60405180910390fd5b6103588161048b565b50565b8051600090819081905b808210156104555760008583815181106103815761038161068a565b01602001516001600160f81b0319169050600160ff1b8110156103b0576103a96001846106a0565b9250610442565b600760fd1b6001600160f81b0319821610156103d1576103a96002846106a0565b600f60fc1b6001600160f81b0319821610156103f2576103a96003846106a0565b601f60fb1b6001600160f81b031982161015610413576103a96004846106a0565b603f60fa1b6001600160f81b031982161015610434576103a96005846106a0565b61043f6006846106a0565b92505b508261044d816106b3565b935050610365565b50909392505050565b6000546001600160a01b031633146102665760405163118cdaa760e01b8152336004820152602401610346565b600080546001600160a01b038381166001600160a01b0319831681178455604051919092169283917f8be0079c531659141344cd1fd0a4f28419497f9722a3daafe3b4186f6b6457e09190a35050565b6000806000604084860312156104f057600080fd5b833567ffffffffffffffff8082111561050857600080fd5b818601915086601f83011261051c57600080fd5b81358181111561052b57600080fd5b87602082850101111561053d57600080fd5b6020928301989097509590910135949350505050565b634e487b7160e01b600052604160045260246000fd5b6000602080838503121561057c57600080fd5b823567ffffffffffffffff8082111561059457600080fd5b818501915085601f8301126105a857600080fd5b8135818111156105ba576105ba610553565b8060051b604051601f19603f830116810181811085821117156105df576105df610553565b6040529182528482019250838101850191888311156105fd57600080fd5b938501935b8285101561061b57843584529385019392850192610602565b98975050505050505050565b60006020828403121561063957600080fd5b81356001600160a01b038116811461065057600080fd5b9392505050565b634e487b7160e01b600052601160045260246000fd5b808202811582820484141761068457610684610657565b92915050565b634e487b7160e01b600052603260045260246000fd5b8082018082111561068457610684610657565b6000600182016106c5576106c5610657565b506001019056fea26469706673582212207b5778d8233fd4178d6a0d21bf89c25c54a151879eabbd5766ca28c19ca8557064736f6c63430008140033",
  "linkReferences": {},
  "deployedLinkReferences": {}
}