{
  "_format": "hh-sol-artifact-1",
  "contractName": "PublicResolver",
  "sourceName": "contracts/resolvers/PublicResolver.sol",
  "abi": [
    {
      "inputs": [
        {
          "internalType": "contract ENS",
          "name": "_ens",
          "type": "address"
        },
        {
          "internalType": "address",
          "name": "_trustedETHController",
          "type": "address"
        },
        {
          "internalType": "address",
          "name": "_trustedReverseRegistrar",
          "type": "address"
        }
      ],
      "stateMutability": "nonpayable",
      "type": "constructor"
    },
    {
      "anonymous": false,
      "inputs": [
        {
          "indexed": true,
          "internalType": "bytes32",
          "name": "node",
          "type": "bytes32"
        },
        {
          "indexed": true,
          "internalType": "uint256",
          "name": "contentType",
          "type": "uint256"
        }
      ],
      "name": "ABIChanged",
      "type": "event"
    },
    {
      "anonymous": false,
      "inputs": [
        {
          "indexed": true,
          "internalType": "bytes32",
          "name": "node",
          "type": "bytes32"
        },
        {
          "indexed": false,
          "internalType": "address",
          "name": "a",
          "type": "address"
        }
      ],
      "name": "AddrChanged",
      "type": "event"
    },
    {
      "anonymous": false,
      "inputs": [
        {
          "indexed": true,
          "internalType": "bytes32",
          "name": "node",
          "type": "bytes32"
        },
        {
          "indexed": false,
          "internalType": "uint256",
          "name": "coinType",
          "type": "uint256"
        },
        {
          "indexed": false,
          "internalType": "bytes",
          "name": "newAddress",
          "type": "bytes"
        }
      ],
      "name": "AddressChanged",
      "type": "event"
    },
    {
      "anonymous": false,
      "inputs": [
        {
          "indexed": true,
          "internalType": "address",
          "name": "owner",
          "type": "address"
        },
        {
          "indexed": true,
          "internalType": "address",
          "name": "operator",
          "type": "address"
        },
        {
          "indexed": false,
          "internalType": "bool",
          "name": "approved",
          "type": "bool"
        }
      ],
      "name": "ApprovalForAll",
      "type": "event"
    },
    {
      "anonymous": false,
      "inputs": [
        {
          "indexed": false,
          "internalType": "address",
          "name": "owner",
          "type": "address"
        },
        {
          "indexed": true,
          "internalType": "bytes32",
          "name": "node",
          "type": "bytes32"
        },
        {
          "indexed": true,
          "internalType": "address",
          "name": "delegate",
          "type": "address"
        },
        {
          "indexed": true,
          "internalType": "bool",
          "name": "approved",
          "type": "bool"
        }
      ],
      "name": "Approved",
      "type": "event"
    },
    {
      "anonymous": false,
      "inputs": [
        {
          "indexed": true,
          "internalType": "bytes32",
          "name": "node",
          "type": "bytes32"
        },
        {
          "indexed": false,
          "internalType": "bytes",
          "name": "hash",
          "type": "bytes"
        }
      ],
      "name": "ContenthashChanged",
      "type": "event"
    },
    {
      "anonymous": false,
      "inputs": [
        {
          "indexed": true,
          "internalType": "bytes32",
          "name": "node",
          "type": "bytes32"
        },
        {
          "indexed": false,
          "internalType": "bytes",
          "name": "name",
          "type": "bytes"
        },
        {
          "indexed": false,
          "internalType": "uint16",
          "name": "resource",
          "type": "uint16"
        },
        {
          "indexed": false,
          "internalType": "bytes",
          "name": "record",
          "type": "bytes"
        }
      ],
      "name": "DNSRecordChanged",
      "type": "event"
    },
    {
      "anonymous": false,
      "inputs": [
        {
          "indexed": true,
          "internalType": "bytes32",
          "name": "node",
          "type": "bytes32"
        },
        {
          "indexed": false,
          "internalType": "bytes",
          "name": "name",
          "type": "bytes"
        },
        {
          "indexed": false,
          "internalType": "uint16",
          "name": "resource",
          "type": "uint16"
        }
      ],
      "name": "DNSRecordDeleted",
      "type": "event"
    },
    {
      "anonymous": false,
      "inputs": [
        {
          "indexed": true,
          "internalType": "bytes32",
          "name": "node",
          "type": "bytes32"
        },
        {
          "indexed": false,
          "internalType": "bytes",
          "name": "lastzonehash",
          "type": "bytes"
        },
        {
          "indexed": false,
          "internalType": "bytes",
          "name": "zonehash",
          "type": "bytes"
        }
      ],
      "name": "DNSZonehashChanged",
      "type": "event"
    },
    {
      "anonymous": false,
      "inputs": [
        {
          "indexed": true,
          "internalType": "bytes32",
          "name": "node",
          "type": "bytes32"
        },
        {
          "indexed": true,
          "internalType": "bytes4",
          "name": "interfaceID",
          "type": "bytes4"
        },
        {
          "indexed": false,
          "internalType": "address",
          "name": "implementer",
          "type": "address"
        }
      ],
      "name": "InterfaceChanged",
      "type": "event"
    },
    {
      "anonymous": false,
      "inputs": [
        {
          "indexed": true,
          "internalType": "bytes32",
          "name": "node",
          "type": "bytes32"
        },
        {
          "indexed": false,
          "internalType": "string",
          "name": "name",
          "type": "string"
        }
      ],
      "name": "NameChanged",
      "type": "event"
    },
    {
      "anonymous": false,
      "inputs": [
        {
          "indexed": true,
          "internalType": "bytes32",
          "name": "node",
          "type": "bytes32"
        },
        {
          "indexed": false,
          "internalType": "bytes32",
          "name": "x",
          "type": "bytes32"
        },
        {
          "indexed": false,
          "internalType": "bytes32",
          "name": "y",
          "type": "bytes32"
        }
      ],
      "name": "PubkeyChanged",
      "type": "event"
    },
    {
      "anonymous": false,
      "inputs": [
        {
          "indexed": true,
          "internalType": "bytes32",
          "name": "node",
          "type": "bytes32"
        },
        {
          "indexed": true,
          "internalType": "string",
          "name": "indexedKey",
          "type": "string"
        },
        {
          "indexed": false,
          "internalType": "string",
          "name": "key",
          "type": "string"
        },
        {
          "indexed": false,
          "internalType": "string",
          "name": "value",
          "type": "string"
        }
      ],
      "name": "TextChanged",
      "type": "event"
    },
    {
      "anonymous": false,
      "inputs": [
        {
          "indexed": true,
          "internalType": "bytes32",
          "name": "node",
          "type": "bytes32"
        },
        {
          "indexed": false,
          "internalType": "uint64",
          "name": "newVersion",
          "type": "uint64"
        }
      ],
      "name": "VersionChanged",
      "type": "event"
    },
    {
      "inputs": [
        {
          "internalType": "bytes32",
          "name": "node",
          "type": "bytes32"
        },
        {
          "internalType": "uint256",
          "name": "contentTypes",
          "type": "uint256"
        }
      ],
      "name": "ABI",
      "outputs": [
        {
          "internalType": "uint256",
          "name": "",
          "type": "uint256"
        },
        {
          "internalType": "bytes",
          "name": "",
          "type": "bytes"
        }
      ],
      "stateMutability": "view",
      "type": "function"
    },
    {
      "inputs": [
        {
          "internalType": "bytes32",
          "name": "node",
          "type": "bytes32"
        }
      ],
      "name": "addr",
      "outputs": [
        {
          "internalType": "address payable",
          "name": "",
          "type": "address"
        }
      ],
      "stateMutability": "view",
      "type": "function"
    },
    {
      "inputs": [
        {
          "internalType": "bytes32",
          "name": "node",
          "type": "bytes32"
        },
        {
          "internalType": "uint256",
          "name": "coinType",
          "type": "uint256"
        }
      ],
      "name": "addr",
      "outputs": [
        {
          "internalType": "bytes",
          "name": "",
          "type": "bytes"
        }
      ],
      "stateMutability": "view",
      "type": "function"
    },
    {
      "inputs": [
        {
          "internalType": "bytes32",
          "name": "node",
          "type": "bytes32"
        },
        {
          "internalType": "address",
          "name": "delegate",
          "type": "address"
        },
        {
          "internalType": "bool",
          "name": "approved",
          "type": "bool"
        }
      ],
      "name": "approve",
      "outputs": [],
      "stateMutability": "nonpayable",
      "type": "function"
    },
    {
      "inputs": [
        {
          "internalType": "bytes32",
          "name": "node",
          "type": "bytes32"
        }
      ],
      "name": "clearRecords",
      "outputs": [],
      "stateMutability": "nonpayable",
      "type": "function"
    },
    {
      "inputs": [
        {
          "internalType": "bytes32",
          "name": "node",
          "type": "bytes32"
        }
      ],
      "name": "contenthash",
      "outputs": [
        {
          "internalType": "bytes",
          "name": "",
          "type": "bytes"
        }
      ],
      "stateMutability": "view",
      "type": "function"
    },
    {
      "inputs": [
        {
          "internalType": "bytes32",
          "name": "node",
          "type": "bytes32"
        },
        {
          "internalType": "bytes32",
          "name": "name",
          "type": "bytes32"
        },
        {
          "internalType": "uint16",
          "name": "resource",
          "type": "uint16"
        }
      ],
      "name": "dnsRecord",
      "outputs": [
        {
          "internalType": "bytes",
          "name": "",
          "type": "bytes"
        }
      ],
      "stateMutability": "view",
      "type": "function"
    },
    {
      "inputs": [
        {
          "internalType": "bytes32",
          "name": "node",
          "type": "bytes32"
        },
        {
          "internalType": "bytes32",
          "name": "name",
          "type": "bytes32"
        }
      ],
      "name": "hasDNSRecords",
      "outputs": [
        {
          "internalType": "bool",
          "name": "",
          "type": "bool"
        }
      ],
      "stateMutability": "view",
      "type": "function"
    },
    {
      "inputs": [
        {
          "internalType": "bytes32",
          "name": "node",
          "type": "bytes32"
        },
        {
          "internalType": "bytes4",
          "name": "interfaceID",
          "type": "bytes4"
        }
      ],
      "name": "interfaceImplementer",
      "outputs": [
        {
          "internalType": "address",
          "name": "",
          "type": "address"
        }
      ],
      "stateMutability": "view",
      "type": "function"
    },
    {
      "inputs": [
        {
          "internalType": "address",
          "name": "owner",
          "type": "address"
        },
        {
          "internalType": "bytes32",
          "name": "node",
          "type": "bytes32"
        },
        {
          "internalType": "address",
          "name": "delegate",
          "type": "address"
        }
      ],
      "name": "isApprovedFor",
      "outputs": [
        {
          "internalType": "bool",
          "name": "",
          "type": "bool"
        }
      ],
      "stateMutability": "view",
      "type": "function"
    },
    {
      "inputs": [
        {
          "internalType": "address",
          "name": "account",
          "type": "address"
        },
        {
          "internalType": "address",
          "name": "operator",
          "type": "address"
        }
      ],
      "name": "isApprovedForAll",
      "outputs": [
        {
          "internalType": "bool",
          "name": "",
          "type": "bool"
        }
      ],
      "stateMutability": "view",
      "type": "function"
    },
    {
      "inputs": [
        {
          "internalType": "bytes[]",
          "name": "data",
          "type": "bytes[]"
        }
      ],
      "name": "multicall",
      "outputs": [
        {
          "internalType": "bytes[]",
          "name": "results",
          "type": "bytes[]"
        }
      ],
      "stateMutability": "nonpayable",
      "type": "function"
    },
    {
      "inputs": [
        {
          "internalType": "bytes32",
          "name": "nodehash",
          "type": "bytes32"
        },
        {
          "internalType": "bytes[]",
          "name": "data",
          "type": "bytes[]"
        }
      ],
      "name": "multicallWithNodeCheck",
      "outputs": [
        {
          "internalType": "bytes[]",
          "name": "results",
          "type": "bytes[]"
        }
      ],
      "stateMutability": "nonpayable",
      "type": "function"
    },
    {
      "inputs": [
        {
          "internalType": "bytes32",
          "name": "node",
          "type": "bytes32"
        }
      ],
      "name": "name",
      "outputs": [
        {
          "internalType": "string",
          "name": "",
          "type": "string"
        }
      ],
      "stateMutability": "view",
      "type": "function"
    },
    {
      "inputs": [
        {
          "internalType": "bytes32",
          "name": "node",
          "type": "bytes32"
        }
      ],
      "name": "pubkey",
      "outputs": [
        {
          "internalType": "bytes32",
          "name": "x",
          "type": "bytes32"
        },
        {
          "internalType": "bytes32",
          "name": "y",
          "type": "bytes32"
        }
      ],
      "stateMutability": "view",
      "type": "function"
    },
    {
      "inputs": [
        {
          "internalType": "bytes32",
          "name": "",
          "type": "bytes32"
        }
      ],
      "name": "recordVersions",
      "outputs": [
        {
          "internalType": "uint64",
          "name": "",
          "type": "uint64"
        }
      ],
      "stateMutability": "view",
      "type": "function"
    },
    {
      "inputs": [
        {
          "internalType": "bytes32",
          "name": "node",
          "type": "bytes32"
        },
        {
          "internalType": "uint256",
          "name": "contentType",
          "type": "uint256"
        },
        {
          "internalType": "bytes",
          "name": "data",
          "type": "bytes"
        }
      ],
      "name": "setABI",
      "outputs": [],
      "stateMutability": "nonpayable",
      "type": "function"
    },
    {
      "inputs": [
        {
          "internalType": "bytes32",
          "name": "node",
          "type": "bytes32"
        },
        {
          "internalType": "uint256",
          "name": "coinType",
          "type": "uint256"
        },
        {
          "internalType": "bytes",
          "name": "a",
          "type": "bytes"
        }
      ],
      "name": "setAddr",
      "outputs": [],
      "stateMutability": "nonpayable",
      "type": "function"
    },
    {
      "inputs": [
        {
          "internalType": "bytes32",
          "name": "node",
          "type": "bytes32"
        },
        {
          "internalType": "address",
          "name": "a",
          "type": "address"
        }
      ],
      "name": "setAddr",
      "outputs": [],
      "stateMutability": "nonpayable",
      "type": "function"
    },
    {
      "inputs": [
        {
          "internalType": "address",
          "name": "operator",
          "type": "address"
        },
        {
          "internalType": "bool",
          "name": "approved",
          "type": "bool"
        }
      ],
      "name": "setApprovalForAll",
      "outputs": [],
      "stateMutability": "nonpayable",
      "type": "function"
    },
    {
      "inputs": [
        {
          "internalType": "bytes32",
          "name": "node",
          "type": "bytes32"
        },
        {
          "internalType": "bytes",
          "name": "hash",
          "type": "bytes"
        }
      ],
      "name": "setContenthash",
      "outputs": [],
      "stateMutability": "nonpayable",
      "type": "function"
    },
    {
      "inputs": [
        {
          "internalType": "bytes32",
          "name": "node",
          "type": "bytes32"
        },
        {
          "internalType": "bytes",
          "name": "data",
          "type": "bytes"
        }
      ],
      "name": "setDNSRecords",
      "outputs": [],
      "stateMutability": "nonpayable",
      "type": "function"
    },
    {
      "inputs": [
        {
          "internalType": "bytes32",
          "name": "node",
          "type": "bytes32"
        },
        {
          "internalType": "bytes4",
          "name": "interfaceID",
          "type": "bytes4"
        },
        {
          "internalType": "address",
          "name": "implementer",
          "type": "address"
        }
      ],
      "name": "setInterface",
      "outputs": [],
      "stateMutability": "nonpayable",
      "type": "function"
    },
    {
      "inputs": [
        {
          "internalType": "bytes32",
          "name": "node",
          "type": "bytes32"
        },
        {
          "internalType": "string",
          "name": "newName",
          "type": "string"
        }
      ],
      "name": "setName",
      "outputs": [],
      "stateMutability": "nonpayable",
      "type": "function"
    },
    {
      "inputs": [
        {
          "internalType": "bytes32",
          "name": "node",
          "type": "bytes32"
        },
        {
          "internalType": "bytes32",
          "name": "x",
          "type": "bytes32"
        },
        {
          "internalType": "bytes32",
          "name": "y",
          "type": "bytes32"
        }
      ],
      "name": "setPubkey",
      "outputs": [],
      "stateMutability": "nonpayable",
      "type": "function"
    },
    {
      "inputs": [
        {
          "internalType": "bytes32",
          "name": "node",
          "type": "bytes32"
        },
        {
          "internalType": "string",
          "name": "key",
          "type": "string"
        },
        {
          "internalType": "string",
          "name": "value",
          "type": "string"
        }
      ],
      "name": "setText",
      "outputs": [],
      "stateMutability": "nonpayable",
      "type": "function"
    },
    {
      "inputs": [
        {
          "internalType": "bytes32",
          "name": "node",
          "type": "bytes32"
        },
        {
          "internalType": "bytes",
          "name": "hash",
          "type": "bytes"
        }
      ],
      "name": "setZonehash",
      "outputs": [],
      "stateMutability": "nonpayable",
      "type": "function"
    },
    {
      "inputs": [
        {
          "internalType": "bytes4",
          "name": "interfaceID",
          "type": "bytes4"
        }
      ],
      "name": "supportsInterface",
      "outputs": [
        {
          "internalType": "bool",
          "name": "",
          "type": "bool"
        }
      ],
      "stateMutability": "view",
      "type": "function"
    },
    {
      "inputs": [
        {
          "internalType": "bytes32",
          "name": "node",
          "type": "bytes32"
        },
        {
          "internalType": "string",
          "name": "key",
          "type": "string"
        }
      ],
      "name": "text",
      "outputs": [
        {
          "internalType": "string",
          "name": "",
          "type": "string"
        }
      ],
      "stateMutability": "view",
      "type": "function"
    },
    {
      "inputs": [
        {
          "internalType": "bytes32",
          "name": "node",
          "type": "bytes32"
        }
      ],
      "name": "zonehash",
      "outputs": [
        {
          "internalType": "bytes",
          "name": "",
          "type": "bytes"
        }
      ],
      "stateMutability": "view",
      "type": "function"
    }
  ],
  "bytecode": "0x60e06040523480156200001157600080fd5b5060405162002f4938038062002f4983398101604081905262000034916200006b565b6001600160a01b0392831660805290821660a0521660c052620000bf565b6001600160a01b03811681146200006857600080fd5b50565b6000806000606084860312156200008157600080fd5b83516200008e8162000052565b6020850151909350620000a18162000052565b6040850151909250620000b48162000052565b809150509250925092565b60805160a05160c051612e5a620000ef60003960006117f5015260006117c30152600061183d0152612e5a6000f3fe608060405234801561001057600080fd5b50600436106101da5760003560e01c80638b95dd7111610104578063c8690233116100a2578063e32954eb11610071578063e32954eb14610500578063e59d895d14610513578063e985e9c514610526578063f1cb7e061461056257600080fd5b8063c869023314610441578063ce3decdc14610499578063d5fa2b00146104ac578063d700ff33146104bf57600080fd5b8063a8fa5682116100de578063a8fa5682146103b7578063a9784b3e146103ca578063ac9650d81461040e578063bc1c58d11461042e57600080fd5b80638b95dd711461037e578063a22cb46514610391578063a4b91a01146103a457600080fd5b80633603d7581161017c5780635c98042b1161014b5780635c98042b14610332578063623195b014610345578063691f343114610358578063773722131461036b57600080fd5b80633603d758146102a15780633b3b57de146102b45780634cbf6ba4146102c757806359d1d43c1461031257600080fd5b8063124a319c116101b8578063124a319c1461022f5780632203ab561461025a57806329cd62ea1461027b578063304e6ade1461028e57600080fd5b806301ffc9a7146101df5780630af179d71461020757806310f13a8c1461021c575b600080fd5b6101f26101ed36600461231a565b610575565b60405190151581526020015b60405180910390f35b61021a610215366004612376565b610586565b005b61021a61022a3660046123c1565b6107ab565b61024261023d36600461243a565b61088a565b6040516001600160a01b0390911681526020016101fe565b61026d610268366004612466565b610adb565b6040516101fe9291906124d8565b61021a6102893660046124f1565b610c11565b61021a61029c366004612376565b610cbe565b61021a6102af36600461251d565b610d4c565b6102426102c236600461251d565b610e00565b6101f26102d5366004612466565b600082815260208181526040808320546001600160401b031683526006825280832094835293815283822092825291909152205461ffff16151590565b610325610320366004612376565b610e32565b6040516101fe9190612536565b61032561034036600461251d565b610f11565b61021a610353366004612549565b610fcf565b61032561036636600461251d565b61107e565b61021a610379366004612376565b6110b7565b61021a61038c3660046125b1565b611145565b61021a61039f366004612699565b611237565b61021a6103b23660046126c5565b61130d565b6103256103c5366004612703565b6113da565b6101f26103d8366004612743565b6001600160a01b039283166000908152600c60209081526040808320948352938152838220929094168152925290205460ff1690565b61042161041c3660046127be565b611427565b6040516101fe91906127ff565b61032561043c36600461251d565b611435565b61048461044f36600461251d565b600081815260208181526040808320546001600160401b03168352600982528083209383529290522080546001909101549091565b604080519283526020830191909152016101fe565b61021a6104a7366004612376565b61146e565b61021a6104ba366004612861565b6115c2565b6104e86104cd36600461251d565b6000602081905290815260409020546001600160401b031681565b6040516001600160401b0390911681526020016101fe565b61042161050e366004612891565b6115fc565b61021a6105213660046128cf565b611611565b6101f2610534366004612904565b6001600160a01b039182166000908152600b6020908152604080832093909416825291909152205460ff1690565b610325610570366004612466565b6116ca565b600061058082611791565b92915050565b82610590816117b6565b6105b55760405162461bcd60e51b81526004016105ac90612932565b60405180910390fd5b600084815260208181526040808320548151601f87018490048402810184019092528582528392606092839285926001600160401b0390911691839161061a9183918d908d908190840183828082843760009201919091525092939250506119269050565b90505b80515160208201511015610744578661ffff16600003610682578060400151965061064781611987565b94508460405160200161065a9190612977565b60405160208183030381529060405280519060200120925061067b816119a8565b9350610736565b600061068d82611987565b9050816040015161ffff168861ffff161415806106b157506106af86826119c4565b155b156107345761070d8c878a8e8e8080601f016020809104026020016040519081016040528093929190818152602001838380828437600092019190915250505060208801518d91506107049082906129a9565b8b51158a6119e2565b816040015197508160200151965080955085805190602001209350610731826119a8565b94505b505b61073f81611c49565b61061d565b5083511561079f5761079f8a85888c8c8080601f0160208091040260200160405190810160405280939291908181526020018383808284376000920191909152508c925061079691508290508f6129a9565b895115886119e2565b50505050505050505050565b846107b5816117b6565b6107d15760405162461bcd60e51b81526004016105ac90612932565b600086815260208181526040808320546001600160401b03168352600a82528083208984529091529081902090518491849161081090899089906129bc565b9081526020016040518091039020918261082b929190612a54565b50848460405161083c9291906129bc565b6040518091039020867f448bc014f1536726cf8d54ff3d6481ed3cbc683c2591ca204274009afa09b1a18787878760405161087a9493929190612b3c565b60405180910390a3505050505050565b600082815260208181526040808320546001600160401b031683526007825280832085845282528083206001600160e01b0319851684529091528120546001600160a01b031680156108dd579050610580565b60006108e885610e00565b90506001600160a01b03811661090357600092505050610580565b6040516301ffc9a760e01b602482015260009081906001600160a01b0384169060440160408051601f198184030181529181526020820180516001600160e01b03166301ffc9a760e01b1790525161095b9190612977565b600060405180830381855afa9150503d8060008114610996576040519150601f19603f3d011682016040523d82523d6000602084013e61099b565b606091505b50915091508115806109ae575060208151105b806109d8575080601f815181106109c7576109c7612b6e565b01602001516001600160f81b031916155b156109ea576000945050505050610580565b6040516001600160e01b0319871660248201526001600160a01b0384169060440160408051601f198184030181529181526020820180516001600160e01b03166301ffc9a760e01b17905251610a409190612977565b600060405180830381855afa9150503d8060008114610a7b576040519150601f19603f3d011682016040523d82523d6000602084013e610a80565b606091505b509092509050811580610a94575060208151105b80610abe575080601f81518110610aad57610aad612b6e565b01602001516001600160f81b031916155b15610ad0576000945050505050610580565b509095945050505050565b600082815260208181526040808320546001600160401b03168352600180835281842086855290925282206060915b848111610bf15780851615801590610b3a575060008181526020839052604081208054610b36906129cc565b9050115b15610be95780826000838152602001908152602001600020808054610b5e906129cc565b80601f0160208091040260200160405190810160405280929190818152602001828054610b8a906129cc565b8015610bd75780601f10610bac57610100808354040283529160200191610bd7565b820191906000526020600020905b815481529060010190602001808311610bba57829003601f168201915b50505050509050935093505050610c0a565b60011b610b0a565b5060006040518060200160405280600081525092509250505b9250929050565b82610c1b816117b6565b610c375760405162461bcd60e51b81526004016105ac90612932565b60408051808201825284815260208082018581526000888152808352848120546001600160401b031681526009835284812089825283528490209251835551600190920191909155815185815290810184905285917f1d6f5e03d3f63eb58751986629a5439baee5079ff04f345becb66e23eb154e4691015b60405180910390a250505050565b82610cc8816117b6565b610ce45760405162461bcd60e51b81526004016105ac90612932565b600084815260208181526040808320546001600160401b03168352600382528083208784529091529020610d19838583612a54565b50837fe379c1624ed7e714cc0937528a32359d69d5281337765313dba4e081b72d75788484604051610cb0929190612b84565b80610d56816117b6565b610d725760405162461bcd60e51b81526004016105ac90612932565b600082815260208190526040812080546001600160401b031691610d9583612b98565b82546101009290920a6001600160401b03818102199093169183160217909155600084815260208181526040918290205491519190921681528492507fc6621ccb8f3f5a04bb6502154b2caf6adf5983fe76dfef1cfc9c42e3579db444910160405180910390a25050565b600080610e0e83603c6116ca565b90508051600003610e225750600092915050565b610e2b81611d31565b9392505050565b600083815260208181526040808320546001600160401b03168352600a825280832086845290915290819020905160609190610e7190859085906129bc565b90815260200160405180910390208054610e8a906129cc565b80601f0160208091040260200160405190810160405280929190818152602001828054610eb6906129cc565b8015610f035780601f10610ed857610100808354040283529160200191610f03565b820191906000526020600020905b815481529060010190602001808311610ee657829003601f168201915b505050505090509392505050565b600081815260208181526040808320546001600160401b03168352600482528083208484529091529020805460609190610f4a906129cc565b80601f0160208091040260200160405190810160405280929190818152602001828054610f76906129cc565b8015610fc35780601f10610f9857610100808354040283529160200191610fc3565b820191906000526020600020905b815481529060010190602001808311610fa657829003601f168201915b50505050509050919050565b83610fd9816117b6565b610ff55760405162461bcd60e51b81526004016105ac90612932565b836110016001826129a9565b161561100c57600080fd5b600085815260208181526040808320546001600160401b031683526001825280832088845282528083208784529091529020611049838583612a54565b50604051849086907faa121bbeef5f32f5961a2a28966e769023910fc9479059ee3495d4c1a696efe390600090a35050505050565b600081815260208181526040808320546001600160401b03168352600882528083208484529091529020805460609190610f4a906129cc565b826110c1816117b6565b6110dd5760405162461bcd60e51b81526004016105ac90612932565b600084815260208181526040808320546001600160401b03168352600882528083208784529091529020611112838583612a54565b50837fb7d29e911041e8d9b843369e890bcb72c9388692ba48b65ac54e7214c4c348f78484604051610cb0929190612b84565b8261114f816117b6565b61116b5760405162461bcd60e51b81526004016105ac90612932565b837f65412581168e88a1e60c6459d7f44ae83ad0832e670826c05a4e2476b57af752848460405161119d9291906124d8565b60405180910390a2603c83036111f457837f52d7d861f09ab3d26239d492e8968629f95e9e318cf0b73bfddc441522a15fd26111d884611d31565b6040516001600160a01b03909116815260200160405180910390a25b600084815260208181526040808320546001600160401b0316835260028252808320878452825280832086845290915290206112308382612bbe565b5050505050565b6001600160a01b03821633036112a15760405162461bcd60e51b815260206004820152602960248201527f455243313135353a2073657474696e6720617070726f76616c20737461747573604482015268103337b91039b2b63360b91b60648201526084016105ac565b336000818152600b602090815260408083206001600160a01b03871680855290835292819020805460ff191686151590811790915590519081529192917f17307eab39ab6107e8899845ad3d59bd9653f200f220920489ca2b5937696c31910160405180910390a35050565b6001600160a01b03821633036113655760405162461bcd60e51b815260206004820181905260248201527f53657474696e672064656c65676174652073746174757320666f722073656c6660448201526064016105ac565b336000818152600c6020908152604080832087845282528083206001600160a01b03871680855290835292819020805460ff191686151590811790915590519384529286917ff0ddb3b04746704017f9aa8bd728fcc2c1d11675041205350018915f5e4750a0910160405180910390a4505050565b600083815260208181526040808320546001600160401b03168352600582528083208684528252808320858452825280832061ffff851684529091529020805460609190610e8a906129cc565b6060610e2b60008484611d50565b600081815260208181526040808320546001600160401b03168352600382528083208484529091529020805460609190610f4a906129cc565b82611478816117b6565b6114945760405162461bcd60e51b81526004016105ac90612932565b600084815260208181526040808320546001600160401b031680845260048352818420888552909252822080549192916114cd906129cc565b80601f01602080910402602001604051908101604052809291908181526020018280546114f9906129cc565b80156115465780601f1061151b57610100808354040283529160200191611546565b820191906000526020600020905b81548152906001019060200180831161152957829003601f168201915b505050506001600160401b03841660009081526004602090815260408083208b8452909152902091925061157d9050858783612a54565b50857f8f15ed4b723ef428f250961da8315675b507046737e19319fc1a4d81bfe87f858287876040516115b293929190612c7d565b60405180910390a2505050505050565b816115cc816117b6565b6115e85760405162461bcd60e51b81526004016105ac90612932565b6115f783603c61038c85611f1f565b505050565b6060611609848484611d50565b949350505050565b8261161b816117b6565b6116375760405162461bcd60e51b81526004016105ac90612932565b600084815260208181526040808320546001600160401b031683526007825280832087845282528083206001600160e01b031987168085529083529281902080546001600160a01b0319166001600160a01b038716908117909155905190815286917f7c69f06bea0bdef565b709e93a147836b0063ba2dd89f02d0b7e8d931e6a6daa910160405180910390a350505050565b600082815260208181526040808320546001600160401b03168352600282528083208584528252808320848452909152902080546060919061170b906129cc565b80601f0160208091040260200160405190810160405280929190818152602001828054611737906129cc565b80156117845780601f1061175957610100808354040283529160200191611784565b820191906000526020600020905b81548152906001019060200180831161176757829003601f168201915b5050505050905092915050565b60006001600160e01b03198216631674750f60e21b1480610580575061058082611f4f565b6000336001600160a01b037f00000000000000000000000000000000000000000000000000000000000000001614806118175750336001600160a01b037f000000000000000000000000000000000000000000000000000000000000000016145b1561182457506001919050565b6040516302571be360e01b8152600481018390526000907f00000000000000000000000000000000000000000000000000000000000000006001600160a01b0316906302571be390602401602060405180830381865afa15801561188c573d6000803e3d6000fd5b505050506040513d601f19601f820116820180604052508101906118b09190612cad565b90506001600160a01b0381163314806118ec57506001600160a01b0381166000908152600b6020908152604080832033845290915290205460ff165b80610e2b57506001600160a01b0381166000908152600c60209081526040808320868452825280832033845290915290205460ff16610e2b565b6119746040518060e001604052806060815260200160008152602001600061ffff168152602001600061ffff168152602001600063ffffffff16815260200160008152602001600081525090565b82815260c0810182905261058081611c49565b602081015181516060916105809161199f9082611f74565b84519190611fce565b60a081015160c08201516060916105809161199f9082906129a9565b600081518351148015610e2b5750610e2b8360008460008751612044565b8651602088012060006119f6878787611fce565b90508315611b1d576001600160401b03831660009081526005602090815260408083208d84528252808320858452825280832061ffff8c16845290915290208054611a40906129cc565b159050611a9e576001600160401b03831660009081526006602090815260408083208d845282528083208584529091528120805461ffff1691611a8283612cca565b91906101000a81548161ffff021916908361ffff160217905550505b6001600160401b03831660009081526005602090815260408083208d84528252808320858452825280832061ffff8c1684529091528120611ade916122a7565b897f03528ed0c2a3ebc993b12ce3c16bb382f9c7d88ef7d8a1bf290eaf35955a12078a8a604051611b10929190612ce8565b60405180910390a261079f565b6001600160401b03831660009081526005602090815260408083208d84528252808320858452825280832061ffff8c16845290915290208054611b5f906129cc565b9050600003611bbf576001600160401b03831660009081526006602090815260408083208d845282528083208584529091528120805461ffff1691611ba383612d0e565b91906101000a81548161ffff021916908361ffff160217905550505b6001600160401b03831660009081526005602090815260408083208d84528252808320858452825280832061ffff8c1684529091529020611c008282612bbe565b50897f52a608b3303a48862d07a73d82fa221318c0027fbbcfb1b2329bface3f19ff2b8a8a84604051611c3593929190612d25565b60405180910390a250505050505050505050565b60c08101516020820181905281515111611c605750565b6000611c7482600001518360200151611f74565b8260200151611c839190612d54565b8251909150611c929082612067565b61ffff166040830152611ca6600282612d54565b8251909150611cb59082612067565b61ffff166060830152611cc9600282612d54565b8251909150611cd8908261208f565b63ffffffff166080830152611cee600482612d54565b8251909150600090611d009083612067565b61ffff169050611d11600283612d54565b60a084018190529150611d248183612d54565b60c0909301929092525050565b60008151601414611d4157600080fd5b5060200151600160601b900490565b6060816001600160401b03811115611d6a57611d6a61259b565b604051908082528060200260200182016040528015611d9d57816020015b6060815260200190600190039081611d885790505b50905060005b82811015611f17578415611e5f576000848483818110611dc557611dc5612b6e565b9050602002810190611dd79190612d67565b611de691602491600491612dad565b611def91612dd7565b9050858114611e5d5760405162461bcd60e51b815260206004820152603460248201527f6d756c746963616c6c3a20416c6c207265636f726473206d7573742068617665604482015273040c240dac2e8c6d0d2dcce40dcc2dacad0c2e6d60631b60648201526084016105ac565b505b60008030868685818110611e7557611e75612b6e565b9050602002810190611e879190612d67565b604051611e959291906129bc565b600060405180830381855af49150503d8060008114611ed0576040519150601f19603f3d011682016040523d82523d6000602084013e611ed5565b606091505b509150915081611ee457600080fd5b80848481518110611ef757611ef7612b6e565b602002602001018190525050508080611f0f90612df5565b915050611da3565b509392505050565b604080516014808252818301909252606091602082018180368337505050600160601b9290920260208301525090565b60006001600160e01b0319821663c869023360e01b14806105805750610580826120b9565b6000815b83518110611f8857611f88612e0e565b6000611f9485836120de565b60ff169050611fa4816001612d54565b611fae9083612d54565b915080600003611fbe5750611fc4565b50611f78565b61160983826129a9565b8251606090611fdd8385612d54565b1115611fe857600080fd5b6000826001600160401b038111156120025761200261259b565b6040519080825280601f01601f19166020018201604052801561202c576020820181803683370190505b50905060208082019086860101610ad0828287612102565b6000612051848484612158565b61205c878785612158565b149695505050505050565b8151600090612077836002612d54565b111561208257600080fd5b50016002015161ffff1690565b815160009061209f836004612d54565b11156120aa57600080fd5b50016004015163ffffffff1690565b60006001600160e01b0319821663691f343160e01b148061058057506105808261217c565b60008282815181106120f2576120f2612b6e565b016020015160f81c905092915050565b6020811061213a5781518352612119602084612d54565b9250612126602083612d54565b91506121336020826129a9565b9050612102565b905182516020929092036101000a6000190180199091169116179052565b82516000906121678385612d54565b111561217257600080fd5b5091016020012090565b60006001600160e01b031982166304928c6760e21b148061058057506105808260006001600160e01b0319821663547d2b4160e11b14806121cd57506001600160e01b03198216635c98042b60e01b145b8061058057506105808260006001600160e01b0319821663bc1c58d160e01b148061058057506105808260006001600160e01b03198216631d9dabef60e11b148061222857506001600160e01b031982166378e5bf0360e11b145b8061058057506105808260006001600160e01b03198216631101d5ab60e11b148061058057506105808260006001600160e01b0319821663d700ff3360e01b148061058057506105808260006001600160e01b03198216634fbf043360e01b148061058057506301ffc9a760e01b6001600160e01b0319831614610580565b5080546122b3906129cc565b6000825580601f106122c3575050565b601f0160209004906000526020600020908101906122e191906122e4565b50565b5b808211156122f957600081556001016122e5565b5090565b80356001600160e01b03198116811461231557600080fd5b919050565b60006020828403121561232c57600080fd5b610e2b826122fd565b60008083601f84011261234757600080fd5b5081356001600160401b0381111561235e57600080fd5b602083019150836020828501011115610c0a57600080fd5b60008060006040848603121561238b57600080fd5b8335925060208401356001600160401b038111156123a857600080fd5b6123b486828701612335565b9497909650939450505050565b6000806000806000606086880312156123d957600080fd5b8535945060208601356001600160401b03808211156123f757600080fd5b61240389838a01612335565b9096509450604088013591508082111561241c57600080fd5b5061242988828901612335565b969995985093965092949392505050565b6000806040838503121561244d57600080fd5b8235915061245d602084016122fd565b90509250929050565b6000806040838503121561247957600080fd5b50508035926020909101359150565b60005b838110156124a357818101518382015260200161248b565b50506000910152565b600081518084526124c4816020860160208601612488565b601f01601f19169290920160200192915050565b82815260406020820152600061160960408301846124ac565b60008060006060848603121561250657600080fd5b505081359360208301359350604090920135919050565b60006020828403121561252f57600080fd5b5035919050565b602081526000610e2b60208301846124ac565b6000806000806060858703121561255f57600080fd5b843593506020850135925060408501356001600160401b0381111561258357600080fd5b61258f87828801612335565b95989497509550505050565b634e487b7160e01b600052604160045260246000fd5b6000806000606084860312156125c657600080fd5b833592506020840135915060408401356001600160401b03808211156125eb57600080fd5b818601915086601f8301126125ff57600080fd5b8135818111156126115761261161259b565b604051601f8201601f19908116603f011681019083821181831017156126395761263961259b565b8160405282815289602084870101111561265257600080fd5b8260208601602083013760006020848301015280955050505050509250925092565b6001600160a01b03811681146122e157600080fd5b8035801515811461231557600080fd5b600080604083850312156126ac57600080fd5b82356126b781612674565b915061245d60208401612689565b6000806000606084860312156126da57600080fd5b8335925060208401356126ec81612674565b91506126fa60408501612689565b90509250925092565b60008060006060848603121561271857600080fd5b8335925060208401359150604084013561ffff8116811461273857600080fd5b809150509250925092565b60008060006060848603121561275857600080fd5b833561276381612674565b925060208401359150604084013561273881612674565b60008083601f84011261278c57600080fd5b5081356001600160401b038111156127a357600080fd5b6020830191508360208260051b8501011115610c0a57600080fd5b600080602083850312156127d157600080fd5b82356001600160401b038111156127e757600080fd5b6127f38582860161277a565b90969095509350505050565b6000602080830181845280855180835260408601915060408160051b870101925083870160005b8281101561285457603f198886030184526128428583516124ac565b94509285019290850190600101612826565b5092979650505050505050565b6000806040838503121561287457600080fd5b82359150602083013561288681612674565b809150509250929050565b6000806000604084860312156128a657600080fd5b8335925060208401356001600160401b038111156128c357600080fd5b6123b48682870161277a565b6000806000606084860312156128e457600080fd5b833592506128f4602085016122fd565b9150604084013561273881612674565b6000806040838503121561291757600080fd5b823561292281612674565b9150602083013561288681612674565b60208082526025908201527f4e6f7420617574686f72697a656420746f20616363657373205265736f6c7665604082015264724261736560d81b606082015260800190565b60008251612989818460208701612488565b9190910192915050565b634e487b7160e01b600052601160045260246000fd5b8181038181111561058057610580612993565b8183823760009101908152919050565b600181811c908216806129e057607f821691505b602082108103612a0057634e487b7160e01b600052602260045260246000fd5b50919050565b601f8211156115f757600081815260208120601f850160051c81016020861015612a2d5750805b601f850160051c820191505b81811015612a4c57828155600101612a39565b505050505050565b6001600160401b03831115612a6b57612a6b61259b565b612a7f83612a7983546129cc565b83612a06565b6000601f841160018114612ab35760008515612a9b5750838201355b600019600387901b1c1916600186901b178355611230565b600083815260209020601f19861690835b82811015612ae45786850135825560209485019460019092019101612ac4565b5086821015612b015760001960f88860031b161c19848701351681555b505060018560011b0183555050505050565b81835281816020850137506000828201602090810191909152601f909101601f19169091010190565b604081526000612b50604083018688612b13565b8281036020840152612b63818587612b13565b979650505050505050565b634e487b7160e01b600052603260045260246000fd5b602081526000611609602083018486612b13565b60006001600160401b03808316818103612bb457612bb4612993565b6001019392505050565b81516001600160401b03811115612bd757612bd761259b565b612beb81612be584546129cc565b84612a06565b602080601f831160018114612c205760008415612c085750858301515b600019600386901b1c1916600185901b178555612a4c565b600085815260208120601f198616915b82811015612c4f57888601518255948401946001909101908401612c30565b5085821015612c6d5787850151600019600388901b60f8161c191681555b5050505050600190811b01905550565b604081526000612c9060408301866124ac565b8281036020840152612ca3818587612b13565b9695505050505050565b600060208284031215612cbf57600080fd5b8151610e2b81612674565b600061ffff821680612cde57612cde612993565b6000190192915050565b604081526000612cfb60408301856124ac565b905061ffff831660208301529392505050565b600061ffff808316818103612bb457612bb4612993565b606081526000612d3860608301866124ac565b61ffff851660208401528281036040840152612ca381856124ac565b8082018082111561058057610580612993565b6000808335601e19843603018112612d7e57600080fd5b8301803591506001600160401b03821115612d9857600080fd5b602001915036819003821315610c0a57600080fd5b60008085851115612dbd57600080fd5b83861115612dca57600080fd5b5050820193919092039150565b8035602083101561058057600019602084900360031b1b1692915050565b600060018201612e0757612e07612993565b5060010190565b634e487b7160e01b600052600160045260246000fdfea26469706673582212205f54194d009813fb97bcdef709a714aa381e7258f57104893f25695ab082ce0a64736f6c63430008140033",
  "linkReferences": {},
  "deployedLinkReferences": {}
}