{
  "_format": "hh-sol-artifact-1",
  "contractName": "TestRegistrar",
  "sourceName": "contracts/registry/TestRegister.sol",
  "abi": [
    {
      "inputs": [
        {
          "internalType": "contract ENS",
          "name": "ensAddr",
          "type": "address"
        },
        {
          "internalType": "bytes32",
          "name": "node",
          "type": "bytes32"
        }
      ],
      "stateMutability": "nonpayable",
      "type": "constructor"
    },
    {
      "inputs": [],
      "name": "ens",
      "outputs": [
        {
          "internalType": "contract ENS",
          "name": "",
          "type": "address"
        }
      ],
      "stateMutability": "view",
      "type": "function"
    },
    {
      "inputs": [
        {
          "internalType": "bytes32",
          "name": "",
          "type": "bytes32"
        }
      ],
      "name": "expiryTimes",
      "outputs": [
        {
          "internalType": "uint256",
          "name": "",
          "type": "uint256"
        }
      ],
      "stateMutability": "view",
      "type": "function"
    },
    {
      "inputs": [
        {
          "internalType": "bytes32",
          "name": "label",
          "type": "bytes32"
        },
        {
          "internalType": "address",
          "name": "owner",
          "type": "address"
        }
      ],
      "name": "register",
      "outputs": [],
      "stateMutability": "nonpayable",
      "type": "function"
    },
    {
      "inputs": [],
      "name": "rootNode",
      "outputs": [
        {
          "internalType": "bytes32",
          "name": "",
          "type": "bytes32"
        }
      ],
      "stateMutability": "view",
      "type": "function"
    }
  ],
  "bytecode": "0x608060405234801561001057600080fd5b506040516102f53803806102f583398101604081905261002f91610058565b600080546001600160a01b0319166001600160a01b039390931692909217909155600155610092565b6000806040838503121561006b57600080fd5b82516001600160a01b038116811461008257600080fd5b6020939093015192949293505050565b610254806100a16000396000f3fe608060405234801561001057600080fd5b506004361061004c5760003560e01c80633f15457f14610051578063af9f26e414610081578063d22057a9146100af578063faff50a8146100c4575b600080fd5b600054610064906001600160a01b031681565b6040516001600160a01b0390911681526020015b60405180910390f35b6100a161008f366004610189565b60026020526000908152604090205481565b604051908152602001610078565b6100c26100bd3660046101a2565b6100cd565b005b6100a160015481565b60008281526002602052604090205442116100e757600080fd5b6100f46224ea00426101de565b600083815260026020526040808220929092555460015491516306ab592360e01b81526004810192909252602482018490526001600160a01b03838116604484015216906306ab5923906064016020604051808303816000875af1158015610160573d6000803e3d6000fd5b505050506040513d601f19601f820116820180604052508101906101849190610205565b505050565b60006020828403121561019b57600080fd5b5035919050565b600080604083850312156101b557600080fd5b8235915060208301356001600160a01b03811681146101d357600080fd5b809150509250929050565b808201808211156101ff57634e487b7160e01b600052601160045260246000fd5b92915050565b60006020828403121561021757600080fd5b505191905056fea2646970667358221220e6bed33dfc2395956127ed72882dbead5accbb8d2ddab669cd67c2ed1413815264736f6c63430008140033",
  "linkReferences": {},
  "deployedLinkReferences": {}
}