{
  "_format": "hh-sol-artifact-1",
  "contractName": "ExtendedResolver",
  "sourceName": "contracts/resolvers/profiles/ExtendedResolver.sol",
  "abi": [
    {
      "inputs": [
        {
          "internalType": "bytes",
          "name": "",
          "type": "bytes"
        },
        {
          "internalType": "bytes",
          "name": "data",
          "type": "bytes"
        }
      ],
      "name": "resolve",
      "outputs": [
        {
          "internalType": "bytes",
          "name": "",
          "type": "bytes"
        }
      ],
      "stateMutability": "view",
      "type": "function"
    }
  ],
  "bytecode": "0x608060405234801561001057600080fd5b50610288806100206000396000f3fe608060405234801561001057600080fd5b506004361061002b5760003560e01c80639061b92314610030575b600080fd5b61004361003e36600461017b565b610059565b6040516100509190610203565b60405180910390f35b6060600080306001600160a01b0316846040516100769190610236565b600060405180830381855afa9150503d80600081146100b1576040519150601f19603f3d011682016040523d82523d6000602084013e6100b6565b606091505b509150915081156100ca5791506100d29050565b805160208201fd5b92915050565b634e487b7160e01b600052604160045260246000fd5b600082601f8301126100ff57600080fd5b813567ffffffffffffffff8082111561011a5761011a6100d8565b604051601f8301601f19908116603f01168101908282118183101715610142576101426100d8565b8160405283815286602085880101111561015b57600080fd5b836020870160208301376000602085830101528094505050505092915050565b6000806040838503121561018e57600080fd5b823567ffffffffffffffff808211156101a657600080fd5b6101b2868387016100ee565b935060208501359150808211156101c857600080fd5b506101d5858286016100ee565b9150509250929050565b60005b838110156101fa5781810151838201526020016101e2565b50506000910152565b60208152600082518060208401526102228160408501602087016101df565b601f01601f19169190910160400192915050565b600082516102488184602087016101df565b919091019291505056fea2646970667358221220f7053145fff98358c23076522356824f7ecdfcaf24ada7e0a49fcee9f8edb60c64736f6c63430008140033",
  "linkReferences": {},
  "deployedLinkReferences": {}
}