{
  "_format": "hh-sol-artifact-1",
  "contractName": "ENSRegistryWithFallback",
  "sourceName": "contracts/registry/ENSRegistryWithFallback.sol",
  "abi": [
    {
      "inputs": [
        {
          "internalType": "contract ENS",
          "name": "_old",
          "type": "address"
        }
      ],
      "stateMutability": "nonpayable",
      "type": "constructor"
    },
    {
      "anonymous": false,
      "inputs": [
        {
          "indexed": true,
          "internalType": "address",
          "name": "owner",
          "type": "address"
        },
        {
          "indexed": true,
          "internalType": "address",
          "name": "operator",
          "type": "address"
        },
        {
          "indexed": false,
          "internalType": "bool",
          "name": "approved",
          "type": "bool"
        }
      ],
      "name": "ApprovalForAll",
      "type": "event"
    },
    {
      "anonymous": false,
      "inputs": [
        {
          "indexed": true,
          "internalType": "bytes32",
          "name": "node",
          "type": "bytes32"
        },
        {
          "indexed": true,
          "internalType": "bytes32",
          "name": "label",
          "type": "bytes32"
        },
        {
          "indexed": false,
          "internalType": "address",
          "name": "owner",
          "type": "address"
        }
      ],
      "name": "NewOwner",
      "type": "event"
    },
    {
      "anonymous": false,
      "inputs": [
        {
          "indexed": true,
          "internalType": "bytes32",
          "name": "node",
          "type": "bytes32"
        },
        {
          "indexed": false,
          "internalType": "address",
          "name": "resolver",
          "type": "address"
        }
      ],
      "name": "NewResolver",
      "type": "event"
    },
    {
      "anonymous": false,
      "inputs": [
        {
          "indexed": true,
          "internalType": "bytes32",
          "name": "node",
          "type": "bytes32"
        },
        {
          "indexed": false,
          "internalType": "uint64",
          "name": "ttl",
          "type": "uint64"
        }
      ],
      "name": "NewTTL",
      "type": "event"
    },
    {
      "anonymous": false,
      "inputs": [
        {
          "indexed": true,
          "internalType": "bytes32",
          "name": "node",
          "type": "bytes32"
        },
        {
          "indexed": false,
          "internalType": "address",
          "name": "owner",
          "type": "address"
        }
      ],
      "name": "Transfer",
      "type": "event"
    },
    {
      "inputs": [
        {
          "internalType": "address",
          "name": "owner",
          "type": "address"
        },
        {
          "internalType": "address",
          "name": "operator",
          "type": "address"
        }
      ],
      "name": "isApprovedForAll",
      "outputs": [
        {
          "internalType": "bool",
          "name": "",
          "type": "bool"
        }
      ],
      "stateMutability": "view",
      "type": "function"
    },
    {
      "inputs": [],
      "name": "old",
      "outputs": [
        {
          "internalType": "contract ENS",
          "name": "",
          "type": "address"
        }
      ],
      "stateMutability": "view",
      "type": "function"
    },
    {
      "inputs": [
        {
          "internalType": "bytes32",
          "name": "node",
          "type": "bytes32"
        }
      ],
      "name": "owner",
      "outputs": [
        {
          "internalType": "address",
          "name": "",
          "type": "address"
        }
      ],
      "stateMutability": "view",
      "type": "function"
    },
    {
      "inputs": [
        {
          "internalType": "bytes32",
          "name": "node",
          "type": "bytes32"
        }
      ],
      "name": "recordExists",
      "outputs": [
        {
          "internalType": "bool",
          "name": "",
          "type": "bool"
        }
      ],
      "stateMutability": "view",
      "type": "function"
    },
    {
      "inputs": [
        {
          "internalType": "bytes32",
          "name": "node",
          "type": "bytes32"
        }
      ],
      "name": "resolver",
      "outputs": [
        {
          "internalType": "address",
          "name": "",
          "type": "address"
        }
      ],
      "stateMutability": "view",
      "type": "function"
    },
    {
      "inputs": [
        {
          "internalType": "address",
          "name": "operator",
          "type": "address"
        },
        {
          "internalType": "bool",
          "name": "approved",
          "type": "bool"
        }
      ],
      "name": "setApprovalForAll",
      "outputs": [],
      "stateMutability": "nonpayable",
      "type": "function"
    },
    {
      "inputs": [
        {
          "internalType": "bytes32",
          "name": "node",
          "type": "bytes32"
        },
        {
          "internalType": "address",
          "name": "owner",
          "type": "address"
        }
      ],
      "name": "setOwner",
      "outputs": [],
      "stateMutability": "nonpayable",
      "type": "function"
    },
    {
      "inputs": [
        {
          "internalType": "bytes32",
          "name": "node",
          "type": "bytes32"
        },
        {
          "internalType": "address",
          "name": "owner",
          "type": "address"
        },
        {
          "internalType": "address",
          "name": "resolver",
          "type": "address"
        },
        {
          "internalType": "uint64",
          "name": "ttl",
          "type": "uint64"
        }
      ],
      "name": "setRecord",
      "outputs": [],
      "stateMutability": "nonpayable",
      "type": "function"
    },
    {
      "inputs": [
        {
          "internalType": "bytes32",
          "name": "node",
          "type": "bytes32"
        },
        {
          "internalType": "address",
          "name": "resolver",
          "type": "address"
        }
      ],
      "name": "setResolver",
      "outputs": [],
      "stateMutability": "nonpayable",
      "type": "function"
    },
    {
      "inputs": [
        {
          "internalType": "bytes32",
          "name": "node",
          "type": "bytes32"
        },
        {
          "internalType": "bytes32",
          "name": "label",
          "type": "bytes32"
        },
        {
          "internalType": "address",
          "name": "owner",
          "type": "address"
        }
      ],
      "name": "setSubnodeOwner",
      "outputs": [
        {
          "internalType": "bytes32",
          "name": "",
          "type": "bytes32"
        }
      ],
      "stateMutability": "nonpayable",
      "type": "function"
    },
    {
      "inputs": [
        {
          "internalType": "bytes32",
          "name": "node",
          "type": "bytes32"
        },
        {
          "internalType": "bytes32",
          "name": "label",
          "type": "bytes32"
        },
        {
          "internalType": "address",
          "name": "owner",
          "type": "address"
        },
        {
          "internalType": "address",
          "name": "resolver",
          "type": "address"
        },
        {
          "internalType": "uint64",
          "name": "ttl",
          "type": "uint64"
        }
      ],
      "name": "setSubnodeRecord",
      "outputs": [],
      "stateMutability": "nonpayable",
      "type": "function"
    },
    {
      "inputs": [
        {
          "internalType": "bytes32",
          "name": "node",
          "type": "bytes32"
        },
        {
          "internalType": "uint64",
          "name": "ttl",
          "type": "uint64"
        }
      ],
      "name": "setTTL",
      "outputs": [],
      "stateMutability": "nonpayable",
      "type": "function"
    },
    {
      "inputs": [
        {
          "internalType": "bytes32",
          "name": "node",
          "type": "bytes32"
        }
      ],
      "name": "ttl",
      "outputs": [
        {
          "internalType": "uint64",
          "name": "",
          "type": "uint64"
        }
      ],
      "stateMutability": "view",
      "type": "function"
    }
  ],
  "bytecode": "0x608060405234801561001057600080fd5b50604051610d01380380610d0183398101604081905261002f91610089565b60008080526020527fad3228b676f7d3cd4284a5443f17f1962b36e491b30a40b2405849e597ba5fb58054336001600160a01b031991821617909155600280549091166001600160a01b03929092169190911790556100b9565b60006020828403121561009b57600080fd5b81516001600160a01b03811681146100b257600080fd5b9392505050565b610c39806100c86000396000f3fe608060405234801561001057600080fd5b50600436106100cf5760003560e01c80635b0fc9c31161008c578063b83f866311610066578063b83f8663146101c5578063cf408823146101d8578063e985e9c5146101eb578063f79fe5381461023757600080fd5b80635b0fc9c31461018c5780635ef2c7f01461019f578063a22cb465146101b257600080fd5b80630178b8bf146100d457806302571be31461010457806306ab59231461011757806314ab90381461013857806316a25cbd1461014d5780631896f70a14610179575b600080fd5b6100e76100e23660046109b2565b610262565b6040516001600160a01b0390911681526020015b60405180910390f35b6100e76101123660046109b2565b610312565b61012a6101253660046109e3565b610368565b6040519081526020016100fb565b61014b610146366004610a32565b610454565b005b61016061015b3660046109b2565b61053a565b60405167ffffffffffffffff90911681526020016100fb565b61014b610187366004610a62565b6105eb565b61014b61019a366004610a62565b6106c3565b61014b6101ad366004610a87565b610778565b61014b6101c0366004610ae6565b61079a565b6002546100e7906001600160a01b031681565b61014b6101e6366004610b19565b610806565b6102276101f9366004610b6c565b6001600160a01b03918216600090815260016020908152604080832093909416825291909152205460ff1690565b60405190151581526020016100fb565b6102276102453660046109b2565b6000908152602081905260409020546001600160a01b0316151590565b6000818152602081905260408120546001600160a01b03166102f257600254604051630178b8bf60e01b8152600481018490526001600160a01b0390911690630178b8bf906024015b602060405180830381865afa1580156102c8573d6000803e3d6000fd5b505050506040513d601f19601f820116820180604052508101906102ec9190610b9a565b92915050565b6000828152602081905260409020600101546001600160a01b03166102ec565b6000818152602081905260408120546001600160a01b031661035f576002546040516302571be360e01b8152600481018490526001600160a01b03909116906302571be3906024016102ab565b6102ec82610821565b60008381526020819052604081205484906001600160a01b0316338114806103b357506001600160a01b038116600090815260016020908152604080832033845290915290205460ff165b6103d85760405162461bcd60e51b81526004016103cf90610bbe565b60405180910390fd5b6040805160208082018990528183018890528251808303840181526060909201909252805191012061040a8186610849565b6040516001600160a01b0386168152869088907fce0457fe73731f824cc272376169235128c118b49d344817417c6d108d155e829060200160405180910390a39695505050505050565b60008281526020819052604090205482906001600160a01b03163381148061049f57506001600160a01b038116600090815260016020908152604080832033845290915290205460ff165b6104bb5760405162461bcd60e51b81526004016103cf90610bbe565b60405167ffffffffffffffff8416815284907f1d4f9bbfc9cab89d66e1a1562f2233ccbf1308cb4f63de2ead5787adddb8fa689060200160405180910390a25050600091825260208290526040909120600101805467ffffffffffffffff909216600160a01b0267ffffffffffffffff60a01b19909216919091179055565b6000818152602081905260408120546001600160a01b03166105c3576002546040516316a25cbd60e01b8152600481018490526001600160a01b03909116906316a25cbd90602401602060405180830381865afa15801561059f573d6000803e3d6000fd5b505050506040513d601f19601f820116820180604052508101906102ec9190610be6565b600082815260208190526040902060010154600160a01b900467ffffffffffffffff166102ec565b60008281526020819052604090205482906001600160a01b03163381148061063657506001600160a01b038116600090815260016020908152604080832033845290915290205460ff165b6106525760405162461bcd60e51b81526004016103cf90610bbe565b6040516001600160a01b038416815284907f335721b01866dc23fbee8b6b2c7b1e14d6f05c28cd35a2c934239f94095602a09060200160405180910390a2505060009182526020829052604090912060010180546001600160a01b0319166001600160a01b03909216919091179055565b60008281526020819052604090205482906001600160a01b03163381148061070e57506001600160a01b038116600090815260016020908152604080832033845290915290205460ff165b61072a5760405162461bcd60e51b81526004016103cf90610bbe565b6107348484610849565b6040516001600160a01b038416815284907fd4735d920b0f87494915f556dd9b54c8f309026070caea5c737245152564d2669060200160405180910390a250505050565b6000610785868686610368565b905061079281848461088c565b505050505050565b3360008181526001602090815260408083206001600160a01b03871680855290835292819020805460ff191686151590811790915590519081529192917f17307eab39ab6107e8899845ad3d59bd9653f200f220920489ca2b5937696c31910160405180910390a35050565b61081084846106c3565b61081b84838361088c565b50505050565b6000818152602081905260408120546001600160a01b03163081036102ec5750600092915050565b806001600160a01b03811661085b5750305b600083815260208190526040902080546001600160a01b0319166001600160a01b038316179055505050565b505050565b6000838152602081905260409020600101546001600160a01b03838116911614610912576000838152602081815260409182902060010180546001600160a01b0319166001600160a01b038616908117909155915191825284917f335721b01866dc23fbee8b6b2c7b1e14d6f05c28cd35a2c934239f94095602a0910160405180910390a25b60008381526020819052604090206001015467ffffffffffffffff828116600160a01b90920416146108875760008381526020818152604091829020600101805467ffffffffffffffff60a01b1916600160a01b67ffffffffffffffff861690810291909117909155915191825284917f1d4f9bbfc9cab89d66e1a1562f2233ccbf1308cb4f63de2ead5787adddb8fa68910160405180910390a2505050565b6000602082840312156109c457600080fd5b5035919050565b6001600160a01b03811681146109e057600080fd5b50565b6000806000606084860312156109f857600080fd5b83359250602084013591506040840135610a11816109cb565b809150509250925092565b67ffffffffffffffff811681146109e057600080fd5b60008060408385031215610a4557600080fd5b823591506020830135610a5781610a1c565b809150509250929050565b60008060408385031215610a7557600080fd5b823591506020830135610a57816109cb565b600080600080600060a08688031215610a9f57600080fd5b85359450602086013593506040860135610ab8816109cb565b92506060860135610ac8816109cb565b91506080860135610ad881610a1c565b809150509295509295909350565b60008060408385031215610af957600080fd5b8235610b04816109cb565b915060208301358015158114610a5757600080fd5b60008060008060808587031215610b2f57600080fd5b843593506020850135610b41816109cb565b92506040850135610b51816109cb565b91506060850135610b6181610a1c565b939692955090935050565b60008060408385031215610b7f57600080fd5b8235610b8a816109cb565b91506020830135610a57816109cb565b600060208284031215610bac57600080fd5b8151610bb7816109cb565b9392505050565b6020808252600e908201526d139bdd08185d5d1a1bdc9a5e995960921b604082015260600190565b600060208284031215610bf857600080fd5b8151610bb781610a1c56fea2646970667358221220bfcc17beea04d3c64a2285a8dd974020a5cfd2051328ca0fbe028b62a40b329f64736f6c63430008140033",
  "linkReferences": {},
  "deployedLinkReferences": {}
}