{
  "_format": "hh-sol-artifact-1",
  "contractName": "FIFSRegistrar",
  "sourceName": "contracts/registry/FIFSRegistrar.sol",
  "abi": [
    {
      "inputs": [
        {
          "internalType": "contract ENS",
          "name": "ensAddr",
          "type": "address"
        },
        {
          "internalType": "bytes32",
          "name": "node",
          "type": "bytes32"
        }
      ],
      "stateMutability": "nonpayable",
      "type": "constructor"
    },
    {
      "inputs": [
        {
          "internalType": "bytes32",
          "name": "label",
          "type": "bytes32"
        },
        {
          "internalType": "address",
          "name": "owner",
          "type": "address"
        }
      ],
      "name": "register",
      "outputs": [],
      "stateMutability": "nonpayable",
      "type": "function"
    }
  ],
  "bytecode": "0x608060405234801561001057600080fd5b506040516102ed3803806102ed83398101604081905261002f91610058565b600080546001600160a01b0319166001600160a01b039390931692909217909155600155610092565b6000806040838503121561006b57600080fd5b82516001600160a01b038116811461008257600080fd5b6020939093015192949293505050565b61024c806100a16000396000f3fe608060405234801561001057600080fd5b506004361061002b5760003560e01c8063d22057a914610030575b600080fd5b61004361003e3660046101a9565b610045565b005b6000805460015460408051602080820193909352808201879052815180820383018152606082019283905280519301929092206302571be360e01b90915260648201528492916001600160a01b0316906302571be390608401602060405180830381865afa1580156100bb573d6000803e3d6000fd5b505050506040513d601f19601f820116820180604052508101906100df91906101d9565b90506001600160a01b03811615806100ff57506001600160a01b03811633145b61010857600080fd5b6000546001546040516306ab592360e01b81526004810191909152602481018690526001600160a01b038581166044830152909116906306ab5923906064016020604051808303816000875af1158015610166573d6000803e3d6000fd5b505050506040513d601f19601f8201168201806040525081019061018a91906101fd565b5050505050565b6001600160a01b03811681146101a657600080fd5b50565b600080604083850312156101bc57600080fd5b8235915060208301356101ce81610191565b809150509250929050565b6000602082840312156101eb57600080fd5b81516101f681610191565b9392505050565b60006020828403121561020f57600080fd5b505191905056fea26469706673582212206de1e145ce1864a49843d9a8ad83a84949c1e024cb152ad5b3917966fe1767b064736f6c63430008140033",
  "linkReferences": {},
  "deployedLinkReferences": {}
}