{
  "_format": "hh-sol-artifact-1",
  "contractName": "ZKFRegistrarController",
  "sourceName": "contracts/zkfregistrar/ZKFRegistrarController.sol",
  "abi": [
    {
      "inputs": [
        {
          "internalType": "contract BaseRegistrarImplementation",
          "name": "_base",
          "type": "address"
        },
        {
          "internalType": "contract IPriceOracle",
          "name": "_prices",
          "type": "address"
        },
        {
          "internalType": "uint256",
          "name": "_minCommitmentAge",
          "type": "uint256"
        },
        {
          "internalType": "uint256",
          "name": "_maxCommitmentAge",
          "type": "uint256"
        },
        {
          "internalType": "contract ReverseRegistrar",
          "name": "_reverseRegistrar",
          "type": "address"
        },
        {
          "internalType": "contract ENS",
          "name": "_ens",
          "type": "address"
        }
      ],
      "stateMutability": "nonpayable",
      "type": "constructor"
    },
    {
      "inputs": [
        {
          "internalType": "bytes32",
          "name": "commitment",
          "type": "bytes32"
        }
      ],
      "name": "CommitmentTooNew",
      "type": "error"
    },
    {
      "inputs": [
        {
          "internalType": "bytes32",
          "name": "commitment",
          "type": "bytes32"
        }
      ],
      "name": "CommitmentTooOld",
      "type": "error"
    },
    {
      "inputs": [
        {
          "internalType": "uint256",
          "name": "duration",
          "type": "uint256"
        }
      ],
      "name": "DurationTooShort",
      "type": "error"
    },
    {
      "inputs": [],
      "name": "InsufficientValue",
      "type": "error"
    },
    {
      "inputs": [],
      "name": "MaxCommitmentAgeTooHigh",
      "type": "error"
    },
    {
      "inputs": [],
      "name": "MaxCommitmentAgeTooLow",
      "type": "error"
    },
    {
      "inputs": [
        {
          "internalType": "string",
          "name": "name",
          "type": "string"
        }
      ],
      "name": "NameNotAvailable",
      "type": "error"
    },
    {
      "inputs": [
        {
          "internalType": "address",
          "name": "owner",
          "type": "address"
        }
      ],
      "name": "OwnableInvalidOwner",
      "type": "error"
    },
    {
      "inputs": [
        {
          "internalType": "address",
          "name": "account",
          "type": "address"
        }
      ],
      "name": "OwnableUnauthorizedAccount",
      "type": "error"
    },
    {
      "inputs": [],
      "name": "ResolverRequiredWhenDataSupplied",
      "type": "error"
    },
    {
      "inputs": [],
      "name": "ResolverRequiredWhenReverseRecord",
      "type": "error"
    },
    {
      "inputs": [
        {
          "internalType": "bytes32",
          "name": "commitment",
          "type": "bytes32"
        }
      ],
      "name": "UnexpiredCommitmentExists",
      "type": "error"
    },
    {
      "anonymous": false,
      "inputs": [
        {
          "indexed": false,
          "internalType": "string",
          "name": "name",
          "type": "string"
        },
        {
          "indexed": true,
          "internalType": "bytes32",
          "name": "label",
          "type": "bytes32"
        },
        {
          "indexed": true,
          "internalType": "address",
          "name": "owner",
          "type": "address"
        },
        {
          "indexed": false,
          "internalType": "uint256",
          "name": "baseCost",
          "type": "uint256"
        },
        {
          "indexed": false,
          "internalType": "uint256",
          "name": "premium",
          "type": "uint256"
        },
        {
          "indexed": false,
          "internalType": "uint256",
          "name": "expires",
          "type": "uint256"
        }
      ],
      "name": "NameRegistered",
      "type": "event"
    },
    {
      "anonymous": false,
      "inputs": [
        {
          "indexed": false,
          "internalType": "string",
          "name": "name",
          "type": "string"
        },
        {
          "indexed": true,
          "internalType": "bytes32",
          "name": "label",
          "type": "bytes32"
        },
        {
          "indexed": false,
          "internalType": "uint256",
          "name": "cost",
          "type": "uint256"
        },
        {
          "indexed": false,
          "internalType": "uint256",
          "name": "expires",
          "type": "uint256"
        }
      ],
      "name": "NameRenewed",
      "type": "event"
    },
    {
      "anonymous": false,
      "inputs": [
        {
          "indexed": true,
          "internalType": "address",
          "name": "previousOwner",
          "type": "address"
        },
        {
          "indexed": true,
          "internalType": "address",
          "name": "newOwner",
          "type": "address"
        }
      ],
      "name": "OwnershipTransferred",
      "type": "event"
    },
    {
      "inputs": [],
      "name": "MIN_REGISTRATION_DURATION",
      "outputs": [
        {
          "internalType": "uint256",
          "name": "",
          "type": "uint256"
        }
      ],
      "stateMutability": "view",
      "type": "function"
    },
    {
      "inputs": [
        {
          "internalType": "string",
          "name": "name",
          "type": "string"
        }
      ],
      "name": "available",
      "outputs": [
        {
          "internalType": "bool",
          "name": "",
          "type": "bool"
        }
      ],
      "stateMutability": "view",
      "type": "function"
    },
    {
      "inputs": [
        {
          "internalType": "bytes32",
          "name": "commitment",
          "type": "bytes32"
        }
      ],
      "name": "commit",
      "outputs": [],
      "stateMutability": "nonpayable",
      "type": "function"
    },
    {
      "inputs": [
        {
          "internalType": "bytes32",
          "name": "",
          "type": "bytes32"
        }
      ],
      "name": "commitments",
      "outputs": [
        {
          "internalType": "uint256",
          "name": "",
          "type": "uint256"
        }
      ],
      "stateMutability": "view",
      "type": "function"
    },
    {
      "inputs": [
        {
          "internalType": "string",
          "name": "name",
          "type": "string"
        },
        {
          "internalType": "address",
          "name": "owner",
          "type": "address"
        },
        {
          "internalType": "uint256",
          "name": "duration",
          "type": "uint256"
        },
        {
          "internalType": "bytes32",
          "name": "secret",
          "type": "bytes32"
        },
        {
          "internalType": "address",
          "name": "resolver",
          "type": "address"
        },
        {
          "internalType": "bytes[]",
          "name": "data",
          "type": "bytes[]"
        },
        {
          "internalType": "bool",
          "name": "reverseRecord",
          "type": "bool"
        }
      ],
      "name": "makeCommitment",
      "outputs": [
        {
          "internalType": "bytes32",
          "name": "",
          "type": "bytes32"
        }
      ],
      "stateMutability": "pure",
      "type": "function"
    },
    {
      "inputs": [],
      "name": "maxCommitmentAge",
      "outputs": [
        {
          "internalType": "uint256",
          "name": "",
          "type": "uint256"
        }
      ],
      "stateMutability": "view",
      "type": "function"
    },
    {
      "inputs": [],
      "name": "minCommitmentAge",
      "outputs": [
        {
          "internalType": "uint256",
          "name": "",
          "type": "uint256"
        }
      ],
      "stateMutability": "view",
      "type": "function"
    },
    {
      "inputs": [],
      "name": "owner",
      "outputs": [
        {
          "internalType": "address",
          "name": "",
          "type": "address"
        }
      ],
      "stateMutability": "view",
      "type": "function"
    },
    {
      "inputs": [],
      "name": "prices",
      "outputs": [
        {
          "internalType": "contract IPriceOracle",
          "name": "",
          "type": "address"
        }
      ],
      "stateMutability": "view",
      "type": "function"
    },
    {
      "inputs": [
        {
          "internalType": "address",
          "name": "_token",
          "type": "address"
        },
        {
          "internalType": "address",
          "name": "_to",
          "type": "address"
        },
        {
          "internalType": "uint256",
          "name": "_amount",
          "type": "uint256"
        }
      ],
      "name": "recoverFunds",
      "outputs": [],
      "stateMutability": "nonpayable",
      "type": "function"
    },
    {
      "inputs": [
        {
          "internalType": "string",
          "name": "name",
          "type": "string"
        },
        {
          "internalType": "address",
          "name": "owner",
          "type": "address"
        },
        {
          "internalType": "uint256",
          "name": "duration",
          "type": "uint256"
        },
        {
          "internalType": "bytes32",
          "name": "secret",
          "type": "bytes32"
        },
        {
          "internalType": "address",
          "name": "resolver",
          "type": "address"
        },
        {
          "internalType": "bytes[]",
          "name": "data",
          "type": "bytes[]"
        },
        {
          "internalType": "bool",
          "name": "reverseRecord",
          "type": "bool"
        }
      ],
      "name": "register",
      "outputs": [],
      "stateMutability": "payable",
      "type": "function"
    },
    {
      "inputs": [
        {
          "internalType": "string",
          "name": "name",
          "type": "string"
        },
        {
          "internalType": "uint256",
          "name": "duration",
          "type": "uint256"
        }
      ],
      "name": "renew",
      "outputs": [],
      "stateMutability": "payable",
      "type": "function"
    },
    {
      "inputs": [],
      "name": "renounceOwnership",
      "outputs": [],
      "stateMutability": "nonpayable",
      "type": "function"
    },
    {
      "inputs": [
        {
          "internalType": "string",
          "name": "name",
          "type": "string"
        },
        {
          "internalType": "uint256",
          "name": "duration",
          "type": "uint256"
        }
      ],
      "name": "rentPrice",
      "outputs": [
        {
          "components": [
            {
              "internalType": "uint256",
              "name": "base",
              "type": "uint256"
            },
            {
              "internalType": "uint256",
              "name": "premium",
              "type": "uint256"
            }
          ],
          "internalType": "struct IPriceOracle.Price",
          "name": "price",
          "type": "tuple"
        }
      ],
      "stateMutability": "view",
      "type": "function"
    },
    {
      "inputs": [],
      "name": "reverseRegistrar",
      "outputs": [
        {
          "internalType": "contract ReverseRegistrar",
          "name": "",
          "type": "address"
        }
      ],
      "stateMutability": "view",
      "type": "function"
    },
    {
      "inputs": [
        {
          "internalType": "contract IPriceOracle",
          "name": "_prices",
          "type": "address"
        }
      ],
      "name": "setPriceOracle",
      "outputs": [],
      "stateMutability": "nonpayable",
      "type": "function"
    },
    {
      "inputs": [
        {
          "internalType": "bytes4",
          "name": "interfaceID",
          "type": "bytes4"
        }
      ],
      "name": "supportsInterface",
      "outputs": [
        {
          "internalType": "bool",
          "name": "",
          "type": "bool"
        }
      ],
      "stateMutability": "pure",
      "type": "function"
    },
    {
      "inputs": [
        {
          "internalType": "address",
          "name": "newOwner",
          "type": "address"
        }
      ],
      "name": "transferOwnership",
      "outputs": [],
      "stateMutability": "nonpayable",
      "type": "function"
    },
    {
      "inputs": [
        {
          "internalType": "string",
          "name": "name",
          "type": "string"
        }
      ],
      "name": "valid",
      "outputs": [
        {
          "internalType": "bool",
          "name": "",
          "type": "bool"
        }
      ],
      "stateMutability": "pure",
      "type": "function"
    },
    {
      "inputs": [],
      "name": "withdraw",
      "outputs": [],
      "stateMutability": "nonpayable",
      "type": "function"
    }
  ],
  "bytecode": "0x6101006040523480156200001257600080fd5b5060405162001d4938038062001d49833981016040819052620000359162000255565b803380806200005e57604051631e4fbdf760e01b81526000600482015260240160405180910390fd5b6200006981620001ec565b506040516302571be360e01b81527f91d1777781884d03a6757a803996e38de2a42967fb37eeaca72729271025a9e260048201526000906001600160a01b038416906302571be390602401602060405180830381865afa158015620000d2573d6000803e3d6000fd5b505050506040513d601f19601f82011682018060405250810190620000f89190620002d2565b604051630f41a04d60e11b81526001600160a01b03848116600483015291925090821690631e83409a906024016020604051808303816000875af115801562000145573d6000803e3d6000fd5b505050506040513d601f19601f820116820180604052508101906200016b9190620002f9565b5050505083831162000190576040516307cb550760e31b815260040160405180910390fd5b42831115620001b257604051630b4319e560e21b815260040160405180910390fd5b506001600160a01b03948516608052600180546001600160a01b0319169486169490941790935560a09190915260c0521660e05262000313565b600080546001600160a01b038381166001600160a01b0319831681178455604051919092169283917f8be0079c531659141344cd1fd0a4f28419497f9722a3daafe3b4186f6b6457e09190a35050565b6001600160a01b03811681146200025257600080fd5b50565b60008060008060008060c087890312156200026f57600080fd5b86516200027c816200023c565b60208801519096506200028f816200023c565b8095505060408701519350606087015192506080870151620002b1816200023c565b60a0880151909250620002c4816200023c565b809150509295509295509295565b600060208284031215620002e557600080fd5b8151620002f2816200023c565b9392505050565b6000602082840312156200030c57600080fd5b5051919050565b60805160a05160c05160e0516119d262000377600039600081816102180152610e9401526000818161038801528181610c110152610d1f0152600081816102e30152610cc101526000818161058f01528181610a530152610b8701526119d26000f3fe60806040526004361061011f5760003560e01c80638a95b09f116100a0578063aeb8ce9b11610064578063aeb8ce9b14610356578063ce1e09c014610376578063d3419bf3146103aa578063f14fcbc8146103ca578063f2fde38b146103ea57600080fd5b80638a95b09f146102ba5780638d839ffe146102d15780638da5cb5b146103055780639791c09714610323578063acf1a8411461034357600080fd5b80635d3590d5116100e75780635d3590d5146101d1578063715018a6146101f15780638086985314610206578063839df9451461025257806383e7f6ff1461027f57600080fd5b806301ffc9a714610124578063237592e8146101595780633ccfd60b1461016e5780633d4aa89e14610183578063530e784f146101b1575b600080fd5b34801561013057600080fd5b5061014461013f3660046110c6565b61040a565b60405190151581526020015b60405180910390f35b61016c6101673660046111a1565b610441565b005b34801561017a57600080fd5b5061016c610753565b34801561018f57600080fd5b506101a361019e366004611325565b610798565b604051908152602001610150565b3480156101bd57600080fd5b5061016c6101cc3660046113df565b610851565b3480156101dd57600080fd5b5061016c6101ec3660046113fc565b61087b565b3480156101fd57600080fd5b5061016c6108fc565b34801561021257600080fd5b5061023a7f000000000000000000000000000000000000000000000000000000000000000081565b6040516001600160a01b039091168152602001610150565b34801561025e57600080fd5b506101a361026d36600461143d565b60026020526000908152604090205481565b34801561028b57600080fd5b5061029f61029a366004611456565b610910565b60408051825181526020928301519281019290925201610150565b3480156102c657600080fd5b506101a36224ea0081565b3480156102dd57600080fd5b506101a37f000000000000000000000000000000000000000000000000000000000000000081565b34801561031157600080fd5b506000546001600160a01b031661023a565b34801561032f57600080fd5b5061014461033e36600461149b565b61099a565b61016c6103513660046114d8565b6109af565b34801561036257600080fd5b5061014461037136600461149b565b610b57565b34801561038257600080fd5b506101a37f000000000000000000000000000000000000000000000000000000000000000081565b3480156103b657600080fd5b5060015461023a906001600160a01b031681565b3480156103d657600080fd5b5061016c6103e536600461143d565b610bfa565b3480156103f657600080fd5b5061016c6104053660046113df565b610c6f565b60006001600160e01b031982166301ffc9a760e01b148061043b57506001600160e01b031982166338acdd5360e21b145b92915050565b60006104848a8a8080601f0160208091040260200160405190810160405280939291908181526020018383808284376000920191909152508b9250610910915050565b602081015181519192506104979161153a565b3410156104b75760405163044044a560e21b815260040160405180910390fd5b61054d8a8a8080601f016020809104026020016040519081016040528093929190818152602001838380828437600081840152601f19601f82011690508083019250505050505050886105488d8d8080601f0160208091040260200160405190810160405280939291908181526020018383808284376000920191909152508f92508e91508d90508c8c8c8c610798565b610caa565b60008a8a60405161055f92919061154d565b604051908190038120633f2891eb60e21b825260048201819052336024830152604482018a9052915081906000907f00000000000000000000000000000000000000000000000000000000000000006001600160a01b03169063fca247ac906064016020604051808303816000875af11580156105e0573d6000803e3d6000fd5b505050506040513d601f19601f82011682018060405250810190610604919061155d565b9050851561062f5761062f888e8e60405161062092919061154d565b60405180910390208989610dc8565b8415610678576106788d8d8080601f0160208091040260200160405190810160405280939291908181526020018383808284376000920191909152508c9250339150610e929050565b8a6001600160a01b03168d8d60405161069292919061154d565b60405180910390207f69e37f151eb98a09618ddaa80c8cfaf1ce5996867c489f45b555b412271ebf278f8f88600001518960200151876040516106d995949392919061159f565b60405180910390a3602084015184516106f2919061153a565b341115610744576020840151845133916108fc91610710919061153a565b61071a90346115d0565b6040518115909202916000818181858888f19350505050158015610742573d6000803e3d6000fd5b505b50505050505050505050505050565b61075b610f46565b600080546040516001600160a01b03909116914780156108fc02929091818181858888f19350505050158015610795573d6000803e3d6000fd5b50565b875160208901206000906001600160a01b0386161580156107bb57506001831515145b156107d957604051632036c8bb60e11b815260040160405180910390fd5b83158015906107ef57506001600160a01b038616155b1561080d576040516334fd817160e21b815260040160405180910390fd5b808989898989898960405160200161082c989796959493929190611675565b6040516020818303038152906040528051906020012091505098975050505050505050565b610859610f46565b600180546001600160a01b0319166001600160a01b0392909216919091179055565b610883610f46565b60405163a9059cbb60e01b81526001600160a01b0383811660048301526024820183905284169063a9059cbb906044016020604051808303816000875af11580156108d2573d6000803e3d6000fd5b505050506040513d601f19601f820116820180604052508101906108f691906116cd565b50505050565b610904610f46565b61090e6000610f73565b565b60408051808201825260008082526020820152600154915162cdcc4d60e51b815290916001600160a01b0316906319b989a090610953908690869060040161173a565b6040805180830381865afa15801561096f573d6000803e3d6000fd5b505050506040513d601f19601f82011682018060405250810190610993919061175c565b9392505050565b600060026109a783610fc3565b101592915050565b600083836040516109c192919061154d565b604080519182900382206020601f870181900481028401810190925285835292508291600091610a0e91908890889081908401838280828437600092019190915250889250610910915050565b8051909150341015610a335760405163044044a560e21b815260040160405180910390fd5b60405163c475abff60e01b815260048101839052602481018590526000907f00000000000000000000000000000000000000000000000000000000000000006001600160a01b03169063c475abff906044016020604051808303816000875af1158015610aa4573d6000803e3d6000fd5b505050506040513d601f19601f82011682018060405250810190610ac8919061155d565b8251909150341115610b1057815133906108fc90610ae690346115d0565b6040518115909202916000818181858888f19350505050158015610b0e573d6000803e3d6000fd5b505b837f3da24c024582931cfaf8267d8ed24d13a82a8068d5bd337d30ec45cea4e506ae88883485604051610b4694939291906117ab565b60405180910390a250505050505050565b80516020820120600090610b6a8361099a565b801561099357506040516312dc929d60e31b8152600481018290527f00000000000000000000000000000000000000000000000000000000000000006001600160a01b0316906396e494e890602401602060405180830381865afa158015610bd6573d6000803e3d6000fd5b505050506040513d601f19601f8201168201806040525081019061099391906116cd565b6000818152600260205260409020544290610c36907f00000000000000000000000000000000000000000000000000000000000000009061153a565b10610c5c57604051630a059d7160e01b8152600481018290526024015b60405180910390fd5b6000908152600260205260409020429055565b610c77610f46565b6001600160a01b038116610ca157604051631e4fbdf760e01b815260006004820152602401610c53565b61079581610f73565b6000818152600260205260409020544290610ce6907f00000000000000000000000000000000000000000000000000000000000000009061153a565b1115610d0857604051635320bcf960e01b815260048101829052602401610c53565b6000818152600260205260409020544290610d44907f00000000000000000000000000000000000000000000000000000000000000009061153a565b11610d655760405163cb7690d760e01b815260048101829052602401610c53565b610d6e83610b57565b610d8d57826040516308eee0fd60e31b8152600401610c5391906117d2565b6000818152600260205260408120556224ea00821015610dc357604051639a71997b60e01b815260048101839052602401610c53565b505050565b604080517ffb5f84575b89b73c6f6a4b64bfa657505766152eaf7a7bdcc4ffe2c678d728256020808301919091528183018690528251808303840181526060830193849052805191012063e32954eb60e01b90925285906001600160a01b0382169063e32954eb90610e42908590889088906064016117e5565b6000604051808303816000875af1158015610e61573d6000803e3d6000fd5b505050506040513d6000823e601f3d908101601f19168201604052610e899190810190611808565b50505050505050565b7f00000000000000000000000000000000000000000000000000000000000000006001600160a01b0316637a806d6b33838587604051602001610ed59190611907565b6040516020818303038152906040526040518563ffffffff1660e01b8152600401610f03949392919061192f565b6020604051808303816000875af1158015610f22573d6000803e3d6000fd5b505050506040513d601f19601f820116820180604052508101906108f6919061155d565b6000546001600160a01b0316331461090e5760405163118cdaa760e01b8152336004820152602401610c53565b600080546001600160a01b038381166001600160a01b0319831681178455604051919092169283917f8be0079c531659141344cd1fd0a4f28419497f9722a3daafe3b4186f6b6457e09190a35050565b8051600090819081905b808210156110bd576000858381518110610fe957610fe961196d565b01602001516001600160f81b0319169050600160ff1b8110156110185761101160018461153a565b92506110aa565b600760fd1b6001600160f81b0319821610156110395761101160028461153a565b600f60fc1b6001600160f81b03198216101561105a5761101160038461153a565b601f60fb1b6001600160f81b03198216101561107b5761101160048461153a565b603f60fa1b6001600160f81b03198216101561109c5761101160058461153a565b6110a760068461153a565b92505b50826110b581611983565b935050610fcd565b50909392505050565b6000602082840312156110d857600080fd5b81356001600160e01b03198116811461099357600080fd5b60008083601f84011261110257600080fd5b50813567ffffffffffffffff81111561111a57600080fd5b60208301915083602082850101111561113257600080fd5b9250929050565b6001600160a01b038116811461079557600080fd5b60008083601f84011261116057600080fd5b50813567ffffffffffffffff81111561117857600080fd5b6020830191508360208260051b850101111561113257600080fd5b801515811461079557600080fd5b600080600080600080600080600060e08a8c0312156111bf57600080fd5b893567ffffffffffffffff808211156111d757600080fd5b6111e38d838e016110f0565b909b50995060208c013591506111f882611139565b90975060408b0135965060608b0135955060808b01359061121882611139565b90945060a08b0135908082111561122e57600080fd5b5061123b8c828d0161114e565b90945092505060c08a013561124f81611193565b809150509295985092959850929598565b634e487b7160e01b600052604160045260246000fd5b604051601f8201601f1916810167ffffffffffffffff8111828210171561129f5761129f611260565b604052919050565b600067ffffffffffffffff8211156112c1576112c1611260565b50601f01601f191660200190565b600082601f8301126112e057600080fd5b81356112f36112ee826112a7565b611276565b81815284602083860101111561130857600080fd5b816020850160208301376000918101602001919091529392505050565b60008060008060008060008060e0898b03121561134157600080fd5b883567ffffffffffffffff8082111561135957600080fd5b6113658c838d016112cf565b995060208b0135915061137782611139565b90975060408a0135965060608a0135955060808a01359061139782611139565b90945060a08a013590808211156113ad57600080fd5b506113ba8b828c0161114e565b90945092505060c08901356113ce81611193565b809150509295985092959890939650565b6000602082840312156113f157600080fd5b813561099381611139565b60008060006060848603121561141157600080fd5b833561141c81611139565b9250602084013561142c81611139565b929592945050506040919091013590565b60006020828403121561144f57600080fd5b5035919050565b6000806040838503121561146957600080fd5b823567ffffffffffffffff81111561148057600080fd5b61148c858286016112cf565b95602094909401359450505050565b6000602082840312156114ad57600080fd5b813567ffffffffffffffff8111156114c457600080fd5b6114d0848285016112cf565b949350505050565b6000806000604084860312156114ed57600080fd5b833567ffffffffffffffff81111561150457600080fd5b611510868287016110f0565b909790965060209590950135949350505050565b634e487b7160e01b600052601160045260246000fd5b8082018082111561043b5761043b611524565b8183823760009101908152919050565b60006020828403121561156f57600080fd5b5051919050565b81835281816020850137506000828201602090810191909152601f909101601f19169091010190565b6080815260006115b3608083018789611576565b602083019590955250604081019290925260609091015292915050565b8181038181111561043b5761043b611524565b81835260006020808501808196508560051b810191508460005b878110156116685782840389528135601e1988360301811261161e57600080fd5b8701858101903567ffffffffffffffff81111561163a57600080fd5b80360382131561164957600080fd5b611654868284611576565b9a87019a95505050908401906001016115fd565b5091979650505050505050565b8881526001600160a01b03888116602083015260408201889052606082018790528516608082015260e060a082018190526000906116b690830185876115e3565b905082151560c08301529998505050505050505050565b6000602082840312156116df57600080fd5b815161099381611193565b60005b838110156117055781810151838201526020016116ed565b50506000910152565b600081518084526117268160208601602086016116ea565b601f01601f19169290920160200192915050565b60408152600061174d604083018561170e565b90508260208301529392505050565b60006040828403121561176e57600080fd5b6040516040810181811067ffffffffffffffff8211171561179157611791611260565b604052825181526020928301519281019290925250919050565b6060815260006117bf606083018688611576565b6020830194909452506040015292915050565b602081526000610993602083018461170e565b8381526040602082015260006117ff6040830184866115e3565b95945050505050565b6000602080838503121561181b57600080fd5b825167ffffffffffffffff8082111561183357600080fd5b818501915085601f83011261184757600080fd5b81518181111561185957611859611260565b8060051b611868858201611276565b918252838101850191858101908984111561188257600080fd5b86860192505b838310156118fa578251858111156118a05760008081fd5b8601603f81018b136118b25760008081fd5b8781015160406118c46112ee836112a7565b8281528d828486010111156118d95760008081fd5b6118e8838c83018487016116ea565b85525050509186019190860190611888565b9998505050505050505050565b600082516119198184602087016116ea565b63173d35b360e11b920191825250600401919050565b6001600160a01b0385811682528481166020830152831660408201526080606082018190526000906119639083018461170e565b9695505050505050565b634e487b7160e01b600052603260045260246000fd5b60006001820161199557611995611524565b506001019056fea2646970667358221220f367fcb7895f53186e4def103fc971665777888d71e236bee11dc6fc83b91f2564736f6c63430008140033",
  "linkReferences": {},
  "deployedLinkReferences": {}
}