{
  "_format": "hh-sol-artifact-1",
  "contractName": "ZKFRegistrarController",
  "sourceName": "contracts/zkfregistrar/ZKFRegistrarController.sol",
  "abi": [
    {
      "inputs": [
        {
          "internalType": "contract BaseRegistrarImplementation",
          "name": "_base",
          "type": "address"
        },
        {
          "internalType": "contract IPriceOracle",
          "name": "_prices",
          "type": "address"
        },
        {
          "internalType": "uint256",
          "name": "_minCommitmentAge",
          "type": "uint256"
        },
        {
          "internalType": "uint256",
          "name": "_maxCommitmentAge",
          "type": "uint256"
        },
        {
          "internalType": "contract ReverseRegistrar",
          "name": "_reverseRegistrar",
          "type": "address"
        },
        {
          "internalType": "contract ENS",
          "name": "_ens",
          "type": "address"
        }
      ],
      "stateMutability": "nonpayable",
      "type": "constructor"
    },
    {
      "inputs": [
        {
          "internalType": "bytes32",
          "name": "commitment",
          "type": "bytes32"
        }
      ],
      "name": "CommitmentTooNew",
      "type": "error"
    },
    {
      "inputs": [
        {
          "internalType": "bytes32",
          "name": "commitment",
          "type": "bytes32"
        }
      ],
      "name": "CommitmentTooOld",
      "type": "error"
    },
    {
      "inputs": [
        {
          "internalType": "uint256",
          "name": "duration",
          "type": "uint256"
        }
      ],
      "name": "DurationTooShort",
      "type": "error"
    },
    {
      "inputs": [],
      "name": "InsufficientValue",
      "type": "error"
    },
    {
      "inputs": [],
      "name": "MaxCommitmentAgeTooHigh",
      "type": "error"
    },
    {
      "inputs": [],
      "name": "MaxCommitmentAgeTooLow",
      "type": "error"
    },
    {
      "inputs": [
        {
          "internalType": "string",
          "name": "name",
          "type": "string"
        }
      ],
      "name": "NameNotAvailable",
      "type": "error"
    },
    {
      "inputs": [
        {
          "internalType": "address",
          "name": "owner",
          "type": "address"
        }
      ],
      "name": "OwnableInvalidOwner",
      "type": "error"
    },
    {
      "inputs": [
        {
          "internalType": "address",
          "name": "account",
          "type": "address"
        }
      ],
      "name": "OwnableUnauthorizedAccount",
      "type": "error"
    },
    {
      "inputs": [],
      "name": "ResolverRequiredWhenDataSupplied",
      "type": "error"
    },
    {
      "inputs": [],
      "name": "ResolverRequiredWhenReverseRecord",
      "type": "error"
    },
    {
      "inputs": [
        {
          "internalType": "bytes32",
          "name": "commitment",
          "type": "bytes32"
        }
      ],
      "name": "UnexpiredCommitmentExists",
      "type": "error"
    },
    {
      "anonymous": false,
      "inputs": [
        {
          "indexed": false,
          "internalType": "string",
          "name": "name",
          "type": "string"
        },
        {
          "indexed": true,
          "internalType": "bytes32",
          "name": "label",
          "type": "bytes32"
        },
        {
          "indexed": true,
          "internalType": "address",
          "name": "owner",
          "type": "address"
        },
        {
          "indexed": false,
          "internalType": "uint256",
          "name": "baseCost",
          "type": "uint256"
        },
        {
          "indexed": false,
          "internalType": "uint256",
          "name": "premium",
          "type": "uint256"
        },
        {
          "indexed": false,
          "internalType": "uint256",
          "name": "expires",
          "type": "uint256"
        }
      ],
      "name": "NameRegistered",
      "type": "event"
    },
    {
      "anonymous": false,
      "inputs": [
        {
          "indexed": false,
          "internalType": "string",
          "name": "name",
          "type": "string"
        },
        {
          "indexed": true,
          "internalType": "bytes32",
          "name": "label",
          "type": "bytes32"
        },
        {
          "indexed": false,
          "internalType": "uint256",
          "name": "cost",
          "type": "uint256"
        },
        {
          "indexed": false,
          "internalType": "uint256",
          "name": "expires",
          "type": "uint256"
        }
      ],
      "name": "NameRenewed",
      "type": "event"
    },
    {
      "anonymous": false,
      "inputs": [
        {
          "indexed": true,
          "internalType": "address",
          "name": "previousOwner",
          "type": "address"
        },
        {
          "indexed": true,
          "internalType": "address",
          "name": "newOwner",
          "type": "address"
        }
      ],
      "name": "OwnershipTransferred",
      "type": "event"
    },
    {
      "inputs": [],
      "name": "MIN_REGISTRATION_DURATION",
      "outputs": [
        {
          "internalType": "uint256",
          "name": "",
          "type": "uint256"
        }
      ],
      "stateMutability": "view",
      "type": "function"
    },
    {
      "inputs": [
        {
          "internalType": "string",
          "name": "name",
          "type": "string"
        }
      ],
      "name": "available",
      "outputs": [
        {
          "internalType": "bool",
          "name": "",
          "type": "bool"
        }
      ],
      "stateMutability": "view",
      "type": "function"
    },
    {
      "inputs": [
        {
          "internalType": "bytes32",
          "name": "commitment",
          "type": "bytes32"
        }
      ],
      "name": "commit",
      "outputs": [],
      "stateMutability": "nonpayable",
      "type": "function"
    },
    {
      "inputs": [
        {
          "internalType": "bytes32",
          "name": "",
          "type": "bytes32"
        }
      ],
      "name": "commitments",
      "outputs": [
        {
          "internalType": "uint256",
          "name": "",
          "type": "uint256"
        }
      ],
      "stateMutability": "view",
      "type": "function"
    },
    {
      "inputs": [
        {
          "internalType": "string",
          "name": "name",
          "type": "string"
        },
        {
          "internalType": "address",
          "name": "owner",
          "type": "address"
        },
        {
          "internalType": "uint256",
          "name": "duration",
          "type": "uint256"
        },
        {
          "internalType": "bytes32",
          "name": "secret",
          "type": "bytes32"
        },
        {
          "internalType": "address",
          "name": "resolver",
          "type": "address"
        },
        {
          "internalType": "bytes[]",
          "name": "data",
          "type": "bytes[]"
        },
        {
          "internalType": "bool",
          "name": "reverseRecord",
          "type": "bool"
        }
      ],
      "name": "makeCommitment",
      "outputs": [
        {
          "internalType": "bytes32",
          "name": "",
          "type": "bytes32"
        }
      ],
      "stateMutability": "pure",
      "type": "function"
    },
    {
      "inputs": [],
      "name": "maxCommitmentAge",
      "outputs": [
        {
          "internalType": "uint256",
          "name": "",
          "type": "uint256"
        }
      ],
      "stateMutability": "view",
      "type": "function"
    },
    {
      "inputs": [],
      "name": "minCommitmentAge",
      "outputs": [
        {
          "internalType": "uint256",
          "name": "",
          "type": "uint256"
        }
      ],
      "stateMutability": "view",
      "type": "function"
    },
    {
      "inputs": [],
      "name": "owner",
      "outputs": [
        {
          "internalType": "address",
          "name": "",
          "type": "address"
        }
      ],
      "stateMutability": "view",
      "type": "function"
    },
    {
      "inputs": [],
      "name": "prices",
      "outputs": [
        {
          "internalType": "contract IPriceOracle",
          "name": "",
          "type": "address"
        }
      ],
      "stateMutability": "view",
      "type": "function"
    },
    {
      "inputs": [
        {
          "internalType": "address",
          "name": "_token",
          "type": "address"
        },
        {
          "internalType": "address",
          "name": "_to",
          "type": "address"
        },
        {
          "internalType": "uint256",
          "name": "_amount",
          "type": "uint256"
        }
      ],
      "name": "recoverFunds",
      "outputs": [],
      "stateMutability": "nonpayable",
      "type": "function"
    },
    {
      "inputs": [
        {
          "internalType": "string",
          "name": "name",
          "type": "string"
        },
        {
          "internalType": "address",
          "name": "owner",
          "type": "address"
        },
        {
          "internalType": "uint256",
          "name": "duration",
          "type": "uint256"
        },
        {
          "internalType": "bytes32",
          "name": "secret",
          "type": "bytes32"
        },
        {
          "internalType": "address",
          "name": "resolver",
          "type": "address"
        },
        {
          "internalType": "bytes[]",
          "name": "data",
          "type": "bytes[]"
        },
        {
          "internalType": "bool",
          "name": "reverseRecord",
          "type": "bool"
        }
      ],
      "name": "register",
      "outputs": [],
      "stateMutability": "payable",
      "type": "function"
    },
    {
      "inputs": [
        {
          "internalType": "string",
          "name": "name",
          "type": "string"
        },
        {
          "internalType": "uint256",
          "name": "duration",
          "type": "uint256"
        }
      ],
      "name": "renew",
      "outputs": [],
      "stateMutability": "payable",
      "type": "function"
    },
    {
      "inputs": [],
      "name": "renounceOwnership",
      "outputs": [],
      "stateMutability": "nonpayable",
      "type": "function"
    },
    {
      "inputs": [
        {
          "internalType": "string",
          "name": "name",
          "type": "string"
        },
        {
          "internalType": "uint256",
          "name": "duration",
          "type": "uint256"
        }
      ],
      "name": "rentPrice",
      "outputs": [
        {
          "components": [
            {
              "internalType": "uint256",
              "name": "base",
              "type": "uint256"
            },
            {
              "internalType": "uint256",
              "name": "premium",
              "type": "uint256"
            }
          ],
          "internalType": "struct IPriceOracle.Price",
          "name": "price",
          "type": "tuple"
        }
      ],
      "stateMutability": "view",
      "type": "function"
    },
    {
      "inputs": [],
      "name": "reverseRegistrar",
      "outputs": [
        {
          "internalType": "contract ReverseRegistrar",
          "name": "",
          "type": "address"
        }
      ],
      "stateMutability": "view",
      "type": "function"
    },
    {
      "inputs": [
        {
          "internalType": "uint256",
          "name": "age",
          "type": "uint256"
        }
      ],
      "name": "setMaxCommitAge",
      "outputs": [],
      "stateMutability": "nonpayable",
      "type": "function"
    },
    {
      "inputs": [
        {
          "internalType": "uint256",
          "name": "age",
          "type": "uint256"
        }
      ],
      "name": "setMinCommitAge",
      "outputs": [],
      "stateMutability": "nonpayable",
      "type": "function"
    },
    {
      "inputs": [
        {
          "internalType": "contract IPriceOracle",
          "name": "_prices",
          "type": "address"
        }
      ],
      "name": "setPriceOracle",
      "outputs": [],
      "stateMutability": "nonpayable",
      "type": "function"
    },
    {
      "inputs": [
        {
          "internalType": "bytes4",
          "name": "interfaceID",
          "type": "bytes4"
        }
      ],
      "name": "supportsInterface",
      "outputs": [
        {
          "internalType": "bool",
          "name": "",
          "type": "bool"
        }
      ],
      "stateMutability": "pure",
      "type": "function"
    },
    {
      "inputs": [
        {
          "internalType": "address",
          "name": "newOwner",
          "type": "address"
        }
      ],
      "name": "transferOwnership",
      "outputs": [],
      "stateMutability": "nonpayable",
      "type": "function"
    },
    {
      "inputs": [
        {
          "internalType": "string",
          "name": "name",
          "type": "string"
        }
      ],
      "name": "valid",
      "outputs": [
        {
          "internalType": "bool",
          "name": "",
          "type": "bool"
        }
      ],
      "stateMutability": "pure",
      "type": "function"
    },
    {
      "inputs": [],
      "name": "withdraw",
      "outputs": [],
      "stateMutability": "nonpayable",
      "type": "function"
    }
  ],
  "bytecode": "0x60c06040523480156200001157600080fd5b5060405162001cd938038062001cd9833981016040819052620000349162000254565b803380806200005d57604051631e4fbdf760e01b81526000600482015260240160405180910390fd5b6200006881620001eb565b506040516302571be360e01b81527f91d1777781884d03a6757a803996e38de2a42967fb37eeaca72729271025a9e260048201526000906001600160a01b038416906302571be390602401602060405180830381865afa158015620000d1573d6000803e3d6000fd5b505050506040513d601f19601f82011682018060405250810190620000f79190620002d1565b604051630f41a04d60e11b81526001600160a01b03848116600483015291925090821690631e83409a906024016020604051808303816000875af115801562000144573d6000803e3d6000fd5b505050506040513d601f19601f820116820180604052508101906200016a9190620002f8565b505050508383116200018f576040516307cb550760e31b815260040160405180910390fd5b42831115620001b157604051630b4319e560e21b815260040160405180910390fd5b506001600160a01b03948516608052600180546001600160a01b031916948616949094179093556002919091556003551660a05262000312565b600080546001600160a01b038381166001600160a01b0319831681178455604051919092169283917f8be0079c531659141344cd1fd0a4f28419497f9722a3daafe3b4186f6b6457e09190a35050565b6001600160a01b03811681146200025157600080fd5b50565b60008060008060008060c087890312156200026e57600080fd5b86516200027b816200023b565b60208801519096506200028e816200023b565b8095505060408701519350606087015192506080870151620002b0816200023b565b60a0880151909250620002c3816200023b565b809150509295509295509295565b600060208284031215620002e457600080fd5b8151620002f1816200023b565b9392505050565b6000602082840312156200030b57600080fd5b5051919050565b60805160a05161198c6200034d6000396000818161024e0152610e510152600081816105a901528181610a6d0152610ba1015261198c6000f3fe6080604052600436106101355760003560e01c80638a95b09f116100ab578063acf1a8411161006f578063acf1a8411461037b578063aeb8ce9b1461038e578063ce1e09c0146103ae578063d3419bf3146103c4578063f14fcbc8146103e4578063f2fde38b1461040457600080fd5b80638a95b09f146102f05780638d839ffe146103075780638da5cb5b1461031d5780639791c0971461033b57806398709bbb1461035b57600080fd5b8063530e784f116100fd578063530e784f146101e75780635d3590d514610207578063715018a614610227578063808698531461023c578063839df9451461028857806383e7f6ff146102b557600080fd5b806301ffc9a71461013a57806320ca6cbe1461016f578063237592e8146101915780633ccfd60b146101a45780633d4aa89e146101b9575b600080fd5b34801561014657600080fd5b5061015a610155366004611083565b610424565b60405190151581526020015b60405180910390f35b34801561017b57600080fd5b5061018f61018a3660046110ad565b600255565b005b61018f61019f366004611177565b61045b565b3480156101b057600080fd5b5061018f61076d565b3480156101c557600080fd5b506101d96101d43660046112fb565b6107b2565b604051908152602001610166565b3480156101f357600080fd5b5061018f6102023660046113b5565b61086b565b34801561021357600080fd5b5061018f6102223660046113d2565b610895565b34801561023357600080fd5b5061018f610916565b34801561024857600080fd5b506102707f000000000000000000000000000000000000000000000000000000000000000081565b6040516001600160a01b039091168152602001610166565b34801561029457600080fd5b506101d96102a33660046110ad565b60046020526000908152604090205481565b3480156102c157600080fd5b506102d56102d0366004611413565b61092a565b60408051825181526020928301519281019290925201610166565b3480156102fc57600080fd5b506101d96224ea0081565b34801561031357600080fd5b506101d960025481565b34801561032957600080fd5b506000546001600160a01b0316610270565b34801561034757600080fd5b5061015a610356366004611458565b6109b4565b34801561036757600080fd5b5061018f6103763660046110ad565b600355565b61018f610389366004611495565b6109c9565b34801561039a57600080fd5b5061015a6103a9366004611458565b610b71565b3480156103ba57600080fd5b506101d960035481565b3480156103d057600080fd5b50600154610270906001600160a01b031681565b3480156103f057600080fd5b5061018f6103ff3660046110ad565b610c14565b34801561041057600080fd5b5061018f61041f3660046113b5565b610c6a565b60006001600160e01b031982166301ffc9a760e01b148061045557506001600160e01b031982166338acdd5360e21b145b92915050565b600061049e8a8a8080601f0160208091040260200160405190810160405280939291908181526020018383808284376000920191909152508b925061092a915050565b602081015181519192506104b1916114f7565b3410156104d15760405163044044a560e21b815260040160405180910390fd5b6105678a8a8080601f016020809104026020016040519081016040528093929190818152602001838380828437600081840152601f19601f82011690508083019250505050505050886105628d8d8080601f0160208091040260200160405190810160405280939291908181526020018383808284376000920191909152508f92508e91508d90508c8c8c8c6107b2565b610ca5565b60008a8a60405161057992919061150a565b604051908190038120633f2891eb60e21b825260048201819052336024830152604482018a9052915081906000907f00000000000000000000000000000000000000000000000000000000000000006001600160a01b03169063fca247ac906064016020604051808303816000875af11580156105fa573d6000803e3d6000fd5b505050506040513d601f19601f8201168201806040525081019061061e919061151a565b9050851561064957610649888e8e60405161063a92919061150a565b60405180910390208989610d85565b8415610692576106928d8d8080601f0160208091040260200160405190810160405280939291908181526020018383808284376000920191909152508c9250339150610e4f9050565b8a6001600160a01b03168d8d6040516106ac92919061150a565b60405180910390207f69e37f151eb98a09618ddaa80c8cfaf1ce5996867c489f45b555b412271ebf278f8f88600001518960200151876040516106f395949392919061155c565b60405180910390a36020840151845161070c91906114f7565b34111561075e576020840151845133916108fc9161072a91906114f7565b610734903461158d565b6040518115909202916000818181858888f1935050505015801561075c573d6000803e3d6000fd5b505b50505050505050505050505050565b610775610f03565b600080546040516001600160a01b03909116914780156108fc02929091818181858888f193505050501580156107af573d6000803e3d6000fd5b50565b875160208901206000906001600160a01b0386161580156107d557506001831515145b156107f357604051632036c8bb60e11b815260040160405180910390fd5b831580159061080957506001600160a01b038616155b15610827576040516334fd817160e21b815260040160405180910390fd5b808989898989898960405160200161084698979695949392919061162f565b6040516020818303038152906040528051906020012091505098975050505050505050565b610873610f03565b600180546001600160a01b0319166001600160a01b0392909216919091179055565b61089d610f03565b60405163a9059cbb60e01b81526001600160a01b0383811660048301526024820183905284169063a9059cbb906044016020604051808303816000875af11580156108ec573d6000803e3d6000fd5b505050506040513d601f19601f820116820180604052508101906109109190611687565b50505050565b61091e610f03565b6109286000610f30565b565b60408051808201825260008082526020820152600154915162cdcc4d60e51b815290916001600160a01b0316906319b989a09061096d90869086906004016116f4565b6040805180830381865afa158015610989573d6000803e3d6000fd5b505050506040513d601f19601f820116820180604052508101906109ad9190611716565b9392505050565b600060026109c183610f80565b101592915050565b600083836040516109db92919061150a565b604080519182900382206020601f870181900481028401810190925285835292508291600091610a289190889088908190840183828082843760009201919091525088925061092a915050565b8051909150341015610a4d5760405163044044a560e21b815260040160405180910390fd5b60405163c475abff60e01b815260048101839052602481018590526000907f00000000000000000000000000000000000000000000000000000000000000006001600160a01b03169063c475abff906044016020604051808303816000875af1158015610abe573d6000803e3d6000fd5b505050506040513d601f19601f82011682018060405250810190610ae2919061151a565b8251909150341115610b2a57815133906108fc90610b00903461158d565b6040518115909202916000818181858888f19350505050158015610b28573d6000803e3d6000fd5b505b837f3da24c024582931cfaf8267d8ed24d13a82a8068d5bd337d30ec45cea4e506ae88883485604051610b609493929190611765565b60405180910390a250505050505050565b80516020820120600090610b84836109b4565b80156109ad57506040516312dc929d60e31b8152600481018290527f00000000000000000000000000000000000000000000000000000000000000006001600160a01b0316906396e494e890602401602060405180830381865afa158015610bf0573d6000803e3d6000fd5b505050506040513d601f19601f820116820180604052508101906109ad9190611687565b6003546000828152600460205260409020544291610c31916114f7565b10610c5757604051630a059d7160e01b8152600481018290526024015b60405180910390fd5b6000908152600460205260409020429055565b610c72610f03565b6001600160a01b038116610c9c57604051631e4fbdf760e01b815260006004820152602401610c4e565b6107af81610f30565b6002546000828152600460205260409020544291610cc2916114f7565b1115610ce457604051635320bcf960e01b815260048101829052602401610c4e565b6003546000828152600460205260409020544291610d01916114f7565b11610d225760405163cb7690d760e01b815260048101829052602401610c4e565b610d2b83610b71565b610d4a57826040516308eee0fd60e31b8152600401610c4e919061178c565b6000818152600460205260408120556224ea00821015610d8057604051639a71997b60e01b815260048101839052602401610c4e565b505050565b604080517ffb5f84575b89b73c6f6a4b64bfa657505766152eaf7a7bdcc4ffe2c678d728256020808301919091528183018690528251808303840181526060830193849052805191012063e32954eb60e01b90925285906001600160a01b0382169063e32954eb90610dff9085908890889060640161179f565b6000604051808303816000875af1158015610e1e573d6000803e3d6000fd5b505050506040513d6000823e601f3d908101601f19168201604052610e4691908101906117c2565b50505050505050565b7f00000000000000000000000000000000000000000000000000000000000000006001600160a01b0316637a806d6b33838587604051602001610e9291906118c1565b6040516020818303038152906040526040518563ffffffff1660e01b8152600401610ec094939291906118e9565b6020604051808303816000875af1158015610edf573d6000803e3d6000fd5b505050506040513d601f19601f82011682018060405250810190610910919061151a565b6000546001600160a01b031633146109285760405163118cdaa760e01b8152336004820152602401610c4e565b600080546001600160a01b038381166001600160a01b0319831681178455604051919092169283917f8be0079c531659141344cd1fd0a4f28419497f9722a3daafe3b4186f6b6457e09190a35050565b8051600090819081905b8082101561107a576000858381518110610fa657610fa6611927565b01602001516001600160f81b0319169050600160ff1b811015610fd557610fce6001846114f7565b9250611067565b600760fd1b6001600160f81b031982161015610ff657610fce6002846114f7565b600f60fc1b6001600160f81b03198216101561101757610fce6003846114f7565b601f60fb1b6001600160f81b03198216101561103857610fce6004846114f7565b603f60fa1b6001600160f81b03198216101561105957610fce6005846114f7565b6110646006846114f7565b92505b50826110728161193d565b935050610f8a565b50909392505050565b60006020828403121561109557600080fd5b81356001600160e01b0319811681146109ad57600080fd5b6000602082840312156110bf57600080fd5b5035919050565b60008083601f8401126110d857600080fd5b50813567ffffffffffffffff8111156110f057600080fd5b60208301915083602082850101111561110857600080fd5b9250929050565b6001600160a01b03811681146107af57600080fd5b60008083601f84011261113657600080fd5b50813567ffffffffffffffff81111561114e57600080fd5b6020830191508360208260051b850101111561110857600080fd5b80151581146107af57600080fd5b600080600080600080600080600060e08a8c03121561119557600080fd5b893567ffffffffffffffff808211156111ad57600080fd5b6111b98d838e016110c6565b909b50995060208c013591506111ce8261110f565b90975060408b0135965060608b0135955060808b0135906111ee8261110f565b90945060a08b0135908082111561120457600080fd5b506112118c828d01611124565b90945092505060c08a013561122581611169565b809150509295985092959850929598565b634e487b7160e01b600052604160045260246000fd5b604051601f8201601f1916810167ffffffffffffffff8111828210171561127557611275611236565b604052919050565b600067ffffffffffffffff82111561129757611297611236565b50601f01601f191660200190565b600082601f8301126112b657600080fd5b81356112c96112c48261127d565b61124c565b8181528460208386010111156112de57600080fd5b816020850160208301376000918101602001919091529392505050565b60008060008060008060008060e0898b03121561131757600080fd5b883567ffffffffffffffff8082111561132f57600080fd5b61133b8c838d016112a5565b995060208b0135915061134d8261110f565b90975060408a0135965060608a0135955060808a01359061136d8261110f565b90945060a08a0135908082111561138357600080fd5b506113908b828c01611124565b90945092505060c08901356113a481611169565b809150509295985092959890939650565b6000602082840312156113c757600080fd5b81356109ad8161110f565b6000806000606084860312156113e757600080fd5b83356113f28161110f565b925060208401356114028161110f565b929592945050506040919091013590565b6000806040838503121561142657600080fd5b823567ffffffffffffffff81111561143d57600080fd5b611449858286016112a5565b95602094909401359450505050565b60006020828403121561146a57600080fd5b813567ffffffffffffffff81111561148157600080fd5b61148d848285016112a5565b949350505050565b6000806000604084860312156114aa57600080fd5b833567ffffffffffffffff8111156114c157600080fd5b6114cd868287016110c6565b909790965060209590950135949350505050565b634e487b7160e01b600052601160045260246000fd5b80820180821115610455576104556114e1565b8183823760009101908152919050565b60006020828403121561152c57600080fd5b5051919050565b81835281816020850137506000828201602090810191909152601f909101601f19169091010190565b608081526000611570608083018789611533565b602083019590955250604081019290925260609091015292915050565b81810381811115610455576104556114e1565b818352600060208085019450848460051b86018460005b878110156116225783830389528135601e198836030181126115d857600080fd5b8701858101903567ffffffffffffffff8111156115f457600080fd5b80360382131561160357600080fd5b61160e858284611533565b9a87019a94505050908401906001016115b7565b5090979650505050505050565b8881526001600160a01b03888116602083015260408201889052606082018790528516608082015260e060a0820181905260009061167090830185876115a0565b905082151560c08301529998505050505050505050565b60006020828403121561169957600080fd5b81516109ad81611169565b60005b838110156116bf5781810151838201526020016116a7565b50506000910152565b600081518084526116e08160208601602086016116a4565b601f01601f19169290920160200192915050565b60408152600061170760408301856116c8565b90508260208301529392505050565b60006040828403121561172857600080fd5b6040516040810181811067ffffffffffffffff8211171561174b5761174b611236565b604052825181526020928301519281019290925250919050565b606081526000611779606083018688611533565b6020830194909452506040015292915050565b6020815260006109ad60208301846116c8565b8381526040602082015260006117b96040830184866115a0565b95945050505050565b600060208083850312156117d557600080fd5b825167ffffffffffffffff808211156117ed57600080fd5b818501915085601f83011261180157600080fd5b81518181111561181357611813611236565b8060051b61182285820161124c565b918252838101850191858101908984111561183c57600080fd5b86860192505b838310156118b45782518581111561185a5760008081fd5b8601603f81018b1361186c5760008081fd5b87810151604061187e6112c48361127d565b8281528d828486010111156118935760008081fd5b6118a2838c83018487016116a4565b85525050509186019190860190611842565b9998505050505050505050565b600082516118d38184602087016116a4565b63173d35b360e11b920191825250600401919050565b6001600160a01b03858116825284811660208301528316604082015260806060820181905260009061191d908301846116c8565b9695505050505050565b634e487b7160e01b600052603260045260246000fd5b60006001820161194f5761194f6114e1565b506001019056fea2646970667358221220d8ca4973b867fe64b5d547d1225619d836fb4b1e81e41aad39ef33d55685857664736f6c63430008140033",
  "linkReferences": {},
  "deployedLinkReferences": {}
}