{
  "_format": "hh-sol-artifact-1",
  "contractName": "ZKFRegistrarController",
  "sourceName": "contracts/zkfregistrar/ZKFRegistrarController.sol",
  "abi": [
    {
      "inputs": [
        {
          "internalType": "contract BaseRegistrarImplementation",
          "name": "_base",
          "type": "address"
        },
        {
          "internalType": "contract IPriceOracle",
          "name": "_prices",
          "type": "address"
        },
        {
          "internalType": "uint256",
          "name": "_minCommitmentAge",
          "type": "uint256"
        },
        {
          "internalType": "uint256",
          "name": "_maxCommitmentAge",
          "type": "uint256"
        },
        {
          "internalType": "contract ReverseRegistrar",
          "name": "_reverseRegistrar",
          "type": "address"
        },
        {
          "internalType": "contract ENS",
          "name": "_ens",
          "type": "address"
        }
      ],
      "stateMutability": "nonpayable",
      "type": "constructor"
    },
    {
      "inputs": [
        {
          "internalType": "bytes32",
          "name": "commitment",
          "type": "bytes32"
        }
      ],
      "name": "CommitmentTooNew",
      "type": "error"
    },
    {
      "inputs": [
        {
          "internalType": "bytes32",
          "name": "commitment",
          "type": "bytes32"
        }
      ],
      "name": "CommitmentTooOld",
      "type": "error"
    },
    {
      "inputs": [
        {
          "internalType": "uint256",
          "name": "duration",
          "type": "uint256"
        }
      ],
      "name": "DurationTooShort",
      "type": "error"
    },
    {
      "inputs": [],
      "name": "InsufficientValue",
      "type": "error"
    },
    {
      "inputs": [],
      "name": "MaxCommitmentAgeTooHigh",
      "type": "error"
    },
    {
      "inputs": [],
      "name": "MaxCommitmentAgeTooLow",
      "type": "error"
    },
    {
      "inputs": [
        {
          "internalType": "string",
          "name": "name",
          "type": "string"
        }
      ],
      "name": "NameNotAvailable",
      "type": "error"
    },
    {
      "inputs": [
        {
          "internalType": "address",
          "name": "owner",
          "type": "address"
        }
      ],
      "name": "OwnableInvalidOwner",
      "type": "error"
    },
    {
      "inputs": [
        {
          "internalType": "address",
          "name": "account",
          "type": "address"
        }
      ],
      "name": "OwnableUnauthorizedAccount",
      "type": "error"
    },
    {
      "inputs": [],
      "name": "ResolverRequiredWhenDataSupplied",
      "type": "error"
    },
    {
      "inputs": [],
      "name": "ResolverRequiredWhenReverseRecord",
      "type": "error"
    },
    {
      "inputs": [
        {
          "internalType": "bytes32",
          "name": "commitment",
          "type": "bytes32"
        }
      ],
      "name": "UnexpiredCommitmentExists",
      "type": "error"
    },
    {
      "anonymous": false,
      "inputs": [
        {
          "indexed": false,
          "internalType": "string",
          "name": "name",
          "type": "string"
        },
        {
          "indexed": true,
          "internalType": "bytes32",
          "name": "label",
          "type": "bytes32"
        },
        {
          "indexed": true,
          "internalType": "address",
          "name": "owner",
          "type": "address"
        },
        {
          "indexed": false,
          "internalType": "uint256",
          "name": "baseCost",
          "type": "uint256"
        },
        {
          "indexed": false,
          "internalType": "uint256",
          "name": "premium",
          "type": "uint256"
        },
        {
          "indexed": false,
          "internalType": "uint256",
          "name": "expires",
          "type": "uint256"
        }
      ],
      "name": "NameRegistered",
      "type": "event"
    },
    {
      "anonymous": false,
      "inputs": [
        {
          "indexed": false,
          "internalType": "string",
          "name": "name",
          "type": "string"
        },
        {
          "indexed": true,
          "internalType": "bytes32",
          "name": "label",
          "type": "bytes32"
        },
        {
          "indexed": false,
          "internalType": "uint256",
          "name": "cost",
          "type": "uint256"
        },
        {
          "indexed": false,
          "internalType": "uint256",
          "name": "expires",
          "type": "uint256"
        }
      ],
      "name": "NameRenewed",
      "type": "event"
    },
    {
      "anonymous": false,
      "inputs": [
        {
          "indexed": true,
          "internalType": "address",
          "name": "previousOwner",
          "type": "address"
        },
        {
          "indexed": true,
          "internalType": "address",
          "name": "newOwner",
          "type": "address"
        }
      ],
      "name": "OwnershipTransferred",
      "type": "event"
    },
    {
      "inputs": [],
      "name": "MIN_REGISTRATION_DURATION",
      "outputs": [
        {
          "internalType": "uint256",
          "name": "",
          "type": "uint256"
        }
      ],
      "stateMutability": "view",
      "type": "function"
    },
    {
      "inputs": [
        {
          "internalType": "string",
          "name": "name",
          "type": "string"
        }
      ],
      "name": "available",
      "outputs": [
        {
          "internalType": "bool",
          "name": "",
          "type": "bool"
        }
      ],
      "stateMutability": "view",
      "type": "function"
    },
    {
      "inputs": [
        {
          "internalType": "bytes32",
          "name": "commitment",
          "type": "bytes32"
        }
      ],
      "name": "commit",
      "outputs": [],
      "stateMutability": "nonpayable",
      "type": "function"
    },
    {
      "inputs": [
        {
          "internalType": "bytes32",
          "name": "",
          "type": "bytes32"
        }
      ],
      "name": "commitments",
      "outputs": [
        {
          "internalType": "uint256",
          "name": "",
          "type": "uint256"
        }
      ],
      "stateMutability": "view",
      "type": "function"
    },
    {
      "inputs": [
        {
          "internalType": "string",
          "name": "name",
          "type": "string"
        },
        {
          "internalType": "address",
          "name": "owner",
          "type": "address"
        },
        {
          "internalType": "uint256",
          "name": "duration",
          "type": "uint256"
        },
        {
          "internalType": "bytes32",
          "name": "secret",
          "type": "bytes32"
        },
        {
          "internalType": "address",
          "name": "resolver",
          "type": "address"
        },
        {
          "internalType": "bytes[]",
          "name": "data",
          "type": "bytes[]"
        },
        {
          "internalType": "bool",
          "name": "reverseRecord",
          "type": "bool"
        }
      ],
      "name": "makeCommitment",
      "outputs": [
        {
          "internalType": "bytes32",
          "name": "",
          "type": "bytes32"
        }
      ],
      "stateMutability": "pure",
      "type": "function"
    },
    {
      "inputs": [],
      "name": "maxCommitmentAge",
      "outputs": [
        {
          "internalType": "uint256",
          "name": "",
          "type": "uint256"
        }
      ],
      "stateMutability": "view",
      "type": "function"
    },
    {
      "inputs": [],
      "name": "minCommitmentAge",
      "outputs": [
        {
          "internalType": "uint256",
          "name": "",
          "type": "uint256"
        }
      ],
      "stateMutability": "view",
      "type": "function"
    },
    {
      "inputs": [],
      "name": "owner",
      "outputs": [
        {
          "internalType": "address",
          "name": "",
          "type": "address"
        }
      ],
      "stateMutability": "view",
      "type": "function"
    },
    {
      "inputs": [],
      "name": "prices",
      "outputs": [
        {
          "internalType": "contract IPriceOracle",
          "name": "",
          "type": "address"
        }
      ],
      "stateMutability": "view",
      "type": "function"
    },
    {
      "inputs": [
        {
          "internalType": "address",
          "name": "_token",
          "type": "address"
        },
        {
          "internalType": "address",
          "name": "_to",
          "type": "address"
        },
        {
          "internalType": "uint256",
          "name": "_amount",
          "type": "uint256"
        }
      ],
      "name": "recoverFunds",
      "outputs": [],
      "stateMutability": "nonpayable",
      "type": "function"
    },
    {
      "inputs": [
        {
          "internalType": "string",
          "name": "name",
          "type": "string"
        },
        {
          "internalType": "address",
          "name": "owner",
          "type": "address"
        },
        {
          "internalType": "uint256",
          "name": "duration",
          "type": "uint256"
        },
        {
          "internalType": "bytes32",
          "name": "secret",
          "type": "bytes32"
        },
        {
          "internalType": "address",
          "name": "resolver",
          "type": "address"
        },
        {
          "internalType": "bytes[]",
          "name": "data",
          "type": "bytes[]"
        },
        {
          "internalType": "bool",
          "name": "reverseRecord",
          "type": "bool"
        }
      ],
      "name": "register",
      "outputs": [],
      "stateMutability": "payable",
      "type": "function"
    },
    {
      "inputs": [
        {
          "internalType": "string",
          "name": "name",
          "type": "string"
        },
        {
          "internalType": "uint256",
          "name": "duration",
          "type": "uint256"
        }
      ],
      "name": "renew",
      "outputs": [],
      "stateMutability": "payable",
      "type": "function"
    },
    {
      "inputs": [],
      "name": "renounceOwnership",
      "outputs": [],
      "stateMutability": "nonpayable",
      "type": "function"
    },
    {
      "inputs": [
        {
          "internalType": "string",
          "name": "name",
          "type": "string"
        },
        {
          "internalType": "uint256",
          "name": "duration",
          "type": "uint256"
        }
      ],
      "name": "rentPrice",
      "outputs": [
        {
          "components": [
            {
              "internalType": "uint256",
              "name": "base",
              "type": "uint256"
            },
            {
              "internalType": "uint256",
              "name": "premium",
              "type": "uint256"
            }
          ],
          "internalType": "struct IPriceOracle.Price",
          "name": "price",
          "type": "tuple"
        }
      ],
      "stateMutability": "view",
      "type": "function"
    },
    {
      "inputs": [],
      "name": "reverseRegistrar",
      "outputs": [
        {
          "internalType": "contract ReverseRegistrar",
          "name": "",
          "type": "address"
        }
      ],
      "stateMutability": "view",
      "type": "function"
    },
    {
      "inputs": [
        {
          "internalType": "contract IPriceOracle",
          "name": "_prices",
          "type": "address"
        }
      ],
      "name": "setPriceOracle",
      "outputs": [],
      "stateMutability": "nonpayable",
      "type": "function"
    },
    {
      "inputs": [
        {
          "internalType": "bytes4",
          "name": "interfaceID",
          "type": "bytes4"
        }
      ],
      "name": "supportsInterface",
      "outputs": [
        {
          "internalType": "bool",
          "name": "",
          "type": "bool"
        }
      ],
      "stateMutability": "pure",
      "type": "function"
    },
    {
      "inputs": [
        {
          "internalType": "address",
          "name": "newOwner",
          "type": "address"
        }
      ],
      "name": "transferOwnership",
      "outputs": [],
      "stateMutability": "nonpayable",
      "type": "function"
    },
    {
      "inputs": [
        {
          "internalType": "string",
          "name": "name",
          "type": "string"
        }
      ],
      "name": "valid",
      "outputs": [
        {
          "internalType": "bool",
          "name": "",
          "type": "bool"
        }
      ],
      "stateMutability": "pure",
      "type": "function"
    },
    {
      "inputs": [],
      "name": "withdraw",
      "outputs": [],
      "stateMutability": "nonpayable",
      "type": "function"
    }
  ],
  "bytecode": "0x6101006040523480156200001257600080fd5b506040516200323738038062003237833981810160405281019062000038919062000573565b803333600073ffffffffffffffffffffffffffffffffffffffff168173ffffffffffffffffffffffffffffffffffffffff1603620000b05760006040517f1e4fbdf7000000000000000000000000000000000000000000000000000000008152600401620000a7919062000620565b60405180910390fd5b620000c1816200032760201b60201c565b5060008273ffffffffffffffffffffffffffffffffffffffff166302571be37f91d1777781884d03a6757a803996e38de2a42967fb37eeaca72729271025a9e260001b6040518263ffffffff1660e01b815260040162000122919062000658565b602060405180830381865afa15801562000140573d6000803e3d6000fd5b505050506040513d601f19601f82011682018060405250810190620001669190620006a6565b90508073ffffffffffffffffffffffffffffffffffffffff16631e83409a836040518263ffffffff1660e01b8152600401620001a3919062000620565b6020604051808303816000875af1158015620001c3573d6000803e3d6000fd5b505050506040513d601f19601f82011682018060405250810190620001e9919062000709565b5050505083831162000227576040517f3e5aa83800000000000000000000000000000000000000000000000000000000815260040160405180910390fd5b4283111562000262576040517f2d0c679400000000000000000000000000000000000000000000000000000000815260040160405180910390fd5b8573ffffffffffffffffffffffffffffffffffffffff1660808173ffffffffffffffffffffffffffffffffffffffff168152505084600160006101000a81548173ffffffffffffffffffffffffffffffffffffffff021916908373ffffffffffffffffffffffffffffffffffffffff1602179055508360a081815250508260c081815250508173ffffffffffffffffffffffffffffffffffffffff1660e08173ffffffffffffffffffffffffffffffffffffffff16815250505050505050506200073b565b60008060009054906101000a900473ffffffffffffffffffffffffffffffffffffffff169050816000806101000a81548173ffffffffffffffffffffffffffffffffffffffff021916908373ffffffffffffffffffffffffffffffffffffffff1602179055508173ffffffffffffffffffffffffffffffffffffffff168173ffffffffffffffffffffffffffffffffffffffff167f8be0079c531659141344cd1fd0a4f28419497f9722a3daafe3b4186f6b6457e060405160405180910390a35050565b600080fd5b600073ffffffffffffffffffffffffffffffffffffffff82169050919050565b60006200041d82620003f0565b9050919050565b6000620004318262000410565b9050919050565b620004438162000424565b81146200044f57600080fd5b50565b600081519050620004638162000438565b92915050565b6000620004768262000410565b9050919050565b620004888162000469565b81146200049457600080fd5b50565b600081519050620004a8816200047d565b92915050565b6000819050919050565b620004c381620004ae565b8114620004cf57600080fd5b50565b600081519050620004e381620004b8565b92915050565b6000620004f68262000410565b9050919050565b6200050881620004e9565b81146200051457600080fd5b50565b6000815190506200052881620004fd565b92915050565b60006200053b8262000410565b9050919050565b6200054d816200052e565b81146200055957600080fd5b50565b6000815190506200056d8162000542565b92915050565b60008060008060008060c08789031215620005935762000592620003eb565b5b6000620005a389828a0162000452565b9650506020620005b689828a0162000497565b9550506040620005c989828a01620004d2565b9450506060620005dc89828a01620004d2565b9350506080620005ef89828a0162000517565b92505060a06200060289828a016200055c565b9150509295509295509295565b6200061a8162000410565b82525050565b60006020820190506200063760008301846200060f565b92915050565b6000819050919050565b62000652816200063d565b82525050565b60006020820190506200066f600083018462000647565b92915050565b620006808162000410565b81146200068c57600080fd5b50565b600081519050620006a08162000675565b92915050565b600060208284031215620006bf57620006be620003eb565b5b6000620006cf848285016200068f565b91505092915050565b620006e3816200063d565b8114620006ef57600080fd5b50565b6000815190506200070381620006d8565b92915050565b600060208284031215620007225762000721620003eb565b5b60006200073284828501620006f2565b91505092915050565b60805160a05160c05160e051612a986200079f60003960008181610b8901526113a2015260008181610f9f01528181610fea0152611190015260008181610c79015261110d0152600081816106d901528181610d920152610ef90152612a986000f3fe60806040526004361061011f5760003560e01c80638a95b09f116100a0578063aeb8ce9b11610064578063aeb8ce9b146103b9578063ce1e09c0146103f6578063d3419bf314610421578063f14fcbc81461044c578063f2fde38b146104755761011f565b80638a95b09f146102df5780638d839ffe1461030a5780638da5cb5b146103355780639791c09714610360578063acf1a8411461039d5761011f565b80635d3590d5116100e75780635d3590d5146101fa578063715018a614610223578063808698531461023a578063839df9451461026557806383e7f6ff146102a25761011f565b806301ffc9a714610124578063237592e8146101615780633ccfd60b1461017d5780633d4aa89e14610194578063530e784f146101d1575b600080fd5b34801561013057600080fd5b5061014b600480360381019061014691906117f5565b61049e565b604051610158919061183d565b60405180910390f35b61017b60048036038101906101769190611a09565b610570565b005b34801561018957600080fd5b50610192610905565b005b3480156101a057600080fd5b506101bb60048036038101906101b69190611c2c565b61095d565b6040516101c89190611d19565b60405180910390f35b3480156101dd57600080fd5b506101f860048036038101906101f39190611d72565b610a9b565b005b34801561020657600080fd5b50610221600480360381019061021c9190611d9f565b610ae7565b005b34801561022f57600080fd5b50610238610b73565b005b34801561024657600080fd5b5061024f610b87565b60405161025c9190611e51565b60405180910390f35b34801561027157600080fd5b5061028c60048036038101906102879190611e6c565b610bab565b6040516102999190611ea8565b60405180910390f35b3480156102ae57600080fd5b506102c960048036038101906102c49190611ec3565b610bc3565b6040516102d69190611f5d565b60405180910390f35b3480156102eb57600080fd5b506102f4610c70565b6040516103019190611ea8565b60405180910390f35b34801561031657600080fd5b5061031f610c77565b60405161032c9190611ea8565b60405180910390f35b34801561034157600080fd5b5061034a610c9b565b6040516103579190611f87565b60405180910390f35b34801561036c57600080fd5b5061038760048036038101906103829190611fa2565b610cc4565b604051610394919061183d565b60405180910390f35b6103b760048036038101906103b29190611feb565b610cda565b005b3480156103c557600080fd5b506103e060048036038101906103db9190611fa2565b610eda565b6040516103ed919061183d565b60405180910390f35b34801561040257600080fd5b5061040b610f9d565b6040516104189190611ea8565b60405180910390f35b34801561042d57600080fd5b50610436610fc1565b604051610443919061206c565b60405180910390f35b34801561045857600080fd5b50610473600480360381019061046e9190611e6c565b610fe7565b005b34801561048157600080fd5b5061049c60048036038101906104979190612087565b611084565b005b60007f01ffc9a7000000000000000000000000000000000000000000000000000000007bffffffffffffffffffffffffffffffffffffffffffffffffffffffff1916827bffffffffffffffffffffffffffffffffffffffffffffffffffffffff1916148061056957507fe2b3754c000000000000000000000000000000000000000000000000000000007bffffffffffffffffffffffffffffffffffffffffffffffffffffffff1916827bffffffffffffffffffffffffffffffffffffffffffffffffffffffff1916145b9050919050565b60006105c08a8a8080601f016020809104026020016040519081016040528093929190818152602001838380828437600081840152601f19601f8201169050808301925050505050505088610bc3565b9050806020015181600001516105d691906120e3565b34101561060f576040517f1101129400000000000000000000000000000000000000000000000000000000815260040160405180910390fd5b6106b18a8a8080601f016020809104026020016040519081016040528093929190818152602001838380828437600081840152601f19601f82011690508083019250505050505050886106ac8d8d8080601f016020809104026020016040519081016040528093929190818152602001838380828437600081840152601f19601f820116905080830192505050505050508c8c8c8c8c8c8c61095d565b61110a565b60008a8a6040516106c3929190612147565b6040518091039020905060008160001c905060007f000000000000000000000000000000000000000000000000000000000000000073ffffffffffffffffffffffffffffffffffffffff1663fca247ac83338d6040518463ffffffff1660e01b815260040161073493929190612160565b6020604051808303816000875af1158015610753573d6000803e3d6000fd5b505050506040513d601f19601f8201168201806040525081019061077791906121ac565b905060008787905011156107a9576107a8888e8e604051610799929190612147565b604051809103902089896112bd565b5b84156107ff576107fe8d8d8080601f016020809104026020016040519081016040528093929190818152602001838380828437600081840152601f19601f8201169050808301925050505050505089336113a0565b5b8a73ffffffffffffffffffffffffffffffffffffffff168d8d604051610826929190612147565b60405180910390207f69e37f151eb98a09618ddaa80c8cfaf1ce5996867c489f45b555b412271ebf278f8f886000015189602001518760405161086d959493929190612217565b60405180910390a38360200151846000015161088991906120e3565b3411156108f6573373ffffffffffffffffffffffffffffffffffffffff166108fc856020015186600001516108be91906120e3565b346108c99190612265565b9081150290604051600060405180830381858888f193505050501580156108f4573d6000803e3d6000fd5b505b50505050505050505050505050565b61090d611467565b610915610c9b565b73ffffffffffffffffffffffffffffffffffffffff166108fc479081150290604051600060405180830381858888f1935050505015801561095a573d6000803e3d6000fd5b50565b60008089805190602001209050600073ffffffffffffffffffffffffffffffffffffffff168673ffffffffffffffffffffffffffffffffffffffff161480156109aa575060011515831515145b156109e1576040517f406d917600000000000000000000000000000000000000000000000000000000815260040160405180910390fd5b600085859050118015610a205750600073ffffffffffffffffffffffffffffffffffffffff168673ffffffffffffffffffffffffffffffffffffffff16145b15610a57576040517fd3f605c400000000000000000000000000000000000000000000000000000000815260040160405180910390fd5b8089898989898989604051602001610a769897969594939291906123fd565b6040516020818303038152906040528051906020012091505098975050505050505050565b610aa3611467565b80600160006101000a81548173ffffffffffffffffffffffffffffffffffffffff021916908373ffffffffffffffffffffffffffffffffffffffff16021790555050565b610aef611467565b8273ffffffffffffffffffffffffffffffffffffffff1663a9059cbb83836040518363ffffffff1660e01b8152600401610b2a929190612475565b6020604051808303816000875af1158015610b49573d6000803e3d6000fd5b505050506040513d601f19601f82011682018060405250810190610b6d91906124b3565b50505050565b610b7b611467565b610b8560006114ee565b565b7f000000000000000000000000000000000000000000000000000000000000000081565b60026020528060005260406000206000915090505481565b610bcb61176f565b600160009054906101000a900473ffffffffffffffffffffffffffffffffffffffff1673ffffffffffffffffffffffffffffffffffffffff166319b989a084846040518363ffffffff1660e01b8152600401610c2892919061254e565b6040805180830381865afa158015610c44573d6000803e3d6000fd5b505050506040513d601f19601f82011682018060405250810190610c6891906125d3565b905092915050565b6224ea0081565b7f000000000000000000000000000000000000000000000000000000000000000081565b60008060009054906101000a900473ffffffffffffffffffffffffffffffffffffffff16905090565b60006002610cd1836115b2565b10159050919050565b60008383604051610cec929190612147565b6040518091039020905060008160001c90506000610d4e86868080601f016020809104026020016040519081016040528093929190818152602001838380828437600081840152601f19601f8201169050808301925050505050505085610bc3565b90508060000151341015610d8e576040517f1101129400000000000000000000000000000000000000000000000000000000815260040160405180910390fd5b60007f000000000000000000000000000000000000000000000000000000000000000073ffffffffffffffffffffffffffffffffffffffff1663c475abff84876040518363ffffffff1660e01b8152600401610deb929190612600565b6020604051808303816000875af1158015610e0a573d6000803e3d6000fd5b505050506040513d601f19601f82011682018060405250810190610e2e91906121ac565b90508160000151341115610e93573373ffffffffffffffffffffffffffffffffffffffff166108fc836000015134610e669190612265565b9081150290604051600060405180830381858888f19350505050158015610e91573d6000803e3d6000fd5b505b837f3da24c024582931cfaf8267d8ed24d13a82a8068d5bd337d30ec45cea4e506ae88883485604051610ec99493929190612629565b60405180910390a250505050505050565b60008082805190602001209050610ef083610cc4565b8015610f9557507f000000000000000000000000000000000000000000000000000000000000000073ffffffffffffffffffffffffffffffffffffffff166396e494e88260001c6040518263ffffffff1660e01b8152600401610f539190611ea8565b602060405180830381865afa158015610f70573d6000803e3d6000fd5b505050506040513d601f19601f82011682018060405250810190610f9491906124b3565b5b915050919050565b7f000000000000000000000000000000000000000000000000000000000000000081565b600160009054906101000a900473ffffffffffffffffffffffffffffffffffffffff1681565b427f0000000000000000000000000000000000000000000000000000000000000000600260008481526020019081526020016000205461102791906120e3565b1061106957806040517f0a059d710000000000000000000000000000000000000000000000000000000081526004016110609190611d19565b60405180910390fd5b42600260008381526020019081526020016000208190555050565b61108c611467565b600073ffffffffffffffffffffffffffffffffffffffff168173ffffffffffffffffffffffffffffffffffffffff16036110fe5760006040517f1e4fbdf70000000000000000000000000000000000000000000000000000000081526004016110f59190611f87565b60405180910390fd5b611107816114ee565b50565b427f0000000000000000000000000000000000000000000000000000000000000000600260008481526020019081526020016000205461114a91906120e3565b111561118d57806040517f5320bcf90000000000000000000000000000000000000000000000000000000081526004016111849190611d19565b60405180910390fd5b427f000000000000000000000000000000000000000000000000000000000000000060026000848152602001908152602001600020546111cd91906120e3565b1161120f57806040517fcb7690d70000000000000000000000000000000000000000000000000000000081526004016112069190611d19565b60405180910390fd5b61121883610eda565b61125957826040517f477707e80000000000000000000000000000000000000000000000000000000081526004016112509190612669565b60405180910390fd5b60026000828152602001908152602001600020600090556224ea008210156112b857816040517f9a71997b0000000000000000000000000000000000000000000000000000000081526004016112af9190611ea8565b60405180910390fd5b505050565b60007ffb5f84575b89b73c6f6a4b64bfa657505766152eaf7a7bdcc4ffe2c678d7282560001b846040516020016112f59291906126ac565b60405160208183030381529060405280519060200120905060008590508073ffffffffffffffffffffffffffffffffffffffff1663e32954eb8386866040518463ffffffff1660e01b815260040161134f939291906126d8565b6000604051808303816000875af115801561136e573d6000803e3d6000fd5b505050506040513d6000823e3d601f19601f82011682018060405250810190611397919061288c565b50505050505050565b7f000000000000000000000000000000000000000000000000000000000000000073ffffffffffffffffffffffffffffffffffffffff16637a806d6b338385876040516020016113f09190612937565b6040516020818303038152906040526040518563ffffffff1660e01b815260040161141e949392919061295d565b6020604051808303816000875af115801561143d573d6000803e3d6000fd5b505050506040513d601f19601f8201168201806040525081019061146191906129be565b50505050565b61146f611767565b73ffffffffffffffffffffffffffffffffffffffff1661148d610c9b565b73ffffffffffffffffffffffffffffffffffffffff16146114ec576114b0611767565b6040517f118cdaa70000000000000000000000000000000000000000000000000000000081526004016114e39190611f87565b60405180910390fd5b565b60008060009054906101000a900473ffffffffffffffffffffffffffffffffffffffff169050816000806101000a81548173ffffffffffffffffffffffffffffffffffffffff021916908373ffffffffffffffffffffffffffffffffffffffff1602179055508173ffffffffffffffffffffffffffffffffffffffff168173ffffffffffffffffffffffffffffffffffffffff167f8be0079c531659141344cd1fd0a4f28419497f9722a3daafe3b4186f6b6457e060405160405180910390a35050565b60008060008084519050600092505b8082101561175c5760008583815181106115de576115dd6129eb565b5b602001015160f81c60f81b9050608060f81b817effffffffffffffffffffffffffffffffffffffffffffffffffffffffffffff1916101561162d5760018361162691906120e3565b9250611748565b60e060f81b817effffffffffffffffffffffffffffffffffffffffffffffffffffffffffffff1916101561166f5760028361166891906120e3565b9250611747565b60f060f81b817effffffffffffffffffffffffffffffffffffffffffffffffffffffffffffff191610156116b1576003836116aa91906120e3565b9250611746565b60f8801b817effffffffffffffffffffffffffffffffffffffffffffffffffffffffffffff191610156116f2576004836116eb91906120e3565b9250611745565b60fc60f81b817effffffffffffffffffffffffffffffffffffffffffffffffffffffffffffff191610156117345760058361172d91906120e3565b9250611744565b60068361174191906120e3565b92505b5b5b5b5b50828061175490612a1a565b9350506115c1565b829350505050919050565b600033905090565b604051806040016040528060008152602001600081525090565b6000604051905090565b600080fd5b600080fd5b60007fffffffff0000000000000000000000000000000000000000000000000000000082169050919050565b6117d28161179d565b81146117dd57600080fd5b50565b6000813590506117ef816117c9565b92915050565b60006020828403121561180b5761180a611793565b5b6000611819848285016117e0565b91505092915050565b60008115159050919050565b61183781611822565b82525050565b6000602082019050611852600083018461182e565b92915050565b600080fd5b600080fd5b600080fd5b60008083601f84011261187d5761187c611858565b5b8235905067ffffffffffffffff81111561189a5761189961185d565b5b6020830191508360018202830111156118b6576118b5611862565b5b9250929050565b600073ffffffffffffffffffffffffffffffffffffffff82169050919050565b60006118e8826118bd565b9050919050565b6118f8816118dd565b811461190357600080fd5b50565b600081359050611915816118ef565b92915050565b6000819050919050565b61192e8161191b565b811461193957600080fd5b50565b60008135905061194b81611925565b92915050565b6000819050919050565b61196481611951565b811461196f57600080fd5b50565b6000813590506119818161195b565b92915050565b60008083601f84011261199d5761199c611858565b5b8235905067ffffffffffffffff8111156119ba576119b961185d565b5b6020830191508360208202830111156119d6576119d5611862565b5b9250929050565b6119e681611822565b81146119f157600080fd5b50565b600081359050611a03816119dd565b92915050565b600080600080600080600080600060e08a8c031215611a2b57611a2a611793565b5b60008a013567ffffffffffffffff811115611a4957611a48611798565b5b611a558c828d01611867565b99509950506020611a688c828d01611906565b9750506040611a798c828d0161193c565b9650506060611a8a8c828d01611972565b9550506080611a9b8c828d01611906565b94505060a08a013567ffffffffffffffff811115611abc57611abb611798565b5b611ac88c828d01611987565b935093505060c0611adb8c828d016119f4565b9150509295985092959850929598565b600080fd5b6000601f19601f8301169050919050565b7f4e487b7100000000000000000000000000000000000000000000000000000000600052604160045260246000fd5b611b3982611af0565b810181811067ffffffffffffffff82111715611b5857611b57611b01565b5b80604052505050565b6000611b6b611789565b9050611b778282611b30565b919050565b600067ffffffffffffffff821115611b9757611b96611b01565b5b611ba082611af0565b9050602081019050919050565b82818337600083830152505050565b6000611bcf611bca84611b7c565b611b61565b905082815260208101848484011115611beb57611bea611aeb565b5b611bf6848285611bad565b509392505050565b600082601f830112611c1357611c12611858565b5b8135611c23848260208601611bbc565b91505092915050565b60008060008060008060008060e0898b031215611c4c57611c4b611793565b5b600089013567ffffffffffffffff811115611c6a57611c69611798565b5b611c768b828c01611bfe565b9850506020611c878b828c01611906565b9750506040611c988b828c0161193c565b9650506060611ca98b828c01611972565b9550506080611cba8b828c01611906565b94505060a089013567ffffffffffffffff811115611cdb57611cda611798565b5b611ce78b828c01611987565b935093505060c0611cfa8b828c016119f4565b9150509295985092959890939650565b611d1381611951565b82525050565b6000602082019050611d2e6000830184611d0a565b92915050565b6000611d3f826118dd565b9050919050565b611d4f81611d34565b8114611d5a57600080fd5b50565b600081359050611d6c81611d46565b92915050565b600060208284031215611d8857611d87611793565b5b6000611d9684828501611d5d565b91505092915050565b600080600060608486031215611db857611db7611793565b5b6000611dc686828701611906565b9350506020611dd786828701611906565b9250506040611de88682870161193c565b9150509250925092565b6000819050919050565b6000611e17611e12611e0d846118bd565b611df2565b6118bd565b9050919050565b6000611e2982611dfc565b9050919050565b6000611e3b82611e1e565b9050919050565b611e4b81611e30565b82525050565b6000602082019050611e666000830184611e42565b92915050565b600060208284031215611e8257611e81611793565b5b6000611e9084828501611972565b91505092915050565b611ea28161191b565b82525050565b6000602082019050611ebd6000830184611e99565b92915050565b60008060408385031215611eda57611ed9611793565b5b600083013567ffffffffffffffff811115611ef857611ef7611798565b5b611f0485828601611bfe565b9250506020611f158582860161193c565b9150509250929050565b611f288161191b565b82525050565b604082016000820151611f446000850182611f1f565b506020820151611f576020850182611f1f565b50505050565b6000604082019050611f726000830184611f2e565b92915050565b611f81816118dd565b82525050565b6000602082019050611f9c6000830184611f78565b92915050565b600060208284031215611fb857611fb7611793565b5b600082013567ffffffffffffffff811115611fd657611fd5611798565b5b611fe284828501611bfe565b91505092915050565b60008060006040848603121561200457612003611793565b5b600084013567ffffffffffffffff81111561202257612021611798565b5b61202e86828701611867565b935093505060206120418682870161193c565b9150509250925092565b600061205682611e1e565b9050919050565b6120668161204b565b82525050565b6000602082019050612081600083018461205d565b92915050565b60006020828403121561209d5761209c611793565b5b60006120ab84828501611906565b91505092915050565b7f4e487b7100000000000000000000000000000000000000000000000000000000600052601160045260246000fd5b60006120ee8261191b565b91506120f98361191b565b9250828201905080821115612111576121106120b4565b5b92915050565b600081905092915050565b600061212e8385612117565b935061213b838584611bad565b82840190509392505050565b6000612154828486612122565b91508190509392505050565b60006060820190506121756000830186611e99565b6121826020830185611f78565b61218f6040830184611e99565b949350505050565b6000815190506121a681611925565b92915050565b6000602082840312156121c2576121c1611793565b5b60006121d084828501612197565b91505092915050565b600082825260208201905092915050565b60006121f683856121d9565b9350612203838584611bad565b61220c83611af0565b840190509392505050565b600060808201905081810360008301526122328187896121ea565b90506122416020830186611e99565b61224e6040830185611e99565b61225b6060830184611e99565b9695505050505050565b60006122708261191b565b915061227b8361191b565b9250828203905081811115612293576122926120b4565b5b92915050565b600082825260208201905092915050565b6000819050919050565b600082825260208201905092915050565b60006122d183856122b4565b93506122de838584611bad565b6122e783611af0565b840190509392505050565b60006122ff8484846122c5565b90509392505050565b600080fd5b600080fd5b600080fd5b6000808335600160200384360303811261233457612333612312565b5b83810192508235915060208301925067ffffffffffffffff82111561235c5761235b612308565b5b6001820236038313156123725761237161230d565b5b509250929050565b6000602082019050919050565b60006123938385612299565b9350836020840285016123a5846122aa565b8060005b878110156123eb5784840389526123c08284612317565b6123cb8682846122f2565b95506123d68461237a565b935060208b019a5050506001810190506123a9565b50829750879450505050509392505050565b600060e082019050612412600083018b611d0a565b61241f602083018a611f78565b61242c6040830189611e99565b6124396060830188611d0a565b6124466080830187611f78565b81810360a0830152612459818587612387565b905061246860c083018461182e565b9998505050505050505050565b600060408201905061248a6000830185611f78565b6124976020830184611e99565b9392505050565b6000815190506124ad816119dd565b92915050565b6000602082840312156124c9576124c8611793565b5b60006124d78482850161249e565b91505092915050565b600081519050919050565b60005b838110156125095780820151818401526020810190506124ee565b60008484015250505050565b6000612520826124e0565b61252a81856121d9565b935061253a8185602086016124eb565b61254381611af0565b840191505092915050565b600060408201905081810360008301526125688185612515565b90506125776020830184611e99565b9392505050565b600080fd5b6000604082840312156125995761259861257e565b5b6125a36040611b61565b905060006125b384828501612197565b60008301525060206125c784828501612197565b60208301525092915050565b6000604082840312156125e9576125e8611793565b5b60006125f784828501612583565b91505092915050565b60006040820190506126156000830185611e99565b6126226020830184611e99565b9392505050565b600060608201905081810360008301526126448186886121ea565b90506126536020830185611e99565b6126606040830184611e99565b95945050505050565b600060208201905081810360008301526126838184612515565b905092915050565b6000819050919050565b6126a66126a182611951565b61268b565b82525050565b60006126b88285612695565b6020820191506126c88284612695565b6020820191508190509392505050565b60006040820190506126ed6000830186611d0a565b8181036020830152612700818486612387565b9050949350505050565b600067ffffffffffffffff82111561272557612724611b01565b5b602082029050602081019050919050565b600067ffffffffffffffff82111561275157612750611b01565b5b61275a82611af0565b9050602081019050919050565b600061277a61277584612736565b611b61565b90508281526020810184848401111561279657612795611aeb565b5b6127a18482856124eb565b509392505050565b600082601f8301126127be576127bd611858565b5b81516127ce848260208601612767565b91505092915050565b60006127ea6127e58461270a565b611b61565b9050808382526020820190506020840283018581111561280d5761280c611862565b5b835b8181101561285457805167ffffffffffffffff81111561283257612831611858565b5b80860161283f89826127a9565b8552602085019450505060208101905061280f565b5050509392505050565b600082601f83011261287357612872611858565b5b81516128838482602086016127d7565b91505092915050565b6000602082840312156128a2576128a1611793565b5b600082015167ffffffffffffffff8111156128c0576128bf611798565b5b6128cc8482850161285e565b91505092915050565b600081905092915050565b60006128eb826124e0565b6128f581856128d5565b93506129058185602086016124eb565b80840191505092915050565b7f2e7a6b6600000000000000000000000000000000000000000000000000000000815250565b600061294382846128e0565b915061294e82612911565b60048201915081905092915050565b60006080820190506129726000830187611f78565b61297f6020830186611f78565b61298c6040830185611f78565b818103606083015261299e8184612515565b905095945050505050565b6000815190506129b88161195b565b92915050565b6000602082840312156129d4576129d3611793565b5b60006129e2848285016129a9565b91505092915050565b7f4e487b7100000000000000000000000000000000000000000000000000000000600052603260045260246000fd5b6000612a258261191b565b91507fffffffffffffffffffffffffffffffffffffffffffffffffffffffffffffffff8203612a5757612a566120b4565b5b60018201905091905056fea264697066735822122086299df6fbd70228636516d5567c6c479c18380c2c26c649d25546076f49064064736f6c63430008140033",
  "linkReferences": {},
  "deployedLinkReferences": {}
}