{
  "_format": "hh-sol-artifact-1",
  "contractName": "StablePriceOracle",
  "sourceName": "contracts/zkfregistrar/StablePriceOracle.sol",
  "abi": [
    {
      "inputs": [],
      "stateMutability": "nonpayable",
      "type": "constructor"
    },
    {
      "inputs": [
        {
          "internalType": "address",
          "name": "owner",
          "type": "address"
        }
      ],
      "name": "OwnableInvalidOwner",
      "type": "error"
    },
    {
      "inputs": [
        {
          "internalType": "address",
          "name": "account",
          "type": "address"
        }
      ],
      "name": "OwnableUnauthorizedAccount",
      "type": "error"
    },
    {
      "anonymous": false,
      "inputs": [
        {
          "indexed": true,
          "internalType": "address",
          "name": "previousOwner",
          "type": "address"
        },
        {
          "indexed": true,
          "internalType": "address",
          "name": "newOwner",
          "type": "address"
        }
      ],
      "name": "OwnershipTransferred",
      "type": "event"
    },
    {
      "inputs": [],
      "name": "owner",
      "outputs": [
        {
          "internalType": "address",
          "name": "",
          "type": "address"
        }
      ],
      "stateMutability": "view",
      "type": "function"
    },
    {
      "inputs": [
        {
          "internalType": "string",
          "name": "name",
          "type": "string"
        },
        {
          "internalType": "uint256",
          "name": "duration",
          "type": "uint256"
        }
      ],
      "name": "price",
      "outputs": [
        {
          "components": [
            {
              "internalType": "uint256",
              "name": "base",
              "type": "uint256"
            },
            {
              "internalType": "uint256",
              "name": "premium",
              "type": "uint256"
            }
          ],
          "internalType": "struct IPriceOracle.Price",
          "name": "",
          "type": "tuple"
        }
      ],
      "stateMutability": "view",
      "type": "function"
    },
    {
      "inputs": [],
      "name": "price1Letter",
      "outputs": [
        {
          "internalType": "uint256",
          "name": "",
          "type": "uint256"
        }
      ],
      "stateMutability": "view",
      "type": "function"
    },
    {
      "inputs": [],
      "name": "price2Letter",
      "outputs": [
        {
          "internalType": "uint256",
          "name": "",
          "type": "uint256"
        }
      ],
      "stateMutability": "view",
      "type": "function"
    },
    {
      "inputs": [],
      "name": "price3Letter",
      "outputs": [
        {
          "internalType": "uint256",
          "name": "",
          "type": "uint256"
        }
      ],
      "stateMutability": "view",
      "type": "function"
    },
    {
      "inputs": [],
      "name": "price4Letter",
      "outputs": [
        {
          "internalType": "uint256",
          "name": "",
          "type": "uint256"
        }
      ],
      "stateMutability": "view",
      "type": "function"
    },
    {
      "inputs": [],
      "name": "price5Letter",
      "outputs": [
        {
          "internalType": "uint256",
          "name": "",
          "type": "uint256"
        }
      ],
      "stateMutability": "view",
      "type": "function"
    },
    {
      "inputs": [],
      "name": "renounceOwnership",
      "outputs": [],
      "stateMutability": "nonpayable",
      "type": "function"
    },
    {
      "inputs": [
        {
          "internalType": "uint256[]",
          "name": "prices",
          "type": "uint256[]"
        }
      ],
      "name": "setPrices",
      "outputs": [],
      "stateMutability": "nonpayable",
      "type": "function"
    },
    {
      "inputs": [
        {
          "internalType": "address",
          "name": "newOwner",
          "type": "address"
        }
      ],
      "name": "transferOwnership",
      "outputs": [],
      "stateMutability": "nonpayable",
      "type": "function"
    }
  ],
  "bytecode": "0x608060405234801561001057600080fd5b5033600073ffffffffffffffffffffffffffffffffffffffff168173ffffffffffffffffffffffffffffffffffffffff16036100845760006040517f1e4fbdf700000000000000000000000000000000000000000000000000000000815260040161007b919061019e565b60405180910390fd5b6100938161009960201b60201c565b506101b9565b60008060009054906101000a900473ffffffffffffffffffffffffffffffffffffffff169050816000806101000a81548173ffffffffffffffffffffffffffffffffffffffff021916908373ffffffffffffffffffffffffffffffffffffffff1602179055508173ffffffffffffffffffffffffffffffffffffffff168173ffffffffffffffffffffffffffffffffffffffff167f8be0079c531659141344cd1fd0a4f28419497f9722a3daafe3b4186f6b6457e060405160405180910390a35050565b600073ffffffffffffffffffffffffffffffffffffffff82169050919050565b60006101888261015d565b9050919050565b6101988161017d565b82525050565b60006020820190506101b3600083018461018f565b92915050565b610cc5806101c86000396000f3fe608060405234801561001057600080fd5b506004361061009e5760003560e01c80638da5cb5b116100665780638da5cb5b14610135578063a200e15314610153578063cd5d2c7414610171578063d820ed421461018f578063f2fde38b146101ad5761009e565b806319b989a0146100a35780632c0fd74c146100d357806359b6b86c146100f1578063715018a61461010f57806379cf92d314610119575b600080fd5b6100bd60048036038101906100b89190610843565b6101c9565b6040516100ca91906108e1565b60405180910390f35b6100db6102dc565b6040516100e8919061090b565b60405180910390f35b6100f96102e2565b604051610106919061090b565b60405180910390f35b6101176102e8565b005b610133600480360381019061012e9190610a75565b6102fc565b005b61013d6103b1565b60405161014a9190610aff565b60405180910390f35b61015b6103da565b604051610168919061090b565b60405180910390f35b6101796103e0565b604051610186919061090b565b60405180910390f35b6101976103e6565b6040516101a4919061090b565b60405180910390f35b6101c760048036038101906101c29190610b46565b6103ec565b005b6101d161077a565b600061022085858080601f016020809104026020016040519081016040528093929190818152602001838380828437600081840152601f19601f82011690508083019250505050505050610472565b9050600060058210610241578360055461023a9190610ba2565b90506102ac565b6004820361025e57836004546102579190610ba2565b90506102ab565b6003820361027b57836003546102749190610ba2565b90506102aa565b6002820361029857836002546102919190610ba2565b90506102a9565b836001546102a69190610ba2565b90505b5b5b5b60405180604001604052806305f5e100836102c79190610ba2565b81526020016000815250925050509392505050565b60015481565b60055481565b6102f0610627565b6102fa60006106ae565b565b610304610627565b8060008151811061031857610317610be4565b5b60200260200101516001819055508060018151811061033a57610339610be4565b5b60200260200101516002819055508060028151811061035c5761035b610be4565b5b60200260200101516003819055508060038151811061037e5761037d610be4565b5b6020026020010151600481905550806004815181106103a05761039f610be4565b5b602002602001015160058190555050565b60008060009054906101000a900473ffffffffffffffffffffffffffffffffffffffff16905090565b60035481565b60025481565b60045481565b6103f4610627565b600073ffffffffffffffffffffffffffffffffffffffff168173ffffffffffffffffffffffffffffffffffffffff16036104665760006040517f1e4fbdf700000000000000000000000000000000000000000000000000000000815260040161045d9190610aff565b60405180910390fd5b61046f816106ae565b50565b60008060008084519050600092505b8082101561061c57600085838151811061049e5761049d610be4565b5b602001015160f81c60f81b9050608060f81b817effffffffffffffffffffffffffffffffffffffffffffffffffffffffffffff191610156104ed576001836104e69190610c13565b9250610608565b60e060f81b817effffffffffffffffffffffffffffffffffffffffffffffffffffffffffffff1916101561052f576002836105289190610c13565b9250610607565b60f060f81b817effffffffffffffffffffffffffffffffffffffffffffffffffffffffffffff191610156105715760038361056a9190610c13565b9250610606565b60f8801b817effffffffffffffffffffffffffffffffffffffffffffffffffffffffffffff191610156105b2576004836105ab9190610c13565b9250610605565b60fc60f81b817effffffffffffffffffffffffffffffffffffffffffffffffffffffffffffff191610156105f4576005836105ed9190610c13565b9250610604565b6006836106019190610c13565b92505b5b5b5b5b50828061061490610c47565b935050610481565b829350505050919050565b61062f610772565b73ffffffffffffffffffffffffffffffffffffffff1661064d6103b1565b73ffffffffffffffffffffffffffffffffffffffff16146106ac57610670610772565b6040517f118cdaa70000000000000000000000000000000000000000000000000000000081526004016106a39190610aff565b60405180910390fd5b565b60008060009054906101000a900473ffffffffffffffffffffffffffffffffffffffff169050816000806101000a81548173ffffffffffffffffffffffffffffffffffffffff021916908373ffffffffffffffffffffffffffffffffffffffff1602179055508173ffffffffffffffffffffffffffffffffffffffff168173ffffffffffffffffffffffffffffffffffffffff167f8be0079c531659141344cd1fd0a4f28419497f9722a3daafe3b4186f6b6457e060405160405180910390a35050565b600033905090565b604051806040016040528060008152602001600081525090565b6000604051905090565b600080fd5b600080fd5b600080fd5b600080fd5b600080fd5b60008083601f8401126107cd576107cc6107a8565b5b8235905067ffffffffffffffff8111156107ea576107e96107ad565b5b602083019150836001820283011115610806576108056107b2565b5b9250929050565b6000819050919050565b6108208161080d565b811461082b57600080fd5b50565b60008135905061083d81610817565b92915050565b60008060006040848603121561085c5761085b61079e565b5b600084013567ffffffffffffffff81111561087a576108796107a3565b5b610886868287016107b7565b935093505060206108998682870161082e565b9150509250925092565b6108ac8161080d565b82525050565b6040820160008201516108c860008501826108a3565b5060208201516108db60208501826108a3565b50505050565b60006040820190506108f660008301846108b2565b92915050565b6109058161080d565b82525050565b600060208201905061092060008301846108fc565b92915050565b6000601f19601f8301169050919050565b7f4e487b7100000000000000000000000000000000000000000000000000000000600052604160045260246000fd5b61096f82610926565b810181811067ffffffffffffffff8211171561098e5761098d610937565b5b80604052505050565b60006109a1610794565b90506109ad8282610966565b919050565b600067ffffffffffffffff8211156109cd576109cc610937565b5b602082029050602081019050919050565b60006109f16109ec846109b2565b610997565b90508083825260208201905060208402830185811115610a1457610a136107b2565b5b835b81811015610a3d5780610a29888261082e565b845260208401935050602081019050610a16565b5050509392505050565b600082601f830112610a5c57610a5b6107a8565b5b8135610a6c8482602086016109de565b91505092915050565b600060208284031215610a8b57610a8a61079e565b5b600082013567ffffffffffffffff811115610aa957610aa86107a3565b5b610ab584828501610a47565b91505092915050565b600073ffffffffffffffffffffffffffffffffffffffff82169050919050565b6000610ae982610abe565b9050919050565b610af981610ade565b82525050565b6000602082019050610b146000830184610af0565b92915050565b610b2381610ade565b8114610b2e57600080fd5b50565b600081359050610b4081610b1a565b92915050565b600060208284031215610b5c57610b5b61079e565b5b6000610b6a84828501610b31565b91505092915050565b7f4e487b7100000000000000000000000000000000000000000000000000000000600052601160045260246000fd5b6000610bad8261080d565b9150610bb88361080d565b9250828202610bc68161080d565b91508282048414831517610bdd57610bdc610b73565b5b5092915050565b7f4e487b7100000000000000000000000000000000000000000000000000000000600052603260045260246000fd5b6000610c1e8261080d565b9150610c298361080d565b9250828201905080821115610c4157610c40610b73565b5b92915050565b6000610c528261080d565b91507fffffffffffffffffffffffffffffffffffffffffffffffffffffffffffffffff8203610c8457610c83610b73565b5b60018201905091905056fea2646970667358221220a5664d745bd37116d62c189d67cdf85fe86b5916ab5625a28fbfb8c5ea05ca3664736f6c63430008140033",
  "linkReferences": {},
  "deployedLinkReferences": {}
}