{
  "_format": "hh-sol-artifact-1",
  "contractName": "BaseRegistrarImplementation",
  "sourceName": "contracts/zkfregistrar/BaseRegistrarImplementation.sol",
  "abi": [
    {
      "inputs": [
        {
          "internalType": "contract ENS",
          "name": "_ens",
          "type": "address"
        },
        {
          "internalType": "bytes32",
          "name": "_baseNode",
          "type": "bytes32"
        }
      ],
      "stateMutability": "nonpayable",
      "type": "constructor"
    },
    {
      "inputs": [
        {
          "internalType": "address",
          "name": "sender",
          "type": "address"
        },
        {
          "internalType": "uint256",
          "name": "tokenId",
          "type": "uint256"
        },
        {
          "internalType": "address",
          "name": "owner",
          "type": "address"
        }
      ],
      "name": "ERC721IncorrectOwner",
      "type": "error"
    },
    {
      "inputs": [
        {
          "internalType": "address",
          "name": "operator",
          "type": "address"
        },
        {
          "internalType": "uint256",
          "name": "tokenId",
          "type": "uint256"
        }
      ],
      "name": "ERC721InsufficientApproval",
      "type": "error"
    },
    {
      "inputs": [
        {
          "internalType": "address",
          "name": "approver",
          "type": "address"
        }
      ],
      "name": "ERC721InvalidApprover",
      "type": "error"
    },
    {
      "inputs": [
        {
          "internalType": "address",
          "name": "operator",
          "type": "address"
        }
      ],
      "name": "ERC721InvalidOperator",
      "type": "error"
    },
    {
      "inputs": [
        {
          "internalType": "address",
          "name": "owner",
          "type": "address"
        }
      ],
      "name": "ERC721InvalidOwner",
      "type": "error"
    },
    {
      "inputs": [
        {
          "internalType": "address",
          "name": "receiver",
          "type": "address"
        }
      ],
      "name": "ERC721InvalidReceiver",
      "type": "error"
    },
    {
      "inputs": [
        {
          "internalType": "address",
          "name": "sender",
          "type": "address"
        }
      ],
      "name": "ERC721InvalidSender",
      "type": "error"
    },
    {
      "inputs": [
        {
          "internalType": "uint256",
          "name": "tokenId",
          "type": "uint256"
        }
      ],
      "name": "ERC721NonexistentToken",
      "type": "error"
    },
    {
      "inputs": [
        {
          "internalType": "address",
          "name": "owner",
          "type": "address"
        }
      ],
      "name": "OwnableInvalidOwner",
      "type": "error"
    },
    {
      "inputs": [
        {
          "internalType": "address",
          "name": "account",
          "type": "address"
        }
      ],
      "name": "OwnableUnauthorizedAccount",
      "type": "error"
    },
    {
      "anonymous": false,
      "inputs": [
        {
          "indexed": true,
          "internalType": "address",
          "name": "owner",
          "type": "address"
        },
        {
          "indexed": true,
          "internalType": "address",
          "name": "approved",
          "type": "address"
        },
        {
          "indexed": true,
          "internalType": "uint256",
          "name": "tokenId",
          "type": "uint256"
        }
      ],
      "name": "Approval",
      "type": "event"
    },
    {
      "anonymous": false,
      "inputs": [
        {
          "indexed": true,
          "internalType": "address",
          "name": "owner",
          "type": "address"
        },
        {
          "indexed": true,
          "internalType": "address",
          "name": "operator",
          "type": "address"
        },
        {
          "indexed": false,
          "internalType": "bool",
          "name": "approved",
          "type": "bool"
        }
      ],
      "name": "ApprovalForAll",
      "type": "event"
    },
    {
      "anonymous": false,
      "inputs": [
        {
          "indexed": true,
          "internalType": "address",
          "name": "controller",
          "type": "address"
        }
      ],
      "name": "ControllerAdded",
      "type": "event"
    },
    {
      "anonymous": false,
      "inputs": [
        {
          "indexed": true,
          "internalType": "address",
          "name": "controller",
          "type": "address"
        }
      ],
      "name": "ControllerRemoved",
      "type": "event"
    },
    {
      "anonymous": false,
      "inputs": [
        {
          "indexed": true,
          "internalType": "uint256",
          "name": "id",
          "type": "uint256"
        },
        {
          "indexed": true,
          "internalType": "address",
          "name": "owner",
          "type": "address"
        },
        {
          "indexed": false,
          "internalType": "uint256",
          "name": "expires",
          "type": "uint256"
        }
      ],
      "name": "NameMigrated",
      "type": "event"
    },
    {
      "anonymous": false,
      "inputs": [
        {
          "indexed": true,
          "internalType": "uint256",
          "name": "id",
          "type": "uint256"
        },
        {
          "indexed": true,
          "internalType": "address",
          "name": "owner",
          "type": "address"
        },
        {
          "indexed": false,
          "internalType": "uint256",
          "name": "expires",
          "type": "uint256"
        }
      ],
      "name": "NameRegistered",
      "type": "event"
    },
    {
      "anonymous": false,
      "inputs": [
        {
          "indexed": true,
          "internalType": "uint256",
          "name": "id",
          "type": "uint256"
        },
        {
          "indexed": false,
          "internalType": "uint256",
          "name": "expires",
          "type": "uint256"
        }
      ],
      "name": "NameRenewed",
      "type": "event"
    },
    {
      "anonymous": false,
      "inputs": [
        {
          "indexed": true,
          "internalType": "address",
          "name": "previousOwner",
          "type": "address"
        },
        {
          "indexed": true,
          "internalType": "address",
          "name": "newOwner",
          "type": "address"
        }
      ],
      "name": "OwnershipTransferred",
      "type": "event"
    },
    {
      "anonymous": false,
      "inputs": [
        {
          "indexed": true,
          "internalType": "address",
          "name": "from",
          "type": "address"
        },
        {
          "indexed": true,
          "internalType": "address",
          "name": "to",
          "type": "address"
        },
        {
          "indexed": true,
          "internalType": "uint256",
          "name": "tokenId",
          "type": "uint256"
        }
      ],
      "name": "Transfer",
      "type": "event"
    },
    {
      "inputs": [],
      "name": "GRACE_PERIOD",
      "outputs": [
        {
          "internalType": "uint256",
          "name": "",
          "type": "uint256"
        }
      ],
      "stateMutability": "view",
      "type": "function"
    },
    {
      "inputs": [
        {
          "internalType": "address",
          "name": "controller",
          "type": "address"
        }
      ],
      "name": "addController",
      "outputs": [],
      "stateMutability": "nonpayable",
      "type": "function"
    },
    {
      "inputs": [
        {
          "internalType": "address",
          "name": "to",
          "type": "address"
        },
        {
          "internalType": "uint256",
          "name": "tokenId",
          "type": "uint256"
        }
      ],
      "name": "approve",
      "outputs": [],
      "stateMutability": "nonpayable",
      "type": "function"
    },
    {
      "inputs": [
        {
          "internalType": "uint256",
          "name": "id",
          "type": "uint256"
        }
      ],
      "name": "available",
      "outputs": [
        {
          "internalType": "bool",
          "name": "",
          "type": "bool"
        }
      ],
      "stateMutability": "view",
      "type": "function"
    },
    {
      "inputs": [
        {
          "internalType": "address",
          "name": "owner",
          "type": "address"
        }
      ],
      "name": "balanceOf",
      "outputs": [
        {
          "internalType": "uint256",
          "name": "",
          "type": "uint256"
        }
      ],
      "stateMutability": "view",
      "type": "function"
    },
    {
      "inputs": [],
      "name": "baseNode",
      "outputs": [
        {
          "internalType": "bytes32",
          "name": "",
          "type": "bytes32"
        }
      ],
      "stateMutability": "view",
      "type": "function"
    },
    {
      "inputs": [],
      "name": "baseUri",
      "outputs": [
        {
          "internalType": "string",
          "name": "",
          "type": "string"
        }
      ],
      "stateMutability": "view",
      "type": "function"
    },
    {
      "inputs": [
        {
          "internalType": "address",
          "name": "",
          "type": "address"
        }
      ],
      "name": "controllers",
      "outputs": [
        {
          "internalType": "bool",
          "name": "",
          "type": "bool"
        }
      ],
      "stateMutability": "view",
      "type": "function"
    },
    {
      "inputs": [],
      "name": "ens",
      "outputs": [
        {
          "internalType": "contract ENS",
          "name": "",
          "type": "address"
        }
      ],
      "stateMutability": "view",
      "type": "function"
    },
    {
      "inputs": [
        {
          "internalType": "uint256",
          "name": "tokenId",
          "type": "uint256"
        }
      ],
      "name": "getApproved",
      "outputs": [
        {
          "internalType": "address",
          "name": "",
          "type": "address"
        }
      ],
      "stateMutability": "view",
      "type": "function"
    },
    {
      "inputs": [
        {
          "internalType": "address",
          "name": "owner",
          "type": "address"
        },
        {
          "internalType": "address",
          "name": "operator",
          "type": "address"
        }
      ],
      "name": "isApprovedForAll",
      "outputs": [
        {
          "internalType": "bool",
          "name": "",
          "type": "bool"
        }
      ],
      "stateMutability": "view",
      "type": "function"
    },
    {
      "inputs": [],
      "name": "name",
      "outputs": [
        {
          "internalType": "string",
          "name": "",
          "type": "string"
        }
      ],
      "stateMutability": "view",
      "type": "function"
    },
    {
      "inputs": [
        {
          "internalType": "uint256",
          "name": "id",
          "type": "uint256"
        }
      ],
      "name": "nameExpires",
      "outputs": [
        {
          "internalType": "uint256",
          "name": "",
          "type": "uint256"
        }
      ],
      "stateMutability": "view",
      "type": "function"
    },
    {
      "inputs": [],
      "name": "owner",
      "outputs": [
        {
          "internalType": "address",
          "name": "",
          "type": "address"
        }
      ],
      "stateMutability": "view",
      "type": "function"
    },
    {
      "inputs": [
        {
          "internalType": "uint256",
          "name": "tokenId",
          "type": "uint256"
        }
      ],
      "name": "ownerOf",
      "outputs": [
        {
          "internalType": "address",
          "name": "",
          "type": "address"
        }
      ],
      "stateMutability": "view",
      "type": "function"
    },
    {
      "inputs": [
        {
          "internalType": "uint256",
          "name": "id",
          "type": "uint256"
        },
        {
          "internalType": "address",
          "name": "owner",
          "type": "address"
        }
      ],
      "name": "reclaim",
      "outputs": [],
      "stateMutability": "nonpayable",
      "type": "function"
    },
    {
      "inputs": [
        {
          "internalType": "uint256",
          "name": "id",
          "type": "uint256"
        },
        {
          "internalType": "address",
          "name": "owner",
          "type": "address"
        },
        {
          "internalType": "uint256",
          "name": "duration",
          "type": "uint256"
        }
      ],
      "name": "register",
      "outputs": [
        {
          "internalType": "uint256",
          "name": "",
          "type": "uint256"
        }
      ],
      "stateMutability": "nonpayable",
      "type": "function"
    },
    {
      "inputs": [
        {
          "internalType": "uint256",
          "name": "id",
          "type": "uint256"
        },
        {
          "internalType": "address",
          "name": "owner",
          "type": "address"
        },
        {
          "internalType": "uint256",
          "name": "duration",
          "type": "uint256"
        }
      ],
      "name": "registerOnly",
      "outputs": [
        {
          "internalType": "uint256",
          "name": "",
          "type": "uint256"
        }
      ],
      "stateMutability": "nonpayable",
      "type": "function"
    },
    {
      "inputs": [
        {
          "internalType": "address",
          "name": "controller",
          "type": "address"
        }
      ],
      "name": "removeController",
      "outputs": [],
      "stateMutability": "nonpayable",
      "type": "function"
    },
    {
      "inputs": [
        {
          "internalType": "uint256",
          "name": "id",
          "type": "uint256"
        },
        {
          "internalType": "uint256",
          "name": "duration",
          "type": "uint256"
        }
      ],
      "name": "renew",
      "outputs": [
        {
          "internalType": "uint256",
          "name": "",
          "type": "uint256"
        }
      ],
      "stateMutability": "nonpayable",
      "type": "function"
    },
    {
      "inputs": [],
      "name": "renounceOwnership",
      "outputs": [],
      "stateMutability": "nonpayable",
      "type": "function"
    },
    {
      "inputs": [
        {
          "internalType": "address",
          "name": "from",
          "type": "address"
        },
        {
          "internalType": "address",
          "name": "to",
          "type": "address"
        },
        {
          "internalType": "uint256",
          "name": "tokenId",
          "type": "uint256"
        }
      ],
      "name": "safeTransferFrom",
      "outputs": [],
      "stateMutability": "nonpayable",
      "type": "function"
    },
    {
      "inputs": [
        {
          "internalType": "address",
          "name": "from",
          "type": "address"
        },
        {
          "internalType": "address",
          "name": "to",
          "type": "address"
        },
        {
          "internalType": "uint256",
          "name": "tokenId",
          "type": "uint256"
        },
        {
          "internalType": "bytes",
          "name": "data",
          "type": "bytes"
        }
      ],
      "name": "safeTransferFrom",
      "outputs": [],
      "stateMutability": "nonpayable",
      "type": "function"
    },
    {
      "inputs": [
        {
          "internalType": "address",
          "name": "operator",
          "type": "address"
        },
        {
          "internalType": "bool",
          "name": "approved",
          "type": "bool"
        }
      ],
      "name": "setApprovalForAll",
      "outputs": [],
      "stateMutability": "nonpayable",
      "type": "function"
    },
    {
      "inputs": [
        {
          "internalType": "string",
          "name": "uri",
          "type": "string"
        }
      ],
      "name": "setBaseUri",
      "outputs": [],
      "stateMutability": "nonpayable",
      "type": "function"
    },
    {
      "inputs": [
        {
          "internalType": "address",
          "name": "resolver",
          "type": "address"
        }
      ],
      "name": "setResolver",
      "outputs": [],
      "stateMutability": "nonpayable",
      "type": "function"
    },
    {
      "inputs": [
        {
          "internalType": "bytes4",
          "name": "interfaceID",
          "type": "bytes4"
        }
      ],
      "name": "supportsInterface",
      "outputs": [
        {
          "internalType": "bool",
          "name": "",
          "type": "bool"
        }
      ],
      "stateMutability": "pure",
      "type": "function"
    },
    {
      "inputs": [],
      "name": "symbol",
      "outputs": [
        {
          "internalType": "string",
          "name": "",
          "type": "string"
        }
      ],
      "stateMutability": "view",
      "type": "function"
    },
    {
      "inputs": [
        {
          "internalType": "uint256",
          "name": "tokenId",
          "type": "uint256"
        }
      ],
      "name": "tokenURI",
      "outputs": [
        {
          "internalType": "string",
          "name": "",
          "type": "string"
        }
      ],
      "stateMutability": "view",
      "type": "function"
    },
    {
      "inputs": [
        {
          "internalType": "address",
          "name": "from",
          "type": "address"
        },
        {
          "internalType": "address",
          "name": "to",
          "type": "address"
        },
        {
          "internalType": "uint256",
          "name": "tokenId",
          "type": "uint256"
        }
      ],
      "name": "transferFrom",
      "outputs": [],
      "stateMutability": "nonpayable",
      "type": "function"
    },
    {
      "inputs": [
        {
          "internalType": "address",
          "name": "newOwner",
          "type": "address"
        }
      ],
      "name": "transferOwnership",
      "outputs": [],
      "stateMutability": "nonpayable",
      "type": "function"
    }
  ],
  "bytecode": "0x60806040523480156200001157600080fd5b5060405162003ce138038062003ce1833981810160405281019062000037919062000320565b336040518060400160405280601381526020017f5a4b46616972204e616d652053657276696365000000000000000000000000008152506040518060400160405280600581526020017f5a4b464e530000000000000000000000000000000000000000000000000000008152508160009081620000b59190620005e1565b508060019081620000c79190620005e1565b505050600073ffffffffffffffffffffffffffffffffffffffff168173ffffffffffffffffffffffffffffffffffffffff16036200013f5760006040517f1e4fbdf7000000000000000000000000000000000000000000000000000000008152600401620001369190620006d9565b60405180910390fd5b6200015081620001a160201b60201c565b5081600860006101000a81548173ffffffffffffffffffffffffffffffffffffffff021916908373ffffffffffffffffffffffffffffffffffffffff160217905550806009819055505050620006f6565b6000600660009054906101000a900473ffffffffffffffffffffffffffffffffffffffff16905081600660006101000a81548173ffffffffffffffffffffffffffffffffffffffff021916908373ffffffffffffffffffffffffffffffffffffffff1602179055508173ffffffffffffffffffffffffffffffffffffffff168173ffffffffffffffffffffffffffffffffffffffff167f8be0079c531659141344cd1fd0a4f28419497f9722a3daafe3b4186f6b6457e060405160405180910390a35050565b600080fd5b600073ffffffffffffffffffffffffffffffffffffffff82169050919050565b600062000299826200026c565b9050919050565b6000620002ad826200028c565b9050919050565b620002bf81620002a0565b8114620002cb57600080fd5b50565b600081519050620002df81620002b4565b92915050565b6000819050919050565b620002fa81620002e5565b81146200030657600080fd5b50565b6000815190506200031a81620002ef565b92915050565b600080604083850312156200033a576200033962000267565b5b60006200034a85828601620002ce565b92505060206200035d8582860162000309565b9150509250929050565b600081519050919050565b7f4e487b7100000000000000000000000000000000000000000000000000000000600052604160045260246000fd5b7f4e487b7100000000000000000000000000000000000000000000000000000000600052602260045260246000fd5b60006002820490506001821680620003e957607f821691505b602082108103620003ff57620003fe620003a1565b5b50919050565b60008190508160005260206000209050919050565b60006020601f8301049050919050565b600082821b905092915050565b600060088302620004697fffffffffffffffffffffffffffffffffffffffffffffffffffffffffffffffff826200042a565b6200047586836200042a565b95508019841693508086168417925050509392505050565b6000819050919050565b6000819050919050565b6000620004c2620004bc620004b6846200048d565b62000497565b6200048d565b9050919050565b6000819050919050565b620004de83620004a1565b620004f6620004ed82620004c9565b84845462000437565b825550505050565b600090565b6200050d620004fe565b6200051a818484620004d3565b505050565b5b8181101562000542576200053660008262000503565b60018101905062000520565b5050565b601f82111562000591576200055b8162000405565b62000566846200041a565b8101602085101562000576578190505b6200058e62000585856200041a565b8301826200051f565b50505b505050565b600082821c905092915050565b6000620005b66000198460080262000596565b1980831691505092915050565b6000620005d18383620005a3565b9150826002028217905092915050565b620005ec8262000367565b67ffffffffffffffff81111562000608576200060762000372565b5b620006148254620003d0565b6200062182828562000546565b600060209050601f83116001811462000659576000841562000644578287015190505b620006508582620005c3565b865550620006c0565b601f198416620006698662000405565b60005b8281101562000693578489015182556001820191506020850194506020810190506200066c565b86831015620006b35784890151620006af601f891682620005a3565b8355505b6001600288020188555050505b505050505050565b620006d3816200028c565b82525050565b6000602082019050620006f06000830184620006c8565b92915050565b6135db80620007066000396000f3fe608060405234801561001057600080fd5b50600436106101e55760003560e01c806396e494e81161010f578063c87b56dd116100a2578063e985e9c511610071578063e985e9c5146105a2578063f2fde38b146105d2578063f6a74ed7146105ee578063fca247ac1461060a576101e5565b8063c87b56dd146104f4578063d6e4fa8614610524578063da8c229e14610554578063ddf7fcb014610584576101e5565b8063a7fc7a07116100de578063a7fc7a071461046e578063b88d4fde1461048a578063c1a287e2146104a6578063c475abff146104c4576101e5565b806396e494e8146103e85780639abc832014610418578063a0bcfc7f14610436578063a22cb46514610452576101e5565b80633f15457f1161018757806370a082311161015657806370a0823114610372578063715018a6146103a25780638da5cb5b146103ac57806395d89b41146103ca576101e5565b80633f15457f146102ec57806342842e0e1461030a5780634e543b26146103265780636352211e14610342576101e5565b8063095ea7b3116101c3578063095ea7b3146102685780630e297b451461028457806323b872dd146102b457806328ed4f6c146102d0576101e5565b806301ffc9a7146101ea57806306fdde031461021a578063081812fc14610238575b600080fd5b61020460048036038101906101ff919061269a565b61063a565b60405161021191906126e2565b60405180910390f35b610222610884565b60405161022f919061278d565b60405180910390f35b610252600480360381019061024d91906127e5565b610916565b60405161025f9190612853565b60405180910390f35b610282600480360381019061027d919061289a565b610932565b005b61029e600480360381019061029991906128da565b610948565b6040516102ab919061293c565b60405180910390f35b6102ce60048036038101906102c99190612957565b610960565b005b6102ea60048036038101906102e591906129aa565b610a62565b005b6102f4610b21565b6040516103019190612a49565b60405180910390f35b610324600480360381019061031f9190612957565b610b47565b005b610340600480360381019061033b9190612a64565b610b67565b005b61035c600480360381019061035791906127e5565b610c03565b6040516103699190612853565b60405180910390f35b61038c60048036038101906103879190612a64565b610c34565b604051610399919061293c565b60405180910390f35b6103aa610cee565b005b6103b4610d02565b6040516103c19190612853565b60405180910390f35b6103d2610d2c565b6040516103df919061278d565b60405180910390f35b61040260048036038101906103fd91906127e5565b610dbe565b60405161040f91906126e2565b60405180910390f35b610420610deb565b60405161042d919061278d565b60405180910390f35b610450600480360381019061044b9190612bc6565b610e79565b005b61046c60048036038101906104679190612c3b565b610e94565b005b61048860048036038101906104839190612a64565b610eaa565b005b6104a4600480360381019061049f9190612d1c565b610f50565b005b6104ae610f6d565b6040516104bb919061293c565b60405180910390f35b6104de60048036038101906104d99190612d9f565b610f74565b6040516104eb919061293c565b60405180910390f35b61050e600480360381019061050991906127e5565b611173565b60405161051b919061278d565b60405180910390f35b61053e600480360381019061053991906127e5565b6111dc565b60405161054b919061293c565b60405180910390f35b61056e60048036038101906105699190612a64565b6111f9565b60405161057b91906126e2565b60405180910390f35b61058c611219565b6040516105999190612df8565b60405180910390f35b6105bc60048036038101906105b79190612e13565b61121f565b6040516105c991906126e2565b60405180910390f35b6105ec60048036038101906105e79190612a64565b6112b3565b005b61060860048036038101906106039190612a64565b611339565b005b610624600480360381019061061f91906128da565b6113df565b604051610631919061293c565b60405180910390f35b60007f01ffc9a7a5cef8baa21ed3c5c0d7e23accb804b619e9333b597f47a0d84076e27bffffffffffffffffffffffffffffffffffffffffffffffffffffffff1916827bffffffffffffffffffffffffffffffffffffffffffffffffffffffff1916148061081557507fb88d4fde60196325a28bb7f99a2582e0b46de55b18761e960c14ad7a320994657f42842e0eb38857a7775b4e7364b2775df7325074d088e7fb39590cd6281184ed7f23b872dd7302113369cda2901243429419bec145408fa8b352b3dd92b66c680b7fe985e9c5c6636c6879256001057b28ccac7718ef0ac56553ff9b926452cab8a37fa22cb4651ab9570f89bb516380c40ce76762284fb1f21337ceaf6adab99e7d4a7f081812fc55e34fdc7cf5d8b5cf4e3621fa6423fde952ec6ab24afdc0d85c0b2e7f095ea7b334ae44009aa867bfb386f5c3b4b443ac6f0ee573fa91c4608fbadfba7f6352211e6566aa027e75ac9dbf2423197fbd9b82b9d981a3ab367d355866aa1c7f70a08231b98ef4ca268c9cc3f6b4590e4bfec28280db06bb5d45e689f2a360be18181818181818187bffffffffffffffffffffffffffffffffffffffffffffffffffffffff1916827bffffffffffffffffffffffffffffffffffffffffffffffffffffffff1916145b8061087d57507f28ed4f6c74b219a5819055dfbcd2f1837c046c364cf01fabb6799e4f440d6f137bffffffffffffffffffffffffffffffffffffffffffffffffffffffff1916827bffffffffffffffffffffffffffffffffffffffffffffffffffffffff1916145b9050919050565b60606000805461089390612e82565b80601f01602080910402602001604051908101604052809291908181526020018280546108bf90612e82565b801561090c5780601f106108e15761010080835404028352916020019161090c565b820191906000526020600020905b8154815290600101906020018083116108ef57829003601f168201915b5050505050905090565b6000610921826113f7565b5061092b8261147f565b9050919050565b610944828261093f6114bc565b6114c4565b5050565b600061095784848460006114d6565b90509392505050565b600073ffffffffffffffffffffffffffffffffffffffff168273ffffffffffffffffffffffffffffffffffffffff16036109d25760006040517f64a0ae920000000000000000000000000000000000000000000000000000000081526004016109c99190612853565b60405180910390fd5b60006109e683836109e16114bc565b611741565b90508373ffffffffffffffffffffffffffffffffffffffff168173ffffffffffffffffffffffffffffffffffffffff1614610a5c578382826040517f64283d7b000000000000000000000000000000000000000000000000000000008152600401610a5393929190612eb3565b60405180910390fd5b50505050565b610a6c338361195b565b610a7557600080fd5b600860009054906101000a900473ffffffffffffffffffffffffffffffffffffffff1673ffffffffffffffffffffffffffffffffffffffff166306ab59236009548460001b846040518463ffffffff1660e01b8152600401610ad993929190612eea565b6020604051808303816000875af1158015610af8573d6000803e3d6000fd5b505050506040513d601f19601f82011682018060405250810190610b1c9190612f4d565b505050565b600860009054906101000a900473ffffffffffffffffffffffffffffffffffffffff1681565b610b6283838360405180602001604052806000815250610f50565b505050565b610b6f6119f0565b600860009054906101000a900473ffffffffffffffffffffffffffffffffffffffff1673ffffffffffffffffffffffffffffffffffffffff16631896f70a600954836040518363ffffffff1660e01b8152600401610bce929190612f7a565b600060405180830381600087803b158015610be857600080fd5b505af1158015610bfc573d6000803e3d6000fd5b5050505050565b600042600760008481526020019081526020016000205411610c2457600080fd5b610c2d82611a77565b9050919050565b60008073ffffffffffffffffffffffffffffffffffffffff168273ffffffffffffffffffffffffffffffffffffffff1603610ca75760006040517f89c62b64000000000000000000000000000000000000000000000000000000008152600401610c9e9190612853565b60405180910390fd5b600360008373ffffffffffffffffffffffffffffffffffffffff1673ffffffffffffffffffffffffffffffffffffffff168152602001908152602001600020549050919050565b610cf66119f0565b610d006000611a89565b565b6000600660009054906101000a900473ffffffffffffffffffffffffffffffffffffffff16905090565b606060018054610d3b90612e82565b80601f0160208091040260200160405190810160405280929190818152602001828054610d6790612e82565b8015610db45780601f10610d8957610100808354040283529160200191610db4565b820191906000526020600020905b815481529060010190602001808311610d9757829003601f168201915b5050505050905090565b6000426276a7006007600085815260200190815260200160002054610de39190612fd2565b109050919050565b600b8054610df890612e82565b80601f0160208091040260200160405190810160405280929190818152602001828054610e2490612e82565b8015610e715780601f10610e4657610100808354040283529160200191610e71565b820191906000526020600020905b815481529060010190602001808311610e5457829003601f168201915b505050505081565b610e816119f0565b80600b9081610e9091906131a8565b5050565b610ea6610e9f6114bc565b8383611b4f565b5050565b610eb26119f0565b6001600a60008373ffffffffffffffffffffffffffffffffffffffff1673ffffffffffffffffffffffffffffffffffffffff16815260200190815260200160002060006101000a81548160ff0219169083151502179055508073ffffffffffffffffffffffffffffffffffffffff167f0a8bb31534c0ed46f380cb867bd5c803a189ced9a764e30b3a4991a9901d747460405160405180910390a250565b610f5b848484610960565b610f6784848484611cbe565b50505050565b6276a70081565b6000600a60003373ffffffffffffffffffffffffffffffffffffffff1673ffffffffffffffffffffffffffffffffffffffff16815260200190815260200160002060009054906101000a900460ff16611002576040517f08c379a0000000000000000000000000000000000000000000000000000000008152600401610ff9906132c6565b60405180910390fd5b426276a70060076000868152602001908152602001600020546110259190612fd2565b1015611066576040517f08c379a000000000000000000000000000000000000000000000000000000000815260040161105d90613358565b60405180910390fd5b6276a700826110759190612fd2565b6276a7008360076000878152602001908152602001600020546110989190612fd2565b6110a29190612fd2565b116110e2576040517f08c379a00000000000000000000000000000000000000000000000000000000081526004016110d9906133ea565b60405180910390fd5b816007600085815260200190815260200160002060008282546111059190612fd2565b92505081905550827f9b87a00e30f1ac65d898f070f8a3488fe60517182d0a2098e1b4b93a54aa9bd6600760008681526020019081526020016000205460405161114f919061293c565b60405180910390a26007600084815260200190815260200160002054905092915050565b606061117e826113f7565b506000611189611e75565b905060008151116111a957604051806020016040528060008152506111d4565b806111b384611f07565b6040516020016111c4929190613446565b6040516020818303038152906040525b915050919050565b600060076000838152602001908152602001600020549050919050565b600a6020528060005260406000206000915054906101000a900460ff1681565b60095481565b6000600560008473ffffffffffffffffffffffffffffffffffffffff1673ffffffffffffffffffffffffffffffffffffffff16815260200190815260200160002060008373ffffffffffffffffffffffffffffffffffffffff1673ffffffffffffffffffffffffffffffffffffffff16815260200190815260200160002060009054906101000a900460ff16905092915050565b6112bb6119f0565b600073ffffffffffffffffffffffffffffffffffffffff168173ffffffffffffffffffffffffffffffffffffffff160361132d5760006040517f1e4fbdf70000000000000000000000000000000000000000000000000000000081526004016113249190612853565b60405180910390fd5b61133681611a89565b50565b6113416119f0565b6000600a60008373ffffffffffffffffffffffffffffffffffffffff1673ffffffffffffffffffffffffffffffffffffffff16815260200190815260200160002060006101000a81548160ff0219169083151502179055508073ffffffffffffffffffffffffffffffffffffffff167f33d83959be2573f5453b12eb9d43b3499bc57d96bd2f067ba44803c859e8111360405160405180910390a250565b60006113ee84848460016114d6565b90509392505050565b60008061140383611fd5565b9050600073ffffffffffffffffffffffffffffffffffffffff168173ffffffffffffffffffffffffffffffffffffffff160361147657826040517f7e27328900000000000000000000000000000000000000000000000000000000815260040161146d919061293c565b60405180910390fd5b80915050919050565b60006004600083815260200190815260200160002060009054906101000a900473ffffffffffffffffffffffffffffffffffffffff169050919050565b600033905090565b6114d18383836001612012565b505050565b6000600a60003373ffffffffffffffffffffffffffffffffffffffff1673ffffffffffffffffffffffffffffffffffffffff16815260200190815260200160002060009054906101000a900460ff16611564576040517f08c379a000000000000000000000000000000000000000000000000000000000815260040161155b906132c6565b60405180910390fd5b61156d85610dbe565b61157657600080fd5b6276a700426115859190612fd2565b6276a70084426115959190612fd2565b61159f9190612fd2565b116115a957600080fd5b82426115b59190612fd2565b600760008781526020019081526020016000208190555060006115d786611fd5565b9050600073ffffffffffffffffffffffffffffffffffffffff168173ffffffffffffffffffffffffffffffffffffffff161461161757611616866121d7565b5b611621858761225d565b82156116d057600860009054906101000a900473ffffffffffffffffffffffffffffffffffffffff1673ffffffffffffffffffffffffffffffffffffffff166306ab59236009548860001b886040518463ffffffff1660e01b815260040161168b93929190612eea565b6020604051808303816000875af11580156116aa573d6000803e3d6000fd5b505050506040513d601f19601f820116820180604052508101906116ce9190612f4d565b505b8473ffffffffffffffffffffffffffffffffffffffff16867fb3d987963d01b2f68493b4bdb130988f157ea43070d4ad840fee0466ed9370d986426117159190612fd2565b604051611722919061293c565b60405180910390a383426117369190612fd2565b915050949350505050565b60008061174d84611fd5565b9050600073ffffffffffffffffffffffffffffffffffffffff168373ffffffffffffffffffffffffffffffffffffffff161461178f5761178e818486612356565b5b600073ffffffffffffffffffffffffffffffffffffffff168173ffffffffffffffffffffffffffffffffffffffff1614611820576117d1600085600080612012565b6001600360008373ffffffffffffffffffffffffffffffffffffffff1673ffffffffffffffffffffffffffffffffffffffff168152602001908152602001600020600082825403925050819055505b600073ffffffffffffffffffffffffffffffffffffffff168573ffffffffffffffffffffffffffffffffffffffff16146118a3576001600360008773ffffffffffffffffffffffffffffffffffffffff1673ffffffffffffffffffffffffffffffffffffffff168152602001908152602001600020600082825401925050819055505b846002600086815260200190815260200160002060006101000a81548173ffffffffffffffffffffffffffffffffffffffff021916908373ffffffffffffffffffffffffffffffffffffffff160217905550838573ffffffffffffffffffffffffffffffffffffffff168273ffffffffffffffffffffffffffffffffffffffff167fddf252ad1be2c89b69c2b068fc378daa952ba7f163c4a11628f55a4df523b3ef60405160405180910390a4809150509392505050565b60008061196783610c03565b90508073ffffffffffffffffffffffffffffffffffffffff168473ffffffffffffffffffffffffffffffffffffffff1614806119d657508373ffffffffffffffffffffffffffffffffffffffff166119be84610916565b73ffffffffffffffffffffffffffffffffffffffff16145b806119e757506119e6818561121f565b5b91505092915050565b6119f86114bc565b73ffffffffffffffffffffffffffffffffffffffff16611a16610d02565b73ffffffffffffffffffffffffffffffffffffffff1614611a7557611a396114bc565b6040517f118cdaa7000000000000000000000000000000000000000000000000000000008152600401611a6c9190612853565b60405180910390fd5b565b6000611a82826113f7565b9050919050565b6000600660009054906101000a900473ffffffffffffffffffffffffffffffffffffffff16905081600660006101000a81548173ffffffffffffffffffffffffffffffffffffffff021916908373ffffffffffffffffffffffffffffffffffffffff1602179055508173ffffffffffffffffffffffffffffffffffffffff168173ffffffffffffffffffffffffffffffffffffffff167f8be0079c531659141344cd1fd0a4f28419497f9722a3daafe3b4186f6b6457e060405160405180910390a35050565b600073ffffffffffffffffffffffffffffffffffffffff168273ffffffffffffffffffffffffffffffffffffffff1603611bc057816040517f5b08ba18000000000000000000000000000000000000000000000000000000008152600401611bb79190612853565b60405180910390fd5b80600560008573ffffffffffffffffffffffffffffffffffffffff1673ffffffffffffffffffffffffffffffffffffffff16815260200190815260200160002060008473ffffffffffffffffffffffffffffffffffffffff1673ffffffffffffffffffffffffffffffffffffffff16815260200190815260200160002060006101000a81548160ff0219169083151502179055508173ffffffffffffffffffffffffffffffffffffffff168373ffffffffffffffffffffffffffffffffffffffff167f17307eab39ab6107e8899845ad3d59bd9653f200f220920489ca2b5937696c3183604051611cb191906126e2565b60405180910390a3505050565b60008373ffffffffffffffffffffffffffffffffffffffff163b1115611e6f578273ffffffffffffffffffffffffffffffffffffffff1663150b7a02611d026114bc565b8685856040518563ffffffff1660e01b8152600401611d2494939291906134bf565b6020604051808303816000875af1925050508015611d6057506040513d601f19601f82011682018060405250810190611d5d9190613520565b60015b611de4573d8060008114611d90576040519150601f19603f3d011682016040523d82523d6000602084013e611d95565b606091505b506000815103611ddc57836040517f64a0ae92000000000000000000000000000000000000000000000000000000008152600401611dd39190612853565b60405180910390fd5b805181602001fd5b63150b7a0260e01b7bffffffffffffffffffffffffffffffffffffffffffffffffffffffff1916817bffffffffffffffffffffffffffffffffffffffffffffffffffffffff191614611e6d57836040517f64a0ae92000000000000000000000000000000000000000000000000000000008152600401611e649190612853565b60405180910390fd5b505b50505050565b6060600b8054611e8490612e82565b80601f0160208091040260200160405190810160405280929190818152602001828054611eb090612e82565b8015611efd5780601f10611ed257610100808354040283529160200191611efd565b820191906000526020600020905b815481529060010190602001808311611ee057829003601f168201915b5050505050905090565b606060006001611f168461241a565b01905060008167ffffffffffffffff811115611f3557611f34612a9b565b5b6040519080825280601f01601f191660200182016040528015611f675781602001600182028036833780820191505090505b509050600082602001820190505b600115611fca578080600190039150507f3031323334353637383961626364656600000000000000000000000000000000600a86061a8153600a8581611fbe57611fbd61354d565b5b04945060008503611f75575b819350505050919050565b60006002600083815260200190815260200160002060009054906101000a900473ffffffffffffffffffffffffffffffffffffffff169050919050565b808061204b5750600073ffffffffffffffffffffffffffffffffffffffff168273ffffffffffffffffffffffffffffffffffffffff1614155b1561217f57600061205b846113f7565b9050600073ffffffffffffffffffffffffffffffffffffffff168373ffffffffffffffffffffffffffffffffffffffff16141580156120c657508273ffffffffffffffffffffffffffffffffffffffff168173ffffffffffffffffffffffffffffffffffffffff1614155b80156120d957506120d7818461121f565b155b1561211b57826040517fa9fbf51f0000000000000000000000000000000000000000000000000000000081526004016121129190612853565b60405180910390fd5b811561217d57838573ffffffffffffffffffffffffffffffffffffffff168273ffffffffffffffffffffffffffffffffffffffff167f8c5be1e5ebec7d5bd14f71427d1e84f3dd0314c0f7b2291e5b200ac8c7c3b92560405160405180910390a45b505b836004600085815260200190815260200160002060006101000a81548173ffffffffffffffffffffffffffffffffffffffff021916908373ffffffffffffffffffffffffffffffffffffffff16021790555050505050565b60006121e66000836000611741565b9050600073ffffffffffffffffffffffffffffffffffffffff168173ffffffffffffffffffffffffffffffffffffffff160361225957816040517f7e273289000000000000000000000000000000000000000000000000000000008152600401612250919061293c565b60405180910390fd5b5050565b600073ffffffffffffffffffffffffffffffffffffffff168273ffffffffffffffffffffffffffffffffffffffff16036122cf5760006040517f64a0ae920000000000000000000000000000000000000000000000000000000081526004016122c69190612853565b60405180910390fd5b60006122dd83836000611741565b9050600073ffffffffffffffffffffffffffffffffffffffff168173ffffffffffffffffffffffffffffffffffffffff16146123515760006040517f73c6ac6e0000000000000000000000000000000000000000000000000000000081526004016123489190612853565b60405180910390fd5b505050565b61236183838361256d565b61241557600073ffffffffffffffffffffffffffffffffffffffff168373ffffffffffffffffffffffffffffffffffffffff16036123d657806040517f7e2732890000000000000000000000000000000000000000000000000000000081526004016123cd919061293c565b60405180910390fd5b81816040517f177e802f00000000000000000000000000000000000000000000000000000000815260040161240c92919061357c565b60405180910390fd5b505050565b600080600090507a184f03e93ff9f4daa797ed6e38ed64bf6a1f0100000000000000008310612478577a184f03e93ff9f4daa797ed6e38ed64bf6a1f010000000000000000838161246e5761246d61354d565b5b0492506040810190505b6d04ee2d6d415b85acef810000000083106124b5576d04ee2d6d415b85acef810000000083816124ab576124aa61354d565b5b0492506020810190505b662386f26fc1000083106124e457662386f26fc1000083816124da576124d961354d565b5b0492506010810190505b6305f5e100831061250d576305f5e10083816125035761250261354d565b5b0492506008810190505b61271083106125325761271083816125285761252761354d565b5b0492506004810190505b60648310612555576064838161254b5761254a61354d565b5b0492506002810190505b600a8310612564576001810190505b80915050919050565b60008073ffffffffffffffffffffffffffffffffffffffff168373ffffffffffffffffffffffffffffffffffffffff161415801561262557508273ffffffffffffffffffffffffffffffffffffffff168473ffffffffffffffffffffffffffffffffffffffff1614806125e657506125e5848461121f565b5b8061262457508273ffffffffffffffffffffffffffffffffffffffff1661260c8361147f565b73ffffffffffffffffffffffffffffffffffffffff16145b5b90509392505050565b6000604051905090565b600080fd5b600080fd5b60007fffffffff0000000000000000000000000000000000000000000000000000000082169050919050565b61267781612642565b811461268257600080fd5b50565b6000813590506126948161266e565b92915050565b6000602082840312156126b0576126af612638565b5b60006126be84828501612685565b91505092915050565b60008115159050919050565b6126dc816126c7565b82525050565b60006020820190506126f760008301846126d3565b92915050565b600081519050919050565b600082825260208201905092915050565b60005b8381101561273757808201518184015260208101905061271c565b60008484015250505050565b6000601f19601f8301169050919050565b600061275f826126fd565b6127698185612708565b9350612779818560208601612719565b61278281612743565b840191505092915050565b600060208201905081810360008301526127a78184612754565b905092915050565b6000819050919050565b6127c2816127af565b81146127cd57600080fd5b50565b6000813590506127df816127b9565b92915050565b6000602082840312156127fb576127fa612638565b5b6000612809848285016127d0565b91505092915050565b600073ffffffffffffffffffffffffffffffffffffffff82169050919050565b600061283d82612812565b9050919050565b61284d81612832565b82525050565b60006020820190506128686000830184612844565b92915050565b61287781612832565b811461288257600080fd5b50565b6000813590506128948161286e565b92915050565b600080604083850312156128b1576128b0612638565b5b60006128bf85828601612885565b92505060206128d0858286016127d0565b9150509250929050565b6000806000606084860312156128f3576128f2612638565b5b6000612901868287016127d0565b935050602061291286828701612885565b9250506040612923868287016127d0565b9150509250925092565b612936816127af565b82525050565b6000602082019050612951600083018461292d565b92915050565b6000806000606084860312156129705761296f612638565b5b600061297e86828701612885565b935050602061298f86828701612885565b92505060406129a0868287016127d0565b9150509250925092565b600080604083850312156129c1576129c0612638565b5b60006129cf858286016127d0565b92505060206129e085828601612885565b9150509250929050565b6000819050919050565b6000612a0f612a0a612a0584612812565b6129ea565b612812565b9050919050565b6000612a21826129f4565b9050919050565b6000612a3382612a16565b9050919050565b612a4381612a28565b82525050565b6000602082019050612a5e6000830184612a3a565b92915050565b600060208284031215612a7a57612a79612638565b5b6000612a8884828501612885565b91505092915050565b600080fd5b600080fd5b7f4e487b7100000000000000000000000000000000000000000000000000000000600052604160045260246000fd5b612ad382612743565b810181811067ffffffffffffffff82111715612af257612af1612a9b565b5b80604052505050565b6000612b0561262e565b9050612b118282612aca565b919050565b600067ffffffffffffffff821115612b3157612b30612a9b565b5b612b3a82612743565b9050602081019050919050565b82818337600083830152505050565b6000612b69612b6484612b16565b612afb565b905082815260208101848484011115612b8557612b84612a96565b5b612b90848285612b47565b509392505050565b600082601f830112612bad57612bac612a91565b5b8135612bbd848260208601612b56565b91505092915050565b600060208284031215612bdc57612bdb612638565b5b600082013567ffffffffffffffff811115612bfa57612bf961263d565b5b612c0684828501612b98565b91505092915050565b612c18816126c7565b8114612c2357600080fd5b50565b600081359050612c3581612c0f565b92915050565b60008060408385031215612c5257612c51612638565b5b6000612c6085828601612885565b9250506020612c7185828601612c26565b9150509250929050565b600067ffffffffffffffff821115612c9657612c95612a9b565b5b612c9f82612743565b9050602081019050919050565b6000612cbf612cba84612c7b565b612afb565b905082815260208101848484011115612cdb57612cda612a96565b5b612ce6848285612b47565b509392505050565b600082601f830112612d0357612d02612a91565b5b8135612d13848260208601612cac565b91505092915050565b60008060008060808587031215612d3657612d35612638565b5b6000612d4487828801612885565b9450506020612d5587828801612885565b9350506040612d66878288016127d0565b925050606085013567ffffffffffffffff811115612d8757612d8661263d565b5b612d9387828801612cee565b91505092959194509250565b60008060408385031215612db657612db5612638565b5b6000612dc4858286016127d0565b9250506020612dd5858286016127d0565b9150509250929050565b6000819050919050565b612df281612ddf565b82525050565b6000602082019050612e0d6000830184612de9565b92915050565b60008060408385031215612e2a57612e29612638565b5b6000612e3885828601612885565b9250506020612e4985828601612885565b9150509250929050565b7f4e487b7100000000000000000000000000000000000000000000000000000000600052602260045260246000fd5b60006002820490506001821680612e9a57607f821691505b602082108103612ead57612eac612e53565b5b50919050565b6000606082019050612ec86000830186612844565b612ed5602083018561292d565b612ee26040830184612844565b949350505050565b6000606082019050612eff6000830186612de9565b612f0c6020830185612de9565b612f196040830184612844565b949350505050565b612f2a81612ddf565b8114612f3557600080fd5b50565b600081519050612f4781612f21565b92915050565b600060208284031215612f6357612f62612638565b5b6000612f7184828501612f38565b91505092915050565b6000604082019050612f8f6000830185612de9565b612f9c6020830184612844565b9392505050565b7f4e487b7100000000000000000000000000000000000000000000000000000000600052601160045260246000fd5b6000612fdd826127af565b9150612fe8836127af565b925082820190508082111561300057612fff612fa3565b5b92915050565b60008190508160005260206000209050919050565b60006020601f8301049050919050565b600082821b905092915050565b6000600883026130687fffffffffffffffffffffffffffffffffffffffffffffffffffffffffffffffff8261302b565b613072868361302b565b95508019841693508086168417925050509392505050565b60006130a56130a061309b846127af565b6129ea565b6127af565b9050919050565b6000819050919050565b6130bf8361308a565b6130d36130cb826130ac565b848454613038565b825550505050565b600090565b6130e86130db565b6130f38184846130b6565b505050565b5b818110156131175761310c6000826130e0565b6001810190506130f9565b5050565b601f82111561315c5761312d81613006565b6131368461301b565b81016020851015613145578190505b6131596131518561301b565b8301826130f8565b50505b505050565b600082821c905092915050565b600061317f60001984600802613161565b1980831691505092915050565b6000613198838361316e565b9150826002028217905092915050565b6131b1826126fd565b67ffffffffffffffff8111156131ca576131c9612a9b565b5b6131d48254612e82565b6131df82828561311b565b600060209050601f8311600181146132125760008415613200578287015190505b61320a858261318c565b865550613272565b601f19841661322086613006565b60005b8281101561324857848901518255600182019150602085019450602081019050613223565b868310156132655784890151613261601f89168261316e565b8355505b6001600288020188555050505b505050505050565b7f596f7520617265206e6f7420636f6e74726f6c6c657200000000000000000000600082015250565b60006132b0601683612708565b91506132bb8261327a565b602082019050919050565b600060208201905081810360008301526132df816132a3565b9050919050565b7f4e616d65206d7573742062652072656769737465726564206f7220696e20677260008201527f61636520706572696f6400000000000000000000000000000000000000000000602082015250565b6000613342602a83612708565b915061334d826132e6565b604082019050919050565b6000602082019050818103600083015261337181613335565b9050919050565b7f4e616d65206475726174696f6e206d75737420626520696e207468652066757460008201527f7572650000000000000000000000000000000000000000000000000000000000602082015250565b60006133d4602383612708565b91506133df82613378565b604082019050919050565b60006020820190508181036000830152613403816133c7565b9050919050565b600081905092915050565b6000613420826126fd565b61342a818561340a565b935061343a818560208601612719565b80840191505092915050565b60006134528285613415565b915061345e8284613415565b91508190509392505050565b600081519050919050565b600082825260208201905092915050565b60006134918261346a565b61349b8185613475565b93506134ab818560208601612719565b6134b481612743565b840191505092915050565b60006080820190506134d46000830187612844565b6134e16020830186612844565b6134ee604083018561292d565b81810360608301526135008184613486565b905095945050505050565b60008151905061351a8161266e565b92915050565b60006020828403121561353657613535612638565b5b60006135448482850161350b565b91505092915050565b7f4e487b7100000000000000000000000000000000000000000000000000000000600052601260045260246000fd5b60006040820190506135916000830185612844565b61359e602083018461292d565b939250505056fea2646970667358221220abcd6770450e141f019424d38a194d1ce31542547b6c45c6aeef41b17fb8409664736f6c63430008140033",
  "linkReferences": {},
  "deployedLinkReferences": {}
}