{
  "_format": "hh-sol-artifact-1",
  "contractName": "BaseRegistrarImplementation",
  "sourceName": "contracts/zkfregistrar/BaseRegistrarImplementation.sol",
  "abi": [
    {
      "inputs": [
        {
          "internalType": "contract ENS",
          "name": "_ens",
          "type": "address"
        },
        {
          "internalType": "bytes32",
          "name": "_baseNode",
          "type": "bytes32"
        }
      ],
      "stateMutability": "nonpayable",
      "type": "constructor"
    },
    {
      "inputs": [
        {
          "internalType": "address",
          "name": "sender",
          "type": "address"
        },
        {
          "internalType": "uint256",
          "name": "tokenId",
          "type": "uint256"
        },
        {
          "internalType": "address",
          "name": "owner",
          "type": "address"
        }
      ],
      "name": "ERC721IncorrectOwner",
      "type": "error"
    },
    {
      "inputs": [
        {
          "internalType": "address",
          "name": "operator",
          "type": "address"
        },
        {
          "internalType": "uint256",
          "name": "tokenId",
          "type": "uint256"
        }
      ],
      "name": "ERC721InsufficientApproval",
      "type": "error"
    },
    {
      "inputs": [
        {
          "internalType": "address",
          "name": "approver",
          "type": "address"
        }
      ],
      "name": "ERC721InvalidApprover",
      "type": "error"
    },
    {
      "inputs": [
        {
          "internalType": "address",
          "name": "operator",
          "type": "address"
        }
      ],
      "name": "ERC721InvalidOperator",
      "type": "error"
    },
    {
      "inputs": [
        {
          "internalType": "address",
          "name": "owner",
          "type": "address"
        }
      ],
      "name": "ERC721InvalidOwner",
      "type": "error"
    },
    {
      "inputs": [
        {
          "internalType": "address",
          "name": "receiver",
          "type": "address"
        }
      ],
      "name": "ERC721InvalidReceiver",
      "type": "error"
    },
    {
      "inputs": [
        {
          "internalType": "address",
          "name": "sender",
          "type": "address"
        }
      ],
      "name": "ERC721InvalidSender",
      "type": "error"
    },
    {
      "inputs": [
        {
          "internalType": "uint256",
          "name": "tokenId",
          "type": "uint256"
        }
      ],
      "name": "ERC721NonexistentToken",
      "type": "error"
    },
    {
      "inputs": [
        {
          "internalType": "address",
          "name": "owner",
          "type": "address"
        }
      ],
      "name": "OwnableInvalidOwner",
      "type": "error"
    },
    {
      "inputs": [
        {
          "internalType": "address",
          "name": "account",
          "type": "address"
        }
      ],
      "name": "OwnableUnauthorizedAccount",
      "type": "error"
    },
    {
      "anonymous": false,
      "inputs": [
        {
          "indexed": true,
          "internalType": "address",
          "name": "owner",
          "type": "address"
        },
        {
          "indexed": true,
          "internalType": "address",
          "name": "approved",
          "type": "address"
        },
        {
          "indexed": true,
          "internalType": "uint256",
          "name": "tokenId",
          "type": "uint256"
        }
      ],
      "name": "Approval",
      "type": "event"
    },
    {
      "anonymous": false,
      "inputs": [
        {
          "indexed": true,
          "internalType": "address",
          "name": "owner",
          "type": "address"
        },
        {
          "indexed": true,
          "internalType": "address",
          "name": "operator",
          "type": "address"
        },
        {
          "indexed": false,
          "internalType": "bool",
          "name": "approved",
          "type": "bool"
        }
      ],
      "name": "ApprovalForAll",
      "type": "event"
    },
    {
      "anonymous": false,
      "inputs": [
        {
          "indexed": true,
          "internalType": "address",
          "name": "controller",
          "type": "address"
        }
      ],
      "name": "ControllerAdded",
      "type": "event"
    },
    {
      "anonymous": false,
      "inputs": [
        {
          "indexed": true,
          "internalType": "address",
          "name": "controller",
          "type": "address"
        }
      ],
      "name": "ControllerRemoved",
      "type": "event"
    },
    {
      "anonymous": false,
      "inputs": [
        {
          "indexed": true,
          "internalType": "uint256",
          "name": "id",
          "type": "uint256"
        },
        {
          "indexed": true,
          "internalType": "address",
          "name": "owner",
          "type": "address"
        },
        {
          "indexed": false,
          "internalType": "uint256",
          "name": "expires",
          "type": "uint256"
        }
      ],
      "name": "NameMigrated",
      "type": "event"
    },
    {
      "anonymous": false,
      "inputs": [
        {
          "indexed": true,
          "internalType": "uint256",
          "name": "id",
          "type": "uint256"
        },
        {
          "indexed": true,
          "internalType": "address",
          "name": "owner",
          "type": "address"
        },
        {
          "indexed": false,
          "internalType": "uint256",
          "name": "expires",
          "type": "uint256"
        }
      ],
      "name": "NameRegistered",
      "type": "event"
    },
    {
      "anonymous": false,
      "inputs": [
        {
          "indexed": true,
          "internalType": "uint256",
          "name": "id",
          "type": "uint256"
        },
        {
          "indexed": false,
          "internalType": "uint256",
          "name": "expires",
          "type": "uint256"
        }
      ],
      "name": "NameRenewed",
      "type": "event"
    },
    {
      "anonymous": false,
      "inputs": [
        {
          "indexed": true,
          "internalType": "address",
          "name": "previousOwner",
          "type": "address"
        },
        {
          "indexed": true,
          "internalType": "address",
          "name": "newOwner",
          "type": "address"
        }
      ],
      "name": "OwnershipTransferred",
      "type": "event"
    },
    {
      "anonymous": false,
      "inputs": [
        {
          "indexed": true,
          "internalType": "address",
          "name": "from",
          "type": "address"
        },
        {
          "indexed": true,
          "internalType": "address",
          "name": "to",
          "type": "address"
        },
        {
          "indexed": true,
          "internalType": "uint256",
          "name": "tokenId",
          "type": "uint256"
        }
      ],
      "name": "Transfer",
      "type": "event"
    },
    {
      "inputs": [],
      "name": "GRACE_PERIOD",
      "outputs": [
        {
          "internalType": "uint256",
          "name": "",
          "type": "uint256"
        }
      ],
      "stateMutability": "view",
      "type": "function"
    },
    {
      "inputs": [
        {
          "internalType": "address",
          "name": "controller",
          "type": "address"
        }
      ],
      "name": "addController",
      "outputs": [],
      "stateMutability": "nonpayable",
      "type": "function"
    },
    {
      "inputs": [
        {
          "internalType": "address",
          "name": "to",
          "type": "address"
        },
        {
          "internalType": "uint256",
          "name": "tokenId",
          "type": "uint256"
        }
      ],
      "name": "approve",
      "outputs": [],
      "stateMutability": "nonpayable",
      "type": "function"
    },
    {
      "inputs": [
        {
          "internalType": "uint256",
          "name": "id",
          "type": "uint256"
        }
      ],
      "name": "available",
      "outputs": [
        {
          "internalType": "bool",
          "name": "",
          "type": "bool"
        }
      ],
      "stateMutability": "view",
      "type": "function"
    },
    {
      "inputs": [
        {
          "internalType": "address",
          "name": "owner",
          "type": "address"
        }
      ],
      "name": "balanceOf",
      "outputs": [
        {
          "internalType": "uint256",
          "name": "",
          "type": "uint256"
        }
      ],
      "stateMutability": "view",
      "type": "function"
    },
    {
      "inputs": [],
      "name": "baseNode",
      "outputs": [
        {
          "internalType": "bytes32",
          "name": "",
          "type": "bytes32"
        }
      ],
      "stateMutability": "view",
      "type": "function"
    },
    {
      "inputs": [
        {
          "internalType": "address",
          "name": "",
          "type": "address"
        }
      ],
      "name": "controllers",
      "outputs": [
        {
          "internalType": "bool",
          "name": "",
          "type": "bool"
        }
      ],
      "stateMutability": "view",
      "type": "function"
    },
    {
      "inputs": [],
      "name": "ens",
      "outputs": [
        {
          "internalType": "contract ENS",
          "name": "",
          "type": "address"
        }
      ],
      "stateMutability": "view",
      "type": "function"
    },
    {
      "inputs": [
        {
          "internalType": "uint256",
          "name": "tokenId",
          "type": "uint256"
        }
      ],
      "name": "getApproved",
      "outputs": [
        {
          "internalType": "address",
          "name": "",
          "type": "address"
        }
      ],
      "stateMutability": "view",
      "type": "function"
    },
    {
      "inputs": [
        {
          "internalType": "address",
          "name": "owner",
          "type": "address"
        },
        {
          "internalType": "address",
          "name": "operator",
          "type": "address"
        }
      ],
      "name": "isApprovedForAll",
      "outputs": [
        {
          "internalType": "bool",
          "name": "",
          "type": "bool"
        }
      ],
      "stateMutability": "view",
      "type": "function"
    },
    {
      "inputs": [],
      "name": "name",
      "outputs": [
        {
          "internalType": "string",
          "name": "",
          "type": "string"
        }
      ],
      "stateMutability": "view",
      "type": "function"
    },
    {
      "inputs": [
        {
          "internalType": "uint256",
          "name": "id",
          "type": "uint256"
        }
      ],
      "name": "nameExpires",
      "outputs": [
        {
          "internalType": "uint256",
          "name": "",
          "type": "uint256"
        }
      ],
      "stateMutability": "view",
      "type": "function"
    },
    {
      "inputs": [],
      "name": "owner",
      "outputs": [
        {
          "internalType": "address",
          "name": "",
          "type": "address"
        }
      ],
      "stateMutability": "view",
      "type": "function"
    },
    {
      "inputs": [
        {
          "internalType": "uint256",
          "name": "tokenId",
          "type": "uint256"
        }
      ],
      "name": "ownerOf",
      "outputs": [
        {
          "internalType": "address",
          "name": "",
          "type": "address"
        }
      ],
      "stateMutability": "view",
      "type": "function"
    },
    {
      "inputs": [
        {
          "internalType": "uint256",
          "name": "id",
          "type": "uint256"
        },
        {
          "internalType": "address",
          "name": "owner",
          "type": "address"
        }
      ],
      "name": "reclaim",
      "outputs": [],
      "stateMutability": "nonpayable",
      "type": "function"
    },
    {
      "inputs": [
        {
          "internalType": "uint256",
          "name": "id",
          "type": "uint256"
        },
        {
          "internalType": "address",
          "name": "owner",
          "type": "address"
        },
        {
          "internalType": "uint256",
          "name": "duration",
          "type": "uint256"
        }
      ],
      "name": "register",
      "outputs": [
        {
          "internalType": "uint256",
          "name": "",
          "type": "uint256"
        }
      ],
      "stateMutability": "nonpayable",
      "type": "function"
    },
    {
      "inputs": [
        {
          "internalType": "uint256",
          "name": "id",
          "type": "uint256"
        },
        {
          "internalType": "address",
          "name": "owner",
          "type": "address"
        },
        {
          "internalType": "uint256",
          "name": "duration",
          "type": "uint256"
        }
      ],
      "name": "registerOnly",
      "outputs": [
        {
          "internalType": "uint256",
          "name": "",
          "type": "uint256"
        }
      ],
      "stateMutability": "nonpayable",
      "type": "function"
    },
    {
      "inputs": [
        {
          "internalType": "address",
          "name": "controller",
          "type": "address"
        }
      ],
      "name": "removeController",
      "outputs": [],
      "stateMutability": "nonpayable",
      "type": "function"
    },
    {
      "inputs": [
        {
          "internalType": "uint256",
          "name": "id",
          "type": "uint256"
        },
        {
          "internalType": "uint256",
          "name": "duration",
          "type": "uint256"
        }
      ],
      "name": "renew",
      "outputs": [
        {
          "internalType": "uint256",
          "name": "",
          "type": "uint256"
        }
      ],
      "stateMutability": "nonpayable",
      "type": "function"
    },
    {
      "inputs": [],
      "name": "renounceOwnership",
      "outputs": [],
      "stateMutability": "nonpayable",
      "type": "function"
    },
    {
      "inputs": [
        {
          "internalType": "address",
          "name": "from",
          "type": "address"
        },
        {
          "internalType": "address",
          "name": "to",
          "type": "address"
        },
        {
          "internalType": "uint256",
          "name": "tokenId",
          "type": "uint256"
        }
      ],
      "name": "safeTransferFrom",
      "outputs": [],
      "stateMutability": "nonpayable",
      "type": "function"
    },
    {
      "inputs": [
        {
          "internalType": "address",
          "name": "from",
          "type": "address"
        },
        {
          "internalType": "address",
          "name": "to",
          "type": "address"
        },
        {
          "internalType": "uint256",
          "name": "tokenId",
          "type": "uint256"
        },
        {
          "internalType": "bytes",
          "name": "data",
          "type": "bytes"
        }
      ],
      "name": "safeTransferFrom",
      "outputs": [],
      "stateMutability": "nonpayable",
      "type": "function"
    },
    {
      "inputs": [
        {
          "internalType": "address",
          "name": "operator",
          "type": "address"
        },
        {
          "internalType": "bool",
          "name": "approved",
          "type": "bool"
        }
      ],
      "name": "setApprovalForAll",
      "outputs": [],
      "stateMutability": "nonpayable",
      "type": "function"
    },
    {
      "inputs": [
        {
          "internalType": "address",
          "name": "resolver",
          "type": "address"
        }
      ],
      "name": "setResolver",
      "outputs": [],
      "stateMutability": "nonpayable",
      "type": "function"
    },
    {
      "inputs": [
        {
          "internalType": "bytes4",
          "name": "interfaceID",
          "type": "bytes4"
        }
      ],
      "name": "supportsInterface",
      "outputs": [
        {
          "internalType": "bool",
          "name": "",
          "type": "bool"
        }
      ],
      "stateMutability": "pure",
      "type": "function"
    },
    {
      "inputs": [],
      "name": "symbol",
      "outputs": [
        {
          "internalType": "string",
          "name": "",
          "type": "string"
        }
      ],
      "stateMutability": "view",
      "type": "function"
    },
    {
      "inputs": [
        {
          "internalType": "uint256",
          "name": "tokenId",
          "type": "uint256"
        }
      ],
      "name": "tokenURI",
      "outputs": [
        {
          "internalType": "string",
          "name": "",
          "type": "string"
        }
      ],
      "stateMutability": "view",
      "type": "function"
    },
    {
      "inputs": [
        {
          "internalType": "address",
          "name": "from",
          "type": "address"
        },
        {
          "internalType": "address",
          "name": "to",
          "type": "address"
        },
        {
          "internalType": "uint256",
          "name": "tokenId",
          "type": "uint256"
        }
      ],
      "name": "transferFrom",
      "outputs": [],
      "stateMutability": "nonpayable",
      "type": "function"
    },
    {
      "inputs": [
        {
          "internalType": "address",
          "name": "newOwner",
          "type": "address"
        }
      ],
      "name": "transferOwnership",
      "outputs": [],
      "stateMutability": "nonpayable",
      "type": "function"
    }
  ],
  "bytecode": "0x60806040523480156200001157600080fd5b50604051620037e9380380620037e98339818101604052810190620000379190620002fa565b336040518060400160405280601381526020017f5a4b46616972204e616d652053657276696365000000000000000000000000008152506040518060200160405280600081525081600090816200008f9190620005bb565b508060019081620000a19190620005bb565b505050600073ffffffffffffffffffffffffffffffffffffffff168173ffffffffffffffffffffffffffffffffffffffff1603620001195760006040517f1e4fbdf7000000000000000000000000000000000000000000000000000000008152600401620001109190620006b3565b60405180910390fd5b6200012a816200017b60201b60201c565b5081600860006101000a81548173ffffffffffffffffffffffffffffffffffffffff021916908373ffffffffffffffffffffffffffffffffffffffff160217905550806009819055505050620006d0565b6000600660009054906101000a900473ffffffffffffffffffffffffffffffffffffffff16905081600660006101000a81548173ffffffffffffffffffffffffffffffffffffffff021916908373ffffffffffffffffffffffffffffffffffffffff1602179055508173ffffffffffffffffffffffffffffffffffffffff168173ffffffffffffffffffffffffffffffffffffffff167f8be0079c531659141344cd1fd0a4f28419497f9722a3daafe3b4186f6b6457e060405160405180910390a35050565b600080fd5b600073ffffffffffffffffffffffffffffffffffffffff82169050919050565b6000620002738262000246565b9050919050565b6000620002878262000266565b9050919050565b62000299816200027a565b8114620002a557600080fd5b50565b600081519050620002b9816200028e565b92915050565b6000819050919050565b620002d481620002bf565b8114620002e057600080fd5b50565b600081519050620002f481620002c9565b92915050565b6000806040838503121562000314576200031362000241565b5b60006200032485828601620002a8565b92505060206200033785828601620002e3565b9150509250929050565b600081519050919050565b7f4e487b7100000000000000000000000000000000000000000000000000000000600052604160045260246000fd5b7f4e487b7100000000000000000000000000000000000000000000000000000000600052602260045260246000fd5b60006002820490506001821680620003c357607f821691505b602082108103620003d957620003d86200037b565b5b50919050565b60008190508160005260206000209050919050565b60006020601f8301049050919050565b600082821b905092915050565b600060088302620004437fffffffffffffffffffffffffffffffffffffffffffffffffffffffffffffffff8262000404565b6200044f868362000404565b95508019841693508086168417925050509392505050565b6000819050919050565b6000819050919050565b60006200049c62000496620004908462000467565b62000471565b62000467565b9050919050565b6000819050919050565b620004b8836200047b565b620004d0620004c782620004a3565b84845462000411565b825550505050565b600090565b620004e7620004d8565b620004f4818484620004ad565b505050565b5b818110156200051c5762000510600082620004dd565b600181019050620004fa565b5050565b601f8211156200056b576200053581620003df565b6200054084620003f4565b8101602085101562000550578190505b620005686200055f85620003f4565b830182620004f9565b50505b505050565b600082821c905092915050565b6000620005906000198460080262000570565b1980831691505092915050565b6000620005ab83836200057d565b9150826002028217905092915050565b620005c68262000341565b67ffffffffffffffff811115620005e257620005e16200034c565b5b620005ee8254620003aa565b620005fb82828562000520565b600060209050601f8311600181146200063357600084156200061e578287015190505b6200062a85826200059d565b8655506200069a565b601f1984166200064386620003df565b60005b828110156200066d5784890151825560018201915060208501945060208101905062000646565b868310156200068d578489015162000689601f8916826200057d565b8355505b6001600288020188555050505b505050505050565b620006ad8162000266565b82525050565b6000602082019050620006ca6000830184620006a2565b92915050565b61310980620006e06000396000f3fe608060405234801561001057600080fd5b50600436106101cf5760003560e01c806395d89b4111610104578063c87b56dd116100a2578063e985e9c511610071578063e985e9c514610552578063f2fde38b14610582578063f6a74ed71461059e578063fca247ac146105ba576101cf565b8063c87b56dd146104a4578063d6e4fa86146104d4578063da8c229e14610504578063ddf7fcb014610534576101cf565b8063a7fc7a07116100de578063a7fc7a071461041e578063b88d4fde1461043a578063c1a287e214610456578063c475abff14610474576101cf565b806395d89b41146103b457806396e494e8146103d2578063a22cb46514610402576101cf565b80633f15457f116101715780636352211e1161014b5780636352211e1461032c57806370a082311461035c578063715018a61461038c5780638da5cb5b14610396576101cf565b80633f15457f146102d657806342842e0e146102f45780634e543b2614610310576101cf565b8063095ea7b3116101ad578063095ea7b3146102525780630e297b451461026e57806323b872dd1461029e57806328ed4f6c146102ba576101cf565b806301ffc9a7146101d457806306fdde0314610204578063081812fc14610222575b600080fd5b6101ee60048036038101906101e99190612526565b6105ea565b6040516101fb919061256e565b60405180910390f35b61020c610834565b6040516102199190612619565b60405180910390f35b61023c60048036038101906102379190612671565b6108c6565b60405161024991906126df565b60405180910390f35b61026c60048036038101906102679190612726565b6108e2565b005b61028860048036038101906102839190612766565b6108f8565b60405161029591906127c8565b60405180910390f35b6102b860048036038101906102b391906127e3565b610910565b005b6102d460048036038101906102cf9190612836565b610a12565b005b6102de610ad1565b6040516102eb91906128d5565b60405180910390f35b61030e600480360381019061030991906127e3565b610af7565b005b61032a600480360381019061032591906128f0565b610b17565b005b61034660048036038101906103419190612671565b610bb3565b60405161035391906126df565b60405180910390f35b610376600480360381019061037191906128f0565b610be4565b60405161038391906127c8565b60405180910390f35b610394610c9e565b005b61039e610cb2565b6040516103ab91906126df565b60405180910390f35b6103bc610cdc565b6040516103c99190612619565b60405180910390f35b6103ec60048036038101906103e79190612671565b610d6e565b6040516103f9919061256e565b60405180910390f35b61041c60048036038101906104179190612949565b610d9b565b005b610438600480360381019061043391906128f0565b610db1565b005b610454600480360381019061044f9190612abe565b610e57565b005b61045e610e74565b60405161046b91906127c8565b60405180910390f35b61048e60048036038101906104899190612b41565b610e7b565b60405161049b91906127c8565b60405180910390f35b6104be60048036038101906104b99190612671565b61107a565b6040516104cb9190612619565b60405180910390f35b6104ee60048036038101906104e99190612671565b6110e3565b6040516104fb91906127c8565b60405180910390f35b61051e600480360381019061051991906128f0565b611100565b60405161052b919061256e565b60405180910390f35b61053c611120565b6040516105499190612b9a565b60405180910390f35b61056c60048036038101906105679190612bb5565b611126565b604051610579919061256e565b60405180910390f35b61059c600480360381019061059791906128f0565b6111ba565b005b6105b860048036038101906105b391906128f0565b611240565b005b6105d460048036038101906105cf9190612766565b6112e6565b6040516105e191906127c8565b60405180910390f35b60007f01ffc9a7a5cef8baa21ed3c5c0d7e23accb804b619e9333b597f47a0d84076e27bffffffffffffffffffffffffffffffffffffffffffffffffffffffff1916827bffffffffffffffffffffffffffffffffffffffffffffffffffffffff191614806107c557507fb88d4fde60196325a28bb7f99a2582e0b46de55b18761e960c14ad7a320994657f42842e0eb38857a7775b4e7364b2775df7325074d088e7fb39590cd6281184ed7f23b872dd7302113369cda2901243429419bec145408fa8b352b3dd92b66c680b7fe985e9c5c6636c6879256001057b28ccac7718ef0ac56553ff9b926452cab8a37fa22cb4651ab9570f89bb516380c40ce76762284fb1f21337ceaf6adab99e7d4a7f081812fc55e34fdc7cf5d8b5cf4e3621fa6423fde952ec6ab24afdc0d85c0b2e7f095ea7b334ae44009aa867bfb386f5c3b4b443ac6f0ee573fa91c4608fbadfba7f6352211e6566aa027e75ac9dbf2423197fbd9b82b9d981a3ab367d355866aa1c7f70a08231b98ef4ca268c9cc3f6b4590e4bfec28280db06bb5d45e689f2a360be18181818181818187bffffffffffffffffffffffffffffffffffffffffffffffffffffffff1916827bffffffffffffffffffffffffffffffffffffffffffffffffffffffff1916145b8061082d57507f28ed4f6c74b219a5819055dfbcd2f1837c046c364cf01fabb6799e4f440d6f137bffffffffffffffffffffffffffffffffffffffffffffffffffffffff1916827bffffffffffffffffffffffffffffffffffffffffffffffffffffffff1916145b9050919050565b60606000805461084390612c24565b80601f016020809104026020016040519081016040528092919081815260200182805461086f90612c24565b80156108bc5780601f10610891576101008083540402835291602001916108bc565b820191906000526020600020905b81548152906001019060200180831161089f57829003601f168201915b5050505050905090565b60006108d1826112fe565b506108db82611386565b9050919050565b6108f482826108ef6113c3565b6113cb565b5050565b600061090784848460006113dd565b90509392505050565b600073ffffffffffffffffffffffffffffffffffffffff168273ffffffffffffffffffffffffffffffffffffffff16036109825760006040517f64a0ae9200000000000000000000000000000000000000000000000000000000815260040161097991906126df565b60405180910390fd5b600061099683836109916113c3565b611648565b90508373ffffffffffffffffffffffffffffffffffffffff168173ffffffffffffffffffffffffffffffffffffffff1614610a0c578382826040517f64283d7b000000000000000000000000000000000000000000000000000000008152600401610a0393929190612c55565b60405180910390fd5b50505050565b610a1c3383611862565b610a2557600080fd5b600860009054906101000a900473ffffffffffffffffffffffffffffffffffffffff1673ffffffffffffffffffffffffffffffffffffffff166306ab59236009548460001b846040518463ffffffff1660e01b8152600401610a8993929190612c8c565b6020604051808303816000875af1158015610aa8573d6000803e3d6000fd5b505050506040513d601f19601f82011682018060405250810190610acc9190612cef565b505050565b600860009054906101000a900473ffffffffffffffffffffffffffffffffffffffff1681565b610b1283838360405180602001604052806000815250610e57565b505050565b610b1f6118f7565b600860009054906101000a900473ffffffffffffffffffffffffffffffffffffffff1673ffffffffffffffffffffffffffffffffffffffff16631896f70a600954836040518363ffffffff1660e01b8152600401610b7e929190612d1c565b600060405180830381600087803b158015610b9857600080fd5b505af1158015610bac573d6000803e3d6000fd5b5050505050565b600042600760008481526020019081526020016000205411610bd457600080fd5b610bdd8261197e565b9050919050565b60008073ffffffffffffffffffffffffffffffffffffffff168273ffffffffffffffffffffffffffffffffffffffff1603610c575760006040517f89c62b64000000000000000000000000000000000000000000000000000000008152600401610c4e91906126df565b60405180910390fd5b600360008373ffffffffffffffffffffffffffffffffffffffff1673ffffffffffffffffffffffffffffffffffffffff168152602001908152602001600020549050919050565b610ca66118f7565b610cb06000611990565b565b6000600660009054906101000a900473ffffffffffffffffffffffffffffffffffffffff16905090565b606060018054610ceb90612c24565b80601f0160208091040260200160405190810160405280929190818152602001828054610d1790612c24565b8015610d645780601f10610d3957610100808354040283529160200191610d64565b820191906000526020600020905b815481529060010190602001808311610d4757829003601f168201915b5050505050905090565b6000426276a7006007600085815260200190815260200160002054610d939190612d74565b109050919050565b610dad610da66113c3565b8383611a56565b5050565b610db96118f7565b6001600a60008373ffffffffffffffffffffffffffffffffffffffff1673ffffffffffffffffffffffffffffffffffffffff16815260200190815260200160002060006101000a81548160ff0219169083151502179055508073ffffffffffffffffffffffffffffffffffffffff167f0a8bb31534c0ed46f380cb867bd5c803a189ced9a764e30b3a4991a9901d747460405160405180910390a250565b610e62848484610910565b610e6e84848484611bc5565b50505050565b6276a70081565b6000600a60003373ffffffffffffffffffffffffffffffffffffffff1673ffffffffffffffffffffffffffffffffffffffff16815260200190815260200160002060009054906101000a900460ff16610f09576040517f08c379a0000000000000000000000000000000000000000000000000000000008152600401610f0090612df4565b60405180910390fd5b426276a7006007600086815260200190815260200160002054610f2c9190612d74565b1015610f6d576040517f08c379a0000000000000000000000000000000000000000000000000000000008152600401610f6490612e86565b60405180910390fd5b6276a70082610f7c9190612d74565b6276a700836007600087815260200190815260200160002054610f9f9190612d74565b610fa99190612d74565b11610fe9576040517f08c379a0000000000000000000000000000000000000000000000000000000008152600401610fe090612f18565b60405180910390fd5b8160076000858152602001908152602001600020600082825461100c9190612d74565b92505081905550827f9b87a00e30f1ac65d898f070f8a3488fe60517182d0a2098e1b4b93a54aa9bd6600760008681526020019081526020016000205460405161105691906127c8565b60405180910390a26007600084815260200190815260200160002054905092915050565b6060611085826112fe565b506000611090611d7c565b905060008151116110b057604051806020016040528060008152506110db565b806110ba84611d93565b6040516020016110cb929190612f74565b6040516020818303038152906040525b915050919050565b600060076000838152602001908152602001600020549050919050565b600a6020528060005260406000206000915054906101000a900460ff1681565b60095481565b6000600560008473ffffffffffffffffffffffffffffffffffffffff1673ffffffffffffffffffffffffffffffffffffffff16815260200190815260200160002060008373ffffffffffffffffffffffffffffffffffffffff1673ffffffffffffffffffffffffffffffffffffffff16815260200190815260200160002060009054906101000a900460ff16905092915050565b6111c26118f7565b600073ffffffffffffffffffffffffffffffffffffffff168173ffffffffffffffffffffffffffffffffffffffff16036112345760006040517f1e4fbdf700000000000000000000000000000000000000000000000000000000815260040161122b91906126df565b60405180910390fd5b61123d81611990565b50565b6112486118f7565b6000600a60008373ffffffffffffffffffffffffffffffffffffffff1673ffffffffffffffffffffffffffffffffffffffff16815260200190815260200160002060006101000a81548160ff0219169083151502179055508073ffffffffffffffffffffffffffffffffffffffff167f33d83959be2573f5453b12eb9d43b3499bc57d96bd2f067ba44803c859e8111360405160405180910390a250565b60006112f584848460016113dd565b90509392505050565b60008061130a83611e61565b9050600073ffffffffffffffffffffffffffffffffffffffff168173ffffffffffffffffffffffffffffffffffffffff160361137d57826040517f7e27328900000000000000000000000000000000000000000000000000000000815260040161137491906127c8565b60405180910390fd5b80915050919050565b60006004600083815260200190815260200160002060009054906101000a900473ffffffffffffffffffffffffffffffffffffffff169050919050565b600033905090565b6113d88383836001611e9e565b505050565b6000600a60003373ffffffffffffffffffffffffffffffffffffffff1673ffffffffffffffffffffffffffffffffffffffff16815260200190815260200160002060009054906101000a900460ff1661146b576040517f08c379a000000000000000000000000000000000000000000000000000000000815260040161146290612df4565b60405180910390fd5b61147485610d6e565b61147d57600080fd5b6276a7004261148c9190612d74565b6276a700844261149c9190612d74565b6114a69190612d74565b116114b057600080fd5b82426114bc9190612d74565b600760008781526020019081526020016000208190555060006114de86611e61565b9050600073ffffffffffffffffffffffffffffffffffffffff168173ffffffffffffffffffffffffffffffffffffffff161461151e5761151d86612063565b5b61152885876120e9565b82156115d757600860009054906101000a900473ffffffffffffffffffffffffffffffffffffffff1673ffffffffffffffffffffffffffffffffffffffff166306ab59236009548860001b886040518463ffffffff1660e01b815260040161159293929190612c8c565b6020604051808303816000875af11580156115b1573d6000803e3d6000fd5b505050506040513d601f19601f820116820180604052508101906115d59190612cef565b505b8473ffffffffffffffffffffffffffffffffffffffff16867fb3d987963d01b2f68493b4bdb130988f157ea43070d4ad840fee0466ed9370d9864261161c9190612d74565b60405161162991906127c8565b60405180910390a3834261163d9190612d74565b915050949350505050565b60008061165484611e61565b9050600073ffffffffffffffffffffffffffffffffffffffff168373ffffffffffffffffffffffffffffffffffffffff1614611696576116958184866121e2565b5b600073ffffffffffffffffffffffffffffffffffffffff168173ffffffffffffffffffffffffffffffffffffffff1614611727576116d8600085600080611e9e565b6001600360008373ffffffffffffffffffffffffffffffffffffffff1673ffffffffffffffffffffffffffffffffffffffff168152602001908152602001600020600082825403925050819055505b600073ffffffffffffffffffffffffffffffffffffffff168573ffffffffffffffffffffffffffffffffffffffff16146117aa576001600360008773ffffffffffffffffffffffffffffffffffffffff1673ffffffffffffffffffffffffffffffffffffffff168152602001908152602001600020600082825401925050819055505b846002600086815260200190815260200160002060006101000a81548173ffffffffffffffffffffffffffffffffffffffff021916908373ffffffffffffffffffffffffffffffffffffffff160217905550838573ffffffffffffffffffffffffffffffffffffffff168273ffffffffffffffffffffffffffffffffffffffff167fddf252ad1be2c89b69c2b068fc378daa952ba7f163c4a11628f55a4df523b3ef60405160405180910390a4809150509392505050565b60008061186e83610bb3565b90508073ffffffffffffffffffffffffffffffffffffffff168473ffffffffffffffffffffffffffffffffffffffff1614806118dd57508373ffffffffffffffffffffffffffffffffffffffff166118c5846108c6565b73ffffffffffffffffffffffffffffffffffffffff16145b806118ee57506118ed8185611126565b5b91505092915050565b6118ff6113c3565b73ffffffffffffffffffffffffffffffffffffffff1661191d610cb2565b73ffffffffffffffffffffffffffffffffffffffff161461197c576119406113c3565b6040517f118cdaa700000000000000000000000000000000000000000000000000000000815260040161197391906126df565b60405180910390fd5b565b6000611989826112fe565b9050919050565b6000600660009054906101000a900473ffffffffffffffffffffffffffffffffffffffff16905081600660006101000a81548173ffffffffffffffffffffffffffffffffffffffff021916908373ffffffffffffffffffffffffffffffffffffffff1602179055508173ffffffffffffffffffffffffffffffffffffffff168173ffffffffffffffffffffffffffffffffffffffff167f8be0079c531659141344cd1fd0a4f28419497f9722a3daafe3b4186f6b6457e060405160405180910390a35050565b600073ffffffffffffffffffffffffffffffffffffffff168273ffffffffffffffffffffffffffffffffffffffff1603611ac757816040517f5b08ba18000000000000000000000000000000000000000000000000000000008152600401611abe91906126df565b60405180910390fd5b80600560008573ffffffffffffffffffffffffffffffffffffffff1673ffffffffffffffffffffffffffffffffffffffff16815260200190815260200160002060008473ffffffffffffffffffffffffffffffffffffffff1673ffffffffffffffffffffffffffffffffffffffff16815260200190815260200160002060006101000a81548160ff0219169083151502179055508173ffffffffffffffffffffffffffffffffffffffff168373ffffffffffffffffffffffffffffffffffffffff167f17307eab39ab6107e8899845ad3d59bd9653f200f220920489ca2b5937696c3183604051611bb8919061256e565b60405180910390a3505050565b60008373ffffffffffffffffffffffffffffffffffffffff163b1115611d76578273ffffffffffffffffffffffffffffffffffffffff1663150b7a02611c096113c3565b8685856040518563ffffffff1660e01b8152600401611c2b9493929190612fed565b6020604051808303816000875af1925050508015611c6757506040513d601f19601f82011682018060405250810190611c64919061304e565b60015b611ceb573d8060008114611c97576040519150601f19603f3d011682016040523d82523d6000602084013e611c9c565b606091505b506000815103611ce357836040517f64a0ae92000000000000000000000000000000000000000000000000000000008152600401611cda91906126df565b60405180910390fd5b805181602001fd5b63150b7a0260e01b7bffffffffffffffffffffffffffffffffffffffffffffffffffffffff1916817bffffffffffffffffffffffffffffffffffffffffffffffffffffffff191614611d7457836040517f64a0ae92000000000000000000000000000000000000000000000000000000008152600401611d6b91906126df565b60405180910390fd5b505b50505050565b606060405180602001604052806000815250905090565b606060006001611da2846122a6565b01905060008167ffffffffffffffff811115611dc157611dc0612993565b5b6040519080825280601f01601f191660200182016040528015611df35781602001600182028036833780820191505090505b509050600082602001820190505b600115611e56578080600190039150507f3031323334353637383961626364656600000000000000000000000000000000600a86061a8153600a8581611e4a57611e4961307b565b5b04945060008503611e01575b819350505050919050565b60006002600083815260200190815260200160002060009054906101000a900473ffffffffffffffffffffffffffffffffffffffff169050919050565b8080611ed75750600073ffffffffffffffffffffffffffffffffffffffff168273ffffffffffffffffffffffffffffffffffffffff1614155b1561200b576000611ee7846112fe565b9050600073ffffffffffffffffffffffffffffffffffffffff168373ffffffffffffffffffffffffffffffffffffffff1614158015611f5257508273ffffffffffffffffffffffffffffffffffffffff168173ffffffffffffffffffffffffffffffffffffffff1614155b8015611f655750611f638184611126565b155b15611fa757826040517fa9fbf51f000000000000000000000000000000000000000000000000000000008152600401611f9e91906126df565b60405180910390fd5b811561200957838573ffffffffffffffffffffffffffffffffffffffff168273ffffffffffffffffffffffffffffffffffffffff167f8c5be1e5ebec7d5bd14f71427d1e84f3dd0314c0f7b2291e5b200ac8c7c3b92560405160405180910390a45b505b836004600085815260200190815260200160002060006101000a81548173ffffffffffffffffffffffffffffffffffffffff021916908373ffffffffffffffffffffffffffffffffffffffff16021790555050505050565b60006120726000836000611648565b9050600073ffffffffffffffffffffffffffffffffffffffff168173ffffffffffffffffffffffffffffffffffffffff16036120e557816040517f7e2732890000000000000000000000000000000000000000000000000000000081526004016120dc91906127c8565b60405180910390fd5b5050565b600073ffffffffffffffffffffffffffffffffffffffff168273ffffffffffffffffffffffffffffffffffffffff160361215b5760006040517f64a0ae9200000000000000000000000000000000000000000000000000000000815260040161215291906126df565b60405180910390fd5b600061216983836000611648565b9050600073ffffffffffffffffffffffffffffffffffffffff168173ffffffffffffffffffffffffffffffffffffffff16146121dd5760006040517f73c6ac6e0000000000000000000000000000000000000000000000000000000081526004016121d491906126df565b60405180910390fd5b505050565b6121ed8383836123f9565b6122a157600073ffffffffffffffffffffffffffffffffffffffff168373ffffffffffffffffffffffffffffffffffffffff160361226257806040517f7e27328900000000000000000000000000000000000000000000000000000000815260040161225991906127c8565b60405180910390fd5b81816040517f177e802f0000000000000000000000000000000000000000000000000000000081526004016122989291906130aa565b60405180910390fd5b505050565b600080600090507a184f03e93ff9f4daa797ed6e38ed64bf6a1f0100000000000000008310612304577a184f03e93ff9f4daa797ed6e38ed64bf6a1f01000000000000000083816122fa576122f961307b565b5b0492506040810190505b6d04ee2d6d415b85acef81000000008310612341576d04ee2d6d415b85acef810000000083816123375761233661307b565b5b0492506020810190505b662386f26fc10000831061237057662386f26fc1000083816123665761236561307b565b5b0492506010810190505b6305f5e1008310612399576305f5e100838161238f5761238e61307b565b5b0492506008810190505b61271083106123be5761271083816123b4576123b361307b565b5b0492506004810190505b606483106123e157606483816123d7576123d661307b565b5b0492506002810190505b600a83106123f0576001810190505b80915050919050565b60008073ffffffffffffffffffffffffffffffffffffffff168373ffffffffffffffffffffffffffffffffffffffff16141580156124b157508273ffffffffffffffffffffffffffffffffffffffff168473ffffffffffffffffffffffffffffffffffffffff16148061247257506124718484611126565b5b806124b057508273ffffffffffffffffffffffffffffffffffffffff1661249883611386565b73ffffffffffffffffffffffffffffffffffffffff16145b5b90509392505050565b6000604051905090565b600080fd5b600080fd5b60007fffffffff0000000000000000000000000000000000000000000000000000000082169050919050565b612503816124ce565b811461250e57600080fd5b50565b600081359050612520816124fa565b92915050565b60006020828403121561253c5761253b6124c4565b5b600061254a84828501612511565b91505092915050565b60008115159050919050565b61256881612553565b82525050565b6000602082019050612583600083018461255f565b92915050565b600081519050919050565b600082825260208201905092915050565b60005b838110156125c35780820151818401526020810190506125a8565b60008484015250505050565b6000601f19601f8301169050919050565b60006125eb82612589565b6125f58185612594565b93506126058185602086016125a5565b61260e816125cf565b840191505092915050565b6000602082019050818103600083015261263381846125e0565b905092915050565b6000819050919050565b61264e8161263b565b811461265957600080fd5b50565b60008135905061266b81612645565b92915050565b600060208284031215612687576126866124c4565b5b60006126958482850161265c565b91505092915050565b600073ffffffffffffffffffffffffffffffffffffffff82169050919050565b60006126c98261269e565b9050919050565b6126d9816126be565b82525050565b60006020820190506126f460008301846126d0565b92915050565b612703816126be565b811461270e57600080fd5b50565b600081359050612720816126fa565b92915050565b6000806040838503121561273d5761273c6124c4565b5b600061274b85828601612711565b925050602061275c8582860161265c565b9150509250929050565b60008060006060848603121561277f5761277e6124c4565b5b600061278d8682870161265c565b935050602061279e86828701612711565b92505060406127af8682870161265c565b9150509250925092565b6127c28161263b565b82525050565b60006020820190506127dd60008301846127b9565b92915050565b6000806000606084860312156127fc576127fb6124c4565b5b600061280a86828701612711565b935050602061281b86828701612711565b925050604061282c8682870161265c565b9150509250925092565b6000806040838503121561284d5761284c6124c4565b5b600061285b8582860161265c565b925050602061286c85828601612711565b9150509250929050565b6000819050919050565b600061289b6128966128918461269e565b612876565b61269e565b9050919050565b60006128ad82612880565b9050919050565b60006128bf826128a2565b9050919050565b6128cf816128b4565b82525050565b60006020820190506128ea60008301846128c6565b92915050565b600060208284031215612906576129056124c4565b5b600061291484828501612711565b91505092915050565b61292681612553565b811461293157600080fd5b50565b6000813590506129438161291d565b92915050565b600080604083850312156129605761295f6124c4565b5b600061296e85828601612711565b925050602061297f85828601612934565b9150509250929050565b600080fd5b600080fd5b7f4e487b7100000000000000000000000000000000000000000000000000000000600052604160045260246000fd5b6129cb826125cf565b810181811067ffffffffffffffff821117156129ea576129e9612993565b5b80604052505050565b60006129fd6124ba565b9050612a0982826129c2565b919050565b600067ffffffffffffffff821115612a2957612a28612993565b5b612a32826125cf565b9050602081019050919050565b82818337600083830152505050565b6000612a61612a5c84612a0e565b6129f3565b905082815260208101848484011115612a7d57612a7c61298e565b5b612a88848285612a3f565b509392505050565b600082601f830112612aa557612aa4612989565b5b8135612ab5848260208601612a4e565b91505092915050565b60008060008060808587031215612ad857612ad76124c4565b5b6000612ae687828801612711565b9450506020612af787828801612711565b9350506040612b088782880161265c565b925050606085013567ffffffffffffffff811115612b2957612b286124c9565b5b612b3587828801612a90565b91505092959194509250565b60008060408385031215612b5857612b576124c4565b5b6000612b668582860161265c565b9250506020612b778582860161265c565b9150509250929050565b6000819050919050565b612b9481612b81565b82525050565b6000602082019050612baf6000830184612b8b565b92915050565b60008060408385031215612bcc57612bcb6124c4565b5b6000612bda85828601612711565b9250506020612beb85828601612711565b9150509250929050565b7f4e487b7100000000000000000000000000000000000000000000000000000000600052602260045260246000fd5b60006002820490506001821680612c3c57607f821691505b602082108103612c4f57612c4e612bf5565b5b50919050565b6000606082019050612c6a60008301866126d0565b612c7760208301856127b9565b612c8460408301846126d0565b949350505050565b6000606082019050612ca16000830186612b8b565b612cae6020830185612b8b565b612cbb60408301846126d0565b949350505050565b612ccc81612b81565b8114612cd757600080fd5b50565b600081519050612ce981612cc3565b92915050565b600060208284031215612d0557612d046124c4565b5b6000612d1384828501612cda565b91505092915050565b6000604082019050612d316000830185612b8b565b612d3e60208301846126d0565b9392505050565b7f4e487b7100000000000000000000000000000000000000000000000000000000600052601160045260246000fd5b6000612d7f8261263b565b9150612d8a8361263b565b9250828201905080821115612da257612da1612d45565b5b92915050565b7f596f7520617265206e6f7420636f6e74726f6c6c657200000000000000000000600082015250565b6000612dde601683612594565b9150612de982612da8565b602082019050919050565b60006020820190508181036000830152612e0d81612dd1565b9050919050565b7f4e616d65206d7573742062652072656769737465726564206f7220696e20677260008201527f61636520706572696f6400000000000000000000000000000000000000000000602082015250565b6000612e70602a83612594565b9150612e7b82612e14565b604082019050919050565b60006020820190508181036000830152612e9f81612e63565b9050919050565b7f4e616d65206475726174696f6e206d75737420626520696e207468652066757460008201527f7572650000000000000000000000000000000000000000000000000000000000602082015250565b6000612f02602383612594565b9150612f0d82612ea6565b604082019050919050565b60006020820190508181036000830152612f3181612ef5565b9050919050565b600081905092915050565b6000612f4e82612589565b612f588185612f38565b9350612f688185602086016125a5565b80840191505092915050565b6000612f808285612f43565b9150612f8c8284612f43565b91508190509392505050565b600081519050919050565b600082825260208201905092915050565b6000612fbf82612f98565b612fc98185612fa3565b9350612fd98185602086016125a5565b612fe2816125cf565b840191505092915050565b600060808201905061300260008301876126d0565b61300f60208301866126d0565b61301c60408301856127b9565b818103606083015261302e8184612fb4565b905095945050505050565b600081519050613048816124fa565b92915050565b600060208284031215613064576130636124c4565b5b600061307284828501613039565b91505092915050565b7f4e487b7100000000000000000000000000000000000000000000000000000000600052601260045260246000fd5b60006040820190506130bf60008301856126d0565b6130cc60208301846127b9565b939250505056fea26469706673582212203d2276842eceece86c7ee70eb9767c31167c2913be2ff4603bb722d5b513260d64736f6c63430008140033",
  "linkReferences": {},
  "deployedLinkReferences": {}
}