{
  "_format": "hh-sol-artifact-1",
  "contractName": "BaseRegistrarImplementation",
  "sourceName": "contracts/zkfregistrar/BaseRegistrarImplementation.sol",
  "abi": [
    {
      "inputs": [
        {
          "internalType": "contract ENS",
          "name": "_ens",
          "type": "address"
        },
        {
          "internalType": "bytes32",
          "name": "_baseNode",
          "type": "bytes32"
        }
      ],
      "stateMutability": "nonpayable",
      "type": "constructor"
    },
    {
      "inputs": [
        {
          "internalType": "address",
          "name": "sender",
          "type": "address"
        },
        {
          "internalType": "uint256",
          "name": "tokenId",
          "type": "uint256"
        },
        {
          "internalType": "address",
          "name": "owner",
          "type": "address"
        }
      ],
      "name": "ERC721IncorrectOwner",
      "type": "error"
    },
    {
      "inputs": [
        {
          "internalType": "address",
          "name": "operator",
          "type": "address"
        },
        {
          "internalType": "uint256",
          "name": "tokenId",
          "type": "uint256"
        }
      ],
      "name": "ERC721InsufficientApproval",
      "type": "error"
    },
    {
      "inputs": [
        {
          "internalType": "address",
          "name": "approver",
          "type": "address"
        }
      ],
      "name": "ERC721InvalidApprover",
      "type": "error"
    },
    {
      "inputs": [
        {
          "internalType": "address",
          "name": "operator",
          "type": "address"
        }
      ],
      "name": "ERC721InvalidOperator",
      "type": "error"
    },
    {
      "inputs": [
        {
          "internalType": "address",
          "name": "owner",
          "type": "address"
        }
      ],
      "name": "ERC721InvalidOwner",
      "type": "error"
    },
    {
      "inputs": [
        {
          "internalType": "address",
          "name": "receiver",
          "type": "address"
        }
      ],
      "name": "ERC721InvalidReceiver",
      "type": "error"
    },
    {
      "inputs": [
        {
          "internalType": "address",
          "name": "sender",
          "type": "address"
        }
      ],
      "name": "ERC721InvalidSender",
      "type": "error"
    },
    {
      "inputs": [
        {
          "internalType": "uint256",
          "name": "tokenId",
          "type": "uint256"
        }
      ],
      "name": "ERC721NonexistentToken",
      "type": "error"
    },
    {
      "inputs": [
        {
          "internalType": "address",
          "name": "owner",
          "type": "address"
        }
      ],
      "name": "OwnableInvalidOwner",
      "type": "error"
    },
    {
      "inputs": [
        {
          "internalType": "address",
          "name": "account",
          "type": "address"
        }
      ],
      "name": "OwnableUnauthorizedAccount",
      "type": "error"
    },
    {
      "anonymous": false,
      "inputs": [
        {
          "indexed": true,
          "internalType": "address",
          "name": "owner",
          "type": "address"
        },
        {
          "indexed": true,
          "internalType": "address",
          "name": "approved",
          "type": "address"
        },
        {
          "indexed": true,
          "internalType": "uint256",
          "name": "tokenId",
          "type": "uint256"
        }
      ],
      "name": "Approval",
      "type": "event"
    },
    {
      "anonymous": false,
      "inputs": [
        {
          "indexed": true,
          "internalType": "address",
          "name": "owner",
          "type": "address"
        },
        {
          "indexed": true,
          "internalType": "address",
          "name": "operator",
          "type": "address"
        },
        {
          "indexed": false,
          "internalType": "bool",
          "name": "approved",
          "type": "bool"
        }
      ],
      "name": "ApprovalForAll",
      "type": "event"
    },
    {
      "anonymous": false,
      "inputs": [
        {
          "indexed": true,
          "internalType": "address",
          "name": "controller",
          "type": "address"
        }
      ],
      "name": "ControllerAdded",
      "type": "event"
    },
    {
      "anonymous": false,
      "inputs": [
        {
          "indexed": true,
          "internalType": "address",
          "name": "controller",
          "type": "address"
        }
      ],
      "name": "ControllerRemoved",
      "type": "event"
    },
    {
      "anonymous": false,
      "inputs": [
        {
          "indexed": true,
          "internalType": "uint256",
          "name": "id",
          "type": "uint256"
        },
        {
          "indexed": true,
          "internalType": "address",
          "name": "owner",
          "type": "address"
        },
        {
          "indexed": false,
          "internalType": "uint256",
          "name": "expires",
          "type": "uint256"
        }
      ],
      "name": "NameMigrated",
      "type": "event"
    },
    {
      "anonymous": false,
      "inputs": [
        {
          "indexed": true,
          "internalType": "uint256",
          "name": "id",
          "type": "uint256"
        },
        {
          "indexed": true,
          "internalType": "address",
          "name": "owner",
          "type": "address"
        },
        {
          "indexed": false,
          "internalType": "uint256",
          "name": "expires",
          "type": "uint256"
        }
      ],
      "name": "NameRegistered",
      "type": "event"
    },
    {
      "anonymous": false,
      "inputs": [
        {
          "indexed": true,
          "internalType": "uint256",
          "name": "id",
          "type": "uint256"
        },
        {
          "indexed": false,
          "internalType": "uint256",
          "name": "expires",
          "type": "uint256"
        }
      ],
      "name": "NameRenewed",
      "type": "event"
    },
    {
      "anonymous": false,
      "inputs": [
        {
          "indexed": true,
          "internalType": "address",
          "name": "previousOwner",
          "type": "address"
        },
        {
          "indexed": true,
          "internalType": "address",
          "name": "newOwner",
          "type": "address"
        }
      ],
      "name": "OwnershipTransferred",
      "type": "event"
    },
    {
      "anonymous": false,
      "inputs": [
        {
          "indexed": true,
          "internalType": "address",
          "name": "from",
          "type": "address"
        },
        {
          "indexed": true,
          "internalType": "address",
          "name": "to",
          "type": "address"
        },
        {
          "indexed": true,
          "internalType": "uint256",
          "name": "tokenId",
          "type": "uint256"
        }
      ],
      "name": "Transfer",
      "type": "event"
    },
    {
      "inputs": [],
      "name": "GRACE_PERIOD",
      "outputs": [
        {
          "internalType": "uint256",
          "name": "",
          "type": "uint256"
        }
      ],
      "stateMutability": "view",
      "type": "function"
    },
    {
      "inputs": [
        {
          "internalType": "address",
          "name": "controller",
          "type": "address"
        }
      ],
      "name": "addController",
      "outputs": [],
      "stateMutability": "nonpayable",
      "type": "function"
    },
    {
      "inputs": [
        {
          "internalType": "address",
          "name": "to",
          "type": "address"
        },
        {
          "internalType": "uint256",
          "name": "tokenId",
          "type": "uint256"
        }
      ],
      "name": "approve",
      "outputs": [],
      "stateMutability": "nonpayable",
      "type": "function"
    },
    {
      "inputs": [
        {
          "internalType": "uint256",
          "name": "id",
          "type": "uint256"
        }
      ],
      "name": "available",
      "outputs": [
        {
          "internalType": "bool",
          "name": "",
          "type": "bool"
        }
      ],
      "stateMutability": "view",
      "type": "function"
    },
    {
      "inputs": [
        {
          "internalType": "address",
          "name": "owner",
          "type": "address"
        }
      ],
      "name": "balanceOf",
      "outputs": [
        {
          "internalType": "uint256",
          "name": "",
          "type": "uint256"
        }
      ],
      "stateMutability": "view",
      "type": "function"
    },
    {
      "inputs": [],
      "name": "baseNode",
      "outputs": [
        {
          "internalType": "bytes32",
          "name": "",
          "type": "bytes32"
        }
      ],
      "stateMutability": "view",
      "type": "function"
    },
    {
      "inputs": [],
      "name": "baseUri",
      "outputs": [
        {
          "internalType": "string",
          "name": "",
          "type": "string"
        }
      ],
      "stateMutability": "view",
      "type": "function"
    },
    {
      "inputs": [
        {
          "internalType": "address",
          "name": "",
          "type": "address"
        }
      ],
      "name": "controllers",
      "outputs": [
        {
          "internalType": "bool",
          "name": "",
          "type": "bool"
        }
      ],
      "stateMutability": "view",
      "type": "function"
    },
    {
      "inputs": [],
      "name": "ens",
      "outputs": [
        {
          "internalType": "contract ENS",
          "name": "",
          "type": "address"
        }
      ],
      "stateMutability": "view",
      "type": "function"
    },
    {
      "inputs": [
        {
          "internalType": "uint256",
          "name": "tokenId",
          "type": "uint256"
        }
      ],
      "name": "getApproved",
      "outputs": [
        {
          "internalType": "address",
          "name": "",
          "type": "address"
        }
      ],
      "stateMutability": "view",
      "type": "function"
    },
    {
      "inputs": [
        {
          "internalType": "address",
          "name": "owner",
          "type": "address"
        },
        {
          "internalType": "address",
          "name": "operator",
          "type": "address"
        }
      ],
      "name": "isApprovedForAll",
      "outputs": [
        {
          "internalType": "bool",
          "name": "",
          "type": "bool"
        }
      ],
      "stateMutability": "view",
      "type": "function"
    },
    {
      "inputs": [],
      "name": "name",
      "outputs": [
        {
          "internalType": "string",
          "name": "",
          "type": "string"
        }
      ],
      "stateMutability": "view",
      "type": "function"
    },
    {
      "inputs": [
        {
          "internalType": "uint256",
          "name": "id",
          "type": "uint256"
        }
      ],
      "name": "nameExpires",
      "outputs": [
        {
          "internalType": "uint256",
          "name": "",
          "type": "uint256"
        }
      ],
      "stateMutability": "view",
      "type": "function"
    },
    {
      "inputs": [],
      "name": "owner",
      "outputs": [
        {
          "internalType": "address",
          "name": "",
          "type": "address"
        }
      ],
      "stateMutability": "view",
      "type": "function"
    },
    {
      "inputs": [
        {
          "internalType": "uint256",
          "name": "tokenId",
          "type": "uint256"
        }
      ],
      "name": "ownerOf",
      "outputs": [
        {
          "internalType": "address",
          "name": "",
          "type": "address"
        }
      ],
      "stateMutability": "view",
      "type": "function"
    },
    {
      "inputs": [
        {
          "internalType": "uint256",
          "name": "id",
          "type": "uint256"
        },
        {
          "internalType": "address",
          "name": "owner",
          "type": "address"
        }
      ],
      "name": "reclaim",
      "outputs": [],
      "stateMutability": "nonpayable",
      "type": "function"
    },
    {
      "inputs": [
        {
          "internalType": "uint256",
          "name": "id",
          "type": "uint256"
        },
        {
          "internalType": "address",
          "name": "owner",
          "type": "address"
        },
        {
          "internalType": "uint256",
          "name": "duration",
          "type": "uint256"
        }
      ],
      "name": "register",
      "outputs": [
        {
          "internalType": "uint256",
          "name": "",
          "type": "uint256"
        }
      ],
      "stateMutability": "nonpayable",
      "type": "function"
    },
    {
      "inputs": [
        {
          "internalType": "uint256",
          "name": "id",
          "type": "uint256"
        },
        {
          "internalType": "address",
          "name": "owner",
          "type": "address"
        },
        {
          "internalType": "uint256",
          "name": "duration",
          "type": "uint256"
        }
      ],
      "name": "registerOnly",
      "outputs": [
        {
          "internalType": "uint256",
          "name": "",
          "type": "uint256"
        }
      ],
      "stateMutability": "nonpayable",
      "type": "function"
    },
    {
      "inputs": [
        {
          "internalType": "address",
          "name": "controller",
          "type": "address"
        }
      ],
      "name": "removeController",
      "outputs": [],
      "stateMutability": "nonpayable",
      "type": "function"
    },
    {
      "inputs": [
        {
          "internalType": "uint256",
          "name": "id",
          "type": "uint256"
        },
        {
          "internalType": "uint256",
          "name": "duration",
          "type": "uint256"
        }
      ],
      "name": "renew",
      "outputs": [
        {
          "internalType": "uint256",
          "name": "",
          "type": "uint256"
        }
      ],
      "stateMutability": "nonpayable",
      "type": "function"
    },
    {
      "inputs": [],
      "name": "renounceOwnership",
      "outputs": [],
      "stateMutability": "nonpayable",
      "type": "function"
    },
    {
      "inputs": [
        {
          "internalType": "address",
          "name": "from",
          "type": "address"
        },
        {
          "internalType": "address",
          "name": "to",
          "type": "address"
        },
        {
          "internalType": "uint256",
          "name": "tokenId",
          "type": "uint256"
        }
      ],
      "name": "safeTransferFrom",
      "outputs": [],
      "stateMutability": "nonpayable",
      "type": "function"
    },
    {
      "inputs": [
        {
          "internalType": "address",
          "name": "from",
          "type": "address"
        },
        {
          "internalType": "address",
          "name": "to",
          "type": "address"
        },
        {
          "internalType": "uint256",
          "name": "tokenId",
          "type": "uint256"
        },
        {
          "internalType": "bytes",
          "name": "data",
          "type": "bytes"
        }
      ],
      "name": "safeTransferFrom",
      "outputs": [],
      "stateMutability": "nonpayable",
      "type": "function"
    },
    {
      "inputs": [
        {
          "internalType": "address",
          "name": "operator",
          "type": "address"
        },
        {
          "internalType": "bool",
          "name": "approved",
          "type": "bool"
        }
      ],
      "name": "setApprovalForAll",
      "outputs": [],
      "stateMutability": "nonpayable",
      "type": "function"
    },
    {
      "inputs": [
        {
          "internalType": "string",
          "name": "uri",
          "type": "string"
        }
      ],
      "name": "setBaseUri",
      "outputs": [],
      "stateMutability": "nonpayable",
      "type": "function"
    },
    {
      "inputs": [
        {
          "internalType": "address",
          "name": "resolver",
          "type": "address"
        }
      ],
      "name": "setResolver",
      "outputs": [],
      "stateMutability": "nonpayable",
      "type": "function"
    },
    {
      "inputs": [
        {
          "internalType": "bytes4",
          "name": "interfaceID",
          "type": "bytes4"
        }
      ],
      "name": "supportsInterface",
      "outputs": [
        {
          "internalType": "bool",
          "name": "",
          "type": "bool"
        }
      ],
      "stateMutability": "pure",
      "type": "function"
    },
    {
      "inputs": [],
      "name": "symbol",
      "outputs": [
        {
          "internalType": "string",
          "name": "",
          "type": "string"
        }
      ],
      "stateMutability": "view",
      "type": "function"
    },
    {
      "inputs": [
        {
          "internalType": "uint256",
          "name": "tokenId",
          "type": "uint256"
        }
      ],
      "name": "tokenURI",
      "outputs": [
        {
          "internalType": "string",
          "name": "",
          "type": "string"
        }
      ],
      "stateMutability": "view",
      "type": "function"
    },
    {
      "inputs": [
        {
          "internalType": "address",
          "name": "from",
          "type": "address"
        },
        {
          "internalType": "address",
          "name": "to",
          "type": "address"
        },
        {
          "internalType": "uint256",
          "name": "tokenId",
          "type": "uint256"
        }
      ],
      "name": "transferFrom",
      "outputs": [],
      "stateMutability": "nonpayable",
      "type": "function"
    },
    {
      "inputs": [
        {
          "internalType": "address",
          "name": "newOwner",
          "type": "address"
        }
      ],
      "name": "transferOwnership",
      "outputs": [],
      "stateMutability": "nonpayable",
      "type": "function"
    }
  ],
  "bytecode": "0x60806040523480156200001157600080fd5b5060405162001e8d38038062001e8d833981016040819052620000349162000163565b336040518060400160405280601381526020017f5a4b46616972204e616d65205365727669636500000000000000000000000000815250604051806040016040528060058152602001645a4b464e5360d81b81525081600090816200009a919062000244565b506001620000a9828262000244565b5050506001600160a01b038116620000db57604051631e4fbdf760e01b81526000600482015260240160405180910390fd5b620000e68162000111565b50600880546001600160a01b0319166001600160a01b03939093169290921790915560095562000310565b600680546001600160a01b038381166001600160a01b0319831681179093556040519116919082907f8be0079c531659141344cd1fd0a4f28419497f9722a3daafe3b4186f6b6457e090600090a35050565b600080604083850312156200017757600080fd5b82516001600160a01b03811681146200018f57600080fd5b6020939093015192949293505050565b634e487b7160e01b600052604160045260246000fd5b600181811c90821680620001ca57607f821691505b602082108103620001eb57634e487b7160e01b600052602260045260246000fd5b50919050565b601f8211156200023f57600081815260208120601f850160051c810160208610156200021a5750805b601f850160051c820191505b818110156200023b5782815560010162000226565b5050505b505050565b81516001600160401b038111156200026057620002606200019f565b6200027881620002718454620001b5565b84620001f1565b602080601f831160018114620002b05760008415620002975750858301515b600019600386901b1c1916600185901b1785556200023b565b600085815260208120601f198616915b82811015620002e157888601518255948401946001909101908401620002c0565b5085821015620003005787850151600019600388901b60f8161c191681555b5050505050600190811b01905550565b611b6d80620003206000396000f3fe608060405234801561001057600080fd5b50600436106101e55760003560e01c806396e494e81161010f578063c87b56dd116100a2578063e985e9c511610071578063e985e9c514610411578063f2fde38b14610424578063f6a74ed714610437578063fca247ac1461044a57600080fd5b8063c87b56dd146103b2578063d6e4fa86146103c5578063da8c229e146103e5578063ddf7fcb01461040857600080fd5b8063a7fc7a07116100de578063a7fc7a071461036f578063b88d4fde14610382578063c1a287e214610395578063c475abff1461039f57600080fd5b806396e494e81461032e5780639abc832014610341578063a0bcfc7f14610349578063a22cb4651461035c57600080fd5b80633f15457f1161018757806370a082311161015657806370a08231146102fa578063715018a61461030d5780638da5cb5b1461031557806395d89b411461032657600080fd5b80633f15457f146102ae57806342842e0e146102c15780634e543b26146102d45780636352211e146102e757600080fd5b8063095ea7b3116101c3578063095ea7b3146102525780630e297b451461026757806323b872dd1461028857806328ed4f6c1461029b57600080fd5b806301ffc9a7146101ea57806306fdde0314610212578063081812fc14610227575b600080fd5b6101fd6101f83660046115d6565b61045d565b60405190151581526020015b60405180910390f35b61021a6104af565b6040516102099190611643565b61023a610235366004611656565b610541565b6040516001600160a01b039091168152602001610209565b61026561026036600461168b565b61056a565b005b61027a6102753660046116b5565b610579565b604051908152602001610209565b6102656102963660046116ea565b610590565b6102656102a9366004611716565b610620565b60085461023a906001600160a01b031681565b6102656102cf3660046116ea565b6106ba565b6102656102e2366004611742565b6106d5565b61023a6102f5366004611656565b61074a565b61027a610308366004611742565b61076d565b6102656107b5565b6006546001600160a01b031661023a565b61021a6107c9565b6101fd61033c366004611656565b6107d8565b61021a6107fe565b6102656103573660046117e9565b61088c565b61026561036a366004611832565b6108a0565b61026561037d366004611742565b6108ab565b61026561039036600461186e565b6108ff565b61027a6276a70081565b61027a6103ad3660046118ea565b610916565b61021a6103c0366004611656565b610aff565b61027a6103d3366004611656565b60009081526007602052604090205490565b6101fd6103f3366004611742565b600a6020526000908152604090205460ff1681565b61027a60095481565b6101fd61041f36600461190c565b610b67565b610265610432366004611742565b610b95565b610265610445366004611742565b610bd3565b61027a6104583660046116b5565b610c24565b60006001600160e01b031982166301ffc9a760e01b148061048e57506001600160e01b031982166380ac58cd60e01b145b806104a957506001600160e01b03198216630a3b53db60e21b145b92915050565b6060600080546104be90611936565b80601f01602080910402602001604051908101604052809291908181526020018280546104ea90611936565b80156105375780601f1061050c57610100808354040283529160200191610537565b820191906000526020600020905b81548152906001019060200180831161051a57829003601f168201915b5050505050905090565b600061054c82610c33565b506000828152600460205260409020546001600160a01b03166104a9565b610575828233610c6c565b5050565b60006105888484846000610c79565b949350505050565b6001600160a01b0382166105bf57604051633250574960e11b8152600060048201526024015b60405180910390fd5b60006105cc838333610e3e565b9050836001600160a01b0316816001600160a01b03161461061a576040516364283d7b60e01b81526001600160a01b03808616600483015260248201849052821660448201526064016105b6565b50505050565b61062a3383610f37565b61063357600080fd5b6008546009546040516306ab592360e01b81526004810191909152602481018490526001600160a01b038381166044830152909116906306ab5923906064016020604051808303816000875af1158015610691573d6000803e3d6000fd5b505050506040513d601f19601f820116820180604052508101906106b59190611970565b505050565b6106b5838383604051806020016040528060008152506108ff565b6106dd610f8e565b600854600954604051630c4b7b8560e11b815260048101919091526001600160a01b03838116602483015290911690631896f70a90604401600060405180830381600087803b15801561072f57600080fd5b505af1158015610743573d6000803e3d6000fd5b5050505050565b600081815260076020526040812054421061076457600080fd5b6104a982610fbb565b60006001600160a01b038216610799576040516322718ad960e21b8152600060048201526024016105b6565b506001600160a01b031660009081526003602052604090205490565b6107bd610f8e565b6107c76000610fc6565b565b6060600180546104be90611936565b60008181526007602052604081205442906107f7906276a70090611989565b1092915050565b600b805461080b90611936565b80601f016020809104026020016040519081016040528092919081815260200182805461083790611936565b80156108845780601f1061085957610100808354040283529160200191610884565b820191906000526020600020905b81548152906001019060200180831161086757829003601f168201915b505050505081565b610894610f8e565b600b61057582826119f8565b610575338383611018565b6108b3610f8e565b6001600160a01b0381166000818152600a6020526040808220805460ff19166001179055517f0a8bb31534c0ed46f380cb867bd5c803a189ced9a764e30b3a4991a9901d74749190a250565b61090a848484610590565b61061a848484846110b7565b336000908152600a602052604081205460ff1661096e5760405162461bcd60e51b81526020600482015260166024820152752cb7ba9030b932903737ba1031b7b73a3937b63632b960511b60448201526064016105b6565b600083815260076020526040902054429061098d906276a70090611989565b10156109ee5760405162461bcd60e51b815260206004820152602a60248201527f4e616d65206d7573742062652072656769737465726564206f7220696e2067726044820152691858d9481c195c9a5bd960b21b60648201526084016105b6565b6109fb6276a70083611989565b6000848152600760205260409020546276a70090610a1a908590611989565b610a249190611989565b11610a7d5760405162461bcd60e51b815260206004820152602360248201527f4e616d65206475726174696f6e206d75737420626520696e207468652066757460448201526275726560e81b60648201526084016105b6565b60008381526007602052604081208054849290610a9b908490611989565b90915550506000838152600760205260409081902054905184917f9b87a00e30f1ac65d898f070f8a3488fe60517182d0a2098e1b4b93a54aa9bd691610ae391815260200190565b60405180910390a2505060009081526007602052604090205490565b6060610b0a82610c33565b506000610b156111d9565b90506000815111610b355760405180602001604052806000815250610b60565b80610b3f846111e8565b604051602001610b50929190611ab8565b6040516020818303038152906040525b9392505050565b6001600160a01b03918216600090815260056020908152604080832093909416825291909152205460ff1690565b610b9d610f8e565b6001600160a01b038116610bc757604051631e4fbdf760e01b8152600060048201526024016105b6565b610bd081610fc6565b50565b610bdb610f8e565b6001600160a01b0381166000818152600a6020526040808220805460ff19169055517f33d83959be2573f5453b12eb9d43b3499bc57d96bd2f067ba44803c859e811139190a250565b60006105888484846001610c79565b6000818152600260205260408120546001600160a01b0316806104a957604051637e27328960e01b8152600481018490526024016105b6565b6106b5838383600161127b565b336000908152600a602052604081205460ff16610cd15760405162461bcd60e51b81526020600482015260166024820152752cb7ba9030b932903737ba1031b7b73a3937b63632b960511b60448201526064016105b6565b610cda856107d8565b610ce357600080fd5b610cf06276a70042611989565b6276a700610cfe8542611989565b610d089190611989565b11610d1257600080fd5b610d1c8342611989565b6000868152600760209081526040808320939093556002905220546001600160a01b03168015610d4f57610d4f86611381565b610d5985876113bc565b8215610de3576008546009546040516306ab592360e01b81526004810191909152602481018890526001600160a01b038781166044830152909116906306ab5923906064016020604051808303816000875af1158015610dbd573d6000803e3d6000fd5b505050506040513d601f19601f82011682018060405250810190610de19190611970565b505b6001600160a01b038516867fb3d987963d01b2f68493b4bdb130988f157ea43070d4ad840fee0466ed9370d9610e198742611989565b60405190815260200160405180910390a3610e348442611989565b9695505050505050565b6000828152600260205260408120546001600160a01b0390811690831615610e6b57610e6b818486611421565b6001600160a01b03811615610ea957610e8860008560008061127b565b6001600160a01b038116600090815260036020526040902080546000190190555b6001600160a01b03851615610ed8576001600160a01b0385166000908152600360205260409020805460010190555b60008481526002602052604080822080546001600160a01b0319166001600160a01b0389811691821790925591518793918516917fddf252ad1be2c89b69c2b068fc378daa952ba7f163c4a11628f55a4df523b3ef91a4949350505050565b600080610f438361074a565b9050806001600160a01b0316846001600160a01b03161480610f7e5750836001600160a01b0316610f7384610541565b6001600160a01b0316145b8061058857506105888185610b67565b6006546001600160a01b031633146107c75760405163118cdaa760e01b81523360048201526024016105b6565b60006104a982610c33565b600680546001600160a01b038381166001600160a01b0319831681179093556040519116919082907f8be0079c531659141344cd1fd0a4f28419497f9722a3daafe3b4186f6b6457e090600090a35050565b6001600160a01b03821661104a57604051630b61174360e31b81526001600160a01b03831660048201526024016105b6565b6001600160a01b03838116600081815260056020908152604080832094871680845294825291829020805460ff191686151590811790915591519182527f17307eab39ab6107e8899845ad3d59bd9653f200f220920489ca2b5937696c31910160405180910390a3505050565b6001600160a01b0383163b1561061a57604051630a85bd0160e11b81526001600160a01b0384169063150b7a02906110f9903390889087908790600401611ae7565b6020604051808303816000875af1925050508015611134575060408051601f3d908101601f1916820190925261113191810190611b1a565b60015b61119d573d808015611162576040519150601f19603f3d011682016040523d82523d6000602084013e611167565b606091505b50805160000361119557604051633250574960e11b81526001600160a01b03851660048201526024016105b6565b805181602001fd5b6001600160e01b03198116630a85bd0160e11b1461074357604051633250574960e11b81526001600160a01b03851660048201526024016105b6565b6060600b80546104be90611936565b606060006111f583611485565b600101905060008167ffffffffffffffff8111156112155761121561175d565b6040519080825280601f01601f19166020018201604052801561123f576020820181803683370190505b5090508181016020015b600019016f181899199a1a9b1b9c1cb0b131b232b360811b600a86061a8153600a850494508461124957509392505050565b808061128f57506001600160a01b03821615155b1561135157600061129f84610c33565b90506001600160a01b038316158015906112cb5750826001600160a01b0316816001600160a01b031614155b80156112de57506112dc8184610b67565b155b156113075760405163a9fbf51f60e01b81526001600160a01b03841660048201526024016105b6565b811561134f5783856001600160a01b0316826001600160a01b03167f8c5be1e5ebec7d5bd14f71427d1e84f3dd0314c0f7b2291e5b200ac8c7c3b92560405160405180910390a45b505b5050600090815260046020526040902080546001600160a01b0319166001600160a01b0392909216919091179055565b60006113906000836000610e3e565b90506001600160a01b03811661057557604051637e27328960e01b8152600481018390526024016105b6565b6001600160a01b0382166113e657604051633250574960e11b8152600060048201526024016105b6565b60006113f483836000610e3e565b90506001600160a01b038116156106b5576040516339e3563760e11b8152600060048201526024016105b6565b61142c83838361155d565b6106b5576001600160a01b03831661145a57604051637e27328960e01b8152600481018290526024016105b6565b60405163177e802f60e01b81526001600160a01b0383166004820152602481018290526044016105b6565b60008072184f03e93ff9f4daa797ed6e38ed64bf6a1f0160401b83106114c45772184f03e93ff9f4daa797ed6e38ed64bf6a1f0160401b830492506040015b6d04ee2d6d415b85acef810000000083106114f0576d04ee2d6d415b85acef8100000000830492506020015b662386f26fc10000831061150e57662386f26fc10000830492506010015b6305f5e1008310611526576305f5e100830492506008015b612710831061153a57612710830492506004015b6064831061154c576064830492506002015b600a83106104a95760010192915050565b60006001600160a01b038316158015906105885750826001600160a01b0316846001600160a01b0316148061159757506115978484610b67565b806105885750506000908152600460205260409020546001600160a01b03908116911614919050565b6001600160e01b031981168114610bd057600080fd5b6000602082840312156115e857600080fd5b8135610b60816115c0565b60005b8381101561160e5781810151838201526020016115f6565b50506000910152565b6000815180845261162f8160208601602086016115f3565b601f01601f19169290920160200192915050565b602081526000610b606020830184611617565b60006020828403121561166857600080fd5b5035919050565b80356001600160a01b038116811461168657600080fd5b919050565b6000806040838503121561169e57600080fd5b6116a78361166f565b946020939093013593505050565b6000806000606084860312156116ca57600080fd5b833592506116da6020850161166f565b9150604084013590509250925092565b6000806000606084860312156116ff57600080fd5b6117088461166f565b92506116da6020850161166f565b6000806040838503121561172957600080fd5b823591506117396020840161166f565b90509250929050565b60006020828403121561175457600080fd5b610b608261166f565b634e487b7160e01b600052604160045260246000fd5b600067ffffffffffffffff8084111561178e5761178e61175d565b604051601f8501601f19908116603f011681019082821181831017156117b6576117b661175d565b816040528093508581528686860111156117cf57600080fd5b858560208301376000602087830101525050509392505050565b6000602082840312156117fb57600080fd5b813567ffffffffffffffff81111561181257600080fd5b8201601f8101841361182357600080fd5b61058884823560208401611773565b6000806040838503121561184557600080fd5b61184e8361166f565b91506020830135801515811461186357600080fd5b809150509250929050565b6000806000806080858703121561188457600080fd5b61188d8561166f565b935061189b6020860161166f565b925060408501359150606085013567ffffffffffffffff8111156118be57600080fd5b8501601f810187136118cf57600080fd5b6118de87823560208401611773565b91505092959194509250565b600080604083850312156118fd57600080fd5b50508035926020909101359150565b6000806040838503121561191f57600080fd5b6119288361166f565b91506117396020840161166f565b600181811c9082168061194a57607f821691505b60208210810361196a57634e487b7160e01b600052602260045260246000fd5b50919050565b60006020828403121561198257600080fd5b5051919050565b808201808211156104a957634e487b7160e01b600052601160045260246000fd5b601f8211156106b557600081815260208120601f850160051c810160208610156119d15750805b601f850160051c820191505b818110156119f0578281556001016119dd565b505050505050565b815167ffffffffffffffff811115611a1257611a1261175d565b611a2681611a208454611936565b846119aa565b602080601f831160018114611a5b5760008415611a435750858301515b600019600386901b1c1916600185901b1785556119f0565b600085815260208120601f198616915b82811015611a8a57888601518255948401946001909101908401611a6b565b5085821015611aa85787850151600019600388901b60f8161c191681555b5050505050600190811b01905550565b60008351611aca8184602088016115f3565b835190830190611ade8183602088016115f3565b01949350505050565b6001600160a01b0385811682528416602082015260408101839052608060608201819052600090610e3490830184611617565b600060208284031215611b2c57600080fd5b8151610b60816115c056fea26469706673582212208f1fa76f1e854ffb7488ad4f1456d6f0521cdd2afb324672aef96c578d7f91c564736f6c63430008140033",
  "linkReferences": {},
  "deployedLinkReferences": {}
}